{
  "contractName": "Airdrop",
  "abi": [
    {
      "anonymous": false,
      "inputs": [
        {
          "indexed": false,
          "internalType": "address",
          "name": "tokenAddress",
          "type": "address"
        },
        {
          "indexed": false,
          "internalType": "uint256",
          "name": "total",
          "type": "uint256"
        }
      ],
      "name": "Send",
      "type": "event"
    },
    {
      "inputs": [
        {
          "internalType": "address",
          "name": "token",
          "type": "address"
        },
        {
          "internalType": "address[]",
          "name": "contributors",
          "type": "address[]"
        },
        {
          "internalType": "uint256",
          "name": "balance",
          "type": "uint256"
        }
      ],
      "name": "sendEqual",
      "outputs": [],
      "stateMutability": "nonpayable",
      "type": "function"
    },
    {
      "inputs": [
        {
          "internalType": "address",
          "name": "token",
          "type": "address"
        },
        {
          "internalType": "address[]",
          "name": "contributors",
          "type": "address[]"
        },
        {
          "internalType": "uint256[]",
          "name": "balances",
          "type": "uint256[]"
        }
      ],
      "name": "send",
      "outputs": [],
      "stateMutability": "nonpayable",
      "type": "function"
    }
  ],
  "bytecode": "0x608060405234801561001057600080fd5b506106fc806100206000396000f3fe608060405234801561001057600080fd5b50600436106100395760e060020a600035046398b24f48811461003e578063f8129cd214610053575b600080fd5b61005161004c366004610540565b610066565b005b6100516100613660046104c2565b6101ec565b61010082106100935760405160e560020a62461bcd02815260040161008a906105f5565b60405180910390fd5b600160a060020a0384166100bc5760405160e560020a62461bcd02815260040161008a9061063d565b600084815b60ff81168511156101aa5781600160a060020a03166323b872dd3388888560ff168181106101025760e060020a634e487b7102600052603260045260246000fd5b905060200201602081019061011791906104a1565b876040518463ffffffff1660e060020a028152600401610139939291906105b8565b602060405180830381600087803b15801561015357600080fd5b505af1158015610167573d6000803e3d6000fd5b505050506040513d601f19601f8201168201806040525081019061018b9190610598565b506101968484610674565b9250806101a28161068c565b9150506100c1565b7f30a3c50752f2552dcc2b93f5b96866280816a986c0c0408cb6778b9fa198288f87846040516101db9291906105dc565b60405180910390a150505050505050565b600160a060020a0385166102155760405160e560020a62461bcd02815260040161008a9061063d565b61010083106102395760405160e560020a62461bcd02815260040161008a906105f5565b8281146102b15760405160e560020a62461bcd02815260206004820152603160248201527f20436f6e7472696275746f7273206c656e677468206973206e6f74206571756160448201527f6c2062616c616e636573206c656e677468000000000000000000000000000000606482015260840161008a565b600085815b60ff81168611156103f95781600160a060020a03166323b872dd3389898560ff168181106102f75760e060020a634e487b7102600052603260045260246000fd5b905060200201602081019061030c91906104a1565b88888660ff168181106103325760e060020a634e487b7102600052603260045260246000fd5b905060200201356040518463ffffffff1660e060020a02815260040161035a939291906105b8565b602060405180830381600087803b15801561037457600080fd5b505af1158015610388573d6000803e3d6000fd5b505050506040513d601f19601f820116820180604052508101906103ac9190610598565b5084848260ff168181106103d35760e060020a634e487b7102600052603260045260246000fd5b90506020020135836103e59190610674565b9250806103f18161068c565b9150506102b6565b7f30a3c50752f2552dcc2b93f5b96866280816a986c0c0408cb6778b9fa198288f888460405161042a9291906105dc565b60405180910390a15050505050505050565b8035600160a060020a038116811461045357600080fd5b919050565b60008083601f840112610469578182fd5b50813567ffffffffffffffff811115610480578182fd5b602083019150836020808302850101111561049a57600080fd5b9250929050565b6000602082840312156104b2578081fd5b6104bb8261043c565b9392505050565b6000806000806000606086880312156104d9578081fd5b6104e28661043c565b9450602086013567ffffffffffffffff808211156104fe578283fd5b61050a89838a01610458565b90965094506040880135915080821115610522578283fd5b5061052f88828901610458565b969995985093965092949392505050565b60008060008060608587031215610555578384fd5b61055e8561043c565b9350602085013567ffffffffffffffff811115610579578384fd5b61058587828801610458565b9598909750949560400135949350505050565b6000602082840312156105a9578081fd5b815180151581146104bb578182fd5b600160a060020a039384168152919092166020820152604081019190915260600190565b600160a060020a03929092168252602082015260400190565b60208082526025908201527f436f6e7472696275746f7273206c656e677468206973206d6f7265207468616e604082015260d960020a6410191a9b1702606082015260800190565b6020808252601d908201527f546f6b656e20616464726573732063616e206e6f74206265207a65726f000000604082015260600190565b60008219821115610687576106876106ac565b500190565b600060ff821660ff8114156106a3576106a36106ac565b60010192915050565b60e060020a634e487b710260009081526011600452602490fdfea2646970667358221220a1e9b7333683c48524f0f0799357e12fd4d9d07174a1fd3f3477962b58561c3d64736f6c63430008030033",
  "immutableReferences": {},
  "source": "pragma solidity ^0.8.2;\nimport \"@openzeppelin/contracts/token/ERC20/IERC20.sol\";\n\n/**\n* @title Airdrop\n* @dev This is an implementation of a smart contract that will manage the airdrop of our platform token\n*/\ncontract Airdrop {\n\n    event Send(address tokenAddress, uint256 total);        // Event emitted when airdrops are sent out.\n\n    /**\n       * @dev Function that sends token equally to all entitled addresses.\n       *\n       * @param token                   the token type to be sent out.          \n       * @param contributors            list of receivers\n       * @param balance                 amount each address will receive.\n    */\n    function sendEqual(address token, address[] calldata contributors, uint256 balance) external {\n        require(contributors.length < 256, \"Contributors length is more than 256.\");\n        require(token != address(0), \"Token address can not be zero\");\n        uint256 total = 0;\n        IERC20 erc20token = IERC20(token);\n        uint8 i = 0;\n        for (i; i < contributors.length; i++) {\n            erc20token.transferFrom(msg.sender, contributors[i], balance);\n            total += balance;\n        }\n        emit Send(token, total);\n    }\n\n    /**\n       * @dev Function that sends token to entitled addresses based on a pre-determined list of allocations.\n       *\n       * @param token                   the token type to be sent out.          \n       * @param contributors            list of receivers\n       * @param balances                 amount each address will receive.\n    */\n    function send(address token, address[] calldata contributors, uint256[] calldata balances) external {\n        require(token != address(0), \"Token address can not be zero\");\n        require(contributors.length < 256, \"Contributors length is more than 256.\");\n        require(contributors.length == balances.length,\" Contributors length is not equal balances length\");\n        uint256 total = 0;\n        IERC20 erc20token = IERC20(token);\n        uint8 i = 0;\n        for (i; i < contributors.length; i++) {\n            erc20token.transferFrom(msg.sender, contributors[i], balances[i]);\n            total += balances[i];\n        }\n        emit Send(token, total);\n    }\n} ",
  "sourcePath": "/Users/jack/Documents/GitHub/HighStreet/client/src/contracts/Airdrop.sol",
  "compiler": {
    "name": "solc",
    "version": "0.8.3+commit.8d00100c.Emscripten.clang"
  },
  "schemaVersion": "3.4.0",
  "updatedAt": "2021-09-25T11:30:46.626Z",
  "devdoc": {
    "details": "This is an implementation of a smart contract that will manage the airdrop of our platform token",
    "kind": "dev",
    "methods": {
      "send(address,address[],uint256[])": {
        "details": "Function that sends token to entitled addresses based on a pre-determined list of allocations.",
        "params": {
          "balances": "amount each address will receive.",
          "contributors": "list of receivers",
          "token": "the token type to be sent out.          "
        }
      },
      "sendEqual(address,address[],uint256)": {
        "details": "Function that sends token equally to all entitled addresses.",
        "params": {
          "balance": "amount each address will receive.",
          "contributors": "list of receivers",
          "token": "the token type to be sent out.          "
        }
      }
    },
    "title": "Airdrop",
    "version": 1
  },
  "userdoc": {
    "kind": "user",
    "methods": {},
    "version": 1
  }
}