{
  "contractName": "BancorBondingCurve",
  "abi": [
    {
      "inputs": [],
      "stateMutability": "nonpayable",
      "type": "constructor"
    },
    {
      "inputs": [],
      "name": "__Power_init",
      "outputs": [],
      "stateMutability": "nonpayable",
      "type": "function"
    },
    {
      "inputs": [],
      "name": "version",
      "outputs": [
        {
          "internalType": "string",
          "name": "",
          "type": "string"
        }
      ],
      "stateMutability": "view",
      "type": "function",
      "constant": true
    },
    {
      "inputs": [
        {
          "internalType": "uint32",
          "name": "_supply",
          "type": "uint32"
        },
        {
          "internalType": "uint256",
          "name": "_reserveBalance",
          "type": "uint256"
        },
        {
          "internalType": "uint32",
          "name": "_reserveRatio",
          "type": "uint32"
        },
        {
          "internalType": "uint32",
          "name": "_amount",
          "type": "uint32"
        }
      ],
      "name": "calculatePriceForNTokens",
      "outputs": [
        {
          "internalType": "uint256",
          "name": "",
          "type": "uint256"
        }
      ],
      "stateMutability": "view",
      "type": "function",
      "constant": true
    },
    {
      "inputs": [
        {
          "internalType": "uint32",
          "name": "_supply",
          "type": "uint32"
        },
        {
          "internalType": "uint256",
          "name": "_reserveBalance",
          "type": "uint256"
        },
        {
          "internalType": "uint32",
          "name": "_reserveRatio",
          "type": "uint32"
        },
        {
          "internalType": "uint256",
          "name": "_depositAmount",
          "type": "uint256"
        }
      ],
      "name": "calculatePurchaseReturn",
      "outputs": [
        {
          "internalType": "uint32",
          "name": "",
          "type": "uint32"
        }
      ],
      "stateMutability": "view",
      "type": "function",
      "constant": true
    },
    {
      "inputs": [
        {
          "internalType": "uint32",
          "name": "_supply",
          "type": "uint32"
        },
        {
          "internalType": "uint256",
          "name": "_reserveBalance",
          "type": "uint256"
        },
        {
          "internalType": "uint32",
          "name": "_reserveRatio",
          "type": "uint32"
        },
        {
          "internalType": "uint32",
          "name": "_sellAmount",
          "type": "uint32"
        }
      ],
      "name": "calculateSaleReturn",
      "outputs": [
        {
          "internalType": "uint256",
          "name": "",
          "type": "uint256"
        }
      ],
      "stateMutability": "view",
      "type": "function",
      "constant": true
    }
  ],
  "bytecode": "0x60806040523480156200001157600080fd5b50620000256401000000006200002b810204565b620009f4565b600054610100900460ff168062000045575060005460ff16155b620000d6576040517f08c379a000000000000000000000000000000000000000000000000000000000815260206004820152602e60248201527f496e697469616c697a61626c653a20636f6e747261637420697320616c72656160448201527f647920696e697469616c697a6564000000000000000000000000000000000000606482015260840160405180910390fd5b600054610100900460ff16158015620000f9576000805461ffff19166101011790555b6040805180820190915260038082527f302e33000000000000000000000000000000000000000000000000000000000060209092019182526200013f91600191620008f8565b506001606060020a641c35fedd1502036022556001605e60020a646c3390ecc902036023556001606160020a640cf801476102036024556001605f60020a6431bdb23e1d02036025556001605b60020a6502fb1d8fe08302036026556001605a60020a6505b771955b3702036027556001605960020a650af67a93bb5102036028556001605860020a6515060c256cb302036029556001605860020a651428a2f98d730203602a556001605660020a654d51566397090203602b556001605560020a65944620b0e70f0203602c557011c592761c666fffffffffffffffffffff602d5570110a688680a757ffffffffffffffffffff602e55701056f1b5bedf77ffffffffffffffffffff602f55700faadceceeff8bffffffffffffffffffff603055700f05dc6b27edadffffffffffffffffffff603155700e67a5a25da4107fffffffffffffffffff603255700dcff115b14eedffffffffffffffffffff603355700d3e7a392431239fffffffffffffffffff603455700cb2ff529eb71e4fffffffffffffffffff603555700c2d415c3db974afffffffffffffffffff603655700bad03e7d883f69bffffffffffffffffff603755700b320d03b2c343d5ffffffffffffffffff603855700abc25204e02828dffffffffffffffffff603955700a4b16f74ee4bb207fffffffffffffffff603a557009deaf736ac1f569ffffffffffffffffff603b55700976bd9952c7aa957fffffffffffffffff603c557009131271922eaa606fffffffffffffffff603d557008b380f3558668c46fffffffffffffffff603e55700857ddf0117efa215bffffffffffffffff603f556001608360020a036040557007abbf6f6abb9d087fffffffffffffffff60415570075af62cbac95f7dfa7fffffffffffffff60425570070d7fb7452e187ac13fffffffffffffff6043557006c3390ecc8af379295fffffffffffffff60445570067c00a3b07ffc01fd6fffffffffffffff604555700637b647c39cbb9d3d27ffffffffffffff6046557005f63b1fc104dbd39587ffffffffffffff6047557005b771955b36e12f7235ffffffffffffff60485570057b3d49dda84556d6f6ffffffffffffff60495570054183095b2c8ececf30ffffffffffffff604a5570050a28be635ca2b888f77fffffffffffff604b557004d5156639708c9db33c3fffffffffffff604c557004a23105873875bd52dfdfffffffffffff604d55700471649d87199aa990756fffffffffffff604e557004429a21a029d4c1457cfbffffffffffff604f55700415bc6d6fb7dd71af2cb3ffffffffffff6050557003eab73b3bbfe282243ce1ffffffffffff6051557003c1771ac9fb6b4c18e229ffffffffffff605255700399e96897690418f785257fffffffffff605355700373fc456c53bb779bf0ea9fffffffffff60545570034f9e8e490c48e67e6ab8bfffffffffff60555570032cbfd4a7adc790560b3337ffffffffff60565570030b50570f6e5d2acca94613ffffffffff6057557002eb40f9f620fda6b56c2861ffffffffff6058557002cc8340ecb0d0f520a6af58ffffffffff6059557002af09481380a0a35cf1ba02ffffffffff605a55700292c5bdd3b92ec810287b1b3fffffffff605b55700277abdcdab07d5a77ac6d6b9fffffffff605c5570025daf6654b1eaa55fd64df5efffffffff605d55700244c49c648baa98192dce88b7ffffffff605e5570022ce03cd5619a311b2471268bffffffff605f55700215f77c045fbe885654a44a0fffffffff6060556001608160020a036061557001eaefdbdaaee7421fc4d3ede5ffffffff6062557001d6bd8b2eb257df7e8ca57b09bfffffff6063557001c35fedd14b861eb0443f7f133fffffff6064557001b0ce43b322bcde4a56e8ada5afffffff60655570019f0028ec1fff007f5a195a39dfffffff60665570018ded91f0e72ee74f49b15ba527ffffff60675570017d8ec7f04136f4e5615fd41a63ffffff60685570016ddc6556cdb84bdc8d12d22e6fffffff60695570015ecf52776a1155b5bd8395814f7fffff606a5570015060c256cb23b3b3cc3754cf40ffffff606b557001428a2f98d728ae223ddab715be3fffff606c5570013545598e5c23276ccf0ede68034fffff606d557001288c4161ce1d6f54b7f61081194fffff606e5570011c592761c666aa641d5a01a40f17ffff606f55700110a688680a7530515f3e6e6cfdcdffff6070557001056f1b5bedf75c6bcb2ce8aed428ffff6071556ffaadceceeff8a0890f3875f008277fff6072556ff05dc6b27edad306388a600f6ba0bfff6073556fe67a5a25da41063de1495d5b18cdbfff6074556fdcff115b14eedde6fc3aa5353f2e4fff6075556fd3e7a3924312399f9aae2e0f868f8fff6076556fcb2ff529eb71e41582cccd5a1ee26fff6077556fc2d415c3db974ab32a51840c0b67edff6078556fbad03e7d883f69ad5b0a186184e06bff6079556fb320d03b2c343d4829abd6075f0cc5ff607a556fabc25204e02828d73c6e80bcdb1a95bf607b556fa4b16f74ee4bb2040a1ec6c15fbbf2df607c556f9deaf736ac1f569deb1b5ae3f36c130f607d556f976bd9952c7aa957f5937d790ef65037607e556f9131271922eaa6064b73a22d0bd4f2bf607f556f8b380f3558668c46c91c49a2f8e967b96080556f857ddf0117efa215952912839f6473e66081558015620008f5576000805461ff00191690555b50565b82805462000906906200099e565b90600052602060002090601f0160209004810192826200092a576000855562000975565b82601f106200094557805160ff191683800117855562000975565b8280016001018555821562000975579182015b828111156200097557825182559160200191906001019062000958565b506200098392915062000987565b5090565b5b8082111562000983576000815560010162000988565b600281046001821680620009b357607f821691505b60208210811415620009ee577f4e487b7100000000000000000000000000000000000000000000000000000000600052602260045260246000fd5b50919050565b611a858062000a046000396000f3fe608060405234801561001057600080fd5b506004361061005a5760e060020a60003504631c949873811461005f5780632e5014841461008557806354fd4d501461008f5780639f4ae6b0146100a4578063bff82d84146100cc575b600080fd5b61007261006d366004611854565b6100df565b6040519081526020015b60405180910390f35b61008d6101fd565b005b610097610aba565b60405161007c91906118a0565b6100b76100b2366004611811565b610b48565b60405163ffffffff909116815260200161007c565b6100726100da366004611854565b610c1d565b6000808563ffffffff161180156100f65750600084115b8015610108575060008363ffffffff16115b801561011d5750620f424063ffffffff841611155b801561013557508463ffffffff168263ffffffff1611155b61013e57600080fd5b63ffffffff8216610151575060006101f5565b8463ffffffff168263ffffffff16141561016c5750826101f5565b63ffffffff80861690838116908516620f424014156101a257610199826101938884610cf5565b90610d08565b925050506101f5565b600080806101b08585610d14565b90506101c18582620f42408b610d20565b909350915060006101d28a85610cf5565b905060ff831660020a8a026101eb856101938484610d14565b9750505050505050505b949350505050565b600054610100900460ff1680610216575060005460ff16155b61028f5760405160e560020a62461bcd02815260206004820152602e60248201527f496e697469616c697a61626c653a20636f6e747261637420697320616c72656160448201527f647920696e697469616c697a6564000000000000000000000000000000000000606482015260840160405180910390fd5b600054610100900460ff161580156102b1576000805461ffff19166101011790555b60408051808201909152600380825260e860020a62302e330260209092019182526102de91600191611764565b50701c35fedd14ffffffffffffffffffffffff602255701b0ce43b323fffffffffffffffffffffff6023557019f0028ec1ffffffffffffffffffffffff6024557018ded91f0e7fffffffffffffffffffffff6025557017d8ec7f0417ffffffffffffffffffffff6026557016ddc6556cdbffffffffffffffffffffff6027557015ecf52776a1ffffffffffffffffffffff6028557015060c256cb2ffffffffffffffffffffff602955701428a2f98d72ffffffffffffffffffffff602a557013545598e5c23fffffffffffffffffffff602b55701288c4161ce1dfffffffffffffffffffff602c557011c592761c666fffffffffffffffffffff602d5570110a688680a757ffffffffffffffffffff602e55701056f1b5bedf77ffffffffffffffffffff602f55700faadceceeff8bffffffffffffffffffff603055700f05dc6b27edadffffffffffffffffffff603155700e67a5a25da4107fffffffffffffffffff603255700dcff115b14eedffffffffffffffffffff603355700d3e7a392431239fffffffffffffffffff603455700cb2ff529eb71e4fffffffffffffffffff603555700c2d415c3db974afffffffffffffffffff603655700bad03e7d883f69bffffffffffffffffff603755700b320d03b2c343d5ffffffffffffffffff603855700abc25204e02828dffffffffffffffffff603955700a4b16f74ee4bb207fffffffffffffffff603a557009deaf736ac1f569ffffffffffffffffff603b55700976bd9952c7aa957fffffffffffffffff603c557009131271922eaa606fffffffffffffffff603d557008b380f3558668c46fffffffffffffffff603e55700857ddf0117efa215bffffffffffffffff603f557007ffffffffffffffffffffffffffffffff6040557007abbf6f6abb9d087fffffffffffffffff60415570075af62cbac95f7dfa7fffffffffffffff60425570070d7fb7452e187ac13fffffffffffffff6043557006c3390ecc8af379295fffffffffffffff60445570067c00a3b07ffc01fd6fffffffffffffff604555700637b647c39cbb9d3d27ffffffffffffff6046557005f63b1fc104dbd39587ffffffffffffff6047557005b771955b36e12f7235ffffffffffffff60485570057b3d49dda84556d6f6ffffffffffffff60495570054183095b2c8ececf30ffffffffffffff604a5570050a28be635ca2b888f77fffffffffffff604b557004d5156639708c9db33c3fffffffffffff604c557004a23105873875bd52dfdfffffffffffff604d55700471649d87199aa990756fffffffffffff604e557004429a21a029d4c1457cfbffffffffffff604f55700415bc6d6fb7dd71af2cb3ffffffffffff6050557003eab73b3bbfe282243ce1ffffffffffff6051557003c1771ac9fb6b4c18e229ffffffffffff605255700399e96897690418f785257fffffffffff605355700373fc456c53bb779bf0ea9fffffffffff60545570034f9e8e490c48e67e6ab8bfffffffffff60555570032cbfd4a7adc790560b3337ffffffffff60565570030b50570f6e5d2acca94613ffffffffff6057557002eb40f9f620fda6b56c2861ffffffffff6058557002cc8340ecb0d0f520a6af58ffffffffff6059557002af09481380a0a35cf1ba02ffffffffff605a55700292c5bdd3b92ec810287b1b3fffffffff605b55700277abdcdab07d5a77ac6d6b9fffffffff605c5570025daf6654b1eaa55fd64df5efffffffff605d55700244c49c648baa98192dce88b7ffffffff605e5570022ce03cd5619a311b2471268bffffffff605f55700215f77c045fbe885654a44a0fffffffff6060556001608160020a036061557001eaefdbdaaee7421fc4d3ede5ffffffff6062557001d6bd8b2eb257df7e8ca57b09bfffffff6063557001c35fedd14b861eb0443f7f133fffffff6064557001b0ce43b322bcde4a56e8ada5afffffff60655570019f0028ec1fff007f5a195a39dfffffff60665570018ded91f0e72ee74f49b15ba527ffffff60675570017d8ec7f04136f4e5615fd41a63ffffff60685570016ddc6556cdb84bdc8d12d22e6fffffff60695570015ecf52776a1155b5bd8395814f7fffff606a5570015060c256cb23b3b3cc3754cf40ffffff606b557001428a2f98d728ae223ddab715be3fffff606c5570013545598e5c23276ccf0ede68034fffff606d557001288c4161ce1d6f54b7f61081194fffff606e5570011c592761c666aa641d5a01a40f17ffff606f55700110a688680a7530515f3e6e6cfdcdffff6070557001056f1b5bedf75c6bcb2ce8aed428ffff6071556ffaadceceeff8a0890f3875f008277fff6072556ff05dc6b27edad306388a600f6ba0bfff6073556fe67a5a25da41063de1495d5b18cdbfff6074556fdcff115b14eedde6fc3aa5353f2e4fff6075556fd3e7a3924312399f9aae2e0f868f8fff6076556fcb2ff529eb71e41582cccd5a1ee26fff6077556fc2d415c3db974ab32a51840c0b67edff6078556fbad03e7d883f69ad5b0a186184e06bff6079556fb320d03b2c343d4829abd6075f0cc5ff607a556fabc25204e02828d73c6e80bcdb1a95bf607b556fa4b16f74ee4bb2040a1ec6c15fbbf2df607c556f9deaf736ac1f569deb1b5ae3f36c130f607d556f976bd9952c7aa957f5937d790ef65037607e556f9131271922eaa6064b73a22d0bd4f2bf607f556f8b380f3558668c46c91c49a2f8e967b96080556f857ddf0117efa215952912839f6473e66081558015610ab7576000805461ff00191690555b50565b60018054610ac7906119dc565b80601f0160208091040260200160405190810160405280929190818152602001828054610af3906119dc565b8015610b405780601f10610b1557610100808354040283529160200191610b40565b820191906000526020600020905b815481529060010190602001808311610b2357829003601f168201915b505050505081565b6000808563ffffffff16118015610b5f5750600084115b8015610b71575060008363ffffffff16115b8015610b865750620f424063ffffffff841611155b610b8f57600080fd5b81610b9c575060006101f5565b63ffffffff808616908416620f42401415610bc757610bbf856101938386610cf5565b9150506101f5565b60008080610bd58689610d89565b9050610be6818989620f4240610d20565b9093509150600060ff8316610bfb8686610cf5565b60029190910a90049050610c0f8582611985565b9a9950505050505050505050565b6000808563ffffffff16118015610c345750600084115b8015610c46575060008363ffffffff16115b8015610c5b5750620f424063ffffffff841611155b610c6457600080fd5b63ffffffff8216610c77575060006101f5565b63ffffffff80861690838116908516620f42401415610c9e57610199826101938389610cf5565b60008080610cac8486610d89565b9050610cbd8186620f42408b610d20565b9093509150600060ff8316610cd28b86610cf5565b60029190910a90049050610ce68a82611985565b9b9a5050505050505050505050565b6000610d018284611966565b9392505050565b6000610d018284611930565b6000610d018284611985565b60008060008363ffffffff168563ffffffff16610d3d8989610d95565b610d479190611966565b610d519190611930565b90506000610d5e82610ec4565b9050610d7c610d6e82607f61199c565b60ff1660020a830482610fcb565b9890975095505050505050565b6000610d0182846118f3565b60006001608160020a03831115610dbf5760e060020a634e487b7102600052600160045260246000fd5b60008083610dd1607f60020a87611966565b610ddb9190611930565b9050608060020a8110610e23576000610e00610dfb607f60020a84611930565b6116f2565b60ff8116600281900a90930492909150610e1f90607f60020a90611966565b9250505b607f60020a811115610e9757607f5b60ff811615610e9557607f60020a610e4a8380611966565b610e549190611930565b9150608060020a8210610e8557600290910490610e7260018261199c565b610e829060ff1660020a846118f3565b92505b610e8e816119bf565b9050610e32565b505b607a610eb36f02c5c85fdf473de6af278ece600fcbda84611966565b60029190910a900495945050505050565b60006020607f5b60ff8116610eda83600161190b565b60ff161015610f3e5760006002610ef1838561190b565b610efb9190611944565b90508460028260ff1660808110610f255760e060020a634e487b7102600052603260045260246000fd5b015410610f3457809250610f38565b8091505b50610ecb565b8360028260ff1660808110610f665760e060020a634e487b7102600052603260045260246000fd5b015410610f76579150610fc69050565b8360028360ff1660808110610f9e5760e060020a634e487b7102600052603260045260246000fd5b015410610fad57509050610fc6565b60e060020a634e487b7102600052600160045260246000fd5b919050565b6000828160ff8416610fdd8380611966565b60029190910a90049150611001826f03442c4e6074a82f1797f72ac0000000611966565b61100b90826118f3565b905060ff841661101b8684611966565b60029190910a9004915061103f826f0116b96f757c380fb287fd0e40000000611966565b61104990826118f3565b905060ff84166110598684611966565b60029190910a9004915061107c826e45ae5bdd5f0e03eca1ff4390000000611966565b61108690826118f3565b905060ff84166110968684611966565b60029190910a900491506110b9826e0defabf91302cd95b9ffda50000000611966565b6110c390826118f3565b905060ff84166110d38684611966565b60029190910a900491506110f6826e02529ca9832b22439efff9b8000000611966565b61110090826118f3565b905060ff84166111108684611966565b60029190910a90049150611132826d54f1cf12bd04e516b6da88000000611966565b61113c90826118f3565b905060ff841661114c8684611966565b60029190910a9004915061116e826d0a9e39e257a09ca2d6db51000000611966565b61117890826118f3565b905060ff84166111888684611966565b60029190910a900491506111aa826d012e066e7b839fa050c309000000611966565b6111b490826118f3565b905060ff84166111c48684611966565b60029190910a900491506111e5826c1e33d7d926c329a1ad1a800000611966565b6111ef90826118f3565b905060ff84166111ff8684611966565b60029190910a90049150611220826c02bee513bdb4a6b19b5f800000611966565b61122a90826118f3565b905060ff841661123a8684611966565b60029190910a9004915061125a826b3a9316fa79b88eccf2a00000611966565b61126490826118f3565b905060ff84166112748684611966565b60029190910a90049150611294826b048177ebe1fa812375200000611966565b61129e90826118f3565b905060ff84166112ae8684611966565b60029190910a900491506112cd826a5263fe90242dcbacf00000611966565b6112d790826118f3565b905060ff84166112e78684611966565b60029190910a90049150611306826a057e22099c030d94100000611966565b61131090826118f3565b905060ff84166113208684611966565b60029190910a9004915061133e826957e22099c030d9410000611966565b61134890826118f3565b905060ff84166113588684611966565b60029190910a900491506113768269052b6b54569976310000611966565b61138090826118f3565b905060ff84166113908684611966565b60029190910a900491506113ad82684985f67696bf748000611966565b6113b790826118f3565b905060ff84166113c78684611966565b60029190910a900491506113e4826803dea12ea99e498000611966565b6113ee90826118f3565b905060ff84166113fe8684611966565b60029190910a9004915061141a826731880f2214b6e000611966565b61142490826118f3565b905060ff84166114348684611966565b60029190910a900491506114508267025bcff56eb36000611966565b61145a90826118f3565b905060ff841661146a8684611966565b60029190910a9004915061148582661b722e10ab1000611966565b61148f90826118f3565b905060ff841661149f8684611966565b60029190910a900491506114ba826601317c70077000611966565b6114c490826118f3565b905060ff84166114d48684611966565b60029190910a900491506114ee82650cba84aafa00611966565b6114f890826118f3565b905060ff84166115088684611966565b60029190910a90049150611521826482573a0a00611966565b61152b90826118f3565b905060ff841661153b8684611966565b60029190910a90049150611554826405035ad900611966565b61155e90826118f3565b905060ff841661156e8684611966565b60029190910a9004915061158682632f881b00611966565b61159090826118f3565b905060ff84166115a08684611966565b60029190910a900491506115b8826301b29340611966565b6115c290826118f3565b905060ff84166115d28684611966565b60029190910a900491506115e982620efc40611966565b6115f390826118f3565b905060ff84166116038684611966565b60029190910a9004915061161982617fe0611966565b61162390826118f3565b905060ff84166116338684611966565b60029190910a9004915061164982610420611966565b61165390826118f3565b905060ff84166116638684611966565b60029190910a90049150611678826021611966565b61168290826118f3565b905060ff84166116928684611966565b60029190910a900491506116a7826001611966565b6116b190826118f3565b905060ff841660020a856116d56f0688589cc0e9505e2f2fee558000000084611930565b6116df91906118f3565b6116e991906118f3565b95945050505050565b60008082610100811015611725575b6001811115611720576002900461171960018361190b565b9150611701565b61175d565b60805b60ff81161561175b5760ff811660020a821061174e579182179160ff811660020a909104905b600260ff90911604611728565b505b5092915050565b828054611770906119dc565b90600052602060002090601f01602090048101928261179257600085556117d8565b82601f106117ab57805160ff19168380011785556117d8565b828001600101855582156117d8579182015b828111156117d85782518255916020019190600101906117bd565b506117e49291506117e8565b5090565b5b808211156117e457600081556001016117e9565b803563ffffffff81168114610fc657600080fd5b60008060008060808587031215611826578384fd5b61182f856117fd565b935060208501359250611844604086016117fd565b9396929550929360600135925050565b60008060008060808587031215611869578384fd5b611872856117fd565b935060208501359250611887604086016117fd565b9150611895606086016117fd565b905092959194509250565b6000602080835283518082850152825b818110156118cc578581018301518582016040015282016118b0565b818111156118dd5783604083870101525b50601f01601f1916929092016040019392505050565b6000821982111561190657611906611a1b565b500190565b600060ff821660ff84168060ff0382111561192857611928611a1b565b019392505050565b60008261193f5761193f611a35565b500490565b600060ff83168061195757611957611a35565b8060ff84160491505092915050565b600081600019048311821515161561198057611980611a1b565b500290565b60008282101561199757611997611a1b565b500390565b600060ff821660ff8416808210156119b6576119b6611a1b565b90039392505050565b600060ff8216806119d2576119d2611a1b565b6000190192915050565b6002810460018216806119f057607f821691505b60208210811415611a155760e060020a634e487b710260009081526022600452602490fd5b50919050565b60e060020a634e487b710260009081526011600452602490fd5b60e060020a634e487b710260009081526012600452602490fdfea26469706673582212209b03a5d7f35b6cdf0c4acc71f65925eaf141668962bb79ee1c47894b476b867664736f6c63430008030033",
  "immutableReferences": {},
  "source": "pragma solidity ^0.8.2;\n\nimport \"@openzeppelin/contracts-upgradeable/utils/math/SafeMathUpgradeable.sol\";\nimport \"./Power.sol\"; // Efficient power function.\n\n/**\n* @title BancorBondingCurve\n* @notice General rule of computation we will use here:\n* token amount will be passed in as uint32, since tokens we have are indivisible\n* they will be converted to uint256 in function for safemath computation\n* if a uint32 variable needs to be returned, it will be computed as uint256 value, then casted explicitly \n* @dev This is an implementation of the Bancor formula with slight modifications.\n*/\ncontract BancorBondingCurve is Power {\n  using SafeMathUpgradeable for uint256;\n  uint32 private constant MAX_RESERVE_RATIO = 1000000;\n\n  constructor() public {\n    __Power_init();\n  }\n\n  /**\n   * @dev Try to compute the price to purchage n token. This is the modified component in addition \n   * to the two original functions below.\n   *\n   * Formula:\n   * Return = _reserveBalance * (((_amount / _supply + 1) ^ (MAX_RESERVE_RATIO / _reserveRatio)) - 1)\n   *\n   * @param _supply              continuous token total supply\n   * @param _reserveBalance     total reserve token balance\n   * @param _reserveRatio       the reserve ratio in the bancor curve.\n   * @param _amount             number to tokens one wishes to purchase\n   *\n   *  @return price for N tokens\n  */\n  function calculatePriceForNTokens(\n    uint32 _supply,\n    uint256 _reserveBalance,\n    uint32 _reserveRatio,\n    uint32 _amount) public view returns (uint256)\n  {\n    require(_supply > 0 && _reserveBalance > 0 && _reserveRatio > 0 && _reserveRatio <= MAX_RESERVE_RATIO);\n    // special case for 0 tokens\n    if (_amount == 0) {\n      return 0;\n    }\n    uint256 supply = uint256(_supply);\n    uint256 amount = uint256(_amount);    // amount declared here as an uint256 equivalent of _amount\n    // special case if this is a linear function\n    if (_reserveRatio == MAX_RESERVE_RATIO) {\n      return amount.mul(_reserveBalance).div(supply);\n    }\n\n    uint256 result;\n    uint8 precision;\n    uint256 baseN = amount.add(supply);\n    (result, precision) = power(\n      baseN, supply, MAX_RESERVE_RATIO, _reserveRatio\n    );\n    uint256 temp =  _reserveBalance.mul(result) >> precision;\n    return temp - _reserveBalance;\n  }\n\n  /**\n   * @dev given a continuous token supply, reserve token balance, reserve ratio, and a deposit amount (in the reserve token),\n   * calculates the return for a given conversion (in the continuous token)\n   *\n   * Formula:\n   * Return = _supply * ((1 + _depositAmount / _reserveBalance) ^ (_reserveRatio / MAX_RESERVE_RATIO) - 1)\n   *\n   * @param _supply              continuous token total supply\n   * @param _reserveBalance    total reserve token balance\n   * @param _reserveRatio     reserve ratio, represented in ppm, 1-1000000\n   * @param _depositAmount       deposit amount, in reserve token\n   *\n   *  @return purchase return amount\n  */\n  // Remember this is a view function. Removed view modifier for testing only\n  function calculatePurchaseReturn(\n    uint32 _supply,\n    uint256 _reserveBalance,\n    uint32 _reserveRatio,\n    uint256 _depositAmount) public view returns (uint32)\n  {\n    // validate input\n    require(_supply > 0 && _reserveBalance > 0 && _reserveRatio > 0 && _reserveRatio <= MAX_RESERVE_RATIO);\n     // special case for 0 deposit amount\n    if (_depositAmount == 0) {\n      return 0;\n    }\n\n    uint256 supply = uint256(_supply);\n\n    // special case if the ratio = 100%\n    if (_reserveRatio == MAX_RESERVE_RATIO) {\n      return uint32(supply.mul(_depositAmount).div(_reserveBalance));\n    }\n\n    uint256 result;\n    uint8 precision;\n    uint256 baseN = _depositAmount.add(_reserveBalance);\n    (result, precision) = power(\n      baseN, _reserveBalance, _reserveRatio, MAX_RESERVE_RATIO\n    );\n    uint256 temp = supply.mul(result) >> precision;\n    return uint32(temp - supply);\n  }\n\n   /**\n   * @dev given a continuous token supply, reserve token balance, reserve ratio and a sell amount (in the continuous token),\n   * calculates the return for a given conversion (in the reserve token)\n   *\n   * Formula:\n   * Return = _reserveBalance * (1 - (1 - _sellAmount / _supply) ^ (1 / (_reserveRatio / MAX_RESERVE_RATIO)))\n   *\n   * @param _supply              continuous token total supply\n   * @param _reserveBalance    total reserve token balance\n   * @param _reserveRatio     constant reserve ratio, represented in ppm, 1-1000000\n   * @param _sellAmount          sell amount, in the continuous token itself\n   *\n   * @return sale return amount\n  */\n  function calculateSaleReturn(\n    uint32 _supply,\n    uint256 _reserveBalance,\n    uint32 _reserveRatio,\n    uint32 _sellAmount) public view virtual returns (uint256)\n  {\n    // validate input\n    require(_supply > 0 && _reserveBalance > 0 && _reserveRatio > 0 && _reserveRatio <= MAX_RESERVE_RATIO && _sellAmount <= _supply);\n     // special case for 0 sell amount\n    if (_sellAmount == 0) {\n      return 0;\n    }\n\n     // special case for selling the entire supply\n    if (_sellAmount == _supply) {\n      return _reserveBalance;\n    }\n\n    uint256 supply = uint256(_supply);\n    uint256 sellAmount = uint256(_sellAmount);\n\n     // special case if the ratio = 100%\n    if (_reserveRatio == MAX_RESERVE_RATIO) {\n      return _reserveBalance.mul(sellAmount).div(supply);\n    }\n    uint256 result;\n    uint8 precision;\n    uint256 baseD = supply.sub(sellAmount);\n    (result, precision) = power(\n      supply, baseD, MAX_RESERVE_RATIO, _reserveRatio\n    );\n    uint256 oldBalance = _reserveBalance.mul(result);\n    uint256 newBalance = _reserveBalance << precision;\n    return oldBalance.sub(newBalance).div(result);\n  }\n}",
  "sourcePath": "/Users/jack/Documents/GitHub/HighStreet/client/src/contracts/BancorBondingCurve.sol",
  "compiler": {
    "name": "solc",
    "version": "0.8.3+commit.8d00100c.Emscripten.clang"
  },
  "schemaVersion": "3.4.0",
  "updatedAt": "2021-09-27T08:15:19.667Z",
  "networkType": "ethereum",
  "devdoc": {
    "details": "This is an implementation of the Bancor formula with slight modifications.",
    "kind": "dev",
    "methods": {
      "calculatePriceForNTokens(uint32,uint256,uint32,uint32)": {
        "details": "Try to compute the price to purchage n token. This is the modified component in addition  to the two original functions below. Formula: Return = _reserveBalance * (((_amount / _supply + 1) ^ (MAX_RESERVE_RATIO / _reserveRatio)) - 1)",
        "params": {
          "_amount": "number to tokens one wishes to purchase",
          "_reserveBalance": "total reserve token balance",
          "_reserveRatio": "the reserve ratio in the bancor curve.",
          "_supply": "continuous token total supply"
        },
        "returns": {
          "_0": "price for N tokens"
        }
      },
      "calculatePurchaseReturn(uint32,uint256,uint32,uint256)": {
        "details": "given a continuous token supply, reserve token balance, reserve ratio, and a deposit amount (in the reserve token), calculates the return for a given conversion (in the continuous token) Formula: Return = _supply * ((1 + _depositAmount / _reserveBalance) ^ (_reserveRatio / MAX_RESERVE_RATIO) - 1)",
        "params": {
          "_depositAmount": "deposit amount, in reserve token",
          "_reserveBalance": "total reserve token balance",
          "_reserveRatio": "reserve ratio, represented in ppm, 1-1000000",
          "_supply": "continuous token total supply"
        },
        "returns": {
          "_0": "purchase return amount"
        }
      },
      "calculateSaleReturn(uint32,uint256,uint32,uint32)": {
        "details": "given a continuous token supply, reserve token balance, reserve ratio and a sell amount (in the continuous token), calculates the return for a given conversion (in the reserve token) Formula: Return = _reserveBalance * (1 - (1 - _sellAmount / _supply) ^ (1 / (_reserveRatio / MAX_RESERVE_RATIO)))",
        "params": {
          "_reserveBalance": "total reserve token balance",
          "_reserveRatio": "constant reserve ratio, represented in ppm, 1-1000000",
          "_sellAmount": "sell amount, in the continuous token itself",
          "_supply": "continuous token total supply"
        },
        "returns": {
          "_0": "sale return amount"
        }
      }
    },
    "title": "BancorBondingCurve",
    "version": 1
  },
  "userdoc": {
    "kind": "user",
    "methods": {},
    "notice": "General rule of computation we will use here: token amount will be passed in as uint32, since tokens we have are indivisible they will be converted to uint256 in function for safemath computation if a uint32 variable needs to be returned, it will be computed as uint256 value, then casted explicitly ",
    "version": 1
  }
}