{
  "contractName": "ChainLinkMock",
  "abi": [
    {
      "inputs": [
        {
          "internalType": "int256",
          "name": "_answer",
          "type": "int256"
        }
      ],
      "stateMutability": "nonpayable",
      "type": "constructor"
    },
    {
      "inputs": [],
      "name": "latestRoundData",
      "outputs": [
        {
          "internalType": "uint80",
          "name": "",
          "type": "uint80"
        },
        {
          "internalType": "int256",
          "name": "",
          "type": "int256"
        },
        {
          "internalType": "uint256",
          "name": "",
          "type": "uint256"
        },
        {
          "internalType": "uint256",
          "name": "",
          "type": "uint256"
        },
        {
          "internalType": "uint80",
          "name": "",
          "type": "uint80"
        }
      ],
      "stateMutability": "view",
      "type": "function"
    }
  ],
  "bytecode": "0x608060405234801561001057600080fd5b5060405161010238038061010283398101604081905261002f91610037565b60005561004f565b600060208284031215610048578081fd5b5051919050565b60a58061005d6000396000f3fe6080604052348015600f57600080fd5b5060043610602b5760e060020a6000350463feaf968c81146030575b600080fd5b60005460408051680100000000000017de808252602082019390935263611d059981830181905260608201526080810192909252519081900360a00190f3fea2646970667358221220f9b8c78a25ce3edf61c3fd9ed3f9bcaacc50c54679373c68ffac89572ba1edeb64736f6c63430008030033",
  "immutableReferences": {},
  "source": "\npragma solidity ^0.8.2;\n\n\ncontract ChainLinkMock {\n\n    int256 answer;\n\n    constructor(int256 _answer) public {\n        answer = _answer;\n    }\n\n    function latestRoundData() external view returns (uint80, int256, uint256, uint256, uint80) {\n        //fake values\n        uint80 roundId = 18446744073709557726;\n        uint256 startedAt  = 1629291929;\n        uint256 updatedAt = 1629291929;\n        uint80 answeredInRound = 18446744073709557726;\n        return (roundId, answer, startedAt, updatedAt, answeredInRound);\n    }\n}",
  "sourcePath": "/Users/jack/Documents/GitHub/HighStreet/client/src/contracts/Mock/ChainLinkMock.sol",
  "compiler": {
    "name": "solc",
    "version": "0.8.3+commit.8d00100c.Emscripten.clang"
  },
  "schemaVersion": "3.4.0",
  "updatedAt": "2021-09-16T14:56:36.171Z",
  "devdoc": {
    "kind": "dev",
    "methods": {},
    "version": 1
  },
  "userdoc": {
    "kind": "user",
    "methods": {},
    "version": 1
  }
}