{
  "contractName": "Escrow",
  "abi": [
    {
      "anonymous": false,
      "inputs": [
        {
          "indexed": false,
          "internalType": "address",
          "name": "",
          "type": "address"
        },
        {
          "indexed": false,
          "internalType": "uint256",
          "name": "",
          "type": "uint256"
        },
        {
          "components": [
            {
              "internalType": "enum Escrow.escrowState",
              "name": "state",
              "type": "uint8"
            },
            {
              "internalType": "uint32",
              "name": "amount",
              "type": "uint32"
            },
            {
              "internalType": "uint256",
              "name": "value",
              "type": "uint256"
            }
          ],
          "indexed": false,
          "internalType": "struct Escrow.escrowInfo",
          "name": "",
          "type": "tuple"
        }
      ],
      "name": "escrowStateUpdated",
      "type": "event"
    },
    {
      "inputs": [
        {
          "internalType": "address",
          "name": "",
          "type": "address"
        },
        {
          "internalType": "uint256",
          "name": "",
          "type": "uint256"
        }
      ],
      "name": "escrowList",
      "outputs": [
        {
          "internalType": "enum Escrow.escrowState",
          "name": "state",
          "type": "uint8"
        },
        {
          "internalType": "uint32",
          "name": "amount",
          "type": "uint32"
        },
        {
          "internalType": "uint256",
          "name": "value",
          "type": "uint256"
        }
      ],
      "stateMutability": "view",
      "type": "function"
    },
    {
      "inputs": [
        {
          "internalType": "enum Escrow.escrowState",
          "name": "_state",
          "type": "uint8"
        }
      ],
      "name": "isStateCompleted",
      "outputs": [
        {
          "internalType": "bool",
          "name": "",
          "type": "bool"
        }
      ],
      "stateMutability": "pure",
      "type": "function"
    },
    {
      "inputs": [
        {
          "internalType": "address",
          "name": "_buyer",
          "type": "address"
        }
      ],
      "name": "getEscrowHistory",
      "outputs": [
        {
          "components": [
            {
              "internalType": "enum Escrow.escrowState",
              "name": "state",
              "type": "uint8"
            },
            {
              "internalType": "uint32",
              "name": "amount",
              "type": "uint32"
            },
            {
              "internalType": "uint256",
              "name": "value",
              "type": "uint256"
            }
          ],
          "internalType": "struct Escrow.escrowInfo[]",
          "name": "",
          "type": "tuple[]"
        }
      ],
      "stateMutability": "view",
      "type": "function"
    },
    {
      "inputs": [
        {
          "internalType": "address",
          "name": "_buyer",
          "type": "address"
        },
        {
          "internalType": "uint256",
          "name": "_id",
          "type": "uint256"
        }
      ],
      "name": "getRedeemStatus",
      "outputs": [
        {
          "internalType": "enum Escrow.escrowState",
          "name": "",
          "type": "uint8"
        }
      ],
      "stateMutability": "view",
      "type": "function"
    }
  ],
  "bytecode": "0x608060405234801561001057600080fd5b50610437806100206000396000f3fe608060405234801561001057600080fd5b506004361061004f5760e060020a6000350463491052cd81146100545780636e74607b1461007c5780639b9ffbf31461009c578063dd304b1a146100be575b600080fd5b610067610062366004610323565b6100de565b60405190151581526020015b60405180910390f35b61008f61008a3660046102d9565b61013b565b6040516100739190610368565b6100af6100aa3660046102fa565b61021f565b604051610073939291906103dc565b6100d16100cc3660046102fa565b61026a565b60405161007391906103ce565b600060038260038111156101055760e060020a634e487b7102600052602160045260246000fd5b1480610133575060028260038111156101315760e060020a634e487b7102600052602160045260246000fd5b145b90505b919050565b600160a060020a038116600090815260208181526040808320805482518185028101850190935280835260609492939192909184015b82821015610214576000848152602090206040805160608101909152600284029091018054829060ff1660038111156101bd5760e060020a634e487b7102600052602160045260246000fd5b60038111156101df5760e060020a634e487b7102600052602160045260246000fd5b81528154610100900463ffffffff16602080830191909152600192830154604090920191909152918352929092019101610171565b505050509050919050565b6000602052816000526040600020818154811061023b57600080fd5b60009182526020909120600290910201805460019091015460ff8216935061010090910463ffffffff16915083565b600160a060020a03821660009081526020819052604081208054839081106102a55760e060020a634e487b7102600052603260045260246000fd5b600091825260209091206002909102015460ff1690505b92915050565b8035600160a060020a038116811461013657600080fd5b6000602082840312156102ea578081fd5b6102f3826102c2565b9392505050565b6000806040838503121561030c578081fd5b610315836102c2565b946020939093013593505050565b600060208284031215610334578081fd5b8135600481106102f3578182fd5b600481106103645760e060020a634e487b710260009081526021600452602490fd5b9052565b602080825282518282018190526000919060409081850190868401855b828110156103c157815161039a858251610342565b8087015163ffffffff16858801528501518585015260609093019290850190600101610385565b5091979650505050505050565b602081016102bc8284610342565b606081016103ea8286610342565b63ffffffff9390931660208201526040015291905056fea26469706673582212209e427bef3903bed33ce77e0b80595a8d3386a23a68b7b40b86dc67ffe2943c1f64736f6c63430008030033",
  "immutableReferences": {},
  "source": "// SPDX-License-Identifier: MIT\n\npragma solidity ^0.8.2;\n\ncontract Escrow {\n\n  /**\n     * @dev this is the enum representation of shipping status.\n     * INITIAL                When an escrow has been created\n     * AWAITING_PROCESSING    When an escrow has been locked and product is in transit\n     * COMPLETE_USER_REFUND   When an product shipment has failed and user refund is happening\n     * COMPLETE               When an shipment is delivered successfully\n  */\n  enum escrowState {\n    INITIAL,\n    AWAITING_PROCESSING,\n    COMPLETE_USER_REFUND,\n    COMPLETE\n  }\n\n  /**\n     * @dev this is the struct class of escrow.\n     * state                  The current shipping status\n     * amount                 The amount of token being redeemed\n     * value                  The actual reserve token being locked up\n  */\n  struct escrowInfo {\n    escrowState state;\n    uint32 amount;\n    uint256 value;\n  }\n\n  mapping(address => escrowInfo[]) public escrowList;       // A list of user to escrow being saved\n\n  event escrowStateUpdated(address, uint256, escrowInfo);   // Event that's fired when a new redeem request has been created.\n\n  /**\n     * @dev Create a new escrow and add it to the list of pending escrows.\n     *\n     * @param _amount        The amount of tokens being redeemed\n     * @param _value         The value of the product in reserve token\n     * @return               The id of the escrow created\n  */\n  function _addEscrow(uint32 _amount, uint256 _value) internal virtual returns (uint256){\n    require(_amount > 0, 'Invalid Amount');\n    escrowInfo memory info;\n    info.state = escrowState.AWAITING_PROCESSING;\n    info.amount = _amount;\n    info.value = _value;\n    escrowList[msg.sender].push(info);\n    uint256 _id = escrowList[msg.sender].length -1;\n    emit escrowStateUpdated(msg.sender, _id, info);\n    return _id;\n  }\n\n  /**\n     * @dev Update state for the redemption process to completed\n     * This is triggered by our backend after shipment partner has confirmed delivery\n     *\n     * @param _buyer        The wallet address of the user\n     * @param _id           The cached id of the escrow, retrieved from database\n  */\n  function _updateUserCompleted(address _buyer, uint256 _id) internal virtual {\n    require(_id >=  0 || _id < escrowList[_buyer].length, \"Invalid id\");\n    require(!isStateCompleted(escrowList[_buyer][_id].state), \"already completed\");\n\n    escrowList[_buyer][_id].state = escrowState.COMPLETE;\n    emit escrowStateUpdated(_buyer, _id, escrowList[_buyer][_id]);\n  }\n\n  /**\n     * @dev Update state for the redemption process to refunded\n     * This is triggered by our backend after shipment partner has confirmed deilvery failed\n     *\n     * @param _buyer        The wallet address of the user\n     * @param _id           The cached id of the escrow, retrieved from database\n     * @return              The amount of reserve currency in dai that needs to be refunded.\n  */\n  function _updateUserRefund(address _buyer, uint256 _id) internal virtual returns (uint) {\n    require(_id >=  0 || _id < escrowList[_buyer].length, \"Invalid id\");\n    require(!isStateCompleted(escrowList[_buyer][_id].state), \"already completed\");\n\n    escrowList[_buyer][_id].state = escrowState.COMPLETE_USER_REFUND;\n    emit escrowStateUpdated(_buyer, _id, escrowList[_buyer][_id]);\n    return escrowList[_buyer][_id].value;\n  }\n\n  /**\n     * @dev Helper function to check whether a escrow state is completed\n     *\n     * @param _state       The state to be checked\n  */\n  function isStateCompleted(escrowState _state) public pure virtual returns (bool) {\n    return _state == escrowState.COMPLETE ||\n         _state == escrowState.COMPLETE_USER_REFUND;\n  }\n\n  /**\n     * @dev Return the list of all escrows created for a certain user\n     *\n     * @param _buyer       The address of the buyer\n     * @return             A list of past escrows\n  */\n  function getEscrowHistory(address _buyer) external view virtual returns (escrowInfo [] memory) {\n    return escrowList[_buyer];\n  }\n\n  /** \n     * @dev Get status of a particular redemption process\n     *\n     * @param _buyer       The address of the buyer\n     * @param _id          The cached id of the escrow, retrieved from database\n     * @return             The current status\n  */\n  function getRedeemStatus(address _buyer, uint256 _id) external view virtual returns (escrowState) {\n    require(_id >=  0 || _id < escrowList[_buyer].length, \"Invalid id\");\n    return escrowList[_buyer][_id].state;\n  }\n\n}\n",
  "sourcePath": "/Users/jack/Documents/GitHub/HighStreet/client/src/contracts/Escrow.sol",
  "compiler": {
    "name": "solc",
    "version": "0.8.3+commit.8d00100c.Emscripten.clang"
  },
  "schemaVersion": "3.4.0",
  "updatedAt": "2021-09-16T14:56:36.159Z",
  "devdoc": {
    "kind": "dev",
    "methods": {
      "getEscrowHistory(address)": {
        "details": "Return the list of all escrows created for a certain user",
        "params": {
          "_buyer": "The address of the buyer"
        },
        "returns": {
          "_0": "A list of past escrows"
        }
      },
      "getRedeemStatus(address,uint256)": {
        "details": "Get status of a particular redemption process",
        "params": {
          "_buyer": "The address of the buyer",
          "_id": "The cached id of the escrow, retrieved from database"
        },
        "returns": {
          "_0": "The current status"
        }
      },
      "isStateCompleted(uint8)": {
        "details": "Helper function to check whether a escrow state is completed",
        "params": {
          "_state": "The state to be checked"
        }
      }
    },
    "version": 1
  },
  "userdoc": {
    "kind": "user",
    "methods": {},
    "version": 1
  }
}