{
  "contractName": "Migrations",
  "abi": [
    {
      "inputs": [],
      "stateMutability": "nonpayable",
      "type": "constructor"
    },
    {
      "inputs": [],
      "name": "last_completed_migration",
      "outputs": [
        {
          "internalType": "uint256",
          "name": "",
          "type": "uint256"
        }
      ],
      "stateMutability": "view",
      "type": "function"
    },
    {
      "inputs": [],
      "name": "owner",
      "outputs": [
        {
          "internalType": "address",
          "name": "",
          "type": "address"
        }
      ],
      "stateMutability": "view",
      "type": "function"
    },
    {
      "inputs": [
        {
          "internalType": "uint256",
          "name": "completed",
          "type": "uint256"
        }
      ],
      "name": "setCompleted",
      "outputs": [],
      "stateMutability": "nonpayable",
      "type": "function"
    }
  ],
  "bytecode": "0x608060405234801561001057600080fd5b5060008054600160a060020a0319163317905561017f806100326000396000f3fe608060405234801561001057600080fd5b50600436106100445760e060020a6000350463445df0ac81146100495780638da5cb5b14610065578063fdacd57614610090575b600080fd5b61005260015481565b6040519081526020015b60405180910390f35b60005461007890600160a060020a031681565b604051600160a060020a03909116815260200161005c565b6100a361009e366004610131565b6100a5565b005b600054600160a060020a0316331461012c5760405160e560020a62461bcd02815260206004820152603360248201527f546869732066756e6374696f6e206973207265737472696374656420746f207460448201527f686520636f6e74726163742773206f776e657200000000000000000000000000606482015260840160405180910390fd5b600155565b600060208284031215610142578081fd5b503591905056fea2646970667358221220c3a3aba17c74c453d61c5aa7c72e6ab82d1a8b079b0ecaa8a9f0f553a2d5253264736f6c63430008030033",
  "immutableReferences": {},
  "source": "// SPDX-License-Identifier: MIT\npragma solidity ^0.8.2;\n\ncontract Migrations {\n  address public owner;\n  uint public last_completed_migration;\n\n  constructor() public {\n    owner = msg.sender;\n  }\n\n  modifier restricted() {\n    require(\n      msg.sender == owner,\n      \"This function is restricted to the contract's owner\"\n    );\n    _;\n  }\n\n  function setCompleted(uint completed) external restricted {\n    last_completed_migration = completed;\n  }\n}\n",
  "sourcePath": "/Users/jack/Documents/GitHub/HighStreet/client/src/contracts/Migrations.sol",
  "compiler": {
    "name": "solc",
    "version": "0.8.3+commit.8d00100c.Emscripten.clang"
  },
  "schemaVersion": "3.4.0",
  "updatedAt": "2021-09-16T10:31:19.349Z",
  "devdoc": {
    "kind": "dev",
    "methods": {},
    "version": 1
  },
  "userdoc": {
    "kind": "user",
    "methods": {},
    "version": 1
  }
}