{
  "contractName": "Power",
  "abi": [
    {
      "inputs": [],
      "name": "version",
      "outputs": [
        {
          "internalType": "string",
          "name": "",
          "type": "string"
        }
      ],
      "stateMutability": "view",
      "type": "function"
    },
    {
      "inputs": [],
      "name": "__Power_init",
      "outputs": [],
      "stateMutability": "nonpayable",
      "type": "function"
    }
  ],
  "bytecode": "0x608060405234801561001057600080fd5b50610b1c806100206000396000f3fe608060405234801561001057600080fd5b50600436106100395760e060020a60003504632e501484811461003e57806354fd4d5014610048575b600080fd5b610046610066565b005b61005061092d565b60405161005d9190610a54565b60405180910390f35b600054610100900460ff168061007f575060005460ff16155b6100f85760405160e560020a62461bcd02815260206004820152602e60248201527f496e697469616c697a61626c653a20636f6e747261637420697320616c72656160448201527f647920696e697469616c697a6564000000000000000000000000000000000000606482015260840160405180910390fd5b600054610100900460ff1615801561011a576000805461ffff19166101011790555b60408051808201909152600380825260e860020a62302e33026020909201918252610147916001916109bb565b50701c35fedd14ffffffffffffffffffffffff602255701b0ce43b323fffffffffffffffffffffff6023557019f0028ec1ffffffffffffffffffffffff6024557018ded91f0e7fffffffffffffffffffffff6025557017d8ec7f0417ffffffffffffffffffffff6026557016ddc6556cdbffffffffffffffffffffff6027557015ecf52776a1ffffffffffffffffffffff6028557015060c256cb2ffffffffffffffffffffff602955701428a2f98d72ffffffffffffffffffffff602a557013545598e5c23fffffffffffffffffffff602b55701288c4161ce1dfffffffffffffffffffff602c557011c592761c666fffffffffffffffffffff602d5570110a688680a757ffffffffffffffffffff602e55701056f1b5bedf77ffffffffffffffffffff602f55700faadceceeff8bffffffffffffffffffff603055700f05dc6b27edadffffffffffffffffffff603155700e67a5a25da4107fffffffffffffffffff603255700dcff115b14eedffffffffffffffffffff603355700d3e7a392431239fffffffffffffffffff603455700cb2ff529eb71e4fffffffffffffffffff603555700c2d415c3db974afffffffffffffffffff603655700bad03e7d883f69bffffffffffffffffff603755700b320d03b2c343d5ffffffffffffffffff603855700abc25204e02828dffffffffffffffffff603955700a4b16f74ee4bb207fffffffffffffffff603a557009deaf736ac1f569ffffffffffffffffff603b55700976bd9952c7aa957fffffffffffffffff603c557009131271922eaa606fffffffffffffffff603d557008b380f3558668c46fffffffffffffffff603e55700857ddf0117efa215bffffffffffffffff603f557007ffffffffffffffffffffffffffffffff6040557007abbf6f6abb9d087fffffffffffffffff60415570075af62cbac95f7dfa7fffffffffffffff60425570070d7fb7452e187ac13fffffffffffffff6043557006c3390ecc8af379295fffffffffffffff60445570067c00a3b07ffc01fd6fffffffffffffff604555700637b647c39cbb9d3d27ffffffffffffff6046557005f63b1fc104dbd39587ffffffffffffff6047557005b771955b36e12f7235ffffffffffffff60485570057b3d49dda84556d6f6ffffffffffffff60495570054183095b2c8ececf30ffffffffffffff604a5570050a28be635ca2b888f77fffffffffffff604b557004d5156639708c9db33c3fffffffffffff604c557004a23105873875bd52dfdfffffffffffff604d55700471649d87199aa990756fffffffffffff604e557004429a21a029d4c1457cfbffffffffffff604f55700415bc6d6fb7dd71af2cb3ffffffffffff6050557003eab73b3bbfe282243ce1ffffffffffff6051557003c1771ac9fb6b4c18e229ffffffffffff605255700399e96897690418f785257fffffffffff605355700373fc456c53bb779bf0ea9fffffffffff60545570034f9e8e490c48e67e6ab8bfffffffffff60555570032cbfd4a7adc790560b3337ffffffffff60565570030b50570f6e5d2acca94613ffffffffff6057557002eb40f9f620fda6b56c2861ffffffffff6058557002cc8340ecb0d0f520a6af58ffffffffff6059557002af09481380a0a35cf1ba02ffffffffff605a55700292c5bdd3b92ec810287b1b3fffffffff605b55700277abdcdab07d5a77ac6d6b9fffffffff605c5570025daf6654b1eaa55fd64df5efffffffff605d55700244c49c648baa98192dce88b7ffffffff605e5570022ce03cd5619a311b2471268bffffffff605f55700215f77c045fbe885654a44a0fffffffff6060557001ffffffffffffffffffffffffffffffff6061557001eaefdbdaaee7421fc4d3ede5ffffffff6062557001d6bd8b2eb257df7e8ca57b09bfffffff6063557001c35fedd14b861eb0443f7f133fffffff6064557001b0ce43b322bcde4a56e8ada5afffffff60655570019f0028ec1fff007f5a195a39dfffffff60665570018ded91f0e72ee74f49b15ba527ffffff60675570017d8ec7f04136f4e5615fd41a63ffffff60685570016ddc6556cdb84bdc8d12d22e6fffffff60695570015ecf52776a1155b5bd8395814f7fffff606a5570015060c256cb23b3b3cc3754cf40ffffff606b557001428a2f98d728ae223ddab715be3fffff606c5570013545598e5c23276ccf0ede68034fffff606d557001288c4161ce1d6f54b7f61081194fffff606e5570011c592761c666aa641d5a01a40f17ffff606f55700110a688680a7530515f3e6e6cfdcdffff6070557001056f1b5bedf75c6bcb2ce8aed428ffff6071556ffaadceceeff8a0890f3875f008277fff6072556ff05dc6b27edad306388a600f6ba0bfff6073556fe67a5a25da41063de1495d5b18cdbfff6074556fdcff115b14eedde6fc3aa5353f2e4fff6075556fd3e7a3924312399f9aae2e0f868f8fff6076556fcb2ff529eb71e41582cccd5a1ee26fff6077556fc2d415c3db974ab32a51840c0b67edff6078556fbad03e7d883f69ad5b0a186184e06bff6079556fb320d03b2c343d4829abd6075f0cc5ff607a556fabc25204e02828d73c6e80bcdb1a95bf607b556fa4b16f74ee4bb2040a1ec6c15fbbf2df607c556f9deaf736ac1f569deb1b5ae3f36c130f607d556f976bd9952c7aa957f5937d790ef65037607e556f9131271922eaa6064b73a22d0bd4f2bf607f556f8b380f3558668c46c91c49a2f8e967b96080556f857ddf0117efa215952912839f6473e6608155801561092a576000805461ff00191690555b50565b6001805461093a90610aa7565b80601f016020809104026020016040519081016040528092919081815260200182805461096690610aa7565b80156109b35780601f10610988576101008083540402835291602001916109b3565b820191906000526020600020905b81548152906001019060200180831161099657829003601f168201915b505050505081565b8280546109c790610aa7565b90600052602060002090601f0160209004810192826109e95760008555610a2f565b82601f10610a0257805160ff1916838001178555610a2f565b82800160010185558215610a2f579182015b82811115610a2f578251825591602001919060010190610a14565b50610a3b929150610a3f565b5090565b5b80821115610a3b5760008155600101610a40565b6000602080835283518082850152825b81811015610a8057858101830151858201604001528201610a64565b81811115610a915783604083870101525b50601f01601f1916929092016040019392505050565b600281046001821680610abb57607f821691505b60208210811415610ae05760e060020a634e487b710260009081526022600452602490fd5b5091905056fea2646970667358221220f984c7ed6ad4d945cfb37c0f2ec33be79a451a8e9c1c8aec81a07752ca340b4f64736f6c63430008030033",
  "immutableReferences": {},
  "source": "pragma solidity ^0.8.2;\n\nimport \"@openzeppelin/contracts-upgradeable/proxy/utils/Initializable.sol\";\n\n/**\n * bancor formula by bancor\n * https://github.com/bancorprotocol/contracts\n * Modified from the original by Slava Balasanov\n * Split Power.sol out from BancorFormula.sol\n * Licensed to the Apache Software Foundation (ASF) under one or more contributor license agreements;\n * and to You under the Apache License, Version 2.0. \"\n */\ncontract Power is Initializable{\n  string public version;\n\n  uint256 private constant ONE = 1;\n  uint32 private constant MAX_WEIGHT = 1000000;\n  uint8 private constant MIN_PRECISION = 32;\n  uint8 private constant MAX_PRECISION = 127;\n\n  /***\n  * The values below depend on MAX_PRECISION. If you choose to change it:\n  * Apply the same change in file 'PrintIntScalingFactors.py', run it and paste the results below.\n  */\n  uint256 private constant FIXED_1 = 0x080000000000000000000000000000000;\n  uint256 private constant FIXED_2 = 0x100000000000000000000000000000000;\n  uint256 private constant MAX_NUM = 0x1ffffffffffffffffffffffffffffffff;\n\n  /***\n  * The values below depend on MAX_PRECISION. If you choose to change it:\n  * Apply the same change in file 'PrintLn2ScalingFactors.py', run it and paste the results below.\n  */\n  uint256 private constant LN2_MANTISSA = 0x2c5c85fdf473de6af278ece600fcbda;\n  uint8   private constant LN2_EXPONENT = 122;\n\n  /***\n  * The values below depend on MIN_PRECISION and MAX_PRECISION. If you choose to change either one of them:\n  * Apply the same change in file 'PrintFunctionBancorFormula.py', run it and paste the results below.\n  */\n  uint256[128] private maxExpArray; \n  function __Power_init() public initializer {  \n    version = \"0.3\";\n  // constructor () public {\n//  maxExpArray[  0] = 0x6bffffffffffffffffffffffffffffffff;\n//  maxExpArray[  1] = 0x67ffffffffffffffffffffffffffffffff;\n//  maxExpArray[  2] = 0x637fffffffffffffffffffffffffffffff;\n//  maxExpArray[  3] = 0x5f6fffffffffffffffffffffffffffffff;\n//  maxExpArray[  4] = 0x5b77ffffffffffffffffffffffffffffff;\n//  maxExpArray[  5] = 0x57b3ffffffffffffffffffffffffffffff;\n//  maxExpArray[  6] = 0x5419ffffffffffffffffffffffffffffff;\n//  maxExpArray[  7] = 0x50a2ffffffffffffffffffffffffffffff;\n//  maxExpArray[  8] = 0x4d517fffffffffffffffffffffffffffff;\n//  maxExpArray[  9] = 0x4a233fffffffffffffffffffffffffffff;\n//  maxExpArray[ 10] = 0x47165fffffffffffffffffffffffffffff;\n//  maxExpArray[ 11] = 0x4429afffffffffffffffffffffffffffff;\n//  maxExpArray[ 12] = 0x415bc7ffffffffffffffffffffffffffff;\n//  maxExpArray[ 13] = 0x3eab73ffffffffffffffffffffffffffff;\n//  maxExpArray[ 14] = 0x3c1771ffffffffffffffffffffffffffff;\n//  maxExpArray[ 15] = 0x399e96ffffffffffffffffffffffffffff;\n//  maxExpArray[ 16] = 0x373fc47fffffffffffffffffffffffffff;\n//  maxExpArray[ 17] = 0x34f9e8ffffffffffffffffffffffffffff;\n//  maxExpArray[ 18] = 0x32cbfd5fffffffffffffffffffffffffff;\n//  maxExpArray[ 19] = 0x30b5057fffffffffffffffffffffffffff;\n//  maxExpArray[ 20] = 0x2eb40f9fffffffffffffffffffffffffff;\n//  maxExpArray[ 21] = 0x2cc8340fffffffffffffffffffffffffff;\n//  maxExpArray[ 22] = 0x2af09481ffffffffffffffffffffffffff;\n//  maxExpArray[ 23] = 0x292c5bddffffffffffffffffffffffffff;\n//  maxExpArray[ 24] = 0x277abdcdffffffffffffffffffffffffff;\n//  maxExpArray[ 25] = 0x25daf6657fffffffffffffffffffffffff;\n//  maxExpArray[ 26] = 0x244c49c65fffffffffffffffffffffffff;\n//  maxExpArray[ 27] = 0x22ce03cd5fffffffffffffffffffffffff;\n//  maxExpArray[ 28] = 0x215f77c047ffffffffffffffffffffffff;\n//  maxExpArray[ 29] = 0x1fffffffffffffffffffffffffffffffff;\n//  maxExpArray[ 30] = 0x1eaefdbdabffffffffffffffffffffffff;\n//  maxExpArray[ 31] = 0x1d6bd8b2ebffffffffffffffffffffffff;\n    maxExpArray[ 32] = 0x1c35fedd14ffffffffffffffffffffffff;\n    maxExpArray[ 33] = 0x1b0ce43b323fffffffffffffffffffffff;\n    maxExpArray[ 34] = 0x19f0028ec1ffffffffffffffffffffffff;\n    maxExpArray[ 35] = 0x18ded91f0e7fffffffffffffffffffffff;\n    maxExpArray[ 36] = 0x17d8ec7f0417ffffffffffffffffffffff;\n    maxExpArray[ 37] = 0x16ddc6556cdbffffffffffffffffffffff;\n    maxExpArray[ 38] = 0x15ecf52776a1ffffffffffffffffffffff;\n    maxExpArray[ 39] = 0x15060c256cb2ffffffffffffffffffffff;\n    maxExpArray[ 40] = 0x1428a2f98d72ffffffffffffffffffffff;\n    maxExpArray[ 41] = 0x13545598e5c23fffffffffffffffffffff;\n    maxExpArray[ 42] = 0x1288c4161ce1dfffffffffffffffffffff;\n    maxExpArray[ 43] = 0x11c592761c666fffffffffffffffffffff;\n    maxExpArray[ 44] = 0x110a688680a757ffffffffffffffffffff;\n    maxExpArray[ 45] = 0x1056f1b5bedf77ffffffffffffffffffff;\n    maxExpArray[ 46] = 0x0faadceceeff8bffffffffffffffffffff;\n    maxExpArray[ 47] = 0x0f05dc6b27edadffffffffffffffffffff;\n    maxExpArray[ 48] = 0x0e67a5a25da4107fffffffffffffffffff;\n    maxExpArray[ 49] = 0x0dcff115b14eedffffffffffffffffffff;\n    maxExpArray[ 50] = 0x0d3e7a392431239fffffffffffffffffff;\n    maxExpArray[ 51] = 0x0cb2ff529eb71e4fffffffffffffffffff;\n    maxExpArray[ 52] = 0x0c2d415c3db974afffffffffffffffffff;\n    maxExpArray[ 53] = 0x0bad03e7d883f69bffffffffffffffffff;\n    maxExpArray[ 54] = 0x0b320d03b2c343d5ffffffffffffffffff;\n    maxExpArray[ 55] = 0x0abc25204e02828dffffffffffffffffff;\n    maxExpArray[ 56] = 0x0a4b16f74ee4bb207fffffffffffffffff;\n    maxExpArray[ 57] = 0x09deaf736ac1f569ffffffffffffffffff;\n    maxExpArray[ 58] = 0x0976bd9952c7aa957fffffffffffffffff;\n    maxExpArray[ 59] = 0x09131271922eaa606fffffffffffffffff;\n    maxExpArray[ 60] = 0x08b380f3558668c46fffffffffffffffff;\n    maxExpArray[ 61] = 0x0857ddf0117efa215bffffffffffffffff;\n    maxExpArray[ 62] = 0x07ffffffffffffffffffffffffffffffff;\n    maxExpArray[ 63] = 0x07abbf6f6abb9d087fffffffffffffffff;\n    maxExpArray[ 64] = 0x075af62cbac95f7dfa7fffffffffffffff;\n    maxExpArray[ 65] = 0x070d7fb7452e187ac13fffffffffffffff;\n    maxExpArray[ 66] = 0x06c3390ecc8af379295fffffffffffffff;\n    maxExpArray[ 67] = 0x067c00a3b07ffc01fd6fffffffffffffff;\n    maxExpArray[ 68] = 0x0637b647c39cbb9d3d27ffffffffffffff;\n    maxExpArray[ 69] = 0x05f63b1fc104dbd39587ffffffffffffff;\n    maxExpArray[ 70] = 0x05b771955b36e12f7235ffffffffffffff;\n    maxExpArray[ 71] = 0x057b3d49dda84556d6f6ffffffffffffff;\n    maxExpArray[ 72] = 0x054183095b2c8ececf30ffffffffffffff;\n    maxExpArray[ 73] = 0x050a28be635ca2b888f77fffffffffffff;\n    maxExpArray[ 74] = 0x04d5156639708c9db33c3fffffffffffff;\n    maxExpArray[ 75] = 0x04a23105873875bd52dfdfffffffffffff;\n    maxExpArray[ 76] = 0x0471649d87199aa990756fffffffffffff;\n    maxExpArray[ 77] = 0x04429a21a029d4c1457cfbffffffffffff;\n    maxExpArray[ 78] = 0x0415bc6d6fb7dd71af2cb3ffffffffffff;\n    maxExpArray[ 79] = 0x03eab73b3bbfe282243ce1ffffffffffff;\n    maxExpArray[ 80] = 0x03c1771ac9fb6b4c18e229ffffffffffff;\n    maxExpArray[ 81] = 0x0399e96897690418f785257fffffffffff;\n    maxExpArray[ 82] = 0x0373fc456c53bb779bf0ea9fffffffffff;\n    maxExpArray[ 83] = 0x034f9e8e490c48e67e6ab8bfffffffffff;\n    maxExpArray[ 84] = 0x032cbfd4a7adc790560b3337ffffffffff;\n    maxExpArray[ 85] = 0x030b50570f6e5d2acca94613ffffffffff;\n    maxExpArray[ 86] = 0x02eb40f9f620fda6b56c2861ffffffffff;\n    maxExpArray[ 87] = 0x02cc8340ecb0d0f520a6af58ffffffffff;\n    maxExpArray[ 88] = 0x02af09481380a0a35cf1ba02ffffffffff;\n    maxExpArray[ 89] = 0x0292c5bdd3b92ec810287b1b3fffffffff;\n    maxExpArray[ 90] = 0x0277abdcdab07d5a77ac6d6b9fffffffff;\n    maxExpArray[ 91] = 0x025daf6654b1eaa55fd64df5efffffffff;\n    maxExpArray[ 92] = 0x0244c49c648baa98192dce88b7ffffffff;\n    maxExpArray[ 93] = 0x022ce03cd5619a311b2471268bffffffff;\n    maxExpArray[ 94] = 0x0215f77c045fbe885654a44a0fffffffff;\n    maxExpArray[ 95] = 0x01ffffffffffffffffffffffffffffffff;\n    maxExpArray[ 96] = 0x01eaefdbdaaee7421fc4d3ede5ffffffff;\n    maxExpArray[ 97] = 0x01d6bd8b2eb257df7e8ca57b09bfffffff;\n    maxExpArray[ 98] = 0x01c35fedd14b861eb0443f7f133fffffff;\n    maxExpArray[ 99] = 0x01b0ce43b322bcde4a56e8ada5afffffff;\n    maxExpArray[100] = 0x019f0028ec1fff007f5a195a39dfffffff;\n    maxExpArray[101] = 0x018ded91f0e72ee74f49b15ba527ffffff;\n    maxExpArray[102] = 0x017d8ec7f04136f4e5615fd41a63ffffff;\n    maxExpArray[103] = 0x016ddc6556cdb84bdc8d12d22e6fffffff;\n    maxExpArray[104] = 0x015ecf52776a1155b5bd8395814f7fffff;\n    maxExpArray[105] = 0x015060c256cb23b3b3cc3754cf40ffffff;\n    maxExpArray[106] = 0x01428a2f98d728ae223ddab715be3fffff;\n    maxExpArray[107] = 0x013545598e5c23276ccf0ede68034fffff;\n    maxExpArray[108] = 0x01288c4161ce1d6f54b7f61081194fffff;\n    maxExpArray[109] = 0x011c592761c666aa641d5a01a40f17ffff;\n    maxExpArray[110] = 0x0110a688680a7530515f3e6e6cfdcdffff;\n    maxExpArray[111] = 0x01056f1b5bedf75c6bcb2ce8aed428ffff;\n    maxExpArray[112] = 0x00faadceceeff8a0890f3875f008277fff;\n    maxExpArray[113] = 0x00f05dc6b27edad306388a600f6ba0bfff;\n    maxExpArray[114] = 0x00e67a5a25da41063de1495d5b18cdbfff;\n    maxExpArray[115] = 0x00dcff115b14eedde6fc3aa5353f2e4fff;\n    maxExpArray[116] = 0x00d3e7a3924312399f9aae2e0f868f8fff;\n    maxExpArray[117] = 0x00cb2ff529eb71e41582cccd5a1ee26fff;\n    maxExpArray[118] = 0x00c2d415c3db974ab32a51840c0b67edff;\n    maxExpArray[119] = 0x00bad03e7d883f69ad5b0a186184e06bff;\n    maxExpArray[120] = 0x00b320d03b2c343d4829abd6075f0cc5ff;\n    maxExpArray[121] = 0x00abc25204e02828d73c6e80bcdb1a95bf;\n    maxExpArray[122] = 0x00a4b16f74ee4bb2040a1ec6c15fbbf2df;\n    maxExpArray[123] = 0x009deaf736ac1f569deb1b5ae3f36c130f;\n    maxExpArray[124] = 0x00976bd9952c7aa957f5937d790ef65037;\n    maxExpArray[125] = 0x009131271922eaa6064b73a22d0bd4f2bf;\n    maxExpArray[126] = 0x008b380f3558668c46c91c49a2f8e967b9;\n    maxExpArray[127] = 0x00857ddf0117efa215952912839f6473e6;\n  }\n\n\n  /***\n    General Description:\n        Determine a value of precision.\n        Calculate an integer approximation of (_baseN / _baseD) ^ (_expN / _expD) * 2 ^ precision.\n        Return the result along with the precision used.\n    Detailed Description:\n        Instead of calculating \"base ^ exp\", we calculate \"e ^ (ln(base) * exp)\".\n        The value of \"ln(base)\" is represented with an integer slightly smaller than \"ln(base) * 2 ^ precision\".\n        The larger \"precision\" is, the more accurately this value represents the real value.\n        However, the larger \"precision\" is, the more bits are required in order to store this value.\n        And the exponentiation function, which takes \"x\" and calculates \"e ^ x\", is limited to a maximum exponent (maximum value of \"x\").\n        This maximum exponent depends on the \"precision\" used, and it is given by \"maxExpArray[precision] >> (MAX_PRECISION - precision)\".\n        Hence we need to determine the highest precision which can be used for the given input, before calling the exponentiation function.\n        This allows us to compute \"base ^ exp\" with maximum accuracy and without exceeding 256 bits in any of the intermediate computations.\n  */\n  function power(uint256 _baseN, uint256 _baseD, uint32 _expN, uint32 _expD) internal view returns (uint256, uint8) {\n    uint256 lnBaseTimesExp = ln(_baseN, _baseD) * _expN / _expD;\n    uint8 precision = findPositionInMaxExpArray(lnBaseTimesExp);\n    return (fixedExp(lnBaseTimesExp >> (MAX_PRECISION - precision), precision), precision);\n  }\n\n  /***\n    Return floor(ln(numerator / denominator) * 2 ^ MAX_PRECISION), where:\n    - The numerator   is a value between 1 and 2 ^ (256 - MAX_PRECISION) - 1\n    - The denominator is a value between 1 and 2 ^ (256 - MAX_PRECISION) - 1\n    - The output      is a value between 0 and floor(ln(2 ^ (256 - MAX_PRECISION) - 1) * 2 ^ MAX_PRECISION)\n    This functions assumes that the numerator is larger than or equal to the denominator, because the output would be negative otherwise.\n  */\n  function ln(uint256 _numerator, uint256 _denominator) internal pure returns (uint256) {\n    assert(_numerator <= MAX_NUM);\n\n    uint256 res = 0;\n    uint256 x = _numerator * FIXED_1 / _denominator;\n\n    // If x >= 2, then we compute the integer part of log2(x), which is larger than 0.\n    if (x >= FIXED_2) {\n      uint8 count = floorLog2(x / FIXED_1);\n      x >>= count; // now x < 2\n      res = count * FIXED_1;\n    }\n\n    // If x > 1, then we compute the fraction part of log2(x), which is larger than 0.\n    if (x > FIXED_1) {\n      for (uint8 i = MAX_PRECISION; i > 0; --i) {\n        x = (x * x) / FIXED_1; // now 1 < x < 4\n        if (x >= FIXED_2) {\n          x >>= 1; // now 1 < x < 2\n          res += ONE << (i - 1);\n        }\n      }\n    }\n\n    return (res * LN2_MANTISSA) >> LN2_EXPONENT;\n  }\n\n  /**\n  * Compute the largest integer smaller than or equal to the binary logarithm of the input.\n  */\n  function floorLog2(uint256 _n) internal pure returns (uint8) {\n    uint8 res = 0;\n    uint256 n = _n;\n\n    if (n < 256) {\n      // At most 8 iterations\n      while (n > 1) {\n        n >>= 1;\n        res += 1;\n      }\n    } else {\n      // Exactly 8 iterations\n      for (uint8 s = 128; s > 0; s >>= 1) {\n        if (n >= (ONE << s)) {\n          n >>= s;\n          res |= s;\n        }\n      }\n    }\n\n    return res;\n  }\n\n  /***\n      The global \"maxExpArray\" is sorted in descending order, and therefore the following statements are equivalent:\n      - This function finds the position of [the smallest value in \"maxExpArray\" larger than or equal to \"x\"]\n      - This function finds the highest position of [a value in \"maxExpArray\" larger than or equal to \"x\"]\n  */\n  function findPositionInMaxExpArray(uint256 _x) internal view returns (uint8) {\n    uint8 lo = MIN_PRECISION;\n    uint8 hi = MAX_PRECISION;\n\n    while (lo + 1 < hi) {\n      uint8 mid = (lo + hi) / 2;\n      if (maxExpArray[mid] >= _x)\n        lo = mid;\n      else\n        hi = mid;\n    }\n\n    if (maxExpArray[hi] >= _x)\n        return hi;\n    if (maxExpArray[lo] >= _x)\n        return lo;\n\n    assert(false);\n    return 0;\n  }\n\n  /***\n      This function can be auto-generated by the script 'PrintFunctionFixedExp.py'.\n      It approximates \"e ^ x\" via maclaurin summation: \"(x^0)/0! + (x^1)/1! + ... + (x^n)/n!\".\n      It returns \"e ^ (x / 2 ^ precision) * 2 ^ precision\", that is, the result is upshifted for accuracy.\n      The global \"maxExpArray\" maps each \"precision\" to \"((maximumExponent + 1) << (MAX_PRECISION - precision)) - 1\".\n      The maximum permitted value for \"x\" is therefore given by \"maxExpArray[precision] >> (MAX_PRECISION - precision)\".\n  */\n  function fixedExp(uint256 _x, uint8 _precision) internal pure returns (uint256) {\n    uint256 xi = _x;\n    uint256 res = 0;\n\n    xi = (xi * _x) >> _precision;\n    res += xi * 0x03442c4e6074a82f1797f72ac0000000; // add x^2 * (33! / 2!)\n    xi = (xi * _x) >> _precision;\n    res += xi * 0x0116b96f757c380fb287fd0e40000000; // add x^3 * (33! / 3!)\n    xi = (xi * _x) >> _precision;\n    res += xi * 0x0045ae5bdd5f0e03eca1ff4390000000; // add x^4 * (33! / 4!)\n    xi = (xi * _x) >> _precision;\n    res += xi * 0x000defabf91302cd95b9ffda50000000; // add x^5 * (33! / 5!)\n    xi = (xi * _x) >> _precision;\n    res += xi * 0x0002529ca9832b22439efff9b8000000; // add x^6 * (33! / 6!)\n    xi = (xi * _x) >> _precision;\n    res += xi * 0x000054f1cf12bd04e516b6da88000000; // add x^7 * (33! / 7!)\n    xi = (xi * _x) >> _precision;\n    res += xi * 0x00000a9e39e257a09ca2d6db51000000; // add x^8 * (33! / 8!)\n    xi = (xi * _x) >> _precision;\n    res += xi * 0x0000012e066e7b839fa050c309000000; // add x^9 * (33! / 9!)\n    xi = (xi * _x) >> _precision;\n    res += xi * 0x0000001e33d7d926c329a1ad1a800000; // add x^10 * (33! / 10!)\n    xi = (xi * _x) >> _precision;\n    res += xi * 0x00000002bee513bdb4a6b19b5f800000; // add x^11 * (33! / 11!)\n    xi = (xi * _x) >> _precision;\n    res += xi * 0x000000003a9316fa79b88eccf2a00000; // add x^12 * (33! / 12!)\n    xi = (xi * _x) >> _precision;\n    res += xi * 0x00000000048177ebe1fa812375200000; // add x^13 * (33! / 13!)\n    xi = (xi * _x) >> _precision;\n    res += xi * 0x00000000005263fe90242dcbacf00000; // add x^14 * (33! / 14!)\n    xi = (xi * _x) >> _precision;\n    res += xi * 0x0000000000057e22099c030d94100000; // add x^15 * (33! / 15!)\n    xi = (xi * _x) >> _precision;\n    res += xi * 0x00000000000057e22099c030d9410000; // add x^16 * (33! / 16!)\n    xi = (xi * _x) >> _precision;\n    res += xi * 0x000000000000052b6b54569976310000; // add x^17 * (33! / 17!)\n    xi = (xi * _x) >> _precision;\n    res += xi * 0x000000000000004985f67696bf748000; // add x^18 * (33! / 18!)\n    xi = (xi * _x) >> _precision;\n    res += xi * 0x0000000000000003dea12ea99e498000; // add x^19 * (33! / 19!)\n    xi = (xi * _x) >> _precision;\n    res += xi * 0x000000000000000031880f2214b6e000; // add x^20 * (33! / 20!)\n    xi = (xi * _x) >> _precision;\n    res += xi * 0x0000000000000000025bcff56eb36000; // add x^21 * (33! / 21!)\n    xi = (xi * _x) >> _precision;\n    res += xi * 0x0000000000000000001b722e10ab1000; // add x^22 * (33! / 22!)\n    xi = (xi * _x) >> _precision;\n    res += xi * 0x00000000000000000001317c70077000; // add x^23 * (33! / 23!)\n    xi = (xi * _x) >> _precision;\n    res += xi * 0x000000000000000000000cba84aafa00; // add x^24 * (33! / 24!)\n    xi = (xi * _x) >> _precision;\n    res += xi * 0x000000000000000000000082573a0a00; // add x^25 * (33! / 25!)\n    xi = (xi * _x) >> _precision;\n    res += xi * 0x000000000000000000000005035ad900; // add x^26 * (33! / 26!)\n    xi = (xi * _x) >> _precision;\n    res += xi * 0x0000000000000000000000002f881b00; // add x^27 * (33! / 27!)\n    xi = (xi * _x) >> _precision;\n    res += xi * 0x00000000000000000000000001b29340; // add x^28 * (33! / 28!)\n    xi = (xi * _x) >> _precision;\n    res += xi * 0x000000000000000000000000000efc40; // add x^29 * (33! / 29!)\n    xi = (xi * _x) >> _precision;\n    res += xi * 0x00000000000000000000000000007fe0; // add x^30 * (33! / 30!)\n    xi = (xi * _x) >> _precision;\n    res += xi * 0x00000000000000000000000000000420; // add x^31 * (33! / 31!)\n    xi = (xi * _x) >> _precision;\n    res += xi * 0x00000000000000000000000000000021; // add x^32 * (33! / 32!)\n    xi = (xi * _x) >> _precision;\n    res += xi * 0x00000000000000000000000000000001; // add x^33 * (33! / 33!)\n\n    return res / 0x688589cc0e9505e2f2fee5580000000 + _x + (ONE << _precision); // divide by 33! and then add x^1 / 1! + x^0 / 0!\n  }\n}\n",
  "sourcePath": "/Users/jack/Documents/GitHub/HighStreet/client/src/contracts/Power.sol",
  "compiler": {
    "name": "solc",
    "version": "0.8.3+commit.8d00100c.Emscripten.clang"
  },
  "schemaVersion": "3.4.0",
  "updatedAt": "2021-09-25T11:30:46.739Z",
  "devdoc": {
    "kind": "dev",
    "methods": {},
    "version": 1
  },
  "userdoc": {
    "kind": "user",
    "methods": {},
    "notice": "bancor formula by bancor https://github.com/bancorprotocol/contracts Modified from the original by Slava Balasanov Split Power.sol out from BancorFormula.sol Licensed to the Apache Software Foundation (ASF) under one or more contributor license agreements; and to You under the Apache License, Version 2.0. \"",
    "version": 1
  }
}