{
  "contractName": "ProductTokenV1",
  "abi": [
    {
      "anonymous": false,
      "inputs": [
        {
          "indexed": true,
          "internalType": "address",
          "name": "owner",
          "type": "address"
        },
        {
          "indexed": true,
          "internalType": "address",
          "name": "spender",
          "type": "address"
        },
        {
          "indexed": false,
          "internalType": "uint256",
          "name": "value",
          "type": "uint256"
        }
      ],
      "name": "Approval",
      "type": "event"
    },
    {
      "anonymous": false,
      "inputs": [
        {
          "indexed": true,
          "internalType": "address",
          "name": "sender",
          "type": "address"
        },
        {
          "indexed": false,
          "internalType": "uint32",
          "name": "amount",
          "type": "uint32"
        },
        {
          "indexed": false,
          "internalType": "uint256",
          "name": "deposit",
          "type": "uint256"
        }
      ],
      "name": "Buy",
      "type": "event"
    },
    {
      "anonymous": false,
      "inputs": [
        {
          "indexed": true,
          "internalType": "address",
          "name": "previousOwner",
          "type": "address"
        },
        {
          "indexed": true,
          "internalType": "address",
          "name": "newOwner",
          "type": "address"
        }
      ],
      "name": "OwnershipTransferred",
      "type": "event"
    },
    {
      "anonymous": false,
      "inputs": [
        {
          "indexed": true,
          "internalType": "address",
          "name": "sender",
          "type": "address"
        },
        {
          "indexed": false,
          "internalType": "uint32",
          "name": "amount",
          "type": "uint32"
        },
        {
          "indexed": false,
          "internalType": "uint256",
          "name": "refund",
          "type": "uint256"
        }
      ],
      "name": "Sell",
      "type": "event"
    },
    {
      "anonymous": false,
      "inputs": [
        {
          "indexed": false,
          "internalType": "bool",
          "name": "isTradable",
          "type": "bool"
        }
      ],
      "name": "Tradable",
      "type": "event"
    },
    {
      "anonymous": false,
      "inputs": [
        {
          "indexed": true,
          "internalType": "address",
          "name": "sender",
          "type": "address"
        },
        {
          "indexed": false,
          "internalType": "uint32",
          "name": "amount",
          "type": "uint32"
        }
      ],
      "name": "Tradein",
      "type": "event"
    },
    {
      "anonymous": false,
      "inputs": [
        {
          "indexed": true,
          "internalType": "address",
          "name": "from",
          "type": "address"
        },
        {
          "indexed": true,
          "internalType": "address",
          "name": "to",
          "type": "address"
        },
        {
          "indexed": false,
          "internalType": "uint256",
          "name": "value",
          "type": "uint256"
        }
      ],
      "name": "Transfer",
      "type": "event"
    },
    {
      "anonymous": false,
      "inputs": [
        {
          "indexed": false,
          "internalType": "address",
          "name": "daiAddress",
          "type": "address"
        },
        {
          "indexed": false,
          "internalType": "address",
          "name": "chainlinkAddress",
          "type": "address"
        }
      ],
      "name": "Update",
      "type": "event"
    },
    {
      "anonymous": false,
      "inputs": [
        {
          "indexed": false,
          "internalType": "address",
          "name": "daiAddress",
          "type": "address"
        },
        {
          "indexed": false,
          "internalType": "address",
          "name": "chainlinkAddress",
          "type": "address"
        }
      ],
      "name": "UpdateHsToken",
      "type": "event"
    },
    {
      "anonymous": false,
      "inputs": [
        {
          "indexed": false,
          "internalType": "address",
          "name": "",
          "type": "address"
        },
        {
          "indexed": false,
          "internalType": "uint256",
          "name": "",
          "type": "uint256"
        },
        {
          "components": [
            {
              "internalType": "enum Escrow.escrowState",
              "name": "state",
              "type": "uint8"
            },
            {
              "internalType": "uint32",
              "name": "amount",
              "type": "uint32"
            },
            {
              "internalType": "uint256",
              "name": "value",
              "type": "uint256"
            }
          ],
          "indexed": false,
          "internalType": "struct Escrow.escrowInfo",
          "name": "",
          "type": "tuple"
        }
      ],
      "name": "escrowStateUpdated",
      "type": "event"
    },
    {
      "stateMutability": "nonpayable",
      "type": "fallback"
    },
    {
      "inputs": [],
      "name": "INDEX_DAI",
      "outputs": [
        {
          "internalType": "uint256",
          "name": "",
          "type": "uint256"
        }
      ],
      "stateMutability": "view",
      "type": "function"
    },
    {
      "inputs": [],
      "name": "INDEX_ETH",
      "outputs": [
        {
          "internalType": "uint256",
          "name": "",
          "type": "uint256"
        }
      ],
      "stateMutability": "view",
      "type": "function"
    },
    {
      "inputs": [],
      "name": "INDEX_HIGH",
      "outputs": [
        {
          "internalType": "uint256",
          "name": "",
          "type": "uint256"
        }
      ],
      "stateMutability": "view",
      "type": "function"
    },
    {
      "inputs": [
        {
          "internalType": "uint32",
          "name": "_amountProduct",
          "type": "uint32"
        }
      ],
      "name": "_getPriceForN",
      "outputs": [
        {
          "internalType": "uint256",
          "name": "price",
          "type": "uint256"
        },
        {
          "internalType": "uint256",
          "name": "fee",
          "type": "uint256"
        }
      ],
      "stateMutability": "view",
      "type": "function"
    },
    {
      "inputs": [
        {
          "internalType": "address",
          "name": "owner",
          "type": "address"
        },
        {
          "internalType": "address",
          "name": "spender",
          "type": "address"
        }
      ],
      "name": "allowance",
      "outputs": [
        {
          "internalType": "uint256",
          "name": "",
          "type": "uint256"
        }
      ],
      "stateMutability": "view",
      "type": "function"
    },
    {
      "inputs": [
        {
          "internalType": "address",
          "name": "spender",
          "type": "address"
        },
        {
          "internalType": "uint256",
          "name": "amount",
          "type": "uint256"
        }
      ],
      "name": "approve",
      "outputs": [
        {
          "internalType": "bool",
          "name": "",
          "type": "bool"
        }
      ],
      "stateMutability": "nonpayable",
      "type": "function"
    },
    {
      "inputs": [
        {
          "internalType": "address",
          "name": "account",
          "type": "address"
        }
      ],
      "name": "balanceOf",
      "outputs": [
        {
          "internalType": "uint256",
          "name": "",
          "type": "uint256"
        }
      ],
      "stateMutability": "view",
      "type": "function"
    },
    {
      "inputs": [
        {
          "internalType": "uint256",
          "name": "_amountReserve",
          "type": "uint256"
        }
      ],
      "name": "calculateBuyReturn",
      "outputs": [
        {
          "internalType": "uint32",
          "name": "mintAmount",
          "type": "uint32"
        }
      ],
      "stateMutability": "view",
      "type": "function"
    },
    {
      "inputs": [
        {
          "internalType": "uint32",
          "name": "_amountProduct",
          "type": "uint32"
        }
      ],
      "name": "calculateSellReturn",
      "outputs": [
        {
          "internalType": "uint256",
          "name": "soldAmount",
          "type": "uint256"
        }
      ],
      "stateMutability": "view",
      "type": "function"
    },
    {
      "inputs": [
        {
          "internalType": "uint32",
          "name": "_amount",
          "type": "uint32"
        }
      ],
      "name": "calculateTradinReturn",
      "outputs": [
        {
          "internalType": "uint256",
          "name": "",
          "type": "uint256"
        }
      ],
      "stateMutability": "view",
      "type": "function"
    },
    {
      "inputs": [],
      "name": "decimals",
      "outputs": [
        {
          "internalType": "uint8",
          "name": "",
          "type": "uint8"
        }
      ],
      "stateMutability": "view",
      "type": "function"
    },
    {
      "inputs": [
        {
          "internalType": "address",
          "name": "spender",
          "type": "address"
        },
        {
          "internalType": "uint256",
          "name": "subtractedValue",
          "type": "uint256"
        }
      ],
      "name": "decreaseAllowance",
      "outputs": [
        {
          "internalType": "bool",
          "name": "",
          "type": "bool"
        }
      ],
      "stateMutability": "nonpayable",
      "type": "function"
    },
    {
      "inputs": [
        {
          "internalType": "address",
          "name": "",
          "type": "address"
        },
        {
          "internalType": "uint256",
          "name": "",
          "type": "uint256"
        }
      ],
      "name": "escrowList",
      "outputs": [
        {
          "internalType": "enum Escrow.escrowState",
          "name": "state",
          "type": "uint8"
        },
        {
          "internalType": "uint32",
          "name": "amount",
          "type": "uint32"
        },
        {
          "internalType": "uint256",
          "name": "value",
          "type": "uint256"
        }
      ],
      "stateMutability": "view",
      "type": "function"
    },
    {
      "inputs": [],
      "name": "getAvailability",
      "outputs": [
        {
          "internalType": "uint32",
          "name": "available",
          "type": "uint32"
        }
      ],
      "stateMutability": "view",
      "type": "function"
    },
    {
      "inputs": [],
      "name": "getCurrentPrice",
      "outputs": [
        {
          "internalType": "uint256",
          "name": "price",
          "type": "uint256"
        }
      ],
      "stateMutability": "view",
      "type": "function"
    },
    {
      "inputs": [
        {
          "internalType": "address",
          "name": "_buyer",
          "type": "address"
        }
      ],
      "name": "getEscrowHistory",
      "outputs": [
        {
          "components": [
            {
              "internalType": "enum Escrow.escrowState",
              "name": "state",
              "type": "uint8"
            },
            {
              "internalType": "uint32",
              "name": "amount",
              "type": "uint32"
            },
            {
              "internalType": "uint256",
              "name": "value",
              "type": "uint256"
            }
          ],
          "internalType": "struct Escrow.escrowInfo[]",
          "name": "",
          "type": "tuple[]"
        }
      ],
      "stateMutability": "view",
      "type": "function"
    },
    {
      "inputs": [],
      "name": "getManager",
      "outputs": [
        {
          "internalType": "address",
          "name": "",
          "type": "address"
        }
      ],
      "stateMutability": "view",
      "type": "function"
    },
    {
      "inputs": [
        {
          "internalType": "uint32",
          "name": "_amountProduct",
          "type": "uint32"
        }
      ],
      "name": "getPriceForN",
      "outputs": [
        {
          "internalType": "uint256",
          "name": "price",
          "type": "uint256"
        }
      ],
      "stateMutability": "view",
      "type": "function"
    },
    {
      "inputs": [
        {
          "internalType": "address",
          "name": "_buyer",
          "type": "address"
        },
        {
          "internalType": "uint256",
          "name": "_id",
          "type": "uint256"
        }
      ],
      "name": "getRedeemStatus",
      "outputs": [
        {
          "internalType": "enum Escrow.escrowState",
          "name": "",
          "type": "uint8"
        }
      ],
      "stateMutability": "view",
      "type": "function"
    },
    {
      "inputs": [
        {
          "internalType": "address",
          "name": "spender",
          "type": "address"
        },
        {
          "internalType": "uint256",
          "name": "addedValue",
          "type": "uint256"
        }
      ],
      "name": "increaseAllowance",
      "outputs": [
        {
          "internalType": "bool",
          "name": "",
          "type": "bool"
        }
      ],
      "stateMutability": "nonpayable",
      "type": "function"
    },
    {
      "inputs": [
        {
          "internalType": "string",
          "name": "_name",
          "type": "string"
        },
        {
          "internalType": "string",
          "name": "_symbol",
          "type": "string"
        },
        {
          "internalType": "address",
          "name": "_bondingCurveAddress",
          "type": "address"
        },
        {
          "internalType": "uint32",
          "name": "_reserveRatio",
          "type": "uint32"
        },
        {
          "internalType": "uint32",
          "name": "_maxTokenCount",
          "type": "uint32"
        },
        {
          "internalType": "uint32",
          "name": "_supplyOffset",
          "type": "uint32"
        },
        {
          "internalType": "uint256",
          "name": "_baseReserve",
          "type": "uint256"
        }
      ],
      "name": "initialize",
      "outputs": [],
      "stateMutability": "nonpayable",
      "type": "function"
    },
    {
      "inputs": [
        {
          "internalType": "enum Escrow.escrowState",
          "name": "_state",
          "type": "uint8"
        }
      ],
      "name": "isStateCompleted",
      "outputs": [
        {
          "internalType": "bool",
          "name": "",
          "type": "bool"
        }
      ],
      "stateMutability": "pure",
      "type": "function"
    },
    {
      "inputs": [],
      "name": "launch",
      "outputs": [],
      "stateMutability": "nonpayable",
      "type": "function"
    },
    {
      "inputs": [],
      "name": "maxTokenCount",
      "outputs": [
        {
          "internalType": "uint32",
          "name": "",
          "type": "uint32"
        }
      ],
      "stateMutability": "view",
      "type": "function"
    },
    {
      "inputs": [],
      "name": "name",
      "outputs": [
        {
          "internalType": "string",
          "name": "",
          "type": "string"
        }
      ],
      "stateMutability": "view",
      "type": "function"
    },
    {
      "inputs": [],
      "name": "owner",
      "outputs": [
        {
          "internalType": "address",
          "name": "",
          "type": "address"
        }
      ],
      "stateMutability": "view",
      "type": "function"
    },
    {
      "inputs": [],
      "name": "pause",
      "outputs": [],
      "stateMutability": "nonpayable",
      "type": "function"
    },
    {
      "inputs": [],
      "name": "poolInfo",
      "outputs": [
        {
          "internalType": "uint256",
          "name": "amount",
          "type": "uint256"
        },
        {
          "internalType": "uint256",
          "name": "accRewardPerShare",
          "type": "uint256"
        },
        {
          "internalType": "uint256",
          "name": "tokenReward",
          "type": "uint256"
        }
      ],
      "stateMutability": "view",
      "type": "function"
    },
    {
      "inputs": [],
      "name": "renounceOwnership",
      "outputs": [],
      "stateMutability": "nonpayable",
      "type": "function"
    },
    {
      "inputs": [],
      "name": "reserveBalance",
      "outputs": [
        {
          "internalType": "uint256",
          "name": "",
          "type": "uint256"
        }
      ],
      "stateMutability": "view",
      "type": "function"
    },
    {
      "inputs": [],
      "name": "reserveRatio",
      "outputs": [
        {
          "internalType": "uint32",
          "name": "",
          "type": "uint32"
        }
      ],
      "stateMutability": "view",
      "type": "function"
    },
    {
      "inputs": [
        {
          "internalType": "address",
          "name": "_address",
          "type": "address"
        }
      ],
      "name": "setBondingCurve",
      "outputs": [],
      "stateMutability": "nonpayable",
      "type": "function"
    },
    {
      "inputs": [
        {
          "internalType": "address",
          "name": "addr_",
          "type": "address"
        }
      ],
      "name": "setManager",
      "outputs": [],
      "stateMutability": "nonpayable",
      "type": "function"
    },
    {
      "inputs": [],
      "name": "supplier",
      "outputs": [
        {
          "internalType": "uint256",
          "name": "amount",
          "type": "uint256"
        },
        {
          "internalType": "address",
          "name": "wallet",
          "type": "address"
        }
      ],
      "stateMutability": "view",
      "type": "function"
    },
    {
      "inputs": [],
      "name": "symbol",
      "outputs": [
        {
          "internalType": "string",
          "name": "",
          "type": "string"
        }
      ],
      "stateMutability": "view",
      "type": "function"
    },
    {
      "inputs": [],
      "name": "totalSupply",
      "outputs": [
        {
          "internalType": "uint256",
          "name": "",
          "type": "uint256"
        }
      ],
      "stateMutability": "view",
      "type": "function"
    },
    {
      "inputs": [],
      "name": "tradeinCount",
      "outputs": [
        {
          "internalType": "uint32",
          "name": "",
          "type": "uint32"
        }
      ],
      "stateMutability": "view",
      "type": "function"
    },
    {
      "inputs": [],
      "name": "tradeinReserveBalance",
      "outputs": [
        {
          "internalType": "uint256",
          "name": "",
          "type": "uint256"
        }
      ],
      "stateMutability": "view",
      "type": "function"
    },
    {
      "inputs": [
        {
          "internalType": "address",
          "name": "recipient",
          "type": "address"
        },
        {
          "internalType": "uint256",
          "name": "amount",
          "type": "uint256"
        }
      ],
      "name": "transfer",
      "outputs": [
        {
          "internalType": "bool",
          "name": "",
          "type": "bool"
        }
      ],
      "stateMutability": "nonpayable",
      "type": "function"
    },
    {
      "inputs": [
        {
          "internalType": "address",
          "name": "sender",
          "type": "address"
        },
        {
          "internalType": "address",
          "name": "recipient",
          "type": "address"
        },
        {
          "internalType": "uint256",
          "name": "amount",
          "type": "uint256"
        }
      ],
      "name": "transferFrom",
      "outputs": [
        {
          "internalType": "bool",
          "name": "",
          "type": "bool"
        }
      ],
      "stateMutability": "nonpayable",
      "type": "function"
    },
    {
      "inputs": [
        {
          "internalType": "address",
          "name": "newOwner",
          "type": "address"
        }
      ],
      "name": "transferOwnership",
      "outputs": [],
      "stateMutability": "nonpayable",
      "type": "function"
    },
    {
      "inputs": [
        {
          "internalType": "address",
          "name": "buyer",
          "type": "address"
        },
        {
          "internalType": "uint256",
          "name": "id",
          "type": "uint256"
        }
      ],
      "name": "updateUserCompleted",
      "outputs": [],
      "stateMutability": "nonpayable",
      "type": "function"
    },
    {
      "inputs": [
        {
          "internalType": "address",
          "name": "buyer",
          "type": "address"
        },
        {
          "internalType": "uint256",
          "name": "id",
          "type": "uint256"
        }
      ],
      "name": "updateUserRefund",
      "outputs": [],
      "stateMutability": "nonpayable",
      "type": "function"
    },
    {
      "inputs": [
        {
          "internalType": "address",
          "name": "",
          "type": "address"
        }
      ],
      "name": "userInfo",
      "outputs": [
        {
          "internalType": "uint256",
          "name": "amount",
          "type": "uint256"
        },
        {
          "internalType": "uint256",
          "name": "rewardDebt",
          "type": "uint256"
        }
      ],
      "stateMutability": "view",
      "type": "function"
    },
    {
      "inputs": [],
      "name": "voucher",
      "outputs": [
        {
          "internalType": "address",
          "name": "addr",
          "type": "address"
        },
        {
          "internalType": "contract IVNFT",
          "name": "instance",
          "type": "address"
        },
        {
          "internalType": "uint256",
          "name": "tokenId",
          "type": "uint256"
        },
        {
          "internalType": "bool",
          "name": "isEnable",
          "type": "bool"
        }
      ],
      "stateMutability": "view",
      "type": "function"
    },
    {
      "inputs": [
        {
          "internalType": "address",
          "name": "addr_",
          "type": "address"
        }
      ],
      "name": "setupTokenUtils",
      "outputs": [],
      "stateMutability": "nonpayable",
      "type": "function"
    },
    {
      "inputs": [],
      "name": "buyETH",
      "outputs": [],
      "stateMutability": "payable",
      "type": "function"
    },
    {
      "inputs": [
        {
          "internalType": "uint256",
          "name": "ids_",
          "type": "uint256"
        },
        {
          "internalType": "uint256",
          "name": "maxPrice_",
          "type": "uint256"
        }
      ],
      "name": "buyERC20",
      "outputs": [],
      "stateMutability": "nonpayable",
      "type": "function"
    },
    {
      "inputs": [
        {
          "internalType": "uint32",
          "name": "amount_",
          "type": "uint32"
        },
        {
          "internalType": "bool",
          "name": "isHarvest_",
          "type": "bool"
        }
      ],
      "name": "sell",
      "outputs": [],
      "stateMutability": "nonpayable",
      "type": "function"
    },
    {
      "inputs": [
        {
          "internalType": "uint32",
          "name": "amount_",
          "type": "uint32"
        },
        {
          "internalType": "bool",
          "name": "isHarvest_",
          "type": "bool"
        }
      ],
      "name": "tradein",
      "outputs": [],
      "stateMutability": "nonpayable",
      "type": "function"
    },
    {
      "inputs": [],
      "name": "updatePool",
      "outputs": [],
      "stateMutability": "nonpayable",
      "type": "function"
    },
    {
      "inputs": [
        {
          "internalType": "uint256",
          "name": "ids_",
          "type": "uint256"
        }
      ],
      "name": "getCurrentPriceByIds",
      "outputs": [
        {
          "internalType": "uint256",
          "name": "",
          "type": "uint256"
        }
      ],
      "stateMutability": "view",
      "type": "function"
    },
    {
      "inputs": [
        {
          "internalType": "address",
          "name": "wallet_",
          "type": "address"
        }
      ],
      "name": "updateSupplierInfo",
      "outputs": [],
      "stateMutability": "nonpayable",
      "type": "function"
    },
    {
      "inputs": [
        {
          "internalType": "uint256",
          "name": "amount_",
          "type": "uint256"
        }
      ],
      "name": "claimSupplier",
      "outputs": [],
      "stateMutability": "nonpayable",
      "type": "function"
    },
    {
      "inputs": [],
      "name": "getSupplierBalance",
      "outputs": [
        {
          "internalType": "uint256",
          "name": "",
          "type": "uint256"
        }
      ],
      "stateMutability": "view",
      "type": "function"
    },
    {
      "inputs": [
        {
          "internalType": "uint256",
          "name": "value_",
          "type": "uint256"
        }
      ],
      "name": "withdrawEther",
      "outputs": [],
      "stateMutability": "payable",
      "type": "function"
    },
    {
      "inputs": [
        {
          "internalType": "uint256",
          "name": "ids_",
          "type": "uint256"
        },
        {
          "internalType": "uint256",
          "name": "amount_",
          "type": "uint256"
        },
        {
          "internalType": "address",
          "name": "to_",
          "type": "address"
        }
      ],
      "name": "withdrawERC20",
      "outputs": [],
      "stateMutability": "nonpayable",
      "type": "function"
    },
    {
      "inputs": [
        {
          "internalType": "address",
          "name": "addr_",
          "type": "address"
        }
      ],
      "name": "getUserReward",
      "outputs": [
        {
          "internalType": "uint256",
          "name": "",
          "type": "uint256"
        }
      ],
      "stateMutability": "nonpayable",
      "type": "function"
    },
    {
      "inputs": [
        {
          "internalType": "address",
          "name": "addr_",
          "type": "address"
        }
      ],
      "name": "getUserInfo",
      "outputs": [
        {
          "components": [
            {
              "internalType": "uint256",
              "name": "amount",
              "type": "uint256"
            },
            {
              "internalType": "uint256",
              "name": "rewardDebt",
              "type": "uint256"
            },
            {
              "internalType": "uint256[]",
              "name": "records",
              "type": "uint256[]"
            }
          ],
          "internalType": "struct ProductTokenV1.UserInfo",
          "name": "",
          "type": "tuple"
        }
      ],
      "stateMutability": "view",
      "type": "function"
    },
    {
      "inputs": [],
      "name": "getPoolInfo",
      "outputs": [
        {
          "components": [
            {
              "internalType": "uint256",
              "name": "amount",
              "type": "uint256"
            },
            {
              "internalType": "uint256",
              "name": "accRewardPerShare",
              "type": "uint256"
            },
            {
              "internalType": "uint256",
              "name": "tokenReward",
              "type": "uint256"
            }
          ],
          "internalType": "struct ProductTokenV1.PoolInfo",
          "name": "",
          "type": "tuple"
        }
      ],
      "stateMutability": "view",
      "type": "function"
    },
    {
      "inputs": [],
      "name": "getSupplierInfo",
      "outputs": [
        {
          "components": [
            {
              "internalType": "uint256",
              "name": "amount",
              "type": "uint256"
            },
            {
              "internalType": "address",
              "name": "wallet",
              "type": "address"
            }
          ],
          "internalType": "struct ProductTokenV1.supplierInfo",
          "name": "",
          "type": "tuple"
        }
      ],
      "stateMutability": "view",
      "type": "function"
    }
  ],
  "bytecode": "0x608060405234801561001057600080fd5b506154a0806100206000396000f3fe6080604052600436106102f65760003560e060020a90048063828f3a9c1161019b578063c660796a116100f1578063deebbef111610094578063deebbef114610ab6578063e3161ddd14610ad6578063e67dc51814610aeb578063eb91d37e14610b01578063efea8a1314610b16578063f2fde38b14610b36578063f97511d314610b56578063fba7d65014610b76576102f6565b8063c660796a14610946578063c757d4c714610966578063c75ebb8214610986578063cdda418c146109a6578063d0ebdbe714610a05578063d500958414610a25578063dd304b1a14610a43578063dd62ed3e14610a70576102f6565b8063828f3a9c146107825780638456cb59146107a25780638da5cb5b146107b757806395d89b41146107d9578063964a6afe146107ee5780639b9ffbf314610803578063a10954fe14610832578063a457c2d714610848578063a9059cbb14610868578063aa4985cc14610888578063af22803e1461089d578063b36e6dca146108bd578063ba7a93b6146108dd578063c2a7925714610901578063c4e627c214610921576102f6565b806343ff1fb81161025057806343ff1fb814610541578063491052cd146105615780634b9abc26146105815780635a2f3d09146105965780635e88752c146105d057806360246c88146105f05780636386c1c71461062757806363cc0668146106545780636e74607b146106745780636fed6974146106a157806370a08231146106c1578063715018a6146106e157806374a21872146106f657806374a7b0121461070b5780637a53e0401461076d576102f6565b806301339c211461030557806306fdde031461031c578063095ea7b3146103475780630c7d5cd8146103775780630ccee99b146103a957806318160ddd146103c95780631959a002146103e857806319d5b587146104315780631b892eb314610451578063224e4f481461047157806323b872dd14610491578063313ce567146104b157806336da4468146104cd578063395093511461050e5780633bed33ce1461052e575b34801561030257600080fd5b50005b34801561031157600080fd5b5061031a610b7e565b005b34801561032857600080fd5b50610331610c66565b60405161033e9190614f5f565b60405180910390f35b34801561035357600080fd5b50610367610362366004614be9565b610cf8565b604051901515815260200161033e565b34801561038357600080fd5b50609b546103949063ffffffff1681565b60405163ffffffff909116815260200161033e565b3480156103b557600080fd5b5061031a6103c4366004614be9565b610d0f565b3480156103d557600080fd5b506035545b60405190815260200161033e565b3480156103f457600080fd5b5061041c610403366004614b39565b60a7602052600090815260409020805460019091015482565b6040805192835260208301919091520161033e565b34801561043d57600080fd5b506103da61044c366004614d8f565b610d96565b34801561045d57600080fd5b5061031a61046c366004614b39565b610e97565b34801561047d57600080fd5b506103da61048c366004614d8f565b610efe565b34801561049d57600080fd5b506103676104ac366004614ba9565b610f23565b3480156104bd57600080fd5b506040516012815260200161033e565b3480156104d957600080fd5b50609e54609f546104f19190600160a060020a031682565b60408051928352600160a060020a0390911660208301520161033e565b34801561051a57600080fd5b50610367610529366004614be9565b610fec565b61031a61053c366004614d06565b611023565b34801561054d57600080fd5b5061031a61055c366004614b39565b6110d3565b34801561056d57600080fd5b5061036761057c366004614c30565b611180565b34801561058d57600080fd5b506103da600181565b3480156105a257600080fd5b5060a05460a15460a2546105b592919083565b6040805193845260208401929092529082015260600161033e565b3480156105dc57600080fd5b5061031a6105eb366004614d06565b6111da565b3480156105fc57600080fd5b506106056113c6565b604080518251815260208084015190820152918101519082015260600161033e565b34801561063357600080fd5b50610647610642366004614b39565b61140f565b60405161033e91906151fc565b34801561066057600080fd5b506103da61066f366004614d06565b6114e8565b34801561068057600080fd5b5061069461068f366004614b39565b611614565b60405161033e9190614ede565b3480156106ad57600080fd5b5061031a6106bc366004614dc7565b6116fa565b3480156106cd57600080fd5b506103da6106dc366004614b39565b6119d9565b3480156106ed57600080fd5b5061031a6119f4565b34801561070257600080fd5b506103da600081565b34801561071757600080fd5b5060408051808201825260008082526020918201528151808301909252609e548252609f54600160a060020a0316908201526040805182518152602092830151600160a060020a0316928101929092520161033e565b34801561077957600080fd5b50610394611a5e565b34801561078e57600080fd5b5061039461079d366004614d06565b611aa4565b3480156107ae57600080fd5b5061031a611ab8565b3480156107c357600080fd5b506107cc611b89565b60405161033e9190614e40565b3480156107e557600080fd5b50610331611b98565b3480156107fa57600080fd5b50609e546103da565b34801561080f57600080fd5b5061082361081e366004614be9565b611ba7565b60405161033e93929190614f3a565b34801561083e57600080fd5b506103da60995481565b34801561085457600080fd5b50610367610863366004614be9565b611bf2565b34801561087457600080fd5b50610367610883366004614be9565b611c93565b34801561089457600080fd5b506103da600281565b3480156108a957600080fd5b5061041c6108b8366004614d8f565b611ca0565b3480156108c957600080fd5b5061031a6108d8366004614d57565b611d63565b3480156108e957600080fd5b50609b5461039490604060020a900463ffffffff1681565b34801561090d57600080fd5b5061031a61091c366004614d36565b61203d565b34801561092d57600080fd5b50609b5461039490640100000000900463ffffffff1681565b34801561095257600080fd5b5061031a610961366004614dc7565b612758565b34801561097257600080fd5b5061031a610981366004614be9565b612a7d565b34801561099257600080fd5b506103da6109a1366004614b39565b612b61565b3480156109b257600080fd5b5060a35460a45460a55460a6546109d893600160a060020a039081169316919060ff1684565b60408051600160a060020a039586168152949093166020850152918301521515606082015260800161033e565b348015610a1157600080fd5b5061031a610a20366004614b39565b612bc6565b348015610a3157600080fd5b50609c54600160a060020a03166107cc565b348015610a4f57600080fd5b50610a63610a5e366004614be9565b612c43565b60405161033e9190614f2c565b348015610a7c57600080fd5b506103da610a8b366004614b71565b600160a060020a03918216600090815260346020908152604080832093909416825291909152205490565b348015610ac257600080fd5b5061031a610ad1366004614b39565b612c99565b348015610ae257600080fd5b5061031a612d46565b348015610af757600080fd5b506103da609a5481565b348015610b0d57600080fd5b506103da612d85565b348015610b2257600080fd5b5061031a610b31366004614c4f565b612d91565b348015610b4257600080fd5b5061031a610b51366004614b39565b612e26565b348015610b6257600080fd5b506103da610b71366004614d8f565b612f21565b61031a612f3e565b33610b87611b89565b600160a060020a031614610bb95760405160e560020a62461bcd028152600401610bb090615159565b60405180910390fd5b60985460ff1615610c205760405160e560020a62461bcd02815260206004820152602560248201527f5468652070726f6475637420746f6b656e20697320616c7265616479206c6175604482015260da60020a641b98da1959026064820152608401610bb0565b6098805460ff191660019081179091556040519081527f65c5ccecef030677b73a1403e7e69ef84d05db9d1732959d543d32f4419909b8906020015b60405180910390a1565b606060368054610c7590615347565b80601f0160208091040260200160405190810160405280929190818152602001828054610ca190615347565b8015610cee5780601f10610cc357610100808354040283529160200191610cee565b820191906000526020600020905b815481529060010190602001808311610cd157829003601f168201915b5050505050905090565b6000610d053384846132b8565b5060015b92915050565b610d17611b89565b600160a060020a031633600160a060020a03161480610d405750609c54600160a060020a031633145b610d5f5760405160e560020a62461bcd028152600401610bb090615122565b600160a060020a038216610d885760405160e560020a62461bcd028152600401610bb090614fb2565b610d9282826133e9565b5050565b6000808263ffffffff1611610dc05760405160e560020a62461bcd028152600401610bb090615057565b609b54600090610df79063ffffffff606060020a8204811691610df19187811691604060020a900481169061356216565b90613562565b609d54609a54609b5460405160e060020a631c949873028152939450600160a060020a0390921692631c94987392610e3e928692909163ffffffff16908990600401615261565b60206040518083038186803b158015610e5657600080fd5b505afa158015610e6a573d6000803e3d6000fd5b505050506040513d601f19601f82011682018060405250810190610e8e9190614d1e565b9150505b919050565b33610ea0611b89565b600160a060020a031614610ec95760405160e560020a62461bcd028152600401610bb090615159565b600160a060020a038116610edc57600080fd5b60a88054600160a060020a031916600160a060020a0392909216919091179055565b6000806000610f0c84613575565b9092509050610f1b828261362c565b949350505050565b6000610f30848484613638565b600160a060020a038416600090815260346020908152604080832033845290915290205482811015610fcd5760405160e560020a62461bcd02815260206004820152602860248201527f45524332303a207472616e7366657220616d6f756e742065786365656473206160448201527f6c6c6f77616e63650000000000000000000000000000000000000000000000006064820152608401610bb0565b610fe18533610fdc868561530b565b6132b8565b506001949350505050565b336000818152603460209081526040808320600160a060020a03871684529091528120549091610d05918590610fdc908690615289565b3361102c611b89565b600160a060020a0316146110555760405160e560020a62461bcd028152600401610bb090615159565b30316110a65760405160e560020a62461bcd02815260206004820152600f60248201527f6e6f20656e6f75676820657468657200000000000000000000000000000000006044820152606401610bb0565b604051339082156108fc029083906000818181858888f19350505050158015610d92573d6000803e3d6000fd5b336110dc611b89565b600160a060020a0316146111055760405160e560020a62461bcd028152600401610bb090615159565b600160a060020a03811661115e5760405160e560020a62461bcd02815260206004820152600f60248201527f496e76616c6964206164647265737300000000000000000000000000000000006044820152606401610bb0565b609d8054600160a060020a031916600160a060020a0392909216919091179055565b600060038260038111156111a75760e060020a634e487b7102600052602160045260246000fd5b1480610d09575060028260038111156111d35760e060020a634e487b7102600052602160045260246000fd5b1492915050565b609f54600160a060020a03166112355760405160e560020a62461bcd02815260206004820152601160248201527f77616c6c657420697320696e76616c69640000000000000000000000000000006044820152606401610bb0565b609f54600160a060020a031633146112925760405160e560020a62461bcd02815260206004820152601a60248201527f5468652061646472657373206973206e6f7420616c6c6f7765640000000000006044820152606401610bb0565b60a85460405160e060020a63bf418de102815260016004820152600091600160a060020a03169063bf418de19060240160206040518083038186803b1580156112da57600080fd5b505afa1580156112ee573d6000803e3d6000fd5b505050506040513d601f19601f820116820180604052508101906113129190614b55565b609e54909150819083116113c15760405160e060020a63a9059cbb028152600090600160a060020a0383169063a9059cbb906113549033908890600401614e54565b602060405180830381600087803b15801561136e57600080fd5b505af1158015611382573d6000803e3d6000fd5b505050506040513d601f19601f820116820180604052508101906113a69190614c14565b905080156113bf57609e546113bb908561362c565b609e555b505b505050565b6113ea60405180606001604052806000815260200160008152602001600081525090565b506040805160608101825260a054815260a154602082015260a2549181019190915290565b61143360405180606001604052806000815260200160008152602001606081525090565b600160a060020a03821661145c5760405160e560020a62461bcd028152600401610bb09061508e565b600160a060020a038216600090815260a76020908152604091829020825160608101845281548152600182015481840152600282018054855181860281018601875281815292959394938601938301828280156114d857602002820191906000526020600020905b8154815260200190600101908083116114c4575b5050505050815250509050919050565b60a85460405160e060020a6315fc65d902815260048101839052600091600160a060020a0316906315fc65d99060240160206040518083038186803b15801561153057600080fd5b505afa158015611544573d6000803e3d6000fd5b505050506040513d601f19601f820116820180604052508101906115689190614c14565b6115875760405160e560020a62461bcd028152600401610bb090615020565b60a854600160a060020a0316631c6e7b206115a0612d85565b60405160e060020a63ffffffff841602815260048101919091526024810185905260440160206040518083038186803b1580156115dc57600080fd5b505afa1580156115f0573d6000803e3d6000fd5b505050506040513d601f19601f82011682018060405250810190610d099190614d1e565b600160a060020a0381166000908152606560209081526040808320805482518185028101850190935280835260609492939192909184015b828210156116ef576000848152602090206040805160608101909152600284029091018054829060ff1660038111156116985760e060020a634e487b7102600052602160045260246000fd5b60038111156116ba5760e060020a634e487b7102600052602160045260246000fd5b81528154610100900463ffffffff1660208083019190915260019283015460409092019190915291835292909201910161164c565b505050509050919050565b60985460ff1661171f5760405160e560020a62461bcd028152600401610bb09061518e565b60a85460405160e060020a6315fc65d902815260016004820152600160a060020a03909116906315fc65d99060240160206040518083038186803b15801561176657600080fd5b505afa15801561177a573d6000803e3d6000fd5b505050506040513d601f19601f8201168201806040525081019061179e9190614c14565b6117bd5760405160e560020a62461bcd028152600401610bb090615020565b60008263ffffffff16116117e65760405160e560020a62461bcd028152600401610bb0906151c5565b8163ffffffff166117f6336119d9565b10156118475760405160e560020a62461bcd02815260206004820152601c60248201527f496e73756666696369656e7420746f6b656e7320746f206275726e2e000000006044820152606401610bb0565b60008061185384613575565b91509150600061186285610d96565b905061189061188b82610df16512309ce54000611885876509184e72a000613824565b90613830565b61383c565b61189a838361362c565b60a85460405160e560020a62e373d9028152600481018390526001602482015291945061192b918791600160a060020a031690631c6e7b209060440160206040518083038186803b1580156118ee57600080fd5b505afa158015611902573d6000803e3d6000fd5b505050506040513d601f19601f820116820180604052508101906119269190614d1e565b6138e0565b5061193c338663ffffffff16613a34565b609b54611957908690604060020a900463ffffffff166152a1565b609b80546bffffffff00000000000000001916604060020a63ffffffff93841602179055609a5461198a91839061356216565b609a556119978585613b7d565b60405163ffffffff8616815233907fe600c25f82e9bac8f9f1663725540d6cd442845726820fd5bee41b66c4bf59be9060200160405180910390a25050505050565b600160a060020a031660009081526033602052604090205490565b336119fd611b89565b600160a060020a031614611a265760405160e560020a62461bcd028152600401610bb090615159565b606654604051600091600160a060020a03169060008051602061542b833981519152908390a360668054600160a060020a0319169055565b609b54600090604060020a900463ffffffff16611a7a60355490565b609b54611a959190640100000000900463ffffffff16615322565b611a9f9190615322565b905090565b600080611ab083613e05565b509392505050565b33611ac1611b89565b600160a060020a031614611aea5760405160e560020a62461bcd028152600401610bb090615159565b60985460ff16611b4e5760405160e560020a62461bcd02815260206004820152602360248201527f5468652070726f6475637420746f6b656e20697320616c726561647920706175604482015260ea60020a621cd959026064820152608401610bb0565b6098805460ff19169055604051600081527f65c5ccecef030677b73a1403e7e69ef84d05db9d1732959d543d32f4419909b890602001610c5c565b606654600160a060020a031690565b606060378054610c7590615347565b60656020528160005260406000208181548110611bc357600080fd5b60009182526020909120600290910201805460019091015460ff8216935061010090910463ffffffff16915083565b336000908152603460209081526040808320600160a060020a038616845290915281205482811015611c7a5760405160e560020a62461bcd02815260206004820152602560248201527f45524332303a2064656372656173656420616c6c6f77616e63652062656c6f77604482015260d860020a64207a65726f026064820152608401610bb0565b611c893385610fdc868561530b565b5060019392505050565b6000610d05338484613638565b609d5460009081908190600160a060020a031663bff82d84611cc0613f0a565b609954609b5460405163ffffffff85811660e060020a028252611ceb94939216908a90600401615261565b60206040518083038186803b158015611d0357600080fd5b505afa158015611d17573d6000803e3d6000fd5b505050506040513d601f19601f82011682018060405250810190611d3b9190614d1e565b90506000611d5764e8d4a51000611885846412a05f2000613824565b91935090915050915091565b33611d6c611b89565b600160a060020a031614611d955760405160e560020a62461bcd028152600401610bb090615159565b60a85460405160e060020a6336e84a8702815260048101859052600160a060020a03909116906336e84a879060240160206040518083038186803b158015611ddc57600080fd5b505afa158015611df0573d6000803e3d6000fd5b505050506040513d601f19601f82011682018060405250810190611e149190614c14565b611e635760405160e560020a62461bcd02815260206004820152600e60248201527f6e6f7420696e76616c69642069640000000000000000000000000000000000006044820152606401610bb0565b600160a060020a038116611e8c5760405160e560020a62461bcd028152600401610bb09061508e565b60a85460405160e060020a63bf418de102815260048101859052600091600160a060020a03169063bf418de19060240160206040518083038186803b158015611ed457600080fd5b505afa158015611ee8573d6000803e3d6000fd5b505050506040513d601f19601f82011682018060405250810190611f0c9190614b55565b60405160e060020a6370a082310281529091508190600160a060020a038216906370a0823190611f40903090600401614e40565b60206040518083038186803b158015611f5857600080fd5b505afa158015611f6c573d6000803e3d6000fd5b505050506040513d601f19601f82011682018060405250810190611f909190614d1e565b841115611fb25760405160e560020a62461bcd028152600401610bb090615057565b60405160e060020a63a9059cbb028152600160a060020a0382169063a9059cbb90611fe39086908890600401614e54565b602060405180830381600087803b158015611ffd57600080fd5b505af1158015612011573d6000803e3d6000fd5b505050506040513d601f19601f820116820180604052508101906120359190614c14565b505050505050565b60985460ff166120625760405160e560020a62461bcd028152600401610bb09061518e565b60a85460405160e060020a6315fc65d902815260048101849052600160a060020a03909116906315fc65d99060240160206040518083038186803b1580156120a957600080fd5b505afa1580156120bd573d6000803e3d6000fd5b505050506040513d601f19601f820116820180604052508101906120e19190614c14565b6121005760405160e560020a62461bcd028152600401610bb090615020565b600081116121535760405160e560020a62461bcd02815260206004820152601160248201527f696e76616c6964206d61782070726963650000000000000000000000000000006044820152606401610bb0565b60a85460405160e060020a63bf418de102815260048101849052600091600160a060020a03169063bf418de19060240160206040518083038186803b15801561219b57600080fd5b505afa1580156121af573d6000803e3d6000fd5b505050506040513d601f19601f820116820180604052508101906121d39190614b55565b60405160e060020a6323b872dd02815233600482015230602482015260448101849052909150600090600160a060020a038316906323b872dd90606401602060405180830381600087803b15801561222a57600080fd5b505af115801561223e573d6000803e3d6000fd5b505050506040513d601f19601f820116820180604052508101906122629190614c14565b9050806122b45760405160e560020a62461bcd02815260206004820152601060248201527f5075726368617365206661696c65642e000000000000000000000000000000006044820152606401610bb0565b60a85460405160e060020a63a71b7b770281526004810185905260248101869052600091600160a060020a03169063a71b7b779060440160206040518083038186803b15801561230357600080fd5b505afa158015612317573d6000803e3d6000fd5b505050506040513d601f19601f8201168201806040525081019061233b9190614d1e565b905060008060008061234c85613f37565b93509350935063ffffffff16935060008411156126c85782156124765760a85460405160e560020a62e373d902815260048101859052602481018b9052600160a060020a0390911690631c6e7b209060440160206040518083038186803b1580156123b657600080fd5b505afa1580156123ca573d6000803e3d6000fd5b505050506040513d601f19601f820116820180604052508101906123ee9190614d1e565b60405160e060020a63a9059cbb028152909350600160a060020a0388169063a9059cbb906124229033908790600401614e54565b602060405180830381600087803b15801561243c57600080fd5b505af1158015612450573d6000803e3d6000fd5b505050506040513d601f19601f820116820180604052508101906124749190614c14565b505b61249261188b650746a52880006118858464e8d4a51000613824565b60a85460405160e560020a62e373d90281526004810183905260016024820152600160a060020a0390911690631c6e7b209060440160206040518083038186803b1580156124df57600080fd5b505afa1580156124f3573d6000803e3d6000fd5b505050506040513d601f19601f820116820180604052508101906125179190614d1e565b905061253f612536650746a528800061188584650574fbde6000613824565b60a25490613562565b60a25560018914156126c35760a85460405160e560020a62e373d90281526004810184905260016024820152600160a060020a0390911690631c6e7b209060440160206040518083038186803b15801561259857600080fd5b505afa1580156125ac573d6000803e3d6000fd5b505050506040513d601f19601f820116820180604052508101906125d09190614d1e565b33600090815260a760205260408120600181015460a1548254949650919360a09392612611929161260b9164e8d4a510009161188591613824565b9061362c565b9050801561269e5760405160e060020a63a9059cbb028152600160a060020a038b169063a9059cbb9061264a9033908590600401614e54565b602060405180830381600087803b15801561266457600080fd5b505af1158015612678573d6000803e3d6000fd5b505050506040513d601f19601f8201168201806040525081019061269c9190614c14565b505b60a0546126ab9086613562565b60a0556126b6612d46565b6126bf8561409c565b5050505b61274d565b60405160e060020a63a9059cbb028152600160a060020a0388169063a9059cbb906126f99033908c90600401614e54565b602060405180830381600087803b15801561271357600080fd5b505af1158015612727573d6000803e3d6000fd5b505050506040513d601f19601f8201168201806040525081019061274b9190614c14565b505b505050505050505050565b60985460ff1661277d5760405160e560020a62461bcd028152600401610bb09061518e565b60a85460405160e060020a6315fc65d902815260016004820152600160a060020a03909116906315fc65d99060240160206040518083038186803b1580156127c457600080fd5b505afa1580156127d8573d6000803e3d6000fd5b505050506040513d601f19601f820116820180604052508101906127fc9190614c14565b61281b5760405160e560020a62461bcd028152600401610bb090615020565b8163ffffffff1661282b336119d9565b10158061283e575060008263ffffffff16115b61285d5760405160e560020a62461bcd028152600401610bb090615057565b60a85460405160e060020a63bf418de102815260016004820152600091600160a060020a03169063bf418de19060240160206040518083038186803b1580156128a557600080fd5b505afa1580156128b9573d6000803e3d6000fd5b505050506040513d601f19601f820116820180604052508101906128dd9190614b55565b90506000806128eb856140f5565b915091506128f98585613b7d565b60a85460405160e560020a62e373d90281526004810184905260016024820152600091600160a060020a031690631c6e7b209060440160206040518083038186803b15801561294757600080fd5b505afa15801561295b573d6000803e3d6000fd5b505050506040513d601f19601f8201168201806040525081019061297f9190614d1e565b9050600084600160a060020a031663a9059cbb33846040518363ffffffff1660e060020a0281526004016129b4929190614e54565b602060405180830381600087803b1580156129ce57600080fd5b505af11580156129e2573d6000803e3d6000fd5b505050506040513d601f19601f82011682018060405250810190612a069190614c14565b9050612a2461188b6501d1a94a20006118858664e8d4a51000613824565b80612a745760405160e560020a62461bcd02815260206004820152601460248201527f73656c6c696e6720746f6b656e206661696c65640000000000000000000000006044820152606401610bb0565b50505050505050565b612a85611b89565b600160a060020a031633600160a060020a03161480612aae5750609c54600160a060020a031633145b612acd5760405160e560020a62461bcd028152600401610bb090615122565b600160a060020a038216612af65760405160e560020a62461bcd028152600401610bb090614fb2565b6000612b028383614208565b905060008111612b575760405160e560020a62461bcd02815260206004820152600d60248201527f496e76616c69642076616c7565000000000000000000000000000000000000006044820152606401610bb0565b6113c183826143b9565b600160a060020a038116600090815260a7602052604081205415612bbe5733600090815260a760205260409020600181015460a154825460a092612bb592909161260b9164e8d4a510009161188591613824565b92505050610e92565b506000919050565b33612bcf611b89565b600160a060020a031614612bf85760405160e560020a62461bcd028152600401610bb090615159565b600160a060020a038116612c215760405160e560020a62461bcd028152600401610bb09061508e565b609c8054600160a060020a031916600160a060020a0392909216919091179055565b600160a060020a0382166000908152606560205260408120805483908110612c7e5760e060020a634e487b7102600052603260045260246000fd5b600091825260209091206002909102015460ff169392505050565b33612ca2611b89565b600160a060020a031614612ccb5760405160e560020a62461bcd028152600401610bb090615159565b600160a060020a038116612d245760405160e560020a62461bcd02815260206004820152601260248201527f4164647265737320697320696e76616c696400000000000000000000000000006044820152606401610bb0565b609f8054600160a060020a031916600160a060020a0392909216919091179055565b60a05480612d595750600060a155612d83565b60a254612d7e90612d759083906118859064e8d4a51000613824565b60a15490613562565b60a155505b565b6000611a9f6001612f21565b600054610100900460ff1680612daa575060005460ff16155b612dc95760405160e560020a62461bcd028152600401610bb0906150c5565b600054610100900460ff16158015612deb576000805461ffff19166101011790555b612df3614512565b612dfd8888614590565b612e0a8686868686614612565b8015612e1c576000805461ff00191690555b5050505050505050565b33612e2f611b89565b600160a060020a031614612e585760405160e560020a62461bcd028152600401610bb090615159565b600160a060020a038116612ed75760405160e560020a62461bcd02815260206004820152602660248201527f4f776e61626c653a206e6577206f776e657220697320746865207a65726f206160448201527f64647265737300000000000000000000000000000000000000000000000000006064820152608401610bb0565b606654604051600160a060020a0380841692169060008051602061542b83398151915290600090a360668054600160a060020a031916600160a060020a0392909216919091179055565b6000806000612f2f84611ca0565b9092509050610f1b8282613562565b60985460ff16612f635760405160e560020a62461bcd028152600401610bb09061518e565b60a85460405160e060020a6315fc65d902815260006004820152600160a060020a03909116906315fc65d99060240160206040518083038186803b158015612faa57600080fd5b505afa158015612fbe573d6000803e3d6000fd5b505050506040513d601f19601f82011682018060405250810190612fe29190614c14565b6130015760405160e560020a62461bcd028152600401610bb090615020565b600034116130545760405160e560020a62461bcd02815260206004820152600d60248201527f696e76616c69642076616c7565000000000000000000000000000000000000006044820152606401610bb0565b60a85460405160e060020a63a71b7b7702815234600482015260006024820181905291600160a060020a03169063a71b7b779060440160206040518083038186803b1580156130a257600080fd5b505afa1580156130b6573d6000803e3d6000fd5b505050506040513d601f19601f820116820180604052508101906130da9190614d1e565b905060008060006130ea84613f37565b935050925063ffffffff16925060008311156132855781156131bd5760a85460405160e560020a62e373d90281526004810184905260006024820152600160a060020a0390911690631c6e7b209060440160206040518083038186803b15801561315357600080fd5b505afa158015613167573d6000803e3d6000fd5b505050506040513d601f19601f8201168201806040525081019061318b9190614d1e565b604051909250339083156108fc029084906000818181858888f193505050501580156131bb573d6000803e3d6000fd5b505b6131d961188b650746a52880006118858464e8d4a51000613824565b60a85460405160e560020a62e373d90281526004810183905260016024820152600160a060020a0390911690631c6e7b209060440160206040518083038186803b15801561322657600080fd5b505afa15801561323a573d6000803e3d6000fd5b505050506040513d601f19601f8201168201806040525081019061325e9190614d1e565b905061327d612536650746a528800061188584650574fbde6000613824565b60a2556113bf565b60405133903480156108fc02916000818181858888f193505050501580156132b1573d6000803e3d6000fd5b5050505050565b600160a060020a0383166133205760405160e560020a62461bcd028152602060048201526024808201527f45524332303a20617070726f76652066726f6d20746865207a65726f20616464604482015260e060020a6372657373026064820152608401610bb0565b600160a060020a0382166133875760405160e560020a62461bcd02815260206004820152602260248201527f45524332303a20617070726f766520746f20746865207a65726f206164647265604482015260f060020a617373026064820152608401610bb0565b600160a060020a0383811660008181526034602090815260408083209487168084529482529182902085905590518481527f8c5be1e5ebec7d5bd14f71427d1e84f3dd0314c0f7b2291e5b200ac8c7c3b92591015b60405180910390a3505050565b600160a060020a038216600090815260656020526040902080546134429190839081106134295760e060020a634e487b7102600052603260045260246000fd5b600091825260209091206002909102015460ff16611180565b156134625760405160e560020a62461bcd028152600401610bb090614fe9565b600160a060020a0382166000908152606560205260409020805460039190839081106134a15760e060020a634e487b7102600052603260045260246000fd5b60009182526020909120600290910201805460ff191660018360038111156134dc5760e060020a634e487b7102600052602160045260246000fd5b021790555060008051602061540b83398151915282826065600086600160a060020a0316600160a060020a0316815260200190815260200160002084815481106135395760e060020a634e487b7102600052603260045260246000fd5b906000526020600020906002020160405161355693929190614e91565b60405180910390a15050565b600061356e8284615289565b9392505050565b609d5460009081908190600160a060020a0316631c949873613595613f0a565b609954609b5460405163ffffffff85811660e060020a0282526135c094939216908a90600401615261565b60206040518083038186803b1580156135d857600080fd5b505afa1580156135ec573d6000803e3d6000fd5b505050506040513d601f19601f820116820180604052508101906136109190614d1e565b90506000611d5764e8d4a51000611885846404a817c800613824565b600061356e828461530b565b600160a060020a0383166136a25760405160e560020a62461bcd02815260206004820152602560248201527f45524332303a207472616e736665722066726f6d20746865207a65726f206164604482015260d860020a646472657373026064820152608401610bb0565b600160a060020a03821661370a5760405160e560020a62461bcd02815260206004820152602360248201527f45524332303a207472616e7366657220746f20746865207a65726f2061646472604482015260e860020a62657373026064820152608401610bb0565b600160a060020a0383166000908152603360205260409020548181101561379c5760405160e560020a62461bcd02815260206004820152602660248201527f45524332303a207472616e7366657220616d6f756e742065786365656473206260448201527f616c616e636500000000000000000000000000000000000000000000000000006064820152608401610bb0565b6137a6828261530b565b600160a060020a0380861660009081526033602052604080822093909355908516815290812080548492906137dc908490615289565b9250508190555082600160a060020a031684600160a060020a031660008051602061544b8339815191528460405161381691815260200190565b60405180910390a350505050565b600061356e82846152ec565b600061356e82846152c9565b80156138dd5760a85460405160e560020a62e373d90281526004810183905260016024820152600091600160a060020a031690631c6e7b209060440160206040518083038186803b15801561389057600080fd5b505afa1580156138a4573d6000803e3d6000fd5b505050506040513d601f19601f820116820180604052508101906138c89190614d1e565b609e549091506138d89082613562565b609e55505b50565b6000808363ffffffff161161393a5760405160e560020a62461bcd02815260206004820152600e60248201527f496e76616c696420416d6f756e740000000000000000000000000000000000006044820152606401610bb0565b60408051606081018252600180825263ffffffff861660208084019190915282840186905233600090815260658252938420805480840182559085529320825160029094020180549293849391929091839160ff19909116908360038111156139b65760e060020a634e487b7102600052602160045260246000fd5b0217905550602082810151825463ffffffff9091166101000264ffffffff0019909116178255604092830151600192830155336000908152606590915291822054613a01919061530b565b905060008051602061540b833981519152338284604051613a2493929190614e6d565b60405180910390a1949350505050565b600160a060020a038216613a9a5760405160e560020a62461bcd02815260206004820152602160248201527f45524332303a206275726e2066726f6d20746865207a65726f20616464726573604482015260f860020a6073026064820152608401610bb0565b600160a060020a03821660009081526033602052604090205481811015613b145760405160e560020a62461bcd02815260206004820152602260248201527f45524332303a206275726e20616d6f756e7420657863656564732062616c616e604482015260f060020a616365026064820152608401610bb0565b613b1e828261530b565b600160a060020a03841660009081526033602052604081209190915560358054849290613b4c90849061530b565b9091555050604051828152600090600160a060020a0385169060008051602061544b833981519152906020016133dc565b33600090815260a7602052604090205415610d925760a85460405160e060020a63bf418de102815260016004820152600091600160a060020a03169063bf418de19060240160206040518083038186803b158015613bda57600080fd5b505afa158015613bee573d6000803e3d6000fd5b505050506040513d601f19601f82011682018060405250810190613c129190614b55565b33600090815260a7602052604090209091508280613c3c57506002810154613c39336119d9565b11155b156113bf57600281015463ffffffff851690811115613c5c575060028101545b6000805b82811015613d0857600284018054613cb99190613c7e90600161362c565b81548110613c9f5760e060020a634e487b7102600052603260045260246000fd5b90600052602060002001548361356290919063ffffffff16565b915083600201805480613cdf5760e060020a634e487b7102600052603160045260246000fd5b600190038181906000526020600020016000905590558080613d0090615386565b915050613c60565b50600183015460a154845460a092600092613d319261260b9164e8d4a510009161188591613824565b60a054909150613d41908461362c565b60a0558015613dcf5760405160e060020a63a9059cbb028152600160a060020a0387169063a9059cbb90613d7b9033908590600401614e54565b602060405180830381600087803b158015613d9557600080fd5b505af1158015613da9573d6000803e3d6000fd5b505050506040513d601f19601f82011682018060405250810190613dcd9190614c14565b505b8454613ddb908461362c565b80865560a154613df69164e8d4a51000916118859190613824565b60018601555050505050505050565b60008080613e2164fb750430006118858664e8d4a51000613824565b90506000613e3d64e8d4a5100061188584640df8475800613824565b609d54909150600090600160a060020a0316639f4ae6b0613e5c613f0a565b609954609b5463ffffffff90811690613e79908990899061362c16565b60405163ffffffff86811660e060020a0282529485166004820152602481019390935292166044820152606481019190915260840160206040518083038186803b158015613ec657600080fd5b505afa158015613eda573d6000803e3d6000fd5b505050506040513d601f19601f82011682018060405250810190613efe9190614dab565b94509092505050915091565b609b54600090611a9f9063ffffffff606060020a8204811691610df191604060020a909104168160355490565b6000806000806000613f47611a5e565b63ffffffff1611613f9d5760405160e560020a62461bcd02815260206004820152601e60248201527f536f7272792c207468697320746f6b656e20697320736f6c64206f75742e00006044820152606401610bb0565b60008511613ff05760405160e560020a62461bcd02815260206004820152601960248201527f4465706f736974206d757374206265206e6f6e2d7a65726f2e000000000000006044820152606401610bb0565b600080613ffd6001611ca0565b915091508682111561401e5760008760008095509550955095505050614095565b6140293360016147a5565b61403f614036838361362c565b60995490613562565b60995560408051600181526020810184905233917f5b55159a377d86da80a65140d62d994ddbb2cbd4bb2d1b59cb0827fecbe47cab910160405180910390a2600161408a888461362c565b909650945090925090505b9193509193565b33600090815260a76020526040902080546140b79083613562565b8155600281018054600181018255600091825260209091200182905560a15481546140ec9164e8d4a510009161188591613824565b60019091015550565b60008060008363ffffffff16116141215760405160e560020a62461bcd028152600401610bb0906151c5565b8263ffffffff16614131336119d9565b10156141825760405160e560020a62461bcd02815260206004820152601c60248201527f496e73756666696369656e7420746f6b656e7320746f2073656c6c2e000000006044820152606401610bb0565b60008061418e85613575565b60995491935091506141a0908361362c565b6099556141b33363ffffffff8716613a34565b6040805163ffffffff871681526020810184905233917f84c8d08e5480cf09cbf77bc575dc4e63845522693c34094f04129a4dedb7abd7910160405180910390a26141fe828261362c565b9350915050915091565b600160a060020a038216600090815260656020526040812080546142489190849081106134295760e060020a634e487b7102600052603260045260246000fd5b156142685760405160e560020a62461bcd028152600401610bb090614fe9565b600160a060020a0383166000908152606560205260409020805460029190849081106142a75760e060020a634e487b7102600052603260045260246000fd5b60009182526020909120600290910201805460ff191660018360038111156142e25760e060020a634e487b7102600052602160045260246000fd5b021790555060008051602061540b83398151915283836065600087600160a060020a0316600160a060020a03168152602001908152602001600020858154811061433f5760e060020a634e487b7102600052603260045260246000fd5b906000526020600020906002020160405161435c93929190614e91565b60405180910390a1600160a060020a038316600090815260656020526040902080548390811061439f5760e060020a634e487b7102600052603260045260246000fd5b906000526020600020906002020160010154905092915050565b60a85460405160e060020a63bf418de102815260016004820152600091600160a060020a03169063bf418de19060240160206040518083038186803b15801561440157600080fd5b505afa158015614415573d6000803e3d6000fd5b505050506040513d601f19601f820116820180604052508101906144399190614b55565b9050600081600160a060020a031663a9059cbb85856040518363ffffffff1660e060020a02815260040161446e929190614e54565b602060405180830381600087803b15801561448857600080fd5b505af115801561449c573d6000803e3d6000fd5b505050506040513d601f19601f820116820180604052508101906144c09190614c14565b9050806113bf5760405160e560020a62461bcd02815260206004820152601360248201527f726566756e6420746f6b656e206661696c6564000000000000000000000000006044820152606401610bb0565b600054610100900460ff168061452b575060005460ff16155b61454a5760405160e560020a62461bcd028152600401610bb0906150c5565b600054610100900460ff1615801561456c576000805461ffff19166101011790555b614574614875565b61457c6148e2565b80156138dd576000805461ff001916905550565b600054610100900460ff16806145a9575060005460ff16155b6145c85760405160e560020a62461bcd028152600401610bb0906150c5565b600054610100900460ff161580156145ea576000805461ffff19166101011790555b6145f2614875565b6145fc8383614981565b80156113c1576000805461ff0019169055505050565b600054610100900460ff168061462b575060005460ff16155b61464a5760405160e560020a62461bcd028152600401610bb0906150c5565b600054610100900460ff1615801561466c576000805461ffff19166101011790555b60008463ffffffff16116146c55760405160e560020a62461bcd02815260206004820152601860248201527f496e76616c6964206d617820746f6b656e20636f756e742e00000000000000006044820152606401610bb0565b60008563ffffffff161161471e5760405160e560020a62461bcd02815260206004820152601560248201527f496e76616c6964207265736572766520726174696f00000000000000000000006044820152606401610bb0565b609d8054600160a060020a038816600160a060020a03199091161790556099829055609a829055609b805463ffffffff8681166401000000000267ffffffffffffffff19828816606060020a02166fffffffff00000000ffffffffffffffff1990931692909217908816171790558015612035576000805461ff0019169055505050505050565b600160a060020a0382166147fe5760405160e560020a62461bcd02815260206004820152601f60248201527f45524332303a206d696e7420746f20746865207a65726f2061646472657373006044820152606401610bb0565b80603560008282546148109190615289565b9091555050600160a060020a0382166000908152603360205260408120805483929061483d908490615289565b9091555050604051818152600160a060020a0383169060009060008051602061544b8339815191529060200160405180910390a35050565b600054610100900460ff168061488e575060005460ff16155b6148ad5760405160e560020a62461bcd028152600401610bb0906150c5565b600054610100900460ff1615801561457c576000805461ffff191661010117905580156138dd576000805461ff001916905550565b600054610100900460ff16806148fb575060005460ff16155b61491a5760405160e560020a62461bcd028152600401610bb0906150c5565b600054610100900460ff1615801561493c576000805461ffff19166101011790555b60668054600160a060020a03191633908117909155604051819060009060008051602061542b833981519152908290a35080156138dd576000805461ff001916905550565b600054610100900460ff168061499a575060005460ff16155b6149b95760405160e560020a62461bcd028152600401610bb0906150c5565b600054610100900460ff161580156149db576000805461ffff19166101011790555b82516149ee906036906020860190614a19565b508151614a02906037906020850190614a19565b5080156113c1576000805461ff0019169055505050565b828054614a2590615347565b90600052602060002090601f016020900481019282614a475760008555614a8d565b82601f10614a6057805160ff1916838001178555614a8d565b82800160010185558215614a8d579182015b82811115614a8d578251825591602001919060010190614a72565b50614a99929150614a9d565b5090565b5b80821115614a995760008155600101614a9e565b600082601f830112614ac2578081fd5b813567ffffffffffffffff80821115614add57614add6153bb565b604051601f8301601f19908116603f01168101908282118183101715614b0557614b056153bb565b81604052838152866020858801011115614b1d578485fd5b8360208701602083013792830160200193909352509392505050565b600060208284031215614b4a578081fd5b813561356e816153d5565b600060208284031215614b66578081fd5b815161356e816153d5565b60008060408385031215614b83578081fd5b8235614b8e816153d5565b91506020830135614b9e816153d5565b809150509250929050565b600080600060608486031215614bbd578081fd5b8335614bc8816153d5565b92506020840135614bd8816153d5565b929592945050506040919091013590565b60008060408385031215614bfb578182fd5b8235614c06816153d5565b946020939093013593505050565b600060208284031215614c25578081fd5b815161356e816153ea565b600060208284031215614c41578081fd5b81356004811061356e578182fd5b600080600080600080600060e0888a031215614c69578283fd5b873567ffffffffffffffff80821115614c80578485fd5b614c8c8b838c01614ab2565b985060208a0135915080821115614ca1578485fd5b50614cae8a828b01614ab2565b9650506040880135614cbf816153d5565b94506060880135614ccf816153f8565b93506080880135614cdf816153f8565b925060a0880135614cef816153f8565b8092505060c0880135905092959891949750929550565b600060208284031215614d17578081fd5b5035919050565b600060208284031215614d2f578081fd5b5051919050565b60008060408385031215614d48578182fd5b50508035926020909101359150565b600080600060608486031215614d6b578283fd5b83359250602084013591506040840135614d84816153d5565b809150509250925092565b600060208284031215614da0578081fd5b813561356e816153f8565b600060208284031215614dbc578081fd5b815161356e816153f8565b60008060408385031215614dd9578182fd5b8235614de4816153f8565b91506020830135614b9e816153ea565b60048110614e165760e060020a634e487b710260009081526021600452602490fd5b9052565b614e25828251614df4565b60208181015163ffffffff1690830152604090810151910152565b600160a060020a0391909116815260200190565b600160a060020a03929092168252602082015260400190565b600160a060020a03841681526020810183905260a08101610f1b6040830184614e1a565b600160a060020a038416815260208101839052815460a0820190614ebb6040840160ff8316614df4565b63ffffffff61010082041660608401525060018301546080830152949350505050565b6020808252825182820181905260009190848201906040850190845b81811015614f2057614f0d838551614e1a565b9284019260609290920191600101614efa565b50909695505050505050565b60208101610d098284614df4565b60608101614f488286614df4565b63ffffffff93909316602082015260400152919050565b6000602080835283518082850152825b81811015614f8b57858101830151858201604001528201614f6f565b81811115614f9c5783604083870101525b50601f01601f1916929092016040019392505050565b6020808252600d908201527f496e76616c696420627579657200000000000000000000000000000000000000604082015260600190565b60208082526011908201527f616c726561647920636f6d706c65746564000000000000000000000000000000604082015260600190565b6020808252600b908201527f6e6f7420737570706f7274000000000000000000000000000000000000000000604082015260600190565b6020808252600e908201527f696e76616c696420616d6f756e74000000000000000000000000000000000000604082015260600190565b6020808252600f908201527f696e76616c696420616464726573730000000000000000000000000000000000604082015260600190565b6020808252602e908201527f496e697469616c697a61626c653a20636f6e747261637420697320616c72656160408201527f647920696e697469616c697a6564000000000000000000000000000000000000606082015260800190565b60208082526011908201527f7065726d697373696f6e2064656e696564000000000000000000000000000000604082015260600190565b6020808252818101527f4f776e61626c653a2063616c6c6572206973206e6f7420746865206f776e6572604082015260600190565b60208082526013908201527f756e61626c6520746f207472616465206e6f7700000000000000000000000000604082015260600190565b60208082526018908201527f416d6f756e74206d757374206265206e6f6e2d7a65726f2e0000000000000000604082015260600190565b6000602080835260808301845182850152818501516040850152604085015160608086015281815180845260a08701915084830193508592505b808310156152565783518252928401926001929092019190840190615236565b509695505050505050565b63ffffffff948516815260208101939093529083166040830152909116606082015260800190565b6000821982111561529c5761529c6153a1565b500190565b600063ffffffff8083168185168083038211156152c0576152c06153a1565b01949350505050565b6000826152e75760e060020a634e487b710281526012600452602481fd5b500490565b6000816000190483118215151615615306576153066153a1565b500290565b60008282101561531d5761531d6153a1565b500390565b600063ffffffff8381169083168181101561533f5761533f6153a1565b039392505050565b60028104600182168061535b57607f821691505b602082108114156153805760e060020a634e487b710260009081526022600452602490fd5b50919050565b600060001982141561539a5761539a6153a1565b5060010190565b60e060020a634e487b710260009081526011600452602490fd5b60e060020a634e487b710260009081526041600452602490fd5b600160a060020a03811681146138dd57600080fd5b80151581146138dd57600080fd5b63ffffffff811681146138dd57600080fdfe09c64bee251b684a6bb80ce179dd520c001481b7c3d7781f1502e3052af474cf8be0079c531659141344cd1fd0a4f28419497f9722a3daafe3b4186f6b6457e0ddf252ad1be2c89b69c2b068fc378daa952ba7f163c4a11628f55a4df523b3efa2646970667358221220dbde2d03758197764339f173bc1db7008b6846230abcd31a549e8c50c97015a164736f6c63430008030033",
  "immutableReferences": {},
  "source": "pragma solidity ^0.8.3;\n\nimport \"@openzeppelin/contracts/token/ERC20/IERC20.sol\";\nimport \"@openzeppelin/contracts-upgradeable/utils/math/SafeMathUpgradeable.sol\";\nimport \"./ProductToken.sol\";\nimport \"./interface/IVNFT.sol\";\nimport \"./interface/ITokenUtils.sol\";\n\n/// @title ProductTokenV1\n/// @notice This is version 1 of the product token implementation.\n/// @dev This contract builds on top of version 0 by including transaction logics, such as buy and sell transfers\n///    and exchange rate computation by including a price oracle.\ncontract ProductTokenV1 is ProductToken {\n\tusing SafeMathUpgradeable for uint256;\n\n    event Update(address daiAddress, address chainlinkAddress);\n    event UpdateHsToken(address daiAddress, address chainlinkAddress);\n\n    struct supplierInfo {\n        uint256 amount;\n        address wallet;\n    }\n    struct UserInfo {\n        uint256 amount;\n        uint256 rewardDebt;\n        uint256[] records;\n    }\n    struct PoolInfo {\n        uint256 amount; // record the entire pool vaule\n        uint256 accRewardPerShare; // Accumulated reward per share\n        uint256 tokenReward; //total reward\n    }\n    struct voucherInfo {\n        address addr;\n        IVNFT instance;\n        uint256 tokenId;\n        bool isEnable;\n    }\n\n    uint256 constant public  INDEX_ETH  = 0;\n    uint256 constant public  INDEX_HIGH = 1;\n    uint256 constant public  INDEX_DAI  = 2;\n\n    supplierInfo public supplier;\n    PoolInfo public poolInfo;\n    voucherInfo public voucher;\n    mapping (address => UserInfo) public userInfo;\n    ITokenUtils private _tokenUtils;\n\n    function setupTokenUtils(address addr_) external virtual onlyOwner {\n        require(addr_ != address(0));\n        _tokenUtils = ITokenUtils(addr_);\n    }\n\n    function buyETH() external virtual payable onlyIfTradable {\n        require(_tokenUtils.isSupportIds(INDEX_ETH), 'not support');\n        require(msg.value > 0, \"invalid value\");\n\n        uint256 accValue = _tokenUtils.toAccValue(msg.value, INDEX_ETH);\n\n        (uint256 amount,uint256 change,,uint256 fee) = _buy(accValue);\n\n        if (amount > 0) {\n            if(change > 0) {\n                change = _tokenUtils.toOrigValue(change, INDEX_ETH);\n                payable(msg.sender).transfer(change);\n            }\n            _updateSupplierFee(fee.mul(1e12).div(8e12));\n            fee = _tokenUtils.toOrigValue(fee, INDEX_HIGH);\n            poolInfo.tokenReward = poolInfo.tokenReward.add(fee.mul(6e12).div(8e12));\n        }else {\n            payable(msg.sender).transfer(msg.value);\n        }\n    }\n\n    function buyERC20(uint256 ids_, uint256 maxPrice_) external virtual onlyIfTradable {\n        require(_tokenUtils.isSupportIds(ids_), 'not support');\n        require(maxPrice_ > 0, \"invalid max price\");\n\n        IERC20 instance =  IERC20(_tokenUtils.getAddressByIds(ids_));\n        bool success = instance.transferFrom(msg.sender, address(this), maxPrice_);\n        require(success, \"Purchase failed.\");\n\n        uint256 accValue = _tokenUtils.toAccValue(maxPrice_, ids_);\n\n        (uint256 amount,uint256 change, uint price, uint256 fee)  = _buy(accValue);\n        if (amount > 0) {\n            if(change > 0) {\n                change = _tokenUtils.toOrigValue(change, ids_);\n                instance.transfer(msg.sender, change);\n            }\n            _updateSupplierFee(fee.mul(1e12).div(8e12));\n            fee = _tokenUtils.toOrigValue(fee, INDEX_HIGH);\n            poolInfo.tokenReward = poolInfo.tokenReward.add(fee.mul(6e12).div(8e12));\n            if(ids_ == INDEX_HIGH) {\n                price = _tokenUtils.toOrigValue(price, INDEX_HIGH);\n                UserInfo storage user = userInfo[msg.sender];\n                PoolInfo storage pool = poolInfo;\n                uint256 pending = user.amount.mul(pool.accRewardPerShare).div(1e12).sub(user.rewardDebt);\n                if(pending > 0) {\n                    instance.transfer(msg.sender, pending);\n                }\n                poolInfo.amount = poolInfo.amount.add(price);\n                updatePool();\n                _updateUserInfo(price);\n            }\n        }else { // If token transaction failed\n            instance.transfer(msg.sender, maxPrice_);\n        }\n    }\n\n    function sell(uint32 amount_, bool isHarvest_) external virtual onlyIfTradable {\n        require(_tokenUtils.isSupportIds(INDEX_HIGH), 'not support');\n        require(balanceOf(msg.sender) >= amount_ || amount_ > 0, 'invalid amount');\n\n        address highAddress = _tokenUtils.getAddressByIds(INDEX_HIGH);\n\n        (uint256 price, uint256 fee )= _sellForAmount(amount_);\n\n        _updateSellStaking(amount_, isHarvest_);\n\n        uint256 accValue = _tokenUtils.toOrigValue(price, INDEX_HIGH);\n        bool success = IERC20(highAddress).transfer(msg.sender, accValue);\n        _updateSupplierFee(fee.mul(1e12).div(2e12));\n        require(success, \"selling token failed\");\n    }\n\n    /**\n    * @dev When user wants to trade in their token for retail product\n    *\n    * @param amount_                   amount of tokens that user wants to trade in.\n    */\n    function tradein(uint32 amount_, bool isHarvest_) external virtual onlyIfTradable {\n        require(_tokenUtils.isSupportIds(INDEX_HIGH), 'not support');\n        require(amount_ > 0, \"Amount must be non-zero.\");\n        require(balanceOf(msg.sender) >= amount_, \"Insufficient tokens to burn.\");\n\n        (uint256 reimburseAmount, uint fee) = _sellReturn(amount_);\n\n        uint256 tradinReturn = calculateTradinReturn(amount_);\n        _updateSupplierFee(fee.mul(1e13).div(2e13).add(tradinReturn));\n        reimburseAmount = reimburseAmount.sub(fee);\n        _addEscrow(amount_,  _tokenUtils.toOrigValue(reimburseAmount, INDEX_HIGH));\n        _burn(msg.sender, amount_);\n        tradeinCount = tradeinCount + amount_;\n        tradeinReserveBalance = tradeinReserveBalance.add(tradinReturn);\n\n        _updateSellStaking(amount_, isHarvest_);\n\n        emit Tradein(msg.sender, amount_);\n    }\n\n    function updatePool() public virtual{\n        uint256 supply = poolInfo.amount;\n        if (supply == 0) {\n            poolInfo.accRewardPerShare = 0;\n            return;\n        }\n        poolInfo.accRewardPerShare = poolInfo.accRewardPerShare.add(poolInfo.tokenReward.mul(1e12).div(supply));\n    }\n\n    function _updateSellStaking(uint32 amount_, bool isHarvest_) internal virtual {\n        if(userInfo[msg.sender].amount > 0) {\n            address highAddress = _tokenUtils.getAddressByIds(INDEX_HIGH);\n            UserInfo storage user = userInfo[msg.sender];\n            if(isHarvest_ || balanceOf(msg.sender) <= user.records.length) {\n                uint max = uint256(amount_);\n                if(max > user.records.length) {\n                    max = user.records.length;\n                }\n                uint256 value = 0;\n                for(uint i = 0; i < max; i++) {\n                    value = value.add(user.records[user.records.length.sub(1)]);\n                    user.records.pop();\n                }\n                PoolInfo storage pool = poolInfo;\n                uint256 pending = user.amount.mul(pool.accRewardPerShare).div(1e12).sub(user.rewardDebt);\n\n                poolInfo.amount = poolInfo.amount.sub(value);\n                if(pending > 0) {\n                    IERC20(highAddress).transfer(msg.sender, pending);\n\n                }\n                user.amount = user.amount.sub(value);\n                user.rewardDebt = user.amount.mul(poolInfo.accRewardPerShare).div(1e12);\n            }\n        }\n    }\n\n    function _updateUserInfo(uint256 price_ ) internal virtual {\n        UserInfo storage user = userInfo[msg.sender];\n        user.amount = user.amount.add(price_);\n        user.records.push(price_);\n        user.rewardDebt = user.amount.mul(poolInfo.accRewardPerShare).div(1e12);\n    }\n\n    function getCurrentPriceByIds(uint256 ids_) external view virtual returns (uint256) {\n        require(_tokenUtils.isSupportIds(ids_), 'not support');\n        return _tokenUtils.toOrigValue(getCurrentPrice(), ids_);\n    }\n\n    function updateSupplierInfo( address wallet_) external onlyOwner {\n        require(wallet_!=address(0), \"Address is invalid\");\n        supplier.wallet = wallet_;\n    }\n\n    function claimSupplier(uint256 amount_) external virtual {\n        require(supplier.wallet!=address(0), \"wallet is invalid\");\n        require(msg.sender == supplier.wallet, \"The address is not allowed\");\n        address highAddress = _tokenUtils.getAddressByIds(INDEX_HIGH);\n        IERC20 high = IERC20(highAddress);\n        if (amount_ <= supplier.amount){\n            bool success = high.transfer(msg.sender, amount_);\n            if (success) {\n                supplier.amount = supplier.amount.sub(amount_);\n            }\n        }\n    }\n\n    function _updateSupplierFee(uint256 fee) internal virtual {\n        if( fee > 0 ) {\n            uint256 charge = _tokenUtils.toOrigValue(fee, INDEX_HIGH);\n            supplier.amount = supplier.amount.add(charge);\n        }\n    }\n\n    /**\n    * @dev this function returns the amount of reserve balance that the supplier can withdraw from the dapp.\n    */\n    function getSupplierBalance() public view virtual returns (uint256) {\n        return supplier.amount;\n    }\n\n    /**\n    * @dev A method that refunds the value of a product to a buyer/customer.\n    *\n    * @param buyer_       The wallet address of the owner whose product token is under the redemption process\n    * @param value_       The market value of the token being redeemed\n    *\n    */\n    function _refund(address buyer_, uint256 value_) internal virtual override {\n        address highAddress = _tokenUtils.getAddressByIds(INDEX_HIGH);\n\n        bool success = IERC20(highAddress).transfer(buyer_, value_);\n        require(success, \"refund token failed\");\n    }\n\n    /**\n    * @dev A method allow us to withdraw liquidity (eth) from the contract\n    * Since eth is not used as a return currency, we need to withdraw eth from the system.\n    *\n    * @param value_       the value of ether\n    *\n    */\n    function withdrawEther(uint256 value_) payable external virtual onlyOwner {\n        require(address(this).balance > 0, \"no enough ether\");\n        payable(msg.sender).transfer(value_);\n    }\n\n    function withdrawERC20(uint256 ids_, uint256 amount_, address to_) external virtual onlyOwner{\n        require(_tokenUtils.isValidIds(ids_), 'not invalid id');\n        require(to_ != address(0), \"invalid address\");\n        address highAddress = _tokenUtils.getAddressByIds(ids_);\n        IERC20 instance = IERC20(highAddress);\n        require(amount_ <= instance.balanceOf(address(this)), 'invalid amount');\n        instance.transfer(to_, amount_);\n    }\n\n    function getUserReward(address addr_) external virtual returns (uint256) {\n        if(userInfo[addr_].amount > 0) {\n            UserInfo storage user = userInfo[msg.sender];\n            PoolInfo storage pool = poolInfo;\n            return user.amount.mul(pool.accRewardPerShare).div(1e12).sub(user.rewardDebt);\n        }\n        return 0;\n    }\n\n    function getUserInfo(address addr_) external view virtual returns( UserInfo memory) {\n        require(addr_ != address(0), 'invalid address');\n        return userInfo[addr_];\n    }\n\n    function getPoolInfo() external view virtual returns( PoolInfo memory) {\n        return poolInfo;\n    }\n\n    function getSupplierInfo() external view virtual returns( supplierInfo memory) {\n        return supplier;\n    }\n}\n",
  "sourcePath": "/Users/jack/Documents/GitHub/HighStreet/client/src/contracts/ProductTokenV1.sol",
  "compiler": {
    "name": "solc",
    "version": "0.8.3+commit.8d00100c.Emscripten.clang"
  },
  "schemaVersion": "3.4.0",
  "updatedAt": "2021-09-16T14:56:36.332Z",
  "devdoc": {
    "details": "This contract builds on top of version 0 by including transaction logics, such as buy and sell transfers    and exchange rate computation by including a price oracle.",
    "kind": "dev",
    "methods": {
      "allowance(address,address)": {
        "details": "See {IERC20-allowance}."
      },
      "approve(address,uint256)": {
        "details": "See {IERC20-approve}. Requirements: - `spender` cannot be the zero address."
      },
      "balanceOf(address)": {
        "details": "See {IERC20-balanceOf}."
      },
      "calculateBuyReturn(uint256)": {
        "details": "Function that computes number of product tokens one can buy given an amount in reserve token.",
        "params": {
          "_amountReserve": "purchaing amount in reserve token (dai)(with 4% platform fee)"
        },
        "returns": {
          "mintAmount": "             number of tokens in traded token that can be purchased by given amount."
        }
      },
      "calculateSellReturn(uint32)": {
        "details": "Function that computes selling price in reserve tokens given an amount in traded token.",
        "params": {
          "_amountProduct": "selling amount in product token"
        },
        "returns": {
          "soldAmount": "             total amount that will be transferred to the seller (with 2% platform fee)."
        }
      },
      "decimals()": {
        "details": "Returns the number of decimals used to get its user representation. For example, if `decimals` equals `2`, a balance of `505` tokens should be displayed to a user as `5,05` (`505 / 10 ** 2`). Tokens usually opt for a value of 18, imitating the relationship between Ether and Wei. This is the value {ERC20} uses, unless this function is overloaded; NOTE: This information is only used for _display_ purposes: it in no way affects any of the arithmetic of the contract, including {IERC20-balanceOf} and {IERC20-transfer}."
      },
      "decreaseAllowance(address,uint256)": {
        "details": "Atomically decreases the allowance granted to `spender` by the caller. This is an alternative to {approve} that can be used as a mitigation for problems described in {IERC20-approve}. Emits an {Approval} event indicating the updated allowance. Requirements: - `spender` cannot be the zero address. - `spender` must have allowance for the caller of at least `subtractedValue`."
      },
      "getAvailability()": {
        "details": "Function to check how many tokens of this product are currently available for purchase, by taking the difference between max cap count and current token in circulation or burned.",
        "returns": {
          "available": "               the number of tokens available"
        }
      },
      "getCurrentPrice()": {
        "details": "Function that computes current price for a token through bonding curve calculation based on parameters such as total supply, reserve balance, and reserve ratio.",
        "returns": {
          "price": "                  current price in reserve token (in our case, this is dai). (with 4% platform fee)"
        }
      },
      "getEscrowHistory(address)": {
        "details": "Return the list of all escrows created for a certain user",
        "params": {
          "_buyer": "The address of the buyer"
        },
        "returns": {
          "_0": "A list of past escrows"
        }
      },
      "getPriceForN(uint32)": {
        "details": "Function that computes price total for buying n token through bonding curve calculation based on parameters such as total supply, reserve balance, and reserve ratio.",
        "params": {
          "_amountProduct": "token amount in traded token"
        },
        "returns": {
          "price": "                  total price in reserve token (in our case, this is dai). (with 4% platform fee)"
        }
      },
      "getRedeemStatus(address,uint256)": {
        "details": "Get status of a particular redemption process",
        "params": {
          "_buyer": "The address of the buyer",
          "_id": "The cached id of the escrow, retrieved from database"
        },
        "returns": {
          "_0": "The current status"
        }
      },
      "getSupplierBalance()": {
        "details": "this function returns the amount of reserve balance that the supplier can withdraw from the dapp."
      },
      "increaseAllowance(address,uint256)": {
        "details": "Atomically increases the allowance granted to `spender` by the caller. This is an alternative to {approve} that can be used as a mitigation for problems described in {IERC20-approve}. Emits an {Approval} event indicating the updated allowance. Requirements: - `spender` cannot be the zero address."
      },
      "initialize(string,string,address,uint32,uint32,uint32,uint256)": {
        "details": "initializer function.",
        "params": {
          "_baseReserve": "the base amount of reserve tokens, in accordance to _supplyOffset.",
          "_maxTokenCount": "the amount of token that will exist for this type.",
          "_name": "the name of this token",
          "_reserveRatio": "the reserve ratio in the curve function. Number in parts per million",
          "_supplyOffset": "this amount is used to determine initial price.",
          "_symbol": "the symbol of this token"
        }
      },
      "isStateCompleted(uint8)": {
        "details": "Helper function to check whether a escrow state is completed",
        "params": {
          "_state": "The state to be checked"
        }
      },
      "launch()": {
        "details": "requires function to be called from owner. this enables customers to buy, sell, or redeem the product."
      },
      "name()": {
        "details": "Returns the name of the token."
      },
      "owner()": {
        "details": "Returns the address of the current owner."
      },
      "pause()": {
        "details": "requires function to be called from owner. this prevents customers from buying, selling, or redeeming the product."
      },
      "renounceOwnership()": {
        "details": "Leaves the contract without owner. It will not be possible to call `onlyOwner` functions anymore. Can only be called by the current owner. NOTE: Renouncing ownership will leave the contract without an owner, thereby removing any functionality that is only available to the owner."
      },
      "setBondingCurve(address)": {
        "details": "requires function to be called from owner. sets a bonding curve implementation for this product.",
        "params": {
          "_address": "the address of the bonding curve implementation"
        }
      },
      "symbol()": {
        "details": "Returns the symbol of the token, usually a shorter version of the name."
      },
      "totalSupply()": {
        "details": "See {IERC20-totalSupply}."
      },
      "tradein(uint32,bool)": {
        "details": "When user wants to trade in their token for retail product",
        "params": {
          "amount_": "amount of tokens that user wants to trade in."
        }
      },
      "transfer(address,uint256)": {
        "details": "See {IERC20-transfer}. Requirements: - `recipient` cannot be the zero address. - the caller must have a balance of at least `amount`."
      },
      "transferFrom(address,address,uint256)": {
        "details": "See {IERC20-transferFrom}. Emits an {Approval} event indicating the updated allowance. This is not required by the EIP. See the note at the beginning of {ERC20}. Requirements: - `sender` and `recipient` cannot be the zero address. - `sender` must have a balance of at least `amount`. - the caller must have allowance for ``sender``'s tokens of at least `amount`."
      },
      "transferOwnership(address)": {
        "details": "Transfers ownership of the contract to a new account (`newOwner`). Can only be called by the current owner."
      },
      "updateUserCompleted(address,uint256)": {
        "details": "used to update the status of redemption to \"User Complete\" after an escrow process has been started.",
        "params": {
          "buyer": "the wallet address of product buyer",
          "id": "the id of the escrow, returned to the user after starting of redemption process"
        }
      },
      "updateUserRefund(address,uint256)": {
        "details": "used to update the status of redemption to \"User Refunded\" after an escrow process has been started.",
        "params": {
          "buyer": "the wallet address of product buyer",
          "id": "the id of the escrow, returned to the user after starting of redemption process"
        }
      },
      "withdrawEther(uint256)": {
        "details": "A method allow us to withdraw liquidity (eth) from the contract Since eth is not used as a return currency, we need to withdraw eth from the system.",
        "params": {
          "value_": "the value of ether"
        }
      }
    },
    "title": "ProductTokenV1",
    "version": 1
  },
  "userdoc": {
    "kind": "user",
    "methods": {},
    "notice": "This is version 1 of the product token implementation.",
    "version": 1
  }
}