{
  "contractName": "ProductTokenV1",
  "abi": [
    {
      "anonymous": false,
      "inputs": [
        {
          "indexed": true,
          "internalType": "address",
          "name": "owner",
          "type": "address"
        },
        {
          "indexed": true,
          "internalType": "address",
          "name": "spender",
          "type": "address"
        },
        {
          "indexed": false,
          "internalType": "uint256",
          "name": "value",
          "type": "uint256"
        }
      ],
      "name": "Approval",
      "type": "event"
    },
    {
      "anonymous": false,
      "inputs": [
        {
          "indexed": true,
          "internalType": "address",
          "name": "sender",
          "type": "address"
        },
        {
          "indexed": false,
          "internalType": "uint32",
          "name": "amount",
          "type": "uint32"
        },
        {
          "indexed": false,
          "internalType": "uint256",
          "name": "deposit",
          "type": "uint256"
        }
      ],
      "name": "Buy",
      "type": "event"
    },
    {
      "anonymous": false,
      "inputs": [
        {
          "indexed": true,
          "internalType": "address",
          "name": "previousOwner",
          "type": "address"
        },
        {
          "indexed": true,
          "internalType": "address",
          "name": "newOwner",
          "type": "address"
        }
      ],
      "name": "OwnershipTransferred",
      "type": "event"
    },
    {
      "anonymous": false,
      "inputs": [
        {
          "indexed": true,
          "internalType": "address",
          "name": "sender",
          "type": "address"
        },
        {
          "indexed": false,
          "internalType": "uint32",
          "name": "amount",
          "type": "uint32"
        },
        {
          "indexed": false,
          "internalType": "uint256",
          "name": "refund",
          "type": "uint256"
        }
      ],
      "name": "Sell",
      "type": "event"
    },
    {
      "anonymous": false,
      "inputs": [
        {
          "indexed": false,
          "internalType": "bool",
          "name": "isTradable",
          "type": "bool"
        }
      ],
      "name": "Tradable",
      "type": "event"
    },
    {
      "anonymous": false,
      "inputs": [
        {
          "indexed": true,
          "internalType": "address",
          "name": "sender",
          "type": "address"
        },
        {
          "indexed": false,
          "internalType": "uint32",
          "name": "amount",
          "type": "uint32"
        }
      ],
      "name": "Tradein",
      "type": "event"
    },
    {
      "anonymous": false,
      "inputs": [
        {
          "indexed": true,
          "internalType": "address",
          "name": "from",
          "type": "address"
        },
        {
          "indexed": true,
          "internalType": "address",
          "name": "to",
          "type": "address"
        },
        {
          "indexed": false,
          "internalType": "uint256",
          "name": "value",
          "type": "uint256"
        }
      ],
      "name": "Transfer",
      "type": "event"
    },
    {
      "anonymous": false,
      "inputs": [
        {
          "indexed": false,
          "internalType": "address",
          "name": "daiAddress",
          "type": "address"
        },
        {
          "indexed": false,
          "internalType": "address",
          "name": "chainlinkAddress",
          "type": "address"
        }
      ],
      "name": "Update",
      "type": "event"
    },
    {
      "anonymous": false,
      "inputs": [
        {
          "indexed": false,
          "internalType": "address",
          "name": "daiAddress",
          "type": "address"
        },
        {
          "indexed": false,
          "internalType": "address",
          "name": "chainlinkAddress",
          "type": "address"
        }
      ],
      "name": "UpdateHsToken",
      "type": "event"
    },
    {
      "anonymous": false,
      "inputs": [
        {
          "indexed": false,
          "internalType": "address",
          "name": "",
          "type": "address"
        },
        {
          "indexed": false,
          "internalType": "uint256",
          "name": "",
          "type": "uint256"
        },
        {
          "components": [
            {
              "internalType": "enum Escrow.escrowState",
              "name": "state",
              "type": "uint8"
            },
            {
              "internalType": "uint32",
              "name": "amount",
              "type": "uint32"
            },
            {
              "internalType": "uint256",
              "name": "value",
              "type": "uint256"
            }
          ],
          "indexed": false,
          "internalType": "struct Escrow.escrowInfo",
          "name": "",
          "type": "tuple"
        }
      ],
      "name": "escrowStateUpdated",
      "type": "event"
    },
    {
      "stateMutability": "nonpayable",
      "type": "fallback"
    },
    {
      "inputs": [],
      "name": "INDEX_DAI",
      "outputs": [
        {
          "internalType": "uint256",
          "name": "",
          "type": "uint256"
        }
      ],
      "stateMutability": "view",
      "type": "function"
    },
    {
      "inputs": [],
      "name": "INDEX_ETH",
      "outputs": [
        {
          "internalType": "uint256",
          "name": "",
          "type": "uint256"
        }
      ],
      "stateMutability": "view",
      "type": "function"
    },
    {
      "inputs": [],
      "name": "INDEX_HIGH",
      "outputs": [
        {
          "internalType": "uint256",
          "name": "",
          "type": "uint256"
        }
      ],
      "stateMutability": "view",
      "type": "function"
    },
    {
      "inputs": [
        {
          "internalType": "uint32",
          "name": "_amountProduct",
          "type": "uint32"
        }
      ],
      "name": "_getPriceForN",
      "outputs": [
        {
          "internalType": "uint256",
          "name": "price",
          "type": "uint256"
        },
        {
          "internalType": "uint256",
          "name": "fee",
          "type": "uint256"
        }
      ],
      "stateMutability": "view",
      "type": "function"
    },
    {
      "inputs": [
        {
          "internalType": "address",
          "name": "owner",
          "type": "address"
        },
        {
          "internalType": "address",
          "name": "spender",
          "type": "address"
        }
      ],
      "name": "allowance",
      "outputs": [
        {
          "internalType": "uint256",
          "name": "",
          "type": "uint256"
        }
      ],
      "stateMutability": "view",
      "type": "function"
    },
    {
      "inputs": [
        {
          "internalType": "address",
          "name": "spender",
          "type": "address"
        },
        {
          "internalType": "uint256",
          "name": "amount",
          "type": "uint256"
        }
      ],
      "name": "approve",
      "outputs": [
        {
          "internalType": "bool",
          "name": "",
          "type": "bool"
        }
      ],
      "stateMutability": "nonpayable",
      "type": "function"
    },
    {
      "inputs": [
        {
          "internalType": "address",
          "name": "account",
          "type": "address"
        }
      ],
      "name": "balanceOf",
      "outputs": [
        {
          "internalType": "uint256",
          "name": "",
          "type": "uint256"
        }
      ],
      "stateMutability": "view",
      "type": "function"
    },
    {
      "inputs": [
        {
          "internalType": "uint256",
          "name": "_amountReserve",
          "type": "uint256"
        }
      ],
      "name": "calculateBuyReturn",
      "outputs": [
        {
          "internalType": "uint32",
          "name": "mintAmount",
          "type": "uint32"
        }
      ],
      "stateMutability": "view",
      "type": "function"
    },
    {
      "inputs": [
        {
          "internalType": "uint32",
          "name": "_amountProduct",
          "type": "uint32"
        }
      ],
      "name": "calculateSellReturn",
      "outputs": [
        {
          "internalType": "uint256",
          "name": "soldAmount",
          "type": "uint256"
        }
      ],
      "stateMutability": "view",
      "type": "function"
    },
    {
      "inputs": [
        {
          "internalType": "uint32",
          "name": "_amount",
          "type": "uint32"
        }
      ],
      "name": "calculateTradinReturn",
      "outputs": [
        {
          "internalType": "uint256",
          "name": "",
          "type": "uint256"
        }
      ],
      "stateMutability": "view",
      "type": "function"
    },
    {
      "inputs": [],
      "name": "decimals",
      "outputs": [
        {
          "internalType": "uint8",
          "name": "",
          "type": "uint8"
        }
      ],
      "stateMutability": "view",
      "type": "function"
    },
    {
      "inputs": [
        {
          "internalType": "address",
          "name": "spender",
          "type": "address"
        },
        {
          "internalType": "uint256",
          "name": "subtractedValue",
          "type": "uint256"
        }
      ],
      "name": "decreaseAllowance",
      "outputs": [
        {
          "internalType": "bool",
          "name": "",
          "type": "bool"
        }
      ],
      "stateMutability": "nonpayable",
      "type": "function"
    },
    {
      "inputs": [
        {
          "internalType": "address",
          "name": "",
          "type": "address"
        },
        {
          "internalType": "uint256",
          "name": "",
          "type": "uint256"
        }
      ],
      "name": "escrowList",
      "outputs": [
        {
          "internalType": "enum Escrow.escrowState",
          "name": "state",
          "type": "uint8"
        },
        {
          "internalType": "uint32",
          "name": "amount",
          "type": "uint32"
        },
        {
          "internalType": "uint256",
          "name": "value",
          "type": "uint256"
        }
      ],
      "stateMutability": "view",
      "type": "function"
    },
    {
      "inputs": [],
      "name": "getAvailability",
      "outputs": [
        {
          "internalType": "uint32",
          "name": "available",
          "type": "uint32"
        }
      ],
      "stateMutability": "view",
      "type": "function"
    },
    {
      "inputs": [],
      "name": "getCurrentPrice",
      "outputs": [
        {
          "internalType": "uint256",
          "name": "price",
          "type": "uint256"
        }
      ],
      "stateMutability": "view",
      "type": "function"
    },
    {
      "inputs": [
        {
          "internalType": "address",
          "name": "_buyer",
          "type": "address"
        }
      ],
      "name": "getEscrowHistory",
      "outputs": [
        {
          "components": [
            {
              "internalType": "enum Escrow.escrowState",
              "name": "state",
              "type": "uint8"
            },
            {
              "internalType": "uint32",
              "name": "amount",
              "type": "uint32"
            },
            {
              "internalType": "uint256",
              "name": "value",
              "type": "uint256"
            }
          ],
          "internalType": "struct Escrow.escrowInfo[]",
          "name": "",
          "type": "tuple[]"
        }
      ],
      "stateMutability": "view",
      "type": "function"
    },
    {
      "inputs": [],
      "name": "getManager",
      "outputs": [
        {
          "internalType": "address",
          "name": "",
          "type": "address"
        }
      ],
      "stateMutability": "view",
      "type": "function"
    },
    {
      "inputs": [
        {
          "internalType": "uint32",
          "name": "_amountProduct",
          "type": "uint32"
        }
      ],
      "name": "getPriceForN",
      "outputs": [
        {
          "internalType": "uint256",
          "name": "price",
          "type": "uint256"
        }
      ],
      "stateMutability": "view",
      "type": "function"
    },
    {
      "inputs": [
        {
          "internalType": "address",
          "name": "_buyer",
          "type": "address"
        },
        {
          "internalType": "uint256",
          "name": "_id",
          "type": "uint256"
        }
      ],
      "name": "getRedeemStatus",
      "outputs": [
        {
          "internalType": "enum Escrow.escrowState",
          "name": "",
          "type": "uint8"
        }
      ],
      "stateMutability": "view",
      "type": "function"
    },
    {
      "inputs": [
        {
          "internalType": "address",
          "name": "spender",
          "type": "address"
        },
        {
          "internalType": "uint256",
          "name": "addedValue",
          "type": "uint256"
        }
      ],
      "name": "increaseAllowance",
      "outputs": [
        {
          "internalType": "bool",
          "name": "",
          "type": "bool"
        }
      ],
      "stateMutability": "nonpayable",
      "type": "function"
    },
    {
      "inputs": [
        {
          "internalType": "string",
          "name": "_name",
          "type": "string"
        },
        {
          "internalType": "string",
          "name": "_symbol",
          "type": "string"
        },
        {
          "internalType": "address",
          "name": "_bondingCurveAddress",
          "type": "address"
        },
        {
          "internalType": "uint32",
          "name": "_reserveRatio",
          "type": "uint32"
        },
        {
          "internalType": "uint32",
          "name": "_maxTokenCount",
          "type": "uint32"
        },
        {
          "internalType": "uint32",
          "name": "_supplyOffset",
          "type": "uint32"
        },
        {
          "internalType": "uint256",
          "name": "_baseReserve",
          "type": "uint256"
        }
      ],
      "name": "initialize",
      "outputs": [],
      "stateMutability": "nonpayable",
      "type": "function"
    },
    {
      "inputs": [
        {
          "internalType": "enum Escrow.escrowState",
          "name": "_state",
          "type": "uint8"
        }
      ],
      "name": "isStateCompleted",
      "outputs": [
        {
          "internalType": "bool",
          "name": "",
          "type": "bool"
        }
      ],
      "stateMutability": "pure",
      "type": "function"
    },
    {
      "inputs": [],
      "name": "launch",
      "outputs": [],
      "stateMutability": "nonpayable",
      "type": "function"
    },
    {
      "inputs": [],
      "name": "maxTokenCount",
      "outputs": [
        {
          "internalType": "uint32",
          "name": "",
          "type": "uint32"
        }
      ],
      "stateMutability": "view",
      "type": "function"
    },
    {
      "inputs": [],
      "name": "name",
      "outputs": [
        {
          "internalType": "string",
          "name": "",
          "type": "string"
        }
      ],
      "stateMutability": "view",
      "type": "function"
    },
    {
      "inputs": [],
      "name": "owner",
      "outputs": [
        {
          "internalType": "address",
          "name": "",
          "type": "address"
        }
      ],
      "stateMutability": "view",
      "type": "function"
    },
    {
      "inputs": [],
      "name": "pause",
      "outputs": [],
      "stateMutability": "nonpayable",
      "type": "function"
    },
    {
      "inputs": [],
      "name": "poolInfo",
      "outputs": [
        {
          "internalType": "uint256",
          "name": "amount",
          "type": "uint256"
        },
        {
          "internalType": "uint256",
          "name": "accRewardPerShare",
          "type": "uint256"
        },
        {
          "internalType": "uint256",
          "name": "tokenReward",
          "type": "uint256"
        }
      ],
      "stateMutability": "view",
      "type": "function"
    },
    {
      "inputs": [],
      "name": "renounceOwnership",
      "outputs": [],
      "stateMutability": "nonpayable",
      "type": "function"
    },
    {
      "inputs": [],
      "name": "reserveBalance",
      "outputs": [
        {
          "internalType": "uint256",
          "name": "",
          "type": "uint256"
        }
      ],
      "stateMutability": "view",
      "type": "function"
    },
    {
      "inputs": [],
      "name": "reserveRatio",
      "outputs": [
        {
          "internalType": "uint32",
          "name": "",
          "type": "uint32"
        }
      ],
      "stateMutability": "view",
      "type": "function"
    },
    {
      "inputs": [
        {
          "internalType": "address",
          "name": "_address",
          "type": "address"
        }
      ],
      "name": "setBondingCurve",
      "outputs": [],
      "stateMutability": "nonpayable",
      "type": "function"
    },
    {
      "inputs": [
        {
          "internalType": "address",
          "name": "addr_",
          "type": "address"
        }
      ],
      "name": "setManager",
      "outputs": [],
      "stateMutability": "nonpayable",
      "type": "function"
    },
    {
      "inputs": [],
      "name": "supplier",
      "outputs": [
        {
          "internalType": "uint256",
          "name": "amount",
          "type": "uint256"
        },
        {
          "internalType": "address",
          "name": "wallet",
          "type": "address"
        }
      ],
      "stateMutability": "view",
      "type": "function"
    },
    {
      "inputs": [],
      "name": "symbol",
      "outputs": [
        {
          "internalType": "string",
          "name": "",
          "type": "string"
        }
      ],
      "stateMutability": "view",
      "type": "function"
    },
    {
      "inputs": [],
      "name": "totalSupply",
      "outputs": [
        {
          "internalType": "uint256",
          "name": "",
          "type": "uint256"
        }
      ],
      "stateMutability": "view",
      "type": "function"
    },
    {
      "inputs": [],
      "name": "tradeinCount",
      "outputs": [
        {
          "internalType": "uint32",
          "name": "",
          "type": "uint32"
        }
      ],
      "stateMutability": "view",
      "type": "function"
    },
    {
      "inputs": [],
      "name": "tradeinReserveBalance",
      "outputs": [
        {
          "internalType": "uint256",
          "name": "",
          "type": "uint256"
        }
      ],
      "stateMutability": "view",
      "type": "function"
    },
    {
      "inputs": [
        {
          "internalType": "address",
          "name": "recipient",
          "type": "address"
        },
        {
          "internalType": "uint256",
          "name": "amount",
          "type": "uint256"
        }
      ],
      "name": "transfer",
      "outputs": [
        {
          "internalType": "bool",
          "name": "",
          "type": "bool"
        }
      ],
      "stateMutability": "nonpayable",
      "type": "function"
    },
    {
      "inputs": [
        {
          "internalType": "address",
          "name": "sender",
          "type": "address"
        },
        {
          "internalType": "address",
          "name": "recipient",
          "type": "address"
        },
        {
          "internalType": "uint256",
          "name": "amount",
          "type": "uint256"
        }
      ],
      "name": "transferFrom",
      "outputs": [
        {
          "internalType": "bool",
          "name": "",
          "type": "bool"
        }
      ],
      "stateMutability": "nonpayable",
      "type": "function"
    },
    {
      "inputs": [
        {
          "internalType": "address",
          "name": "newOwner",
          "type": "address"
        }
      ],
      "name": "transferOwnership",
      "outputs": [],
      "stateMutability": "nonpayable",
      "type": "function"
    },
    {
      "inputs": [
        {
          "internalType": "address",
          "name": "buyer",
          "type": "address"
        },
        {
          "internalType": "uint256",
          "name": "id",
          "type": "uint256"
        }
      ],
      "name": "updateUserCompleted",
      "outputs": [],
      "stateMutability": "nonpayable",
      "type": "function"
    },
    {
      "inputs": [
        {
          "internalType": "address",
          "name": "buyer",
          "type": "address"
        },
        {
          "internalType": "uint256",
          "name": "id",
          "type": "uint256"
        }
      ],
      "name": "updateUserRefund",
      "outputs": [],
      "stateMutability": "nonpayable",
      "type": "function"
    },
    {
      "inputs": [
        {
          "internalType": "address",
          "name": "",
          "type": "address"
        }
      ],
      "name": "userInfo",
      "outputs": [
        {
          "internalType": "uint256",
          "name": "amount",
          "type": "uint256"
        },
        {
          "internalType": "uint256",
          "name": "rewardDebt",
          "type": "uint256"
        }
      ],
      "stateMutability": "view",
      "type": "function"
    },
    {
      "inputs": [],
      "name": "voucher",
      "outputs": [
        {
          "internalType": "address",
          "name": "addr",
          "type": "address"
        },
        {
          "internalType": "contract IVNFT",
          "name": "instance",
          "type": "address"
        },
        {
          "internalType": "uint256",
          "name": "tokenId",
          "type": "uint256"
        },
        {
          "internalType": "bool",
          "name": "isEnable",
          "type": "bool"
        }
      ],
      "stateMutability": "view",
      "type": "function"
    },
    {
      "inputs": [
        {
          "internalType": "address",
          "name": "addr_",
          "type": "address"
        }
      ],
      "name": "setupTokenUtils",
      "outputs": [],
      "stateMutability": "nonpayable",
      "type": "function"
    },
    {
      "inputs": [],
      "name": "buyETH",
      "outputs": [],
      "stateMutability": "payable",
      "type": "function"
    },
    {
      "inputs": [
        {
          "internalType": "uint256",
          "name": "ids_",
          "type": "uint256"
        },
        {
          "internalType": "uint256",
          "name": "maxPrice_",
          "type": "uint256"
        }
      ],
      "name": "buyERC20",
      "outputs": [],
      "stateMutability": "nonpayable",
      "type": "function"
    },
    {
      "inputs": [
        {
          "internalType": "uint32",
          "name": "amount_",
          "type": "uint32"
        },
        {
          "internalType": "bool",
          "name": "isHarvest_",
          "type": "bool"
        }
      ],
      "name": "sell",
      "outputs": [],
      "stateMutability": "nonpayable",
      "type": "function"
    },
    {
      "inputs": [
        {
          "internalType": "uint32",
          "name": "amount_",
          "type": "uint32"
        },
        {
          "internalType": "bool",
          "name": "isHarvest_",
          "type": "bool"
        }
      ],
      "name": "tradein",
      "outputs": [],
      "stateMutability": "nonpayable",
      "type": "function"
    },
    {
      "inputs": [],
      "name": "updatePool",
      "outputs": [],
      "stateMutability": "nonpayable",
      "type": "function"
    },
    {
      "inputs": [
        {
          "internalType": "uint256",
          "name": "ids_",
          "type": "uint256"
        }
      ],
      "name": "getCurrentPriceByIds",
      "outputs": [
        {
          "internalType": "uint256",
          "name": "",
          "type": "uint256"
        }
      ],
      "stateMutability": "view",
      "type": "function"
    },
    {
      "inputs": [
        {
          "internalType": "address",
          "name": "wallet_",
          "type": "address"
        }
      ],
      "name": "updateSupplierInfo",
      "outputs": [],
      "stateMutability": "nonpayable",
      "type": "function"
    },
    {
      "inputs": [
        {
          "internalType": "uint256",
          "name": "amount_",
          "type": "uint256"
        }
      ],
      "name": "claimSupplier",
      "outputs": [],
      "stateMutability": "nonpayable",
      "type": "function"
    },
    {
      "inputs": [],
      "name": "getSupplierBalance",
      "outputs": [
        {
          "internalType": "uint256",
          "name": "",
          "type": "uint256"
        }
      ],
      "stateMutability": "view",
      "type": "function"
    },
    {
      "inputs": [
        {
          "internalType": "uint256",
          "name": "value_",
          "type": "uint256"
        }
      ],
      "name": "withdrawEther",
      "outputs": [],
      "stateMutability": "payable",
      "type": "function"
    },
    {
      "inputs": [
        {
          "internalType": "uint256",
          "name": "ids_",
          "type": "uint256"
        },
        {
          "internalType": "uint256",
          "name": "amount_",
          "type": "uint256"
        },
        {
          "internalType": "address",
          "name": "to_",
          "type": "address"
        }
      ],
      "name": "withdrawERC20",
      "outputs": [],
      "stateMutability": "nonpayable",
      "type": "function"
    },
    {
      "inputs": [
        {
          "internalType": "address",
          "name": "addr_",
          "type": "address"
        }
      ],
      "name": "getUserInfo",
      "outputs": [
        {
          "components": [
            {
              "internalType": "uint256",
              "name": "amount",
              "type": "uint256"
            },
            {
              "internalType": "uint256",
              "name": "rewardDebt",
              "type": "uint256"
            },
            {
              "internalType": "uint256[]",
              "name": "records",
              "type": "uint256[]"
            }
          ],
          "internalType": "struct ProductTokenV1.UserInfo",
          "name": "",
          "type": "tuple"
        }
      ],
      "stateMutability": "view",
      "type": "function"
    },
    {
      "inputs": [],
      "name": "getPoolInfo",
      "outputs": [
        {
          "components": [
            {
              "internalType": "uint256",
              "name": "amount",
              "type": "uint256"
            },
            {
              "internalType": "uint256",
              "name": "accRewardPerShare",
              "type": "uint256"
            },
            {
              "internalType": "uint256",
              "name": "tokenReward",
              "type": "uint256"
            }
          ],
          "internalType": "struct ProductTokenV1.PoolInfo",
          "name": "",
          "type": "tuple"
        }
      ],
      "stateMutability": "view",
      "type": "function"
    },
    {
      "inputs": [],
      "name": "getSupplierInfo",
      "outputs": [
        {
          "components": [
            {
              "internalType": "uint256",
              "name": "amount",
              "type": "uint256"
            },
            {
              "internalType": "address",
              "name": "wallet",
              "type": "address"
            }
          ],
          "internalType": "struct ProductTokenV1.supplierInfo",
          "name": "",
          "type": "tuple"
        }
      ],
      "stateMutability": "view",
      "type": "function"
    }
  ],
  "bytecode": "0x608060405234801561001057600080fd5b506153f7806100206000396000f3fe6080604052600436106102db5760003560e060020a90048063828f3a9c11610180578063c660796a116100d6578063c660796a1461092b578063c757d4c71461094b578063cdda418c1461096b578063d0ebdbe7146109ca578063d5009584146109ea578063dd304b1a14610a08578063dd62ed3e14610a35578063deebbef114610a7b578063e3161ddd14610a9b578063e67dc51814610ab0578063eb91d37e14610ac6578063efea8a1314610adb578063f2fde38b14610afb578063f97511d314610b1b578063fba7d65014610b3b576102db565b8063828f3a9c146107675780638456cb59146107875780638da5cb5b1461079c57806395d89b41146107be578063964a6afe146107d35780639b9ffbf3146107e8578063a10954fe14610817578063a457c2d71461082d578063a9059cbb1461084d578063aa4985cc1461086d578063af22803e14610882578063b36e6dca146108a2578063ba7a93b6146108c2578063c2a79257146108e6578063c4e627c214610906576102db565b806343ff1fb81161023557806343ff1fb814610526578063491052cd146105465780634b9abc26146105665780635a2f3d091461057b5780635e88752c146105b557806360246c88146105d55780636386c1c71461060c57806363cc0668146106395780636e74607b146106595780636fed69741461068657806370a08231146106a6578063715018a6146106c657806374a21872146106db57806374a7b012146106f05780637a53e04014610752576102db565b806301339c21146102ea57806306fdde0314610301578063095ea7b31461032c5780630c7d5cd81461035c5780630ccee99b1461038e57806318160ddd146103ae5780631959a002146103cd57806319d5b587146104165780631b892eb314610436578063224e4f481461045657806323b872dd14610476578063313ce5671461049657806336da4468146104b257806339509351146104f35780633bed33ce14610513575b3480156102e757600080fd5b50005b3480156102f657600080fd5b506102ff610b43565b005b34801561030d57600080fd5b50610316610c2b565b6040516103239190614eb6565b60405180910390f35b34801561033857600080fd5b5061034c610347366004614b40565b610cbd565b6040519015158152602001610323565b34801561036857600080fd5b50609b546103799063ffffffff1681565b60405163ffffffff9091168152602001610323565b34801561039a57600080fd5b506102ff6103a9366004614b40565b610cd4565b3480156103ba57600080fd5b506035545b604051908152602001610323565b3480156103d957600080fd5b506104016103e8366004614a90565b60a7602052600090815260409020805460019091015482565b60408051928352602083019190915201610323565b34801561042257600080fd5b506103bf610431366004614ce6565b610d5b565b34801561044257600080fd5b506102ff610451366004614a90565b610e5a565b34801561046257600080fd5b506103bf610471366004614ce6565b610ec1565b34801561048257600080fd5b5061034c610491366004614b00565b610ee6565b3480156104a257600080fd5b5060405160128152602001610323565b3480156104be57600080fd5b50609e54609f546104d69190600160a060020a031682565b60408051928352600160a060020a03909116602083015201610323565b3480156104ff57600080fd5b5061034c61050e366004614b40565b610faf565b6102ff610521366004614c5d565b610fe6565b34801561053257600080fd5b506102ff610541366004614a90565b611096565b34801561055257600080fd5b5061034c610561366004614b87565b611143565b34801561057257600080fd5b506103bf600181565b34801561058757600080fd5b5060a05460a15460a25461059a92919083565b60408051938452602084019290925290820152606001610323565b3480156105c157600080fd5b506102ff6105d0366004614c5d565b61119d565b3480156105e157600080fd5b506105ea611389565b6040805182518152602080840151908201529181015190820152606001610323565b34801561061857600080fd5b5061062c610627366004614a90565b6113d2565b6040516103239190615153565b34801561064557600080fd5b506103bf610654366004614c5d565b6114ab565b34801561066557600080fd5b50610679610674366004614a90565b6115d7565b6040516103239190614e35565b34801561069257600080fd5b506102ff6106a1366004614d1e565b6116bd565b3480156106b257600080fd5b506103bf6106c1366004614a90565b61199c565b3480156106d257600080fd5b506102ff6119b7565b3480156106e757600080fd5b506103bf600081565b3480156106fc57600080fd5b5060408051808201825260008082526020918201528151808301909252609e548252609f54600160a060020a0316908201526040805182518152602092830151600160a060020a03169281019290925201610323565b34801561075e57600080fd5b50610379611a21565b34801561077357600080fd5b50610379610782366004614c5d565b611a67565b34801561079357600080fd5b506102ff611a7b565b3480156107a857600080fd5b506107b1611b4c565b6040516103239190614d97565b3480156107ca57600080fd5b50610316611b5b565b3480156107df57600080fd5b50609e546103bf565b3480156107f457600080fd5b50610808610803366004614b40565b611b6a565b60405161032393929190614e91565b34801561082357600080fd5b506103bf60995481565b34801561083957600080fd5b5061034c610848366004614b40565b611bb5565b34801561085957600080fd5b5061034c610868366004614b40565b611c56565b34801561087957600080fd5b506103bf600281565b34801561088e57600080fd5b5061040161089d366004614ce6565b611c63565b3480156108ae57600080fd5b506102ff6108bd366004614cae565b611d26565b3480156108ce57600080fd5b50609b5461037990604060020a900463ffffffff1681565b3480156108f257600080fd5b506102ff610901366004614c8d565b612000565b34801561091257600080fd5b50609b5461037990640100000000900463ffffffff1681565b34801561093757600080fd5b506102ff610946366004614d1e565b61271b565b34801561095757600080fd5b506102ff610966366004614b40565b612a40565b34801561097757600080fd5b5060a35460a45460a55460a65461099d93600160a060020a039081169316919060ff1684565b60408051600160a060020a0395861681529490931660208501529183015215156060820152608001610323565b3480156109d657600080fd5b506102ff6109e5366004614a90565b612b24565b3480156109f657600080fd5b50609c54600160a060020a03166107b1565b348015610a1457600080fd5b50610a28610a23366004614b40565b612ba1565b6040516103239190614e83565b348015610a4157600080fd5b506103bf610a50366004614ac8565b600160a060020a03918216600090815260346020908152604080832093909416825291909152205490565b348015610a8757600080fd5b506102ff610a96366004614a90565b612bf7565b348015610aa757600080fd5b506102ff612ca4565b348015610abc57600080fd5b506103bf609a5481565b348015610ad257600080fd5b506103bf612ce3565b348015610ae757600080fd5b506102ff610af6366004614ba6565b612cef565b348015610b0757600080fd5b506102ff610b16366004614a90565b612d84565b348015610b2757600080fd5b506103bf610b36366004614ce6565b612e7f565b6102ff612e9c565b33610b4c611b4c565b600160a060020a031614610b7e5760405160e560020a62461bcd028152600401610b75906150b0565b60405180910390fd5b60985460ff1615610be55760405160e560020a62461bcd02815260206004820152602560248201527f5468652070726f6475637420746f6b656e20697320616c7265616479206c6175604482015260da60020a641b98da1959026064820152608401610b75565b6098805460ff191660019081179091556040519081527f65c5ccecef030677b73a1403e7e69ef84d05db9d1732959d543d32f4419909b8906020015b60405180910390a1565b606060368054610c3a9061529e565b80601f0160208091040260200160405190810160405280929190818152602001828054610c669061529e565b8015610cb35780601f10610c8857610100808354040283529160200191610cb3565b820191906000526020600020905b815481529060010190602001808311610c9657829003601f168201915b5050505050905090565b6000610cca338484613216565b5060015b92915050565b610cdc611b4c565b600160a060020a031633600160a060020a03161480610d055750609c54600160a060020a031633145b610d245760405160e560020a62461bcd028152600401610b7590615079565b600160a060020a038216610d4d5760405160e560020a62461bcd028152600401610b7590614f09565b610d578282613347565b5050565b6000808263ffffffff1611610d855760405160e560020a62461bcd028152600401610b7590614fae565b609b54600090610dbc9063ffffffff606060020a8204811691610db69187811691604060020a90048116906134c016565b906134c0565b609d54609a54609b5460405160e060020a631c949873028152939450600160a060020a0390921692631c94987392610e03928692909163ffffffff169089906004016151b8565b60206040518083038186803b158015610e1b57600080fd5b505afa158015610e2f573d6000803e3d6000fd5b505050506040513d601f19601f82011682018060405250810190610e539190614c75565b9392505050565b33610e63611b4c565b600160a060020a031614610e8c5760405160e560020a62461bcd028152600401610b75906150b0565b600160a060020a038116610e9f57600080fd5b60a88054600160a060020a031916600160a060020a0392909216919091179055565b6000806000610ecf846134cc565b9092509050610ede8282613583565b949350505050565b6000610ef384848461358f565b600160a060020a038416600090815260346020908152604080832033845290915290205482811015610f905760405160e560020a62461bcd02815260206004820152602860248201527f45524332303a207472616e7366657220616d6f756e742065786365656473206160448201527f6c6c6f77616e63650000000000000000000000000000000000000000000000006064820152608401610b75565b610fa48533610f9f8685615262565b613216565b506001949350505050565b336000818152603460209081526040808320600160a060020a03871684529091528120549091610cca918590610f9f9086906151e0565b33610fef611b4c565b600160a060020a0316146110185760405160e560020a62461bcd028152600401610b75906150b0565b30316110695760405160e560020a62461bcd02815260206004820152600f60248201527f6e6f20656e6f75676820657468657200000000000000000000000000000000006044820152606401610b75565b604051339082156108fc029083906000818181858888f19350505050158015610d57573d6000803e3d6000fd5b3361109f611b4c565b600160a060020a0316146110c85760405160e560020a62461bcd028152600401610b75906150b0565b600160a060020a0381166111215760405160e560020a62461bcd02815260206004820152600f60248201527f496e76616c6964206164647265737300000000000000000000000000000000006044820152606401610b75565b609d8054600160a060020a031916600160a060020a0392909216919091179055565b6000600382600381111561116a5760e060020a634e487b7102600052602160045260246000fd5b1480610cce575060028260038111156111965760e060020a634e487b7102600052602160045260246000fd5b1492915050565b609f54600160a060020a03166111f85760405160e560020a62461bcd02815260206004820152601160248201527f77616c6c657420697320696e76616c69640000000000000000000000000000006044820152606401610b75565b609f54600160a060020a031633146112555760405160e560020a62461bcd02815260206004820152601a60248201527f5468652061646472657373206973206e6f7420616c6c6f7765640000000000006044820152606401610b75565b60a85460405160e060020a63bf418de102815260016004820152600091600160a060020a03169063bf418de19060240160206040518083038186803b15801561129d57600080fd5b505afa1580156112b1573d6000803e3d6000fd5b505050506040513d601f19601f820116820180604052508101906112d59190614aac565b609e54909150819083116113845760405160e060020a63a9059cbb028152600090600160a060020a0383169063a9059cbb906113179033908890600401614dab565b602060405180830381600087803b15801561133157600080fd5b505af1158015611345573d6000803e3d6000fd5b505050506040513d601f19601f820116820180604052508101906113699190614b6b565b9050801561138257609e5461137e9085613583565b609e555b505b505050565b6113ad60405180606001604052806000815260200160008152602001600081525090565b506040805160608101825260a054815260a154602082015260a2549181019190915290565b6113f660405180606001604052806000815260200160008152602001606081525090565b600160a060020a03821661141f5760405160e560020a62461bcd028152600401610b7590614fe5565b600160a060020a038216600090815260a760209081526040918290208251606081018452815481526001820154818401526002820180548551818602810186018752818152929593949386019383018282801561149b57602002820191906000526020600020905b815481526020019060010190808311611487575b5050505050815250509050919050565b60a85460405160e060020a6315fc65d902815260048101839052600091600160a060020a0316906315fc65d99060240160206040518083038186803b1580156114f357600080fd5b505afa158015611507573d6000803e3d6000fd5b505050506040513d601f19601f8201168201806040525081019061152b9190614b6b565b61154a5760405160e560020a62461bcd028152600401610b7590614f77565b60a854600160a060020a0316631c6e7b20611563612ce3565b60405160e060020a63ffffffff841602815260048101919091526024810185905260440160206040518083038186803b15801561159f57600080fd5b505afa1580156115b3573d6000803e3d6000fd5b505050506040513d601f19601f82011682018060405250810190610cce9190614c75565b600160a060020a0381166000908152606560209081526040808320805482518185028101850190935280835260609492939192909184015b828210156116b2576000848152602090206040805160608101909152600284029091018054829060ff16600381111561165b5760e060020a634e487b7102600052602160045260246000fd5b600381111561167d5760e060020a634e487b7102600052602160045260246000fd5b81528154610100900463ffffffff1660208083019190915260019283015460409092019190915291835292909201910161160f565b505050509050919050565b60985460ff166116e25760405160e560020a62461bcd028152600401610b75906150e5565b60a85460405160e060020a6315fc65d902815260016004820152600160a060020a03909116906315fc65d99060240160206040518083038186803b15801561172957600080fd5b505afa15801561173d573d6000803e3d6000fd5b505050506040513d601f19601f820116820180604052508101906117619190614b6b565b6117805760405160e560020a62461bcd028152600401610b7590614f77565b60008263ffffffff16116117a95760405160e560020a62461bcd028152600401610b759061511c565b8163ffffffff166117b93361199c565b101561180a5760405160e560020a62461bcd02815260206004820152601c60248201527f496e73756666696369656e7420746f6b656e7320746f206275726e2e000000006044820152606401610b75565b600080611816846134cc565b91509150600061182585610d5b565b905061185361184e82610db66512309ce54000611848876509184e72a00061377b565b90613787565b613793565b61185d8383613583565b60a85460405160e560020a62e373d902815260048101839052600160248201529194506118ee918791600160a060020a031690631c6e7b209060440160206040518083038186803b1580156118b157600080fd5b505afa1580156118c5573d6000803e3d6000fd5b505050506040513d601f19601f820116820180604052508101906118e99190614c75565b613837565b506118ff338663ffffffff1661398b565b609b5461191a908690604060020a900463ffffffff166151f8565b609b80546bffffffff00000000000000001916604060020a63ffffffff93841602179055609a5461194d9183906134c016565b609a5561195a8585613ad4565b60405163ffffffff8616815233907fe600c25f82e9bac8f9f1663725540d6cd442845726820fd5bee41b66c4bf59be9060200160405180910390a25050505050565b600160a060020a031660009081526033602052604090205490565b336119c0611b4c565b600160a060020a0316146119e95760405160e560020a62461bcd028152600401610b75906150b0565b606654604051600091600160a060020a031690600080516020615382833981519152908390a360668054600160a060020a0319169055565b609b54600090604060020a900463ffffffff16611a3d60355490565b609b54611a589190640100000000900463ffffffff16615279565b611a629190615279565b905090565b600080611a7383613d5c565b509392505050565b33611a84611b4c565b600160a060020a031614611aad5760405160e560020a62461bcd028152600401610b75906150b0565b60985460ff16611b115760405160e560020a62461bcd02815260206004820152602360248201527f5468652070726f6475637420746f6b656e20697320616c726561647920706175604482015260ea60020a621cd959026064820152608401610b75565b6098805460ff19169055604051600081527f65c5ccecef030677b73a1403e7e69ef84d05db9d1732959d543d32f4419909b890602001610c21565b606654600160a060020a031690565b606060378054610c3a9061529e565b60656020528160005260406000208181548110611b8657600080fd5b60009182526020909120600290910201805460019091015460ff8216935061010090910463ffffffff16915083565b336000908152603460209081526040808320600160a060020a038616845290915281205482811015611c3d5760405160e560020a62461bcd02815260206004820152602560248201527f45524332303a2064656372656173656420616c6c6f77616e63652062656c6f77604482015260d860020a64207a65726f026064820152608401610b75565b611c4c3385610f9f8685615262565b5060019392505050565b6000610cca33848461358f565b609d5460009081908190600160a060020a031663bff82d84611c83613e61565b609954609b5460405163ffffffff85811660e060020a028252611cae94939216908a906004016151b8565b60206040518083038186803b158015611cc657600080fd5b505afa158015611cda573d6000803e3d6000fd5b505050506040513d601f19601f82011682018060405250810190611cfe9190614c75565b90506000611d1a64e8d4a51000611848846412a05f200061377b565b91935090915050915091565b33611d2f611b4c565b600160a060020a031614611d585760405160e560020a62461bcd028152600401610b75906150b0565b60a85460405160e060020a6336e84a8702815260048101859052600160a060020a03909116906336e84a879060240160206040518083038186803b158015611d9f57600080fd5b505afa158015611db3573d6000803e3d6000fd5b505050506040513d601f19601f82011682018060405250810190611dd79190614b6b565b611e265760405160e560020a62461bcd02815260206004820152600e60248201527f6e6f7420696e76616c69642069640000000000000000000000000000000000006044820152606401610b75565b600160a060020a038116611e4f5760405160e560020a62461bcd028152600401610b7590614fe5565b60a85460405160e060020a63bf418de102815260048101859052600091600160a060020a03169063bf418de19060240160206040518083038186803b158015611e9757600080fd5b505afa158015611eab573d6000803e3d6000fd5b505050506040513d601f19601f82011682018060405250810190611ecf9190614aac565b60405160e060020a6370a082310281529091508190600160a060020a038216906370a0823190611f03903090600401614d97565b60206040518083038186803b158015611f1b57600080fd5b505afa158015611f2f573d6000803e3d6000fd5b505050506040513d601f19601f82011682018060405250810190611f539190614c75565b841115611f755760405160e560020a62461bcd028152600401610b7590614fae565b60405160e060020a63a9059cbb028152600160a060020a0382169063a9059cbb90611fa69086908890600401614dab565b602060405180830381600087803b158015611fc057600080fd5b505af1158015611fd4573d6000803e3d6000fd5b505050506040513d601f19601f82011682018060405250810190611ff89190614b6b565b505050505050565b60985460ff166120255760405160e560020a62461bcd028152600401610b75906150e5565b60a85460405160e060020a6315fc65d902815260048101849052600160a060020a03909116906315fc65d99060240160206040518083038186803b15801561206c57600080fd5b505afa158015612080573d6000803e3d6000fd5b505050506040513d601f19601f820116820180604052508101906120a49190614b6b565b6120c35760405160e560020a62461bcd028152600401610b7590614f77565b600081116121165760405160e560020a62461bcd02815260206004820152601160248201527f696e76616c6964206d61782070726963650000000000000000000000000000006044820152606401610b75565b60a85460405160e060020a63bf418de102815260048101849052600091600160a060020a03169063bf418de19060240160206040518083038186803b15801561215e57600080fd5b505afa158015612172573d6000803e3d6000fd5b505050506040513d601f19601f820116820180604052508101906121969190614aac565b60405160e060020a6323b872dd02815233600482015230602482015260448101849052909150600090600160a060020a038316906323b872dd90606401602060405180830381600087803b1580156121ed57600080fd5b505af1158015612201573d6000803e3d6000fd5b505050506040513d601f19601f820116820180604052508101906122259190614b6b565b9050806122775760405160e560020a62461bcd02815260206004820152601060248201527f5075726368617365206661696c65642e000000000000000000000000000000006044820152606401610b75565b60a85460405160e060020a63a71b7b770281526004810185905260248101869052600091600160a060020a03169063a71b7b779060440160206040518083038186803b1580156122c657600080fd5b505afa1580156122da573d6000803e3d6000fd5b505050506040513d601f19601f820116820180604052508101906122fe9190614c75565b905060008060008061230f85613e8e565b93509350935063ffffffff169350600084111561268b5782156124395760a85460405160e560020a62e373d902815260048101859052602481018b9052600160a060020a0390911690631c6e7b209060440160206040518083038186803b15801561237957600080fd5b505afa15801561238d573d6000803e3d6000fd5b505050506040513d601f19601f820116820180604052508101906123b19190614c75565b60405160e060020a63a9059cbb028152909350600160a060020a0388169063a9059cbb906123e59033908790600401614dab565b602060405180830381600087803b1580156123ff57600080fd5b505af1158015612413573d6000803e3d6000fd5b505050506040513d601f19601f820116820180604052508101906124379190614b6b565b505b61245561184e650746a52880006118488464e8d4a5100061377b565b60a85460405160e560020a62e373d90281526004810183905260016024820152600160a060020a0390911690631c6e7b209060440160206040518083038186803b1580156124a257600080fd5b505afa1580156124b6573d6000803e3d6000fd5b505050506040513d601f19601f820116820180604052508101906124da9190614c75565b90506125026124f9650746a528800061184884650574fbde600061377b565b60a254906134c0565b60a25560018914156126865760a85460405160e560020a62e373d90281526004810184905260016024820152600160a060020a0390911690631c6e7b209060440160206040518083038186803b15801561255b57600080fd5b505afa15801561256f573d6000803e3d6000fd5b505050506040513d601f19601f820116820180604052508101906125939190614c75565b33600090815260a760205260408120600181015460a1548254949650919360a093926125d492916125ce9164e8d4a51000916118489161377b565b90613583565b905080156126615760405160e060020a63a9059cbb028152600160a060020a038b169063a9059cbb9061260d9033908590600401614dab565b602060405180830381600087803b15801561262757600080fd5b505af115801561263b573d6000803e3d6000fd5b505050506040513d601f19601f8201168201806040525081019061265f9190614b6b565b505b60a05461266e90866134c0565b60a055612679612ca4565b61268285613ff3565b5050505b612710565b60405160e060020a63a9059cbb028152600160a060020a0388169063a9059cbb906126bc9033908c90600401614dab565b602060405180830381600087803b1580156126d657600080fd5b505af11580156126ea573d6000803e3d6000fd5b505050506040513d601f19601f8201168201806040525081019061270e9190614b6b565b505b505050505050505050565b60985460ff166127405760405160e560020a62461bcd028152600401610b75906150e5565b60a85460405160e060020a6315fc65d902815260016004820152600160a060020a03909116906315fc65d99060240160206040518083038186803b15801561278757600080fd5b505afa15801561279b573d6000803e3d6000fd5b505050506040513d601f19601f820116820180604052508101906127bf9190614b6b565b6127de5760405160e560020a62461bcd028152600401610b7590614f77565b8163ffffffff166127ee3361199c565b101580612801575060008263ffffffff16115b6128205760405160e560020a62461bcd028152600401610b7590614fae565b60a85460405160e060020a63bf418de102815260016004820152600091600160a060020a03169063bf418de19060240160206040518083038186803b15801561286857600080fd5b505afa15801561287c573d6000803e3d6000fd5b505050506040513d601f19601f820116820180604052508101906128a09190614aac565b90506000806128ae8561404c565b915091506128bc8585613ad4565b60a85460405160e560020a62e373d90281526004810184905260016024820152600091600160a060020a031690631c6e7b209060440160206040518083038186803b15801561290a57600080fd5b505afa15801561291e573d6000803e3d6000fd5b505050506040513d601f19601f820116820180604052508101906129429190614c75565b9050600084600160a060020a031663a9059cbb33846040518363ffffffff1660e060020a028152600401612977929190614dab565b602060405180830381600087803b15801561299157600080fd5b505af11580156129a5573d6000803e3d6000fd5b505050506040513d601f19601f820116820180604052508101906129c99190614b6b565b90506129e761184e6501d1a94a20006118488664e8d4a5100061377b565b80612a375760405160e560020a62461bcd02815260206004820152601460248201527f73656c6c696e6720746f6b656e206661696c65640000000000000000000000006044820152606401610b75565b50505050505050565b612a48611b4c565b600160a060020a031633600160a060020a03161480612a715750609c54600160a060020a031633145b612a905760405160e560020a62461bcd028152600401610b7590615079565b600160a060020a038216612ab95760405160e560020a62461bcd028152600401610b7590614f09565b6000612ac5838361415f565b905060008111612b1a5760405160e560020a62461bcd02815260206004820152600d60248201527f496e76616c69642076616c7565000000000000000000000000000000000000006044820152606401610b75565b6113848382614310565b33612b2d611b4c565b600160a060020a031614612b565760405160e560020a62461bcd028152600401610b75906150b0565b600160a060020a038116612b7f5760405160e560020a62461bcd028152600401610b7590614fe5565b609c8054600160a060020a031916600160a060020a0392909216919091179055565b600160a060020a0382166000908152606560205260408120805483908110612bdc5760e060020a634e487b7102600052603260045260246000fd5b600091825260209091206002909102015460ff169392505050565b33612c00611b4c565b600160a060020a031614612c295760405160e560020a62461bcd028152600401610b75906150b0565b600160a060020a038116612c825760405160e560020a62461bcd02815260206004820152601260248201527f4164647265737320697320696e76616c696400000000000000000000000000006044820152606401610b75565b609f8054600160a060020a031916600160a060020a0392909216919091179055565b60a05480612cb75750600060a155612ce1565b60a254612cdc90612cd39083906118489064e8d4a5100061377b565b60a154906134c0565b60a155505b565b6000611a626001612e7f565b600054610100900460ff1680612d08575060005460ff16155b612d275760405160e560020a62461bcd028152600401610b759061501c565b600054610100900460ff16158015612d49576000805461ffff19166101011790555b612d51614469565b612d5b88886144e7565b612d688686868686614569565b8015612d7a576000805461ff00191690555b5050505050505050565b33612d8d611b4c565b600160a060020a031614612db65760405160e560020a62461bcd028152600401610b75906150b0565b600160a060020a038116612e355760405160e560020a62461bcd02815260206004820152602660248201527f4f776e61626c653a206e6577206f776e657220697320746865207a65726f206160448201527f64647265737300000000000000000000000000000000000000000000000000006064820152608401610b75565b606654604051600160a060020a0380841692169060008051602061538283398151915290600090a360668054600160a060020a031916600160a060020a0392909216919091179055565b6000806000612e8d84611c63565b9092509050610ede82826134c0565b60985460ff16612ec15760405160e560020a62461bcd028152600401610b75906150e5565b60a85460405160e060020a6315fc65d902815260006004820152600160a060020a03909116906315fc65d99060240160206040518083038186803b158015612f0857600080fd5b505afa158015612f1c573d6000803e3d6000fd5b505050506040513d601f19601f82011682018060405250810190612f409190614b6b565b612f5f5760405160e560020a62461bcd028152600401610b7590614f77565b60003411612fb25760405160e560020a62461bcd02815260206004820152600d60248201527f696e76616c69642076616c7565000000000000000000000000000000000000006044820152606401610b75565b60a85460405160e060020a63a71b7b7702815234600482015260006024820181905291600160a060020a03169063a71b7b779060440160206040518083038186803b15801561300057600080fd5b505afa158015613014573d6000803e3d6000fd5b505050506040513d601f19601f820116820180604052508101906130389190614c75565b9050600080600061304884613e8e565b935050925063ffffffff16925060008311156131e357811561311b5760a85460405160e560020a62e373d90281526004810184905260006024820152600160a060020a0390911690631c6e7b209060440160206040518083038186803b1580156130b157600080fd5b505afa1580156130c5573d6000803e3d6000fd5b505050506040513d601f19601f820116820180604052508101906130e99190614c75565b604051909250339083156108fc029084906000818181858888f19350505050158015613119573d6000803e3d6000fd5b505b61313761184e650746a52880006118488464e8d4a5100061377b565b60a85460405160e560020a62e373d90281526004810183905260016024820152600160a060020a0390911690631c6e7b209060440160206040518083038186803b15801561318457600080fd5b505afa158015613198573d6000803e3d6000fd5b505050506040513d601f19601f820116820180604052508101906131bc9190614c75565b90506131db6124f9650746a528800061184884650574fbde600061377b565b60a255611382565b60405133903480156108fc02916000818181858888f1935050505015801561320f573d6000803e3d6000fd5b5050505050565b600160a060020a03831661327e5760405160e560020a62461bcd028152602060048201526024808201527f45524332303a20617070726f76652066726f6d20746865207a65726f20616464604482015260e060020a6372657373026064820152608401610b75565b600160a060020a0382166132e55760405160e560020a62461bcd02815260206004820152602260248201527f45524332303a20617070726f766520746f20746865207a65726f206164647265604482015260f060020a617373026064820152608401610b75565b600160a060020a0383811660008181526034602090815260408083209487168084529482529182902085905590518481527f8c5be1e5ebec7d5bd14f71427d1e84f3dd0314c0f7b2291e5b200ac8c7c3b92591015b60405180910390a3505050565b600160a060020a038216600090815260656020526040902080546133a09190839081106133875760e060020a634e487b7102600052603260045260246000fd5b600091825260209091206002909102015460ff16611143565b156133c05760405160e560020a62461bcd028152600401610b7590614f40565b600160a060020a0382166000908152606560205260409020805460039190839081106133ff5760e060020a634e487b7102600052603260045260246000fd5b60009182526020909120600290910201805460ff1916600183600381111561343a5760e060020a634e487b7102600052602160045260246000fd5b021790555060008051602061536283398151915282826065600086600160a060020a0316600160a060020a0316815260200190815260200160002084815481106134975760e060020a634e487b7102600052603260045260246000fd5b90600052602060002090600202016040516134b493929190614de8565b60405180910390a15050565b6000610e5382846151e0565b609d5460009081908190600160a060020a0316631c9498736134ec613e61565b609954609b5460405163ffffffff85811660e060020a02825261351794939216908a906004016151b8565b60206040518083038186803b15801561352f57600080fd5b505afa158015613543573d6000803e3d6000fd5b505050506040513d601f19601f820116820180604052508101906135679190614c75565b90506000611d1a64e8d4a51000611848846404a817c80061377b565b6000610e538284615262565b600160a060020a0383166135f95760405160e560020a62461bcd02815260206004820152602560248201527f45524332303a207472616e736665722066726f6d20746865207a65726f206164604482015260d860020a646472657373026064820152608401610b75565b600160a060020a0382166136615760405160e560020a62461bcd02815260206004820152602360248201527f45524332303a207472616e7366657220746f20746865207a65726f2061646472604482015260e860020a62657373026064820152608401610b75565b600160a060020a038316600090815260336020526040902054818110156136f35760405160e560020a62461bcd02815260206004820152602660248201527f45524332303a207472616e7366657220616d6f756e742065786365656473206260448201527f616c616e636500000000000000000000000000000000000000000000000000006064820152608401610b75565b6136fd8282615262565b600160a060020a0380861660009081526033602052604080822093909355908516815290812080548492906137339084906151e0565b9250508190555082600160a060020a031684600160a060020a03166000805160206153a28339815191528460405161376d91815260200190565b60405180910390a350505050565b6000610e538284615243565b6000610e538284615220565b80156138345760a85460405160e560020a62e373d90281526004810183905260016024820152600091600160a060020a031690631c6e7b209060440160206040518083038186803b1580156137e757600080fd5b505afa1580156137fb573d6000803e3d6000fd5b505050506040513d601f19601f8201168201806040525081019061381f9190614c75565b609e5490915061382f90826134c0565b609e55505b50565b6000808363ffffffff16116138915760405160e560020a62461bcd02815260206004820152600e60248201527f496e76616c696420416d6f756e740000000000000000000000000000000000006044820152606401610b75565b60408051606081018252600180825263ffffffff861660208084019190915282840186905233600090815260658252938420805480840182559085529320825160029094020180549293849391929091839160ff199091169083600381111561390d5760e060020a634e487b7102600052602160045260246000fd5b0217905550602082810151825463ffffffff9091166101000264ffffffff00199091161782556040928301516001928301553360009081526065909152918220546139589190615262565b905060008051602061536283398151915233828460405161397b93929190614dc4565b60405180910390a1949350505050565b600160a060020a0382166139f15760405160e560020a62461bcd02815260206004820152602160248201527f45524332303a206275726e2066726f6d20746865207a65726f20616464726573604482015260f860020a6073026064820152608401610b75565b600160a060020a03821660009081526033602052604090205481811015613a6b5760405160e560020a62461bcd02815260206004820152602260248201527f45524332303a206275726e20616d6f756e7420657863656564732062616c616e604482015260f060020a616365026064820152608401610b75565b613a758282615262565b600160a060020a03841660009081526033602052604081209190915560358054849290613aa3908490615262565b9091555050604051828152600090600160a060020a038516906000805160206153a28339815191529060200161333a565b33600090815260a7602052604090205415610d575760a85460405160e060020a63bf418de102815260016004820152600091600160a060020a03169063bf418de19060240160206040518083038186803b158015613b3157600080fd5b505afa158015613b45573d6000803e3d6000fd5b505050506040513d601f19601f82011682018060405250810190613b699190614aac565b33600090815260a7602052604090209091508280613b9357506002810154613b903361199c565b11155b1561138257600281015463ffffffff851690811115613bb3575060028101545b6000805b82811015613c5f57600284018054613c109190613bd5906001613583565b81548110613bf65760e060020a634e487b7102600052603260045260246000fd5b9060005260206000200154836134c090919063ffffffff16565b915083600201805480613c365760e060020a634e487b7102600052603160045260246000fd5b600190038181906000526020600020016000905590558080613c57906152dd565b915050613bb7565b50600183015460a154845460a092600092613c88926125ce9164e8d4a51000916118489161377b565b60a054909150613c989084613583565b60a0558015613d265760405160e060020a63a9059cbb028152600160a060020a0387169063a9059cbb90613cd29033908590600401614dab565b602060405180830381600087803b158015613cec57600080fd5b505af1158015613d00573d6000803e3d6000fd5b505050506040513d601f19601f82011682018060405250810190613d249190614b6b565b505b8454613d329084613583565b80865560a154613d4d9164e8d4a5100091611848919061377b565b60018601555050505050505050565b60008080613d7864fb750430006118488664e8d4a5100061377b565b90506000613d9464e8d4a5100061184884640df847580061377b565b609d54909150600090600160a060020a0316639f4ae6b0613db3613e61565b609954609b5463ffffffff90811690613dd0908990899061358316565b60405163ffffffff86811660e060020a0282529485166004820152602481019390935292166044820152606481019190915260840160206040518083038186803b158015613e1d57600080fd5b505afa158015613e31573d6000803e3d6000fd5b505050506040513d601f19601f82011682018060405250810190613e559190614d02565b94509092505050915091565b609b54600090611a629063ffffffff606060020a8204811691610db691604060020a909104168160355490565b6000806000806000613e9e611a21565b63ffffffff1611613ef45760405160e560020a62461bcd02815260206004820152601e60248201527f536f7272792c207468697320746f6b656e20697320736f6c64206f75742e00006044820152606401610b75565b60008511613f475760405160e560020a62461bcd02815260206004820152601960248201527f4465706f736974206d757374206265206e6f6e2d7a65726f2e000000000000006044820152606401610b75565b600080613f546001611c63565b9150915086821115613f755760008760008095509550955095505050613fec565b613f803360016146fc565b613f96613f8d8383613583565b609954906134c0565b60995560408051600181526020810184905233917f5b55159a377d86da80a65140d62d994ddbb2cbd4bb2d1b59cb0827fecbe47cab910160405180910390a26001613fe18884613583565b909650945090925090505b9193509193565b33600090815260a760205260409020805461400e90836134c0565b8155600281018054600181018255600091825260209091200182905560a15481546140439164e8d4a51000916118489161377b565b60019091015550565b60008060008363ffffffff16116140785760405160e560020a62461bcd028152600401610b759061511c565b8263ffffffff166140883361199c565b10156140d95760405160e560020a62461bcd02815260206004820152601c60248201527f496e73756666696369656e7420746f6b656e7320746f2073656c6c2e000000006044820152606401610b75565b6000806140e5856134cc565b60995491935091506140f79083613583565b60995561410a3363ffffffff871661398b565b6040805163ffffffff871681526020810184905233917f84c8d08e5480cf09cbf77bc575dc4e63845522693c34094f04129a4dedb7abd7910160405180910390a26141558282613583565b9350915050915091565b600160a060020a0382166000908152606560205260408120805461419f9190849081106133875760e060020a634e487b7102600052603260045260246000fd5b156141bf5760405160e560020a62461bcd028152600401610b7590614f40565b600160a060020a0383166000908152606560205260409020805460029190849081106141fe5760e060020a634e487b7102600052603260045260246000fd5b60009182526020909120600290910201805460ff191660018360038111156142395760e060020a634e487b7102600052602160045260246000fd5b021790555060008051602061536283398151915283836065600087600160a060020a0316600160a060020a0316815260200190815260200160002085815481106142965760e060020a634e487b7102600052603260045260246000fd5b90600052602060002090600202016040516142b393929190614de8565b60405180910390a1600160a060020a03831660009081526065602052604090208054839081106142f65760e060020a634e487b7102600052603260045260246000fd5b906000526020600020906002020160010154905092915050565b60a85460405160e060020a63bf418de102815260016004820152600091600160a060020a03169063bf418de19060240160206040518083038186803b15801561435857600080fd5b505afa15801561436c573d6000803e3d6000fd5b505050506040513d601f19601f820116820180604052508101906143909190614aac565b9050600081600160a060020a031663a9059cbb85856040518363ffffffff1660e060020a0281526004016143c5929190614dab565b602060405180830381600087803b1580156143df57600080fd5b505af11580156143f3573d6000803e3d6000fd5b505050506040513d601f19601f820116820180604052508101906144179190614b6b565b9050806113825760405160e560020a62461bcd02815260206004820152601360248201527f726566756e6420746f6b656e206661696c6564000000000000000000000000006044820152606401610b75565b600054610100900460ff1680614482575060005460ff16155b6144a15760405160e560020a62461bcd028152600401610b759061501c565b600054610100900460ff161580156144c3576000805461ffff19166101011790555b6144cb6147cc565b6144d3614839565b8015613834576000805461ff001916905550565b600054610100900460ff1680614500575060005460ff16155b61451f5760405160e560020a62461bcd028152600401610b759061501c565b600054610100900460ff16158015614541576000805461ffff19166101011790555b6145496147cc565b61455383836148d8565b8015611384576000805461ff0019169055505050565b600054610100900460ff1680614582575060005460ff16155b6145a15760405160e560020a62461bcd028152600401610b759061501c565b600054610100900460ff161580156145c3576000805461ffff19166101011790555b60008463ffffffff161161461c5760405160e560020a62461bcd02815260206004820152601860248201527f496e76616c6964206d617820746f6b656e20636f756e742e00000000000000006044820152606401610b75565b60008563ffffffff16116146755760405160e560020a62461bcd02815260206004820152601560248201527f496e76616c6964207265736572766520726174696f00000000000000000000006044820152606401610b75565b609d8054600160a060020a038816600160a060020a03199091161790556099829055609a829055609b805463ffffffff8681166401000000000267ffffffffffffffff19828816606060020a02166fffffffff00000000ffffffffffffffff1990931692909217908816171790558015611ff8576000805461ff0019169055505050505050565b600160a060020a0382166147555760405160e560020a62461bcd02815260206004820152601f60248201527f45524332303a206d696e7420746f20746865207a65726f2061646472657373006044820152606401610b75565b806035600082825461476791906151e0565b9091555050600160a060020a038216600090815260336020526040812080548392906147949084906151e0565b9091555050604051818152600160a060020a038316906000906000805160206153a28339815191529060200160405180910390a35050565b600054610100900460ff16806147e5575060005460ff16155b6148045760405160e560020a62461bcd028152600401610b759061501c565b600054610100900460ff161580156144d3576000805461ffff19166101011790558015613834576000805461ff001916905550565b600054610100900460ff1680614852575060005460ff16155b6148715760405160e560020a62461bcd028152600401610b759061501c565b600054610100900460ff16158015614893576000805461ffff19166101011790555b60668054600160a060020a031916339081179091556040518190600090600080516020615382833981519152908290a3508015613834576000805461ff001916905550565b600054610100900460ff16806148f1575060005460ff16155b6149105760405160e560020a62461bcd028152600401610b759061501c565b600054610100900460ff16158015614932576000805461ffff19166101011790555b8251614945906036906020860190614970565b508151614959906037906020850190614970565b508015611384576000805461ff0019169055505050565b82805461497c9061529e565b90600052602060002090601f01602090048101928261499e57600085556149e4565b82601f106149b757805160ff19168380011785556149e4565b828001600101855582156149e4579182015b828111156149e45782518255916020019190600101906149c9565b506149f09291506149f4565b5090565b5b808211156149f057600081556001016149f5565b600082601f830112614a19578081fd5b813567ffffffffffffffff80821115614a3457614a34615312565b604051601f8301601f19908116603f01168101908282118183101715614a5c57614a5c615312565b81604052838152866020858801011115614a74578485fd5b8360208701602083013792830160200193909352509392505050565b600060208284031215614aa1578081fd5b8135610e538161532c565b600060208284031215614abd578081fd5b8151610e538161532c565b60008060408385031215614ada578081fd5b8235614ae58161532c565b91506020830135614af58161532c565b809150509250929050565b600080600060608486031215614b14578081fd5b8335614b1f8161532c565b92506020840135614b2f8161532c565b929592945050506040919091013590565b60008060408385031215614b52578182fd5b8235614b5d8161532c565b946020939093013593505050565b600060208284031215614b7c578081fd5b8151610e5381615341565b600060208284031215614b98578081fd5b813560048110610e53578182fd5b600080600080600080600060e0888a031215614bc0578283fd5b873567ffffffffffffffff80821115614bd7578485fd5b614be38b838c01614a09565b985060208a0135915080821115614bf8578485fd5b50614c058a828b01614a09565b9650506040880135614c168161532c565b94506060880135614c268161534f565b93506080880135614c368161534f565b925060a0880135614c468161534f565b8092505060c0880135905092959891949750929550565b600060208284031215614c6e578081fd5b5035919050565b600060208284031215614c86578081fd5b5051919050565b60008060408385031215614c9f578182fd5b50508035926020909101359150565b600080600060608486031215614cc2578283fd5b83359250602084013591506040840135614cdb8161532c565b809150509250925092565b600060208284031215614cf7578081fd5b8135610e538161534f565b600060208284031215614d13578081fd5b8151610e538161534f565b60008060408385031215614d30578182fd5b8235614d3b8161534f565b91506020830135614af581615341565b60048110614d6d5760e060020a634e487b710260009081526021600452602490fd5b9052565b614d7c828251614d4b565b60208181015163ffffffff1690830152604090810151910152565b600160a060020a0391909116815260200190565b600160a060020a03929092168252602082015260400190565b600160a060020a03841681526020810183905260a08101610ede6040830184614d71565b600160a060020a038416815260208101839052815460a0820190614e126040840160ff8316614d4b565b63ffffffff61010082041660608401525060018301546080830152949350505050565b6020808252825182820181905260009190848201906040850190845b81811015614e7757614e64838551614d71565b9284019260609290920191600101614e51565b50909695505050505050565b60208101610cce8284614d4b565b60608101614e9f8286614d4b565b63ffffffff93909316602082015260400152919050565b6000602080835283518082850152825b81811015614ee257858101830151858201604001528201614ec6565b81811115614ef35783604083870101525b50601f01601f1916929092016040019392505050565b6020808252600d908201527f496e76616c696420627579657200000000000000000000000000000000000000604082015260600190565b60208082526011908201527f616c726561647920636f6d706c65746564000000000000000000000000000000604082015260600190565b6020808252600b908201527f6e6f7420737570706f7274000000000000000000000000000000000000000000604082015260600190565b6020808252600e908201527f696e76616c696420616d6f756e74000000000000000000000000000000000000604082015260600190565b6020808252600f908201527f696e76616c696420616464726573730000000000000000000000000000000000604082015260600190565b6020808252602e908201527f496e697469616c697a61626c653a20636f6e747261637420697320616c72656160408201527f647920696e697469616c697a6564000000000000000000000000000000000000606082015260800190565b60208082526011908201527f7065726d697373696f6e2064656e696564000000000000000000000000000000604082015260600190565b6020808252818101527f4f776e61626c653a2063616c6c6572206973206e6f7420746865206f776e6572604082015260600190565b60208082526013908201527f756e61626c6520746f207472616465206e6f7700000000000000000000000000604082015260600190565b60208082526018908201527f416d6f756e74206d757374206265206e6f6e2d7a65726f2e0000000000000000604082015260600190565b6000602080835260808301845182850152818501516040850152604085015160608086015281815180845260a08701915084830193508592505b808310156151ad578351825292840192600192909201919084019061518d565b509695505050505050565b63ffffffff948516815260208101939093529083166040830152909116606082015260800190565b600082198211156151f3576151f36152f8565b500190565b600063ffffffff808316818516808303821115615217576152176152f8565b01949350505050565b60008261523e5760e060020a634e487b710281526012600452602481fd5b500490565b600081600019048311821515161561525d5761525d6152f8565b500290565b600082821015615274576152746152f8565b500390565b600063ffffffff83811690831681811015615296576152966152f8565b039392505050565b6002810460018216806152b257607f821691505b602082108114156152d75760e060020a634e487b710260009081526022600452602490fd5b50919050565b60006000198214156152f1576152f16152f8565b5060010190565b60e060020a634e487b710260009081526011600452602490fd5b60e060020a634e487b710260009081526041600452602490fd5b600160a060020a038116811461383457600080fd5b801515811461383457600080fd5b63ffffffff8116811461383457600080fdfe09c64bee251b684a6bb80ce179dd520c001481b7c3d7781f1502e3052af474cf8be0079c531659141344cd1fd0a4f28419497f9722a3daafe3b4186f6b6457e0ddf252ad1be2c89b69c2b068fc378daa952ba7f163c4a11628f55a4df523b3efa2646970667358221220b8ca8e3f5eeb807e8cf805d265378612d9d71bb0d6fdeabb431e558b561ea73d64736f6c63430008030033",
  "immutableReferences": {},
  "source": "pragma solidity ^0.8.3;\n\nimport \"@openzeppelin/contracts/token/ERC20/IERC20.sol\";\nimport \"@openzeppelin/contracts-upgradeable/utils/math/SafeMathUpgradeable.sol\";\nimport \"./ProductToken.sol\";\nimport \"./interface/IVNFT.sol\";\nimport \"./interface/ITokenUtils.sol\";\n\n/// @title ProductTokenV1\n/// @notice This is version 1 of the product token implementation.\n/// @dev This contract builds on top of version 0 by including transaction logics, such as buy and sell transfers\n///    and exchange rate computation by including a price oracle.\ncontract ProductTokenV1 is ProductToken {\n\tusing SafeMathUpgradeable for uint256;\n\n    event Update(address daiAddress, address chainlinkAddress);\n    event UpdateHsToken(address daiAddress, address chainlinkAddress);\n\n    struct supplierInfo {\n        uint256 amount;\n        address wallet;\n    }\n    struct UserInfo {\n        uint256 amount;\n        uint256 rewardDebt;\n        uint256[] records;\n    }\n    struct PoolInfo {\n        uint256 amount; // record the entire pool vaule\n        uint256 accRewardPerShare; // Accumulated reward per share\n        uint256 tokenReward; //total reward\n    }\n    struct voucherInfo {\n        address addr;\n        IVNFT instance;\n        uint256 tokenId;\n        bool isEnable;\n    }\n\n    uint256 constant public  INDEX_ETH  = 0;\n    uint256 constant public  INDEX_HIGH = 1;\n    uint256 constant public  INDEX_DAI  = 2;\n\n    supplierInfo public supplier;\n    PoolInfo public poolInfo;\n    voucherInfo public voucher;\n    mapping (address => UserInfo) public userInfo;\n    ITokenUtils private _tokenUtils;\n\n    function setupTokenUtils(address addr_) external virtual onlyOwner {\n        require(addr_ != address(0));\n        _tokenUtils = ITokenUtils(addr_);\n    }\n\n    function buyETH() external virtual payable onlyIfTradable {\n        require(_tokenUtils.isSupportIds(INDEX_ETH), 'not support');\n        require(msg.value > 0, \"invalid value\");\n\n        uint256 accValue = _tokenUtils.toAccValue(msg.value, INDEX_ETH);\n\n        (uint256 amount,uint256 change,,uint256 fee) = _buy(accValue);\n\n        if (amount > 0) {\n            if(change > 0) {\n                change = _tokenUtils.toOrigValue(change, INDEX_ETH);\n                payable(msg.sender).transfer(change);\n            }\n            _updateSupplierFee(fee.mul(1e12).div(8e12));\n            fee = _tokenUtils.toOrigValue(fee, INDEX_HIGH);\n            poolInfo.tokenReward = poolInfo.tokenReward.add(fee.mul(6e12).div(8e12));\n        }else {\n            payable(msg.sender).transfer(msg.value);\n        }\n    }\n\n    function buyERC20(uint256 ids_, uint256 maxPrice_) external virtual onlyIfTradable {\n        require(_tokenUtils.isSupportIds(ids_), 'not support');\n        require(maxPrice_ > 0, \"invalid max price\");\n\n        IERC20 instance =  IERC20(_tokenUtils.getAddressByIds(ids_));\n        bool success = instance.transferFrom(msg.sender, address(this), maxPrice_);\n        require(success, \"Purchase failed.\");\n\n        uint256 accValue = _tokenUtils.toAccValue(maxPrice_, ids_);\n\n        (uint256 amount,uint256 change, uint price, uint256 fee)  = _buy(accValue);\n        if (amount > 0) {\n            if(change > 0) {\n                change = _tokenUtils.toOrigValue(change, ids_);\n                instance.transfer(msg.sender, change);\n            }\n            _updateSupplierFee(fee.mul(1e12).div(8e12));\n            fee = _tokenUtils.toOrigValue(fee, INDEX_HIGH);\n            poolInfo.tokenReward = poolInfo.tokenReward.add(fee.mul(6e12).div(8e12));\n            if(ids_ == INDEX_HIGH) {\n                price = _tokenUtils.toOrigValue(price, INDEX_HIGH);\n                UserInfo storage user = userInfo[msg.sender];\n                PoolInfo storage pool = poolInfo;\n                uint256 pending = user.amount.mul(pool.accRewardPerShare).div(1e12).sub(user.rewardDebt);\n                if(pending > 0) {\n                    instance.transfer(msg.sender, pending);\n                }\n                poolInfo.amount = poolInfo.amount.add(price);\n                updatePool();\n                _updateUserInfo(price);\n            }\n        }else { // If token transaction failed\n            instance.transfer(msg.sender, maxPrice_);\n        }\n    }\n\n    function sell(uint32 amount_, bool isHarvest_) external virtual onlyIfTradable {\n        require(_tokenUtils.isSupportIds(INDEX_HIGH), 'not support');\n        require(balanceOf(msg.sender) >= amount_ || amount_ > 0, 'invalid amount');\n\n        address highAddress = _tokenUtils.getAddressByIds(INDEX_HIGH);\n\n        (uint256 price, uint256 fee )= _sellForAmount(amount_);\n\n        _updateSellStaking(amount_, isHarvest_);\n\n        uint256 accValue = _tokenUtils.toOrigValue(price, INDEX_HIGH);\n        bool success = IERC20(highAddress).transfer(msg.sender, accValue);\n        _updateSupplierFee(fee.mul(1e12).div(2e12));\n        require(success, \"selling token failed\");\n    }\n\n    /**\n    * @dev When user wants to trade in their token for retail product\n    *\n    * @param amount_                   amount of tokens that user wants to trade in.\n    */\n    function tradein(uint32 amount_, bool isHarvest_) external virtual onlyIfTradable {\n        require(_tokenUtils.isSupportIds(INDEX_HIGH), 'not support');\n        require(amount_ > 0, \"Amount must be non-zero.\");\n        require(balanceOf(msg.sender) >= amount_, \"Insufficient tokens to burn.\");\n\n        (uint256 reimburseAmount, uint fee) = _sellReturn(amount_);\n\n        uint256 tradinReturn = calculateTradinReturn(amount_);\n        _updateSupplierFee(fee.mul(1e13).div(2e13).add(tradinReturn));\n        reimburseAmount = reimburseAmount.sub(fee);\n        _addEscrow(amount_,  _tokenUtils.toOrigValue(reimburseAmount, INDEX_HIGH));\n        _burn(msg.sender, amount_);\n        tradeinCount = tradeinCount + amount_;\n        tradeinReserveBalance = tradeinReserveBalance.add(tradinReturn);\n\n        _updateSellStaking(amount_, isHarvest_);\n\n        emit Tradein(msg.sender, amount_);\n    }\n\n    function updatePool() public virtual{\n        uint256 supply = poolInfo.amount;\n        if (supply == 0) {\n            poolInfo.accRewardPerShare = 0;\n            return;\n        }\n        poolInfo.accRewardPerShare = poolInfo.accRewardPerShare.add(poolInfo.tokenReward.mul(1e12).div(supply));\n    }\n\n    function _updateSellStaking(uint32 amount_, bool isHarvest_) internal virtual {\n        if(userInfo[msg.sender].amount > 0) {\n            address highAddress = _tokenUtils.getAddressByIds(INDEX_HIGH);\n            UserInfo storage user = userInfo[msg.sender];\n            if(isHarvest_ || balanceOf(msg.sender) <= user.records.length) {\n                uint max = uint256(amount_);\n                if(max > user.records.length) {\n                    max = user.records.length;\n                }\n                uint256 value = 0;\n                for(uint i = 0; i < max; i++) {\n                    value = value.add(user.records[user.records.length.sub(1)]);\n                    user.records.pop();\n                }\n                PoolInfo storage pool = poolInfo;\n                uint256 pending = user.amount.mul(pool.accRewardPerShare).div(1e12).sub(user.rewardDebt);\n\n                poolInfo.amount = poolInfo.amount.sub(value);\n                if(pending > 0) {\n                    IERC20(highAddress).transfer(msg.sender, pending);\n\n                }\n                user.amount = user.amount.sub(value);\n                user.rewardDebt = user.amount.mul(poolInfo.accRewardPerShare).div(1e12);\n            }\n        }\n    }\n\n    function _updateUserInfo(uint256 price_ ) internal virtual {\n        UserInfo storage user = userInfo[msg.sender];\n        user.amount = user.amount.add(price_);\n        user.records.push(price_);\n        user.rewardDebt = user.amount.mul(poolInfo.accRewardPerShare).div(1e12);\n    }\n\n    function getCurrentPriceByIds(uint256 ids_) external view virtual returns (uint256) {\n        require(_tokenUtils.isSupportIds(ids_), 'not support');\n        return _tokenUtils.toOrigValue(getCurrentPrice(), ids_);\n    }\n\n    function updateSupplierInfo( address wallet_) external onlyOwner {\n        require(wallet_!=address(0), \"Address is invalid\");\n        supplier.wallet = wallet_;\n    }\n\n    function claimSupplier(uint256 amount_) external virtual {\n        require(supplier.wallet!=address(0), \"wallet is invalid\");\n        require(msg.sender == supplier.wallet, \"The address is not allowed\");\n        address highAddress = _tokenUtils.getAddressByIds(INDEX_HIGH);\n        IERC20 high = IERC20(highAddress);\n        if (amount_ <= supplier.amount){\n            bool success = high.transfer(msg.sender, amount_);\n            if (success) {\n                supplier.amount = supplier.amount.sub(amount_);\n            }\n        }\n    }\n\n    function _updateSupplierFee(uint256 fee) internal virtual {\n        if( fee > 0 ) {\n            uint256 charge = _tokenUtils.toOrigValue(fee, INDEX_HIGH);\n            supplier.amount = supplier.amount.add(charge);\n        }\n    }\n\n    /**\n    * @dev this function returns the amount of reserve balance that the supplier can withdraw from the dapp.\n    */\n    function getSupplierBalance() public view virtual returns (uint256) {\n        return supplier.amount;\n    }\n\n    /**\n    * @dev A method that refunds the value of a product to a buyer/customer.\n    *\n    * @param buyer_       The wallet address of the owner whose product token is under the redemption process\n    * @param value_       The market value of the token being redeemed\n    *\n    */\n    function _refund(address buyer_, uint256 value_) internal virtual override {\n        address highAddress = _tokenUtils.getAddressByIds(INDEX_HIGH);\n\n        bool success = IERC20(highAddress).transfer(buyer_, value_);\n        require(success, \"refund token failed\");\n    }\n\n    /**\n    * @dev A method allow us to withdraw liquidity (eth) from the contract\n    * Since eth is not used as a return currency, we need to withdraw eth from the system.\n    *\n    * @param value_       the value of ether\n    *\n    */\n    function withdrawEther(uint256 value_) payable external virtual onlyOwner {\n        require(address(this).balance > 0, \"no enough ether\");\n        payable(msg.sender).transfer(value_);\n    }\n\n    function withdrawERC20(uint256 ids_, uint256 amount_, address to_) external virtual onlyOwner{\n        require(_tokenUtils.isValidIds(ids_), 'not invalid id');\n        require(to_ != address(0), \"invalid address\");\n        address highAddress = _tokenUtils.getAddressByIds(ids_);\n        IERC20 instance = IERC20(highAddress);\n        require(amount_ <= instance.balanceOf(address(this)), 'invalid amount');\n        instance.transfer(to_, amount_);\n    }\n\n    function getUserInfo(address addr_) external view virtual returns( UserInfo memory) {\n        require(addr_ != address(0), 'invalid address');\n        return userInfo[addr_];\n    }\n\n    function getPoolInfo() external view virtual returns( PoolInfo memory) {\n        return poolInfo;\n    }\n\n    function getSupplierInfo() external view virtual returns( supplierInfo memory) {\n        return supplier;\n    }\n}\n",
  "sourcePath": "/Users/jack/Documents/GitHub/HighStreet/client/src/contracts/ProductTokenV1.sol",
  "compiler": {
    "name": "solc",
    "version": "0.8.3+commit.8d00100c.Emscripten.clang"
  },
  "schemaVersion": "3.4.0",
  "updatedAt": "2021-09-16T10:31:19.581Z",
  "devdoc": {
    "details": "This contract builds on top of version 0 by including transaction logics, such as buy and sell transfers    and exchange rate computation by including a price oracle.",
    "kind": "dev",
    "methods": {
      "allowance(address,address)": {
        "details": "See {IERC20-allowance}."
      },
      "approve(address,uint256)": {
        "details": "See {IERC20-approve}. Requirements: - `spender` cannot be the zero address."
      },
      "balanceOf(address)": {
        "details": "See {IERC20-balanceOf}."
      },
      "calculateBuyReturn(uint256)": {
        "details": "Function that computes number of product tokens one can buy given an amount in reserve token.",
        "params": {
          "_amountReserve": "purchaing amount in reserve token (dai)(with 4% platform fee)"
        },
        "returns": {
          "mintAmount": "             number of tokens in traded token that can be purchased by given amount."
        }
      },
      "calculateSellReturn(uint32)": {
        "details": "Function that computes selling price in reserve tokens given an amount in traded token.",
        "params": {
          "_amountProduct": "selling amount in product token"
        },
        "returns": {
          "soldAmount": "             total amount that will be transferred to the seller (with 2% platform fee)."
        }
      },
      "decimals()": {
        "details": "Returns the number of decimals used to get its user representation. For example, if `decimals` equals `2`, a balance of `505` tokens should be displayed to a user as `5,05` (`505 / 10 ** 2`). Tokens usually opt for a value of 18, imitating the relationship between Ether and Wei. This is the value {ERC20} uses, unless this function is overloaded; NOTE: This information is only used for _display_ purposes: it in no way affects any of the arithmetic of the contract, including {IERC20-balanceOf} and {IERC20-transfer}."
      },
      "decreaseAllowance(address,uint256)": {
        "details": "Atomically decreases the allowance granted to `spender` by the caller. This is an alternative to {approve} that can be used as a mitigation for problems described in {IERC20-approve}. Emits an {Approval} event indicating the updated allowance. Requirements: - `spender` cannot be the zero address. - `spender` must have allowance for the caller of at least `subtractedValue`."
      },
      "getAvailability()": {
        "details": "Function to check how many tokens of this product are currently available for purchase, by taking the difference between max cap count and current token in circulation or burned.",
        "returns": {
          "available": "               the number of tokens available"
        }
      },
      "getCurrentPrice()": {
        "details": "Function that computes current price for a token through bonding curve calculation based on parameters such as total supply, reserve balance, and reserve ratio.",
        "returns": {
          "price": "                  current price in reserve token (in our case, this is dai). (with 4% platform fee)"
        }
      },
      "getEscrowHistory(address)": {
        "details": "Return the list of all escrows created for a certain user",
        "params": {
          "_buyer": "The address of the buyer"
        },
        "returns": {
          "_0": "A list of past escrows"
        }
      },
      "getPriceForN(uint32)": {
        "details": "Function that computes price total for buying n token through bonding curve calculation based on parameters such as total supply, reserve balance, and reserve ratio.",
        "params": {
          "_amountProduct": "token amount in traded token"
        },
        "returns": {
          "price": "                  total price in reserve token (in our case, this is dai). (with 4% platform fee)"
        }
      },
      "getRedeemStatus(address,uint256)": {
        "details": "Get status of a particular redemption process",
        "params": {
          "_buyer": "The address of the buyer",
          "_id": "The cached id of the escrow, retrieved from database"
        },
        "returns": {
          "_0": "The current status"
        }
      },
      "getSupplierBalance()": {
        "details": "this function returns the amount of reserve balance that the supplier can withdraw from the dapp."
      },
      "increaseAllowance(address,uint256)": {
        "details": "Atomically increases the allowance granted to `spender` by the caller. This is an alternative to {approve} that can be used as a mitigation for problems described in {IERC20-approve}. Emits an {Approval} event indicating the updated allowance. Requirements: - `spender` cannot be the zero address."
      },
      "initialize(string,string,address,uint32,uint32,uint32,uint256)": {
        "details": "initializer function.",
        "params": {
          "_baseReserve": "the base amount of reserve tokens, in accordance to _supplyOffset.",
          "_maxTokenCount": "the amount of token that will exist for this type.",
          "_name": "the name of this token",
          "_reserveRatio": "the reserve ratio in the curve function. Number in parts per million",
          "_supplyOffset": "this amount is used to determine initial price.",
          "_symbol": "the symbol of this token"
        }
      },
      "isStateCompleted(uint8)": {
        "details": "Helper function to check whether a escrow state is completed",
        "params": {
          "_state": "The state to be checked"
        }
      },
      "launch()": {
        "details": "requires function to be called from owner. this enables customers to buy, sell, or redeem the product."
      },
      "name()": {
        "details": "Returns the name of the token."
      },
      "owner()": {
        "details": "Returns the address of the current owner."
      },
      "pause()": {
        "details": "requires function to be called from owner. this prevents customers from buying, selling, or redeeming the product."
      },
      "renounceOwnership()": {
        "details": "Leaves the contract without owner. It will not be possible to call `onlyOwner` functions anymore. Can only be called by the current owner. NOTE: Renouncing ownership will leave the contract without an owner, thereby removing any functionality that is only available to the owner."
      },
      "setBondingCurve(address)": {
        "details": "requires function to be called from owner. sets a bonding curve implementation for this product.",
        "params": {
          "_address": "the address of the bonding curve implementation"
        }
      },
      "symbol()": {
        "details": "Returns the symbol of the token, usually a shorter version of the name."
      },
      "totalSupply()": {
        "details": "See {IERC20-totalSupply}."
      },
      "tradein(uint32,bool)": {
        "details": "When user wants to trade in their token for retail product",
        "params": {
          "amount_": "amount of tokens that user wants to trade in."
        }
      },
      "transfer(address,uint256)": {
        "details": "See {IERC20-transfer}. Requirements: - `recipient` cannot be the zero address. - the caller must have a balance of at least `amount`."
      },
      "transferFrom(address,address,uint256)": {
        "details": "See {IERC20-transferFrom}. Emits an {Approval} event indicating the updated allowance. This is not required by the EIP. See the note at the beginning of {ERC20}. Requirements: - `sender` and `recipient` cannot be the zero address. - `sender` must have a balance of at least `amount`. - the caller must have allowance for ``sender``'s tokens of at least `amount`."
      },
      "transferOwnership(address)": {
        "details": "Transfers ownership of the contract to a new account (`newOwner`). Can only be called by the current owner."
      },
      "updateUserCompleted(address,uint256)": {
        "details": "used to update the status of redemption to \"User Complete\" after an escrow process has been started.",
        "params": {
          "buyer": "the wallet address of product buyer",
          "id": "the id of the escrow, returned to the user after starting of redemption process"
        }
      },
      "updateUserRefund(address,uint256)": {
        "details": "used to update the status of redemption to \"User Refunded\" after an escrow process has been started.",
        "params": {
          "buyer": "the wallet address of product buyer",
          "id": "the id of the escrow, returned to the user after starting of redemption process"
        }
      },
      "withdrawEther(uint256)": {
        "details": "A method allow us to withdraw liquidity (eth) from the contract Since eth is not used as a return currency, we need to withdraw eth from the system.",
        "params": {
          "value_": "the value of ether"
        }
      }
    },
    "title": "ProductTokenV1",
    "version": 1
  },
  "userdoc": {
    "kind": "user",
    "methods": {},
    "notice": "This is version 1 of the product token implementation.",
    "version": 1
  }
}