{
  "contractName": "ProductToken",
  "abi": [
    {
      "anonymous": false,
      "inputs": [
        {
          "indexed": true,
          "internalType": "address",
          "name": "owner",
          "type": "address"
        },
        {
          "indexed": true,
          "internalType": "address",
          "name": "spender",
          "type": "address"
        },
        {
          "indexed": false,
          "internalType": "uint256",
          "name": "value",
          "type": "uint256"
        }
      ],
      "name": "Approval",
      "type": "event"
    },
    {
      "anonymous": false,
      "inputs": [
        {
          "indexed": true,
          "internalType": "address",
          "name": "sender",
          "type": "address"
        },
        {
          "indexed": false,
          "internalType": "uint32",
          "name": "amount",
          "type": "uint32"
        },
        {
          "indexed": false,
          "internalType": "uint256",
          "name": "deposit",
          "type": "uint256"
        }
      ],
      "name": "Buy",
      "type": "event"
    },
    {
      "anonymous": false,
      "inputs": [
        {
          "indexed": true,
          "internalType": "address",
          "name": "previousOwner",
          "type": "address"
        },
        {
          "indexed": true,
          "internalType": "address",
          "name": "newOwner",
          "type": "address"
        }
      ],
      "name": "OwnershipTransferred",
      "type": "event"
    },
    {
      "anonymous": false,
      "inputs": [
        {
          "indexed": true,
          "internalType": "address",
          "name": "sender",
          "type": "address"
        },
        {
          "indexed": false,
          "internalType": "uint32",
          "name": "amount",
          "type": "uint32"
        },
        {
          "indexed": false,
          "internalType": "uint256",
          "name": "refund",
          "type": "uint256"
        }
      ],
      "name": "Sell",
      "type": "event"
    },
    {
      "anonymous": false,
      "inputs": [
        {
          "indexed": false,
          "internalType": "bool",
          "name": "isTradable",
          "type": "bool"
        }
      ],
      "name": "Tradable",
      "type": "event"
    },
    {
      "anonymous": false,
      "inputs": [
        {
          "indexed": true,
          "internalType": "address",
          "name": "sender",
          "type": "address"
        },
        {
          "indexed": false,
          "internalType": "uint32",
          "name": "amount",
          "type": "uint32"
        }
      ],
      "name": "Tradein",
      "type": "event"
    },
    {
      "anonymous": false,
      "inputs": [
        {
          "indexed": true,
          "internalType": "address",
          "name": "from",
          "type": "address"
        },
        {
          "indexed": true,
          "internalType": "address",
          "name": "to",
          "type": "address"
        },
        {
          "indexed": false,
          "internalType": "uint256",
          "name": "value",
          "type": "uint256"
        }
      ],
      "name": "Transfer",
      "type": "event"
    },
    {
      "anonymous": false,
      "inputs": [
        {
          "indexed": false,
          "internalType": "address",
          "name": "",
          "type": "address"
        },
        {
          "indexed": false,
          "internalType": "uint256",
          "name": "",
          "type": "uint256"
        },
        {
          "components": [
            {
              "internalType": "enum Escrow.escrowState",
              "name": "state",
              "type": "uint8"
            },
            {
              "internalType": "uint32",
              "name": "amount",
              "type": "uint32"
            },
            {
              "internalType": "uint256",
              "name": "value",
              "type": "uint256"
            }
          ],
          "indexed": false,
          "internalType": "struct Escrow.escrowInfo",
          "name": "",
          "type": "tuple"
        }
      ],
      "name": "escrowStateUpdated",
      "type": "event"
    },
    {
      "stateMutability": "nonpayable",
      "type": "fallback"
    },
    {
      "inputs": [
        {
          "internalType": "address",
          "name": "owner",
          "type": "address"
        },
        {
          "internalType": "address",
          "name": "spender",
          "type": "address"
        }
      ],
      "name": "allowance",
      "outputs": [
        {
          "internalType": "uint256",
          "name": "",
          "type": "uint256"
        }
      ],
      "stateMutability": "view",
      "type": "function"
    },
    {
      "inputs": [
        {
          "internalType": "address",
          "name": "spender",
          "type": "address"
        },
        {
          "internalType": "uint256",
          "name": "amount",
          "type": "uint256"
        }
      ],
      "name": "approve",
      "outputs": [
        {
          "internalType": "bool",
          "name": "",
          "type": "bool"
        }
      ],
      "stateMutability": "nonpayable",
      "type": "function"
    },
    {
      "inputs": [
        {
          "internalType": "address",
          "name": "account",
          "type": "address"
        }
      ],
      "name": "balanceOf",
      "outputs": [
        {
          "internalType": "uint256",
          "name": "",
          "type": "uint256"
        }
      ],
      "stateMutability": "view",
      "type": "function"
    },
    {
      "inputs": [
        {
          "internalType": "address",
          "name": "spender",
          "type": "address"
        },
        {
          "internalType": "uint256",
          "name": "subtractedValue",
          "type": "uint256"
        }
      ],
      "name": "decreaseAllowance",
      "outputs": [
        {
          "internalType": "bool",
          "name": "",
          "type": "bool"
        }
      ],
      "stateMutability": "nonpayable",
      "type": "function"
    },
    {
      "inputs": [
        {
          "internalType": "address",
          "name": "",
          "type": "address"
        },
        {
          "internalType": "uint256",
          "name": "",
          "type": "uint256"
        }
      ],
      "name": "escrowList",
      "outputs": [
        {
          "internalType": "enum Escrow.escrowState",
          "name": "state",
          "type": "uint8"
        },
        {
          "internalType": "uint32",
          "name": "amount",
          "type": "uint32"
        },
        {
          "internalType": "uint256",
          "name": "value",
          "type": "uint256"
        }
      ],
      "stateMutability": "view",
      "type": "function"
    },
    {
      "inputs": [
        {
          "internalType": "address",
          "name": "_buyer",
          "type": "address"
        }
      ],
      "name": "getEscrowHistory",
      "outputs": [
        {
          "components": [
            {
              "internalType": "enum Escrow.escrowState",
              "name": "state",
              "type": "uint8"
            },
            {
              "internalType": "uint32",
              "name": "amount",
              "type": "uint32"
            },
            {
              "internalType": "uint256",
              "name": "value",
              "type": "uint256"
            }
          ],
          "internalType": "struct Escrow.escrowInfo[]",
          "name": "",
          "type": "tuple[]"
        }
      ],
      "stateMutability": "view",
      "type": "function"
    },
    {
      "inputs": [
        {
          "internalType": "address",
          "name": "_buyer",
          "type": "address"
        },
        {
          "internalType": "uint256",
          "name": "_id",
          "type": "uint256"
        }
      ],
      "name": "getRedeemStatus",
      "outputs": [
        {
          "internalType": "enum Escrow.escrowState",
          "name": "",
          "type": "uint8"
        }
      ],
      "stateMutability": "view",
      "type": "function"
    },
    {
      "inputs": [
        {
          "internalType": "address",
          "name": "spender",
          "type": "address"
        },
        {
          "internalType": "uint256",
          "name": "addedValue",
          "type": "uint256"
        }
      ],
      "name": "increaseAllowance",
      "outputs": [
        {
          "internalType": "bool",
          "name": "",
          "type": "bool"
        }
      ],
      "stateMutability": "nonpayable",
      "type": "function"
    },
    {
      "inputs": [
        {
          "internalType": "enum Escrow.escrowState",
          "name": "_state",
          "type": "uint8"
        }
      ],
      "name": "isStateCompleted",
      "outputs": [
        {
          "internalType": "bool",
          "name": "",
          "type": "bool"
        }
      ],
      "stateMutability": "pure",
      "type": "function"
    },
    {
      "inputs": [],
      "name": "maxTokenCount",
      "outputs": [
        {
          "internalType": "uint32",
          "name": "",
          "type": "uint32"
        }
      ],
      "stateMutability": "view",
      "type": "function"
    },
    {
      "inputs": [],
      "name": "name",
      "outputs": [
        {
          "internalType": "string",
          "name": "",
          "type": "string"
        }
      ],
      "stateMutability": "view",
      "type": "function"
    },
    {
      "inputs": [],
      "name": "owner",
      "outputs": [
        {
          "internalType": "address",
          "name": "",
          "type": "address"
        }
      ],
      "stateMutability": "view",
      "type": "function"
    },
    {
      "inputs": [],
      "name": "renounceOwnership",
      "outputs": [],
      "stateMutability": "nonpayable",
      "type": "function"
    },
    {
      "inputs": [],
      "name": "reserveBalance",
      "outputs": [
        {
          "internalType": "uint256",
          "name": "",
          "type": "uint256"
        }
      ],
      "stateMutability": "view",
      "type": "function"
    },
    {
      "inputs": [],
      "name": "reserveRatio",
      "outputs": [
        {
          "internalType": "uint32",
          "name": "",
          "type": "uint32"
        }
      ],
      "stateMutability": "view",
      "type": "function"
    },
    {
      "inputs": [],
      "name": "symbol",
      "outputs": [
        {
          "internalType": "string",
          "name": "",
          "type": "string"
        }
      ],
      "stateMutability": "view",
      "type": "function"
    },
    {
      "inputs": [],
      "name": "totalSupply",
      "outputs": [
        {
          "internalType": "uint256",
          "name": "",
          "type": "uint256"
        }
      ],
      "stateMutability": "view",
      "type": "function"
    },
    {
      "inputs": [],
      "name": "tradeinCount",
      "outputs": [
        {
          "internalType": "uint32",
          "name": "",
          "type": "uint32"
        }
      ],
      "stateMutability": "view",
      "type": "function"
    },
    {
      "inputs": [],
      "name": "tradeinReserveBalance",
      "outputs": [
        {
          "internalType": "uint256",
          "name": "",
          "type": "uint256"
        }
      ],
      "stateMutability": "view",
      "type": "function"
    },
    {
      "inputs": [
        {
          "internalType": "address",
          "name": "recipient",
          "type": "address"
        },
        {
          "internalType": "uint256",
          "name": "amount",
          "type": "uint256"
        }
      ],
      "name": "transfer",
      "outputs": [
        {
          "internalType": "bool",
          "name": "",
          "type": "bool"
        }
      ],
      "stateMutability": "nonpayable",
      "type": "function"
    },
    {
      "inputs": [
        {
          "internalType": "address",
          "name": "sender",
          "type": "address"
        },
        {
          "internalType": "address",
          "name": "recipient",
          "type": "address"
        },
        {
          "internalType": "uint256",
          "name": "amount",
          "type": "uint256"
        }
      ],
      "name": "transferFrom",
      "outputs": [
        {
          "internalType": "bool",
          "name": "",
          "type": "bool"
        }
      ],
      "stateMutability": "nonpayable",
      "type": "function"
    },
    {
      "inputs": [
        {
          "internalType": "address",
          "name": "newOwner",
          "type": "address"
        }
      ],
      "name": "transferOwnership",
      "outputs": [],
      "stateMutability": "nonpayable",
      "type": "function"
    },
    {
      "inputs": [
        {
          "internalType": "string",
          "name": "_name",
          "type": "string"
        },
        {
          "internalType": "string",
          "name": "_symbol",
          "type": "string"
        },
        {
          "internalType": "address",
          "name": "_bondingCurveAddress",
          "type": "address"
        },
        {
          "internalType": "uint32",
          "name": "_reserveRatio",
          "type": "uint32"
        },
        {
          "internalType": "uint32",
          "name": "_maxTokenCount",
          "type": "uint32"
        },
        {
          "internalType": "uint32",
          "name": "_supplyOffset",
          "type": "uint32"
        },
        {
          "internalType": "uint256",
          "name": "_baseReserve",
          "type": "uint256"
        }
      ],
      "name": "initialize",
      "outputs": [],
      "stateMutability": "nonpayable",
      "type": "function"
    },
    {
      "inputs": [],
      "name": "decimals",
      "outputs": [
        {
          "internalType": "uint8",
          "name": "",
          "type": "uint8"
        }
      ],
      "stateMutability": "view",
      "type": "function"
    },
    {
      "inputs": [
        {
          "internalType": "address",
          "name": "_address",
          "type": "address"
        }
      ],
      "name": "setBondingCurve",
      "outputs": [],
      "stateMutability": "nonpayable",
      "type": "function"
    },
    {
      "inputs": [],
      "name": "launch",
      "outputs": [],
      "stateMutability": "nonpayable",
      "type": "function"
    },
    {
      "inputs": [],
      "name": "pause",
      "outputs": [],
      "stateMutability": "nonpayable",
      "type": "function"
    },
    {
      "inputs": [],
      "name": "getAvailability",
      "outputs": [
        {
          "internalType": "uint32",
          "name": "available",
          "type": "uint32"
        }
      ],
      "stateMutability": "view",
      "type": "function"
    },
    {
      "inputs": [],
      "name": "getCurrentPrice",
      "outputs": [
        {
          "internalType": "uint256",
          "name": "price",
          "type": "uint256"
        }
      ],
      "stateMutability": "view",
      "type": "function"
    },
    {
      "inputs": [
        {
          "internalType": "uint32",
          "name": "_amountProduct",
          "type": "uint32"
        }
      ],
      "name": "getPriceForN",
      "outputs": [
        {
          "internalType": "uint256",
          "name": "price",
          "type": "uint256"
        }
      ],
      "stateMutability": "view",
      "type": "function"
    },
    {
      "inputs": [
        {
          "internalType": "uint256",
          "name": "_amountReserve",
          "type": "uint256"
        }
      ],
      "name": "calculateBuyReturn",
      "outputs": [
        {
          "internalType": "uint32",
          "name": "mintAmount",
          "type": "uint32"
        }
      ],
      "stateMutability": "view",
      "type": "function"
    },
    {
      "inputs": [
        {
          "internalType": "uint32",
          "name": "_amountProduct",
          "type": "uint32"
        }
      ],
      "name": "calculateSellReturn",
      "outputs": [
        {
          "internalType": "uint256",
          "name": "soldAmount",
          "type": "uint256"
        }
      ],
      "stateMutability": "view",
      "type": "function"
    },
    {
      "inputs": [
        {
          "internalType": "uint32",
          "name": "_amount",
          "type": "uint32"
        }
      ],
      "name": "calculateTradinReturn",
      "outputs": [
        {
          "internalType": "uint256",
          "name": "",
          "type": "uint256"
        }
      ],
      "stateMutability": "view",
      "type": "function"
    },
    {
      "inputs": [
        {
          "internalType": "address",
          "name": "buyer",
          "type": "address"
        },
        {
          "internalType": "uint256",
          "name": "id",
          "type": "uint256"
        }
      ],
      "name": "updateUserCompleted",
      "outputs": [],
      "stateMutability": "nonpayable",
      "type": "function"
    },
    {
      "inputs": [
        {
          "internalType": "address",
          "name": "buyer",
          "type": "address"
        },
        {
          "internalType": "uint256",
          "name": "id",
          "type": "uint256"
        }
      ],
      "name": "updateUserRefund",
      "outputs": [],
      "stateMutability": "nonpayable",
      "type": "function"
    },
    {
      "inputs": [
        {
          "internalType": "address",
          "name": "addr_",
          "type": "address"
        }
      ],
      "name": "setManager",
      "outputs": [],
      "stateMutability": "nonpayable",
      "type": "function"
    },
    {
      "inputs": [],
      "name": "getManager",
      "outputs": [
        {
          "internalType": "address",
          "name": "",
          "type": "address"
        }
      ],
      "stateMutability": "view",
      "type": "function"
    }
  ],
  "bytecode": "0x608060405234801561001057600080fd5b50612689806100206000396000f3fe608060405234801561001057600080fd5b50600436106101eb5760003560e060020a900480638456cb5911610114578063c757d4c7116100ac578063c757d4c71461041d578063d0ebdbe714610430578063d500958414610443578063dd304b1a14610454578063dd62ed3e14610474578063e67dc518146104ad578063eb91d37e146104b6578063efea8a13146104be578063f2fde38b146104d1578063f97511d3146104e4576101eb565b80638456cb591461036d5780638da5cb5b1461037557806395d89b41146103955780639b9ffbf31461039d578063a10954fe146103bf578063a457c2d7146103c8578063a9059cbb146103db578063ba7a93b6146103ee578063c4e627c214610405576101eb565b8063313ce56711610187578063313ce567146102b957806339509351146102c857806343ff1fb8146102db578063491052cd146102ee5780636e74607b1461030157806370a0823114610321578063715018a61461034a5780637a53e04014610352578063828f3a9c1461035a576101eb565b806301339c21146101ed57806306fdde03146101f5578063095ea7b3146102135780630c7d5cd8146102365780630ccee99b1461025b57806318160ddd1461026e57806319d5b58714610280578063224e4f481461029357806323b872dd146102a6575b005b6101eb6104f7565b6101fd6105df565b60405161020a9190612366565b60405180910390f35b6102266102213660046120f5565b610671565b604051901515815260200161020a565b609b546102469063ffffffff1681565b60405163ffffffff909116815260200161020a565b6101eb6102693660046120f5565b610688565b6035545b60405190815260200161020a565b61027261028e366004612222565b61070f565b6102726102a1366004612222565b610840565b6102266102b43660046120ba565b610865565b6040516000815260200161020a565b6102266102d63660046120f5565b61092e565b6101eb6102e936600461206e565b610965565b6102266102fc36600461211e565b610a12565b61031461030f36600461206e565b610a6c565b60405161020a91906122cd565b61027261032f36600461206e565b600160a060020a031660009081526033602052604090205490565b6101eb610b52565b610246610bbc565b6102466103683660046121f2565b610c02565b6101eb610c16565b61037d610ce7565b604051600160a060020a03909116815260200161020a565b6101fd610cf6565b6103b06103ab3660046120f5565b610d05565b60405161020a93929190612341565b61027260995481565b6102266103d63660046120f5565b610d50565b6102266103e93660046120f5565b610df1565b609b5461024690604060020a900463ffffffff1681565b609b5461024690640100000000900463ffffffff1681565b6101eb61042b3660046120f5565b610dfe565b6101eb61043e36600461206e565b610edd565b609c54600160a060020a031661037d565b6104676104623660046120f5565b610f8a565b60405161020a9190612333565b610272610482366004612088565b600160a060020a03918216600090815260346020908152604080832093909416825291909152205490565b610272609a5481565b610272610fe0565b6101eb6104cc36600461213d565b610fec565b6101eb6104df36600461206e565b611081565b6102726104f2366004612222565b61117c565b33610500610ce7565b600160a060020a0316146105325760405160e560020a62461bcd028152600401610529906124bb565b60405180910390fd5b60985460ff16156105995760405160e560020a62461bcd02815260206004820152602560248201527f5468652070726f6475637420746f6b656e20697320616c7265616479206c6175604482015260da60020a641b98da1959026064820152608401610529565b6098805460ff191660019081179091556040519081527f65c5ccecef030677b73a1403e7e69ef84d05db9d1732959d543d32f4419909b8906020015b60405180910390a1565b6060603680546105ee906125ae565b80601f016020809104026020016040519081016040528092919081815260200182805461061a906125ae565b80156106675780601f1061063c57610100808354040283529160200191610667565b820191906000526020600020905b81548152906001019060200180831161064a57829003601f168201915b5050505050905090565b600061067e338484611199565b5060015b92915050565b610690610ce7565b600160a060020a031633600160a060020a031614806106b95750609c54600160a060020a031633145b6106d85760405160e560020a62461bcd02815260040161052990612484565b600160a060020a0382166107015760405160e560020a62461bcd028152600401610529906123b9565b61070b82826112c9565b5050565b6000808263ffffffff16116107695760405160e560020a62461bcd02815260206004820152600e60248201527f696e76616c696420616d6f756e740000000000000000000000000000000000006044820152606401610529565b609b546000906107a09063ffffffff606060020a820481169161079a9187811691604060020a900481169061145416565b90611454565b609d54609a54609b5460405160e060020a631c949873028152939450600160a060020a0390921692631c949873926107e7928692909163ffffffff169089906004016124f0565b60206040518083038186803b1580156107ff57600080fd5b505afa158015610813573d6000803e3d6000fd5b505050506040513d601f19601f82011682018060405250810190610837919061220a565b9150505b919050565b600080600061084e84611467565b909250905061085d8282611530565b949350505050565b600061087284848461153c565b600160a060020a03841660009081526034602090815260408083203384529091529020548281101561090f5760405160e560020a62461bcd02815260206004820152602860248201527f45524332303a207472616e7366657220616d6f756e742065786365656473206160448201527f6c6c6f77616e63650000000000000000000000000000000000000000000000006064820152608401610529565b610923853361091e8685612572565b611199565b506001949350505050565b336000818152603460209081526040808320600160a060020a0387168452909152812054909161067e91859061091e908690612518565b3361096e610ce7565b600160a060020a0316146109975760405160e560020a62461bcd028152600401610529906124bb565b600160a060020a0381166109f05760405160e560020a62461bcd02815260206004820152600f60248201527f496e76616c6964206164647265737300000000000000000000000000000000006044820152606401610529565b609d8054600160a060020a031916600160a060020a0392909216919091179055565b60006003826003811115610a395760e060020a634e487b7102600052602160045260246000fd5b148061068257506002826003811115610a655760e060020a634e487b7102600052602160045260246000fd5b1492915050565b600160a060020a0381166000908152606560209081526040808320805482518185028101850190935280835260609492939192909184015b82821015610b47576000848152602090206040805160608101909152600284029091018054829060ff166003811115610af05760e060020a634e487b7102600052602160045260246000fd5b6003811115610b125760e060020a634e487b7102600052602160045260246000fd5b81528154610100900463ffffffff16602080830191909152600192830154604090920191909152918352929092019101610aa4565b505050509050919050565b33610b5b610ce7565b600160a060020a031614610b845760405160e560020a62461bcd028152600401610529906124bb565b606654604051600091600160a060020a031690600080516020612634833981519152908390a360668054600160a060020a0319169055565b609b54600090604060020a900463ffffffff16610bd860355490565b609b54610bf39190640100000000900463ffffffff16612589565b610bfd9190612589565b905090565b600080610c0e8361173a565b509392505050565b33610c1f610ce7565b600160a060020a031614610c485760405160e560020a62461bcd028152600401610529906124bb565b60985460ff16610cac5760405160e560020a62461bcd02815260206004820152602360248201527f5468652070726f6475637420746f6b656e20697320616c726561647920706175604482015260ea60020a621cd959026064820152608401610529565b6098805460ff19169055604051600081527f65c5ccecef030677b73a1403e7e69ef84d05db9d1732959d543d32f4419909b8906020016105d5565b606654600160a060020a031690565b6060603780546105ee906125ae565b60656020528160005260406000208181548110610d2157600080fd5b60009182526020909120600290910201805460019091015460ff8216935061010090910463ffffffff16915083565b336000908152603460209081526040808320600160a060020a038616845290915281205482811015610dd85760405160e560020a62461bcd02815260206004820152602560248201527f45524332303a2064656372656173656420616c6c6f77616e63652062656c6f77604482015260d860020a64207a65726f026064820152608401610529565b610de7338561091e8685612572565b5060019392505050565b600061067e33848461153c565b610e06610ce7565b600160a060020a031633600160a060020a03161480610e2f5750609c54600160a060020a031633145b610e4e5760405160e560020a62461bcd02815260040161052990612484565b600160a060020a038216610e775760405160e560020a62461bcd028152600401610529906123b9565b6000610e83838361183f565b905060008111610ed85760405160e560020a62461bcd02815260206004820152600d60248201527f496e76616c69642076616c7565000000000000000000000000000000000000006044820152606401610529565b505050565b33610ee6610ce7565b600160a060020a031614610f0f5760405160e560020a62461bcd028152600401610529906124bb565b600160a060020a038116610f685760405160e560020a62461bcd02815260206004820152600f60248201527f696e76616c6964206164647265737300000000000000000000000000000000006044820152606401610529565b609c8054600160a060020a031916600160a060020a0392909216919091179055565b600160a060020a0382166000908152606560205260408120805483908110610fc55760e060020a634e487b7102600052603260045260246000fd5b600091825260209091206002909102015460ff169392505050565b6000610bfd600161117c565b600054610100900460ff1680611005575060005460ff16155b6110245760405160e560020a62461bcd02815260040161052990612427565b600054610100900460ff16158015611046576000805461ffff19166101011790555b61104e611a02565b6110588888611a81565b6110658686868686611b03565b8015611077576000805461ff00191690555b5050505050505050565b3361108a610ce7565b600160a060020a0316146110b35760405160e560020a62461bcd028152600401610529906124bb565b600160a060020a0381166111325760405160e560020a62461bcd02815260206004820152602660248201527f4f776e61626c653a206e6577206f776e657220697320746865207a65726f206160448201527f64647265737300000000000000000000000000000000000000000000000000006064820152608401610529565b606654604051600160a060020a0380841692169060008051602061263483398151915290600090a360668054600160a060020a031916600160a060020a0392909216919091179055565b600080600061118a84611c97565b909250905061085d8282611454565b600160a060020a0383166112015760405160e560020a62461bcd028152602060048201526024808201527f45524332303a20617070726f76652066726f6d20746865207a65726f20616464604482015260e060020a6372657373026064820152608401610529565b600160a060020a0382166112685760405160e560020a62461bcd02815260206004820152602260248201527f45524332303a20617070726f766520746f20746865207a65726f206164647265604482015260f060020a617373026064820152608401610529565b600160a060020a0383811660008181526034602090815260408083209487168084529482529182902085905590518481527f8c5be1e5ebec7d5bd14f71427d1e84f3dd0314c0f7b2291e5b200ac8c7c3b925910160405180910390a3505050565b600160a060020a038216600090815260656020526040902080546113229190839081106113095760e060020a634e487b7102600052603260045260246000fd5b600091825260209091206002909102015460ff16610a12565b156113425760405160e560020a62461bcd028152600401610529906123f0565b600160a060020a0382166000908152606560205260409020805460039190839081106113815760e060020a634e487b7102600052603260045260246000fd5b60009182526020909120600290910201805460ff191660018360038111156113bc5760e060020a634e487b7102600052602160045260246000fd5b02179055507f09c64bee251b684a6bb80ce179dd520c001481b7c3d7781f1502e3052af474cf82826065600086600160a060020a0316600160a060020a03168152602001908152602001600020848154811061142b5760e060020a634e487b7102600052603260045260246000fd5b906000526020600020906002020160405161144893929190612280565b60405180910390a15050565b60006114608284612518565b9392505050565b609d5460009081908190600160a060020a0316631c949873611487611d4e565b609954609b5460405163ffffffff85811660e060020a0282526114b294939216908a906004016124f0565b60206040518083038186803b1580156114ca57600080fd5b505afa1580156114de573d6000803e3d6000fd5b505050506040513d601f19601f82011682018060405250810190611502919061220a565b9050600061152464e8d4a5100061151e846404a817c800611d7b565b90611d87565b91935090915050915091565b60006114608284612572565b600160a060020a0383166115a65760405160e560020a62461bcd02815260206004820152602560248201527f45524332303a207472616e736665722066726f6d20746865207a65726f206164604482015260d860020a646472657373026064820152608401610529565b600160a060020a03821661160e5760405160e560020a62461bcd02815260206004820152602360248201527f45524332303a207472616e7366657220746f20746865207a65726f2061646472604482015260e860020a62657373026064820152608401610529565b600160a060020a038316600090815260336020526040902054818110156116a05760405160e560020a62461bcd02815260206004820152602660248201527f45524332303a207472616e7366657220616d6f756e742065786365656473206260448201527f616c616e636500000000000000000000000000000000000000000000000000006064820152608401610529565b6116aa8282612572565b600160a060020a0380861660009081526033602052604080822093909355908516815290812080548492906116e0908490612518565b9250508190555082600160a060020a031684600160a060020a03167fddf252ad1be2c89b69c2b068fc378daa952ba7f163c4a11628f55a4df523b3ef8460405161172c91815260200190565b60405180910390a350505050565b6000808061175664fb7504300061151e8664e8d4a51000611d7b565b9050600061177264e8d4a5100061151e84640df8475800611d7b565b609d54909150600090600160a060020a0316639f4ae6b0611791611d4e565b609954609b5463ffffffff908116906117ae908990899061153016565b60405163ffffffff86811660e060020a0282529485166004820152602481019390935292166044820152606481019190915260840160206040518083038186803b1580156117fb57600080fd5b505afa15801561180f573d6000803e3d6000fd5b505050506040513d601f19601f82011682018060405250810190611833919061223e565b94509092505050915091565b600160a060020a0382166000908152606560205260408120805461187f9190849081106113095760e060020a634e487b7102600052603260045260246000fd5b1561189f5760405160e560020a62461bcd028152600401610529906123f0565b600160a060020a0383166000908152606560205260409020805460029190849081106118de5760e060020a634e487b7102600052603260045260246000fd5b60009182526020909120600290910201805460ff191660018360038111156119195760e060020a634e487b7102600052602160045260246000fd5b02179055507f09c64bee251b684a6bb80ce179dd520c001481b7c3d7781f1502e3052af474cf83836065600087600160a060020a0316600160a060020a0316815260200190815260200160002085815481106119885760e060020a634e487b7102600052603260045260246000fd5b90600052602060002090600202016040516119a593929190612280565b60405180910390a1600160a060020a03831660009081526065602052604090208054839081106119e85760e060020a634e487b7102600052603260045260246000fd5b906000526020600020906002020160010154905092915050565b600054610100900460ff1680611a1b575060005460ff16155b611a3a5760405160e560020a62461bcd02815260040161052990612427565b600054610100900460ff16158015611a5c576000805461ffff19166101011790555b611a64611d93565b611a6c611e00565b8015611a7e576000805461ff00191690555b50565b600054610100900460ff1680611a9a575060005460ff16155b611ab95760405160e560020a62461bcd02815260040161052990612427565b600054610100900460ff16158015611adb576000805461ffff19166101011790555b611ae3611d93565b611aed8383611e9f565b8015610ed8576000805461ff0019169055505050565b600054610100900460ff1680611b1c575060005460ff16155b611b3b5760405160e560020a62461bcd02815260040161052990612427565b600054610100900460ff16158015611b5d576000805461ffff19166101011790555b60008463ffffffff1611611bb65760405160e560020a62461bcd02815260206004820152601860248201527f496e76616c6964206d617820746f6b656e20636f756e742e00000000000000006044820152606401610529565b60008563ffffffff1611611c0f5760405160e560020a62461bcd02815260206004820152601560248201527f496e76616c6964207265736572766520726174696f00000000000000000000006044820152606401610529565b609d8054600160a060020a038816600160a060020a03199091161790556099829055609a829055609b805463ffffffff8681166401000000000267ffffffffffffffff19828816606060020a02166fffffffff00000000ffffffffffffffff1990931692909217908816171790558015611c8f576000805461ff00191690555b505050505050565b609d5460009081908190600160a060020a031663bff82d84611cb7611d4e565b609954609b5460405163ffffffff85811660e060020a028252611ce294939216908a906004016124f0565b60206040518083038186803b158015611cfa57600080fd5b505afa158015611d0e573d6000803e3d6000fd5b505050506040513d601f19601f82011682018060405250810190611d32919061220a565b9050600061152464e8d4a5100061151e846412a05f2000611d7b565b609b54600090610bfd9063ffffffff606060020a820481169161079a91604060020a909104168160355490565b60006114608284612553565b60006114608284612530565b600054610100900460ff1680611dac575060005460ff16155b611dcb5760405160e560020a62461bcd02815260040161052990612427565b600054610100900460ff16158015611a6c576000805461ffff19166101011790558015611a7e576000805461ff001916905550565b600054610100900460ff1680611e19575060005460ff16155b611e385760405160e560020a62461bcd02815260040161052990612427565b600054610100900460ff16158015611e5a576000805461ffff19166101011790555b60668054600160a060020a031916339081179091556040518190600090600080516020612634833981519152908290a3508015611a7e576000805461ff001916905550565b600054610100900460ff1680611eb8575060005460ff16155b611ed75760405160e560020a62461bcd02815260040161052990612427565b600054610100900460ff16158015611ef9576000805461ffff19166101011790555b8251611f0c906036906020860190611f37565b508151611f20906037906020850190611f37565b508015610ed8576000805461ff0019169055505050565b828054611f43906125ae565b90600052602060002090601f016020900481019282611f655760008555611fab565b82601f10611f7e57805160ff1916838001178555611fab565b82800160010185558215611fab579182015b82811115611fab578251825591602001919060010190611f90565b50611fb7929150611fbb565b5090565b5b80821115611fb75760008155600101611fbc565b8035600160a060020a038116811461083b57600080fd5b600082601f830112611ff7578081fd5b813567ffffffffffffffff8082111561201257612012612607565b604051601f8301601f19908116603f0116810190828211818310171561203a5761203a612607565b81604052838152866020858801011115612052578485fd5b8360208701602083013792830160200193909352509392505050565b60006020828403121561207f578081fd5b61146082611fd0565b6000806040838503121561209a578081fd5b6120a383611fd0565b91506120b160208401611fd0565b90509250929050565b6000806000606084860312156120ce578081fd5b6120d784611fd0565b92506120e560208501611fd0565b9150604084013590509250925092565b60008060408385031215612107578182fd5b61211083611fd0565b946020939093013593505050565b60006020828403121561212f578081fd5b813560048110611460578182fd5b600080600080600080600060e0888a031215612157578283fd5b873567ffffffffffffffff8082111561216e578485fd5b61217a8b838c01611fe7565b985060208a013591508082111561218f578485fd5b5061219c8a828b01611fe7565b9650506121ab60408901611fd0565b945060608801356121bb81612621565b935060808801356121cb81612621565b925060a08801356121db81612621565b8092505060c0880135905092959891949750929550565b600060208284031215612203578081fd5b5035919050565b60006020828403121561221b578081fd5b5051919050565b600060208284031215612233578081fd5b813561146081612621565b60006020828403121561224f578081fd5b815161146081612621565b6004811061227c5760e060020a634e487b710260009081526021600452602490fd5b9052565b600160a060020a038416815260208101839052815460a08201906122aa6040840160ff831661225a565b63ffffffff61010082041660608401525060018301546080830152949350505050565b602080825282518282018190526000919060409081850190868401855b828110156123265781516122ff85825161225a565b8087015163ffffffff168588015285015185850152606090930192908501906001016122ea565b5091979650505050505050565b60208101610682828461225a565b6060810161234f828661225a565b63ffffffff93909316602082015260400152919050565b6000602080835283518082850152825b8181101561239257858101830151858201604001528201612376565b818111156123a35783604083870101525b50601f01601f1916929092016040019392505050565b6020808252600d908201527f496e76616c696420627579657200000000000000000000000000000000000000604082015260600190565b60208082526011908201527f616c726561647920636f6d706c65746564000000000000000000000000000000604082015260600190565b6020808252602e908201527f496e697469616c697a61626c653a20636f6e747261637420697320616c72656160408201527f647920696e697469616c697a6564000000000000000000000000000000000000606082015260800190565b60208082526011908201527f7065726d697373696f6e2064656e696564000000000000000000000000000000604082015260600190565b6020808252818101527f4f776e61626c653a2063616c6c6572206973206e6f7420746865206f776e6572604082015260600190565b63ffffffff948516815260208101939093529083166040830152909116606082015260800190565b6000821982111561252b5761252b6125ed565b500190565b60008261254e5760e060020a634e487b710281526012600452602481fd5b500490565b600081600019048311821515161561256d5761256d6125ed565b500290565b600082821015612584576125846125ed565b500390565b600063ffffffff838116908316818110156125a6576125a66125ed565b039392505050565b6002810460018216806125c257607f821691505b602082108114156125e75760e060020a634e487b710260009081526022600452602490fd5b50919050565b60e060020a634e487b710260009081526011600452602490fd5b60e060020a634e487b710260009081526041600452602490fd5b63ffffffff81168114611a7e57600080fdfe8be0079c531659141344cd1fd0a4f28419497f9722a3daafe3b4186f6b6457e0a26469706673582212208e2be19c650716a34b10badff50fffa800c3f7033d773bbc0aaa9a36333e780c64736f6c63430008030033",
  "immutableReferences": {},
  "source": "// SPDX-License-Identifier: MIT\n\npragma solidity ^0.8.2;\n\nimport \"@openzeppelin/contracts/token/ERC20/IERC20.sol\";\nimport \"@openzeppelin/contracts-upgradeable/token/ERC20/ERC20Upgradeable.sol\";\nimport \"@openzeppelin/contracts-upgradeable/access/OwnableUpgradeable.sol\";\nimport \"@openzeppelin/contracts-upgradeable/utils/math/SafeMathUpgradeable.sol\";\n\nimport \"./interface/BancorBondingCurveV1Interface.sol\";\nimport \"./Escrow.sol\";\n\n/// @title ProductToken\n/// @notice This is version 0 of the product token implementation.\n/// @dev This contract lays the foundation for transaction computations, including\n///   bonding curve calculations and variable management. Version 0 of this contract\n///   does not implement any transaction logic.\ncontract ProductToken is ERC20Upgradeable, Escrow, OwnableUpgradeable {\n\tusing SafeMathUpgradeable for uint256;\n\n\tevent Buy(address indexed sender, uint32 amount, uint256 deposit);\t\t// event to fire when a new token is minted\n  event Sell(address indexed sender, uint32 amount, uint256 refund);\t\t// event to fire when a token has been sold back\n  event Tradein(address indexed sender, uint32 amount);\t\t\t\t\t\t\t// event to fire when a token is redeemed in the real world\n  event Tradable(bool isTradable);\n\n  bool private isTradable;\n  uint256 public reserveBalance;      // amount of liquidity in the pool\n  uint256 public tradeinReserveBalance;      // amount of liquidity in the pool\n  uint32 public reserveRatio;         // computed from the exponential factor in the\n  uint32 public maxTokenCount;        // max token count, determined by the supply of our physical product\n  uint32 public tradeinCount;         // number of tokens burned through redeeming procedure. This will drive price up permanently\n  uint32 internal supplyOffset;       // an initial value used to set an initial price. This is not included in the total supply.\n  address private _manager;\n\n  BancorBondingCurveV1Interface internal bondingCurve;\n\n  modifier onlyIfTradable {\n      require(\n          isTradable,\n          \"unable to trade now\"\n      );\n      _;\n  }\n\n\t/**\n   * @dev initializer function.\n   *\n   * @param _name                     the name of this token\n   * @param _symbol                   the symbol of this token\n   * @param _reserveRatio             the reserve ratio in the curve function. Number in parts per million\n   * @param _maxTokenCount\t\t\t\t\t\tthe amount of token that will exist for this type.\n   * @param _supplyOffset             this amount is used to determine initial price.\n   * @param _baseReserve              the base amount of reserve tokens, in accordance to _supplyOffset.\n   *\n  */\n  function initialize(string memory _name, string memory _symbol, address _bondingCurveAddress,\n      uint32 _reserveRatio, uint32 _maxTokenCount, uint32 _supplyOffset, uint256 _baseReserve) public virtual initializer{\n    __Ownable_init();\n    __ERC20_init(_name, _symbol);\n    __ProductToken_init_unchained(_bondingCurveAddress, _reserveRatio, _maxTokenCount, _supplyOffset, _baseReserve);\n  }\n\n  /**\n   * @dev unchained initializer function.\n   *\n   * @param _reserveRatio             the reserve ratio in the curve function. Number in parts per million\n   * @param _maxTokenCount            the amount of token that will exist for this type.\n   * @param _supplyOffset             this amount is used to determine initial price.\n   * @param _baseReserve              the base amount of reserve tokens, in accordance to _supplyOffset.\n   *\n  */\n  function __ProductToken_init_unchained(address _bondingCurveAddress, uint32 _reserveRatio, uint32 _maxTokenCount, uint32 _supplyOffset, uint256 _baseReserve) internal initializer{\n    require(_maxTokenCount > 0, \"Invalid max token count.\");\n    require(_reserveRatio > 0, \"Invalid reserve ratio\");\n    bondingCurve = BancorBondingCurveV1Interface(_bondingCurveAddress);\n    reserveBalance = _baseReserve;\n    tradeinReserveBalance = _baseReserve;\n    supplyOffset = _supplyOffset;\n    reserveRatio = _reserveRatio;\n    maxTokenCount = _maxTokenCount;\n  }\n\n  function decimals() public view virtual override returns (uint8) {\n      return 0;\n  }\n\n  /**\n   * @dev requires function to be called from owner. sets a bonding curve implementation for this product.\n   *\n   * @param _address             the address of the bonding curve implementation\n   *\n  */\n  function setBondingCurve(address _address) external virtual onlyOwner {\n    require(_address!=address(0), \"Invalid address\");\n    bondingCurve = BancorBondingCurveV1Interface(_address);\n  }\n\n  /**\n   * @dev requires function to be called from owner. this enables customers to buy, sell, or redeem the product.\n   *\n  */\n  function launch() external virtual onlyOwner {\n    require(!isTradable, 'The product token is already launched');\n    isTradable = true;\n    emit Tradable(isTradable);\n  }\n\n  /**\n   * @dev requires function to be called from owner. this prevents customers from buying, selling, or redeeming the product.\n   *\n  */\n  function pause() external virtual onlyOwner {\n    require(isTradable, 'The product token is already paused');\n    isTradable = false;\n    emit Tradable(isTradable);\n  }\n\n  fallback () external { }\n\n  /**\n   * @dev Function to check how many tokens of this product are currently available for purchase,\n   * by taking the difference between max cap count and current token in circulation or burned.\n   *\n   * @return available                the number of tokens available\n  */\n  function getAvailability()\n    public view virtual returns (uint32 available)\n  {\n    return maxTokenCount - uint32(totalSupply()) - tradeinCount;    // add safemath for uint32 later\n  }\n\n  /**\n   * @dev Function that computes supply value for the bonding curve\n   * based on current token in circulation, token offset initialized, and tokens already redeemed.\n   *\n   * @return supply                   supply value for bonding curve calculation.\n  */\n  function _getTotalSupply()\n    internal view virtual returns (uint32 supply)\n  {\n    return uint32(totalSupply().add(uint256(tradeinCount)).add(uint256(supplyOffset)));\n  }\n\n  /**\n   * @dev Function that computes current price for a token through bonding curve calculation\n   * based on parameters such as total supply, reserve balance, and reserve ratio.\n   *\n   * @return price                   current price in reserve token (in our case, this is dai). (with 4% platform fee)\n  */\n  function getCurrentPrice()\n  \tpublic view virtual returns\t(uint256 price)\n  {\n    return getPriceForN(1);\n  }\n\n  /**\n   * @dev Function that computes price total for buying n token through bonding curve calculation\n   * based on parameters such as total supply, reserve balance, and reserve ratio.\n   *\n   * @param  _amountProduct          token amount in traded token\n   * @return price                   total price in reserve token (in our case, this is dai). (with 4% platform fee)\n  */\n  function getPriceForN(uint32 _amountProduct)\n  \tpublic view virtual returns\t(uint256 price)\n  {\n    (uint value, uint fee) = _getPriceForN(_amountProduct);\n    return value.add(fee);\n  }\n\n  function _getPriceForN(uint32 _amountProduct)\n  \tinternal view virtual returns\t(uint256, uint256) {\n      uint256 price = bondingCurve.calculatePriceForNTokens(_getTotalSupply(), reserveBalance, reserveRatio, _amountProduct);\n      //8% is the platform transaction fee\n      uint256 fee = price.mul(8e10).div(1e12);\n      return (price, fee);\n    }\n\n  function _buyReturn(uint256 _amountReserve)\n    internal view virtual returns (uint32, uint)\n  {\n    uint value = _amountReserve.mul(1e12).div(1.08e12);\n    uint fee = value.mul(6e10).div(1e12);\n    uint32 amount = bondingCurve.calculatePurchaseReturn(_getTotalSupply(), reserveBalance, reserveRatio, value.sub(fee));\n    return (amount, fee);\n  }\n\n  /**\n   * @dev Function that computes number of product tokens one can buy given an amount in reserve token.\n   *\n   * @param  _amountReserve          purchaing amount in reserve token (dai)(with 4% platform fee)\n   * @return mintAmount              number of tokens in traded token that can be purchased by given amount.\n  */\n  function calculateBuyReturn(uint256 _amountReserve)\n    public view virtual returns (uint32 mintAmount)\n  {\n    (uint32 amount,) = _buyReturn(_amountReserve);\n    return amount;\n  }\n\n  function _sellReturn(uint32 _amountProduct)\n    internal view virtual returns (uint256, uint256)\n  {\n    // ppm of 98%. 2% is the platform transaction fee\n    uint reimburseAmount = bondingCurve.calculateSaleReturn(_getTotalSupply(), reserveBalance, reserveRatio, _amountProduct);\n    uint fee = reimburseAmount.mul(2e10).div(1e12);\n    return (reimburseAmount, fee);\n  }\n\n  /**\n   * @dev Function that computes selling price in reserve tokens given an amount in traded token.\n   *\n   * @param  _amountProduct          selling amount in product token\n   * @return soldAmount              total amount that will be transferred to the seller (with 2% platform fee).\n  */\n  function calculateSellReturn(uint32 _amountProduct)\n    public view virtual returns (uint256 soldAmount)\n  {\n    (uint reimburseAmount, uint fee) = _sellReturn(_amountProduct);\n    return reimburseAmount.sub(fee);\n  }\n\n   /**\n   * @dev calculates the return for a given conversion (in product token)\n   * This function validate whether is enough to purchase token.\n   * If enough, the function will deduct, and then mint one token for the user. Any extras are return as change.\n   * If not enough, will return as change directly\n   * then replace the _amount with the actual amount and proceed with the above logic.\n   *\n   * @param _deposit              reserve token deposited\n   *\n   * @return token                amount bought in product token\n   * @return change               amount of change in reserve tokens.\n   * @return price\n   * @return fee\n  */\n  function _buy(uint256 _deposit)\n    internal virtual returns (uint32, uint256, uint256, uint256)\n  {\n  \trequire(getAvailability() > 0, \"Sorry, this token is sold out.\");\n    require(_deposit > 0, \"Deposit must be non-zero.\");\n\n    (uint price, uint fee ) = _getPriceForN(1);\n\n    if (price > _deposit) {\n      return (0, _deposit, 0, 0);\n    }\n    _mint(msg.sender, 1);\n    reserveBalance = reserveBalance.add(price.sub(fee));\n    emit Buy(msg.sender, 1, price);\n    return (1, _deposit.sub(price), price, fee);\n  }\n\n   /**\n   * @dev calculates the return for a given conversion (in the reserve token)\n   * This function will try to compute the amount of liquidity one gets by selling _amount token,\n   * then it will initiate a transfer.\n   *\n   * @param _amount              amount of product token wishes to be sold\n   *\n   * @return amount               amount sold in reserved token\n   * @return fee\n  */\n  function _sellForAmount(uint32 _amount)\n    internal virtual returns (uint256, uint256)\n  {\n  \trequire(_amount > 0, \"Amount must be non-zero.\");\n    require(balanceOf(msg.sender) >= _amount, \"Insufficient tokens to sell.\");\n    // calculate amount of liquidity to reimburse\n  \t(uint256 reimburseAmount, uint256 fee) = _sellReturn(_amount);\n \t\treserveBalance = reserveBalance.sub(reimburseAmount);\n    _burn(msg.sender, _amount);\n\n    emit Sell(msg.sender, _amount, reimburseAmount);\n    return (reimburseAmount.sub(fee), fee);\n  }\n\n  function calculateTradinReturn(uint32 _amount)\n    public view virtual returns (uint256)\n  {\n  \trequire(_amount > 0, \"invalid amount\");\n    uint32 supply = uint32(uint256(_amount).add(uint256(tradeinCount)).add(uint256(supplyOffset)));\n  \treturn bondingCurve.calculateSaleReturn(supply, tradeinReserveBalance, reserveRatio, _amount);\n  }\n\n\n  /**\n   * @dev used to update the status of redemption to \"User Complete\" after an escrow process has been started.\n   *\n   * @param buyer                 the wallet address of product buyer\n   * @param id                    the id of the escrow, returned to the user after starting of redemption process\n  */\n  function updateUserCompleted(address buyer, uint256 id) external virtual {\n    require(msg.sender == owner() || msg.sender == _manager, 'permission denied');\n    require(buyer != address(0), \"Invalid buyer\");\n    _updateUserCompleted(buyer, id);\n  }\n\n  /**\n   * @dev used to update the status of redemption to \"User Refunded\" after an escrow process has been started.\n   *\n   * @param buyer                 the wallet address of product buyer\n   * @param id                    the id of the escrow, returned to the user after starting of redemption process\n  */\n  function updateUserRefund(address buyer, uint256 id) external virtual{\n    require(msg.sender == owner() || msg.sender == _manager, 'permission denied');\n    require(buyer != address(0), \"Invalid buyer\");\n    uint256 value = _updateUserRefund(buyer, id);\n    require(value >0 , \"Invalid value\");\n    _refund(buyer, value);\n  }\n\n  /**\n   * @dev refund function.\n   * This function returns the equivalent amount of Dai (reserve currency) to a product owner if an redemption fails\n   * This is only triggered in the extremely rare cases.\n   * This function is not implemented in Version 0 of Product Token\n   *\n   * @param _buyer       The wallet address of the owner whose product token is under the redemption process\n   * @param _value       The market value of the token being redeemed\n  */\n  function _refund(address _buyer, uint256 _value) internal virtual {\n    // override\n  }\n\n  function setManager(address addr_) external virtual onlyOwner {\n    require(addr_ != address(0), 'invalid address');\n    _manager = addr_;\n  }\n\n  function getManager() external view virtual returns(address) {\n    return _manager;\n  }\n\n}\n\n",
  "sourcePath": "/Users/jack/Documents/GitHub/HighStreet/client/src/contracts/ProductToken.sol",
  "compiler": {
    "name": "solc",
    "version": "0.8.3+commit.8d00100c.Emscripten.clang"
  },
  "schemaVersion": "3.4.0",
  "updatedAt": "2021-09-26T08:29:11.797Z",
  "devdoc": {
    "details": "This contract lays the foundation for transaction computations, including   bonding curve calculations and variable management. Version 0 of this contract   does not implement any transaction logic.",
    "kind": "dev",
    "methods": {
      "allowance(address,address)": {
        "details": "See {IERC20-allowance}."
      },
      "approve(address,uint256)": {
        "details": "See {IERC20-approve}. Requirements: - `spender` cannot be the zero address."
      },
      "balanceOf(address)": {
        "details": "See {IERC20-balanceOf}."
      },
      "calculateBuyReturn(uint256)": {
        "details": "Function that computes number of product tokens one can buy given an amount in reserve token.",
        "params": {
          "_amountReserve": "purchaing amount in reserve token (dai)(with 4% platform fee)"
        },
        "returns": {
          "mintAmount": "             number of tokens in traded token that can be purchased by given amount."
        }
      },
      "calculateSellReturn(uint32)": {
        "details": "Function that computes selling price in reserve tokens given an amount in traded token.",
        "params": {
          "_amountProduct": "selling amount in product token"
        },
        "returns": {
          "soldAmount": "             total amount that will be transferred to the seller (with 2% platform fee)."
        }
      },
      "decimals()": {
        "details": "Returns the number of decimals used to get its user representation. For example, if `decimals` equals `2`, a balance of `505` tokens should be displayed to a user as `5,05` (`505 / 10 ** 2`). Tokens usually opt for a value of 18, imitating the relationship between Ether and Wei. This is the value {ERC20} uses, unless this function is overloaded; NOTE: This information is only used for _display_ purposes: it in no way affects any of the arithmetic of the contract, including {IERC20-balanceOf} and {IERC20-transfer}."
      },
      "decreaseAllowance(address,uint256)": {
        "details": "Atomically decreases the allowance granted to `spender` by the caller. This is an alternative to {approve} that can be used as a mitigation for problems described in {IERC20-approve}. Emits an {Approval} event indicating the updated allowance. Requirements: - `spender` cannot be the zero address. - `spender` must have allowance for the caller of at least `subtractedValue`."
      },
      "getAvailability()": {
        "details": "Function to check how many tokens of this product are currently available for purchase, by taking the difference between max cap count and current token in circulation or burned.",
        "returns": {
          "available": "               the number of tokens available"
        }
      },
      "getCurrentPrice()": {
        "details": "Function that computes current price for a token through bonding curve calculation based on parameters such as total supply, reserve balance, and reserve ratio.",
        "returns": {
          "price": "                  current price in reserve token (in our case, this is dai). (with 4% platform fee)"
        }
      },
      "getEscrowHistory(address)": {
        "details": "Return the list of all escrows created for a certain user",
        "params": {
          "_buyer": "The address of the buyer"
        },
        "returns": {
          "_0": "A list of past escrows"
        }
      },
      "getPriceForN(uint32)": {
        "details": "Function that computes price total for buying n token through bonding curve calculation based on parameters such as total supply, reserve balance, and reserve ratio.",
        "params": {
          "_amountProduct": "token amount in traded token"
        },
        "returns": {
          "price": "                  total price in reserve token (in our case, this is dai). (with 4% platform fee)"
        }
      },
      "getRedeemStatus(address,uint256)": {
        "details": "Get status of a particular redemption process",
        "params": {
          "_buyer": "The address of the buyer",
          "_id": "The cached id of the escrow, retrieved from database"
        },
        "returns": {
          "_0": "The current status"
        }
      },
      "increaseAllowance(address,uint256)": {
        "details": "Atomically increases the allowance granted to `spender` by the caller. This is an alternative to {approve} that can be used as a mitigation for problems described in {IERC20-approve}. Emits an {Approval} event indicating the updated allowance. Requirements: - `spender` cannot be the zero address."
      },
      "initialize(string,string,address,uint32,uint32,uint32,uint256)": {
        "details": "initializer function.",
        "params": {
          "_baseReserve": "the base amount of reserve tokens, in accordance to _supplyOffset.",
          "_maxTokenCount": "the amount of token that will exist for this type.",
          "_name": "the name of this token",
          "_reserveRatio": "the reserve ratio in the curve function. Number in parts per million",
          "_supplyOffset": "this amount is used to determine initial price.",
          "_symbol": "the symbol of this token"
        }
      },
      "isStateCompleted(uint8)": {
        "details": "Helper function to check whether a escrow state is completed",
        "params": {
          "_state": "The state to be checked"
        }
      },
      "launch()": {
        "details": "requires function to be called from owner. this enables customers to buy, sell, or redeem the product."
      },
      "name()": {
        "details": "Returns the name of the token."
      },
      "owner()": {
        "details": "Returns the address of the current owner."
      },
      "pause()": {
        "details": "requires function to be called from owner. this prevents customers from buying, selling, or redeeming the product."
      },
      "renounceOwnership()": {
        "details": "Leaves the contract without owner. It will not be possible to call `onlyOwner` functions anymore. Can only be called by the current owner. NOTE: Renouncing ownership will leave the contract without an owner, thereby removing any functionality that is only available to the owner."
      },
      "setBondingCurve(address)": {
        "details": "requires function to be called from owner. sets a bonding curve implementation for this product.",
        "params": {
          "_address": "the address of the bonding curve implementation"
        }
      },
      "symbol()": {
        "details": "Returns the symbol of the token, usually a shorter version of the name."
      },
      "totalSupply()": {
        "details": "See {IERC20-totalSupply}."
      },
      "transfer(address,uint256)": {
        "details": "See {IERC20-transfer}. Requirements: - `recipient` cannot be the zero address. - the caller must have a balance of at least `amount`."
      },
      "transferFrom(address,address,uint256)": {
        "details": "See {IERC20-transferFrom}. Emits an {Approval} event indicating the updated allowance. This is not required by the EIP. See the note at the beginning of {ERC20}. Requirements: - `sender` and `recipient` cannot be the zero address. - `sender` must have a balance of at least `amount`. - the caller must have allowance for ``sender``'s tokens of at least `amount`."
      },
      "transferOwnership(address)": {
        "details": "Transfers ownership of the contract to a new account (`newOwner`). Can only be called by the current owner."
      },
      "updateUserCompleted(address,uint256)": {
        "details": "used to update the status of redemption to \"User Complete\" after an escrow process has been started.",
        "params": {
          "buyer": "the wallet address of product buyer",
          "id": "the id of the escrow, returned to the user after starting of redemption process"
        }
      },
      "updateUserRefund(address,uint256)": {
        "details": "used to update the status of redemption to \"User Refunded\" after an escrow process has been started.",
        "params": {
          "buyer": "the wallet address of product buyer",
          "id": "the id of the escrow, returned to the user after starting of redemption process"
        }
      }
    },
    "title": "ProductToken",
    "version": 1
  },
  "userdoc": {
    "kind": "user",
    "methods": {},
    "notice": "This is version 0 of the product token implementation.",
    "version": 1
  }
}