{
  "contractName": "ProductTokenV4",
  "abi": [
    {
      "anonymous": false,
      "inputs": [
        {
          "indexed": true,
          "internalType": "address",
          "name": "owner",
          "type": "address"
        },
        {
          "indexed": true,
          "internalType": "address",
          "name": "spender",
          "type": "address"
        },
        {
          "indexed": false,
          "internalType": "uint256",
          "name": "value",
          "type": "uint256"
        }
      ],
      "name": "Approval",
      "type": "event"
    },
    {
      "anonymous": false,
      "inputs": [
        {
          "indexed": true,
          "internalType": "address",
          "name": "sender",
          "type": "address"
        },
        {
          "indexed": false,
          "internalType": "uint32",
          "name": "amount",
          "type": "uint32"
        },
        {
          "indexed": false,
          "internalType": "uint256",
          "name": "deposit",
          "type": "uint256"
        }
      ],
      "name": "Buy",
      "type": "event"
    },
    {
      "anonymous": false,
      "inputs": [
        {
          "indexed": true,
          "internalType": "address",
          "name": "previousOwner",
          "type": "address"
        },
        {
          "indexed": true,
          "internalType": "address",
          "name": "newOwner",
          "type": "address"
        }
      ],
      "name": "OwnershipTransferred",
      "type": "event"
    },
    {
      "anonymous": false,
      "inputs": [
        {
          "indexed": true,
          "internalType": "address",
          "name": "sender",
          "type": "address"
        },
        {
          "indexed": false,
          "internalType": "uint32",
          "name": "amount",
          "type": "uint32"
        },
        {
          "indexed": false,
          "internalType": "uint256",
          "name": "refund",
          "type": "uint256"
        }
      ],
      "name": "Sell",
      "type": "event"
    },
    {
      "anonymous": false,
      "inputs": [
        {
          "indexed": false,
          "internalType": "bool",
          "name": "isTradable",
          "type": "bool"
        }
      ],
      "name": "Tradable",
      "type": "event"
    },
    {
      "anonymous": false,
      "inputs": [
        {
          "indexed": true,
          "internalType": "address",
          "name": "sender",
          "type": "address"
        },
        {
          "indexed": false,
          "internalType": "uint32",
          "name": "amount",
          "type": "uint32"
        }
      ],
      "name": "Tradein",
      "type": "event"
    },
    {
      "anonymous": false,
      "inputs": [
        {
          "indexed": true,
          "internalType": "address",
          "name": "from",
          "type": "address"
        },
        {
          "indexed": true,
          "internalType": "address",
          "name": "to",
          "type": "address"
        },
        {
          "indexed": false,
          "internalType": "uint256",
          "name": "value",
          "type": "uint256"
        }
      ],
      "name": "Transfer",
      "type": "event"
    },
    {
      "anonymous": false,
      "inputs": [
        {
          "indexed": false,
          "internalType": "address",
          "name": "daiAddress",
          "type": "address"
        },
        {
          "indexed": false,
          "internalType": "address",
          "name": "chainlinkAddress",
          "type": "address"
        }
      ],
      "name": "Update",
      "type": "event"
    },
    {
      "anonymous": false,
      "inputs": [
        {
          "indexed": false,
          "internalType": "address",
          "name": "daiAddress",
          "type": "address"
        },
        {
          "indexed": false,
          "internalType": "address",
          "name": "chainlinkAddress",
          "type": "address"
        }
      ],
      "name": "UpdateHsToken",
      "type": "event"
    },
    {
      "anonymous": false,
      "inputs": [
        {
          "indexed": false,
          "internalType": "address",
          "name": "",
          "type": "address"
        },
        {
          "indexed": false,
          "internalType": "uint256",
          "name": "",
          "type": "uint256"
        },
        {
          "components": [
            {
              "internalType": "enum Escrow.escrowState",
              "name": "state",
              "type": "uint8"
            },
            {
              "internalType": "uint32",
              "name": "amount",
              "type": "uint32"
            },
            {
              "internalType": "uint256",
              "name": "value",
              "type": "uint256"
            }
          ],
          "indexed": false,
          "internalType": "struct Escrow.escrowInfo",
          "name": "",
          "type": "tuple"
        }
      ],
      "name": "escrowStateUpdated",
      "type": "event"
    },
    {
      "stateMutability": "nonpayable",
      "type": "fallback"
    },
    {
      "inputs": [],
      "name": "INDEX_DAI",
      "outputs": [
        {
          "internalType": "uint256",
          "name": "",
          "type": "uint256"
        }
      ],
      "stateMutability": "view",
      "type": "function"
    },
    {
      "inputs": [],
      "name": "INDEX_ETH",
      "outputs": [
        {
          "internalType": "uint256",
          "name": "",
          "type": "uint256"
        }
      ],
      "stateMutability": "view",
      "type": "function"
    },
    {
      "inputs": [],
      "name": "INDEX_HIGH",
      "outputs": [
        {
          "internalType": "uint256",
          "name": "",
          "type": "uint256"
        }
      ],
      "stateMutability": "view",
      "type": "function"
    },
    {
      "inputs": [
        {
          "internalType": "uint32",
          "name": "_amountProduct",
          "type": "uint32"
        }
      ],
      "name": "_getPriceForN",
      "outputs": [
        {
          "internalType": "uint256",
          "name": "price",
          "type": "uint256"
        },
        {
          "internalType": "uint256",
          "name": "fee",
          "type": "uint256"
        }
      ],
      "stateMutability": "view",
      "type": "function"
    },
    {
      "inputs": [
        {
          "internalType": "address",
          "name": "owner",
          "type": "address"
        },
        {
          "internalType": "address",
          "name": "spender",
          "type": "address"
        }
      ],
      "name": "allowance",
      "outputs": [
        {
          "internalType": "uint256",
          "name": "",
          "type": "uint256"
        }
      ],
      "stateMutability": "view",
      "type": "function"
    },
    {
      "inputs": [
        {
          "internalType": "address",
          "name": "spender",
          "type": "address"
        },
        {
          "internalType": "uint256",
          "name": "amount",
          "type": "uint256"
        }
      ],
      "name": "approve",
      "outputs": [
        {
          "internalType": "bool",
          "name": "",
          "type": "bool"
        }
      ],
      "stateMutability": "nonpayable",
      "type": "function"
    },
    {
      "inputs": [
        {
          "internalType": "address",
          "name": "account",
          "type": "address"
        }
      ],
      "name": "balanceOf",
      "outputs": [
        {
          "internalType": "uint256",
          "name": "",
          "type": "uint256"
        }
      ],
      "stateMutability": "view",
      "type": "function"
    },
    {
      "inputs": [
        {
          "internalType": "uint256",
          "name": "ids_",
          "type": "uint256"
        },
        {
          "internalType": "uint256",
          "name": "maxPrice_",
          "type": "uint256"
        }
      ],
      "name": "buyERC20",
      "outputs": [],
      "stateMutability": "nonpayable",
      "type": "function"
    },
    {
      "inputs": [],
      "name": "buyETH",
      "outputs": [],
      "stateMutability": "payable",
      "type": "function"
    },
    {
      "inputs": [
        {
          "internalType": "uint256",
          "name": "_amountReserve",
          "type": "uint256"
        }
      ],
      "name": "calculateBuyReturn",
      "outputs": [
        {
          "internalType": "uint32",
          "name": "mintAmount",
          "type": "uint32"
        }
      ],
      "stateMutability": "view",
      "type": "function"
    },
    {
      "inputs": [
        {
          "internalType": "uint32",
          "name": "_amountProduct",
          "type": "uint32"
        }
      ],
      "name": "calculateSellReturn",
      "outputs": [
        {
          "internalType": "uint256",
          "name": "soldAmount",
          "type": "uint256"
        }
      ],
      "stateMutability": "view",
      "type": "function"
    },
    {
      "inputs": [
        {
          "internalType": "uint32",
          "name": "_amount",
          "type": "uint32"
        }
      ],
      "name": "calculateTradinReturn",
      "outputs": [
        {
          "internalType": "uint256",
          "name": "",
          "type": "uint256"
        }
      ],
      "stateMutability": "view",
      "type": "function"
    },
    {
      "inputs": [
        {
          "internalType": "uint256",
          "name": "amount_",
          "type": "uint256"
        }
      ],
      "name": "claimSupplier",
      "outputs": [],
      "stateMutability": "nonpayable",
      "type": "function"
    },
    {
      "inputs": [],
      "name": "decimals",
      "outputs": [
        {
          "internalType": "uint8",
          "name": "",
          "type": "uint8"
        }
      ],
      "stateMutability": "view",
      "type": "function"
    },
    {
      "inputs": [
        {
          "internalType": "address",
          "name": "spender",
          "type": "address"
        },
        {
          "internalType": "uint256",
          "name": "subtractedValue",
          "type": "uint256"
        }
      ],
      "name": "decreaseAllowance",
      "outputs": [
        {
          "internalType": "bool",
          "name": "",
          "type": "bool"
        }
      ],
      "stateMutability": "nonpayable",
      "type": "function"
    },
    {
      "inputs": [
        {
          "internalType": "address",
          "name": "",
          "type": "address"
        },
        {
          "internalType": "uint256",
          "name": "",
          "type": "uint256"
        }
      ],
      "name": "escrowList",
      "outputs": [
        {
          "internalType": "enum Escrow.escrowState",
          "name": "state",
          "type": "uint8"
        },
        {
          "internalType": "uint32",
          "name": "amount",
          "type": "uint32"
        },
        {
          "internalType": "uint256",
          "name": "value",
          "type": "uint256"
        }
      ],
      "stateMutability": "view",
      "type": "function"
    },
    {
      "inputs": [],
      "name": "getAvailability",
      "outputs": [
        {
          "internalType": "uint32",
          "name": "available",
          "type": "uint32"
        }
      ],
      "stateMutability": "view",
      "type": "function"
    },
    {
      "inputs": [],
      "name": "getCurrentPrice",
      "outputs": [
        {
          "internalType": "uint256",
          "name": "price",
          "type": "uint256"
        }
      ],
      "stateMutability": "view",
      "type": "function"
    },
    {
      "inputs": [
        {
          "internalType": "uint256",
          "name": "ids_",
          "type": "uint256"
        }
      ],
      "name": "getCurrentPriceByIds",
      "outputs": [
        {
          "internalType": "uint256",
          "name": "",
          "type": "uint256"
        }
      ],
      "stateMutability": "view",
      "type": "function"
    },
    {
      "inputs": [
        {
          "internalType": "address",
          "name": "_buyer",
          "type": "address"
        }
      ],
      "name": "getEscrowHistory",
      "outputs": [
        {
          "components": [
            {
              "internalType": "enum Escrow.escrowState",
              "name": "state",
              "type": "uint8"
            },
            {
              "internalType": "uint32",
              "name": "amount",
              "type": "uint32"
            },
            {
              "internalType": "uint256",
              "name": "value",
              "type": "uint256"
            }
          ],
          "internalType": "struct Escrow.escrowInfo[]",
          "name": "",
          "type": "tuple[]"
        }
      ],
      "stateMutability": "view",
      "type": "function"
    },
    {
      "inputs": [],
      "name": "getManager",
      "outputs": [
        {
          "internalType": "address",
          "name": "",
          "type": "address"
        }
      ],
      "stateMutability": "view",
      "type": "function"
    },
    {
      "inputs": [],
      "name": "getNewAttribute",
      "outputs": [
        {
          "internalType": "uint256",
          "name": "",
          "type": "uint256"
        }
      ],
      "stateMutability": "view",
      "type": "function"
    },
    {
      "inputs": [],
      "name": "getPoolInfo",
      "outputs": [
        {
          "components": [
            {
              "internalType": "uint256",
              "name": "amount",
              "type": "uint256"
            },
            {
              "internalType": "uint256",
              "name": "accRewardPerShare",
              "type": "uint256"
            },
            {
              "internalType": "uint256",
              "name": "tokenReward",
              "type": "uint256"
            }
          ],
          "internalType": "struct ProductTokenV1.PoolInfo",
          "name": "",
          "type": "tuple"
        }
      ],
      "stateMutability": "view",
      "type": "function"
    },
    {
      "inputs": [
        {
          "internalType": "uint32",
          "name": "_amountProduct",
          "type": "uint32"
        }
      ],
      "name": "getPriceForN",
      "outputs": [
        {
          "internalType": "uint256",
          "name": "price",
          "type": "uint256"
        }
      ],
      "stateMutability": "view",
      "type": "function"
    },
    {
      "inputs": [
        {
          "internalType": "address",
          "name": "_buyer",
          "type": "address"
        },
        {
          "internalType": "uint256",
          "name": "_id",
          "type": "uint256"
        }
      ],
      "name": "getRedeemStatus",
      "outputs": [
        {
          "internalType": "enum Escrow.escrowState",
          "name": "",
          "type": "uint8"
        }
      ],
      "stateMutability": "view",
      "type": "function"
    },
    {
      "inputs": [],
      "name": "getSupplierBalance",
      "outputs": [
        {
          "internalType": "uint256",
          "name": "",
          "type": "uint256"
        }
      ],
      "stateMutability": "view",
      "type": "function"
    },
    {
      "inputs": [],
      "name": "getSupplierInfo",
      "outputs": [
        {
          "components": [
            {
              "internalType": "uint256",
              "name": "amount",
              "type": "uint256"
            },
            {
              "internalType": "address",
              "name": "wallet",
              "type": "address"
            }
          ],
          "internalType": "struct ProductTokenV1.supplierInfo",
          "name": "",
          "type": "tuple"
        }
      ],
      "stateMutability": "view",
      "type": "function"
    },
    {
      "inputs": [
        {
          "internalType": "address",
          "name": "addr_",
          "type": "address"
        }
      ],
      "name": "getUserInfo",
      "outputs": [
        {
          "components": [
            {
              "internalType": "uint256",
              "name": "amount",
              "type": "uint256"
            },
            {
              "internalType": "uint256",
              "name": "rewardDebt",
              "type": "uint256"
            },
            {
              "internalType": "uint256[]",
              "name": "records",
              "type": "uint256[]"
            }
          ],
          "internalType": "struct ProductTokenV1.UserInfo",
          "name": "",
          "type": "tuple"
        }
      ],
      "stateMutability": "view",
      "type": "function"
    },
    {
      "inputs": [
        {
          "internalType": "address",
          "name": "spender",
          "type": "address"
        },
        {
          "internalType": "uint256",
          "name": "addedValue",
          "type": "uint256"
        }
      ],
      "name": "increaseAllowance",
      "outputs": [
        {
          "internalType": "bool",
          "name": "",
          "type": "bool"
        }
      ],
      "stateMutability": "nonpayable",
      "type": "function"
    },
    {
      "inputs": [
        {
          "internalType": "string",
          "name": "_name",
          "type": "string"
        },
        {
          "internalType": "string",
          "name": "_symbol",
          "type": "string"
        },
        {
          "internalType": "address",
          "name": "_bondingCurveAddress",
          "type": "address"
        },
        {
          "internalType": "uint32",
          "name": "_reserveRatio",
          "type": "uint32"
        },
        {
          "internalType": "uint32",
          "name": "_maxTokenCount",
          "type": "uint32"
        },
        {
          "internalType": "uint32",
          "name": "_supplyOffset",
          "type": "uint32"
        },
        {
          "internalType": "uint256",
          "name": "_baseReserve",
          "type": "uint256"
        }
      ],
      "name": "initialize",
      "outputs": [],
      "stateMutability": "nonpayable",
      "type": "function"
    },
    {
      "inputs": [
        {
          "internalType": "enum Escrow.escrowState",
          "name": "_state",
          "type": "uint8"
        }
      ],
      "name": "isStateCompleted",
      "outputs": [
        {
          "internalType": "bool",
          "name": "",
          "type": "bool"
        }
      ],
      "stateMutability": "pure",
      "type": "function"
    },
    {
      "inputs": [],
      "name": "launch",
      "outputs": [],
      "stateMutability": "nonpayable",
      "type": "function"
    },
    {
      "inputs": [],
      "name": "maxTokenCount",
      "outputs": [
        {
          "internalType": "uint32",
          "name": "",
          "type": "uint32"
        }
      ],
      "stateMutability": "view",
      "type": "function"
    },
    {
      "inputs": [],
      "name": "name",
      "outputs": [
        {
          "internalType": "string",
          "name": "",
          "type": "string"
        }
      ],
      "stateMutability": "view",
      "type": "function"
    },
    {
      "inputs": [],
      "name": "newAttribute",
      "outputs": [
        {
          "internalType": "uint256",
          "name": "",
          "type": "uint256"
        }
      ],
      "stateMutability": "view",
      "type": "function"
    },
    {
      "inputs": [],
      "name": "owner",
      "outputs": [
        {
          "internalType": "address",
          "name": "",
          "type": "address"
        }
      ],
      "stateMutability": "view",
      "type": "function"
    },
    {
      "inputs": [],
      "name": "pause",
      "outputs": [],
      "stateMutability": "nonpayable",
      "type": "function"
    },
    {
      "inputs": [],
      "name": "poolInfo",
      "outputs": [
        {
          "internalType": "uint256",
          "name": "amount",
          "type": "uint256"
        },
        {
          "internalType": "uint256",
          "name": "accRewardPerShare",
          "type": "uint256"
        },
        {
          "internalType": "uint256",
          "name": "tokenReward",
          "type": "uint256"
        }
      ],
      "stateMutability": "view",
      "type": "function"
    },
    {
      "inputs": [],
      "name": "renounceOwnership",
      "outputs": [],
      "stateMutability": "nonpayable",
      "type": "function"
    },
    {
      "inputs": [],
      "name": "reserveBalance",
      "outputs": [
        {
          "internalType": "uint256",
          "name": "",
          "type": "uint256"
        }
      ],
      "stateMutability": "view",
      "type": "function"
    },
    {
      "inputs": [],
      "name": "reserveRatio",
      "outputs": [
        {
          "internalType": "uint32",
          "name": "",
          "type": "uint32"
        }
      ],
      "stateMutability": "view",
      "type": "function"
    },
    {
      "inputs": [
        {
          "internalType": "uint32",
          "name": "amount_",
          "type": "uint32"
        },
        {
          "internalType": "bool",
          "name": "isHarvest_",
          "type": "bool"
        }
      ],
      "name": "sell",
      "outputs": [],
      "stateMutability": "nonpayable",
      "type": "function"
    },
    {
      "inputs": [
        {
          "internalType": "address",
          "name": "_address",
          "type": "address"
        }
      ],
      "name": "setBondingCurve",
      "outputs": [],
      "stateMutability": "nonpayable",
      "type": "function"
    },
    {
      "inputs": [
        {
          "internalType": "address",
          "name": "addr_",
          "type": "address"
        }
      ],
      "name": "setManager",
      "outputs": [],
      "stateMutability": "nonpayable",
      "type": "function"
    },
    {
      "inputs": [
        {
          "internalType": "address",
          "name": "addr_",
          "type": "address"
        }
      ],
      "name": "setupTokenUtils",
      "outputs": [],
      "stateMutability": "nonpayable",
      "type": "function"
    },
    {
      "inputs": [],
      "name": "supplier",
      "outputs": [
        {
          "internalType": "uint256",
          "name": "amount",
          "type": "uint256"
        },
        {
          "internalType": "address",
          "name": "wallet",
          "type": "address"
        }
      ],
      "stateMutability": "view",
      "type": "function"
    },
    {
      "inputs": [],
      "name": "symbol",
      "outputs": [
        {
          "internalType": "string",
          "name": "",
          "type": "string"
        }
      ],
      "stateMutability": "view",
      "type": "function"
    },
    {
      "inputs": [],
      "name": "totalSupply",
      "outputs": [
        {
          "internalType": "uint256",
          "name": "",
          "type": "uint256"
        }
      ],
      "stateMutability": "view",
      "type": "function"
    },
    {
      "inputs": [
        {
          "internalType": "uint32",
          "name": "amount_",
          "type": "uint32"
        },
        {
          "internalType": "bool",
          "name": "isHarvest_",
          "type": "bool"
        }
      ],
      "name": "tradein",
      "outputs": [],
      "stateMutability": "nonpayable",
      "type": "function"
    },
    {
      "inputs": [],
      "name": "tradeinCount",
      "outputs": [
        {
          "internalType": "uint32",
          "name": "",
          "type": "uint32"
        }
      ],
      "stateMutability": "view",
      "type": "function"
    },
    {
      "inputs": [],
      "name": "tradeinReserveBalance",
      "outputs": [
        {
          "internalType": "uint256",
          "name": "",
          "type": "uint256"
        }
      ],
      "stateMutability": "view",
      "type": "function"
    },
    {
      "inputs": [
        {
          "internalType": "address",
          "name": "recipient",
          "type": "address"
        },
        {
          "internalType": "uint256",
          "name": "amount",
          "type": "uint256"
        }
      ],
      "name": "transfer",
      "outputs": [
        {
          "internalType": "bool",
          "name": "",
          "type": "bool"
        }
      ],
      "stateMutability": "nonpayable",
      "type": "function"
    },
    {
      "inputs": [
        {
          "internalType": "address",
          "name": "sender",
          "type": "address"
        },
        {
          "internalType": "address",
          "name": "recipient",
          "type": "address"
        },
        {
          "internalType": "uint256",
          "name": "amount",
          "type": "uint256"
        }
      ],
      "name": "transferFrom",
      "outputs": [
        {
          "internalType": "bool",
          "name": "",
          "type": "bool"
        }
      ],
      "stateMutability": "nonpayable",
      "type": "function"
    },
    {
      "inputs": [
        {
          "internalType": "address",
          "name": "newOwner",
          "type": "address"
        }
      ],
      "name": "transferOwnership",
      "outputs": [],
      "stateMutability": "nonpayable",
      "type": "function"
    },
    {
      "inputs": [],
      "name": "updatePool",
      "outputs": [],
      "stateMutability": "nonpayable",
      "type": "function"
    },
    {
      "inputs": [
        {
          "internalType": "address",
          "name": "wallet_",
          "type": "address"
        }
      ],
      "name": "updateSupplierInfo",
      "outputs": [],
      "stateMutability": "nonpayable",
      "type": "function"
    },
    {
      "inputs": [
        {
          "internalType": "address",
          "name": "buyer",
          "type": "address"
        },
        {
          "internalType": "uint256",
          "name": "id",
          "type": "uint256"
        }
      ],
      "name": "updateUserCompleted",
      "outputs": [],
      "stateMutability": "nonpayable",
      "type": "function"
    },
    {
      "inputs": [
        {
          "internalType": "address",
          "name": "buyer",
          "type": "address"
        },
        {
          "internalType": "uint256",
          "name": "id",
          "type": "uint256"
        }
      ],
      "name": "updateUserRefund",
      "outputs": [],
      "stateMutability": "nonpayable",
      "type": "function"
    },
    {
      "inputs": [
        {
          "internalType": "address",
          "name": "",
          "type": "address"
        }
      ],
      "name": "userInfo",
      "outputs": [
        {
          "internalType": "uint256",
          "name": "amount",
          "type": "uint256"
        },
        {
          "internalType": "uint256",
          "name": "rewardDebt",
          "type": "uint256"
        }
      ],
      "stateMutability": "view",
      "type": "function"
    },
    {
      "inputs": [],
      "name": "voucher",
      "outputs": [
        {
          "internalType": "address",
          "name": "addr",
          "type": "address"
        },
        {
          "internalType": "contract IVNFT",
          "name": "instance",
          "type": "address"
        },
        {
          "internalType": "uint256",
          "name": "tokenId",
          "type": "uint256"
        },
        {
          "internalType": "bool",
          "name": "isEnable",
          "type": "bool"
        }
      ],
      "stateMutability": "view",
      "type": "function"
    },
    {
      "inputs": [
        {
          "internalType": "uint256",
          "name": "ids_",
          "type": "uint256"
        },
        {
          "internalType": "uint256",
          "name": "amount_",
          "type": "uint256"
        },
        {
          "internalType": "address",
          "name": "to_",
          "type": "address"
        }
      ],
      "name": "withdrawERC20",
      "outputs": [],
      "stateMutability": "nonpayable",
      "type": "function"
    },
    {
      "inputs": [
        {
          "internalType": "uint256",
          "name": "value_",
          "type": "uint256"
        }
      ],
      "name": "withdrawEther",
      "outputs": [],
      "stateMutability": "payable",
      "type": "function"
    }
  ],
  "bytecode": "0x608060405234801561001057600080fd5b506154af806100206000396000f3fe6080604052600436106103115760003560e060020a900480637a53e0401161019b578063c4e627c2116100f1578063deebbef111610094578063deebbef114610adc578063e3161ddd14610afc578063e67dc51814610b11578063eb91d37e14610b27578063efea8a1314610b3c578063f2fde38b14610b5c578063f97511d314610b7c578063fba7d65014610b9c57610311565b8063c4e627c214610967578063c660796a1461098c578063c757d4c7146109ac578063cdda418c146109cc578063d0ebdbe714610a2b578063d500958414610a4b578063dd304b1a14610a69578063dd62ed3e14610a9657610311565b80637a53e040146107b3578063828f3a9c146107c85780638456cb59146107e85780638da5cb5b146107fd57806395d89b411461081f578063964a6afe146108345780639b9ffbf314610849578063a10954fe14610878578063a457c2d71461088e578063a9059cbb146108ae578063aa4985cc146108ce578063af22803e146108e3578063b36e6dca14610903578063ba7a93b614610923578063c2a792571461094757610311565b80633bed33ce1161026b5780636386c1c71161020e5780636386c1c71461066d57806363cc06681461069a5780636e74607b146106ba5780636fed6974146106e757806370a0823114610707578063715018a61461072757806374a218721461073c57806374a7b0121461075157610311565b80633bed33ce1461055e57806343ff1fb814610571578063483335a114610591578063491052cd146105a75780634b9abc26146105c75780635a2f3d09146105dc5780635e88752c1461061657806360246c881461063657610311565b806301339c211461032057806306fdde0314610337578063095ea7b3146103625780630c7d5cd8146103925780630ccee99b146103c457806318160ddd146103e45780631959a0021461040357806319d5b5871461044c5780631b892eb31461046c578063224e4f481461048c57806323b872dd146104ac5780632f0a3fe4146104cc578063313ce567146104e157806336da4468146104fd578063395093511461053e575b34801561031d57600080fd5b50005b34801561032c57600080fd5b50610335610ba4565b005b34801561034357600080fd5b5061034c610c8c565b6040516103599190614f6e565b60405180910390f35b34801561036e57600080fd5b5061038261037d366004614bf8565b610d1e565b6040519015158152602001610359565b34801561039e57600080fd5b50609b546103af9063ffffffff1681565b60405163ffffffff9091168152602001610359565b3480156103d057600080fd5b506103356103df366004614bf8565b610d35565b3480156103f057600080fd5b506035545b604051908152602001610359565b34801561040f57600080fd5b5061043761041e366004614b48565b60a7602052600090815260409020805460019091015482565b60408051928352602083019190915201610359565b34801561045857600080fd5b506103f5610467366004614d9e565b610dbc565b34801561047857600080fd5b50610335610487366004614b48565b610ebb565b34801561049857600080fd5b506103f56104a7366004614d9e565b610f22565b3480156104b857600080fd5b506103826104c7366004614bb8565b610f47565b3480156104d857600080fd5b506103f5611010565b3480156104ed57600080fd5b5060405160128152602001610359565b34801561050957600080fd5b50609e54609f546105219190600160a060020a031682565b60408051928352600160a060020a03909116602083015201610359565b34801561054a57600080fd5b50610382610559366004614bf8565b611026565b61033561056c366004614d15565b61105d565b34801561057d57600080fd5b5061033561058c366004614b48565b61110d565b34801561059d57600080fd5b506103f560a95481565b3480156105b357600080fd5b506103826105c2366004614c3f565b6111ba565b3480156105d357600080fd5b506103f5600181565b3480156105e857600080fd5b5060a05460a15460a2546105fb92919083565b60408051938452602084019290925290820152606001610359565b34801561062257600080fd5b50610335610631366004614d15565b611214565b34801561064257600080fd5b5061064b611400565b6040805182518152602080840151908201529181015190820152606001610359565b34801561067957600080fd5b5061068d610688366004614b48565b611449565b604051610359919061520b565b3480156106a657600080fd5b506103f56106b5366004614d15565b611522565b3480156106c657600080fd5b506106da6106d5366004614b48565b61164f565b6040516103599190614eed565b3480156106f357600080fd5b50610335610702366004614dd6565b611735565b34801561071357600080fd5b506103f5610722366004614b48565b611a14565b34801561073357600080fd5b50610335611a2f565b34801561074857600080fd5b506103f5600081565b34801561075d57600080fd5b5060408051808201825260008082526020918201528151808301909252609e548252609f54600160a060020a0316908201526040805182518152602092830151600160a060020a03169281019290925201610359565b3480156107bf57600080fd5b506103af611a99565b3480156107d457600080fd5b506103af6107e3366004614d15565b611ae5565b3480156107f457600080fd5b50610335611af9565b34801561080957600080fd5b50610812611bca565b6040516103599190614e4f565b34801561082b57600080fd5b5061034c611bd9565b34801561084057600080fd5b50609e546103f5565b34801561085557600080fd5b50610869610864366004614bf8565b611be8565b60405161035993929190614f49565b34801561088457600080fd5b506103f560995481565b34801561089a57600080fd5b506103826108a9366004614bf8565b611c33565b3480156108ba57600080fd5b506103826108c9366004614bf8565b611cd4565b3480156108da57600080fd5b506103f5600281565b3480156108ef57600080fd5b506104376108fe366004614d9e565b611ce1565b34801561090f57600080fd5b5061033561091e366004614d66565b611da4565b34801561092f57600080fd5b50609b546103af90604060020a900463ffffffff1681565b34801561095357600080fd5b50610335610962366004614d45565b61207e565b34801561097357600080fd5b50609b546103af90640100000000900463ffffffff1681565b34801561099857600080fd5b506103356109a7366004614dd6565b612799565b3480156109b857600080fd5b506103356109c7366004614bf8565b612abe565b3480156109d857600080fd5b5060a35460a45460a55460a6546109fe93600160a060020a039081169316919060ff1684565b60408051600160a060020a0395861681529490931660208501529183015215156060820152608001610359565b348015610a3757600080fd5b50610335610a46366004614b48565b612ba2565b348015610a5757600080fd5b50609c54600160a060020a0316610812565b348015610a7557600080fd5b50610a89610a84366004614bf8565b612c1f565b6040516103599190614f3b565b348015610aa257600080fd5b506103f5610ab1366004614b80565b600160a060020a03918216600090815260346020908152604080832093909416825291909152205490565b348015610ae857600080fd5b50610335610af7366004614b48565b612c75565b348015610b0857600080fd5b50610335612d22565b348015610b1d57600080fd5b506103f5609a5481565b348015610b3357600080fd5b506103f5612d61565b348015610b4857600080fd5b50610335610b57366004614c5e565b612d6d565b348015610b6857600080fd5b50610335610b77366004614b48565b612e02565b348015610b8857600080fd5b506103f5610b97366004614d9e565b612efd565b610335612f54565b33610bad611bca565b600160a060020a031614610bdf5760405160e560020a62461bcd028152600401610bd690615168565b60405180910390fd5b60985460ff1615610c465760405160e560020a62461bcd02815260206004820152602560248201527f5468652070726f6475637420746f6b656e20697320616c7265616479206c6175604482015260da60020a641b98da1959026064820152608401610bd6565b6098805460ff191660019081179091556040519081527f65c5ccecef030677b73a1403e7e69ef84d05db9d1732959d543d32f4419909b8906020015b60405180910390a1565b606060368054610c9b90615356565b80601f0160208091040260200160405190810160405280929190818152602001828054610cc790615356565b8015610d145780601f10610ce957610100808354040283529160200191610d14565b820191906000526020600020905b815481529060010190602001808311610cf757829003601f168201915b5050505050905090565b6000610d2b3384846132ce565b5060015b92915050565b610d3d611bca565b600160a060020a031633600160a060020a03161480610d665750609c54600160a060020a031633145b610d855760405160e560020a62461bcd028152600401610bd690615131565b600160a060020a038216610dae5760405160e560020a62461bcd028152600401610bd690614fc1565b610db882826133ff565b5050565b6000808263ffffffff1611610de65760405160e560020a62461bcd028152600401610bd690615066565b609b54600090610e1d9063ffffffff606060020a8204811691610e179187811691604060020a900481169061357816565b90613578565b609d54609a54609b5460405160e060020a631c949873028152939450600160a060020a0390921692631c94987392610e64928692909163ffffffff16908990600401615270565b60206040518083038186803b158015610e7c57600080fd5b505afa158015610e90573d6000803e3d6000fd5b505050506040513d601f19601f82011682018060405250810190610eb49190614d2d565b9392505050565b33610ec4611bca565b600160a060020a031614610eed5760405160e560020a62461bcd028152600401610bd690615168565b600160a060020a038116610f0057600080fd5b60a88054600160a060020a031916600160a060020a0392909216919091179055565b6000806000610f3084613584565b9092509050610f3f828261363b565b949350505050565b6000610f54848484613647565b600160a060020a038416600090815260346020908152604080832033845290915290205482811015610ff15760405160e560020a62461bcd02815260206004820152602860248201527f45524332303a207472616e7366657220616d6f756e742065786365656473206160448201527f6c6c6f77616e63650000000000000000000000000000000000000000000000006064820152608401610bd6565b6110058533611000868561531a565b6132ce565b506001949350505050565b600060a95460016110219190615298565b905090565b336000818152603460209081526040808320600160a060020a03871684529091528120549091610d2b918590611000908690615298565b33611066611bca565b600160a060020a03161461108f5760405160e560020a62461bcd028152600401610bd690615168565b30316110e05760405160e560020a62461bcd02815260206004820152600f60248201527f6e6f20656e6f75676820657468657200000000000000000000000000000000006044820152606401610bd6565b604051339082156108fc029083906000818181858888f19350505050158015610db8573d6000803e3d6000fd5b33611116611bca565b600160a060020a03161461113f5760405160e560020a62461bcd028152600401610bd690615168565b600160a060020a0381166111985760405160e560020a62461bcd02815260206004820152600f60248201527f496e76616c6964206164647265737300000000000000000000000000000000006044820152606401610bd6565b609d8054600160a060020a031916600160a060020a0392909216919091179055565b600060038260038111156111e15760e060020a634e487b7102600052602160045260246000fd5b1480610d2f5750600282600381111561120d5760e060020a634e487b7102600052602160045260246000fd5b1492915050565b609f54600160a060020a031661126f5760405160e560020a62461bcd02815260206004820152601160248201527f77616c6c657420697320696e76616c69640000000000000000000000000000006044820152606401610bd6565b609f54600160a060020a031633146112cc5760405160e560020a62461bcd02815260206004820152601a60248201527f5468652061646472657373206973206e6f7420616c6c6f7765640000000000006044820152606401610bd6565b60a85460405160e060020a63bf418de102815260016004820152600091600160a060020a03169063bf418de19060240160206040518083038186803b15801561131457600080fd5b505afa158015611328573d6000803e3d6000fd5b505050506040513d601f19601f8201168201806040525081019061134c9190614b64565b609e54909150819083116113fb5760405160e060020a63a9059cbb028152600090600160a060020a0383169063a9059cbb9061138e9033908890600401614e63565b602060405180830381600087803b1580156113a857600080fd5b505af11580156113bc573d6000803e3d6000fd5b505050506040513d601f19601f820116820180604052508101906113e09190614c23565b905080156113f957609e546113f5908561363b565b609e555b505b505050565b61142460405180606001604052806000815260200160008152602001600081525090565b506040805160608101825260a054815260a154602082015260a2549181019190915290565b61146d60405180606001604052806000815260200160008152602001606081525090565b600160a060020a0382166114965760405160e560020a62461bcd028152600401610bd69061509d565b600160a060020a038216600090815260a760209081526040918290208251606081018452815481526001820154818401526002820180548551818602810186018752818152929593949386019383018282801561151257602002820191906000526020600020905b8154815260200190600101908083116114fe575b5050505050815250509050919050565b60a85460405160e060020a6315fc65d902815260048101839052600091600160a060020a0316906315fc65d99060240160206040518083038186803b15801561156a57600080fd5b505afa15801561157e573d6000803e3d6000fd5b505050506040513d601f19601f820116820180604052508101906115a29190614c23565b6115c15760405160e560020a62461bcd028152600401610bd69061502f565b60a854600160a060020a0316631c6e7b206115da612d61565b60405160e060020a63ffffffff84160281526004810191909152602481018590526044015b60206040518083038186803b15801561161757600080fd5b505afa15801561162b573d6000803e3d6000fd5b505050506040513d601f19601f82011682018060405250810190610d2f9190614d2d565b600160a060020a0381166000908152606560209081526040808320805482518185028101850190935280835260609492939192909184015b8282101561172a576000848152602090206040805160608101909152600284029091018054829060ff1660038111156116d35760e060020a634e487b7102600052602160045260246000fd5b60038111156116f55760e060020a634e487b7102600052602160045260246000fd5b81528154610100900463ffffffff16602080830191909152600192830154604090920191909152918352929092019101611687565b505050509050919050565b60985460ff1661175a5760405160e560020a62461bcd028152600401610bd69061519d565b60a85460405160e060020a6315fc65d902815260016004820152600160a060020a03909116906315fc65d99060240160206040518083038186803b1580156117a157600080fd5b505afa1580156117b5573d6000803e3d6000fd5b505050506040513d601f19601f820116820180604052508101906117d99190614c23565b6117f85760405160e560020a62461bcd028152600401610bd69061502f565b60008263ffffffff16116118215760405160e560020a62461bcd028152600401610bd6906151d4565b8163ffffffff1661183133611a14565b10156118825760405160e560020a62461bcd02815260206004820152601c60248201527f496e73756666696369656e7420746f6b656e7320746f206275726e2e000000006044820152606401610bd6565b60008061188e84613584565b91509150600061189d85610dbc565b90506118cb6118c682610e176512309ce540006118c0876509184e72a000613833565b9061383f565b61384b565b6118d5838361363b565b60a85460405160e560020a62e373d90281526004810183905260016024820152919450611966918791600160a060020a031690631c6e7b209060440160206040518083038186803b15801561192957600080fd5b505afa15801561193d573d6000803e3d6000fd5b505050506040513d601f19601f820116820180604052508101906119619190614d2d565b6138ef565b50611977338663ffffffff16613a43565b609b54611992908690604060020a900463ffffffff166152b0565b609b80546bffffffff00000000000000001916604060020a63ffffffff93841602179055609a546119c591839061357816565b609a556119d28585613b8c565b60405163ffffffff8616815233907fe600c25f82e9bac8f9f1663725540d6cd442845726820fd5bee41b66c4bf59be9060200160405180910390a25050505050565b600160a060020a031660009081526033602052604090205490565b33611a38611bca565b600160a060020a031614611a615760405160e560020a62461bcd028152600401610bd690615168565b606654604051600091600160a060020a03169060008051602061543a833981519152908390a360668054600160a060020a0319169055565b609b54600090604060020a900463ffffffff16611ab560355490565b609b54611ad09190640100000000900463ffffffff16615331565b611ada9190615331565b6110219060646152b0565b600080611af183613e14565b509392505050565b33611b02611bca565b600160a060020a031614611b2b5760405160e560020a62461bcd028152600401610bd690615168565b60985460ff16611b8f5760405160e560020a62461bcd02815260206004820152602360248201527f5468652070726f6475637420746f6b656e20697320616c726561647920706175604482015260ea60020a621cd959026064820152608401610bd6565b6098805460ff19169055604051600081527f65c5ccecef030677b73a1403e7e69ef84d05db9d1732959d543d32f4419909b890602001610c82565b606654600160a060020a031690565b606060378054610c9b90615356565b60656020528160005260406000208181548110611c0457600080fd5b60009182526020909120600290910201805460019091015460ff8216935061010090910463ffffffff16915083565b336000908152603460209081526040808320600160a060020a038616845290915281205482811015611cbb5760405160e560020a62461bcd02815260206004820152602560248201527f45524332303a2064656372656173656420616c6c6f77616e63652062656c6f77604482015260d860020a64207a65726f026064820152608401610bd6565b611cca3385611000868561531a565b5060019392505050565b6000610d2b338484613647565b609d5460009081908190600160a060020a031663bff82d84611d01613f19565b609954609b5460405163ffffffff85811660e060020a028252611d2c94939216908a90600401615270565b60206040518083038186803b158015611d4457600080fd5b505afa158015611d58573d6000803e3d6000fd5b505050506040513d601f19601f82011682018060405250810190611d7c9190614d2d565b90506000611d9864e8d4a510006118c0846412a05f2000613833565b91935090915050915091565b33611dad611bca565b600160a060020a031614611dd65760405160e560020a62461bcd028152600401610bd690615168565b60a85460405160e060020a6336e84a8702815260048101859052600160a060020a03909116906336e84a879060240160206040518083038186803b158015611e1d57600080fd5b505afa158015611e31573d6000803e3d6000fd5b505050506040513d601f19601f82011682018060405250810190611e559190614c23565b611ea45760405160e560020a62461bcd02815260206004820152600e60248201527f6e6f7420696e76616c69642069640000000000000000000000000000000000006044820152606401610bd6565b600160a060020a038116611ecd5760405160e560020a62461bcd028152600401610bd69061509d565b60a85460405160e060020a63bf418de102815260048101859052600091600160a060020a03169063bf418de19060240160206040518083038186803b158015611f1557600080fd5b505afa158015611f29573d6000803e3d6000fd5b505050506040513d601f19601f82011682018060405250810190611f4d9190614b64565b60405160e060020a6370a082310281529091508190600160a060020a038216906370a0823190611f81903090600401614e4f565b60206040518083038186803b158015611f9957600080fd5b505afa158015611fad573d6000803e3d6000fd5b505050506040513d601f19601f82011682018060405250810190611fd19190614d2d565b841115611ff35760405160e560020a62461bcd028152600401610bd690615066565b60405160e060020a63a9059cbb028152600160a060020a0382169063a9059cbb906120249086908890600401614e63565b602060405180830381600087803b15801561203e57600080fd5b505af1158015612052573d6000803e3d6000fd5b505050506040513d601f19601f820116820180604052508101906120769190614c23565b505050505050565b60985460ff166120a35760405160e560020a62461bcd028152600401610bd69061519d565b60a85460405160e060020a6315fc65d902815260048101849052600160a060020a03909116906315fc65d99060240160206040518083038186803b1580156120ea57600080fd5b505afa1580156120fe573d6000803e3d6000fd5b505050506040513d601f19601f820116820180604052508101906121229190614c23565b6121415760405160e560020a62461bcd028152600401610bd69061502f565b600081116121945760405160e560020a62461bcd02815260206004820152601160248201527f696e76616c6964206d61782070726963650000000000000000000000000000006044820152606401610bd6565b60a85460405160e060020a63bf418de102815260048101849052600091600160a060020a03169063bf418de19060240160206040518083038186803b1580156121dc57600080fd5b505afa1580156121f0573d6000803e3d6000fd5b505050506040513d601f19601f820116820180604052508101906122149190614b64565b60405160e060020a6323b872dd02815233600482015230602482015260448101849052909150600090600160a060020a038316906323b872dd90606401602060405180830381600087803b15801561226b57600080fd5b505af115801561227f573d6000803e3d6000fd5b505050506040513d601f19601f820116820180604052508101906122a39190614c23565b9050806122f55760405160e560020a62461bcd02815260206004820152601060248201527f5075726368617365206661696c65642e000000000000000000000000000000006044820152606401610bd6565b60a85460405160e060020a63a71b7b770281526004810185905260248101869052600091600160a060020a03169063a71b7b779060440160206040518083038186803b15801561234457600080fd5b505afa158015612358573d6000803e3d6000fd5b505050506040513d601f19601f8201168201806040525081019061237c9190614d2d565b905060008060008061238d85613f46565b93509350935063ffffffff16935060008411156127095782156124b75760a85460405160e560020a62e373d902815260048101859052602481018b9052600160a060020a0390911690631c6e7b209060440160206040518083038186803b1580156123f757600080fd5b505afa15801561240b573d6000803e3d6000fd5b505050506040513d601f19601f8201168201806040525081019061242f9190614d2d565b60405160e060020a63a9059cbb028152909350600160a060020a0388169063a9059cbb906124639033908790600401614e63565b602060405180830381600087803b15801561247d57600080fd5b505af1158015612491573d6000803e3d6000fd5b505050506040513d601f19601f820116820180604052508101906124b59190614c23565b505b6124d36118c6650746a52880006118c08464e8d4a51000613833565b60a85460405160e560020a62e373d90281526004810183905260016024820152600160a060020a0390911690631c6e7b209060440160206040518083038186803b15801561252057600080fd5b505afa158015612534573d6000803e3d6000fd5b505050506040513d601f19601f820116820180604052508101906125589190614d2d565b9050612580612577650746a52880006118c084650574fbde6000613833565b60a25490613578565b60a25560018914156127045760a85460405160e560020a62e373d90281526004810184905260016024820152600160a060020a0390911690631c6e7b209060440160206040518083038186803b1580156125d957600080fd5b505afa1580156125ed573d6000803e3d6000fd5b505050506040513d601f19601f820116820180604052508101906126119190614d2d565b33600090815260a760205260408120600181015460a1548254949650919360a09392612652929161264c9164e8d4a51000916118c091613833565b9061363b565b905080156126df5760405160e060020a63a9059cbb028152600160a060020a038b169063a9059cbb9061268b9033908590600401614e63565b602060405180830381600087803b1580156126a557600080fd5b505af11580156126b9573d6000803e3d6000fd5b505050506040513d601f19601f820116820180604052508101906126dd9190614c23565b505b60a0546126ec9086613578565b60a0556126f7612d22565b612700856140ab565b5050505b61278e565b60405160e060020a63a9059cbb028152600160a060020a0388169063a9059cbb9061273a9033908c90600401614e63565b602060405180830381600087803b15801561275457600080fd5b505af1158015612768573d6000803e3d6000fd5b505050506040513d601f19601f8201168201806040525081019061278c9190614c23565b505b505050505050505050565b60985460ff166127be5760405160e560020a62461bcd028152600401610bd69061519d565b60a85460405160e060020a6315fc65d902815260016004820152600160a060020a03909116906315fc65d99060240160206040518083038186803b15801561280557600080fd5b505afa158015612819573d6000803e3d6000fd5b505050506040513d601f19601f8201168201806040525081019061283d9190614c23565b61285c5760405160e560020a62461bcd028152600401610bd69061502f565b8163ffffffff1661286c33611a14565b10158061287f575060008263ffffffff16115b61289e5760405160e560020a62461bcd028152600401610bd690615066565b60a85460405160e060020a63bf418de102815260016004820152600091600160a060020a03169063bf418de19060240160206040518083038186803b1580156128e657600080fd5b505afa1580156128fa573d6000803e3d6000fd5b505050506040513d601f19601f8201168201806040525081019061291e9190614b64565b905060008061292c85614104565b9150915061293a8585613b8c565b60a85460405160e560020a62e373d90281526004810184905260016024820152600091600160a060020a031690631c6e7b209060440160206040518083038186803b15801561298857600080fd5b505afa15801561299c573d6000803e3d6000fd5b505050506040513d601f19601f820116820180604052508101906129c09190614d2d565b9050600084600160a060020a031663a9059cbb33846040518363ffffffff1660e060020a0281526004016129f5929190614e63565b602060405180830381600087803b158015612a0f57600080fd5b505af1158015612a23573d6000803e3d6000fd5b505050506040513d601f19601f82011682018060405250810190612a479190614c23565b9050612a656118c66501d1a94a20006118c08664e8d4a51000613833565b80612ab55760405160e560020a62461bcd02815260206004820152601460248201527f73656c6c696e6720746f6b656e206661696c65640000000000000000000000006044820152606401610bd6565b50505050505050565b612ac6611bca565b600160a060020a031633600160a060020a03161480612aef5750609c54600160a060020a031633145b612b0e5760405160e560020a62461bcd028152600401610bd690615131565b600160a060020a038216612b375760405160e560020a62461bcd028152600401610bd690614fc1565b6000612b438383614217565b905060008111612b985760405160e560020a62461bcd02815260206004820152600d60248201527f496e76616c69642076616c7565000000000000000000000000000000000000006044820152606401610bd6565b6113fb83826143c8565b33612bab611bca565b600160a060020a031614612bd45760405160e560020a62461bcd028152600401610bd690615168565b600160a060020a038116612bfd5760405160e560020a62461bcd028152600401610bd69061509d565b609c8054600160a060020a031916600160a060020a0392909216919091179055565b600160a060020a0382166000908152606560205260408120805483908110612c5a5760e060020a634e487b7102600052603260045260246000fd5b600091825260209091206002909102015460ff169392505050565b33612c7e611bca565b600160a060020a031614612ca75760405160e560020a62461bcd028152600401610bd690615168565b600160a060020a038116612d005760405160e560020a62461bcd02815260206004820152601260248201527f4164647265737320697320696e76616c696400000000000000000000000000006044820152606401610bd6565b609f8054600160a060020a031916600160a060020a0392909216919091179055565b60a05480612d355750600060a155612d5f565b60a254612d5a90612d519083906118c09064e8d4a51000613833565b60a15490613578565b60a155505b565b60006110216001612efd565b600054610100900460ff1680612d86575060005460ff16155b612da55760405160e560020a62461bcd028152600401610bd6906150d4565b600054610100900460ff16158015612dc7576000805461ffff19166101011790555b612dcf614521565b612dd9888861459f565b612de68686868686614621565b8015612df8576000805461ff00191690555b5050505050505050565b33612e0b611bca565b600160a060020a031614612e345760405160e560020a62461bcd028152600401610bd690615168565b600160a060020a038116612eb35760405160e560020a62461bcd02815260206004820152602660248201527f4f776e61626c653a206e6577206f776e657220697320746865207a65726f206160448201527f64647265737300000000000000000000000000000000000000000000000000006064820152608401610bd6565b606654604051600160a060020a0380841692169060008051602061543a83398151915290600090a360668054600160a060020a031916600160a060020a0392909216919091179055565b609d54600090600160a060020a031663bff82d84612f19613f19565b609954609b54612f319063ffffffff1661c3506152b0565b866040518563ffffffff1660e060020a0281526004016115ff9493929190615270565b60985460ff16612f795760405160e560020a62461bcd028152600401610bd69061519d565b60a85460405160e060020a6315fc65d902815260006004820152600160a060020a03909116906315fc65d99060240160206040518083038186803b158015612fc057600080fd5b505afa158015612fd4573d6000803e3d6000fd5b505050506040513d601f19601f82011682018060405250810190612ff89190614c23565b6130175760405160e560020a62461bcd028152600401610bd69061502f565b6000341161306a5760405160e560020a62461bcd02815260206004820152600d60248201527f696e76616c69642076616c7565000000000000000000000000000000000000006044820152606401610bd6565b60a85460405160e060020a63a71b7b7702815234600482015260006024820181905291600160a060020a03169063a71b7b779060440160206040518083038186803b1580156130b857600080fd5b505afa1580156130cc573d6000803e3d6000fd5b505050506040513d601f19601f820116820180604052508101906130f09190614d2d565b9050600080600061310084613f46565b935050925063ffffffff169250600083111561329b5781156131d35760a85460405160e560020a62e373d90281526004810184905260006024820152600160a060020a0390911690631c6e7b209060440160206040518083038186803b15801561316957600080fd5b505afa15801561317d573d6000803e3d6000fd5b505050506040513d601f19601f820116820180604052508101906131a19190614d2d565b604051909250339083156108fc029084906000818181858888f193505050501580156131d1573d6000803e3d6000fd5b505b6131ef6118c6650746a52880006118c08464e8d4a51000613833565b60a85460405160e560020a62e373d90281526004810183905260016024820152600160a060020a0390911690631c6e7b209060440160206040518083038186803b15801561323c57600080fd5b505afa158015613250573d6000803e3d6000fd5b505050506040513d601f19601f820116820180604052508101906132749190614d2d565b9050613293612577650746a52880006118c084650574fbde6000613833565b60a2556113f9565b60405133903480156108fc02916000818181858888f193505050501580156132c7573d6000803e3d6000fd5b5050505050565b600160a060020a0383166133365760405160e560020a62461bcd028152602060048201526024808201527f45524332303a20617070726f76652066726f6d20746865207a65726f20616464604482015260e060020a6372657373026064820152608401610bd6565b600160a060020a03821661339d5760405160e560020a62461bcd02815260206004820152602260248201527f45524332303a20617070726f766520746f20746865207a65726f206164647265604482015260f060020a617373026064820152608401610bd6565b600160a060020a0383811660008181526034602090815260408083209487168084529482529182902085905590518481527f8c5be1e5ebec7d5bd14f71427d1e84f3dd0314c0f7b2291e5b200ac8c7c3b92591015b60405180910390a3505050565b600160a060020a0382166000908152606560205260409020805461345891908390811061343f5760e060020a634e487b7102600052603260045260246000fd5b600091825260209091206002909102015460ff166111ba565b156134785760405160e560020a62461bcd028152600401610bd690614ff8565b600160a060020a0382166000908152606560205260409020805460039190839081106134b75760e060020a634e487b7102600052603260045260246000fd5b60009182526020909120600290910201805460ff191660018360038111156134f25760e060020a634e487b7102600052602160045260246000fd5b021790555060008051602061541a83398151915282826065600086600160a060020a0316600160a060020a03168152602001908152602001600020848154811061354f5760e060020a634e487b7102600052603260045260246000fd5b906000526020600020906002020160405161356c93929190614ea0565b60405180910390a15050565b6000610eb48284615298565b609d5460009081908190600160a060020a0316631c9498736135a4613f19565b609954609b5460405163ffffffff85811660e060020a0282526135cf94939216908a90600401615270565b60206040518083038186803b1580156135e757600080fd5b505afa1580156135fb573d6000803e3d6000fd5b505050506040513d601f19601f8201168201806040525081019061361f9190614d2d565b90506000611d9864e8d4a510006118c0846404a817c800613833565b6000610eb4828461531a565b600160a060020a0383166136b15760405160e560020a62461bcd02815260206004820152602560248201527f45524332303a207472616e736665722066726f6d20746865207a65726f206164604482015260d860020a646472657373026064820152608401610bd6565b600160a060020a0382166137195760405160e560020a62461bcd02815260206004820152602360248201527f45524332303a207472616e7366657220746f20746865207a65726f2061646472604482015260e860020a62657373026064820152608401610bd6565b600160a060020a038316600090815260336020526040902054818110156137ab5760405160e560020a62461bcd02815260206004820152602660248201527f45524332303a207472616e7366657220616d6f756e742065786365656473206260448201527f616c616e636500000000000000000000000000000000000000000000000000006064820152608401610bd6565b6137b5828261531a565b600160a060020a0380861660009081526033602052604080822093909355908516815290812080548492906137eb908490615298565b9250508190555082600160a060020a031684600160a060020a031660008051602061545a8339815191528460405161382591815260200190565b60405180910390a350505050565b6000610eb482846152fb565b6000610eb482846152d8565b80156138ec5760a85460405160e560020a62e373d90281526004810183905260016024820152600091600160a060020a031690631c6e7b209060440160206040518083038186803b15801561389f57600080fd5b505afa1580156138b3573d6000803e3d6000fd5b505050506040513d601f19601f820116820180604052508101906138d79190614d2d565b609e549091506138e79082613578565b609e55505b50565b6000808363ffffffff16116139495760405160e560020a62461bcd02815260206004820152600e60248201527f496e76616c696420416d6f756e740000000000000000000000000000000000006044820152606401610bd6565b60408051606081018252600180825263ffffffff861660208084019190915282840186905233600090815260658252938420805480840182559085529320825160029094020180549293849391929091839160ff19909116908360038111156139c55760e060020a634e487b7102600052602160045260246000fd5b0217905550602082810151825463ffffffff9091166101000264ffffffff0019909116178255604092830151600192830155336000908152606590915291822054613a10919061531a565b905060008051602061541a833981519152338284604051613a3393929190614e7c565b60405180910390a1949350505050565b600160a060020a038216613aa95760405160e560020a62461bcd02815260206004820152602160248201527f45524332303a206275726e2066726f6d20746865207a65726f20616464726573604482015260f860020a6073026064820152608401610bd6565b600160a060020a03821660009081526033602052604090205481811015613b235760405160e560020a62461bcd02815260206004820152602260248201527f45524332303a206275726e20616d6f756e7420657863656564732062616c616e604482015260f060020a616365026064820152608401610bd6565b613b2d828261531a565b600160a060020a03841660009081526033602052604081209190915560358054849290613b5b90849061531a565b9091555050604051828152600090600160a060020a0385169060008051602061545a833981519152906020016133f2565b33600090815260a7602052604090205415610db85760a85460405160e060020a63bf418de102815260016004820152600091600160a060020a03169063bf418de19060240160206040518083038186803b158015613be957600080fd5b505afa158015613bfd573d6000803e3d6000fd5b505050506040513d601f19601f82011682018060405250810190613c219190614b64565b33600090815260a7602052604090209091508280613c4b57506002810154613c4833611a14565b11155b156113f957600281015463ffffffff851690811115613c6b575060028101545b6000805b82811015613d1757600284018054613cc89190613c8d90600161363b565b81548110613cae5760e060020a634e487b7102600052603260045260246000fd5b90600052602060002001548361357890919063ffffffff16565b915083600201805480613cee5760e060020a634e487b7102600052603160045260246000fd5b600190038181906000526020600020016000905590558080613d0f90615395565b915050613c6f565b50600183015460a154845460a092600092613d409261264c9164e8d4a51000916118c091613833565b60a054909150613d50908461363b565b60a0558015613dde5760405160e060020a63a9059cbb028152600160a060020a0387169063a9059cbb90613d8a9033908590600401614e63565b602060405180830381600087803b158015613da457600080fd5b505af1158015613db8573d6000803e3d6000fd5b505050506040513d601f19601f82011682018060405250810190613ddc9190614c23565b505b8454613dea908461363b565b80865560a154613e059164e8d4a51000916118c09190613833565b60018601555050505050505050565b60008080613e3064fb750430006118c08664e8d4a51000613833565b90506000613e4c64e8d4a510006118c084640df8475800613833565b609d54909150600090600160a060020a0316639f4ae6b0613e6b613f19565b609954609b5463ffffffff90811690613e88908990899061363b16565b60405163ffffffff86811660e060020a0282529485166004820152602481019390935292166044820152606481019190915260840160206040518083038186803b158015613ed557600080fd5b505afa158015613ee9573d6000803e3d6000fd5b505050506040513d601f19601f82011682018060405250810190613f0d9190614dba565b94509092505050915091565b609b546000906110219063ffffffff606060020a8204811691610e1791604060020a909104168160355490565b6000806000806000613f56611a99565b63ffffffff1611613fac5760405160e560020a62461bcd02815260206004820152601e60248201527f536f7272792c207468697320746f6b656e20697320736f6c64206f75742e00006044820152606401610bd6565b60008511613fff5760405160e560020a62461bcd02815260206004820152601960248201527f4465706f736974206d757374206265206e6f6e2d7a65726f2e000000000000006044820152606401610bd6565b60008061400c6001611ce1565b915091508682111561402d57600087600080955095509550955050506140a4565b6140383360016147b4565b61404e614045838361363b565b60995490613578565b60995560408051600181526020810184905233917f5b55159a377d86da80a65140d62d994ddbb2cbd4bb2d1b59cb0827fecbe47cab910160405180910390a26001614099888461363b565b909650945090925090505b9193509193565b33600090815260a76020526040902080546140c69083613578565b8155600281018054600181018255600091825260209091200182905560a15481546140fb9164e8d4a51000916118c091613833565b60019091015550565b60008060008363ffffffff16116141305760405160e560020a62461bcd028152600401610bd6906151d4565b8263ffffffff1661414033611a14565b10156141915760405160e560020a62461bcd02815260206004820152601c60248201527f496e73756666696369656e7420746f6b656e7320746f2073656c6c2e000000006044820152606401610bd6565b60008061419d85613584565b60995491935091506141af908361363b565b6099556141c23363ffffffff8716613a43565b6040805163ffffffff871681526020810184905233917f84c8d08e5480cf09cbf77bc575dc4e63845522693c34094f04129a4dedb7abd7910160405180910390a261420d828261363b565b9350915050915091565b600160a060020a0382166000908152606560205260408120805461425791908490811061343f5760e060020a634e487b7102600052603260045260246000fd5b156142775760405160e560020a62461bcd028152600401610bd690614ff8565b600160a060020a0383166000908152606560205260409020805460029190849081106142b65760e060020a634e487b7102600052603260045260246000fd5b60009182526020909120600290910201805460ff191660018360038111156142f15760e060020a634e487b7102600052602160045260246000fd5b021790555060008051602061541a83398151915283836065600087600160a060020a0316600160a060020a03168152602001908152602001600020858154811061434e5760e060020a634e487b7102600052603260045260246000fd5b906000526020600020906002020160405161436b93929190614ea0565b60405180910390a1600160a060020a03831660009081526065602052604090208054839081106143ae5760e060020a634e487b7102600052603260045260246000fd5b906000526020600020906002020160010154905092915050565b60a85460405160e060020a63bf418de102815260016004820152600091600160a060020a03169063bf418de19060240160206040518083038186803b15801561441057600080fd5b505afa158015614424573d6000803e3d6000fd5b505050506040513d601f19601f820116820180604052508101906144489190614b64565b9050600081600160a060020a031663a9059cbb85856040518363ffffffff1660e060020a02815260040161447d929190614e63565b602060405180830381600087803b15801561449757600080fd5b505af11580156144ab573d6000803e3d6000fd5b505050506040513d601f19601f820116820180604052508101906144cf9190614c23565b9050806113f95760405160e560020a62461bcd02815260206004820152601360248201527f726566756e6420746f6b656e206661696c6564000000000000000000000000006044820152606401610bd6565b600054610100900460ff168061453a575060005460ff16155b6145595760405160e560020a62461bcd028152600401610bd6906150d4565b600054610100900460ff1615801561457b576000805461ffff19166101011790555b614583614884565b61458b6148f1565b80156138ec576000805461ff001916905550565b600054610100900460ff16806145b8575060005460ff16155b6145d75760405160e560020a62461bcd028152600401610bd6906150d4565b600054610100900460ff161580156145f9576000805461ffff19166101011790555b614601614884565b61460b8383614990565b80156113fb576000805461ff0019169055505050565b600054610100900460ff168061463a575060005460ff16155b6146595760405160e560020a62461bcd028152600401610bd6906150d4565b600054610100900460ff1615801561467b576000805461ffff19166101011790555b60008463ffffffff16116146d45760405160e560020a62461bcd02815260206004820152601860248201527f496e76616c6964206d617820746f6b656e20636f756e742e00000000000000006044820152606401610bd6565b60008563ffffffff161161472d5760405160e560020a62461bcd02815260206004820152601560248201527f496e76616c6964207265736572766520726174696f00000000000000000000006044820152606401610bd6565b609d8054600160a060020a038816600160a060020a03199091161790556099829055609a829055609b805463ffffffff8681166401000000000267ffffffffffffffff19828816606060020a02166fffffffff00000000ffffffffffffffff1990931692909217908816171790558015612076576000805461ff0019169055505050505050565b600160a060020a03821661480d5760405160e560020a62461bcd02815260206004820152601f60248201527f45524332303a206d696e7420746f20746865207a65726f2061646472657373006044820152606401610bd6565b806035600082825461481f9190615298565b9091555050600160a060020a0382166000908152603360205260408120805483929061484c908490615298565b9091555050604051818152600160a060020a0383169060009060008051602061545a8339815191529060200160405180910390a35050565b600054610100900460ff168061489d575060005460ff16155b6148bc5760405160e560020a62461bcd028152600401610bd6906150d4565b600054610100900460ff1615801561458b576000805461ffff191661010117905580156138ec576000805461ff001916905550565b600054610100900460ff168061490a575060005460ff16155b6149295760405160e560020a62461bcd028152600401610bd6906150d4565b600054610100900460ff1615801561494b576000805461ffff19166101011790555b60668054600160a060020a03191633908117909155604051819060009060008051602061543a833981519152908290a35080156138ec576000805461ff001916905550565b600054610100900460ff16806149a9575060005460ff16155b6149c85760405160e560020a62461bcd028152600401610bd6906150d4565b600054610100900460ff161580156149ea576000805461ffff19166101011790555b82516149fd906036906020860190614a28565b508151614a11906037906020850190614a28565b5080156113fb576000805461ff0019169055505050565b828054614a3490615356565b90600052602060002090601f016020900481019282614a565760008555614a9c565b82601f10614a6f57805160ff1916838001178555614a9c565b82800160010185558215614a9c579182015b82811115614a9c578251825591602001919060010190614a81565b50614aa8929150614aac565b5090565b5b80821115614aa85760008155600101614aad565b600082601f830112614ad1578081fd5b813567ffffffffffffffff80821115614aec57614aec6153ca565b604051601f8301601f19908116603f01168101908282118183101715614b1457614b146153ca565b81604052838152866020858801011115614b2c578485fd5b8360208701602083013792830160200193909352509392505050565b600060208284031215614b59578081fd5b8135610eb4816153e4565b600060208284031215614b75578081fd5b8151610eb4816153e4565b60008060408385031215614b92578081fd5b8235614b9d816153e4565b91506020830135614bad816153e4565b809150509250929050565b600080600060608486031215614bcc578081fd5b8335614bd7816153e4565b92506020840135614be7816153e4565b929592945050506040919091013590565b60008060408385031215614c0a578182fd5b8235614c15816153e4565b946020939093013593505050565b600060208284031215614c34578081fd5b8151610eb4816153f9565b600060208284031215614c50578081fd5b813560048110610eb4578182fd5b600080600080600080600060e0888a031215614c78578283fd5b873567ffffffffffffffff80821115614c8f578485fd5b614c9b8b838c01614ac1565b985060208a0135915080821115614cb0578485fd5b50614cbd8a828b01614ac1565b9650506040880135614cce816153e4565b94506060880135614cde81615407565b93506080880135614cee81615407565b925060a0880135614cfe81615407565b8092505060c0880135905092959891949750929550565b600060208284031215614d26578081fd5b5035919050565b600060208284031215614d3e578081fd5b5051919050565b60008060408385031215614d57578182fd5b50508035926020909101359150565b600080600060608486031215614d7a578283fd5b83359250602084013591506040840135614d93816153e4565b809150509250925092565b600060208284031215614daf578081fd5b8135610eb481615407565b600060208284031215614dcb578081fd5b8151610eb481615407565b60008060408385031215614de8578182fd5b8235614df381615407565b91506020830135614bad816153f9565b60048110614e255760e060020a634e487b710260009081526021600452602490fd5b9052565b614e34828251614e03565b60208181015163ffffffff1690830152604090810151910152565b600160a060020a0391909116815260200190565b600160a060020a03929092168252602082015260400190565b600160a060020a03841681526020810183905260a08101610f3f6040830184614e29565b600160a060020a038416815260208101839052815460a0820190614eca6040840160ff8316614e03565b63ffffffff61010082041660608401525060018301546080830152949350505050565b6020808252825182820181905260009190848201906040850190845b81811015614f2f57614f1c838551614e29565b9284019260609290920191600101614f09565b50909695505050505050565b60208101610d2f8284614e03565b60608101614f578286614e03565b63ffffffff93909316602082015260400152919050565b6000602080835283518082850152825b81811015614f9a57858101830151858201604001528201614f7e565b81811115614fab5783604083870101525b50601f01601f1916929092016040019392505050565b6020808252600d908201527f496e76616c696420627579657200000000000000000000000000000000000000604082015260600190565b60208082526011908201527f616c726561647920636f6d706c65746564000000000000000000000000000000604082015260600190565b6020808252600b908201527f6e6f7420737570706f7274000000000000000000000000000000000000000000604082015260600190565b6020808252600e908201527f696e76616c696420616d6f756e74000000000000000000000000000000000000604082015260600190565b6020808252600f908201527f696e76616c696420616464726573730000000000000000000000000000000000604082015260600190565b6020808252602e908201527f496e697469616c697a61626c653a20636f6e747261637420697320616c72656160408201527f647920696e697469616c697a6564000000000000000000000000000000000000606082015260800190565b60208082526011908201527f7065726d697373696f6e2064656e696564000000000000000000000000000000604082015260600190565b6020808252818101527f4f776e61626c653a2063616c6c6572206973206e6f7420746865206f776e6572604082015260600190565b60208082526013908201527f756e61626c6520746f207472616465206e6f7700000000000000000000000000604082015260600190565b60208082526018908201527f416d6f756e74206d757374206265206e6f6e2d7a65726f2e0000000000000000604082015260600190565b6000602080835260808301845182850152818501516040850152604085015160608086015281815180845260a08701915084830193508592505b808310156152655783518252928401926001929092019190840190615245565b509695505050505050565b63ffffffff948516815260208101939093529083166040830152909116606082015260800190565b600082198211156152ab576152ab6153b0565b500190565b600063ffffffff8083168185168083038211156152cf576152cf6153b0565b01949350505050565b6000826152f65760e060020a634e487b710281526012600452602481fd5b500490565b6000816000190483118215151615615315576153156153b0565b500290565b60008282101561532c5761532c6153b0565b500390565b600063ffffffff8381169083168181101561534e5761534e6153b0565b039392505050565b60028104600182168061536a57607f821691505b6020821081141561538f5760e060020a634e487b710260009081526022600452602490fd5b50919050565b60006000198214156153a9576153a96153b0565b5060010190565b60e060020a634e487b710260009081526011600452602490fd5b60e060020a634e487b710260009081526041600452602490fd5b600160a060020a03811681146138ec57600080fd5b80151581146138ec57600080fd5b63ffffffff811681146138ec57600080fdfe09c64bee251b684a6bb80ce179dd520c001481b7c3d7781f1502e3052af474cf8be0079c531659141344cd1fd0a4f28419497f9722a3daafe3b4186f6b6457e0ddf252ad1be2c89b69c2b068fc378daa952ba7f163c4a11628f55a4df523b3efa26469706673582212207ffa69c37750bd2ebf8663181e3fd0bf3e0f4b1988395f96517e795f6a867ff364736f6c63430008030033",
  "immutableReferences": {},
  "source": "pragma solidity ^0.8.2;\n\nimport \"@openzeppelin/contracts-upgradeable/token/ERC20/ERC20Upgradeable.sol\";\nimport \"@openzeppelin/contracts-upgradeable/utils/math/SafeMathUpgradeable.sol\";\n\nimport \"../ProductToken.sol\";\nimport \"../ProductTokenV1.sol\";\nimport \"../Power.sol\";\n\n\ncontract ProductTokenV2 is ProductTokenV1 {\n  uint256 public newAttribute;\n\n  function getNewAttribute()\n  public view returns (uint256)\n  {\n    return newAttribute + 1;\n  }\n\n  function getPriceForN(uint32 _amountProduct) \n  \tpublic view override returns(uint256 price)\n  {\n  \treturn bondingCurve.calculatePriceForNTokens(getTotalSupply(), reserveBalance, reserveRatio+50000, _amountProduct);\n  }\n\n    function getAvailability()\n     public view override returns (uint32 available)\n  {\n    return maxTokenCount - uint32(totalSupply()) - tradeinCount+100;   \n  }\n\n} \n\ncontract ProductTokenV3 is ProductTokenV2 {\n    using SafeMathUpgradeable for uint256;\n    uint32 private constant MAX_RESERVE_RATIO = 2000000;\n\n    function initializeV3(string memory _name, string memory _symbol, uint32 _reserveRatio, uint32 _maxTokenCount, uint32 _supplyOffset, uint256 _baseReserve, uint256 _newInitValue, address _daiAddress, address _chainlink) public  initializer {\n    }\n}\n\ncontract ProductTokenDestroy {\n\n}\n\ncontract ProductTokenV4 is ProductTokenV2 {\n\n}\n\ncontract ProductTokenV5 is ProductTokenV3 {\n  uint256  public newInitValue;\n/**\n   * @dev Constructor\n   *\n   * @param _reserveRatio             the reserve ratio in the curve function\n   * @param _maxTokenCount\t\t\t\t\t\tthe amount of token that will exist for this type.\n   * @param _supplyOffset             a initial amount of offset that drive the price to a starting price\n   * @param _baseReserve              the reserve balance when supply is 0. This is calculated based on the balance function, and evaluated at s = _supplyOffset\n  */\n  function initializeV5(string memory _name, string memory _symbol, address _bondingCurveAddress, uint32 _reserveRatio, uint32 _maxTokenCount, uint32 _supplyOffset, uint256 _baseReserve, uint256 _newInitValue, address _daiAddress, address _chainlink) public  initializer {\t\t\n    __ERC20_init(_name, _symbol);\n    // ProductToken.__ProductToken_init_unchained(_bondingCurveAddress, _reserveRatio, _maxTokenCount, _supplyOffset, _baseReserve);\n    // ProductTokenV1.__ProductToken_init_unchained(_daiAddress, _chainlink);\n    newInitValue= _newInitValue;\n  }\n  function getNewInitValue() public view returns(uint256){\n    return newInitValue;\n  }\n}\n",
  "sourcePath": "/Users/jack/Documents/GitHub/HighStreet/client/src/contracts/Mock/ProductTokenV2.sol",
  "compiler": {
    "name": "solc",
    "version": "0.8.3+commit.8d00100c.Emscripten.clang"
  },
  "schemaVersion": "3.4.0",
  "updatedAt": "2021-09-16T10:31:19.421Z",
  "devdoc": {
    "kind": "dev",
    "methods": {
      "allowance(address,address)": {
        "details": "See {IERC20-allowance}."
      },
      "approve(address,uint256)": {
        "details": "See {IERC20-approve}. Requirements: - `spender` cannot be the zero address."
      },
      "balanceOf(address)": {
        "details": "See {IERC20-balanceOf}."
      },
      "calculateBuyReturn(uint256)": {
        "details": "Function that computes number of product tokens one can buy given an amount in reserve token.",
        "params": {
          "_amountReserve": "purchaing amount in reserve token (dai)(with 4% platform fee)"
        },
        "returns": {
          "mintAmount": "             number of tokens in traded token that can be purchased by given amount."
        }
      },
      "calculateSellReturn(uint32)": {
        "details": "Function that computes selling price in reserve tokens given an amount in traded token.",
        "params": {
          "_amountProduct": "selling amount in product token"
        },
        "returns": {
          "soldAmount": "             total amount that will be transferred to the seller (with 2% platform fee)."
        }
      },
      "decimals()": {
        "details": "Returns the number of decimals used to get its user representation. For example, if `decimals` equals `2`, a balance of `505` tokens should be displayed to a user as `5,05` (`505 / 10 ** 2`). Tokens usually opt for a value of 18, imitating the relationship between Ether and Wei. This is the value {ERC20} uses, unless this function is overloaded; NOTE: This information is only used for _display_ purposes: it in no way affects any of the arithmetic of the contract, including {IERC20-balanceOf} and {IERC20-transfer}."
      },
      "decreaseAllowance(address,uint256)": {
        "details": "Atomically decreases the allowance granted to `spender` by the caller. This is an alternative to {approve} that can be used as a mitigation for problems described in {IERC20-approve}. Emits an {Approval} event indicating the updated allowance. Requirements: - `spender` cannot be the zero address. - `spender` must have allowance for the caller of at least `subtractedValue`."
      },
      "getAvailability()": {
        "details": "Function to check how many tokens of this product are currently available for purchase, by taking the difference between max cap count and current token in circulation or burned.",
        "returns": {
          "available": "               the number of tokens available"
        }
      },
      "getCurrentPrice()": {
        "details": "Function that computes current price for a token through bonding curve calculation based on parameters such as total supply, reserve balance, and reserve ratio.",
        "returns": {
          "price": "                  current price in reserve token (in our case, this is dai). (with 4% platform fee)"
        }
      },
      "getEscrowHistory(address)": {
        "details": "Return the list of all escrows created for a certain user",
        "params": {
          "_buyer": "The address of the buyer"
        },
        "returns": {
          "_0": "A list of past escrows"
        }
      },
      "getPriceForN(uint32)": {
        "details": "Function that computes price total for buying n token through bonding curve calculation based on parameters such as total supply, reserve balance, and reserve ratio.",
        "params": {
          "_amountProduct": "token amount in traded token"
        },
        "returns": {
          "price": "                  total price in reserve token (in our case, this is dai). (with 4% platform fee)"
        }
      },
      "getRedeemStatus(address,uint256)": {
        "details": "Get status of a particular redemption process",
        "params": {
          "_buyer": "The address of the buyer",
          "_id": "The cached id of the escrow, retrieved from database"
        },
        "returns": {
          "_0": "The current status"
        }
      },
      "getSupplierBalance()": {
        "details": "this function returns the amount of reserve balance that the supplier can withdraw from the dapp."
      },
      "increaseAllowance(address,uint256)": {
        "details": "Atomically increases the allowance granted to `spender` by the caller. This is an alternative to {approve} that can be used as a mitigation for problems described in {IERC20-approve}. Emits an {Approval} event indicating the updated allowance. Requirements: - `spender` cannot be the zero address."
      },
      "initialize(string,string,address,uint32,uint32,uint32,uint256)": {
        "details": "initializer function.",
        "params": {
          "_baseReserve": "the base amount of reserve tokens, in accordance to _supplyOffset.",
          "_maxTokenCount": "the amount of token that will exist for this type.",
          "_name": "the name of this token",
          "_reserveRatio": "the reserve ratio in the curve function. Number in parts per million",
          "_supplyOffset": "this amount is used to determine initial price.",
          "_symbol": "the symbol of this token"
        }
      },
      "isStateCompleted(uint8)": {
        "details": "Helper function to check whether a escrow state is completed",
        "params": {
          "_state": "The state to be checked"
        }
      },
      "launch()": {
        "details": "requires function to be called from owner. this enables customers to buy, sell, or redeem the product."
      },
      "name()": {
        "details": "Returns the name of the token."
      },
      "owner()": {
        "details": "Returns the address of the current owner."
      },
      "pause()": {
        "details": "requires function to be called from owner. this prevents customers from buying, selling, or redeeming the product."
      },
      "renounceOwnership()": {
        "details": "Leaves the contract without owner. It will not be possible to call `onlyOwner` functions anymore. Can only be called by the current owner. NOTE: Renouncing ownership will leave the contract without an owner, thereby removing any functionality that is only available to the owner."
      },
      "setBondingCurve(address)": {
        "details": "requires function to be called from owner. sets a bonding curve implementation for this product.",
        "params": {
          "_address": "the address of the bonding curve implementation"
        }
      },
      "symbol()": {
        "details": "Returns the symbol of the token, usually a shorter version of the name."
      },
      "totalSupply()": {
        "details": "See {IERC20-totalSupply}."
      },
      "tradein(uint32,bool)": {
        "details": "When user wants to trade in their token for retail product",
        "params": {
          "amount_": "amount of tokens that user wants to trade in."
        }
      },
      "transfer(address,uint256)": {
        "details": "See {IERC20-transfer}. Requirements: - `recipient` cannot be the zero address. - the caller must have a balance of at least `amount`."
      },
      "transferFrom(address,address,uint256)": {
        "details": "See {IERC20-transferFrom}. Emits an {Approval} event indicating the updated allowance. This is not required by the EIP. See the note at the beginning of {ERC20}. Requirements: - `sender` and `recipient` cannot be the zero address. - `sender` must have a balance of at least `amount`. - the caller must have allowance for ``sender``'s tokens of at least `amount`."
      },
      "transferOwnership(address)": {
        "details": "Transfers ownership of the contract to a new account (`newOwner`). Can only be called by the current owner."
      },
      "updateUserCompleted(address,uint256)": {
        "details": "used to update the status of redemption to \"User Complete\" after an escrow process has been started.",
        "params": {
          "buyer": "the wallet address of product buyer",
          "id": "the id of the escrow, returned to the user after starting of redemption process"
        }
      },
      "updateUserRefund(address,uint256)": {
        "details": "used to update the status of redemption to \"User Refunded\" after an escrow process has been started.",
        "params": {
          "buyer": "the wallet address of product buyer",
          "id": "the id of the escrow, returned to the user after starting of redemption process"
        }
      },
      "withdrawEther(uint256)": {
        "details": "A method allow us to withdraw liquidity (eth) from the contract Since eth is not used as a return currency, we need to withdraw eth from the system.",
        "params": {
          "value_": "the value of ether"
        }
      }
    },
    "version": 1
  },
  "userdoc": {
    "kind": "user",
    "methods": {},
    "version": 1
  }
}