{
  "contractName": "ProductTokenV4",
  "abi": [
    {
      "anonymous": false,
      "inputs": [
        {
          "indexed": true,
          "internalType": "address",
          "name": "owner",
          "type": "address"
        },
        {
          "indexed": true,
          "internalType": "address",
          "name": "spender",
          "type": "address"
        },
        {
          "indexed": false,
          "internalType": "uint256",
          "name": "value",
          "type": "uint256"
        }
      ],
      "name": "Approval",
      "type": "event"
    },
    {
      "anonymous": false,
      "inputs": [
        {
          "indexed": true,
          "internalType": "address",
          "name": "sender",
          "type": "address"
        },
        {
          "indexed": false,
          "internalType": "uint32",
          "name": "amount",
          "type": "uint32"
        },
        {
          "indexed": false,
          "internalType": "uint256",
          "name": "deposit",
          "type": "uint256"
        }
      ],
      "name": "Buy",
      "type": "event"
    },
    {
      "anonymous": false,
      "inputs": [
        {
          "indexed": true,
          "internalType": "address",
          "name": "previousOwner",
          "type": "address"
        },
        {
          "indexed": true,
          "internalType": "address",
          "name": "newOwner",
          "type": "address"
        }
      ],
      "name": "OwnershipTransferred",
      "type": "event"
    },
    {
      "anonymous": false,
      "inputs": [
        {
          "indexed": true,
          "internalType": "address",
          "name": "sender",
          "type": "address"
        },
        {
          "indexed": false,
          "internalType": "uint32",
          "name": "amount",
          "type": "uint32"
        },
        {
          "indexed": false,
          "internalType": "uint256",
          "name": "refund",
          "type": "uint256"
        }
      ],
      "name": "Sell",
      "type": "event"
    },
    {
      "anonymous": false,
      "inputs": [
        {
          "indexed": false,
          "internalType": "bool",
          "name": "isTradable",
          "type": "bool"
        }
      ],
      "name": "Tradable",
      "type": "event"
    },
    {
      "anonymous": false,
      "inputs": [
        {
          "indexed": true,
          "internalType": "address",
          "name": "sender",
          "type": "address"
        },
        {
          "indexed": false,
          "internalType": "uint32",
          "name": "amount",
          "type": "uint32"
        }
      ],
      "name": "Tradein",
      "type": "event"
    },
    {
      "anonymous": false,
      "inputs": [
        {
          "indexed": true,
          "internalType": "address",
          "name": "from",
          "type": "address"
        },
        {
          "indexed": true,
          "internalType": "address",
          "name": "to",
          "type": "address"
        },
        {
          "indexed": false,
          "internalType": "uint256",
          "name": "value",
          "type": "uint256"
        }
      ],
      "name": "Transfer",
      "type": "event"
    },
    {
      "anonymous": false,
      "inputs": [
        {
          "indexed": false,
          "internalType": "address",
          "name": "",
          "type": "address"
        },
        {
          "indexed": false,
          "internalType": "uint256",
          "name": "",
          "type": "uint256"
        },
        {
          "components": [
            {
              "internalType": "enum Escrow.escrowState",
              "name": "state",
              "type": "uint8"
            },
            {
              "internalType": "uint32",
              "name": "amount",
              "type": "uint32"
            },
            {
              "internalType": "uint256",
              "name": "value",
              "type": "uint256"
            }
          ],
          "indexed": false,
          "internalType": "struct Escrow.escrowInfo",
          "name": "",
          "type": "tuple"
        }
      ],
      "name": "escrowStateUpdated",
      "type": "event"
    },
    {
      "stateMutability": "nonpayable",
      "type": "fallback"
    },
    {
      "inputs": [
        {
          "internalType": "uint32",
          "name": "_amountProduct",
          "type": "uint32"
        }
      ],
      "name": "_getPriceForN",
      "outputs": [
        {
          "internalType": "uint256",
          "name": "price",
          "type": "uint256"
        },
        {
          "internalType": "uint256",
          "name": "fee",
          "type": "uint256"
        }
      ],
      "stateMutability": "view",
      "type": "function"
    },
    {
      "inputs": [
        {
          "internalType": "address",
          "name": "owner",
          "type": "address"
        },
        {
          "internalType": "address",
          "name": "spender",
          "type": "address"
        }
      ],
      "name": "allowance",
      "outputs": [
        {
          "internalType": "uint256",
          "name": "",
          "type": "uint256"
        }
      ],
      "stateMutability": "view",
      "type": "function"
    },
    {
      "inputs": [
        {
          "internalType": "address",
          "name": "spender",
          "type": "address"
        },
        {
          "internalType": "uint256",
          "name": "amount",
          "type": "uint256"
        }
      ],
      "name": "approve",
      "outputs": [
        {
          "internalType": "bool",
          "name": "",
          "type": "bool"
        }
      ],
      "stateMutability": "nonpayable",
      "type": "function"
    },
    {
      "inputs": [
        {
          "internalType": "address",
          "name": "account",
          "type": "address"
        }
      ],
      "name": "balanceOf",
      "outputs": [
        {
          "internalType": "uint256",
          "name": "",
          "type": "uint256"
        }
      ],
      "stateMutability": "view",
      "type": "function"
    },
    {
      "inputs": [
        {
          "internalType": "uint256",
          "name": "maxPrice_",
          "type": "uint256"
        }
      ],
      "name": "buy",
      "outputs": [],
      "stateMutability": "nonpayable",
      "type": "function"
    },
    {
      "inputs": [
        {
          "internalType": "uint256",
          "name": "_amountReserve",
          "type": "uint256"
        }
      ],
      "name": "calculateBuyReturn",
      "outputs": [
        {
          "internalType": "uint32",
          "name": "mintAmount",
          "type": "uint32"
        }
      ],
      "stateMutability": "view",
      "type": "function"
    },
    {
      "inputs": [
        {
          "internalType": "uint32",
          "name": "_amountProduct",
          "type": "uint32"
        }
      ],
      "name": "calculateSellReturn",
      "outputs": [
        {
          "internalType": "uint256",
          "name": "soldAmount",
          "type": "uint256"
        }
      ],
      "stateMutability": "view",
      "type": "function"
    },
    {
      "inputs": [
        {
          "internalType": "uint32",
          "name": "_amount",
          "type": "uint32"
        }
      ],
      "name": "calculateTradinReturn",
      "outputs": [
        {
          "internalType": "uint256",
          "name": "",
          "type": "uint256"
        }
      ],
      "stateMutability": "view",
      "type": "function"
    },
    {
      "inputs": [
        {
          "internalType": "uint256",
          "name": "amount_",
          "type": "uint256"
        }
      ],
      "name": "claimSupplier",
      "outputs": [],
      "stateMutability": "nonpayable",
      "type": "function"
    },
    {
      "inputs": [],
      "name": "decimals",
      "outputs": [
        {
          "internalType": "uint8",
          "name": "",
          "type": "uint8"
        }
      ],
      "stateMutability": "view",
      "type": "function"
    },
    {
      "inputs": [
        {
          "internalType": "address",
          "name": "spender",
          "type": "address"
        },
        {
          "internalType": "uint256",
          "name": "subtractedValue",
          "type": "uint256"
        }
      ],
      "name": "decreaseAllowance",
      "outputs": [
        {
          "internalType": "bool",
          "name": "",
          "type": "bool"
        }
      ],
      "stateMutability": "nonpayable",
      "type": "function"
    },
    {
      "inputs": [
        {
          "internalType": "address",
          "name": "",
          "type": "address"
        },
        {
          "internalType": "uint256",
          "name": "",
          "type": "uint256"
        }
      ],
      "name": "escrowList",
      "outputs": [
        {
          "internalType": "enum Escrow.escrowState",
          "name": "state",
          "type": "uint8"
        },
        {
          "internalType": "uint32",
          "name": "amount",
          "type": "uint32"
        },
        {
          "internalType": "uint256",
          "name": "value",
          "type": "uint256"
        }
      ],
      "stateMutability": "view",
      "type": "function"
    },
    {
      "inputs": [],
      "name": "getAvailability",
      "outputs": [
        {
          "internalType": "uint32",
          "name": "available",
          "type": "uint32"
        }
      ],
      "stateMutability": "view",
      "type": "function"
    },
    {
      "inputs": [],
      "name": "getCurrentPrice",
      "outputs": [
        {
          "internalType": "uint256",
          "name": "price",
          "type": "uint256"
        }
      ],
      "stateMutability": "view",
      "type": "function"
    },
    {
      "inputs": [
        {
          "internalType": "address",
          "name": "_buyer",
          "type": "address"
        }
      ],
      "name": "getEscrowHistory",
      "outputs": [
        {
          "components": [
            {
              "internalType": "enum Escrow.escrowState",
              "name": "state",
              "type": "uint8"
            },
            {
              "internalType": "uint32",
              "name": "amount",
              "type": "uint32"
            },
            {
              "internalType": "uint256",
              "name": "value",
              "type": "uint256"
            }
          ],
          "internalType": "struct Escrow.escrowInfo[]",
          "name": "",
          "type": "tuple[]"
        }
      ],
      "stateMutability": "view",
      "type": "function"
    },
    {
      "inputs": [],
      "name": "getManager",
      "outputs": [
        {
          "internalType": "address",
          "name": "",
          "type": "address"
        }
      ],
      "stateMutability": "view",
      "type": "function"
    },
    {
      "inputs": [],
      "name": "getNewAttribute",
      "outputs": [
        {
          "internalType": "uint256",
          "name": "",
          "type": "uint256"
        }
      ],
      "stateMutability": "view",
      "type": "function"
    },
    {
      "inputs": [],
      "name": "getPoolInfo",
      "outputs": [
        {
          "components": [
            {
              "internalType": "uint256",
              "name": "amount",
              "type": "uint256"
            },
            {
              "internalType": "uint256",
              "name": "accRewardPerShare",
              "type": "uint256"
            },
            {
              "internalType": "uint256",
              "name": "tokenReward",
              "type": "uint256"
            }
          ],
          "internalType": "struct ProductTokenV1.PoolInfo",
          "name": "",
          "type": "tuple"
        }
      ],
      "stateMutability": "view",
      "type": "function"
    },
    {
      "inputs": [
        {
          "internalType": "uint32",
          "name": "_amountProduct",
          "type": "uint32"
        }
      ],
      "name": "getPriceForN",
      "outputs": [
        {
          "internalType": "uint256",
          "name": "price",
          "type": "uint256"
        }
      ],
      "stateMutability": "view",
      "type": "function"
    },
    {
      "inputs": [
        {
          "internalType": "address",
          "name": "_buyer",
          "type": "address"
        },
        {
          "internalType": "uint256",
          "name": "_id",
          "type": "uint256"
        }
      ],
      "name": "getRedeemStatus",
      "outputs": [
        {
          "internalType": "enum Escrow.escrowState",
          "name": "",
          "type": "uint8"
        }
      ],
      "stateMutability": "view",
      "type": "function"
    },
    {
      "inputs": [],
      "name": "getSupplierBalance",
      "outputs": [
        {
          "internalType": "uint256",
          "name": "",
          "type": "uint256"
        }
      ],
      "stateMutability": "view",
      "type": "function"
    },
    {
      "inputs": [],
      "name": "getSupplierInfo",
      "outputs": [
        {
          "components": [
            {
              "internalType": "uint256",
              "name": "amount",
              "type": "uint256"
            },
            {
              "internalType": "address",
              "name": "wallet",
              "type": "address"
            }
          ],
          "internalType": "struct ProductTokenV1.supplierInfo",
          "name": "",
          "type": "tuple"
        }
      ],
      "stateMutability": "view",
      "type": "function"
    },
    {
      "inputs": [
        {
          "internalType": "address",
          "name": "addr_",
          "type": "address"
        }
      ],
      "name": "getUserInfo",
      "outputs": [
        {
          "components": [
            {
              "internalType": "uint256",
              "name": "amount",
              "type": "uint256"
            },
            {
              "internalType": "uint256",
              "name": "rewardDebt",
              "type": "uint256"
            },
            {
              "internalType": "uint256",
              "name": "lastReward",
              "type": "uint256"
            },
            {
              "internalType": "uint256[]",
              "name": "records",
              "type": "uint256[]"
            }
          ],
          "internalType": "struct ProductTokenV1.UserInfo",
          "name": "",
          "type": "tuple"
        }
      ],
      "stateMutability": "view",
      "type": "function"
    },
    {
      "inputs": [
        {
          "internalType": "address",
          "name": "addr_",
          "type": "address"
        }
      ],
      "name": "getUserReward",
      "outputs": [
        {
          "internalType": "uint256",
          "name": "",
          "type": "uint256"
        }
      ],
      "stateMutability": "view",
      "type": "function"
    },
    {
      "inputs": [
        {
          "internalType": "address",
          "name": "spender",
          "type": "address"
        },
        {
          "internalType": "uint256",
          "name": "addedValue",
          "type": "uint256"
        }
      ],
      "name": "increaseAllowance",
      "outputs": [
        {
          "internalType": "bool",
          "name": "",
          "type": "bool"
        }
      ],
      "stateMutability": "nonpayable",
      "type": "function"
    },
    {
      "inputs": [
        {
          "internalType": "string",
          "name": "_name",
          "type": "string"
        },
        {
          "internalType": "string",
          "name": "_symbol",
          "type": "string"
        },
        {
          "internalType": "address",
          "name": "_bondingCurveAddress",
          "type": "address"
        },
        {
          "internalType": "uint32",
          "name": "_reserveRatio",
          "type": "uint32"
        },
        {
          "internalType": "uint32",
          "name": "_maxTokenCount",
          "type": "uint32"
        },
        {
          "internalType": "uint32",
          "name": "_supplyOffset",
          "type": "uint32"
        },
        {
          "internalType": "uint256",
          "name": "_baseReserve",
          "type": "uint256"
        }
      ],
      "name": "initialize",
      "outputs": [],
      "stateMutability": "nonpayable",
      "type": "function"
    },
    {
      "inputs": [
        {
          "internalType": "enum Escrow.escrowState",
          "name": "_state",
          "type": "uint8"
        }
      ],
      "name": "isStateCompleted",
      "outputs": [
        {
          "internalType": "bool",
          "name": "",
          "type": "bool"
        }
      ],
      "stateMutability": "pure",
      "type": "function"
    },
    {
      "inputs": [],
      "name": "launch",
      "outputs": [],
      "stateMutability": "nonpayable",
      "type": "function"
    },
    {
      "inputs": [],
      "name": "maxTokenCount",
      "outputs": [
        {
          "internalType": "uint32",
          "name": "",
          "type": "uint32"
        }
      ],
      "stateMutability": "view",
      "type": "function"
    },
    {
      "inputs": [],
      "name": "name",
      "outputs": [
        {
          "internalType": "string",
          "name": "",
          "type": "string"
        }
      ],
      "stateMutability": "view",
      "type": "function"
    },
    {
      "inputs": [],
      "name": "newAttribute",
      "outputs": [
        {
          "internalType": "uint256",
          "name": "",
          "type": "uint256"
        }
      ],
      "stateMutability": "view",
      "type": "function"
    },
    {
      "inputs": [],
      "name": "owner",
      "outputs": [
        {
          "internalType": "address",
          "name": "",
          "type": "address"
        }
      ],
      "stateMutability": "view",
      "type": "function"
    },
    {
      "inputs": [],
      "name": "pause",
      "outputs": [],
      "stateMutability": "nonpayable",
      "type": "function"
    },
    {
      "inputs": [],
      "name": "poolInfo",
      "outputs": [
        {
          "internalType": "uint256",
          "name": "amount",
          "type": "uint256"
        },
        {
          "internalType": "uint256",
          "name": "accRewardPerShare",
          "type": "uint256"
        },
        {
          "internalType": "uint256",
          "name": "tokenReward",
          "type": "uint256"
        }
      ],
      "stateMutability": "view",
      "type": "function"
    },
    {
      "inputs": [],
      "name": "renounceOwnership",
      "outputs": [],
      "stateMutability": "nonpayable",
      "type": "function"
    },
    {
      "inputs": [],
      "name": "reserveBalance",
      "outputs": [
        {
          "internalType": "uint256",
          "name": "",
          "type": "uint256"
        }
      ],
      "stateMutability": "view",
      "type": "function"
    },
    {
      "inputs": [],
      "name": "reserveRatio",
      "outputs": [
        {
          "internalType": "uint32",
          "name": "",
          "type": "uint32"
        }
      ],
      "stateMutability": "view",
      "type": "function"
    },
    {
      "inputs": [
        {
          "internalType": "uint32",
          "name": "amount_",
          "type": "uint32"
        }
      ],
      "name": "sell",
      "outputs": [],
      "stateMutability": "nonpayable",
      "type": "function"
    },
    {
      "inputs": [
        {
          "internalType": "address",
          "name": "_address",
          "type": "address"
        }
      ],
      "name": "setBondingCurve",
      "outputs": [],
      "stateMutability": "nonpayable",
      "type": "function"
    },
    {
      "inputs": [
        {
          "internalType": "address",
          "name": "highAddress_",
          "type": "address"
        }
      ],
      "name": "setHigh",
      "outputs": [],
      "stateMutability": "nonpayable",
      "type": "function"
    },
    {
      "inputs": [
        {
          "internalType": "address",
          "name": "addr_",
          "type": "address"
        }
      ],
      "name": "setManager",
      "outputs": [],
      "stateMutability": "nonpayable",
      "type": "function"
    },
    {
      "inputs": [],
      "name": "supplier",
      "outputs": [
        {
          "internalType": "uint256",
          "name": "amount",
          "type": "uint256"
        },
        {
          "internalType": "address",
          "name": "wallet",
          "type": "address"
        }
      ],
      "stateMutability": "view",
      "type": "function"
    },
    {
      "inputs": [],
      "name": "symbol",
      "outputs": [
        {
          "internalType": "string",
          "name": "",
          "type": "string"
        }
      ],
      "stateMutability": "view",
      "type": "function"
    },
    {
      "inputs": [],
      "name": "totalSupply",
      "outputs": [
        {
          "internalType": "uint256",
          "name": "",
          "type": "uint256"
        }
      ],
      "stateMutability": "view",
      "type": "function"
    },
    {
      "inputs": [
        {
          "internalType": "uint32",
          "name": "amount_",
          "type": "uint32"
        }
      ],
      "name": "tradein",
      "outputs": [],
      "stateMutability": "nonpayable",
      "type": "function"
    },
    {
      "inputs": [],
      "name": "tradeinCount",
      "outputs": [
        {
          "internalType": "uint32",
          "name": "",
          "type": "uint32"
        }
      ],
      "stateMutability": "view",
      "type": "function"
    },
    {
      "inputs": [],
      "name": "tradeinReserveBalance",
      "outputs": [
        {
          "internalType": "uint256",
          "name": "",
          "type": "uint256"
        }
      ],
      "stateMutability": "view",
      "type": "function"
    },
    {
      "inputs": [
        {
          "internalType": "address",
          "name": "recipient",
          "type": "address"
        },
        {
          "internalType": "uint256",
          "name": "amount",
          "type": "uint256"
        }
      ],
      "name": "transfer",
      "outputs": [
        {
          "internalType": "bool",
          "name": "",
          "type": "bool"
        }
      ],
      "stateMutability": "nonpayable",
      "type": "function"
    },
    {
      "inputs": [
        {
          "internalType": "address",
          "name": "sender",
          "type": "address"
        },
        {
          "internalType": "address",
          "name": "recipient",
          "type": "address"
        },
        {
          "internalType": "uint256",
          "name": "amount",
          "type": "uint256"
        }
      ],
      "name": "transferFrom",
      "outputs": [
        {
          "internalType": "bool",
          "name": "",
          "type": "bool"
        }
      ],
      "stateMutability": "nonpayable",
      "type": "function"
    },
    {
      "inputs": [
        {
          "internalType": "address",
          "name": "newOwner",
          "type": "address"
        }
      ],
      "name": "transferOwnership",
      "outputs": [],
      "stateMutability": "nonpayable",
      "type": "function"
    },
    {
      "inputs": [
        {
          "internalType": "uint256",
          "name": "fee_",
          "type": "uint256"
        }
      ],
      "name": "updatePool",
      "outputs": [],
      "stateMutability": "nonpayable",
      "type": "function"
    },
    {
      "inputs": [
        {
          "internalType": "address",
          "name": "wallet_",
          "type": "address"
        }
      ],
      "name": "updateSupplierInfo",
      "outputs": [],
      "stateMutability": "nonpayable",
      "type": "function"
    },
    {
      "inputs": [
        {
          "internalType": "address",
          "name": "buyer",
          "type": "address"
        },
        {
          "internalType": "uint256",
          "name": "id",
          "type": "uint256"
        }
      ],
      "name": "updateUserCompleted",
      "outputs": [],
      "stateMutability": "nonpayable",
      "type": "function"
    },
    {
      "inputs": [
        {
          "internalType": "address",
          "name": "buyer",
          "type": "address"
        },
        {
          "internalType": "uint256",
          "name": "id",
          "type": "uint256"
        }
      ],
      "name": "updateUserRefund",
      "outputs": [],
      "stateMutability": "nonpayable",
      "type": "function"
    },
    {
      "inputs": [
        {
          "internalType": "address",
          "name": "",
          "type": "address"
        }
      ],
      "name": "userInfo",
      "outputs": [
        {
          "internalType": "uint256",
          "name": "amount",
          "type": "uint256"
        },
        {
          "internalType": "uint256",
          "name": "rewardDebt",
          "type": "uint256"
        },
        {
          "internalType": "uint256",
          "name": "lastReward",
          "type": "uint256"
        }
      ],
      "stateMutability": "view",
      "type": "function"
    },
    {
      "inputs": [],
      "name": "voucher",
      "outputs": [
        {
          "internalType": "address",
          "name": "addr",
          "type": "address"
        },
        {
          "internalType": "contract IVNFT",
          "name": "instance",
          "type": "address"
        },
        {
          "internalType": "uint256",
          "name": "tokenId",
          "type": "uint256"
        },
        {
          "internalType": "bool",
          "name": "isEnable",
          "type": "bool"
        }
      ],
      "stateMutability": "view",
      "type": "function"
    },
    {
      "inputs": [
        {
          "internalType": "uint256",
          "name": "value_",
          "type": "uint256"
        }
      ],
      "name": "withdrawEther",
      "outputs": [],
      "stateMutability": "payable",
      "type": "function"
    },
    {
      "inputs": [
        {
          "internalType": "uint256",
          "name": "amount_",
          "type": "uint256"
        },
        {
          "internalType": "address",
          "name": "to_",
          "type": "address"
        }
      ],
      "name": "withdrawHigh",
      "outputs": [],
      "stateMutability": "nonpayable",
      "type": "function"
    }
  ],
  "bytecode": "0x608060405234801561001057600080fd5b50614677806100206000396000f3fe6080604052600436106102c55760003560e060020a900480637a53e04011610175578063c757d4c7116100d6578063c757d4c7146108e9578063c75ebb8214610909578063cdda418c14610929578063d0ebdbe714610988578063d5009584146109a8578063d96a094a146109c6578063dd304b1a146109e6578063dd62ed3e14610a13578063deebbef114610a59578063e67dc51814610a79578063eb91d37e14610a8f578063ebc9e4d614610aa4578063efea8a1314610ac4578063f2fde38b14610ae4578063f97511d314610b04576102c5565b80637a53e04014610730578063828f3a9c146107455780638456cb59146107655780638da5cb5b1461077a57806395d89b411461079c578063964a6afe146107b15780639b9ffbf3146107c6578063a10954fe146107f5578063a457c2d71461080b578063a8d926291461082b578063a9059cbb1461084b578063af22803e1461086b578063ba7a93b6146108a0578063c4e627c2146108c4576102c5565b80633bed33ce1161022a5780633bed33ce1461050057806343ff1fb814610513578063483335a114610533578063491052cd146105495780634ffd23a71461056957806351eb05a6146105895780635a2f3d09146105a95780635e88752c146105c857806360246c88146105e85780636386c1c71461061f57806363c51fbb1461064c5780636e74607b1461066c57806370a0823114610699578063715018a6146106b957806374a7b012146106ce576102c5565b806301339c21146102d457806306fdde03146102eb578063095ea7b3146103165780630c7d5cd8146103465780630ccee99b1461037857806318160ddd146103985780631959a002146103b757806319d5b5871461040e578063224e4f481461042e57806323b872dd1461044e5780632f0a3fe41461046e578063313ce5671461048357806336da44681461049f57806339509351146104e0575b3480156102d157600080fd5b50005b3480156102e057600080fd5b506102e9610b24565b005b3480156102f757600080fd5b50610300610c0c565b60405161030d919061414f565b60405180910390f35b34801561032257600080fd5b50610336610331366004613e3d565b610c9e565b604051901515815260200161030d565b34801561035257600080fd5b50609b546103639063ffffffff1681565b60405163ffffffff909116815260200161030d565b34801561038457600080fd5b506102e9610393366004613e3d565b610cb5565b3480156103a457600080fd5b506035545b60405190815260200161030d565b3480156103c357600080fd5b506103f36103d2366004613db6565b60a76020526000908152604090208054600182015460029092015490919083565b6040805193845260208401929092529082015260600161030d565b34801561041a57600080fd5b506103a9610429366004613fac565b610d3c565b34801561043a57600080fd5b506103a9610449366004613fac565b610e3d565b34801561045a57600080fd5b50610336610469366004613e02565b610e62565b34801561047a57600080fd5b506103a9610f2b565b34801561048f57600080fd5b506040516000815260200161030d565b3480156104ab57600080fd5b50609e54609f546104c39190600160a060020a031682565b60408051928352600160a060020a0390911660208301520161030d565b3480156104ec57600080fd5b506103366104fb366004613e3d565b610f41565b6102e961050e366004613f5a565b610f78565b34801561051f57600080fd5b506102e961052e366004613db6565b611028565b34801561053f57600080fd5b506103a960a95481565b34801561055557600080fd5b50610336610564366004613e86565b6110a5565b34801561057557600080fd5b506102e9610584366004613fac565b6110ff565b34801561059557600080fd5b506102e96105a4366004613f5a565b611286565b3480156105b557600080fd5b5060a05460a15460a2546103f392919083565b3480156105d457600080fd5b506102e96105e3366004613f5a565b6112c0565b3480156105f457600080fd5b506105fd611425565b604080518251815260208084015190820152918101519082015260600161030d565b34801561062b57600080fd5b5061063f61063a366004613db6565b61146e565b60405161030d91906143ec565b34801561065857600080fd5b506102e9610667366004613fac565b61155b565b34801561067857600080fd5b5061068c610687366004613db6565b61170a565b60405161030d91906140ce565b3480156106a557600080fd5b506103a96106b4366004613db6565b6117f0565b3480156106c557600080fd5b506102e961180b565b3480156106da57600080fd5b5060408051808201825260008082526020918201528151808301909252609e548252609f54600160a060020a0316908201526040805182518152602092830151600160a060020a0316928101929092520161030d565b34801561073c57600080fd5b50610363611875565b34801561075157600080fd5b50610363610760366004613f5a565b6118c1565b34801561077157600080fd5b506102e96118d5565b34801561078657600080fd5b5061078f6119a6565b60405161030d9190614030565b3480156107a857600080fd5b506103006119b5565b3480156107bd57600080fd5b50609e546103a9565b3480156107d257600080fd5b506107e66107e1366004613e3d565b6119c4565b60405161030d9392919061412a565b34801561080157600080fd5b506103a960995481565b34801561081757600080fd5b50610336610826366004613e3d565b611a0f565b34801561083757600080fd5b506102e9610846366004613db6565b611ab0565b34801561085757600080fd5b50610336610866366004613e3d565b611b2d565b34801561087757600080fd5b5061088b610886366004613fac565b611b3a565b6040805192835260208301919091520161030d565b3480156108ac57600080fd5b50609b5461036390604060020a900463ffffffff1681565b3480156108d057600080fd5b50609b5461036390640100000000900463ffffffff1681565b3480156108f557600080fd5b506102e9610904366004613e3d565b611bfd565b34801561091557600080fd5b506103a9610924366004613db6565b611ce6565b34801561093557600080fd5b5060a35460a45460a55460a65461095b93600160a060020a039081169316919060ff1684565b60408051600160a060020a039586168152949093166020850152918301521515606082015260800161030d565b34801561099457600080fd5b506102e96109a3366004613db6565b611d5a565b3480156109b457600080fd5b50609c54600160a060020a031661078f565b3480156109d257600080fd5b506102e96109e1366004613f5a565b611dd7565b3480156109f257600080fd5b50610a06610a01366004613e3d565b6121cd565b60405161030d919061411c565b348015610a1f57600080fd5b506103a9610a2e366004613dd0565b600160a060020a03918216600090815260346020908152604080832093909416825291909152205490565b348015610a6557600080fd5b506102e9610a74366004613db6565b612223565b348015610a8557600080fd5b506103a9609a5481565b348015610a9b57600080fd5b506103a96122d0565b348015610ab057600080fd5b506102e9610abf366004613f8a565b6122dc565b348015610ad057600080fd5b506102e9610adf366004613ea5565b612463565b348015610af057600080fd5b506102e9610aff366004613db6565b6124f8565b348015610b1057600080fd5b506103a9610b1f366004613fac565b6125f3565b33610b2d6119a6565b600160a060020a031614610b5f5760405160e560020a62461bcd028152600401610b5690614349565b60405180910390fd5b60985460ff1615610bc65760405160e560020a62461bcd02815260206004820152602560248201527f5468652070726f6475637420746f6b656e20697320616c7265616479206c6175604482015260da60020a641b98da1959026064820152608401610b56565b6098805460ff191660019081179091556040519081527f65c5ccecef030677b73a1403e7e69ef84d05db9d1732959d543d32f4419909b8906020015b60405180910390a1565b606060368054610c1b90614541565b80601f0160208091040260200160405190810160405280929190818152602001828054610c4790614541565b8015610c945780601f10610c6957610100808354040283529160200191610c94565b820191906000526020600020905b815481529060010190602001808311610c7757829003601f168201915b5050505050905090565b6000610cab33848461269a565b5060015b92915050565b610cbd6119a6565b600160a060020a031633600160a060020a03161480610ce65750609c54600160a060020a031633145b610d055760405160e560020a62461bcd028152600401610b5690614312565b600160a060020a038216610d2e5760405160e560020a62461bcd028152600401610b56906141d9565b610d3882826127cb565b5050565b6000808263ffffffff1611610d665760405160e560020a62461bcd028152600401610b5690614247565b609b54600090610d9d9063ffffffff606060020a8204811691610d979187811691604060020a900481169061294416565b90612944565b609d54609a54609b5460405160e060020a631c949873028152939450600160a060020a0390921692631c94987392610de4928692909163ffffffff1690899060040161445b565b60206040518083038186803b158015610dfc57600080fd5b505afa158015610e10573d6000803e3d6000fd5b505050506040513d601f19601f82011682018060405250810190610e349190613f72565b9150505b919050565b6000806000610e4b84612957565b9092509050610e5a8282612a0e565b949350505050565b6000610e6f848484612a1a565b600160a060020a038416600090815260346020908152604080832033845290915290205482811015610f0c5760405160e560020a62461bcd02815260206004820152602860248201527f45524332303a207472616e7366657220616d6f756e742065786365656473206160448201527f6c6c6f77616e63650000000000000000000000000000000000000000000000006064820152608401610b56565b610f208533610f1b8685614505565b61269a565b506001949350505050565b600060a9546001610f3c9190614483565b905090565b336000818152603460209081526040808320600160a060020a03871684529091528120549091610cab918590610f1b908690614483565b33610f816119a6565b600160a060020a031614610faa5760405160e560020a62461bcd028152600401610b5690614349565b3031610ffb5760405160e560020a62461bcd02815260206004820152600f60248201527f6e6f20656e6f75676820657468657200000000000000000000000000000000006044820152606401610b56565b604051339082156108fc029083906000818181858888f19350505050158015610d38573d6000803e3d6000fd5b336110316119a6565b600160a060020a03161461105a5760405160e560020a62461bcd028152600401610b5690614349565b600160a060020a0381166110835760405160e560020a62461bcd028152600401610b56906141a2565b609d8054600160a060020a031916600160a060020a0392909216919091179055565b600060038260038111156110cc5760e060020a634e487b7102600052602160045260246000fd5b1480610caf575060028260038111156110f85760e060020a634e487b7102600052602160045260246000fd5b1492915050565b60985460ff166111245760405160e560020a62461bcd028152600401610b569061437e565b8063ffffffff16611134336117f0565b101580611147575060008163ffffffff16115b6111665760405160e560020a62461bcd028152600401610b5690614247565b60008061117283612c06565b9150915061117f83612d19565b60a85460405160e060020a63a9059cbb028152600091600160a060020a03169063a9059cbb906111b59033908790600401614044565b602060405180830381600087803b1580156111cf57600080fd5b505af11580156111e3573d6000803e3d6000fd5b505050506040513d601f19601f820116820180604052508101906112079190613e66565b905061123061122b6501d1a94a20006112258564e8d4a51000612f2f565b90612f3b565b612f47565b806112805760405160e560020a62461bcd02815260206004820152601460248201527f73656c6c696e6720746f6b656e206661696c65640000000000000000000000006044820152606401610b56565b50505050565b60a054806112995750600060a1556112bd565b6112b86112af826112258564e8d4a51000612f2f565b60a15490612944565b60a155505b50565b609f54600160a060020a031661131b5760405160e560020a62461bcd02815260206004820152601160248201527f77616c6c657420697320696e76616c69640000000000000000000000000000006044820152606401610b56565b609f54600160a060020a031633146113785760405160e560020a62461bcd02815260206004820152601a60248201527f5468652061646472657373206973206e6f7420616c6c6f7765640000000000006044820152606401610b56565b609e5481116112bd5760a85460405160e060020a63a9059cbb028152600091600160a060020a03169063a9059cbb906113b79033908690600401614044565b602060405180830381600087803b1580156113d157600080fd5b505af11580156113e5573d6000803e3d6000fd5b505050506040513d601f19601f820116820180604052508101906114099190613e66565b90508015610d3857609e5461141e9083612a0e565b609e555050565b61144960405180606001604052806000815260200160008152602001600081525090565b506040805160608101825260a054815260a154602082015260a2549181019190915290565b6114996040518060800160405280600081526020016000815260200160008152602001606081525090565b600160a060020a0382166114c25760405160e560020a62461bcd028152600401610b569061427e565b600160a060020a038216600090815260a76020908152604091829020825160808101845281548152600182015481840152600282015481850152600382018054855181860281018601909652808652919492936060860193929083018282801561154b57602002820191906000526020600020905b815481526020019060010190808311611537575b5050505050815250509050919050565b60985460ff166115805760405160e560020a62461bcd028152600401610b569061437e565b60008163ffffffff16116115a95760405160e560020a62461bcd028152600401610b56906143b5565b8063ffffffff166115b9336117f0565b101561160a5760405160e560020a62461bcd02815260206004820152601c60248201527f496e73756666696369656e7420746f6b656e7320746f206275726e2e000000006044820152606401610b56565b60008061161683612957565b91509150600061162584610d3c565b905061164861122b82610d976512309ce54000611225876509184e72a000612f2f565b6116528383612a0e565b925061165e8484612f60565b5061166f338563ffffffff166130b4565b609b5461168a908590604060020a900463ffffffff1661449b565b609b80546bffffffff00000000000000001916604060020a63ffffffff93841602179055609a546116bd91839061294416565b609a556116c984612d19565b60405163ffffffff8516815233907fe600c25f82e9bac8f9f1663725540d6cd442845726820fd5bee41b66c4bf59be9060200160405180910390a250505050565b600160a060020a0381166000908152606560209081526040808320805482518185028101850190935280835260609492939192909184015b828210156117e5576000848152602090206040805160608101909152600284029091018054829060ff16600381111561178e5760e060020a634e487b7102600052602160045260246000fd5b60038111156117b05760e060020a634e487b7102600052602160045260246000fd5b81528154610100900463ffffffff16602080830191909152600192830154604090920191909152918352929092019101611742565b505050509050919050565b600160a060020a031660009081526033602052604090205490565b336118146119a6565b600160a060020a03161461183d5760405160e560020a62461bcd028152600401610b5690614349565b606654604051600091600160a060020a031690600080516020614602833981519152908390a360668054600160a060020a0319169055565b609b54600090604060020a900463ffffffff1661189160355490565b609b546118ac9190640100000000900463ffffffff1661451c565b6118b6919061451c565b610f3c90606461449b565b6000806118cd836131fd565b509392505050565b336118de6119a6565b600160a060020a0316146119075760405160e560020a62461bcd028152600401610b5690614349565b60985460ff1661196b5760405160e560020a62461bcd02815260206004820152602360248201527f5468652070726f6475637420746f6b656e20697320616c726561647920706175604482015260ea60020a621cd959026064820152608401610b56565b6098805460ff19169055604051600081527f65c5ccecef030677b73a1403e7e69ef84d05db9d1732959d543d32f4419909b890602001610c02565b606654600160a060020a031690565b606060378054610c1b90614541565b606560205281600052604060002081815481106119e057600080fd5b60009182526020909120600290910201805460019091015460ff8216935061010090910463ffffffff16915083565b336000908152603460209081526040808320600160a060020a038616845290915281205482811015611a975760405160e560020a62461bcd02815260206004820152602560248201527f45524332303a2064656372656173656420616c6c6f77616e63652062656c6f77604482015260d860020a64207a65726f026064820152608401610b56565b611aa63385610f1b8685614505565b5060019392505050565b33611ab96119a6565b600160a060020a031614611ae25760405160e560020a62461bcd028152600401610b5690614349565b600160a060020a038116611b0b5760405160e560020a62461bcd028152600401610b56906141a2565b60a88054600160a060020a031916600160a060020a0392909216919091179055565b6000610cab338484612a1a565b609d5460009081908190600160a060020a031663bff82d84611b5a613302565b609954609b5460405163ffffffff85811660e060020a028252611b8594939216908a9060040161445b565b60206040518083038186803b158015611b9d57600080fd5b505afa158015611bb1573d6000803e3d6000fd5b505050506040513d601f19601f82011682018060405250810190611bd59190613f72565b90506000611bf164e8d4a51000611225846412a05f2000612f2f565b91935090915050915091565b611c056119a6565b600160a060020a031633600160a060020a03161480611c2e5750609c54600160a060020a031633145b611c4d5760405160e560020a62461bcd028152600401610b5690614312565b600160a060020a038216611c765760405160e560020a62461bcd028152600401610b56906141d9565b6000611c82838361332f565b905060008111611cd75760405160e560020a62461bcd02815260206004820152600d60248201527f496e76616c69642076616c7565000000000000000000000000000000000000006044820152606401610b56565b611ce183826134e0565b505050565b600160a060020a038116600090815260a7602052604081205415611d5257600160a060020a038216600090815260a760205260409020600181015460a154825460a092611d49929091611d439164e8d4a510009161122591612f2f565b90612a0e565b92505050610e38565b506000919050565b33611d636119a6565b600160a060020a031614611d8c5760405160e560020a62461bcd028152600401610b5690614349565b600160a060020a038116611db55760405160e560020a62461bcd028152600401610b569061427e565b609c8054600160a060020a031916600160a060020a0392909216919091179055565b60985460ff16611dfc5760405160e560020a62461bcd028152600401610b569061437e565b60008111611e4f5760405160e560020a62461bcd02815260206004820152601160248201527f696e76616c6964206d61782070726963650000000000000000000000000000006044820152606401610b56565b60a85460405160e060020a6323b872dd02815233600482015230602482015260448101839052600091600160a060020a0316906323b872dd90606401602060405180830381600087803b158015611ea557600080fd5b505af1158015611eb9573d6000803e3d6000fd5b505050506040513d601f19601f82011682018060405250810190611edd9190613e66565b905080611f2f5760405160e560020a62461bcd02815260206004820152601060248201527f5075726368617365206661696c65642e000000000000000000000000000000006044820152606401610b56565b600080600080611f3e866135ba565b93509350935063ffffffff169350600084111561213c578215611fe45760a85460405160e060020a63a9059cbb028152600160a060020a039091169063a9059cbb90611f909033908790600401614044565b602060405180830381600087803b158015611faa57600080fd5b505af1158015611fbe573d6000803e3d6000fd5b505050506040513d601f19601f82011682018060405250810190611fe29190613e66565b505b61200061122b650746a52880006112258464e8d4a51000612f2f565b600061201c650746a528800061122584650574fbde6000612f2f565b60a25490915061202c9082612944565b60a25561203881611286565b33600090815260a760205260408120600181015460a1548254929360a0939092612072929091611d439164e8d4a510009161122591612f2f565b9050801561211a576002830181905560a85460405160e060020a63a9059cbb028152600160a060020a039091169063a9059cbb906120b69033908590600401614044565b602060405180830381600087803b1580156120d057600080fd5b505af11580156120e4573d6000803e3d6000fd5b505050506040513d601f19601f820116820180604052508101906121089190613e66565b5060a2546121169082612a0e565b60a2555b60a0546121279087612944565b60a0556121338661371f565b505050506121c5565b60a85460405160e060020a63a9059cbb028152600160a060020a039091169063a9059cbb906121719033908a90600401614044565b602060405180830381600087803b15801561218b57600080fd5b505af115801561219f573d6000803e3d6000fd5b505050506040513d601f19601f820116820180604052508101906121c39190613e66565b505b505050505050565b600160a060020a03821660009081526065602052604081208054839081106122085760e060020a634e487b7102600052603260045260246000fd5b600091825260209091206002909102015460ff169392505050565b3361222c6119a6565b600160a060020a0316146122555760405160e560020a62461bcd028152600401610b5690614349565b600160a060020a0381166122ae5760405160e560020a62461bcd02815260206004820152601260248201527f4164647265737320697320696e76616c696400000000000000000000000000006044820152606401610b56565b609f8054600160a060020a031916600160a060020a0392909216919091179055565b6000610f3c60016125f3565b336122e56119a6565b600160a060020a03161461230e5760405160e560020a62461bcd028152600401610b5690614349565b600160a060020a0381166123375760405160e560020a62461bcd028152600401610b569061427e565b60a85460405160e060020a6370a08231028152600160a060020a03909116906370a082319061236a903090600401614030565b60206040518083038186803b15801561238257600080fd5b505afa158015612396573d6000803e3d6000fd5b505050506040513d601f19601f820116820180604052508101906123ba9190613f72565b8211156123dc5760405160e560020a62461bcd028152600401610b5690614247565b60a85460405160e060020a63a9059cbb028152600160a060020a039091169063a9059cbb906124119084908690600401614044565b602060405180830381600087803b15801561242b57600080fd5b505af115801561243f573d6000803e3d6000fd5b505050506040513d601f19601f82011682018060405250810190611ce19190613e66565b600054610100900460ff168061247c575060005460ff16155b61249b5760405160e560020a62461bcd028152600401610b56906142b5565b600054610100900460ff161580156124bd576000805461ffff19166101011790555b6124c5613778565b6124cf88886137f6565b6124dc8686868686613878565b80156124ee576000805461ff00191690555b5050505050505050565b336125016119a6565b600160a060020a03161461252a5760405160e560020a62461bcd028152600401610b5690614349565b600160a060020a0381166125a95760405160e560020a62461bcd02815260206004820152602660248201527f4f776e61626c653a206e6577206f776e657220697320746865207a65726f206160448201527f64647265737300000000000000000000000000000000000000000000000000006064820152608401610b56565b606654604051600160a060020a0380841692169060008051602061460283398151915290600090a360668054600160a060020a031916600160a060020a0392909216919091179055565b609d54600090600160a060020a031663bff82d8461260f613302565b609954609b546126279063ffffffff1661c35061449b565b866040518563ffffffff1660e060020a02815260040161264a949392919061445b565b60206040518083038186803b15801561266257600080fd5b505afa158015612676573d6000803e3d6000fd5b505050506040513d601f19601f82011682018060405250810190610caf9190613f72565b600160a060020a0383166127025760405160e560020a62461bcd028152602060048201526024808201527f45524332303a20617070726f76652066726f6d20746865207a65726f20616464604482015260e060020a6372657373026064820152608401610b56565b600160a060020a0382166127695760405160e560020a62461bcd02815260206004820152602260248201527f45524332303a20617070726f766520746f20746865207a65726f206164647265604482015260f060020a617373026064820152608401610b56565b600160a060020a0383811660008181526034602090815260408083209487168084529482529182902085905590518481527f8c5be1e5ebec7d5bd14f71427d1e84f3dd0314c0f7b2291e5b200ac8c7c3b92591015b60405180910390a3505050565b600160a060020a0382166000908152606560205260409020805461282491908390811061280b5760e060020a634e487b7102600052603260045260246000fd5b600091825260209091206002909102015460ff166110a5565b156128445760405160e560020a62461bcd028152600401610b5690614210565b600160a060020a0382166000908152606560205260409020805460039190839081106128835760e060020a634e487b7102600052603260045260246000fd5b60009182526020909120600290910201805460ff191660018360038111156128be5760e060020a634e487b7102600052602160045260246000fd5b02179055506000805160206145e283398151915282826065600086600160a060020a0316600160a060020a03168152602001908152602001600020848154811061291b5760e060020a634e487b7102600052603260045260246000fd5b906000526020600020906002020160405161293893929190614081565b60405180910390a15050565b60006129508284614483565b9392505050565b609d5460009081908190600160a060020a0316631c949873612977613302565b609954609b5460405163ffffffff85811660e060020a0282526129a294939216908a9060040161445b565b60206040518083038186803b1580156129ba57600080fd5b505afa1580156129ce573d6000803e3d6000fd5b505050506040513d601f19601f820116820180604052508101906129f29190613f72565b90506000611bf164e8d4a51000611225846404a817c800612f2f565b60006129508284614505565b600160a060020a038316612a845760405160e560020a62461bcd02815260206004820152602560248201527f45524332303a207472616e736665722066726f6d20746865207a65726f206164604482015260d860020a646472657373026064820152608401610b56565b600160a060020a038216612aec5760405160e560020a62461bcd02815260206004820152602360248201527f45524332303a207472616e7366657220746f20746865207a65726f2061646472604482015260e860020a62657373026064820152608401610b56565b600160a060020a03831660009081526033602052604090205481811015612b7e5760405160e560020a62461bcd02815260206004820152602660248201527f45524332303a207472616e7366657220616d6f756e742065786365656473206260448201527f616c616e636500000000000000000000000000000000000000000000000000006064820152608401610b56565b612b888282614505565b600160a060020a038086166000908152603360205260408082209390935590851681529081208054849290612bbe908490614483565b9250508190555082600160a060020a031684600160a060020a031660008051602061462283398151915284604051612bf891815260200190565b60405180910390a350505050565b60008060008363ffffffff1611612c325760405160e560020a62461bcd028152600401610b56906143b5565b8263ffffffff16612c42336117f0565b1015612c935760405160e560020a62461bcd02815260206004820152601c60248201527f496e73756666696369656e7420746f6b656e7320746f2073656c6c2e000000006044820152606401610b56565b600080612c9f85612957565b6099549193509150612cb19083612a0e565b609955612cc43363ffffffff87166130b4565b6040805163ffffffff871681526020810184905233917f84c8d08e5480cf09cbf77bc575dc4e63845522693c34094f04129a4dedb7abd7910160405180910390a2612d0f8282612a0e565b9350915050915091565b33600090815260a76020526040902054156112bd5733600081815260a76020526040902060038101549091612d4d906117f0565b11610d3857600381015463ffffffff831690811115612d6d575060038101545b6000805b82811015612e1957600384018054612dca9190612d8f906001612a0e565b81548110612db05760e060020a634e487b7102600052603260045260246000fd5b90600052602060002001548361294490919063ffffffff16565b915083600301805480612df05760e060020a634e487b7102600052603160045260246000fd5b600190038181906000526020600020016000905590558080612e1190614580565b915050612d71565b50600183015460a154845460a092600092612e4292611d439164e8d4a510009161122591612f2f565b60a054909150612e529084612a0e565b60a0558015612efb576002850181905560a85460405160e060020a63a9059cbb028152600160a060020a039091169063a9059cbb90612e979033908590600401614044565b602060405180830381600087803b158015612eb157600080fd5b505af1158015612ec5573d6000803e3d6000fd5b505050506040513d601f19601f82011682018060405250810190612ee99190613e66565b5060a254612ef79082612a0e565b60a2555b8454612f079084612a0e565b80865560a154612f229164e8d4a51000916112259190612f2f565b6001860155505050505050565b600061295082846144e6565b600061295082846144c3565b80156112bd57609e54612f5a9082612944565b609e5550565b6000808363ffffffff1611612fba5760405160e560020a62461bcd02815260206004820152600e60248201527f496e76616c696420416d6f756e740000000000000000000000000000000000006044820152606401610b56565b60408051606081018252600180825263ffffffff861660208084019190915282840186905233600090815260658252938420805480840182559085529320825160029094020180549293849391929091839160ff19909116908360038111156130365760e060020a634e487b7102600052602160045260246000fd5b0217905550602082810151825463ffffffff9091166101000264ffffffff00199091161782556040928301516001928301553360009081526065909152918220546130819190614505565b90506000805160206145e28339815191523382846040516130a49392919061405d565b60405180910390a1949350505050565b600160a060020a03821661311a5760405160e560020a62461bcd02815260206004820152602160248201527f45524332303a206275726e2066726f6d20746865207a65726f20616464726573604482015260f860020a6073026064820152608401610b56565b600160a060020a038216600090815260336020526040902054818110156131945760405160e560020a62461bcd02815260206004820152602260248201527f45524332303a206275726e20616d6f756e7420657863656564732062616c616e604482015260f060020a616365026064820152608401610b56565b61319e8282614505565b600160a060020a038416600090815260336020526040812091909155603580548492906131cc908490614505565b9091555050604051828152600090600160a060020a03851690600080516020614622833981519152906020016127be565b6000808061321964fb750430006112258664e8d4a51000612f2f565b9050600061323564e8d4a5100061122584640df8475800612f2f565b609d54909150600090600160a060020a0316639f4ae6b0613254613302565b609954609b5463ffffffff908116906132719089908990612a0e16565b60405163ffffffff86811660e060020a0282529485166004820152602481019390935292166044820152606481019190915260840160206040518083038186803b1580156132be57600080fd5b505afa1580156132d2573d6000803e3d6000fd5b505050506040513d601f19601f820116820180604052508101906132f69190613fc8565b94509092505050915091565b609b54600090610f3c9063ffffffff606060020a8204811691610d9791604060020a909104168160355490565b600160a060020a0382166000908152606560205260408120805461336f91908490811061280b5760e060020a634e487b7102600052603260045260246000fd5b1561338f5760405160e560020a62461bcd028152600401610b5690614210565b600160a060020a0383166000908152606560205260409020805460029190849081106133ce5760e060020a634e487b7102600052603260045260246000fd5b60009182526020909120600290910201805460ff191660018360038111156134095760e060020a634e487b7102600052602160045260246000fd5b02179055506000805160206145e283398151915283836065600087600160a060020a0316600160a060020a0316815260200190815260200160002085815481106134665760e060020a634e487b7102600052603260045260246000fd5b906000526020600020906002020160405161348393929190614081565b60405180910390a1600160a060020a03831660009081526065602052604090208054839081106134c65760e060020a634e487b7102600052603260045260246000fd5b906000526020600020906002020160010154905092915050565b60a85460405160e060020a63a9059cbb028152600091600160a060020a03169063a9059cbb906135169086908690600401614044565b602060405180830381600087803b15801561353057600080fd5b505af1158015613544573d6000803e3d6000fd5b505050506040513d601f19601f820116820180604052508101906135689190613e66565b905080611ce15760405160e560020a62461bcd02815260206004820152601360248201527f726566756e6420746f6b656e206661696c6564000000000000000000000000006044820152606401610b56565b60008060008060006135ca611875565b63ffffffff16116136205760405160e560020a62461bcd02815260206004820152601e60248201527f536f7272792c207468697320746f6b656e20697320736f6c64206f75742e00006044820152606401610b56565b600085116136735760405160e560020a62461bcd02815260206004820152601960248201527f4465706f736974206d757374206265206e6f6e2d7a65726f2e000000000000006044820152606401610b56565b6000806136806001611b3a565b91509150868211156136a15760008760008095509550955095505050613718565b6136ac336001613a0b565b6136c26136b98383612a0e565b60995490612944565b60995560408051600181526020810184905233917f5b55159a377d86da80a65140d62d994ddbb2cbd4bb2d1b59cb0827fecbe47cab910160405180910390a2600161370d8884612a0e565b909650945090925090505b9193509193565b33600090815260a760205260409020805461373a9083612944565b8155600381018054600181018255600091825260209091200182905560a154815461376f9164e8d4a510009161122591612f2f565b60019091015550565b600054610100900460ff1680613791575060005460ff16155b6137b05760405160e560020a62461bcd028152600401610b56906142b5565b600054610100900460ff161580156137d2576000805461ffff19166101011790555b6137da613adb565b6137e2613b48565b80156112bd576000805461ff001916905550565b600054610100900460ff168061380f575060005460ff16155b61382e5760405160e560020a62461bcd028152600401610b56906142b5565b600054610100900460ff16158015613850576000805461ffff19166101011790555b613858613adb565b6138628383613be7565b8015611ce1576000805461ff0019169055505050565b600054610100900460ff1680613891575060005460ff16155b6138b05760405160e560020a62461bcd028152600401610b56906142b5565b600054610100900460ff161580156138d2576000805461ffff19166101011790555b60008463ffffffff161161392b5760405160e560020a62461bcd02815260206004820152601860248201527f496e76616c6964206d617820746f6b656e20636f756e742e00000000000000006044820152606401610b56565b60008563ffffffff16116139845760405160e560020a62461bcd02815260206004820152601560248201527f496e76616c6964207265736572766520726174696f00000000000000000000006044820152606401610b56565b609d8054600160a060020a038816600160a060020a03199091161790556099829055609a829055609b805463ffffffff8681166401000000000267ffffffffffffffff19828816606060020a02166fffffffff00000000ffffffffffffffff19909316929092179088161717905580156121c5576000805461ff0019169055505050505050565b600160a060020a038216613a645760405160e560020a62461bcd02815260206004820152601f60248201527f45524332303a206d696e7420746f20746865207a65726f2061646472657373006044820152606401610b56565b8060356000828254613a769190614483565b9091555050600160a060020a03821660009081526033602052604081208054839290613aa3908490614483565b9091555050604051818152600160a060020a038316906000906000805160206146228339815191529060200160405180910390a35050565b600054610100900460ff1680613af4575060005460ff16155b613b135760405160e560020a62461bcd028152600401610b56906142b5565b600054610100900460ff161580156137e2576000805461ffff191661010117905580156112bd576000805461ff001916905550565b600054610100900460ff1680613b61575060005460ff16155b613b805760405160e560020a62461bcd028152600401610b56906142b5565b600054610100900460ff16158015613ba2576000805461ffff19166101011790555b60668054600160a060020a031916339081179091556040518190600090600080516020614602833981519152908290a35080156112bd576000805461ff001916905550565b600054610100900460ff1680613c00575060005460ff16155b613c1f5760405160e560020a62461bcd028152600401610b56906142b5565b600054610100900460ff16158015613c41576000805461ffff19166101011790555b8251613c54906036906020860190613c7f565b508151613c68906037906020850190613c7f565b508015611ce1576000805461ff0019169055505050565b828054613c8b90614541565b90600052602060002090601f016020900481019282613cad5760008555613cf3565b82601f10613cc657805160ff1916838001178555613cf3565b82800160010185558215613cf3579182015b82811115613cf3578251825591602001919060010190613cd8565b50613cff929150613d03565b5090565b5b80821115613cff5760008155600101613d04565b8035600160a060020a0381168114610e3857600080fd5b600082601f830112613d3f578081fd5b813567ffffffffffffffff80821115613d5a57613d5a6145b5565b604051601f8301601f19908116603f01168101908282118183101715613d8257613d826145b5565b81604052838152866020858801011115613d9a578485fd5b8360208701602083013792830160200193909352509392505050565b600060208284031215613dc7578081fd5b61295082613d18565b60008060408385031215613de2578081fd5b613deb83613d18565b9150613df960208401613d18565b90509250929050565b600080600060608486031215613e16578081fd5b613e1f84613d18565b9250613e2d60208501613d18565b9150604084013590509250925092565b60008060408385031215613e4f578182fd5b613e5883613d18565b946020939093013593505050565b600060208284031215613e77578081fd5b81518015158114612950578182fd5b600060208284031215613e97578081fd5b813560048110612950578182fd5b600080600080600080600060e0888a031215613ebf578283fd5b873567ffffffffffffffff80821115613ed6578485fd5b613ee28b838c01613d2f565b985060208a0135915080821115613ef7578485fd5b50613f048a828b01613d2f565b965050613f1360408901613d18565b94506060880135613f23816145cf565b93506080880135613f33816145cf565b925060a0880135613f43816145cf565b8092505060c0880135905092959891949750929550565b600060208284031215613f6b578081fd5b5035919050565b600060208284031215613f83578081fd5b5051919050565b60008060408385031215613f9c578182fd5b82359150613df960208401613d18565b600060208284031215613fbd578081fd5b8135612950816145cf565b600060208284031215613fd9578081fd5b8151612950816145cf565b600481106140065760e060020a634e487b710260009081526021600452602490fd5b9052565b614015828251613fe4565b60208181015163ffffffff1690830152604090810151910152565b600160a060020a0391909116815260200190565b600160a060020a03929092168252602082015260400190565b600160a060020a03841681526020810183905260a08101610e5a604083018461400a565b600160a060020a038416815260208101839052815460a08201906140ab6040840160ff8316613fe4565b63ffffffff61010082041660608401525060018301546080830152949350505050565b6020808252825182820181905260009190848201906040850190845b81811015614110576140fd83855161400a565b92840192606092909201916001016140ea565b50909695505050505050565b60208101610caf8284613fe4565b606081016141388286613fe4565b63ffffffff93909316602082015260400152919050565b6000602080835283518082850152825b8181101561417b5785810183015185820160400152820161415f565b8181111561418c5783604083870101525b50601f01601f1916929092016040019392505050565b6020808252600f908201527f496e76616c696420616464726573730000000000000000000000000000000000604082015260600190565b6020808252600d908201527f496e76616c696420627579657200000000000000000000000000000000000000604082015260600190565b60208082526011908201527f616c726561647920636f6d706c65746564000000000000000000000000000000604082015260600190565b6020808252600e908201527f696e76616c696420616d6f756e74000000000000000000000000000000000000604082015260600190565b6020808252600f908201527f696e76616c696420616464726573730000000000000000000000000000000000604082015260600190565b6020808252602e908201527f496e697469616c697a61626c653a20636f6e747261637420697320616c72656160408201527f647920696e697469616c697a6564000000000000000000000000000000000000606082015260800190565b60208082526011908201527f7065726d697373696f6e2064656e696564000000000000000000000000000000604082015260600190565b6020808252818101527f4f776e61626c653a2063616c6c6572206973206e6f7420746865206f776e6572604082015260600190565b60208082526013908201527f756e61626c6520746f207472616465206e6f7700000000000000000000000000604082015260600190565b60208082526018908201527f416d6f756e74206d757374206265206e6f6e2d7a65726f2e0000000000000000604082015260600190565b6000602080835260a0830184518285015281850151604085015260408501516060850152606085015160808086015281815180845260c08701915084830193508592505b808310156144505783518252928401926001929092019190840190614430565b509695505050505050565b63ffffffff948516815260208101939093529083166040830152909116606082015260800190565b600082198211156144965761449661459b565b500190565b600063ffffffff8083168185168083038211156144ba576144ba61459b565b01949350505050565b6000826144e15760e060020a634e487b710281526012600452602481fd5b500490565b60008160001904831182151516156145005761450061459b565b500290565b6000828210156145175761451761459b565b500390565b600063ffffffff838116908316818110156145395761453961459b565b039392505050565b60028104600182168061455557607f821691505b6020821081141561457a5760e060020a634e487b710260009081526022600452602490fd5b50919050565b60006000198214156145945761459461459b565b5060010190565b60e060020a634e487b710260009081526011600452602490fd5b60e060020a634e487b710260009081526041600452602490fd5b63ffffffff811681146112bd57600080fdfe09c64bee251b684a6bb80ce179dd520c001481b7c3d7781f1502e3052af474cf8be0079c531659141344cd1fd0a4f28419497f9722a3daafe3b4186f6b6457e0ddf252ad1be2c89b69c2b068fc378daa952ba7f163c4a11628f55a4df523b3efa2646970667358221220b5b69098ef02c3475787f2f4768f262a878b9d030eea17bd3fd7bc190f86ee1b64736f6c63430008030033",
  "immutableReferences": {},
  "source": "pragma solidity ^0.8.2;\n\nimport \"@openzeppelin/contracts-upgradeable/token/ERC20/ERC20Upgradeable.sol\";\nimport \"@openzeppelin/contracts-upgradeable/utils/math/SafeMathUpgradeable.sol\";\n\nimport \"../ProductToken.sol\";\nimport \"../ProductTokenV1.sol\";\nimport \"../Power.sol\";\n\n\ncontract ProductTokenV2 is ProductTokenV1 {\n  uint256 public newAttribute;\n\n  function getNewAttribute()\n  public view returns (uint256)\n  {\n    return newAttribute + 1;\n  }\n\n  function getPriceForN(uint32 _amountProduct) \n  \tpublic view override returns(uint256 price)\n  {\n  \treturn bondingCurve.calculatePriceForNTokens(_getTotalSupply(), reserveBalance, reserveRatio+50000, _amountProduct);\n  }\n\n    function getAvailability()\n     public view override returns (uint32 available)\n  {\n    return maxTokenCount - uint32(totalSupply()) - tradeinCount+100;   \n  }\n\n} \n\ncontract ProductTokenV3 is ProductTokenV2 {\n    using SafeMathUpgradeable for uint256;\n    uint32 private constant MAX_RESERVE_RATIO = 2000000;\n\n    function initializeV3(string memory _name, string memory _symbol, uint32 _reserveRatio, uint32 _maxTokenCount, uint32 _supplyOffset, uint256 _baseReserve, uint256 _newInitValue, address _daiAddress, address _chainlink) public  initializer {\n    }\n}\n\ncontract ProductTokenDestroy {\n\n}\n\ncontract ProductTokenV4 is ProductTokenV2 {\n\n}\n\ncontract ProductTokenV5 is ProductTokenV3 {\n  uint256  public newInitValue;\n/**\n   * @dev Constructor\n   *\n   * @param _reserveRatio             the reserve ratio in the curve function\n   * @param _maxTokenCount\t\t\t\t\t\tthe amount of token that will exist for this type.\n   * @param _supplyOffset             a initial amount of offset that drive the price to a starting price\n   * @param _baseReserve              the reserve balance when supply is 0. This is calculated based on the balance function, and evaluated at s = _supplyOffset\n  */\n  function initializeV5(string memory _name, string memory _symbol, address _bondingCurveAddress, uint32 _reserveRatio, uint32 _maxTokenCount, uint32 _supplyOffset, uint256 _baseReserve, uint256 _newInitValue, address _daiAddress, address _chainlink) public  initializer {\t\t\n    __ERC20_init(_name, _symbol);\n    // ProductToken.__ProductToken_init_unchained(_bondingCurveAddress, _reserveRatio, _maxTokenCount, _supplyOffset, _baseReserve);\n    // ProductTokenV1.__ProductToken_init_unchained(_daiAddress, _chainlink);\n    newInitValue= _newInitValue;\n  }\n  function getNewInitValue() public view returns(uint256){\n    return newInitValue;\n  }\n}\n",
  "sourcePath": "/Users/jack/Documents/GitHub/HighStreet/client/src/contracts/Mock/ProductTokenV2.sol",
  "compiler": {
    "name": "solc",
    "version": "0.8.3+commit.8d00100c.Emscripten.clang"
  },
  "schemaVersion": "3.4.0",
  "updatedAt": "2021-09-25T11:30:46.700Z",
  "devdoc": {
    "kind": "dev",
    "methods": {
      "allowance(address,address)": {
        "details": "See {IERC20-allowance}."
      },
      "approve(address,uint256)": {
        "details": "See {IERC20-approve}. Requirements: - `spender` cannot be the zero address."
      },
      "balanceOf(address)": {
        "details": "See {IERC20-balanceOf}."
      },
      "calculateBuyReturn(uint256)": {
        "details": "Function that computes number of product tokens one can buy given an amount in reserve token.",
        "params": {
          "_amountReserve": "purchaing amount in reserve token (dai)(with 4% platform fee)"
        },
        "returns": {
          "mintAmount": "             number of tokens in traded token that can be purchased by given amount."
        }
      },
      "calculateSellReturn(uint32)": {
        "details": "Function that computes selling price in reserve tokens given an amount in traded token.",
        "params": {
          "_amountProduct": "selling amount in product token"
        },
        "returns": {
          "soldAmount": "             total amount that will be transferred to the seller (with 2% platform fee)."
        }
      },
      "decimals()": {
        "details": "Returns the number of decimals used to get its user representation. For example, if `decimals` equals `2`, a balance of `505` tokens should be displayed to a user as `5,05` (`505 / 10 ** 2`). Tokens usually opt for a value of 18, imitating the relationship between Ether and Wei. This is the value {ERC20} uses, unless this function is overloaded; NOTE: This information is only used for _display_ purposes: it in no way affects any of the arithmetic of the contract, including {IERC20-balanceOf} and {IERC20-transfer}."
      },
      "decreaseAllowance(address,uint256)": {
        "details": "Atomically decreases the allowance granted to `spender` by the caller. This is an alternative to {approve} that can be used as a mitigation for problems described in {IERC20-approve}. Emits an {Approval} event indicating the updated allowance. Requirements: - `spender` cannot be the zero address. - `spender` must have allowance for the caller of at least `subtractedValue`."
      },
      "getAvailability()": {
        "details": "Function to check how many tokens of this product are currently available for purchase, by taking the difference between max cap count and current token in circulation or burned.",
        "returns": {
          "available": "               the number of tokens available"
        }
      },
      "getCurrentPrice()": {
        "details": "Function that computes current price for a token through bonding curve calculation based on parameters such as total supply, reserve balance, and reserve ratio.",
        "returns": {
          "price": "                  current price in reserve token (in our case, this is dai). (with 4% platform fee)"
        }
      },
      "getEscrowHistory(address)": {
        "details": "Return the list of all escrows created for a certain user",
        "params": {
          "_buyer": "The address of the buyer"
        },
        "returns": {
          "_0": "A list of past escrows"
        }
      },
      "getPriceForN(uint32)": {
        "details": "Function that computes price total for buying n token through bonding curve calculation based on parameters such as total supply, reserve balance, and reserve ratio.",
        "params": {
          "_amountProduct": "token amount in traded token"
        },
        "returns": {
          "price": "                  total price in reserve token (in our case, this is dai). (with 4% platform fee)"
        }
      },
      "getRedeemStatus(address,uint256)": {
        "details": "Get status of a particular redemption process",
        "params": {
          "_buyer": "The address of the buyer",
          "_id": "The cached id of the escrow, retrieved from database"
        },
        "returns": {
          "_0": "The current status"
        }
      },
      "getSupplierBalance()": {
        "details": "this function returns the amount of reserve balance that the supplier can withdraw from the dapp."
      },
      "increaseAllowance(address,uint256)": {
        "details": "Atomically increases the allowance granted to `spender` by the caller. This is an alternative to {approve} that can be used as a mitigation for problems described in {IERC20-approve}. Emits an {Approval} event indicating the updated allowance. Requirements: - `spender` cannot be the zero address."
      },
      "initialize(string,string,address,uint32,uint32,uint32,uint256)": {
        "details": "initializer function.",
        "params": {
          "_baseReserve": "the base amount of reserve tokens, in accordance to _supplyOffset.",
          "_maxTokenCount": "the amount of token that will exist for this type.",
          "_name": "the name of this token",
          "_reserveRatio": "the reserve ratio in the curve function. Number in parts per million",
          "_supplyOffset": "this amount is used to determine initial price.",
          "_symbol": "the symbol of this token"
        }
      },
      "isStateCompleted(uint8)": {
        "details": "Helper function to check whether a escrow state is completed",
        "params": {
          "_state": "The state to be checked"
        }
      },
      "launch()": {
        "details": "requires function to be called from owner. this enables customers to buy, sell, or redeem the product."
      },
      "name()": {
        "details": "Returns the name of the token."
      },
      "owner()": {
        "details": "Returns the address of the current owner."
      },
      "pause()": {
        "details": "requires function to be called from owner. this prevents customers from buying, selling, or redeeming the product."
      },
      "renounceOwnership()": {
        "details": "Leaves the contract without owner. It will not be possible to call `onlyOwner` functions anymore. Can only be called by the current owner. NOTE: Renouncing ownership will leave the contract without an owner, thereby removing any functionality that is only available to the owner."
      },
      "setBondingCurve(address)": {
        "details": "requires function to be called from owner. sets a bonding curve implementation for this product.",
        "params": {
          "_address": "the address of the bonding curve implementation"
        }
      },
      "symbol()": {
        "details": "Returns the symbol of the token, usually a shorter version of the name."
      },
      "totalSupply()": {
        "details": "See {IERC20-totalSupply}."
      },
      "tradein(uint32)": {
        "details": "When user wants to trade in their token for retail product",
        "params": {
          "amount_": "amount of tokens that user wants to trade in."
        }
      },
      "transfer(address,uint256)": {
        "details": "See {IERC20-transfer}. Requirements: - `recipient` cannot be the zero address. - the caller must have a balance of at least `amount`."
      },
      "transferFrom(address,address,uint256)": {
        "details": "See {IERC20-transferFrom}. Emits an {Approval} event indicating the updated allowance. This is not required by the EIP. See the note at the beginning of {ERC20}. Requirements: - `sender` and `recipient` cannot be the zero address. - `sender` must have a balance of at least `amount`. - the caller must have allowance for ``sender``'s tokens of at least `amount`."
      },
      "transferOwnership(address)": {
        "details": "Transfers ownership of the contract to a new account (`newOwner`). Can only be called by the current owner."
      },
      "updateUserCompleted(address,uint256)": {
        "details": "used to update the status of redemption to \"User Complete\" after an escrow process has been started.",
        "params": {
          "buyer": "the wallet address of product buyer",
          "id": "the id of the escrow, returned to the user after starting of redemption process"
        }
      },
      "updateUserRefund(address,uint256)": {
        "details": "used to update the status of redemption to \"User Refunded\" after an escrow process has been started.",
        "params": {
          "buyer": "the wallet address of product buyer",
          "id": "the id of the escrow, returned to the user after starting of redemption process"
        }
      },
      "withdrawEther(uint256)": {
        "details": "A method allow us to withdraw liquidity (eth) from the contract Since eth is not used as a return currency, we need to withdraw eth from the system.",
        "params": {
          "value_": "the value of ether"
        }
      }
    },
    "version": 1
  },
  "userdoc": {
    "kind": "user",
    "methods": {},
    "version": 1
  }
}