{
  "contractName": "ProductTokenV2",
  "abi": [
    {
      "anonymous": false,
      "inputs": [
        {
          "indexed": true,
          "internalType": "address",
          "name": "owner",
          "type": "address"
        },
        {
          "indexed": true,
          "internalType": "address",
          "name": "spender",
          "type": "address"
        },
        {
          "indexed": false,
          "internalType": "uint256",
          "name": "value",
          "type": "uint256"
        }
      ],
      "name": "Approval",
      "type": "event"
    },
    {
      "anonymous": false,
      "inputs": [
        {
          "indexed": true,
          "internalType": "address",
          "name": "sender",
          "type": "address"
        },
        {
          "indexed": false,
          "internalType": "uint32",
          "name": "amount",
          "type": "uint32"
        },
        {
          "indexed": false,
          "internalType": "uint256",
          "name": "deposit",
          "type": "uint256"
        }
      ],
      "name": "Buy",
      "type": "event"
    },
    {
      "anonymous": false,
      "inputs": [
        {
          "indexed": true,
          "internalType": "address",
          "name": "previousOwner",
          "type": "address"
        },
        {
          "indexed": true,
          "internalType": "address",
          "name": "newOwner",
          "type": "address"
        }
      ],
      "name": "OwnershipTransferred",
      "type": "event"
    },
    {
      "anonymous": false,
      "inputs": [
        {
          "indexed": true,
          "internalType": "address",
          "name": "sender",
          "type": "address"
        },
        {
          "indexed": false,
          "internalType": "uint32",
          "name": "amount",
          "type": "uint32"
        },
        {
          "indexed": false,
          "internalType": "uint256",
          "name": "refund",
          "type": "uint256"
        }
      ],
      "name": "Sell",
      "type": "event"
    },
    {
      "anonymous": false,
      "inputs": [
        {
          "indexed": false,
          "internalType": "bool",
          "name": "isTradable",
          "type": "bool"
        }
      ],
      "name": "Tradable",
      "type": "event"
    },
    {
      "anonymous": false,
      "inputs": [
        {
          "indexed": true,
          "internalType": "address",
          "name": "sender",
          "type": "address"
        },
        {
          "indexed": false,
          "internalType": "uint32",
          "name": "amount",
          "type": "uint32"
        }
      ],
      "name": "Tradein",
      "type": "event"
    },
    {
      "anonymous": false,
      "inputs": [
        {
          "indexed": true,
          "internalType": "address",
          "name": "from",
          "type": "address"
        },
        {
          "indexed": true,
          "internalType": "address",
          "name": "to",
          "type": "address"
        },
        {
          "indexed": false,
          "internalType": "uint256",
          "name": "value",
          "type": "uint256"
        }
      ],
      "name": "Transfer",
      "type": "event"
    },
    {
      "anonymous": false,
      "inputs": [
        {
          "indexed": false,
          "internalType": "address",
          "name": "",
          "type": "address"
        },
        {
          "indexed": false,
          "internalType": "uint256",
          "name": "",
          "type": "uint256"
        },
        {
          "components": [
            {
              "internalType": "enum Escrow.escrowState",
              "name": "state",
              "type": "uint8"
            },
            {
              "internalType": "uint32",
              "name": "amount",
              "type": "uint32"
            },
            {
              "internalType": "uint256",
              "name": "value",
              "type": "uint256"
            }
          ],
          "indexed": false,
          "internalType": "struct Escrow.escrowInfo",
          "name": "",
          "type": "tuple"
        }
      ],
      "name": "escrowStateUpdated",
      "type": "event"
    },
    {
      "stateMutability": "nonpayable",
      "type": "fallback"
    },
    {
      "inputs": [
        {
          "internalType": "address",
          "name": "owner",
          "type": "address"
        },
        {
          "internalType": "address",
          "name": "spender",
          "type": "address"
        }
      ],
      "name": "allowance",
      "outputs": [
        {
          "internalType": "uint256",
          "name": "",
          "type": "uint256"
        }
      ],
      "stateMutability": "view",
      "type": "function"
    },
    {
      "inputs": [
        {
          "internalType": "address",
          "name": "spender",
          "type": "address"
        },
        {
          "internalType": "uint256",
          "name": "amount",
          "type": "uint256"
        }
      ],
      "name": "approve",
      "outputs": [
        {
          "internalType": "bool",
          "name": "",
          "type": "bool"
        }
      ],
      "stateMutability": "nonpayable",
      "type": "function"
    },
    {
      "inputs": [
        {
          "internalType": "address",
          "name": "account",
          "type": "address"
        }
      ],
      "name": "balanceOf",
      "outputs": [
        {
          "internalType": "uint256",
          "name": "",
          "type": "uint256"
        }
      ],
      "stateMutability": "view",
      "type": "function"
    },
    {
      "inputs": [
        {
          "internalType": "uint256",
          "name": "maxPrice_",
          "type": "uint256"
        }
      ],
      "name": "buy",
      "outputs": [],
      "stateMutability": "nonpayable",
      "type": "function"
    },
    {
      "inputs": [
        {
          "internalType": "uint256",
          "name": "_amountReserve",
          "type": "uint256"
        }
      ],
      "name": "calculateBuyReturn",
      "outputs": [
        {
          "internalType": "uint32",
          "name": "mintAmount",
          "type": "uint32"
        }
      ],
      "stateMutability": "view",
      "type": "function"
    },
    {
      "inputs": [
        {
          "internalType": "uint32",
          "name": "_amountProduct",
          "type": "uint32"
        }
      ],
      "name": "calculateSellReturn",
      "outputs": [
        {
          "internalType": "uint256",
          "name": "soldAmount",
          "type": "uint256"
        }
      ],
      "stateMutability": "view",
      "type": "function"
    },
    {
      "inputs": [
        {
          "internalType": "uint32",
          "name": "_amount",
          "type": "uint32"
        }
      ],
      "name": "calculateTradinReturn",
      "outputs": [
        {
          "internalType": "uint256",
          "name": "",
          "type": "uint256"
        }
      ],
      "stateMutability": "view",
      "type": "function"
    },
    {
      "inputs": [
        {
          "internalType": "uint256",
          "name": "amount_",
          "type": "uint256"
        }
      ],
      "name": "claimSupplier",
      "outputs": [],
      "stateMutability": "nonpayable",
      "type": "function"
    },
    {
      "inputs": [],
      "name": "decimals",
      "outputs": [
        {
          "internalType": "uint8",
          "name": "",
          "type": "uint8"
        }
      ],
      "stateMutability": "view",
      "type": "function"
    },
    {
      "inputs": [
        {
          "internalType": "address",
          "name": "spender",
          "type": "address"
        },
        {
          "internalType": "uint256",
          "name": "subtractedValue",
          "type": "uint256"
        }
      ],
      "name": "decreaseAllowance",
      "outputs": [
        {
          "internalType": "bool",
          "name": "",
          "type": "bool"
        }
      ],
      "stateMutability": "nonpayable",
      "type": "function"
    },
    {
      "inputs": [
        {
          "internalType": "address",
          "name": "",
          "type": "address"
        },
        {
          "internalType": "uint256",
          "name": "",
          "type": "uint256"
        }
      ],
      "name": "escrowList",
      "outputs": [
        {
          "internalType": "enum Escrow.escrowState",
          "name": "state",
          "type": "uint8"
        },
        {
          "internalType": "uint32",
          "name": "amount",
          "type": "uint32"
        },
        {
          "internalType": "uint256",
          "name": "value",
          "type": "uint256"
        }
      ],
      "stateMutability": "view",
      "type": "function"
    },
    {
      "inputs": [],
      "name": "getCurrentPrice",
      "outputs": [
        {
          "internalType": "uint256",
          "name": "price",
          "type": "uint256"
        }
      ],
      "stateMutability": "view",
      "type": "function"
    },
    {
      "inputs": [
        {
          "internalType": "address",
          "name": "_buyer",
          "type": "address"
        }
      ],
      "name": "getEscrowHistory",
      "outputs": [
        {
          "components": [
            {
              "internalType": "enum Escrow.escrowState",
              "name": "state",
              "type": "uint8"
            },
            {
              "internalType": "uint32",
              "name": "amount",
              "type": "uint32"
            },
            {
              "internalType": "uint256",
              "name": "value",
              "type": "uint256"
            }
          ],
          "internalType": "struct Escrow.escrowInfo[]",
          "name": "",
          "type": "tuple[]"
        }
      ],
      "stateMutability": "view",
      "type": "function"
    },
    {
      "inputs": [],
      "name": "getManager",
      "outputs": [
        {
          "internalType": "address",
          "name": "",
          "type": "address"
        }
      ],
      "stateMutability": "view",
      "type": "function"
    },
    {
      "inputs": [],
      "name": "getPoolInfo",
      "outputs": [
        {
          "components": [
            {
              "internalType": "uint256",
              "name": "amount",
              "type": "uint256"
            },
            {
              "internalType": "uint256",
              "name": "accRewardPerShare",
              "type": "uint256"
            },
            {
              "internalType": "uint256",
              "name": "tokenReward",
              "type": "uint256"
            }
          ],
          "internalType": "struct ProductTokenV1.PoolInfo",
          "name": "",
          "type": "tuple"
        }
      ],
      "stateMutability": "view",
      "type": "function"
    },
    {
      "inputs": [
        {
          "internalType": "address",
          "name": "_buyer",
          "type": "address"
        },
        {
          "internalType": "uint256",
          "name": "_id",
          "type": "uint256"
        }
      ],
      "name": "getRedeemStatus",
      "outputs": [
        {
          "internalType": "enum Escrow.escrowState",
          "name": "",
          "type": "uint8"
        }
      ],
      "stateMutability": "view",
      "type": "function"
    },
    {
      "inputs": [],
      "name": "getSupplierBalance",
      "outputs": [
        {
          "internalType": "uint256",
          "name": "",
          "type": "uint256"
        }
      ],
      "stateMutability": "view",
      "type": "function"
    },
    {
      "inputs": [],
      "name": "getSupplierInfo",
      "outputs": [
        {
          "components": [
            {
              "internalType": "uint256",
              "name": "amount",
              "type": "uint256"
            },
            {
              "internalType": "address",
              "name": "wallet",
              "type": "address"
            }
          ],
          "internalType": "struct ProductTokenV1.supplierInfo",
          "name": "",
          "type": "tuple"
        }
      ],
      "stateMutability": "view",
      "type": "function"
    },
    {
      "inputs": [
        {
          "internalType": "address",
          "name": "addr_",
          "type": "address"
        }
      ],
      "name": "getUserInfo",
      "outputs": [
        {
          "components": [
            {
              "internalType": "uint256",
              "name": "amount",
              "type": "uint256"
            },
            {
              "internalType": "uint256",
              "name": "rewardDebt",
              "type": "uint256"
            },
            {
              "internalType": "uint256",
              "name": "lastReward",
              "type": "uint256"
            },
            {
              "internalType": "uint256[]",
              "name": "records",
              "type": "uint256[]"
            }
          ],
          "internalType": "struct ProductTokenV1.UserInfo",
          "name": "",
          "type": "tuple"
        }
      ],
      "stateMutability": "view",
      "type": "function"
    },
    {
      "inputs": [
        {
          "internalType": "address",
          "name": "addr_",
          "type": "address"
        }
      ],
      "name": "getUserReward",
      "outputs": [
        {
          "internalType": "uint256",
          "name": "",
          "type": "uint256"
        }
      ],
      "stateMutability": "view",
      "type": "function"
    },
    {
      "inputs": [
        {
          "internalType": "address",
          "name": "spender",
          "type": "address"
        },
        {
          "internalType": "uint256",
          "name": "addedValue",
          "type": "uint256"
        }
      ],
      "name": "increaseAllowance",
      "outputs": [
        {
          "internalType": "bool",
          "name": "",
          "type": "bool"
        }
      ],
      "stateMutability": "nonpayable",
      "type": "function"
    },
    {
      "inputs": [
        {
          "internalType": "string",
          "name": "_name",
          "type": "string"
        },
        {
          "internalType": "string",
          "name": "_symbol",
          "type": "string"
        },
        {
          "internalType": "address",
          "name": "_bondingCurveAddress",
          "type": "address"
        },
        {
          "internalType": "uint32",
          "name": "_reserveRatio",
          "type": "uint32"
        },
        {
          "internalType": "uint32",
          "name": "_maxTokenCount",
          "type": "uint32"
        },
        {
          "internalType": "uint32",
          "name": "_supplyOffset",
          "type": "uint32"
        },
        {
          "internalType": "uint256",
          "name": "_baseReserve",
          "type": "uint256"
        }
      ],
      "name": "initialize",
      "outputs": [],
      "stateMutability": "nonpayable",
      "type": "function"
    },
    {
      "inputs": [
        {
          "internalType": "enum Escrow.escrowState",
          "name": "_state",
          "type": "uint8"
        }
      ],
      "name": "isStateCompleted",
      "outputs": [
        {
          "internalType": "bool",
          "name": "",
          "type": "bool"
        }
      ],
      "stateMutability": "pure",
      "type": "function"
    },
    {
      "inputs": [],
      "name": "launch",
      "outputs": [],
      "stateMutability": "nonpayable",
      "type": "function"
    },
    {
      "inputs": [],
      "name": "maxTokenCount",
      "outputs": [
        {
          "internalType": "uint32",
          "name": "",
          "type": "uint32"
        }
      ],
      "stateMutability": "view",
      "type": "function"
    },
    {
      "inputs": [],
      "name": "name",
      "outputs": [
        {
          "internalType": "string",
          "name": "",
          "type": "string"
        }
      ],
      "stateMutability": "view",
      "type": "function"
    },
    {
      "inputs": [],
      "name": "newAttribute",
      "outputs": [
        {
          "internalType": "uint256",
          "name": "",
          "type": "uint256"
        }
      ],
      "stateMutability": "view",
      "type": "function"
    },
    {
      "inputs": [],
      "name": "owner",
      "outputs": [
        {
          "internalType": "address",
          "name": "",
          "type": "address"
        }
      ],
      "stateMutability": "view",
      "type": "function"
    },
    {
      "inputs": [],
      "name": "pause",
      "outputs": [],
      "stateMutability": "nonpayable",
      "type": "function"
    },
    {
      "inputs": [],
      "name": "poolInfo",
      "outputs": [
        {
          "internalType": "uint256",
          "name": "amount",
          "type": "uint256"
        },
        {
          "internalType": "uint256",
          "name": "accRewardPerShare",
          "type": "uint256"
        },
        {
          "internalType": "uint256",
          "name": "tokenReward",
          "type": "uint256"
        }
      ],
      "stateMutability": "view",
      "type": "function"
    },
    {
      "inputs": [],
      "name": "renounceOwnership",
      "outputs": [],
      "stateMutability": "nonpayable",
      "type": "function"
    },
    {
      "inputs": [],
      "name": "reserveBalance",
      "outputs": [
        {
          "internalType": "uint256",
          "name": "",
          "type": "uint256"
        }
      ],
      "stateMutability": "view",
      "type": "function"
    },
    {
      "inputs": [],
      "name": "reserveRatio",
      "outputs": [
        {
          "internalType": "uint32",
          "name": "",
          "type": "uint32"
        }
      ],
      "stateMutability": "view",
      "type": "function"
    },
    {
      "inputs": [
        {
          "internalType": "uint32",
          "name": "amount_",
          "type": "uint32"
        }
      ],
      "name": "sell",
      "outputs": [],
      "stateMutability": "nonpayable",
      "type": "function"
    },
    {
      "inputs": [
        {
          "internalType": "address",
          "name": "_address",
          "type": "address"
        }
      ],
      "name": "setBondingCurve",
      "outputs": [],
      "stateMutability": "nonpayable",
      "type": "function"
    },
    {
      "inputs": [
        {
          "internalType": "address",
          "name": "highAddress_",
          "type": "address"
        }
      ],
      "name": "setHigh",
      "outputs": [],
      "stateMutability": "nonpayable",
      "type": "function"
    },
    {
      "inputs": [
        {
          "internalType": "address",
          "name": "addr_",
          "type": "address"
        }
      ],
      "name": "setManager",
      "outputs": [],
      "stateMutability": "nonpayable",
      "type": "function"
    },
    {
      "inputs": [],
      "name": "supplier",
      "outputs": [
        {
          "internalType": "uint256",
          "name": "amount",
          "type": "uint256"
        },
        {
          "internalType": "address",
          "name": "wallet",
          "type": "address"
        }
      ],
      "stateMutability": "view",
      "type": "function"
    },
    {
      "inputs": [],
      "name": "symbol",
      "outputs": [
        {
          "internalType": "string",
          "name": "",
          "type": "string"
        }
      ],
      "stateMutability": "view",
      "type": "function"
    },
    {
      "inputs": [],
      "name": "totalSupply",
      "outputs": [
        {
          "internalType": "uint256",
          "name": "",
          "type": "uint256"
        }
      ],
      "stateMutability": "view",
      "type": "function"
    },
    {
      "inputs": [
        {
          "internalType": "uint32",
          "name": "amount_",
          "type": "uint32"
        }
      ],
      "name": "tradein",
      "outputs": [],
      "stateMutability": "nonpayable",
      "type": "function"
    },
    {
      "inputs": [],
      "name": "tradeinCount",
      "outputs": [
        {
          "internalType": "uint32",
          "name": "",
          "type": "uint32"
        }
      ],
      "stateMutability": "view",
      "type": "function"
    },
    {
      "inputs": [],
      "name": "tradeinReserveBalance",
      "outputs": [
        {
          "internalType": "uint256",
          "name": "",
          "type": "uint256"
        }
      ],
      "stateMutability": "view",
      "type": "function"
    },
    {
      "inputs": [
        {
          "internalType": "address",
          "name": "recipient",
          "type": "address"
        },
        {
          "internalType": "uint256",
          "name": "amount",
          "type": "uint256"
        }
      ],
      "name": "transfer",
      "outputs": [
        {
          "internalType": "bool",
          "name": "",
          "type": "bool"
        }
      ],
      "stateMutability": "nonpayable",
      "type": "function"
    },
    {
      "inputs": [
        {
          "internalType": "address",
          "name": "sender",
          "type": "address"
        },
        {
          "internalType": "address",
          "name": "recipient",
          "type": "address"
        },
        {
          "internalType": "uint256",
          "name": "amount",
          "type": "uint256"
        }
      ],
      "name": "transferFrom",
      "outputs": [
        {
          "internalType": "bool",
          "name": "",
          "type": "bool"
        }
      ],
      "stateMutability": "nonpayable",
      "type": "function"
    },
    {
      "inputs": [
        {
          "internalType": "address",
          "name": "newOwner",
          "type": "address"
        }
      ],
      "name": "transferOwnership",
      "outputs": [],
      "stateMutability": "nonpayable",
      "type": "function"
    },
    {
      "inputs": [
        {
          "internalType": "uint256",
          "name": "fee_",
          "type": "uint256"
        }
      ],
      "name": "updatePool",
      "outputs": [],
      "stateMutability": "nonpayable",
      "type": "function"
    },
    {
      "inputs": [
        {
          "internalType": "address",
          "name": "wallet_",
          "type": "address"
        }
      ],
      "name": "updateSupplierInfo",
      "outputs": [],
      "stateMutability": "nonpayable",
      "type": "function"
    },
    {
      "inputs": [
        {
          "internalType": "address",
          "name": "buyer",
          "type": "address"
        },
        {
          "internalType": "uint256",
          "name": "id",
          "type": "uint256"
        }
      ],
      "name": "updateUserCompleted",
      "outputs": [],
      "stateMutability": "nonpayable",
      "type": "function"
    },
    {
      "inputs": [
        {
          "internalType": "address",
          "name": "buyer",
          "type": "address"
        },
        {
          "internalType": "uint256",
          "name": "id",
          "type": "uint256"
        }
      ],
      "name": "updateUserRefund",
      "outputs": [],
      "stateMutability": "nonpayable",
      "type": "function"
    },
    {
      "inputs": [
        {
          "internalType": "address",
          "name": "",
          "type": "address"
        }
      ],
      "name": "userInfo",
      "outputs": [
        {
          "internalType": "uint256",
          "name": "amount",
          "type": "uint256"
        },
        {
          "internalType": "uint256",
          "name": "rewardDebt",
          "type": "uint256"
        },
        {
          "internalType": "uint256",
          "name": "lastReward",
          "type": "uint256"
        }
      ],
      "stateMutability": "view",
      "type": "function"
    },
    {
      "inputs": [],
      "name": "voucher",
      "outputs": [
        {
          "internalType": "address",
          "name": "addr",
          "type": "address"
        },
        {
          "internalType": "contract IVNFT",
          "name": "instance",
          "type": "address"
        },
        {
          "internalType": "uint256",
          "name": "tokenId",
          "type": "uint256"
        },
        {
          "internalType": "bool",
          "name": "isEnable",
          "type": "bool"
        }
      ],
      "stateMutability": "view",
      "type": "function"
    },
    {
      "inputs": [
        {
          "internalType": "uint256",
          "name": "value_",
          "type": "uint256"
        }
      ],
      "name": "withdrawEther",
      "outputs": [],
      "stateMutability": "payable",
      "type": "function"
    },
    {
      "inputs": [
        {
          "internalType": "uint256",
          "name": "amount_",
          "type": "uint256"
        },
        {
          "internalType": "address",
          "name": "to_",
          "type": "address"
        }
      ],
      "name": "withdrawHigh",
      "outputs": [],
      "stateMutability": "nonpayable",
      "type": "function"
    },
    {
      "inputs": [],
      "name": "getNewAttribute",
      "outputs": [
        {
          "internalType": "uint256",
          "name": "",
          "type": "uint256"
        }
      ],
      "stateMutability": "view",
      "type": "function"
    },
    {
      "inputs": [
        {
          "internalType": "uint32",
          "name": "_amountProduct",
          "type": "uint32"
        }
      ],
      "name": "getPriceForN",
      "outputs": [
        {
          "internalType": "uint256",
          "name": "price",
          "type": "uint256"
        }
      ],
      "stateMutability": "view",
      "type": "function"
    },
    {
      "inputs": [],
      "name": "getAvailability",
      "outputs": [
        {
          "internalType": "uint32",
          "name": "available",
          "type": "uint32"
        }
      ],
      "stateMutability": "view",
      "type": "function"
    }
  ],
  "bytecode": "0x608060405234801561001057600080fd5b50614637806100206000396000f3fe6080604052600436106102ba5760003560e060020a9004806374a7b01211610175578063c757d4c7116100d6578063c757d4c7146108a9578063c75ebb82146108c9578063cdda418c146108e9578063d0ebdbe714610948578063d500958414610968578063d96a094a14610986578063dd304b1a146109a6578063dd62ed3e146109d3578063deebbef114610a19578063e67dc51814610a39578063eb91d37e14610a4f578063ebc9e4d614610a64578063efea8a1314610a84578063f2fde38b14610aa4578063f97511d314610ac4576102ba565b806374a7b012146106c35780637a53e04014610725578063828f3a9c1461073a5780638456cb591461075a5780638da5cb5b1461076f57806395d89b4114610791578063964a6afe146107a65780639b9ffbf3146107bb578063a10954fe146107ea578063a457c2d714610800578063a8d9262914610820578063a9059cbb14610840578063ba7a93b614610860578063c4e627c214610884576102ba565b80633bed33ce1161021f5780633bed33ce146104f557806343ff1fb814610508578063483335a114610528578063491052cd1461053e5780634ffd23a71461055e57806351eb05a61461057e5780635a2f3d091461059e5780635e88752c146105bd57806360246c88146105dd5780636386c1c71461061457806363c51fbb146106415780636e74607b1461066157806370a082311461068e578063715018a6146106ae576102ba565b806301339c21146102c957806306fdde03146102e0578063095ea7b31461030b5780630c7d5cd81461033b5780630ccee99b1461036d57806318160ddd1461038d5780631959a002146103ac57806319d5b58714610403578063224e4f481461042357806323b872dd146104435780632f0a3fe414610463578063313ce5671461047857806336da44681461049457806339509351146104d5575b3480156102c657600080fd5b50005b3480156102d557600080fd5b506102de610ae4565b005b3480156102ec57600080fd5b506102f5610bcc565b604051610302919061410f565b60405180910390f35b34801561031757600080fd5b5061032b610326366004613dfd565b610c5e565b6040519015158152602001610302565b34801561034757600080fd5b50609b546103589063ffffffff1681565b60405163ffffffff9091168152602001610302565b34801561037957600080fd5b506102de610388366004613dfd565b610c75565b34801561039957600080fd5b506035545b604051908152602001610302565b3480156103b857600080fd5b506103e86103c7366004613d76565b60a76020526000908152604090208054600182015460029092015490919083565b60408051938452602084019290925290820152606001610302565b34801561040f57600080fd5b5061039e61041e366004613f6c565b610cfc565b34801561042f57600080fd5b5061039e61043e366004613f6c565b610dfd565b34801561044f57600080fd5b5061032b61045e366004613dc2565b610e22565b34801561046f57600080fd5b5061039e610eeb565b34801561048457600080fd5b5060405160008152602001610302565b3480156104a057600080fd5b50609e54609f546104b89190600160a060020a031682565b60408051928352600160a060020a03909116602083015201610302565b3480156104e157600080fd5b5061032b6104f0366004613dfd565b610f01565b6102de610503366004613f1a565b610f38565b34801561051457600080fd5b506102de610523366004613d76565b610fe8565b34801561053457600080fd5b5061039e60a95481565b34801561054a57600080fd5b5061032b610559366004613e46565b611065565b34801561056a57600080fd5b506102de610579366004613f6c565b6110bf565b34801561058a57600080fd5b506102de610599366004613f1a565b611246565b3480156105aa57600080fd5b5060a05460a15460a2546103e892919083565b3480156105c957600080fd5b506102de6105d8366004613f1a565b611280565b3480156105e957600080fd5b506105f26113e5565b6040805182518152602080840151908201529181015190820152606001610302565b34801561062057600080fd5b5061063461062f366004613d76565b61142e565b60405161030291906143ac565b34801561064d57600080fd5b506102de61065c366004613f6c565b61151b565b34801561066d57600080fd5b5061068161067c366004613d76565b6116ca565b604051610302919061408e565b34801561069a57600080fd5b5061039e6106a9366004613d76565b6117b0565b3480156106ba57600080fd5b506102de6117cb565b3480156106cf57600080fd5b5060408051808201825260008082526020918201528151808301909252609e548252609f54600160a060020a0316908201526040805182518152602092830151600160a060020a03169281019290925201610302565b34801561073157600080fd5b50610358611835565b34801561074657600080fd5b50610358610755366004613f1a565b611881565b34801561076657600080fd5b506102de611895565b34801561077b57600080fd5b50610784611966565b6040516103029190613ff0565b34801561079d57600080fd5b506102f5611975565b3480156107b257600080fd5b50609e5461039e565b3480156107c757600080fd5b506107db6107d6366004613dfd565b611984565b604051610302939291906140ea565b3480156107f657600080fd5b5061039e60995481565b34801561080c57600080fd5b5061032b61081b366004613dfd565b6119cf565b34801561082c57600080fd5b506102de61083b366004613d76565b611a70565b34801561084c57600080fd5b5061032b61085b366004613dfd565b611aed565b34801561086c57600080fd5b50609b5461035890604060020a900463ffffffff1681565b34801561089057600080fd5b50609b5461035890640100000000900463ffffffff1681565b3480156108b557600080fd5b506102de6108c4366004613dfd565b611afa565b3480156108d557600080fd5b5061039e6108e4366004613d76565b611be3565b3480156108f557600080fd5b5060a35460a45460a55460a65461091b93600160a060020a039081169316919060ff1684565b60408051600160a060020a0395861681529490931660208501529183015215156060820152608001610302565b34801561095457600080fd5b506102de610963366004613d76565b611c57565b34801561097457600080fd5b50609c54600160a060020a0316610784565b34801561099257600080fd5b506102de6109a1366004613f1a565b611cd4565b3480156109b257600080fd5b506109c66109c1366004613dfd565b6120ca565b60405161030291906140dc565b3480156109df57600080fd5b5061039e6109ee366004613d90565b600160a060020a03918216600090815260346020908152604080832093909416825291909152205490565b348015610a2557600080fd5b506102de610a34366004613d76565b612120565b348015610a4557600080fd5b5061039e609a5481565b348015610a5b57600080fd5b5061039e6121cd565b348015610a7057600080fd5b506102de610a7f366004613f4a565b6121d9565b348015610a9057600080fd5b506102de610a9f366004613e65565b612360565b348015610ab057600080fd5b506102de610abf366004613d76565b6123f5565b348015610ad057600080fd5b5061039e610adf366004613f6c565b6124f0565b33610aed611966565b600160a060020a031614610b1f5760405160e560020a62461bcd028152600401610b1690614309565b60405180910390fd5b60985460ff1615610b865760405160e560020a62461bcd02815260206004820152602560248201527f5468652070726f6475637420746f6b656e20697320616c7265616479206c6175604482015260da60020a641b98da1959026064820152608401610b16565b6098805460ff191660019081179091556040519081527f65c5ccecef030677b73a1403e7e69ef84d05db9d1732959d543d32f4419909b8906020015b60405180910390a1565b606060368054610bdb90614501565b80601f0160208091040260200160405190810160405280929190818152602001828054610c0790614501565b8015610c545780601f10610c2957610100808354040283529160200191610c54565b820191906000526020600020905b815481529060010190602001808311610c3757829003601f168201915b5050505050905090565b6000610c6b338484612597565b5060015b92915050565b610c7d611966565b600160a060020a031633600160a060020a03161480610ca65750609c54600160a060020a031633145b610cc55760405160e560020a62461bcd028152600401610b16906142d2565b600160a060020a038216610cee5760405160e560020a62461bcd028152600401610b1690614199565b610cf882826126c8565b5050565b6000808263ffffffff1611610d265760405160e560020a62461bcd028152600401610b1690614207565b609b54600090610d5d9063ffffffff606060020a8204811691610d579187811691604060020a900481169061284116565b90612841565b609d54609a54609b5460405160e060020a631c949873028152939450600160a060020a0390921692631c94987392610da4928692909163ffffffff1690899060040161441b565b60206040518083038186803b158015610dbc57600080fd5b505afa158015610dd0573d6000803e3d6000fd5b505050506040513d601f19601f82011682018060405250810190610df49190613f32565b9150505b919050565b6000806000610e0b84612854565b9092509050610e1a8282612917565b949350505050565b6000610e2f848484612923565b600160a060020a038416600090815260346020908152604080832033845290915290205482811015610ecc5760405160e560020a62461bcd02815260206004820152602860248201527f45524332303a207472616e7366657220616d6f756e742065786365656473206160448201527f6c6c6f77616e63650000000000000000000000000000000000000000000000006064820152608401610b16565b610ee08533610edb86856144c5565b612597565b506001949350505050565b600060a9546001610efc9190614443565b905090565b336000818152603460209081526040808320600160a060020a03871684529091528120549091610c6b918590610edb908690614443565b33610f41611966565b600160a060020a031614610f6a5760405160e560020a62461bcd028152600401610b1690614309565b3031610fbb5760405160e560020a62461bcd02815260206004820152600f60248201527f6e6f20656e6f75676820657468657200000000000000000000000000000000006044820152606401610b16565b604051339082156108fc029083906000818181858888f19350505050158015610cf8573d6000803e3d6000fd5b33610ff1611966565b600160a060020a03161461101a5760405160e560020a62461bcd028152600401610b1690614309565b600160a060020a0381166110435760405160e560020a62461bcd028152600401610b1690614162565b609d8054600160a060020a031916600160a060020a0392909216919091179055565b6000600382600381111561108c5760e060020a634e487b7102600052602160045260246000fd5b1480610c6f575060028260038111156110b85760e060020a634e487b7102600052602160045260246000fd5b1492915050565b60985460ff166110e45760405160e560020a62461bcd028152600401610b169061433e565b8063ffffffff166110f4336117b0565b101580611107575060008163ffffffff16115b6111265760405160e560020a62461bcd028152600401610b1690614207565b60008061113283612b0f565b9150915061113f83612c22565b60a85460405160e060020a63a9059cbb028152600091600160a060020a03169063a9059cbb906111759033908790600401614004565b602060405180830381600087803b15801561118f57600080fd5b505af11580156111a3573d6000803e3d6000fd5b505050506040513d601f19601f820116820180604052508101906111c79190613e26565b90506111f06111eb6501d1a94a20006111e58564e8d4a51000612e38565b90612e44565b612e50565b806112405760405160e560020a62461bcd02815260206004820152601460248201527f73656c6c696e6720746f6b656e206661696c65640000000000000000000000006044820152606401610b16565b50505050565b60a054806112595750600060a15561127d565b61127861126f826111e58564e8d4a51000612e38565b60a15490612841565b60a155505b50565b609f54600160a060020a03166112db5760405160e560020a62461bcd02815260206004820152601160248201527f77616c6c657420697320696e76616c69640000000000000000000000000000006044820152606401610b16565b609f54600160a060020a031633146113385760405160e560020a62461bcd02815260206004820152601a60248201527f5468652061646472657373206973206e6f7420616c6c6f7765640000000000006044820152606401610b16565b609e54811161127d5760a85460405160e060020a63a9059cbb028152600091600160a060020a03169063a9059cbb906113779033908690600401614004565b602060405180830381600087803b15801561139157600080fd5b505af11580156113a5573d6000803e3d6000fd5b505050506040513d601f19601f820116820180604052508101906113c99190613e26565b90508015610cf857609e546113de9083612917565b609e555050565b61140960405180606001604052806000815260200160008152602001600081525090565b506040805160608101825260a054815260a154602082015260a2549181019190915290565b6114596040518060800160405280600081526020016000815260200160008152602001606081525090565b600160a060020a0382166114825760405160e560020a62461bcd028152600401610b169061423e565b600160a060020a038216600090815260a76020908152604091829020825160808101845281548152600182015481840152600282015481850152600382018054855181860281018601909652808652919492936060860193929083018282801561150b57602002820191906000526020600020905b8154815260200190600101908083116114f7575b5050505050815250509050919050565b60985460ff166115405760405160e560020a62461bcd028152600401610b169061433e565b60008163ffffffff16116115695760405160e560020a62461bcd028152600401610b1690614375565b8063ffffffff16611579336117b0565b10156115ca5760405160e560020a62461bcd02815260206004820152601c60248201527f496e73756666696369656e7420746f6b656e7320746f206275726e2e000000006044820152606401610b16565b6000806115d683612854565b9150915060006115e584610cfc565b90506116086111eb82610d576512309ce540006111e5876509184e72a000612e38565b6116128383612917565b925061161e8484612e69565b5061162f338563ffffffff16612fbd565b609b5461164a908590604060020a900463ffffffff1661445b565b609b80546bffffffff00000000000000001916604060020a63ffffffff93841602179055609a5461167d91839061284116565b609a5561168984612c22565b60405163ffffffff8516815233907fe600c25f82e9bac8f9f1663725540d6cd442845726820fd5bee41b66c4bf59be9060200160405180910390a250505050565b600160a060020a0381166000908152606560209081526040808320805482518185028101850190935280835260609492939192909184015b828210156117a5576000848152602090206040805160608101909152600284029091018054829060ff16600381111561174e5760e060020a634e487b7102600052602160045260246000fd5b60038111156117705760e060020a634e487b7102600052602160045260246000fd5b81528154610100900463ffffffff16602080830191909152600192830154604090920191909152918352929092019101611702565b505050509050919050565b600160a060020a031660009081526033602052604090205490565b336117d4611966565b600160a060020a0316146117fd5760405160e560020a62461bcd028152600401610b1690614309565b606654604051600091600160a060020a0316906000805160206145c2833981519152908390a360668054600160a060020a0319169055565b609b54600090604060020a900463ffffffff1661185160355490565b609b5461186c9190640100000000900463ffffffff166144dc565b61187691906144dc565b610efc90606461445b565b60008061188d83613106565b509392505050565b3361189e611966565b600160a060020a0316146118c75760405160e560020a62461bcd028152600401610b1690614309565b60985460ff1661192b5760405160e560020a62461bcd02815260206004820152602360248201527f5468652070726f6475637420746f6b656e20697320616c726561647920706175604482015260ea60020a621cd959026064820152608401610b16565b6098805460ff19169055604051600081527f65c5ccecef030677b73a1403e7e69ef84d05db9d1732959d543d32f4419909b890602001610bc2565b606654600160a060020a031690565b606060378054610bdb90614501565b606560205281600052604060002081815481106119a057600080fd5b60009182526020909120600290910201805460019091015460ff8216935061010090910463ffffffff16915083565b336000908152603460209081526040808320600160a060020a038616845290915281205482811015611a575760405160e560020a62461bcd02815260206004820152602560248201527f45524332303a2064656372656173656420616c6c6f77616e63652062656c6f77604482015260d860020a64207a65726f026064820152608401610b16565b611a663385610edb86856144c5565b5060019392505050565b33611a79611966565b600160a060020a031614611aa25760405160e560020a62461bcd028152600401610b1690614309565b600160a060020a038116611acb5760405160e560020a62461bcd028152600401610b1690614162565b60a88054600160a060020a031916600160a060020a0392909216919091179055565b6000610c6b338484612923565b611b02611966565b600160a060020a031633600160a060020a03161480611b2b5750609c54600160a060020a031633145b611b4a5760405160e560020a62461bcd028152600401610b16906142d2565b600160a060020a038216611b735760405160e560020a62461bcd028152600401610b1690614199565b6000611b7f838361320b565b905060008111611bd45760405160e560020a62461bcd02815260206004820152600d60248201527f496e76616c69642076616c7565000000000000000000000000000000000000006044820152606401610b16565b611bde83826133bc565b505050565b600160a060020a038116600090815260a7602052604081205415611c4f57600160a060020a038216600090815260a760205260409020600181015460a154825460a092611c46929091611c409164e8d4a51000916111e591612e38565b90612917565b92505050610df8565b506000919050565b33611c60611966565b600160a060020a031614611c895760405160e560020a62461bcd028152600401610b1690614309565b600160a060020a038116611cb25760405160e560020a62461bcd028152600401610b169061423e565b609c8054600160a060020a031916600160a060020a0392909216919091179055565b60985460ff16611cf95760405160e560020a62461bcd028152600401610b169061433e565b60008111611d4c5760405160e560020a62461bcd02815260206004820152601160248201527f696e76616c6964206d61782070726963650000000000000000000000000000006044820152606401610b16565b60a85460405160e060020a6323b872dd02815233600482015230602482015260448101839052600091600160a060020a0316906323b872dd90606401602060405180830381600087803b158015611da257600080fd5b505af1158015611db6573d6000803e3d6000fd5b505050506040513d601f19601f82011682018060405250810190611dda9190613e26565b905080611e2c5760405160e560020a62461bcd02815260206004820152601060248201527f5075726368617365206661696c65642e000000000000000000000000000000006044820152606401610b16565b600080600080611e3b86613496565b93509350935063ffffffff1693506000841115612039578215611ee15760a85460405160e060020a63a9059cbb028152600160a060020a039091169063a9059cbb90611e8d9033908790600401614004565b602060405180830381600087803b158015611ea757600080fd5b505af1158015611ebb573d6000803e3d6000fd5b505050506040513d601f19601f82011682018060405250810190611edf9190613e26565b505b611efd6111eb650746a52880006111e58464e8d4a51000612e38565b6000611f19650746a52880006111e584650574fbde6000612e38565b60a254909150611f299082612841565b60a255611f3581611246565b33600090815260a760205260408120600181015460a1548254929360a0939092611f6f929091611c409164e8d4a51000916111e591612e38565b90508015612017576002830181905560a85460405160e060020a63a9059cbb028152600160a060020a039091169063a9059cbb90611fb39033908590600401614004565b602060405180830381600087803b158015611fcd57600080fd5b505af1158015611fe1573d6000803e3d6000fd5b505050506040513d601f19601f820116820180604052508101906120059190613e26565b5060a2546120139082612917565b60a2555b60a0546120249087612841565b60a055612030866135fb565b505050506120c2565b60a85460405160e060020a63a9059cbb028152600160a060020a039091169063a9059cbb9061206e9033908a90600401614004565b602060405180830381600087803b15801561208857600080fd5b505af115801561209c573d6000803e3d6000fd5b505050506040513d601f19601f820116820180604052508101906120c09190613e26565b505b505050505050565b600160a060020a03821660009081526065602052604081208054839081106121055760e060020a634e487b7102600052603260045260246000fd5b600091825260209091206002909102015460ff169392505050565b33612129611966565b600160a060020a0316146121525760405160e560020a62461bcd028152600401610b1690614309565b600160a060020a0381166121ab5760405160e560020a62461bcd02815260206004820152601260248201527f4164647265737320697320696e76616c696400000000000000000000000000006044820152606401610b16565b609f8054600160a060020a031916600160a060020a0392909216919091179055565b6000610efc60016124f0565b336121e2611966565b600160a060020a03161461220b5760405160e560020a62461bcd028152600401610b1690614309565b600160a060020a0381166122345760405160e560020a62461bcd028152600401610b169061423e565b60a85460405160e060020a6370a08231028152600160a060020a03909116906370a0823190612267903090600401613ff0565b60206040518083038186803b15801561227f57600080fd5b505afa158015612293573d6000803e3d6000fd5b505050506040513d601f19601f820116820180604052508101906122b79190613f32565b8211156122d95760405160e560020a62461bcd028152600401610b1690614207565b60a85460405160e060020a63a9059cbb028152600160a060020a039091169063a9059cbb9061230e9084908690600401614004565b602060405180830381600087803b15801561232857600080fd5b505af115801561233c573d6000803e3d6000fd5b505050506040513d601f19601f82011682018060405250810190611bde9190613e26565b600054610100900460ff1680612379575060005460ff16155b6123985760405160e560020a62461bcd028152600401610b1690614275565b600054610100900460ff161580156123ba576000805461ffff19166101011790555b6123c2613654565b6123cc88886136d2565b6123d98686868686613754565b80156123eb576000805461ff00191690555b5050505050505050565b336123fe611966565b600160a060020a0316146124275760405160e560020a62461bcd028152600401610b1690614309565b600160a060020a0381166124a65760405160e560020a62461bcd02815260206004820152602660248201527f4f776e61626c653a206e6577206f776e657220697320746865207a65726f206160448201527f64647265737300000000000000000000000000000000000000000000000000006064820152608401610b16565b606654604051600160a060020a038084169216906000805160206145c283398151915290600090a360668054600160a060020a031916600160a060020a0392909216919091179055565b609d54600090600160a060020a031663bff82d8461250c6138e7565b609954609b546125249063ffffffff1661c35061445b565b866040518563ffffffff1660e060020a028152600401612547949392919061441b565b60206040518083038186803b15801561255f57600080fd5b505afa158015612573573d6000803e3d6000fd5b505050506040513d601f19601f82011682018060405250810190610c6f9190613f32565b600160a060020a0383166125ff5760405160e560020a62461bcd028152602060048201526024808201527f45524332303a20617070726f76652066726f6d20746865207a65726f20616464604482015260e060020a6372657373026064820152608401610b16565b600160a060020a0382166126665760405160e560020a62461bcd02815260206004820152602260248201527f45524332303a20617070726f766520746f20746865207a65726f206164647265604482015260f060020a617373026064820152608401610b16565b600160a060020a0383811660008181526034602090815260408083209487168084529482529182902085905590518481527f8c5be1e5ebec7d5bd14f71427d1e84f3dd0314c0f7b2291e5b200ac8c7c3b92591015b60405180910390a3505050565b600160a060020a038216600090815260656020526040902080546127219190839081106127085760e060020a634e487b7102600052603260045260246000fd5b600091825260209091206002909102015460ff16611065565b156127415760405160e560020a62461bcd028152600401610b16906141d0565b600160a060020a0382166000908152606560205260409020805460039190839081106127805760e060020a634e487b7102600052603260045260246000fd5b60009182526020909120600290910201805460ff191660018360038111156127bb5760e060020a634e487b7102600052602160045260246000fd5b02179055506000805160206145a283398151915282826065600086600160a060020a0316600160a060020a0316815260200190815260200160002084815481106128185760e060020a634e487b7102600052603260045260246000fd5b906000526020600020906002020160405161283593929190614041565b60405180910390a15050565b600061284d8284614443565b9392505050565b609d5460009081908190600160a060020a0316631c9498736128746138e7565b609954609b5460405163ffffffff85811660e060020a02825261289f94939216908a9060040161441b565b60206040518083038186803b1580156128b757600080fd5b505afa1580156128cb573d6000803e3d6000fd5b505050506040513d601f19601f820116820180604052508101906128ef9190613f32565b9050600061290b64e8d4a510006111e5846404a817c800612e38565b91935090915050915091565b600061284d82846144c5565b600160a060020a03831661298d5760405160e560020a62461bcd02815260206004820152602560248201527f45524332303a207472616e736665722066726f6d20746865207a65726f206164604482015260d860020a646472657373026064820152608401610b16565b600160a060020a0382166129f55760405160e560020a62461bcd02815260206004820152602360248201527f45524332303a207472616e7366657220746f20746865207a65726f2061646472604482015260e860020a62657373026064820152608401610b16565b600160a060020a03831660009081526033602052604090205481811015612a875760405160e560020a62461bcd02815260206004820152602660248201527f45524332303a207472616e7366657220616d6f756e742065786365656473206260448201527f616c616e636500000000000000000000000000000000000000000000000000006064820152608401610b16565b612a9182826144c5565b600160a060020a038086166000908152603360205260408082209390935590851681529081208054849290612ac7908490614443565b9250508190555082600160a060020a031684600160a060020a03166000805160206145e283398151915284604051612b0191815260200190565b60405180910390a350505050565b60008060008363ffffffff1611612b3b5760405160e560020a62461bcd028152600401610b1690614375565b8263ffffffff16612b4b336117b0565b1015612b9c5760405160e560020a62461bcd02815260206004820152601c60248201527f496e73756666696369656e7420746f6b656e7320746f2073656c6c2e000000006044820152606401610b16565b600080612ba885612854565b6099549193509150612bba9083612917565b609955612bcd3363ffffffff8716612fbd565b6040805163ffffffff871681526020810184905233917f84c8d08e5480cf09cbf77bc575dc4e63845522693c34094f04129a4dedb7abd7910160405180910390a2612c188282612917565b9350915050915091565b33600090815260a760205260409020541561127d5733600081815260a76020526040902060038101549091612c56906117b0565b11610cf857600381015463ffffffff831690811115612c76575060038101545b6000805b82811015612d2257600384018054612cd39190612c98906001612917565b81548110612cb95760e060020a634e487b7102600052603260045260246000fd5b90600052602060002001548361284190919063ffffffff16565b915083600301805480612cf95760e060020a634e487b7102600052603160045260246000fd5b600190038181906000526020600020016000905590558080612d1a90614540565b915050612c7a565b50600183015460a154845460a092600092612d4b92611c409164e8d4a51000916111e591612e38565b60a054909150612d5b9084612917565b60a0558015612e04576002850181905560a85460405160e060020a63a9059cbb028152600160a060020a039091169063a9059cbb90612da09033908590600401614004565b602060405180830381600087803b158015612dba57600080fd5b505af1158015612dce573d6000803e3d6000fd5b505050506040513d601f19601f82011682018060405250810190612df29190613e26565b5060a254612e009082612917565b60a2555b8454612e109084612917565b80865560a154612e2b9164e8d4a51000916111e59190612e38565b6001860155505050505050565b600061284d82846144a6565b600061284d8284614483565b801561127d57609e54612e639082612841565b609e5550565b6000808363ffffffff1611612ec35760405160e560020a62461bcd02815260206004820152600e60248201527f496e76616c696420416d6f756e740000000000000000000000000000000000006044820152606401610b16565b60408051606081018252600180825263ffffffff861660208084019190915282840186905233600090815260658252938420805480840182559085529320825160029094020180549293849391929091839160ff1990911690836003811115612f3f5760e060020a634e487b7102600052602160045260246000fd5b0217905550602082810151825463ffffffff9091166101000264ffffffff0019909116178255604092830151600192830155336000908152606590915291822054612f8a91906144c5565b90506000805160206145a2833981519152338284604051612fad9392919061401d565b60405180910390a1949350505050565b600160a060020a0382166130235760405160e560020a62461bcd02815260206004820152602160248201527f45524332303a206275726e2066726f6d20746865207a65726f20616464726573604482015260f860020a6073026064820152608401610b16565b600160a060020a0382166000908152603360205260409020548181101561309d5760405160e560020a62461bcd02815260206004820152602260248201527f45524332303a206275726e20616d6f756e7420657863656564732062616c616e604482015260f060020a616365026064820152608401610b16565b6130a782826144c5565b600160a060020a038416600090815260336020526040812091909155603580548492906130d59084906144c5565b9091555050604051828152600090600160a060020a038516906000805160206145e2833981519152906020016126bb565b6000808061312264fb750430006111e58664e8d4a51000612e38565b9050600061313e64e8d4a510006111e584640df8475800612e38565b609d54909150600090600160a060020a0316639f4ae6b061315d6138e7565b609954609b5463ffffffff9081169061317a908990899061291716565b60405163ffffffff86811660e060020a0282529485166004820152602481019390935292166044820152606481019190915260840160206040518083038186803b1580156131c757600080fd5b505afa1580156131db573d6000803e3d6000fd5b505050506040513d601f19601f820116820180604052508101906131ff9190613f88565b94509092505050915091565b600160a060020a0382166000908152606560205260408120805461324b9190849081106127085760e060020a634e487b7102600052603260045260246000fd5b1561326b5760405160e560020a62461bcd028152600401610b16906141d0565b600160a060020a0383166000908152606560205260409020805460029190849081106132aa5760e060020a634e487b7102600052603260045260246000fd5b60009182526020909120600290910201805460ff191660018360038111156132e55760e060020a634e487b7102600052602160045260246000fd5b02179055506000805160206145a283398151915283836065600087600160a060020a0316600160a060020a0316815260200190815260200160002085815481106133425760e060020a634e487b7102600052603260045260246000fd5b906000526020600020906002020160405161335f93929190614041565b60405180910390a1600160a060020a03831660009081526065602052604090208054839081106133a25760e060020a634e487b7102600052603260045260246000fd5b906000526020600020906002020160010154905092915050565b60a85460405160e060020a63a9059cbb028152600091600160a060020a03169063a9059cbb906133f29086908690600401614004565b602060405180830381600087803b15801561340c57600080fd5b505af1158015613420573d6000803e3d6000fd5b505050506040513d601f19601f820116820180604052508101906134449190613e26565b905080611bde5760405160e560020a62461bcd02815260206004820152601360248201527f726566756e6420746f6b656e206661696c6564000000000000000000000000006044820152606401610b16565b60008060008060006134a6611835565b63ffffffff16116134fc5760405160e560020a62461bcd02815260206004820152601e60248201527f536f7272792c207468697320746f6b656e20697320736f6c64206f75742e00006044820152606401610b16565b6000851161354f5760405160e560020a62461bcd02815260206004820152601960248201527f4465706f736974206d757374206265206e6f6e2d7a65726f2e000000000000006044820152606401610b16565b60008061355c6001613914565b915091508682111561357d57600087600080955095509550955050506135f4565b6135883360016139cb565b61359e6135958383612917565b60995490612841565b60995560408051600181526020810184905233917f5b55159a377d86da80a65140d62d994ddbb2cbd4bb2d1b59cb0827fecbe47cab910160405180910390a260016135e98884612917565b909650945090925090505b9193509193565b33600090815260a76020526040902080546136169083612841565b8155600381018054600181018255600091825260209091200182905560a154815461364b9164e8d4a51000916111e591612e38565b60019091015550565b600054610100900460ff168061366d575060005460ff16155b61368c5760405160e560020a62461bcd028152600401610b1690614275565b600054610100900460ff161580156136ae576000805461ffff19166101011790555b6136b6613a9b565b6136be613b08565b801561127d576000805461ff001916905550565b600054610100900460ff16806136eb575060005460ff16155b61370a5760405160e560020a62461bcd028152600401610b1690614275565b600054610100900460ff1615801561372c576000805461ffff19166101011790555b613734613a9b565b61373e8383613ba7565b8015611bde576000805461ff0019169055505050565b600054610100900460ff168061376d575060005460ff16155b61378c5760405160e560020a62461bcd028152600401610b1690614275565b600054610100900460ff161580156137ae576000805461ffff19166101011790555b60008463ffffffff16116138075760405160e560020a62461bcd02815260206004820152601860248201527f496e76616c6964206d617820746f6b656e20636f756e742e00000000000000006044820152606401610b16565b60008563ffffffff16116138605760405160e560020a62461bcd02815260206004820152601560248201527f496e76616c6964207265736572766520726174696f00000000000000000000006044820152606401610b16565b609d8054600160a060020a038816600160a060020a03199091161790556099829055609a829055609b805463ffffffff8681166401000000000267ffffffffffffffff19828816606060020a02166fffffffff00000000ffffffffffffffff19909316929092179088161717905580156120c2576000805461ff0019169055505050505050565b609b54600090610efc9063ffffffff606060020a8204811691610d5791604060020a909104168160355490565b609d5460009081908190600160a060020a031663bff82d846139346138e7565b609954609b5460405163ffffffff85811660e060020a02825261395f94939216908a9060040161441b565b60206040518083038186803b15801561397757600080fd5b505afa15801561398b573d6000803e3d6000fd5b505050506040513d601f19601f820116820180604052508101906139af9190613f32565b9050600061290b64e8d4a510006111e5846412a05f2000612e38565b600160a060020a038216613a245760405160e560020a62461bcd02815260206004820152601f60248201527f45524332303a206d696e7420746f20746865207a65726f2061646472657373006044820152606401610b16565b8060356000828254613a369190614443565b9091555050600160a060020a03821660009081526033602052604081208054839290613a63908490614443565b9091555050604051818152600160a060020a038316906000906000805160206145e28339815191529060200160405180910390a35050565b600054610100900460ff1680613ab4575060005460ff16155b613ad35760405160e560020a62461bcd028152600401610b1690614275565b600054610100900460ff161580156136be576000805461ffff1916610101179055801561127d576000805461ff001916905550565b600054610100900460ff1680613b21575060005460ff16155b613b405760405160e560020a62461bcd028152600401610b1690614275565b600054610100900460ff16158015613b62576000805461ffff19166101011790555b60668054600160a060020a0319163390811790915560405181906000906000805160206145c2833981519152908290a350801561127d576000805461ff001916905550565b600054610100900460ff1680613bc0575060005460ff16155b613bdf5760405160e560020a62461bcd028152600401610b1690614275565b600054610100900460ff16158015613c01576000805461ffff19166101011790555b8251613c14906036906020860190613c3f565b508151613c28906037906020850190613c3f565b508015611bde576000805461ff0019169055505050565b828054613c4b90614501565b90600052602060002090601f016020900481019282613c6d5760008555613cb3565b82601f10613c8657805160ff1916838001178555613cb3565b82800160010185558215613cb3579182015b82811115613cb3578251825591602001919060010190613c98565b50613cbf929150613cc3565b5090565b5b80821115613cbf5760008155600101613cc4565b8035600160a060020a0381168114610df857600080fd5b600082601f830112613cff578081fd5b813567ffffffffffffffff80821115613d1a57613d1a614575565b604051601f8301601f19908116603f01168101908282118183101715613d4257613d42614575565b81604052838152866020858801011115613d5a578485fd5b8360208701602083013792830160200193909352509392505050565b600060208284031215613d87578081fd5b61284d82613cd8565b60008060408385031215613da2578081fd5b613dab83613cd8565b9150613db960208401613cd8565b90509250929050565b600080600060608486031215613dd6578081fd5b613ddf84613cd8565b9250613ded60208501613cd8565b9150604084013590509250925092565b60008060408385031215613e0f578182fd5b613e1883613cd8565b946020939093013593505050565b600060208284031215613e37578081fd5b8151801515811461284d578182fd5b600060208284031215613e57578081fd5b81356004811061284d578182fd5b600080600080600080600060e0888a031215613e7f578283fd5b873567ffffffffffffffff80821115613e96578485fd5b613ea28b838c01613cef565b985060208a0135915080821115613eb7578485fd5b50613ec48a828b01613cef565b965050613ed360408901613cd8565b94506060880135613ee38161458f565b93506080880135613ef38161458f565b925060a0880135613f038161458f565b8092505060c0880135905092959891949750929550565b600060208284031215613f2b578081fd5b5035919050565b600060208284031215613f43578081fd5b5051919050565b60008060408385031215613f5c578182fd5b82359150613db960208401613cd8565b600060208284031215613f7d578081fd5b813561284d8161458f565b600060208284031215613f99578081fd5b815161284d8161458f565b60048110613fc65760e060020a634e487b710260009081526021600452602490fd5b9052565b613fd5828251613fa4565b60208181015163ffffffff1690830152604090810151910152565b600160a060020a0391909116815260200190565b600160a060020a03929092168252602082015260400190565b600160a060020a03841681526020810183905260a08101610e1a6040830184613fca565b600160a060020a038416815260208101839052815460a082019061406b6040840160ff8316613fa4565b63ffffffff61010082041660608401525060018301546080830152949350505050565b6020808252825182820181905260009190848201906040850190845b818110156140d0576140bd838551613fca565b92840192606092909201916001016140aa565b50909695505050505050565b60208101610c6f8284613fa4565b606081016140f88286613fa4565b63ffffffff93909316602082015260400152919050565b6000602080835283518082850152825b8181101561413b5785810183015185820160400152820161411f565b8181111561414c5783604083870101525b50601f01601f1916929092016040019392505050565b6020808252600f908201527f496e76616c696420616464726573730000000000000000000000000000000000604082015260600190565b6020808252600d908201527f496e76616c696420627579657200000000000000000000000000000000000000604082015260600190565b60208082526011908201527f616c726561647920636f6d706c65746564000000000000000000000000000000604082015260600190565b6020808252600e908201527f696e76616c696420616d6f756e74000000000000000000000000000000000000604082015260600190565b6020808252600f908201527f696e76616c696420616464726573730000000000000000000000000000000000604082015260600190565b6020808252602e908201527f496e697469616c697a61626c653a20636f6e747261637420697320616c72656160408201527f647920696e697469616c697a6564000000000000000000000000000000000000606082015260800190565b60208082526011908201527f7065726d697373696f6e2064656e696564000000000000000000000000000000604082015260600190565b6020808252818101527f4f776e61626c653a2063616c6c6572206973206e6f7420746865206f776e6572604082015260600190565b60208082526013908201527f756e61626c6520746f207472616465206e6f7700000000000000000000000000604082015260600190565b60208082526018908201527f416d6f756e74206d757374206265206e6f6e2d7a65726f2e0000000000000000604082015260600190565b6000602080835260a0830184518285015281850151604085015260408501516060850152606085015160808086015281815180845260c08701915084830193508592505b8083101561441057835182529284019260019290920191908401906143f0565b509695505050505050565b63ffffffff948516815260208101939093529083166040830152909116606082015260800190565b600082198211156144565761445661455b565b500190565b600063ffffffff80831681851680830382111561447a5761447a61455b565b01949350505050565b6000826144a15760e060020a634e487b710281526012600452602481fd5b500490565b60008160001904831182151516156144c0576144c061455b565b500290565b6000828210156144d7576144d761455b565b500390565b600063ffffffff838116908316818110156144f9576144f961455b565b039392505050565b60028104600182168061451557607f821691505b6020821081141561453a5760e060020a634e487b710260009081526022600452602490fd5b50919050565b60006000198214156145545761455461455b565b5060010190565b60e060020a634e487b710260009081526011600452602490fd5b60e060020a634e487b710260009081526041600452602490fd5b63ffffffff8116811461127d57600080fdfe09c64bee251b684a6bb80ce179dd520c001481b7c3d7781f1502e3052af474cf8be0079c531659141344cd1fd0a4f28419497f9722a3daafe3b4186f6b6457e0ddf252ad1be2c89b69c2b068fc378daa952ba7f163c4a11628f55a4df523b3efa2646970667358221220624839b3743ab23a1ac08500302c1344e6a2f5a549312b7470ce0b74779f090164736f6c63430008030033",
  "immutableReferences": {},
  "source": "pragma solidity ^0.8.2;\n\nimport \"@openzeppelin/contracts-upgradeable/token/ERC20/ERC20Upgradeable.sol\";\nimport \"@openzeppelin/contracts-upgradeable/utils/math/SafeMathUpgradeable.sol\";\n\nimport \"../ProductToken.sol\";\nimport \"../ProductTokenV1.sol\";\nimport \"../Power.sol\";\n\n\ncontract ProductTokenV2 is ProductTokenV1 {\n  uint256 public newAttribute;\n\n  function getNewAttribute()\n  public view returns (uint256)\n  {\n    return newAttribute + 1;\n  }\n\n  function getPriceForN(uint32 _amountProduct) \n  \tpublic view override returns(uint256 price)\n  {\n  \treturn bondingCurve.calculatePriceForNTokens(_getTotalSupply(), reserveBalance, reserveRatio+50000, _amountProduct);\n  }\n\n    function getAvailability()\n     public view override returns (uint32 available)\n  {\n    return maxTokenCount - uint32(totalSupply()) - tradeinCount+100;   \n  }\n\n} \n\ncontract ProductTokenV3 is ProductTokenV2 {\n    using SafeMathUpgradeable for uint256;\n    uint32 private constant MAX_RESERVE_RATIO = 2000000;\n\n    function initializeV3(string memory _name, string memory _symbol, uint32 _reserveRatio, uint32 _maxTokenCount, uint32 _supplyOffset, uint256 _baseReserve, uint256 _newInitValue, address _daiAddress, address _chainlink) public  initializer {\n    }\n}\n\ncontract ProductTokenDestroy {\n\n}\n\ncontract ProductTokenV4 is ProductTokenV2 {\n\n}\n\ncontract ProductTokenV5 is ProductTokenV3 {\n  uint256  public newInitValue;\n/**\n   * @dev Constructor\n   *\n   * @param _reserveRatio             the reserve ratio in the curve function\n   * @param _maxTokenCount\t\t\t\t\t\tthe amount of token that will exist for this type.\n   * @param _supplyOffset             a initial amount of offset that drive the price to a starting price\n   * @param _baseReserve              the reserve balance when supply is 0. This is calculated based on the balance function, and evaluated at s = _supplyOffset\n  */\n  function initializeV5(string memory _name, string memory _symbol, address _bondingCurveAddress, uint32 _reserveRatio, uint32 _maxTokenCount, uint32 _supplyOffset, uint256 _baseReserve, uint256 _newInitValue, address _daiAddress, address _chainlink) public  initializer {\t\t\n    __ERC20_init(_name, _symbol);\n    // ProductToken.__ProductToken_init_unchained(_bondingCurveAddress, _reserveRatio, _maxTokenCount, _supplyOffset, _baseReserve);\n    // ProductTokenV1.__ProductToken_init_unchained(_daiAddress, _chainlink);\n    newInitValue= _newInitValue;\n  }\n  function getNewInitValue() public view returns(uint256){\n    return newInitValue;\n  }\n}\n",
  "sourcePath": "/Users/jack/Documents/GitHub/HighStreet/client/src/contracts/Mock/ProductTokenV2.sol",
  "compiler": {
    "name": "solc",
    "version": "0.8.3+commit.8d00100c.Emscripten.clang"
  },
  "schemaVersion": "3.4.0",
  "updatedAt": "2021-09-26T08:29:11.714Z",
  "devdoc": {
    "kind": "dev",
    "methods": {
      "allowance(address,address)": {
        "details": "See {IERC20-allowance}."
      },
      "approve(address,uint256)": {
        "details": "See {IERC20-approve}. Requirements: - `spender` cannot be the zero address."
      },
      "balanceOf(address)": {
        "details": "See {IERC20-balanceOf}."
      },
      "calculateBuyReturn(uint256)": {
        "details": "Function that computes number of product tokens one can buy given an amount in reserve token.",
        "params": {
          "_amountReserve": "purchaing amount in reserve token (dai)(with 4% platform fee)"
        },
        "returns": {
          "mintAmount": "             number of tokens in traded token that can be purchased by given amount."
        }
      },
      "calculateSellReturn(uint32)": {
        "details": "Function that computes selling price in reserve tokens given an amount in traded token.",
        "params": {
          "_amountProduct": "selling amount in product token"
        },
        "returns": {
          "soldAmount": "             total amount that will be transferred to the seller (with 2% platform fee)."
        }
      },
      "decimals()": {
        "details": "Returns the number of decimals used to get its user representation. For example, if `decimals` equals `2`, a balance of `505` tokens should be displayed to a user as `5,05` (`505 / 10 ** 2`). Tokens usually opt for a value of 18, imitating the relationship between Ether and Wei. This is the value {ERC20} uses, unless this function is overloaded; NOTE: This information is only used for _display_ purposes: it in no way affects any of the arithmetic of the contract, including {IERC20-balanceOf} and {IERC20-transfer}."
      },
      "decreaseAllowance(address,uint256)": {
        "details": "Atomically decreases the allowance granted to `spender` by the caller. This is an alternative to {approve} that can be used as a mitigation for problems described in {IERC20-approve}. Emits an {Approval} event indicating the updated allowance. Requirements: - `spender` cannot be the zero address. - `spender` must have allowance for the caller of at least `subtractedValue`."
      },
      "getAvailability()": {
        "details": "Function to check how many tokens of this product are currently available for purchase, by taking the difference between max cap count and current token in circulation or burned.",
        "returns": {
          "available": "               the number of tokens available"
        }
      },
      "getCurrentPrice()": {
        "details": "Function that computes current price for a token through bonding curve calculation based on parameters such as total supply, reserve balance, and reserve ratio.",
        "returns": {
          "price": "                  current price in reserve token (in our case, this is dai). (with 4% platform fee)"
        }
      },
      "getEscrowHistory(address)": {
        "details": "Return the list of all escrows created for a certain user",
        "params": {
          "_buyer": "The address of the buyer"
        },
        "returns": {
          "_0": "A list of past escrows"
        }
      },
      "getPriceForN(uint32)": {
        "details": "Function that computes price total for buying n token through bonding curve calculation based on parameters such as total supply, reserve balance, and reserve ratio.",
        "params": {
          "_amountProduct": "token amount in traded token"
        },
        "returns": {
          "price": "                  total price in reserve token (in our case, this is dai). (with 4% platform fee)"
        }
      },
      "getRedeemStatus(address,uint256)": {
        "details": "Get status of a particular redemption process",
        "params": {
          "_buyer": "The address of the buyer",
          "_id": "The cached id of the escrow, retrieved from database"
        },
        "returns": {
          "_0": "The current status"
        }
      },
      "getSupplierBalance()": {
        "details": "this function returns the amount of reserve balance that the supplier can withdraw from the dapp."
      },
      "increaseAllowance(address,uint256)": {
        "details": "Atomically increases the allowance granted to `spender` by the caller. This is an alternative to {approve} that can be used as a mitigation for problems described in {IERC20-approve}. Emits an {Approval} event indicating the updated allowance. Requirements: - `spender` cannot be the zero address."
      },
      "initialize(string,string,address,uint32,uint32,uint32,uint256)": {
        "details": "initializer function.",
        "params": {
          "_baseReserve": "the base amount of reserve tokens, in accordance to _supplyOffset.",
          "_maxTokenCount": "the amount of token that will exist for this type.",
          "_name": "the name of this token",
          "_reserveRatio": "the reserve ratio in the curve function. Number in parts per million",
          "_supplyOffset": "this amount is used to determine initial price.",
          "_symbol": "the symbol of this token"
        }
      },
      "isStateCompleted(uint8)": {
        "details": "Helper function to check whether a escrow state is completed",
        "params": {
          "_state": "The state to be checked"
        }
      },
      "launch()": {
        "details": "requires function to be called from owner. this enables customers to buy, sell, or redeem the product."
      },
      "name()": {
        "details": "Returns the name of the token."
      },
      "owner()": {
        "details": "Returns the address of the current owner."
      },
      "pause()": {
        "details": "requires function to be called from owner. this prevents customers from buying, selling, or redeeming the product."
      },
      "renounceOwnership()": {
        "details": "Leaves the contract without owner. It will not be possible to call `onlyOwner` functions anymore. Can only be called by the current owner. NOTE: Renouncing ownership will leave the contract without an owner, thereby removing any functionality that is only available to the owner."
      },
      "setBondingCurve(address)": {
        "details": "requires function to be called from owner. sets a bonding curve implementation for this product.",
        "params": {
          "_address": "the address of the bonding curve implementation"
        }
      },
      "symbol()": {
        "details": "Returns the symbol of the token, usually a shorter version of the name."
      },
      "totalSupply()": {
        "details": "See {IERC20-totalSupply}."
      },
      "tradein(uint32)": {
        "details": "When user wants to trade in their token for retail product",
        "params": {
          "amount_": "amount of tokens that user wants to trade in."
        }
      },
      "transfer(address,uint256)": {
        "details": "See {IERC20-transfer}. Requirements: - `recipient` cannot be the zero address. - the caller must have a balance of at least `amount`."
      },
      "transferFrom(address,address,uint256)": {
        "details": "See {IERC20-transferFrom}. Emits an {Approval} event indicating the updated allowance. This is not required by the EIP. See the note at the beginning of {ERC20}. Requirements: - `sender` and `recipient` cannot be the zero address. - `sender` must have a balance of at least `amount`. - the caller must have allowance for ``sender``'s tokens of at least `amount`."
      },
      "transferOwnership(address)": {
        "details": "Transfers ownership of the contract to a new account (`newOwner`). Can only be called by the current owner."
      },
      "updateUserCompleted(address,uint256)": {
        "details": "used to update the status of redemption to \"User Complete\" after an escrow process has been started.",
        "params": {
          "buyer": "the wallet address of product buyer",
          "id": "the id of the escrow, returned to the user after starting of redemption process"
        }
      },
      "updateUserRefund(address,uint256)": {
        "details": "used to update the status of redemption to \"User Refunded\" after an escrow process has been started.",
        "params": {
          "buyer": "the wallet address of product buyer",
          "id": "the id of the escrow, returned to the user after starting of redemption process"
        }
      },
      "withdrawEther(uint256)": {
        "details": "A method allow us to withdraw liquidity (eth) from the contract Since eth is not used as a return currency, we need to withdraw eth from the system.",
        "params": {
          "value_": "the value of ether"
        }
      }
    },
    "version": 1
  },
  "userdoc": {
    "kind": "user",
    "methods": {},
    "version": 1
  }
}