{
  "contractName": "ProductTokenV3",
  "abi": [
    {
      "anonymous": false,
      "inputs": [
        {
          "indexed": true,
          "internalType": "address",
          "name": "owner",
          "type": "address"
        },
        {
          "indexed": true,
          "internalType": "address",
          "name": "spender",
          "type": "address"
        },
        {
          "indexed": false,
          "internalType": "uint256",
          "name": "value",
          "type": "uint256"
        }
      ],
      "name": "Approval",
      "type": "event"
    },
    {
      "anonymous": false,
      "inputs": [
        {
          "indexed": true,
          "internalType": "address",
          "name": "sender",
          "type": "address"
        },
        {
          "indexed": false,
          "internalType": "uint32",
          "name": "amount",
          "type": "uint32"
        },
        {
          "indexed": false,
          "internalType": "uint256",
          "name": "deposit",
          "type": "uint256"
        }
      ],
      "name": "Buy",
      "type": "event"
    },
    {
      "anonymous": false,
      "inputs": [
        {
          "indexed": true,
          "internalType": "address",
          "name": "previousOwner",
          "type": "address"
        },
        {
          "indexed": true,
          "internalType": "address",
          "name": "newOwner",
          "type": "address"
        }
      ],
      "name": "OwnershipTransferred",
      "type": "event"
    },
    {
      "anonymous": false,
      "inputs": [
        {
          "indexed": true,
          "internalType": "address",
          "name": "sender",
          "type": "address"
        },
        {
          "indexed": false,
          "internalType": "uint32",
          "name": "amount",
          "type": "uint32"
        },
        {
          "indexed": false,
          "internalType": "uint256",
          "name": "refund",
          "type": "uint256"
        }
      ],
      "name": "Sell",
      "type": "event"
    },
    {
      "anonymous": false,
      "inputs": [
        {
          "indexed": false,
          "internalType": "bool",
          "name": "isTradable",
          "type": "bool"
        }
      ],
      "name": "Tradable",
      "type": "event"
    },
    {
      "anonymous": false,
      "inputs": [
        {
          "indexed": true,
          "internalType": "address",
          "name": "sender",
          "type": "address"
        },
        {
          "indexed": false,
          "internalType": "uint32",
          "name": "amount",
          "type": "uint32"
        }
      ],
      "name": "Tradein",
      "type": "event"
    },
    {
      "anonymous": false,
      "inputs": [
        {
          "indexed": true,
          "internalType": "address",
          "name": "from",
          "type": "address"
        },
        {
          "indexed": true,
          "internalType": "address",
          "name": "to",
          "type": "address"
        },
        {
          "indexed": false,
          "internalType": "uint256",
          "name": "value",
          "type": "uint256"
        }
      ],
      "name": "Transfer",
      "type": "event"
    },
    {
      "anonymous": false,
      "inputs": [
        {
          "indexed": false,
          "internalType": "address",
          "name": "daiAddress",
          "type": "address"
        },
        {
          "indexed": false,
          "internalType": "address",
          "name": "chainlinkAddress",
          "type": "address"
        }
      ],
      "name": "Update",
      "type": "event"
    },
    {
      "anonymous": false,
      "inputs": [
        {
          "indexed": false,
          "internalType": "address",
          "name": "daiAddress",
          "type": "address"
        },
        {
          "indexed": false,
          "internalType": "address",
          "name": "chainlinkAddress",
          "type": "address"
        }
      ],
      "name": "UpdateHsToken",
      "type": "event"
    },
    {
      "anonymous": false,
      "inputs": [
        {
          "indexed": false,
          "internalType": "address",
          "name": "",
          "type": "address"
        },
        {
          "indexed": false,
          "internalType": "uint256",
          "name": "",
          "type": "uint256"
        },
        {
          "components": [
            {
              "internalType": "enum Escrow.escrowState",
              "name": "state",
              "type": "uint8"
            },
            {
              "internalType": "uint32",
              "name": "amount",
              "type": "uint32"
            },
            {
              "internalType": "uint256",
              "name": "value",
              "type": "uint256"
            }
          ],
          "indexed": false,
          "internalType": "struct Escrow.escrowInfo",
          "name": "",
          "type": "tuple"
        }
      ],
      "name": "escrowStateUpdated",
      "type": "event"
    },
    {
      "stateMutability": "nonpayable",
      "type": "fallback"
    },
    {
      "inputs": [],
      "name": "INDEX_DAI",
      "outputs": [
        {
          "internalType": "uint256",
          "name": "",
          "type": "uint256"
        }
      ],
      "stateMutability": "view",
      "type": "function"
    },
    {
      "inputs": [],
      "name": "INDEX_ETH",
      "outputs": [
        {
          "internalType": "uint256",
          "name": "",
          "type": "uint256"
        }
      ],
      "stateMutability": "view",
      "type": "function"
    },
    {
      "inputs": [],
      "name": "INDEX_HIGH",
      "outputs": [
        {
          "internalType": "uint256",
          "name": "",
          "type": "uint256"
        }
      ],
      "stateMutability": "view",
      "type": "function"
    },
    {
      "inputs": [
        {
          "internalType": "uint32",
          "name": "_amountProduct",
          "type": "uint32"
        }
      ],
      "name": "_getPriceForN",
      "outputs": [
        {
          "internalType": "uint256",
          "name": "price",
          "type": "uint256"
        },
        {
          "internalType": "uint256",
          "name": "fee",
          "type": "uint256"
        }
      ],
      "stateMutability": "view",
      "type": "function"
    },
    {
      "inputs": [
        {
          "internalType": "address",
          "name": "owner",
          "type": "address"
        },
        {
          "internalType": "address",
          "name": "spender",
          "type": "address"
        }
      ],
      "name": "allowance",
      "outputs": [
        {
          "internalType": "uint256",
          "name": "",
          "type": "uint256"
        }
      ],
      "stateMutability": "view",
      "type": "function"
    },
    {
      "inputs": [
        {
          "internalType": "address",
          "name": "spender",
          "type": "address"
        },
        {
          "internalType": "uint256",
          "name": "amount",
          "type": "uint256"
        }
      ],
      "name": "approve",
      "outputs": [
        {
          "internalType": "bool",
          "name": "",
          "type": "bool"
        }
      ],
      "stateMutability": "nonpayable",
      "type": "function"
    },
    {
      "inputs": [
        {
          "internalType": "address",
          "name": "account",
          "type": "address"
        }
      ],
      "name": "balanceOf",
      "outputs": [
        {
          "internalType": "uint256",
          "name": "",
          "type": "uint256"
        }
      ],
      "stateMutability": "view",
      "type": "function"
    },
    {
      "inputs": [
        {
          "internalType": "uint256",
          "name": "ids_",
          "type": "uint256"
        },
        {
          "internalType": "uint256",
          "name": "maxPrice_",
          "type": "uint256"
        }
      ],
      "name": "buyERC20",
      "outputs": [],
      "stateMutability": "nonpayable",
      "type": "function"
    },
    {
      "inputs": [],
      "name": "buyETH",
      "outputs": [],
      "stateMutability": "payable",
      "type": "function"
    },
    {
      "inputs": [
        {
          "internalType": "uint256",
          "name": "_amountReserve",
          "type": "uint256"
        }
      ],
      "name": "calculateBuyReturn",
      "outputs": [
        {
          "internalType": "uint32",
          "name": "mintAmount",
          "type": "uint32"
        }
      ],
      "stateMutability": "view",
      "type": "function"
    },
    {
      "inputs": [
        {
          "internalType": "uint32",
          "name": "_amountProduct",
          "type": "uint32"
        }
      ],
      "name": "calculateSellReturn",
      "outputs": [
        {
          "internalType": "uint256",
          "name": "soldAmount",
          "type": "uint256"
        }
      ],
      "stateMutability": "view",
      "type": "function"
    },
    {
      "inputs": [
        {
          "internalType": "uint32",
          "name": "_amount",
          "type": "uint32"
        }
      ],
      "name": "calculateTradinReturn",
      "outputs": [
        {
          "internalType": "uint256",
          "name": "",
          "type": "uint256"
        }
      ],
      "stateMutability": "view",
      "type": "function"
    },
    {
      "inputs": [
        {
          "internalType": "uint256",
          "name": "amount_",
          "type": "uint256"
        }
      ],
      "name": "claimSupplier",
      "outputs": [],
      "stateMutability": "nonpayable",
      "type": "function"
    },
    {
      "inputs": [],
      "name": "decimals",
      "outputs": [
        {
          "internalType": "uint8",
          "name": "",
          "type": "uint8"
        }
      ],
      "stateMutability": "view",
      "type": "function"
    },
    {
      "inputs": [
        {
          "internalType": "address",
          "name": "spender",
          "type": "address"
        },
        {
          "internalType": "uint256",
          "name": "subtractedValue",
          "type": "uint256"
        }
      ],
      "name": "decreaseAllowance",
      "outputs": [
        {
          "internalType": "bool",
          "name": "",
          "type": "bool"
        }
      ],
      "stateMutability": "nonpayable",
      "type": "function"
    },
    {
      "inputs": [
        {
          "internalType": "address",
          "name": "",
          "type": "address"
        },
        {
          "internalType": "uint256",
          "name": "",
          "type": "uint256"
        }
      ],
      "name": "escrowList",
      "outputs": [
        {
          "internalType": "enum Escrow.escrowState",
          "name": "state",
          "type": "uint8"
        },
        {
          "internalType": "uint32",
          "name": "amount",
          "type": "uint32"
        },
        {
          "internalType": "uint256",
          "name": "value",
          "type": "uint256"
        }
      ],
      "stateMutability": "view",
      "type": "function"
    },
    {
      "inputs": [],
      "name": "getAvailability",
      "outputs": [
        {
          "internalType": "uint32",
          "name": "available",
          "type": "uint32"
        }
      ],
      "stateMutability": "view",
      "type": "function"
    },
    {
      "inputs": [],
      "name": "getCurrentPrice",
      "outputs": [
        {
          "internalType": "uint256",
          "name": "price",
          "type": "uint256"
        }
      ],
      "stateMutability": "view",
      "type": "function"
    },
    {
      "inputs": [
        {
          "internalType": "uint256",
          "name": "ids_",
          "type": "uint256"
        }
      ],
      "name": "getCurrentPriceByIds",
      "outputs": [
        {
          "internalType": "uint256",
          "name": "",
          "type": "uint256"
        }
      ],
      "stateMutability": "view",
      "type": "function"
    },
    {
      "inputs": [
        {
          "internalType": "address",
          "name": "_buyer",
          "type": "address"
        }
      ],
      "name": "getEscrowHistory",
      "outputs": [
        {
          "components": [
            {
              "internalType": "enum Escrow.escrowState",
              "name": "state",
              "type": "uint8"
            },
            {
              "internalType": "uint32",
              "name": "amount",
              "type": "uint32"
            },
            {
              "internalType": "uint256",
              "name": "value",
              "type": "uint256"
            }
          ],
          "internalType": "struct Escrow.escrowInfo[]",
          "name": "",
          "type": "tuple[]"
        }
      ],
      "stateMutability": "view",
      "type": "function"
    },
    {
      "inputs": [],
      "name": "getManager",
      "outputs": [
        {
          "internalType": "address",
          "name": "",
          "type": "address"
        }
      ],
      "stateMutability": "view",
      "type": "function"
    },
    {
      "inputs": [],
      "name": "getNewAttribute",
      "outputs": [
        {
          "internalType": "uint256",
          "name": "",
          "type": "uint256"
        }
      ],
      "stateMutability": "view",
      "type": "function"
    },
    {
      "inputs": [],
      "name": "getPoolInfo",
      "outputs": [
        {
          "components": [
            {
              "internalType": "uint256",
              "name": "amount",
              "type": "uint256"
            },
            {
              "internalType": "uint256",
              "name": "accRewardPerShare",
              "type": "uint256"
            },
            {
              "internalType": "uint256",
              "name": "tokenReward",
              "type": "uint256"
            }
          ],
          "internalType": "struct ProductTokenV1.PoolInfo",
          "name": "",
          "type": "tuple"
        }
      ],
      "stateMutability": "view",
      "type": "function"
    },
    {
      "inputs": [
        {
          "internalType": "uint32",
          "name": "_amountProduct",
          "type": "uint32"
        }
      ],
      "name": "getPriceForN",
      "outputs": [
        {
          "internalType": "uint256",
          "name": "price",
          "type": "uint256"
        }
      ],
      "stateMutability": "view",
      "type": "function"
    },
    {
      "inputs": [
        {
          "internalType": "address",
          "name": "_buyer",
          "type": "address"
        },
        {
          "internalType": "uint256",
          "name": "_id",
          "type": "uint256"
        }
      ],
      "name": "getRedeemStatus",
      "outputs": [
        {
          "internalType": "enum Escrow.escrowState",
          "name": "",
          "type": "uint8"
        }
      ],
      "stateMutability": "view",
      "type": "function"
    },
    {
      "inputs": [],
      "name": "getSupplierBalance",
      "outputs": [
        {
          "internalType": "uint256",
          "name": "",
          "type": "uint256"
        }
      ],
      "stateMutability": "view",
      "type": "function"
    },
    {
      "inputs": [],
      "name": "getSupplierInfo",
      "outputs": [
        {
          "components": [
            {
              "internalType": "uint256",
              "name": "amount",
              "type": "uint256"
            },
            {
              "internalType": "address",
              "name": "wallet",
              "type": "address"
            }
          ],
          "internalType": "struct ProductTokenV1.supplierInfo",
          "name": "",
          "type": "tuple"
        }
      ],
      "stateMutability": "view",
      "type": "function"
    },
    {
      "inputs": [
        {
          "internalType": "address",
          "name": "addr_",
          "type": "address"
        }
      ],
      "name": "getUserInfo",
      "outputs": [
        {
          "components": [
            {
              "internalType": "uint256",
              "name": "amount",
              "type": "uint256"
            },
            {
              "internalType": "uint256",
              "name": "rewardDebt",
              "type": "uint256"
            },
            {
              "internalType": "uint256[]",
              "name": "records",
              "type": "uint256[]"
            }
          ],
          "internalType": "struct ProductTokenV1.UserInfo",
          "name": "",
          "type": "tuple"
        }
      ],
      "stateMutability": "view",
      "type": "function"
    },
    {
      "inputs": [
        {
          "internalType": "address",
          "name": "addr_",
          "type": "address"
        }
      ],
      "name": "getUserReward",
      "outputs": [
        {
          "internalType": "uint256",
          "name": "",
          "type": "uint256"
        }
      ],
      "stateMutability": "nonpayable",
      "type": "function"
    },
    {
      "inputs": [
        {
          "internalType": "address",
          "name": "spender",
          "type": "address"
        },
        {
          "internalType": "uint256",
          "name": "addedValue",
          "type": "uint256"
        }
      ],
      "name": "increaseAllowance",
      "outputs": [
        {
          "internalType": "bool",
          "name": "",
          "type": "bool"
        }
      ],
      "stateMutability": "nonpayable",
      "type": "function"
    },
    {
      "inputs": [
        {
          "internalType": "string",
          "name": "_name",
          "type": "string"
        },
        {
          "internalType": "string",
          "name": "_symbol",
          "type": "string"
        },
        {
          "internalType": "address",
          "name": "_bondingCurveAddress",
          "type": "address"
        },
        {
          "internalType": "uint32",
          "name": "_reserveRatio",
          "type": "uint32"
        },
        {
          "internalType": "uint32",
          "name": "_maxTokenCount",
          "type": "uint32"
        },
        {
          "internalType": "uint32",
          "name": "_supplyOffset",
          "type": "uint32"
        },
        {
          "internalType": "uint256",
          "name": "_baseReserve",
          "type": "uint256"
        }
      ],
      "name": "initialize",
      "outputs": [],
      "stateMutability": "nonpayable",
      "type": "function"
    },
    {
      "inputs": [
        {
          "internalType": "enum Escrow.escrowState",
          "name": "_state",
          "type": "uint8"
        }
      ],
      "name": "isStateCompleted",
      "outputs": [
        {
          "internalType": "bool",
          "name": "",
          "type": "bool"
        }
      ],
      "stateMutability": "pure",
      "type": "function"
    },
    {
      "inputs": [],
      "name": "launch",
      "outputs": [],
      "stateMutability": "nonpayable",
      "type": "function"
    },
    {
      "inputs": [],
      "name": "maxTokenCount",
      "outputs": [
        {
          "internalType": "uint32",
          "name": "",
          "type": "uint32"
        }
      ],
      "stateMutability": "view",
      "type": "function"
    },
    {
      "inputs": [],
      "name": "name",
      "outputs": [
        {
          "internalType": "string",
          "name": "",
          "type": "string"
        }
      ],
      "stateMutability": "view",
      "type": "function"
    },
    {
      "inputs": [],
      "name": "newAttribute",
      "outputs": [
        {
          "internalType": "uint256",
          "name": "",
          "type": "uint256"
        }
      ],
      "stateMutability": "view",
      "type": "function"
    },
    {
      "inputs": [],
      "name": "owner",
      "outputs": [
        {
          "internalType": "address",
          "name": "",
          "type": "address"
        }
      ],
      "stateMutability": "view",
      "type": "function"
    },
    {
      "inputs": [],
      "name": "pause",
      "outputs": [],
      "stateMutability": "nonpayable",
      "type": "function"
    },
    {
      "inputs": [],
      "name": "poolInfo",
      "outputs": [
        {
          "internalType": "uint256",
          "name": "amount",
          "type": "uint256"
        },
        {
          "internalType": "uint256",
          "name": "accRewardPerShare",
          "type": "uint256"
        },
        {
          "internalType": "uint256",
          "name": "tokenReward",
          "type": "uint256"
        }
      ],
      "stateMutability": "view",
      "type": "function"
    },
    {
      "inputs": [],
      "name": "renounceOwnership",
      "outputs": [],
      "stateMutability": "nonpayable",
      "type": "function"
    },
    {
      "inputs": [],
      "name": "reserveBalance",
      "outputs": [
        {
          "internalType": "uint256",
          "name": "",
          "type": "uint256"
        }
      ],
      "stateMutability": "view",
      "type": "function"
    },
    {
      "inputs": [],
      "name": "reserveRatio",
      "outputs": [
        {
          "internalType": "uint32",
          "name": "",
          "type": "uint32"
        }
      ],
      "stateMutability": "view",
      "type": "function"
    },
    {
      "inputs": [
        {
          "internalType": "uint32",
          "name": "amount_",
          "type": "uint32"
        },
        {
          "internalType": "bool",
          "name": "isHarvest_",
          "type": "bool"
        }
      ],
      "name": "sell",
      "outputs": [],
      "stateMutability": "nonpayable",
      "type": "function"
    },
    {
      "inputs": [
        {
          "internalType": "address",
          "name": "_address",
          "type": "address"
        }
      ],
      "name": "setBondingCurve",
      "outputs": [],
      "stateMutability": "nonpayable",
      "type": "function"
    },
    {
      "inputs": [
        {
          "internalType": "address",
          "name": "addr_",
          "type": "address"
        }
      ],
      "name": "setManager",
      "outputs": [],
      "stateMutability": "nonpayable",
      "type": "function"
    },
    {
      "inputs": [
        {
          "internalType": "address",
          "name": "addr_",
          "type": "address"
        }
      ],
      "name": "setupTokenUtils",
      "outputs": [],
      "stateMutability": "nonpayable",
      "type": "function"
    },
    {
      "inputs": [],
      "name": "supplier",
      "outputs": [
        {
          "internalType": "uint256",
          "name": "amount",
          "type": "uint256"
        },
        {
          "internalType": "address",
          "name": "wallet",
          "type": "address"
        }
      ],
      "stateMutability": "view",
      "type": "function"
    },
    {
      "inputs": [],
      "name": "symbol",
      "outputs": [
        {
          "internalType": "string",
          "name": "",
          "type": "string"
        }
      ],
      "stateMutability": "view",
      "type": "function"
    },
    {
      "inputs": [],
      "name": "totalSupply",
      "outputs": [
        {
          "internalType": "uint256",
          "name": "",
          "type": "uint256"
        }
      ],
      "stateMutability": "view",
      "type": "function"
    },
    {
      "inputs": [
        {
          "internalType": "uint32",
          "name": "amount_",
          "type": "uint32"
        },
        {
          "internalType": "bool",
          "name": "isHarvest_",
          "type": "bool"
        }
      ],
      "name": "tradein",
      "outputs": [],
      "stateMutability": "nonpayable",
      "type": "function"
    },
    {
      "inputs": [],
      "name": "tradeinCount",
      "outputs": [
        {
          "internalType": "uint32",
          "name": "",
          "type": "uint32"
        }
      ],
      "stateMutability": "view",
      "type": "function"
    },
    {
      "inputs": [],
      "name": "tradeinReserveBalance",
      "outputs": [
        {
          "internalType": "uint256",
          "name": "",
          "type": "uint256"
        }
      ],
      "stateMutability": "view",
      "type": "function"
    },
    {
      "inputs": [
        {
          "internalType": "address",
          "name": "recipient",
          "type": "address"
        },
        {
          "internalType": "uint256",
          "name": "amount",
          "type": "uint256"
        }
      ],
      "name": "transfer",
      "outputs": [
        {
          "internalType": "bool",
          "name": "",
          "type": "bool"
        }
      ],
      "stateMutability": "nonpayable",
      "type": "function"
    },
    {
      "inputs": [
        {
          "internalType": "address",
          "name": "sender",
          "type": "address"
        },
        {
          "internalType": "address",
          "name": "recipient",
          "type": "address"
        },
        {
          "internalType": "uint256",
          "name": "amount",
          "type": "uint256"
        }
      ],
      "name": "transferFrom",
      "outputs": [
        {
          "internalType": "bool",
          "name": "",
          "type": "bool"
        }
      ],
      "stateMutability": "nonpayable",
      "type": "function"
    },
    {
      "inputs": [
        {
          "internalType": "address",
          "name": "newOwner",
          "type": "address"
        }
      ],
      "name": "transferOwnership",
      "outputs": [],
      "stateMutability": "nonpayable",
      "type": "function"
    },
    {
      "inputs": [],
      "name": "updatePool",
      "outputs": [],
      "stateMutability": "nonpayable",
      "type": "function"
    },
    {
      "inputs": [
        {
          "internalType": "address",
          "name": "wallet_",
          "type": "address"
        }
      ],
      "name": "updateSupplierInfo",
      "outputs": [],
      "stateMutability": "nonpayable",
      "type": "function"
    },
    {
      "inputs": [
        {
          "internalType": "address",
          "name": "buyer",
          "type": "address"
        },
        {
          "internalType": "uint256",
          "name": "id",
          "type": "uint256"
        }
      ],
      "name": "updateUserCompleted",
      "outputs": [],
      "stateMutability": "nonpayable",
      "type": "function"
    },
    {
      "inputs": [
        {
          "internalType": "address",
          "name": "buyer",
          "type": "address"
        },
        {
          "internalType": "uint256",
          "name": "id",
          "type": "uint256"
        }
      ],
      "name": "updateUserRefund",
      "outputs": [],
      "stateMutability": "nonpayable",
      "type": "function"
    },
    {
      "inputs": [
        {
          "internalType": "address",
          "name": "",
          "type": "address"
        }
      ],
      "name": "userInfo",
      "outputs": [
        {
          "internalType": "uint256",
          "name": "amount",
          "type": "uint256"
        },
        {
          "internalType": "uint256",
          "name": "rewardDebt",
          "type": "uint256"
        }
      ],
      "stateMutability": "view",
      "type": "function"
    },
    {
      "inputs": [],
      "name": "voucher",
      "outputs": [
        {
          "internalType": "address",
          "name": "addr",
          "type": "address"
        },
        {
          "internalType": "contract IVNFT",
          "name": "instance",
          "type": "address"
        },
        {
          "internalType": "uint256",
          "name": "tokenId",
          "type": "uint256"
        },
        {
          "internalType": "bool",
          "name": "isEnable",
          "type": "bool"
        }
      ],
      "stateMutability": "view",
      "type": "function"
    },
    {
      "inputs": [
        {
          "internalType": "uint256",
          "name": "ids_",
          "type": "uint256"
        },
        {
          "internalType": "uint256",
          "name": "amount_",
          "type": "uint256"
        },
        {
          "internalType": "address",
          "name": "to_",
          "type": "address"
        }
      ],
      "name": "withdrawERC20",
      "outputs": [],
      "stateMutability": "nonpayable",
      "type": "function"
    },
    {
      "inputs": [
        {
          "internalType": "uint256",
          "name": "value_",
          "type": "uint256"
        }
      ],
      "name": "withdrawEther",
      "outputs": [],
      "stateMutability": "payable",
      "type": "function"
    },
    {
      "inputs": [
        {
          "internalType": "string",
          "name": "_name",
          "type": "string"
        },
        {
          "internalType": "string",
          "name": "_symbol",
          "type": "string"
        },
        {
          "internalType": "uint32",
          "name": "_reserveRatio",
          "type": "uint32"
        },
        {
          "internalType": "uint32",
          "name": "_maxTokenCount",
          "type": "uint32"
        },
        {
          "internalType": "uint32",
          "name": "_supplyOffset",
          "type": "uint32"
        },
        {
          "internalType": "uint256",
          "name": "_baseReserve",
          "type": "uint256"
        },
        {
          "internalType": "uint256",
          "name": "_newInitValue",
          "type": "uint256"
        },
        {
          "internalType": "address",
          "name": "_daiAddress",
          "type": "address"
        },
        {
          "internalType": "address",
          "name": "_chainlink",
          "type": "address"
        }
      ],
      "name": "initializeV3",
      "outputs": [],
      "stateMutability": "nonpayable",
      "type": "function"
    }
  ],
  "bytecode": "0x608060405234801561001057600080fd5b506156eb80620000216000396000f3fe6080604052600436106103475760003560e060020a900480637a53e040116101b6578063c660796a116100f1578063deebbef111610094578063deebbef114610b52578063e3161ddd14610b72578063e67dc51814610b87578063eb91d37e14610b9d578063efea8a1314610bb2578063f2fde38b14610bd2578063f97511d314610bf2578063fba7d65014610c1257610347565b8063c660796a146109e2578063c757d4c714610a02578063c75ebb8214610a22578063cdda418c14610a42578063d0ebdbe714610aa1578063d500958414610ac1578063dd304b1a14610adf578063dd62ed3e14610b0c57610347565b8063a457c2d711610159578063a457c2d7146108e4578063a9059cbb14610904578063aa4985cc14610924578063af22803e14610939578063b36e6dca14610959578063ba7a93b614610979578063c2a792571461099d578063c4e627c2146109bd57610347565b80637a53e04014610809578063828f3a9c1461081e5780638456cb591461083e5780638da5cb5b1461085357806395d89b4114610875578063964a6afe1461088a5780639b9ffbf31461089f578063a10954fe146108ce57610347565b806343ff1fb8116102865780636386c1c7116102295780636386c1c7146106c357806363cc0668146106f05780636e74607b146107105780636fed69741461073d57806370a082311461075d578063715018a61461077d57806374a218721461079257806374a7b012146107a757610347565b806343ff1fb8146105a7578063483335a1146105c7578063491052cd146105dd5780634b9abc26146105fd5780635a2f3d09146106125780635c8ea0931461064c5780635e88752c1461066c57806360246c881461068c57610347565b80631b892eb3116102ee5780631b892eb3146104a2578063224e4f48146104c257806323b872dd146104e25780632f0a3fe414610502578063313ce5671461051757806336da44681461053357806339509351146105745780633bed33ce1461059457610347565b806301339c211461035657806306fdde031461036d578063095ea7b3146103985780630c7d5cd8146103c85780630ccee99b146103fa57806318160ddd1461041a5780631959a0021461043957806319d5b58714610482575b34801561035357600080fd5b50005b34801561036257600080fd5b5061036b610c1a565b005b34801561037957600080fd5b50610382610d02565b60405161038f91906151aa565b60405180910390f35b3480156103a457600080fd5b506103b86103b3366004614d68565b610d94565b604051901515815260200161038f565b3480156103d457600080fd5b50609b546103e59063ffffffff1681565b60405163ffffffff909116815260200161038f565b34801561040657600080fd5b5061036b610415366004614d68565b610dab565b34801561042657600080fd5b506035545b60405190815260200161038f565b34801561044557600080fd5b5061046d610454366004614cb8565b60a7602052600090815260409020805460019091015482565b6040805192835260208301919091520161038f565b34801561048e57600080fd5b5061042b61049d366004614fda565b610e32565b3480156104ae57600080fd5b5061036b6104bd366004614cb8565b610f33565b3480156104ce57600080fd5b5061042b6104dd366004614fda565b610f9a565b3480156104ee57600080fd5b506103b86104fd366004614d28565b610fbf565b34801561050e57600080fd5b5061042b611088565b34801561052357600080fd5b506040516012815260200161038f565b34801561053f57600080fd5b50609e54609f546105579190600160a060020a031682565b60408051928352600160a060020a0390911660208301520161038f565b34801561058057600080fd5b506103b861058f366004614d68565b61109e565b61036b6105a2366004614f51565b6110d5565b3480156105b357600080fd5b5061036b6105c2366004614cb8565b611185565b3480156105d357600080fd5b5061042b60a95481565b3480156105e957600080fd5b506103b86105f8366004614daf565b611232565b34801561060957600080fd5b5061042b600181565b34801561061e57600080fd5b5060a05460a15460a25461063192919083565b6040805193845260208401929092529082015260600161038f565b34801561065857600080fd5b5061036b610667366004614e85565b61128c565b34801561067857600080fd5b5061036b610687366004614f51565b611304565b34801561069857600080fd5b506106a16114f0565b604080518251815260208084015190820152918101519082015260600161038f565b3480156106cf57600080fd5b506106e36106de366004614cb8565b611539565b60405161038f9190615447565b3480156106fc57600080fd5b5061042b61070b366004614f51565b611612565b34801561071c57600080fd5b5061073061072b366004614cb8565b61173f565b60405161038f9190615129565b34801561074957600080fd5b5061036b610758366004615012565b611825565b34801561076957600080fd5b5061042b610778366004614cb8565b611b04565b34801561078957600080fd5b5061036b611b1f565b34801561079e57600080fd5b5061042b600081565b3480156107b357600080fd5b5060408051808201825260008082526020918201528151808301909252609e548252609f54600160a060020a0316908201526040805182518152602092830151600160a060020a0316928101929092520161038f565b34801561081557600080fd5b506103e5611b89565b34801561082a57600080fd5b506103e5610839366004614f51565b611bd5565b34801561084a57600080fd5b5061036b611be9565b34801561085f57600080fd5b50610868611cba565b60405161038f919061508b565b34801561088157600080fd5b50610382611cc9565b34801561089657600080fd5b50609e5461042b565b3480156108ab57600080fd5b506108bf6108ba366004614d68565b611cd8565b60405161038f93929190615185565b3480156108da57600080fd5b5061042b60995481565b3480156108f057600080fd5b506103b86108ff366004614d68565b611d23565b34801561091057600080fd5b506103b861091f366004614d68565b611dc4565b34801561093057600080fd5b5061042b600281565b34801561094557600080fd5b5061046d610954366004614fda565b611dd1565b34801561096557600080fd5b5061036b610974366004614fa2565b611e94565b34801561098557600080fd5b50609b546103e590604060020a900463ffffffff1681565b3480156109a957600080fd5b5061036b6109b8366004614f81565b61216e565b3480156109c957600080fd5b50609b546103e590640100000000900463ffffffff1681565b3480156109ee57600080fd5b5061036b6109fd366004615012565b612887565b348015610a0e57600080fd5b5061036b610a1d366004614d68565b612bac565b348015610a2e57600080fd5b5061042b610a3d366004614cb8565b612c90565b348015610a4e57600080fd5b5060a35460a45460a55460a654610a7493600160a060020a039081169316919060ff1684565b60408051600160a060020a039586168152949093166020850152918301521515606082015260800161038f565b348015610aad57600080fd5b5061036b610abc366004614cb8565b612cf5565b348015610acd57600080fd5b50609c54600160a060020a0316610868565b348015610aeb57600080fd5b50610aff610afa366004614d68565b612d72565b60405161038f9190615177565b348015610b1857600080fd5b5061042b610b27366004614cf0565b600160a060020a03918216600090815260346020908152604080832093909416825291909152205490565b348015610b5e57600080fd5b5061036b610b6d366004614cb8565b612dc8565b348015610b7e57600080fd5b5061036b612e75565b348015610b9357600080fd5b5061042b609a5481565b348015610ba957600080fd5b5061042b612eb4565b348015610bbe57600080fd5b5061036b610bcd366004614dce565b612ec0565b348015610bde57600080fd5b5061036b610bed366004614cb8565b612f55565b348015610bfe57600080fd5b5061042b610c0d366004614fda565b613050565b61036b6130a7565b33610c23611cba565b600160a060020a031614610c555760405160e560020a62461bcd028152600401610c4c906153a4565b60405180910390fd5b60985460ff1615610cbc5760405160e560020a62461bcd02815260206004820152602560248201527f5468652070726f6475637420746f6b656e20697320616c7265616479206c6175604482015260da60020a641b98da1959026064820152608401610c4c565b6098805460ff191660019081179091556040519081527f65c5ccecef030677b73a1403e7e69ef84d05db9d1732959d543d32f4419909b8906020015b60405180910390a1565b606060368054610d1190615592565b80601f0160208091040260200160405190810160405280929190818152602001828054610d3d90615592565b8015610d8a5780601f10610d5f57610100808354040283529160200191610d8a565b820191906000526020600020905b815481529060010190602001808311610d6d57829003601f168201915b5050505050905090565b6000610da1338484613421565b5060015b92915050565b610db3611cba565b600160a060020a031633600160a060020a03161480610ddc5750609c54600160a060020a031633145b610dfb5760405160e560020a62461bcd028152600401610c4c9061536d565b600160a060020a038216610e245760405160e560020a62461bcd028152600401610c4c906151fd565b610e2e8282613552565b5050565b6000808263ffffffff1611610e5c5760405160e560020a62461bcd028152600401610c4c906152a2565b609b54600090610e939063ffffffff606060020a8204811691610e8d9187811691604060020a90048116906136cb16565b906136cb565b609d54609a54609b5460405160e060020a631c949873028152939450600160a060020a0390921692631c94987392610eda928692909163ffffffff169089906004016154ac565b60206040518083038186803b158015610ef257600080fd5b505afa158015610f06573d6000803e3d6000fd5b505050506040513d601f19601f82011682018060405250810190610f2a9190614f69565b9150505b919050565b33610f3c611cba565b600160a060020a031614610f655760405160e560020a62461bcd028152600401610c4c906153a4565b600160a060020a038116610f7857600080fd5b60a88054600160a060020a031916600160a060020a0392909216919091179055565b6000806000610fa8846136de565b9092509050610fb78282613795565b949350505050565b6000610fcc8484846137a1565b600160a060020a0384166000908152603460209081526040808320338452909152902054828110156110695760405160e560020a62461bcd02815260206004820152602860248201527f45524332303a207472616e7366657220616d6f756e742065786365656473206160448201527f6c6c6f77616e63650000000000000000000000000000000000000000000000006064820152608401610c4c565b61107d85336110788685615556565b613421565b506001949350505050565b600060a954600161109991906154d4565b905090565b336000818152603460209081526040808320600160a060020a03871684529091528120549091610da19185906110789086906154d4565b336110de611cba565b600160a060020a0316146111075760405160e560020a62461bcd028152600401610c4c906153a4565b30316111585760405160e560020a62461bcd02815260206004820152600f60248201527f6e6f20656e6f75676820657468657200000000000000000000000000000000006044820152606401610c4c565b604051339082156108fc029083906000818181858888f19350505050158015610e2e573d6000803e3d6000fd5b3361118e611cba565b600160a060020a0316146111b75760405160e560020a62461bcd028152600401610c4c906153a4565b600160a060020a0381166112105760405160e560020a62461bcd02815260206004820152600f60248201527f496e76616c6964206164647265737300000000000000000000000000000000006044820152606401610c4c565b609d8054600160a060020a031916600160a060020a0392909216919091179055565b600060038260038111156112595760e060020a634e487b7102600052602160045260246000fd5b1480610da5575060028260038111156112855760e060020a634e487b7102600052602160045260246000fd5b1492915050565b600054610100900460ff16806112a5575060005460ff16155b6112c45760405160e560020a62461bcd028152600401610c4c90615310565b600054610100900460ff161580156112e6576000805461ffff19166101011790555b80156112f8576000805461ff00191690555b50505050505050505050565b609f54600160a060020a031661135f5760405160e560020a62461bcd02815260206004820152601160248201527f77616c6c657420697320696e76616c69640000000000000000000000000000006044820152606401610c4c565b609f54600160a060020a031633146113bc5760405160e560020a62461bcd02815260206004820152601a60248201527f5468652061646472657373206973206e6f7420616c6c6f7765640000000000006044820152606401610c4c565b60a85460405160e060020a63bf418de102815260016004820152600091600160a060020a03169063bf418de19060240160206040518083038186803b15801561140457600080fd5b505afa158015611418573d6000803e3d6000fd5b505050506040513d601f19601f8201168201806040525081019061143c9190614cd4565b609e54909150819083116114eb5760405160e060020a63a9059cbb028152600090600160a060020a0383169063a9059cbb9061147e903390889060040161509f565b602060405180830381600087803b15801561149857600080fd5b505af11580156114ac573d6000803e3d6000fd5b505050506040513d601f19601f820116820180604052508101906114d09190614d93565b905080156114e957609e546114e59085613795565b609e555b505b505050565b61151460405180606001604052806000815260200160008152602001600081525090565b506040805160608101825260a054815260a154602082015260a2549181019190915290565b61155d60405180606001604052806000815260200160008152602001606081525090565b600160a060020a0382166115865760405160e560020a62461bcd028152600401610c4c906152d9565b600160a060020a038216600090815260a760209081526040918290208251606081018452815481526001820154818401526002820180548551818602810186018752818152929593949386019383018282801561160257602002820191906000526020600020905b8154815260200190600101908083116115ee575b5050505050815250509050919050565b60a85460405160e060020a6315fc65d902815260048101839052600091600160a060020a0316906315fc65d99060240160206040518083038186803b15801561165a57600080fd5b505afa15801561166e573d6000803e3d6000fd5b505050506040513d601f19601f820116820180604052508101906116929190614d93565b6116b15760405160e560020a62461bcd028152600401610c4c9061526b565b60a854600160a060020a0316631c6e7b206116ca612eb4565b60405160e060020a63ffffffff84160281526004810191909152602481018590526044015b60206040518083038186803b15801561170757600080fd5b505afa15801561171b573d6000803e3d6000fd5b505050506040513d601f19601f82011682018060405250810190610da59190614f69565b600160a060020a0381166000908152606560209081526040808320805482518185028101850190935280835260609492939192909184015b8282101561181a576000848152602090206040805160608101909152600284029091018054829060ff1660038111156117c35760e060020a634e487b7102600052602160045260246000fd5b60038111156117e55760e060020a634e487b7102600052602160045260246000fd5b81528154610100900463ffffffff16602080830191909152600192830154604090920191909152918352929092019101611777565b505050509050919050565b60985460ff1661184a5760405160e560020a62461bcd028152600401610c4c906153d9565b60a85460405160e060020a6315fc65d902815260016004820152600160a060020a03909116906315fc65d99060240160206040518083038186803b15801561189157600080fd5b505afa1580156118a5573d6000803e3d6000fd5b505050506040513d601f19601f820116820180604052508101906118c99190614d93565b6118e85760405160e560020a62461bcd028152600401610c4c9061526b565b60008263ffffffff16116119115760405160e560020a62461bcd028152600401610c4c90615410565b8163ffffffff1661192133611b04565b10156119725760405160e560020a62461bcd02815260206004820152601c60248201527f496e73756666696369656e7420746f6b656e7320746f206275726e2e000000006044820152606401610c4c565b60008061197e846136de565b91509150600061198d85610e32565b90506119bb6119b682610e8d6512309ce540006119b0876509184e72a00061398d565b90613999565b6139a5565b6119c58383613795565b60a85460405160e560020a62e373d90281526004810183905260016024820152919450611a56918791600160a060020a031690631c6e7b209060440160206040518083038186803b158015611a1957600080fd5b505afa158015611a2d573d6000803e3d6000fd5b505050506040513d601f19601f82011682018060405250810190611a519190614f69565b613a49565b50611a67338663ffffffff16613b9d565b609b54611a82908690604060020a900463ffffffff166154ec565b609b80546bffffffff00000000000000001916604060020a63ffffffff93841602179055609a54611ab59183906136cb16565b609a55611ac28585613ce6565b60405163ffffffff8616815233907fe600c25f82e9bac8f9f1663725540d6cd442845726820fd5bee41b66c4bf59be9060200160405180910390a25050505050565b600160a060020a031660009081526033602052604090205490565b33611b28611cba565b600160a060020a031614611b515760405160e560020a62461bcd028152600401610c4c906153a4565b606654604051600091600160a060020a031690600080516020615676833981519152908390a360668054600160a060020a0319169055565b609b54600090604060020a900463ffffffff16611ba560355490565b609b54611bc09190640100000000900463ffffffff1661556d565b611bca919061556d565b6110999060646154ec565b600080611be183613f6e565b509392505050565b33611bf2611cba565b600160a060020a031614611c1b5760405160e560020a62461bcd028152600401610c4c906153a4565b60985460ff16611c7f5760405160e560020a62461bcd02815260206004820152602360248201527f5468652070726f6475637420746f6b656e20697320616c726561647920706175604482015260ea60020a621cd959026064820152608401610c4c565b6098805460ff19169055604051600081527f65c5ccecef030677b73a1403e7e69ef84d05db9d1732959d543d32f4419909b890602001610cf8565b606654600160a060020a031690565b606060378054610d1190615592565b60656020528160005260406000208181548110611cf457600080fd5b60009182526020909120600290910201805460019091015460ff8216935061010090910463ffffffff16915083565b336000908152603460209081526040808320600160a060020a038616845290915281205482811015611dab5760405160e560020a62461bcd02815260206004820152602560248201527f45524332303a2064656372656173656420616c6c6f77616e63652062656c6f77604482015260d860020a64207a65726f026064820152608401610c4c565b611dba33856110788685615556565b5060019392505050565b6000610da13384846137a1565b609d5460009081908190600160a060020a031663bff82d84611df1614073565b609954609b5460405163ffffffff85811660e060020a028252611e1c94939216908a906004016154ac565b60206040518083038186803b158015611e3457600080fd5b505afa158015611e48573d6000803e3d6000fd5b505050506040513d601f19601f82011682018060405250810190611e6c9190614f69565b90506000611e8864e8d4a510006119b0846412a05f200061398d565b91935090915050915091565b33611e9d611cba565b600160a060020a031614611ec65760405160e560020a62461bcd028152600401610c4c906153a4565b60a85460405160e060020a6336e84a8702815260048101859052600160a060020a03909116906336e84a879060240160206040518083038186803b158015611f0d57600080fd5b505afa158015611f21573d6000803e3d6000fd5b505050506040513d601f19601f82011682018060405250810190611f459190614d93565b611f945760405160e560020a62461bcd02815260206004820152600e60248201527f6e6f7420696e76616c69642069640000000000000000000000000000000000006044820152606401610c4c565b600160a060020a038116611fbd5760405160e560020a62461bcd028152600401610c4c906152d9565b60a85460405160e060020a63bf418de102815260048101859052600091600160a060020a03169063bf418de19060240160206040518083038186803b15801561200557600080fd5b505afa158015612019573d6000803e3d6000fd5b505050506040513d601f19601f8201168201806040525081019061203d9190614cd4565b60405160e060020a6370a082310281529091508190600160a060020a038216906370a082319061207190309060040161508b565b60206040518083038186803b15801561208957600080fd5b505afa15801561209d573d6000803e3d6000fd5b505050506040513d601f19601f820116820180604052508101906120c19190614f69565b8411156120e35760405160e560020a62461bcd028152600401610c4c906152a2565b60405160e060020a63a9059cbb028152600160a060020a0382169063a9059cbb90612114908690889060040161509f565b602060405180830381600087803b15801561212e57600080fd5b505af1158015612142573d6000803e3d6000fd5b505050506040513d601f19601f820116820180604052508101906121669190614d93565b505050505050565b60985460ff166121935760405160e560020a62461bcd028152600401610c4c906153d9565b60a85460405160e060020a6315fc65d902815260048101849052600160a060020a03909116906315fc65d99060240160206040518083038186803b1580156121da57600080fd5b505afa1580156121ee573d6000803e3d6000fd5b505050506040513d601f19601f820116820180604052508101906122129190614d93565b6122315760405160e560020a62461bcd028152600401610c4c9061526b565b600081116122845760405160e560020a62461bcd02815260206004820152601160248201527f696e76616c6964206d61782070726963650000000000000000000000000000006044820152606401610c4c565b60a85460405160e060020a63bf418de102815260048101849052600091600160a060020a03169063bf418de19060240160206040518083038186803b1580156122cc57600080fd5b505afa1580156122e0573d6000803e3d6000fd5b505050506040513d601f19601f820116820180604052508101906123049190614cd4565b60405160e060020a6323b872dd02815233600482015230602482015260448101849052909150600090600160a060020a038316906323b872dd90606401602060405180830381600087803b15801561235b57600080fd5b505af115801561236f573d6000803e3d6000fd5b505050506040513d601f19601f820116820180604052508101906123939190614d93565b9050806123e55760405160e560020a62461bcd02815260206004820152601060248201527f5075726368617365206661696c65642e000000000000000000000000000000006044820152606401610c4c565b60a85460405160e060020a63a71b7b770281526004810185905260248101869052600091600160a060020a03169063a71b7b779060440160206040518083038186803b15801561243457600080fd5b505afa158015612448573d6000803e3d6000fd5b505050506040513d601f19601f8201168201806040525081019061246c9190614f69565b905060008060008061247d856140a0565b93509350935063ffffffff16935060008411156127f95782156125a75760a85460405160e560020a62e373d902815260048101859052602481018b9052600160a060020a0390911690631c6e7b209060440160206040518083038186803b1580156124e757600080fd5b505afa1580156124fb573d6000803e3d6000fd5b505050506040513d601f19601f8201168201806040525081019061251f9190614f69565b60405160e060020a63a9059cbb028152909350600160a060020a0388169063a9059cbb90612553903390879060040161509f565b602060405180830381600087803b15801561256d57600080fd5b505af1158015612581573d6000803e3d6000fd5b505050506040513d601f19601f820116820180604052508101906125a59190614d93565b505b6125c36119b6650746a52880006119b08464e8d4a5100061398d565b60a85460405160e560020a62e373d90281526004810183905260016024820152600160a060020a0390911690631c6e7b209060440160206040518083038186803b15801561261057600080fd5b505afa158015612624573d6000803e3d6000fd5b505050506040513d601f19601f820116820180604052508101906126489190614f69565b9050612670612667650746a52880006119b084650574fbde600061398d565b60a254906136cb565b60a25560018914156127f45760a85460405160e560020a62e373d90281526004810184905260016024820152600160a060020a0390911690631c6e7b209060440160206040518083038186803b1580156126c957600080fd5b505afa1580156126dd573d6000803e3d6000fd5b505050506040513d601f19601f820116820180604052508101906127019190614f69565b33600090815260a760205260408120600181015460a1548254949650919360a09392612742929161273c9164e8d4a51000916119b09161398d565b90613795565b905080156127cf5760405160e060020a63a9059cbb028152600160a060020a038b169063a9059cbb9061277b903390859060040161509f565b602060405180830381600087803b15801561279557600080fd5b505af11580156127a9573d6000803e3d6000fd5b505050506040513d601f19601f820116820180604052508101906127cd9190614d93565b505b60a0546127dc90866136cb565b60a0556127e7612e75565b6127f085614205565b5050505b61287c565b60405160e060020a63a9059cbb028152600160a060020a0388169063a9059cbb9061282a9033908c9060040161509f565b602060405180830381600087803b15801561284457600080fd5b505af1158015612858573d6000803e3d6000fd5b505050506040513d601f19601f820116820180604052508101906112f89190614d93565b505050505050505050565b60985460ff166128ac5760405160e560020a62461bcd028152600401610c4c906153d9565b60a85460405160e060020a6315fc65d902815260016004820152600160a060020a03909116906315fc65d99060240160206040518083038186803b1580156128f357600080fd5b505afa158015612907573d6000803e3d6000fd5b505050506040513d601f19601f8201168201806040525081019061292b9190614d93565b61294a5760405160e560020a62461bcd028152600401610c4c9061526b565b8163ffffffff1661295a33611b04565b10158061296d575060008263ffffffff16115b61298c5760405160e560020a62461bcd028152600401610c4c906152a2565b60a85460405160e060020a63bf418de102815260016004820152600091600160a060020a03169063bf418de19060240160206040518083038186803b1580156129d457600080fd5b505afa1580156129e8573d6000803e3d6000fd5b505050506040513d601f19601f82011682018060405250810190612a0c9190614cd4565b9050600080612a1a8561425e565b91509150612a288585613ce6565b60a85460405160e560020a62e373d90281526004810184905260016024820152600091600160a060020a031690631c6e7b209060440160206040518083038186803b158015612a7657600080fd5b505afa158015612a8a573d6000803e3d6000fd5b505050506040513d601f19601f82011682018060405250810190612aae9190614f69565b9050600084600160a060020a031663a9059cbb33846040518363ffffffff1660e060020a028152600401612ae392919061509f565b602060405180830381600087803b158015612afd57600080fd5b505af1158015612b11573d6000803e3d6000fd5b505050506040513d601f19601f82011682018060405250810190612b359190614d93565b9050612b536119b66501d1a94a20006119b08664e8d4a5100061398d565b80612ba35760405160e560020a62461bcd02815260206004820152601460248201527f73656c6c696e6720746f6b656e206661696c65640000000000000000000000006044820152606401610c4c565b50505050505050565b612bb4611cba565b600160a060020a031633600160a060020a03161480612bdd5750609c54600160a060020a031633145b612bfc5760405160e560020a62461bcd028152600401610c4c9061536d565b600160a060020a038216612c255760405160e560020a62461bcd028152600401610c4c906151fd565b6000612c318383614371565b905060008111612c865760405160e560020a62461bcd02815260206004820152600d60248201527f496e76616c69642076616c7565000000000000000000000000000000000000006044820152606401610c4c565b6114eb8382614522565b600160a060020a038116600090815260a7602052604081205415612ced5733600090815260a760205260409020600181015460a154825460a092612ce492909161273c9164e8d4a51000916119b09161398d565b92505050610f2e565b506000919050565b33612cfe611cba565b600160a060020a031614612d275760405160e560020a62461bcd028152600401610c4c906153a4565b600160a060020a038116612d505760405160e560020a62461bcd028152600401610c4c906152d9565b609c8054600160a060020a031916600160a060020a0392909216919091179055565b600160a060020a0382166000908152606560205260408120805483908110612dad5760e060020a634e487b7102600052603260045260246000fd5b600091825260209091206002909102015460ff169392505050565b33612dd1611cba565b600160a060020a031614612dfa5760405160e560020a62461bcd028152600401610c4c906153a4565b600160a060020a038116612e535760405160e560020a62461bcd02815260206004820152601260248201527f4164647265737320697320696e76616c696400000000000000000000000000006044820152606401610c4c565b609f8054600160a060020a031916600160a060020a0392909216919091179055565b60a05480612e885750600060a155612eb2565b60a254612ead90612ea49083906119b09064e8d4a5100061398d565b60a154906136cb565b60a155505b565b60006110996001613050565b600054610100900460ff1680612ed9575060005460ff16155b612ef85760405160e560020a62461bcd028152600401610c4c90615310565b600054610100900460ff16158015612f1a576000805461ffff19166101011790555b612f2261467b565b612f2c88886146f9565b612f39868686868661477b565b8015612f4b576000805461ff00191690555b5050505050505050565b33612f5e611cba565b600160a060020a031614612f875760405160e560020a62461bcd028152600401610c4c906153a4565b600160a060020a0381166130065760405160e560020a62461bcd02815260206004820152602660248201527f4f776e61626c653a206e6577206f776e657220697320746865207a65726f206160448201527f64647265737300000000000000000000000000000000000000000000000000006064820152608401610c4c565b606654604051600160a060020a0380841692169060008051602061567683398151915290600090a360668054600160a060020a031916600160a060020a0392909216919091179055565b609d54600090600160a060020a031663bff82d8461306c614073565b609954609b546130849063ffffffff1661c3506154ec565b866040518563ffffffff1660e060020a0281526004016116ef94939291906154ac565b60985460ff166130cc5760405160e560020a62461bcd028152600401610c4c906153d9565b60a85460405160e060020a6315fc65d902815260006004820152600160a060020a03909116906315fc65d99060240160206040518083038186803b15801561311357600080fd5b505afa158015613127573d6000803e3d6000fd5b505050506040513d601f19601f8201168201806040525081019061314b9190614d93565b61316a5760405160e560020a62461bcd028152600401610c4c9061526b565b600034116131bd5760405160e560020a62461bcd02815260206004820152600d60248201527f696e76616c69642076616c7565000000000000000000000000000000000000006044820152606401610c4c565b60a85460405160e060020a63a71b7b7702815234600482015260006024820181905291600160a060020a03169063a71b7b779060440160206040518083038186803b15801561320b57600080fd5b505afa15801561321f573d6000803e3d6000fd5b505050506040513d601f19601f820116820180604052508101906132439190614f69565b90506000806000613253846140a0565b935050925063ffffffff16925060008311156133ee5781156133265760a85460405160e560020a62e373d90281526004810184905260006024820152600160a060020a0390911690631c6e7b209060440160206040518083038186803b1580156132bc57600080fd5b505afa1580156132d0573d6000803e3d6000fd5b505050506040513d601f19601f820116820180604052508101906132f49190614f69565b604051909250339083156108fc029084906000818181858888f19350505050158015613324573d6000803e3d6000fd5b505b6133426119b6650746a52880006119b08464e8d4a5100061398d565b60a85460405160e560020a62e373d90281526004810183905260016024820152600160a060020a0390911690631c6e7b209060440160206040518083038186803b15801561338f57600080fd5b505afa1580156133a3573d6000803e3d6000fd5b505050506040513d601f19601f820116820180604052508101906133c79190614f69565b90506133e6612667650746a52880006119b084650574fbde600061398d565b60a2556114e9565b60405133903480156108fc02916000818181858888f1935050505015801561341a573d6000803e3d6000fd5b5050505050565b600160a060020a0383166134895760405160e560020a62461bcd028152602060048201526024808201527f45524332303a20617070726f76652066726f6d20746865207a65726f20616464604482015260e060020a6372657373026064820152608401610c4c565b600160a060020a0382166134f05760405160e560020a62461bcd02815260206004820152602260248201527f45524332303a20617070726f766520746f20746865207a65726f206164647265604482015260f060020a617373026064820152608401610c4c565b600160a060020a0383811660008181526034602090815260408083209487168084529482529182902085905590518481527f8c5be1e5ebec7d5bd14f71427d1e84f3dd0314c0f7b2291e5b200ac8c7c3b92591015b60405180910390a3505050565b600160a060020a038216600090815260656020526040902080546135ab9190839081106135925760e060020a634e487b7102600052603260045260246000fd5b600091825260209091206002909102015460ff16611232565b156135cb5760405160e560020a62461bcd028152600401610c4c90615234565b600160a060020a03821660009081526065602052604090208054600391908390811061360a5760e060020a634e487b7102600052603260045260246000fd5b60009182526020909120600290910201805460ff191660018360038111156136455760e060020a634e487b7102600052602160045260246000fd5b021790555060008051602061565683398151915282826065600086600160a060020a0316600160a060020a0316815260200190815260200160002084815481106136a25760e060020a634e487b7102600052603260045260246000fd5b90600052602060002090600202016040516136bf939291906150dc565b60405180910390a15050565b60006136d782846154d4565b9392505050565b609d5460009081908190600160a060020a0316631c9498736136fe614073565b609954609b5460405163ffffffff85811660e060020a02825261372994939216908a906004016154ac565b60206040518083038186803b15801561374157600080fd5b505afa158015613755573d6000803e3d6000fd5b505050506040513d601f19601f820116820180604052508101906137799190614f69565b90506000611e8864e8d4a510006119b0846404a817c80061398d565b60006136d78284615556565b600160a060020a03831661380b5760405160e560020a62461bcd02815260206004820152602560248201527f45524332303a207472616e736665722066726f6d20746865207a65726f206164604482015260d860020a646472657373026064820152608401610c4c565b600160a060020a0382166138735760405160e560020a62461bcd02815260206004820152602360248201527f45524332303a207472616e7366657220746f20746865207a65726f2061646472604482015260e860020a62657373026064820152608401610c4c565b600160a060020a038316600090815260336020526040902054818110156139055760405160e560020a62461bcd02815260206004820152602660248201527f45524332303a207472616e7366657220616d6f756e742065786365656473206260448201527f616c616e636500000000000000000000000000000000000000000000000000006064820152608401610c4c565b61390f8282615556565b600160a060020a0380861660009081526033602052604080822093909355908516815290812080548492906139459084906154d4565b9250508190555082600160a060020a031684600160a060020a03166000805160206156968339815191528460405161397f91815260200190565b60405180910390a350505050565b60006136d78284615537565b60006136d78284615514565b8015613a465760a85460405160e560020a62e373d90281526004810183905260016024820152600091600160a060020a031690631c6e7b209060440160206040518083038186803b1580156139f957600080fd5b505afa158015613a0d573d6000803e3d6000fd5b505050506040513d601f19601f82011682018060405250810190613a319190614f69565b609e54909150613a4190826136cb565b609e55505b50565b6000808363ffffffff1611613aa35760405160e560020a62461bcd02815260206004820152600e60248201527f496e76616c696420416d6f756e740000000000000000000000000000000000006044820152606401610c4c565b60408051606081018252600180825263ffffffff861660208084019190915282840186905233600090815260658252938420805480840182559085529320825160029094020180549293849391929091839160ff1990911690836003811115613b1f5760e060020a634e487b7102600052602160045260246000fd5b0217905550602082810151825463ffffffff9091166101000264ffffffff0019909116178255604092830151600192830155336000908152606590915291822054613b6a9190615556565b9050600080516020615656833981519152338284604051613b8d939291906150b8565b60405180910390a1949350505050565b600160a060020a038216613c035760405160e560020a62461bcd02815260206004820152602160248201527f45524332303a206275726e2066726f6d20746865207a65726f20616464726573604482015260f860020a6073026064820152608401610c4c565b600160a060020a03821660009081526033602052604090205481811015613c7d5760405160e560020a62461bcd02815260206004820152602260248201527f45524332303a206275726e20616d6f756e7420657863656564732062616c616e604482015260f060020a616365026064820152608401610c4c565b613c878282615556565b600160a060020a03841660009081526033602052604081209190915560358054849290613cb5908490615556565b9091555050604051828152600090600160a060020a0385169060008051602061569683398151915290602001613545565b33600090815260a7602052604090205415610e2e5760a85460405160e060020a63bf418de102815260016004820152600091600160a060020a03169063bf418de19060240160206040518083038186803b158015613d4357600080fd5b505afa158015613d57573d6000803e3d6000fd5b505050506040513d601f19601f82011682018060405250810190613d7b9190614cd4565b33600090815260a7602052604090209091508280613da557506002810154613da233611b04565b11155b156114e957600281015463ffffffff851690811115613dc5575060028101545b6000805b82811015613e7157600284018054613e229190613de7906001613795565b81548110613e085760e060020a634e487b7102600052603260045260246000fd5b9060005260206000200154836136cb90919063ffffffff16565b915083600201805480613e485760e060020a634e487b7102600052603160045260246000fd5b600190038181906000526020600020016000905590558080613e69906155d1565b915050613dc9565b50600183015460a154845460a092600092613e9a9261273c9164e8d4a51000916119b09161398d565b60a054909150613eaa9084613795565b60a0558015613f385760405160e060020a63a9059cbb028152600160a060020a0387169063a9059cbb90613ee4903390859060040161509f565b602060405180830381600087803b158015613efe57600080fd5b505af1158015613f12573d6000803e3d6000fd5b505050506040513d601f19601f82011682018060405250810190613f369190614d93565b505b8454613f449084613795565b80865560a154613f5f9164e8d4a51000916119b0919061398d565b60018601555050505050505050565b60008080613f8a64fb750430006119b08664e8d4a5100061398d565b90506000613fa664e8d4a510006119b084640df847580061398d565b609d54909150600090600160a060020a0316639f4ae6b0613fc5614073565b609954609b5463ffffffff90811690613fe2908990899061379516565b60405163ffffffff86811660e060020a0282529485166004820152602481019390935292166044820152606481019190915260840160206040518083038186803b15801561402f57600080fd5b505afa158015614043573d6000803e3d6000fd5b505050506040513d601f19601f820116820180604052508101906140679190614ff6565b94509092505050915091565b609b546000906110999063ffffffff606060020a8204811691610e8d91604060020a909104168160355490565b60008060008060006140b0611b89565b63ffffffff16116141065760405160e560020a62461bcd02815260206004820152601e60248201527f536f7272792c207468697320746f6b656e20697320736f6c64206f75742e00006044820152606401610c4c565b600085116141595760405160e560020a62461bcd02815260206004820152601960248201527f4465706f736974206d757374206265206e6f6e2d7a65726f2e000000000000006044820152606401610c4c565b6000806141666001611dd1565b915091508682111561418757600087600080955095509550955050506141fe565b61419233600161490e565b6141a861419f8383613795565b609954906136cb565b60995560408051600181526020810184905233917f5b55159a377d86da80a65140d62d994ddbb2cbd4bb2d1b59cb0827fecbe47cab910160405180910390a260016141f38884613795565b909650945090925090505b9193509193565b33600090815260a760205260409020805461422090836136cb565b8155600281018054600181018255600091825260209091200182905560a15481546142559164e8d4a51000916119b09161398d565b60019091015550565b60008060008363ffffffff161161428a5760405160e560020a62461bcd028152600401610c4c90615410565b8263ffffffff1661429a33611b04565b10156142eb5760405160e560020a62461bcd02815260206004820152601c60248201527f496e73756666696369656e7420746f6b656e7320746f2073656c6c2e000000006044820152606401610c4c565b6000806142f7856136de565b60995491935091506143099083613795565b60995561431c3363ffffffff8716613b9d565b6040805163ffffffff871681526020810184905233917f84c8d08e5480cf09cbf77bc575dc4e63845522693c34094f04129a4dedb7abd7910160405180910390a26143678282613795565b9350915050915091565b600160a060020a038216600090815260656020526040812080546143b19190849081106135925760e060020a634e487b7102600052603260045260246000fd5b156143d15760405160e560020a62461bcd028152600401610c4c90615234565b600160a060020a0383166000908152606560205260409020805460029190849081106144105760e060020a634e487b7102600052603260045260246000fd5b60009182526020909120600290910201805460ff1916600183600381111561444b5760e060020a634e487b7102600052602160045260246000fd5b021790555060008051602061565683398151915283836065600087600160a060020a0316600160a060020a0316815260200190815260200160002085815481106144a85760e060020a634e487b7102600052603260045260246000fd5b90600052602060002090600202016040516144c5939291906150dc565b60405180910390a1600160a060020a03831660009081526065602052604090208054839081106145085760e060020a634e487b7102600052603260045260246000fd5b906000526020600020906002020160010154905092915050565b60a85460405160e060020a63bf418de102815260016004820152600091600160a060020a03169063bf418de19060240160206040518083038186803b15801561456a57600080fd5b505afa15801561457e573d6000803e3d6000fd5b505050506040513d601f19601f820116820180604052508101906145a29190614cd4565b9050600081600160a060020a031663a9059cbb85856040518363ffffffff1660e060020a0281526004016145d792919061509f565b602060405180830381600087803b1580156145f157600080fd5b505af1158015614605573d6000803e3d6000fd5b505050506040513d601f19601f820116820180604052508101906146299190614d93565b9050806114e95760405160e560020a62461bcd02815260206004820152601360248201527f726566756e6420746f6b656e206661696c6564000000000000000000000000006044820152606401610c4c565b600054610100900460ff1680614694575060005460ff16155b6146b35760405160e560020a62461bcd028152600401610c4c90615310565b600054610100900460ff161580156146d5576000805461ffff19166101011790555b6146dd6149de565b6146e5614a4b565b8015613a46576000805461ff001916905550565b600054610100900460ff1680614712575060005460ff16155b6147315760405160e560020a62461bcd028152600401610c4c90615310565b600054610100900460ff16158015614753576000805461ffff19166101011790555b61475b6149de565b6147658383614aea565b80156114eb576000805461ff0019169055505050565b600054610100900460ff1680614794575060005460ff16155b6147b35760405160e560020a62461bcd028152600401610c4c90615310565b600054610100900460ff161580156147d5576000805461ffff19166101011790555b60008463ffffffff161161482e5760405160e560020a62461bcd02815260206004820152601860248201527f496e76616c6964206d617820746f6b656e20636f756e742e00000000000000006044820152606401610c4c565b60008563ffffffff16116148875760405160e560020a62461bcd02815260206004820152601560248201527f496e76616c6964207265736572766520726174696f00000000000000000000006044820152606401610c4c565b609d8054600160a060020a038816600160a060020a03199091161790556099829055609a829055609b805463ffffffff8681166401000000000267ffffffffffffffff19828816606060020a02166fffffffff00000000ffffffffffffffff1990931692909217908816171790558015612166576000805461ff0019169055505050505050565b600160a060020a0382166149675760405160e560020a62461bcd02815260206004820152601f60248201527f45524332303a206d696e7420746f20746865207a65726f2061646472657373006044820152606401610c4c565b806035600082825461497991906154d4565b9091555050600160a060020a038216600090815260336020526040812080548392906149a69084906154d4565b9091555050604051818152600160a060020a038316906000906000805160206156968339815191529060200160405180910390a35050565b600054610100900460ff16806149f7575060005460ff16155b614a165760405160e560020a62461bcd028152600401610c4c90615310565b600054610100900460ff161580156146e5576000805461ffff19166101011790558015613a46576000805461ff001916905550565b600054610100900460ff1680614a64575060005460ff16155b614a835760405160e560020a62461bcd028152600401610c4c90615310565b600054610100900460ff16158015614aa5576000805461ffff19166101011790555b60668054600160a060020a031916339081179091556040518190600090600080516020615676833981519152908290a3508015613a46576000805461ff001916905550565b600054610100900460ff1680614b03575060005460ff16155b614b225760405160e560020a62461bcd028152600401610c4c90615310565b600054610100900460ff16158015614b44576000805461ffff19166101011790555b8251614b57906036906020860190614b82565b508151614b6b906037906020850190614b82565b5080156114eb576000805461ff0019169055505050565b828054614b8e90615592565b90600052602060002090601f016020900481019282614bb05760008555614bf6565b82601f10614bc957805160ff1916838001178555614bf6565b82800160010185558215614bf6579182015b82811115614bf6578251825591602001919060010190614bdb565b50614c02929150614c06565b5090565b5b80821115614c025760008155600101614c07565b8035610f2e81615620565b600082601f830112614c36578081fd5b813567ffffffffffffffff80821115614c5157614c51615606565b604051601f8301601f19908116603f01168101908282118183101715614c7957614c79615606565b81604052838152866020858801011115614c91578485fd5b8360208701602083013792830160200193909352509392505050565b8035610f2e81615643565b600060208284031215614cc9578081fd5b81356136d781615620565b600060208284031215614ce5578081fd5b81516136d781615620565b60008060408385031215614d02578081fd5b8235614d0d81615620565b91506020830135614d1d81615620565b809150509250929050565b600080600060608486031215614d3c578081fd5b8335614d4781615620565b92506020840135614d5781615620565b929592945050506040919091013590565b60008060408385031215614d7a578182fd5b8235614d8581615620565b946020939093013593505050565b600060208284031215614da4578081fd5b81516136d781615635565b600060208284031215614dc0578081fd5b8135600481106136d7578182fd5b600080600080600080600060e0888a031215614de8578283fd5b873567ffffffffffffffff80821115614dff578485fd5b614e0b8b838c01614c26565b985060208a0135915080821115614e20578485fd5b50614e2d8a828b01614c26565b9650506040880135614e3e81615620565b94506060880135614e4e81615643565b93506080880135614e5e81615643565b925060a0880135614e6e81615643565b8092505060c0880135905092959891949750929550565b60008060008060008060008060006101208a8c031215614ea3578182fd5b893567ffffffffffffffff80821115614eba578384fd5b614ec68d838e01614c26565b9a5060208c0135915080821115614edb578384fd5b50614ee88c828d01614c26565b98505060408a0135614ef981615643565b965060608a0135614f0981615643565b9550614f1760808b01614cad565b945060a08a0135935060c08a01359250614f3360e08b01614c1b565b9150614f426101008b01614c1b565b90509295985092959850929598565b600060208284031215614f62578081fd5b5035919050565b600060208284031215614f7a578081fd5b5051919050565b60008060408385031215614f93578182fd5b50508035926020909101359150565b600080600060608486031215614fb6578081fd5b83359250602084013591506040840135614fcf81615620565b809150509250925092565b600060208284031215614feb578081fd5b81356136d781615643565b600060208284031215615007578081fd5b81516136d781615643565b60008060408385031215615024578182fd5b823561502f81615643565b91506020830135614d1d81615635565b600481106150615760e060020a634e487b710260009081526021600452602490fd5b9052565b61507082825161503f565b60208181015163ffffffff1690830152604090810151910152565b600160a060020a0391909116815260200190565b600160a060020a03929092168252602082015260400190565b600160a060020a03841681526020810183905260a08101610fb76040830184615065565b600160a060020a038416815260208101839052815460a08201906151066040840160ff831661503f565b63ffffffff61010082041660608401525060018301546080830152949350505050565b6020808252825182820181905260009190848201906040850190845b8181101561516b57615158838551615065565b9284019260609290920191600101615145565b50909695505050505050565b60208101610da5828461503f565b60608101615193828661503f565b63ffffffff93909316602082015260400152919050565b6000602080835283518082850152825b818110156151d6578581018301518582016040015282016151ba565b818111156151e75783604083870101525b50601f01601f1916929092016040019392505050565b6020808252600d908201527f496e76616c696420627579657200000000000000000000000000000000000000604082015260600190565b60208082526011908201527f616c726561647920636f6d706c65746564000000000000000000000000000000604082015260600190565b6020808252600b908201527f6e6f7420737570706f7274000000000000000000000000000000000000000000604082015260600190565b6020808252600e908201527f696e76616c696420616d6f756e74000000000000000000000000000000000000604082015260600190565b6020808252600f908201527f696e76616c696420616464726573730000000000000000000000000000000000604082015260600190565b6020808252602e908201527f496e697469616c697a61626c653a20636f6e747261637420697320616c72656160408201527f647920696e697469616c697a6564000000000000000000000000000000000000606082015260800190565b60208082526011908201527f7065726d697373696f6e2064656e696564000000000000000000000000000000604082015260600190565b6020808252818101527f4f776e61626c653a2063616c6c6572206973206e6f7420746865206f776e6572604082015260600190565b60208082526013908201527f756e61626c6520746f207472616465206e6f7700000000000000000000000000604082015260600190565b60208082526018908201527f416d6f756e74206d757374206265206e6f6e2d7a65726f2e0000000000000000604082015260600190565b6000602080835260808301845182850152818501516040850152604085015160608086015281815180845260a08701915084830193508592505b808310156154a15783518252928401926001929092019190840190615481565b509695505050505050565b63ffffffff948516815260208101939093529083166040830152909116606082015260800190565b600082198211156154e7576154e76155ec565b500190565b600063ffffffff80831681851680830382111561550b5761550b6155ec565b01949350505050565b6000826155325760e060020a634e487b710281526012600452602481fd5b500490565b6000816000190483118215151615615551576155516155ec565b500290565b600082821015615568576155686155ec565b500390565b600063ffffffff8381169083168181101561558a5761558a6155ec565b039392505050565b6002810460018216806155a657607f821691505b602082108114156155cb5760e060020a634e487b710260009081526022600452602490fd5b50919050565b60006000198214156155e5576155e56155ec565b5060010190565b60e060020a634e487b710260009081526011600452602490fd5b60e060020a634e487b710260009081526041600452602490fd5b600160a060020a0381168114613a4657600080fd5b8015158114613a4657600080fd5b63ffffffff81168114613a4657600080fdfe09c64bee251b684a6bb80ce179dd520c001481b7c3d7781f1502e3052af474cf8be0079c531659141344cd1fd0a4f28419497f9722a3daafe3b4186f6b6457e0ddf252ad1be2c89b69c2b068fc378daa952ba7f163c4a11628f55a4df523b3efa2646970667358221220ddfeb72bbe34b8e723d9b3e332f74d5204850063aa6cf82a75f778541effa15564736f6c63430008030033",
  "immutableReferences": {},
  "source": "pragma solidity ^0.8.2;\n\nimport \"@openzeppelin/contracts-upgradeable/token/ERC20/ERC20Upgradeable.sol\";\nimport \"@openzeppelin/contracts-upgradeable/utils/math/SafeMathUpgradeable.sol\";\n\nimport \"../ProductToken.sol\";\nimport \"../ProductTokenV1.sol\";\nimport \"../Power.sol\";\n\n\ncontract ProductTokenV2 is ProductTokenV1 {\n  uint256 public newAttribute;\n\n  function getNewAttribute()\n  public view returns (uint256)\n  {\n    return newAttribute + 1;\n  }\n\n  function getPriceForN(uint32 _amountProduct) \n  \tpublic view override returns(uint256 price)\n  {\n  \treturn bondingCurve.calculatePriceForNTokens(getTotalSupply(), reserveBalance, reserveRatio+50000, _amountProduct);\n  }\n\n    function getAvailability()\n     public view override returns (uint32 available)\n  {\n    return maxTokenCount - uint32(totalSupply()) - tradeinCount+100;   \n  }\n\n} \n\ncontract ProductTokenV3 is ProductTokenV2 {\n    using SafeMathUpgradeable for uint256;\n    uint32 private constant MAX_RESERVE_RATIO = 2000000;\n\n    function initializeV3(string memory _name, string memory _symbol, uint32 _reserveRatio, uint32 _maxTokenCount, uint32 _supplyOffset, uint256 _baseReserve, uint256 _newInitValue, address _daiAddress, address _chainlink) public  initializer {\n    }\n}\n\ncontract ProductTokenDestroy {\n\n}\n\ncontract ProductTokenV4 is ProductTokenV2 {\n\n}\n\ncontract ProductTokenV5 is ProductTokenV3 {\n  uint256  public newInitValue;\n/**\n   * @dev Constructor\n   *\n   * @param _reserveRatio             the reserve ratio in the curve function\n   * @param _maxTokenCount\t\t\t\t\t\tthe amount of token that will exist for this type.\n   * @param _supplyOffset             a initial amount of offset that drive the price to a starting price\n   * @param _baseReserve              the reserve balance when supply is 0. This is calculated based on the balance function, and evaluated at s = _supplyOffset\n  */\n  function initializeV5(string memory _name, string memory _symbol, address _bondingCurveAddress, uint32 _reserveRatio, uint32 _maxTokenCount, uint32 _supplyOffset, uint256 _baseReserve, uint256 _newInitValue, address _daiAddress, address _chainlink) public  initializer {\t\t\n    __ERC20_init(_name, _symbol);\n    // ProductToken.__ProductToken_init_unchained(_bondingCurveAddress, _reserveRatio, _maxTokenCount, _supplyOffset, _baseReserve);\n    // ProductTokenV1.__ProductToken_init_unchained(_daiAddress, _chainlink);\n    newInitValue= _newInitValue;\n  }\n  function getNewInitValue() public view returns(uint256){\n    return newInitValue;\n  }\n}\n",
  "sourcePath": "/Users/jack/Documents/GitHub/HighStreet/client/src/contracts/Mock/ProductTokenV2.sol",
  "compiler": {
    "name": "solc",
    "version": "0.8.3+commit.8d00100c.Emscripten.clang"
  },
  "schemaVersion": "3.4.0",
  "updatedAt": "2021-09-16T14:56:36.206Z",
  "devdoc": {
    "kind": "dev",
    "methods": {
      "allowance(address,address)": {
        "details": "See {IERC20-allowance}."
      },
      "approve(address,uint256)": {
        "details": "See {IERC20-approve}. Requirements: - `spender` cannot be the zero address."
      },
      "balanceOf(address)": {
        "details": "See {IERC20-balanceOf}."
      },
      "calculateBuyReturn(uint256)": {
        "details": "Function that computes number of product tokens one can buy given an amount in reserve token.",
        "params": {
          "_amountReserve": "purchaing amount in reserve token (dai)(with 4% platform fee)"
        },
        "returns": {
          "mintAmount": "             number of tokens in traded token that can be purchased by given amount."
        }
      },
      "calculateSellReturn(uint32)": {
        "details": "Function that computes selling price in reserve tokens given an amount in traded token.",
        "params": {
          "_amountProduct": "selling amount in product token"
        },
        "returns": {
          "soldAmount": "             total amount that will be transferred to the seller (with 2% platform fee)."
        }
      },
      "decimals()": {
        "details": "Returns the number of decimals used to get its user representation. For example, if `decimals` equals `2`, a balance of `505` tokens should be displayed to a user as `5,05` (`505 / 10 ** 2`). Tokens usually opt for a value of 18, imitating the relationship between Ether and Wei. This is the value {ERC20} uses, unless this function is overloaded; NOTE: This information is only used for _display_ purposes: it in no way affects any of the arithmetic of the contract, including {IERC20-balanceOf} and {IERC20-transfer}."
      },
      "decreaseAllowance(address,uint256)": {
        "details": "Atomically decreases the allowance granted to `spender` by the caller. This is an alternative to {approve} that can be used as a mitigation for problems described in {IERC20-approve}. Emits an {Approval} event indicating the updated allowance. Requirements: - `spender` cannot be the zero address. - `spender` must have allowance for the caller of at least `subtractedValue`."
      },
      "getAvailability()": {
        "details": "Function to check how many tokens of this product are currently available for purchase, by taking the difference between max cap count and current token in circulation or burned.",
        "returns": {
          "available": "               the number of tokens available"
        }
      },
      "getCurrentPrice()": {
        "details": "Function that computes current price for a token through bonding curve calculation based on parameters such as total supply, reserve balance, and reserve ratio.",
        "returns": {
          "price": "                  current price in reserve token (in our case, this is dai). (with 4% platform fee)"
        }
      },
      "getEscrowHistory(address)": {
        "details": "Return the list of all escrows created for a certain user",
        "params": {
          "_buyer": "The address of the buyer"
        },
        "returns": {
          "_0": "A list of past escrows"
        }
      },
      "getPriceForN(uint32)": {
        "details": "Function that computes price total for buying n token through bonding curve calculation based on parameters such as total supply, reserve balance, and reserve ratio.",
        "params": {
          "_amountProduct": "token amount in traded token"
        },
        "returns": {
          "price": "                  total price in reserve token (in our case, this is dai). (with 4% platform fee)"
        }
      },
      "getRedeemStatus(address,uint256)": {
        "details": "Get status of a particular redemption process",
        "params": {
          "_buyer": "The address of the buyer",
          "_id": "The cached id of the escrow, retrieved from database"
        },
        "returns": {
          "_0": "The current status"
        }
      },
      "getSupplierBalance()": {
        "details": "this function returns the amount of reserve balance that the supplier can withdraw from the dapp."
      },
      "increaseAllowance(address,uint256)": {
        "details": "Atomically increases the allowance granted to `spender` by the caller. This is an alternative to {approve} that can be used as a mitigation for problems described in {IERC20-approve}. Emits an {Approval} event indicating the updated allowance. Requirements: - `spender` cannot be the zero address."
      },
      "initialize(string,string,address,uint32,uint32,uint32,uint256)": {
        "details": "initializer function.",
        "params": {
          "_baseReserve": "the base amount of reserve tokens, in accordance to _supplyOffset.",
          "_maxTokenCount": "the amount of token that will exist for this type.",
          "_name": "the name of this token",
          "_reserveRatio": "the reserve ratio in the curve function. Number in parts per million",
          "_supplyOffset": "this amount is used to determine initial price.",
          "_symbol": "the symbol of this token"
        }
      },
      "isStateCompleted(uint8)": {
        "details": "Helper function to check whether a escrow state is completed",
        "params": {
          "_state": "The state to be checked"
        }
      },
      "launch()": {
        "details": "requires function to be called from owner. this enables customers to buy, sell, or redeem the product."
      },
      "name()": {
        "details": "Returns the name of the token."
      },
      "owner()": {
        "details": "Returns the address of the current owner."
      },
      "pause()": {
        "details": "requires function to be called from owner. this prevents customers from buying, selling, or redeeming the product."
      },
      "renounceOwnership()": {
        "details": "Leaves the contract without owner. It will not be possible to call `onlyOwner` functions anymore. Can only be called by the current owner. NOTE: Renouncing ownership will leave the contract without an owner, thereby removing any functionality that is only available to the owner."
      },
      "setBondingCurve(address)": {
        "details": "requires function to be called from owner. sets a bonding curve implementation for this product.",
        "params": {
          "_address": "the address of the bonding curve implementation"
        }
      },
      "symbol()": {
        "details": "Returns the symbol of the token, usually a shorter version of the name."
      },
      "totalSupply()": {
        "details": "See {IERC20-totalSupply}."
      },
      "tradein(uint32,bool)": {
        "details": "When user wants to trade in their token for retail product",
        "params": {
          "amount_": "amount of tokens that user wants to trade in."
        }
      },
      "transfer(address,uint256)": {
        "details": "See {IERC20-transfer}. Requirements: - `recipient` cannot be the zero address. - the caller must have a balance of at least `amount`."
      },
      "transferFrom(address,address,uint256)": {
        "details": "See {IERC20-transferFrom}. Emits an {Approval} event indicating the updated allowance. This is not required by the EIP. See the note at the beginning of {ERC20}. Requirements: - `sender` and `recipient` cannot be the zero address. - `sender` must have a balance of at least `amount`. - the caller must have allowance for ``sender``'s tokens of at least `amount`."
      },
      "transferOwnership(address)": {
        "details": "Transfers ownership of the contract to a new account (`newOwner`). Can only be called by the current owner."
      },
      "updateUserCompleted(address,uint256)": {
        "details": "used to update the status of redemption to \"User Complete\" after an escrow process has been started.",
        "params": {
          "buyer": "the wallet address of product buyer",
          "id": "the id of the escrow, returned to the user after starting of redemption process"
        }
      },
      "updateUserRefund(address,uint256)": {
        "details": "used to update the status of redemption to \"User Refunded\" after an escrow process has been started.",
        "params": {
          "buyer": "the wallet address of product buyer",
          "id": "the id of the escrow, returned to the user after starting of redemption process"
        }
      },
      "withdrawEther(uint256)": {
        "details": "A method allow us to withdraw liquidity (eth) from the contract Since eth is not used as a return currency, we need to withdraw eth from the system.",
        "params": {
          "value_": "the value of ether"
        }
      }
    },
    "version": 1
  },
  "userdoc": {
    "kind": "user",
    "methods": {},
    "version": 1
  }
}