{
  "contractName": "ProductUpgradeableBeacon",
  "abi": [
    {
      "inputs": [
        {
          "internalType": "address",
          "name": "_implementation",
          "type": "address"
        }
      ],
      "stateMutability": "nonpayable",
      "type": "constructor"
    },
    {
      "anonymous": false,
      "inputs": [
        {
          "indexed": true,
          "internalType": "address",
          "name": "previousOwner",
          "type": "address"
        },
        {
          "indexed": true,
          "internalType": "address",
          "name": "newOwner",
          "type": "address"
        }
      ],
      "name": "OwnershipTransferred",
      "type": "event"
    },
    {
      "anonymous": false,
      "inputs": [
        {
          "indexed": true,
          "internalType": "address",
          "name": "implementation",
          "type": "address"
        }
      ],
      "name": "Upgraded",
      "type": "event"
    },
    {
      "inputs": [],
      "name": "implementation",
      "outputs": [
        {
          "internalType": "address",
          "name": "",
          "type": "address"
        }
      ],
      "stateMutability": "view",
      "type": "function"
    },
    {
      "inputs": [],
      "name": "owner",
      "outputs": [
        {
          "internalType": "address",
          "name": "",
          "type": "address"
        }
      ],
      "stateMutability": "view",
      "type": "function"
    },
    {
      "inputs": [],
      "name": "renounceOwnership",
      "outputs": [],
      "stateMutability": "nonpayable",
      "type": "function"
    },
    {
      "inputs": [
        {
          "internalType": "address",
          "name": "newOwner",
          "type": "address"
        }
      ],
      "name": "transferOwnership",
      "outputs": [],
      "stateMutability": "nonpayable",
      "type": "function"
    },
    {
      "inputs": [
        {
          "internalType": "address",
          "name": "newImplementation",
          "type": "address"
        }
      ],
      "name": "upgradeTo",
      "outputs": [],
      "stateMutability": "nonpayable",
      "type": "function"
    }
  ],
  "bytecode": "0x608060405234801561001057600080fd5b506040516105bf3803806105bf83398101604081905261002f91610178565b8060006100436401000000006100a6810204565b60008054600160a060020a031916600160a060020a0383169081178255604051929350917f8be0079c531659141344cd1fd0a4f28419497f9722a3daafe3b4186f6b6457e0908290a35061009f816401000000006100aa810204565b50506101a6565b3390565b6100c0816401000000006102d261017282021704565b610150576040517f08c379a000000000000000000000000000000000000000000000000000000000815260206004820152603360248201527f5570677261646561626c65426561636f6e3a20696d706c656d656e746174696f60448201527f6e206973206e6f74206120636f6e747261637400000000000000000000000000606482015260840160405180910390fd5b60018054600160a060020a031916600160a060020a0392909216919091179055565b3b151590565b600060208284031215610189578081fd5b8151600160a060020a038116811461019f578182fd5b9392505050565b61040a806101b56000396000f3fe608060405234801561001057600080fd5b506004361061005a5760e060020a60003504633659cfe6811461005f5780635c60da1b14610074578063715018a61461009d5780638da5cb5b146100a5578063f2fde38b146100ad575b600080fd5b61007261006d366004610371565b6100c0565b005b600154600160a060020a03165b604051600160a060020a03909116815260200160405180910390f35b61007261013b565b6100816101b7565b6100726100bb366004610371565b6101c6565b336100c96101b7565b600160a060020a0316146100fb5760405160e560020a62461bcd0281526004016100f29061039f565b60405180910390fd5b610104816102d8565b604051600160a060020a038216907fbc7cd75a20ee27fd9adebab32041f755214dbc6bffa90cc0225b39da2e5c2d3b90600090a250565b336101446101b7565b600160a060020a03161461016d5760405160e560020a62461bcd0281526004016100f29061039f565b60008054604051600160a060020a03909116907f8be0079c531659141344cd1fd0a4f28419497f9722a3daafe3b4186f6b6457e0908390a360008054600160a060020a0319169055565b600054600160a060020a031690565b336101cf6101b7565b600160a060020a0316146101f85760405160e560020a62461bcd0281526004016100f29061039f565b600160a060020a0381166102775760405160e560020a62461bcd02815260206004820152602660248201527f4f776e61626c653a206e6577206f776e657220697320746865207a65726f206160448201527f646472657373000000000000000000000000000000000000000000000000000060648201526084016100f2565b60008054604051600160a060020a03808516939216917f8be0079c531659141344cd1fd0a4f28419497f9722a3daafe3b4186f6b6457e091a360008054600160a060020a031916600160a060020a0392909216919091179055565b3b151590565b803b61034f5760405160e560020a62461bcd02815260206004820152603360248201527f5570677261646561626c65426561636f6e3a20696d706c656d656e746174696f60448201527f6e206973206e6f74206120636f6e74726163740000000000000000000000000060648201526084016100f2565b60018054600160a060020a031916600160a060020a0392909216919091179055565b600060208284031215610382578081fd5b8135600160a060020a0381168114610398578182fd5b9392505050565b6020808252818101527f4f776e61626c653a2063616c6c6572206973206e6f7420746865206f776e657260408201526060019056fea2646970667358221220842e1057f10bb42cc8307255cc1fb516908440e962e99108e51a817df48eeddb64736f6c63430008030033",
  "immutableReferences": {},
  "source": "pragma solidity ^0.8.2;\n\nimport \"@openzeppelin/contracts/proxy/beacon/UpgradeableBeacon.sol\";\nimport \"@openzeppelin/contracts/access/Ownable.sol\";\n\n/// @title ProductUpgradeableBeacon\n/// @notice This is will be retired. There is no need to create a custom implementation of the UpgradeableBeacon.\ncontract ProductUpgradeableBeacon is UpgradeableBeacon{\n    \n  /**\n   * @dev constructor function.\n   *\n   * @param _implementation             \taddress for the implementation logic\n   *\n  */\n    constructor(address _implementation) UpgradeableBeacon(_implementation) public {\n    \n    }\n}",
  "sourcePath": "/Users/jack/Documents/GitHub/HighStreet/client/src/contracts/Mock/ProductUpgradeableBeancon.sol",
  "compiler": {
    "name": "solc",
    "version": "0.8.3+commit.8d00100c.Emscripten.clang"
  },
  "schemaVersion": "3.4.0",
  "updatedAt": "2021-09-16T14:56:36.252Z",
  "devdoc": {
    "kind": "dev",
    "methods": {
      "constructor": {
        "details": "constructor function.",
        "params": {
          "_implementation": "address for the implementation logic"
        }
      },
      "implementation()": {
        "details": "Returns the current implementation address."
      },
      "owner()": {
        "details": "Returns the address of the current owner."
      },
      "renounceOwnership()": {
        "details": "Leaves the contract without owner. It will not be possible to call `onlyOwner` functions anymore. Can only be called by the current owner. NOTE: Renouncing ownership will leave the contract without an owner, thereby removing any functionality that is only available to the owner."
      },
      "transferOwnership(address)": {
        "details": "Transfers ownership of the contract to a new account (`newOwner`). Can only be called by the current owner."
      },
      "upgradeTo(address)": {
        "details": "Upgrades the beacon to a new implementation. Emits an {Upgraded} event. Requirements: - msg.sender must be the owner of the contract. - `newImplementation` must be a contract."
      }
    },
    "title": "ProductUpgradeableBeacon",
    "version": 1
  },
  "userdoc": {
    "kind": "user",
    "methods": {},
    "notice": "This is will be retired. There is no need to create a custom implementation of the UpgradeableBeacon.",
    "version": 1
  }
}