{
  "contractName": "ProductTokenV3",
  "abi": [
    {
      "anonymous": false,
      "inputs": [
        {
          "indexed": true,
          "internalType": "address",
          "name": "owner",
          "type": "address"
        },
        {
          "indexed": true,
          "internalType": "address",
          "name": "spender",
          "type": "address"
        },
        {
          "indexed": false,
          "internalType": "uint256",
          "name": "value",
          "type": "uint256"
        }
      ],
      "name": "Approval",
      "type": "event"
    },
    {
      "anonymous": false,
      "inputs": [
        {
          "indexed": true,
          "internalType": "address",
          "name": "sender",
          "type": "address"
        },
        {
          "indexed": false,
          "internalType": "uint32",
          "name": "amount",
          "type": "uint32"
        },
        {
          "indexed": false,
          "internalType": "uint256",
          "name": "deposit",
          "type": "uint256"
        }
      ],
      "name": "Buy",
      "type": "event"
    },
    {
      "anonymous": false,
      "inputs": [
        {
          "indexed": true,
          "internalType": "address",
          "name": "previousOwner",
          "type": "address"
        },
        {
          "indexed": true,
          "internalType": "address",
          "name": "newOwner",
          "type": "address"
        }
      ],
      "name": "OwnershipTransferred",
      "type": "event"
    },
    {
      "anonymous": false,
      "inputs": [
        {
          "indexed": true,
          "internalType": "address",
          "name": "sender",
          "type": "address"
        },
        {
          "indexed": false,
          "internalType": "uint32",
          "name": "amount",
          "type": "uint32"
        },
        {
          "indexed": false,
          "internalType": "uint256",
          "name": "refund",
          "type": "uint256"
        }
      ],
      "name": "Sell",
      "type": "event"
    },
    {
      "anonymous": false,
      "inputs": [
        {
          "indexed": false,
          "internalType": "bool",
          "name": "isTradable",
          "type": "bool"
        }
      ],
      "name": "Tradable",
      "type": "event"
    },
    {
      "anonymous": false,
      "inputs": [
        {
          "indexed": true,
          "internalType": "address",
          "name": "sender",
          "type": "address"
        },
        {
          "indexed": false,
          "internalType": "uint32",
          "name": "amount",
          "type": "uint32"
        }
      ],
      "name": "Tradein",
      "type": "event"
    },
    {
      "anonymous": false,
      "inputs": [
        {
          "indexed": true,
          "internalType": "address",
          "name": "from",
          "type": "address"
        },
        {
          "indexed": true,
          "internalType": "address",
          "name": "to",
          "type": "address"
        },
        {
          "indexed": false,
          "internalType": "uint256",
          "name": "value",
          "type": "uint256"
        }
      ],
      "name": "Transfer",
      "type": "event"
    },
    {
      "anonymous": false,
      "inputs": [
        {
          "indexed": false,
          "internalType": "address",
          "name": "",
          "type": "address"
        },
        {
          "indexed": false,
          "internalType": "uint256",
          "name": "",
          "type": "uint256"
        },
        {
          "components": [
            {
              "internalType": "enum Escrow.escrowState",
              "name": "state",
              "type": "uint8"
            },
            {
              "internalType": "uint32",
              "name": "amount",
              "type": "uint32"
            },
            {
              "internalType": "uint256",
              "name": "value",
              "type": "uint256"
            }
          ],
          "indexed": false,
          "internalType": "struct Escrow.escrowInfo",
          "name": "",
          "type": "tuple"
        }
      ],
      "name": "escrowStateUpdated",
      "type": "event"
    },
    {
      "stateMutability": "nonpayable",
      "type": "fallback"
    },
    {
      "inputs": [
        {
          "internalType": "address",
          "name": "owner",
          "type": "address"
        },
        {
          "internalType": "address",
          "name": "spender",
          "type": "address"
        }
      ],
      "name": "allowance",
      "outputs": [
        {
          "internalType": "uint256",
          "name": "",
          "type": "uint256"
        }
      ],
      "stateMutability": "view",
      "type": "function"
    },
    {
      "inputs": [
        {
          "internalType": "address",
          "name": "spender",
          "type": "address"
        },
        {
          "internalType": "uint256",
          "name": "amount",
          "type": "uint256"
        }
      ],
      "name": "approve",
      "outputs": [
        {
          "internalType": "bool",
          "name": "",
          "type": "bool"
        }
      ],
      "stateMutability": "nonpayable",
      "type": "function"
    },
    {
      "inputs": [
        {
          "internalType": "address",
          "name": "account",
          "type": "address"
        }
      ],
      "name": "balanceOf",
      "outputs": [
        {
          "internalType": "uint256",
          "name": "",
          "type": "uint256"
        }
      ],
      "stateMutability": "view",
      "type": "function"
    },
    {
      "inputs": [
        {
          "internalType": "uint256",
          "name": "maxPrice_",
          "type": "uint256"
        }
      ],
      "name": "buy",
      "outputs": [],
      "stateMutability": "nonpayable",
      "type": "function"
    },
    {
      "inputs": [
        {
          "internalType": "uint256",
          "name": "_amountReserve",
          "type": "uint256"
        }
      ],
      "name": "calculateBuyReturn",
      "outputs": [
        {
          "internalType": "uint32",
          "name": "mintAmount",
          "type": "uint32"
        }
      ],
      "stateMutability": "view",
      "type": "function"
    },
    {
      "inputs": [
        {
          "internalType": "uint32",
          "name": "_amountProduct",
          "type": "uint32"
        }
      ],
      "name": "calculateSellReturn",
      "outputs": [
        {
          "internalType": "uint256",
          "name": "soldAmount",
          "type": "uint256"
        }
      ],
      "stateMutability": "view",
      "type": "function"
    },
    {
      "inputs": [
        {
          "internalType": "uint32",
          "name": "_amount",
          "type": "uint32"
        }
      ],
      "name": "calculateTradinReturn",
      "outputs": [
        {
          "internalType": "uint256",
          "name": "",
          "type": "uint256"
        }
      ],
      "stateMutability": "view",
      "type": "function"
    },
    {
      "inputs": [
        {
          "internalType": "uint256",
          "name": "amount_",
          "type": "uint256"
        }
      ],
      "name": "claimSupplier",
      "outputs": [],
      "stateMutability": "nonpayable",
      "type": "function"
    },
    {
      "inputs": [],
      "name": "decimals",
      "outputs": [
        {
          "internalType": "uint8",
          "name": "",
          "type": "uint8"
        }
      ],
      "stateMutability": "view",
      "type": "function"
    },
    {
      "inputs": [
        {
          "internalType": "address",
          "name": "spender",
          "type": "address"
        },
        {
          "internalType": "uint256",
          "name": "subtractedValue",
          "type": "uint256"
        }
      ],
      "name": "decreaseAllowance",
      "outputs": [
        {
          "internalType": "bool",
          "name": "",
          "type": "bool"
        }
      ],
      "stateMutability": "nonpayable",
      "type": "function"
    },
    {
      "inputs": [
        {
          "internalType": "address",
          "name": "",
          "type": "address"
        },
        {
          "internalType": "uint256",
          "name": "",
          "type": "uint256"
        }
      ],
      "name": "escrowList",
      "outputs": [
        {
          "internalType": "enum Escrow.escrowState",
          "name": "state",
          "type": "uint8"
        },
        {
          "internalType": "uint32",
          "name": "amount",
          "type": "uint32"
        },
        {
          "internalType": "uint256",
          "name": "value",
          "type": "uint256"
        }
      ],
      "stateMutability": "view",
      "type": "function"
    },
    {
      "inputs": [],
      "name": "getAvailability",
      "outputs": [
        {
          "internalType": "uint32",
          "name": "available",
          "type": "uint32"
        }
      ],
      "stateMutability": "view",
      "type": "function"
    },
    {
      "inputs": [],
      "name": "getCurrentPrice",
      "outputs": [
        {
          "internalType": "uint256",
          "name": "price",
          "type": "uint256"
        }
      ],
      "stateMutability": "view",
      "type": "function"
    },
    {
      "inputs": [
        {
          "internalType": "address",
          "name": "_buyer",
          "type": "address"
        }
      ],
      "name": "getEscrowHistory",
      "outputs": [
        {
          "components": [
            {
              "internalType": "enum Escrow.escrowState",
              "name": "state",
              "type": "uint8"
            },
            {
              "internalType": "uint32",
              "name": "amount",
              "type": "uint32"
            },
            {
              "internalType": "uint256",
              "name": "value",
              "type": "uint256"
            }
          ],
          "internalType": "struct Escrow.escrowInfo[]",
          "name": "",
          "type": "tuple[]"
        }
      ],
      "stateMutability": "view",
      "type": "function"
    },
    {
      "inputs": [],
      "name": "getManager",
      "outputs": [
        {
          "internalType": "address",
          "name": "",
          "type": "address"
        }
      ],
      "stateMutability": "view",
      "type": "function"
    },
    {
      "inputs": [],
      "name": "getNewAttribute",
      "outputs": [
        {
          "internalType": "uint256",
          "name": "",
          "type": "uint256"
        }
      ],
      "stateMutability": "view",
      "type": "function"
    },
    {
      "inputs": [
        {
          "internalType": "uint32",
          "name": "_amountProduct",
          "type": "uint32"
        }
      ],
      "name": "getPriceForN",
      "outputs": [
        {
          "internalType": "uint256",
          "name": "price",
          "type": "uint256"
        }
      ],
      "stateMutability": "view",
      "type": "function"
    },
    {
      "inputs": [
        {
          "internalType": "address",
          "name": "_buyer",
          "type": "address"
        },
        {
          "internalType": "uint256",
          "name": "_id",
          "type": "uint256"
        }
      ],
      "name": "getRedeemStatus",
      "outputs": [
        {
          "internalType": "enum Escrow.escrowState",
          "name": "",
          "type": "uint8"
        }
      ],
      "stateMutability": "view",
      "type": "function"
    },
    {
      "inputs": [],
      "name": "getSupplierBalance",
      "outputs": [
        {
          "internalType": "uint256",
          "name": "",
          "type": "uint256"
        }
      ],
      "stateMutability": "view",
      "type": "function"
    },
    {
      "inputs": [
        {
          "internalType": "address",
          "name": "spender",
          "type": "address"
        },
        {
          "internalType": "uint256",
          "name": "addedValue",
          "type": "uint256"
        }
      ],
      "name": "increaseAllowance",
      "outputs": [
        {
          "internalType": "bool",
          "name": "",
          "type": "bool"
        }
      ],
      "stateMutability": "nonpayable",
      "type": "function"
    },
    {
      "inputs": [
        {
          "internalType": "string",
          "name": "_name",
          "type": "string"
        },
        {
          "internalType": "string",
          "name": "_symbol",
          "type": "string"
        },
        {
          "internalType": "address",
          "name": "_bondingCurveAddress",
          "type": "address"
        },
        {
          "internalType": "uint32",
          "name": "_reserveRatio",
          "type": "uint32"
        },
        {
          "internalType": "uint32",
          "name": "_maxTokenCount",
          "type": "uint32"
        },
        {
          "internalType": "uint32",
          "name": "_supplyOffset",
          "type": "uint32"
        },
        {
          "internalType": "uint256",
          "name": "_baseReserve",
          "type": "uint256"
        }
      ],
      "name": "initialize",
      "outputs": [],
      "stateMutability": "nonpayable",
      "type": "function"
    },
    {
      "inputs": [
        {
          "internalType": "enum Escrow.escrowState",
          "name": "_state",
          "type": "uint8"
        }
      ],
      "name": "isStateCompleted",
      "outputs": [
        {
          "internalType": "bool",
          "name": "",
          "type": "bool"
        }
      ],
      "stateMutability": "pure",
      "type": "function"
    },
    {
      "inputs": [],
      "name": "launch",
      "outputs": [],
      "stateMutability": "nonpayable",
      "type": "function"
    },
    {
      "inputs": [],
      "name": "maxTokenCount",
      "outputs": [
        {
          "internalType": "uint32",
          "name": "",
          "type": "uint32"
        }
      ],
      "stateMutability": "view",
      "type": "function"
    },
    {
      "inputs": [],
      "name": "name",
      "outputs": [
        {
          "internalType": "string",
          "name": "",
          "type": "string"
        }
      ],
      "stateMutability": "view",
      "type": "function"
    },
    {
      "inputs": [],
      "name": "newAttribute",
      "outputs": [
        {
          "internalType": "uint256",
          "name": "",
          "type": "uint256"
        }
      ],
      "stateMutability": "view",
      "type": "function"
    },
    {
      "inputs": [],
      "name": "owner",
      "outputs": [
        {
          "internalType": "address",
          "name": "",
          "type": "address"
        }
      ],
      "stateMutability": "view",
      "type": "function"
    },
    {
      "inputs": [],
      "name": "pause",
      "outputs": [],
      "stateMutability": "nonpayable",
      "type": "function"
    },
    {
      "inputs": [],
      "name": "renounceOwnership",
      "outputs": [],
      "stateMutability": "nonpayable",
      "type": "function"
    },
    {
      "inputs": [],
      "name": "reserveBalance",
      "outputs": [
        {
          "internalType": "uint256",
          "name": "",
          "type": "uint256"
        }
      ],
      "stateMutability": "view",
      "type": "function"
    },
    {
      "inputs": [],
      "name": "reserveRatio",
      "outputs": [
        {
          "internalType": "uint32",
          "name": "",
          "type": "uint32"
        }
      ],
      "stateMutability": "view",
      "type": "function"
    },
    {
      "inputs": [
        {
          "internalType": "uint32",
          "name": "amount_",
          "type": "uint32"
        }
      ],
      "name": "sell",
      "outputs": [],
      "stateMutability": "nonpayable",
      "type": "function"
    },
    {
      "inputs": [
        {
          "internalType": "address",
          "name": "_address",
          "type": "address"
        }
      ],
      "name": "setBondingCurve",
      "outputs": [],
      "stateMutability": "nonpayable",
      "type": "function"
    },
    {
      "inputs": [
        {
          "internalType": "address",
          "name": "highAddress_",
          "type": "address"
        }
      ],
      "name": "setHigh",
      "outputs": [],
      "stateMutability": "nonpayable",
      "type": "function"
    },
    {
      "inputs": [
        {
          "internalType": "address",
          "name": "addr_",
          "type": "address"
        }
      ],
      "name": "setManager",
      "outputs": [],
      "stateMutability": "nonpayable",
      "type": "function"
    },
    {
      "inputs": [],
      "name": "supplier",
      "outputs": [
        {
          "internalType": "uint256",
          "name": "amount",
          "type": "uint256"
        },
        {
          "internalType": "address",
          "name": "wallet",
          "type": "address"
        }
      ],
      "stateMutability": "view",
      "type": "function"
    },
    {
      "inputs": [],
      "name": "symbol",
      "outputs": [
        {
          "internalType": "string",
          "name": "",
          "type": "string"
        }
      ],
      "stateMutability": "view",
      "type": "function"
    },
    {
      "inputs": [],
      "name": "totalSupply",
      "outputs": [
        {
          "internalType": "uint256",
          "name": "",
          "type": "uint256"
        }
      ],
      "stateMutability": "view",
      "type": "function"
    },
    {
      "inputs": [
        {
          "internalType": "uint32",
          "name": "amount_",
          "type": "uint32"
        }
      ],
      "name": "tradein",
      "outputs": [],
      "stateMutability": "nonpayable",
      "type": "function"
    },
    {
      "inputs": [],
      "name": "tradeinCount",
      "outputs": [
        {
          "internalType": "uint32",
          "name": "",
          "type": "uint32"
        }
      ],
      "stateMutability": "view",
      "type": "function"
    },
    {
      "inputs": [],
      "name": "tradeinReserveBalance",
      "outputs": [
        {
          "internalType": "uint256",
          "name": "",
          "type": "uint256"
        }
      ],
      "stateMutability": "view",
      "type": "function"
    },
    {
      "inputs": [
        {
          "internalType": "address",
          "name": "recipient",
          "type": "address"
        },
        {
          "internalType": "uint256",
          "name": "amount",
          "type": "uint256"
        }
      ],
      "name": "transfer",
      "outputs": [
        {
          "internalType": "bool",
          "name": "",
          "type": "bool"
        }
      ],
      "stateMutability": "nonpayable",
      "type": "function"
    },
    {
      "inputs": [
        {
          "internalType": "address",
          "name": "sender",
          "type": "address"
        },
        {
          "internalType": "address",
          "name": "recipient",
          "type": "address"
        },
        {
          "internalType": "uint256",
          "name": "amount",
          "type": "uint256"
        }
      ],
      "name": "transferFrom",
      "outputs": [
        {
          "internalType": "bool",
          "name": "",
          "type": "bool"
        }
      ],
      "stateMutability": "nonpayable",
      "type": "function"
    },
    {
      "inputs": [
        {
          "internalType": "address",
          "name": "newOwner",
          "type": "address"
        }
      ],
      "name": "transferOwnership",
      "outputs": [],
      "stateMutability": "nonpayable",
      "type": "function"
    },
    {
      "inputs": [
        {
          "internalType": "address",
          "name": "wallet_",
          "type": "address"
        }
      ],
      "name": "updateSupplierInfo",
      "outputs": [],
      "stateMutability": "nonpayable",
      "type": "function"
    },
    {
      "inputs": [
        {
          "internalType": "address",
          "name": "buyer",
          "type": "address"
        },
        {
          "internalType": "uint256",
          "name": "id",
          "type": "uint256"
        }
      ],
      "name": "updateUserCompleted",
      "outputs": [],
      "stateMutability": "nonpayable",
      "type": "function"
    },
    {
      "inputs": [
        {
          "internalType": "address",
          "name": "buyer",
          "type": "address"
        },
        {
          "internalType": "uint256",
          "name": "id",
          "type": "uint256"
        }
      ],
      "name": "updateUserRefund",
      "outputs": [],
      "stateMutability": "nonpayable",
      "type": "function"
    },
    {
      "inputs": [],
      "name": "voucher",
      "outputs": [
        {
          "internalType": "address",
          "name": "addr",
          "type": "address"
        },
        {
          "internalType": "uint256",
          "name": "tokenId",
          "type": "uint256"
        }
      ],
      "stateMutability": "view",
      "type": "function"
    },
    {
      "inputs": [
        {
          "internalType": "uint256",
          "name": "amount_",
          "type": "uint256"
        },
        {
          "internalType": "address",
          "name": "to_",
          "type": "address"
        }
      ],
      "name": "withdrawHigh",
      "outputs": [],
      "stateMutability": "nonpayable",
      "type": "function"
    },
    {
      "inputs": [
        {
          "internalType": "string",
          "name": "_name",
          "type": "string"
        },
        {
          "internalType": "string",
          "name": "_symbol",
          "type": "string"
        },
        {
          "internalType": "uint32",
          "name": "_reserveRatio",
          "type": "uint32"
        },
        {
          "internalType": "uint32",
          "name": "_maxTokenCount",
          "type": "uint32"
        },
        {
          "internalType": "uint32",
          "name": "_supplyOffset",
          "type": "uint32"
        },
        {
          "internalType": "uint256",
          "name": "_baseReserve",
          "type": "uint256"
        },
        {
          "internalType": "uint256",
          "name": "_newInitValue",
          "type": "uint256"
        },
        {
          "internalType": "address",
          "name": "_daiAddress",
          "type": "address"
        },
        {
          "internalType": "address",
          "name": "_chainlink",
          "type": "address"
        }
      ],
      "name": "initializeV3",
      "outputs": [],
      "stateMutability": "nonpayable",
      "type": "function"
    }
  ],
  "bytecode": "0x608060405234801561001057600080fd5b50613c4d806100206000396000f3fe608060405234801561001057600080fd5b506004361061027a5760003560e060020a900480638456cb5911610156578063cdda418c116100cd578063cdda418c1461054a578063d0ebdbe71461056f578063d500958414610582578063d96a094a14610593578063dd304b1a146105a6578063dd62ed3e146105c6578063deebbef1146105ff578063e67dc51814610612578063eb91d37e1461061b578063ebc9e4d614610623578063efea8a1314610636578063f2fde38b14610649578063f97511d31461065c5761027a565b80638456cb59146104775780638da5cb5b1461047f57806395d89b4114610494578063964a6afe1461049c5780639b9ffbf3146104a4578063a10954fe146104c6578063a457c2d7146104cf578063a8d92629146104e2578063a9059cbb146104f5578063ba7a93b614610508578063c4e627c21461051f578063c757d4c7146105375761027a565b806339509351116101f5578063395093511461039357806343ff1fb8146103a6578063483335a1146103b9578063491052cd146103c25780634ffd23a7146103d55780635c8ea093146103e85780635e88752c146103fb57806363c51fbb1461040e5780636e74607b1461042157806370a0823114610441578063715018a6146104545780637a53e0401461045c578063828f3a9c146104645761027a565b806301339c211461027c57806306fdde0314610284578063095ea7b3146102a25780630c7d5cd8146102c55780630ccee99b146102ea57806318160ddd146102fd57806319d5b5871461030f578063224e4f481461032257806323b872dd146103355780632f0a3fe414610348578063313ce5671461035057806336da44681461035f575b005b61027a61066f565b61028c610757565b60405161029991906137af565b60405180910390f35b6102b56102b03660046133d1565b6107e9565b6040519015158152602001610299565b609b546102d59063ffffffff1681565b60405163ffffffff9091168152602001610299565b61027a6102f83660046133d1565b610800565b6035545b604051908152602001610299565b61030161031d36600461360c565b610887565b61030161033036600461360c565b610988565b6102b5610343366004613396565b6109ad565b610301610a76565b60405160008152602001610299565b609e54609f546103769190600160a060020a031682565b60408051928352600160a060020a03909116602083015201610299565b6102b56103a13660046133d1565b610a8c565b61027a6103b436600461334a565b610ac3565b61030160a35481565b6102b56103d036600461341a565b610b40565b61027a6103e336600461360c565b610b9a565b61027a6103f63660046134ee565b610d1c565b61027a6104093660046135ba565b610d94565b61027a61041c36600461360c565b610efa565b61043461042f36600461334a565b61109f565b604051610299919061372e565b61030161044f36600461334a565b611185565b61027a6111a0565b6102d561120a565b6102d56104723660046135ba565b611256565b61027a61126a565b61048761133b565b6040516102999190613690565b61028c61134a565b609e54610301565b6104b76104b23660046133d1565b611359565b6040516102999392919061378a565b61030160995481565b6102b56104dd3660046133d1565b6113a4565b61027a6104f036600461334a565b611445565b6102b56105033660046133d1565b6114c2565b609b546102d590604060020a900463ffffffff1681565b609b546102d590640100000000900463ffffffff1681565b61027a6105453660046133d1565b6114cf565b60a05460a15461056191600160a060020a03169082565b6040516102999291906136a4565b61027a61057d36600461334a565b6115b8565b609c54600160a060020a0316610487565b61027a6105a13660046135ba565b611635565b6105b96105b43660046133d1565b6118f4565b604051610299919061377c565b6103016105d4366004613364565b600160a060020a03918216600090815260346020908152604080832093909416825291909152205490565b61027a61060d36600461334a565b61194a565b610301609a5481565b6103016119f7565b61027a6106313660046135ea565b611a03565b61027a610644366004613439565b611b8a565b61027a61065736600461334a565b611c1f565b61030161066a36600461360c565b611d1a565b3361067861133b565b600160a060020a0316146106aa5760405160e560020a62461bcd0281526004016106a1906139a9565b60405180910390fd5b60985460ff16156107115760405160e560020a62461bcd02815260206004820152602560248201527f5468652070726f6475637420746f6b656e20697320616c7265616479206c6175604482015260da60020a641b98da19590260648201526084016106a1565b6098805460ff191660019081179091556040519081527f65c5ccecef030677b73a1403e7e69ef84d05db9d1732959d543d32f4419909b8906020015b60405180910390a1565b60606036805461076690613b32565b80601f016020809104026020016040519081016040528092919081815260200182805461079290613b32565b80156107df5780601f106107b4576101008083540402835291602001916107df565b820191906000526020600020905b8154815290600101906020018083116107c257829003601f168201915b5050505050905090565b60006107f6338484611dc1565b5060015b92915050565b61080861133b565b600160a060020a031633600160a060020a031614806108315750609c54600160a060020a031633145b6108505760405160e560020a62461bcd0281526004016106a190613972565b600160a060020a0382166108795760405160e560020a62461bcd0281526004016106a190613839565b6108838282611ef2565b5050565b6000808263ffffffff16116108b15760405160e560020a62461bcd0281526004016106a1906138a7565b609b546000906108e89063ffffffff606060020a82048116916108e29187811691604060020a900481169061206b16565b9061206b565b609d54609a54609b5460405160e060020a631c949873028152939450600160a060020a0390921692631c9498739261092f928692909163ffffffff16908990600401613a4c565b60206040518083038186803b15801561094757600080fd5b505afa15801561095b573d6000803e3d6000fd5b505050506040513d601f19601f8201168201806040525081019061097f91906135d2565b9150505b919050565b60008060006109968461207e565b90925090506109a58282612141565b949350505050565b60006109ba84848461214d565b600160a060020a038416600090815260346020908152604080832033845290915290205482811015610a575760405160e560020a62461bcd02815260206004820152602860248201527f45524332303a207472616e7366657220616d6f756e742065786365656473206160448201527f6c6c6f77616e636500000000000000000000000000000000000000000000000060648201526084016106a1565b610a6b8533610a668685613af6565b611dc1565b506001949350505050565b600060a3546001610a879190613a74565b905090565b336000818152603460209081526040808320600160a060020a038716845290915281205490916107f6918590610a66908690613a74565b33610acc61133b565b600160a060020a031614610af55760405160e560020a62461bcd0281526004016106a1906139a9565b600160a060020a038116610b1e5760405160e560020a62461bcd0281526004016106a190613802565b609d8054600160a060020a031916600160a060020a0392909216919091179055565b60006003826003811115610b675760e060020a634e487b7102600052602160045260246000fd5b14806107fa57506002826003811115610b935760e060020a634e487b7102600052602160045260246000fd5b1492915050565b60985460ff16610bbf5760405160e560020a62461bcd0281526004016106a1906139de565b8063ffffffff16610bcf33611185565b101580610be2575060008163ffffffff16115b610c015760405160e560020a62461bcd0281526004016106a1906138a7565b600080610c0d83612339565b60a25460405160e060020a63a9059cbb028152929450909250600091600160a060020a039091169063a9059cbb90610c4b90339087906004016136a4565b602060405180830381600087803b158015610c6557600080fd5b505af1158015610c79573d6000803e3d6000fd5b505050506040513d601f19601f82011682018060405250810190610c9d91906133fa565b9050610cc6610cc16501d1a94a2000610cbb8564e8d4a5100061244c565b90612458565b612464565b80610d165760405160e560020a62461bcd02815260206004820152601460248201527f73656c6c696e6720746f6b656e206661696c656400000000000000000000000060448201526064016106a1565b50505050565b600054610100900460ff1680610d35575060005460ff16155b610d545760405160e560020a62461bcd0281526004016106a190613915565b600054610100900460ff16158015610d76576000805461ffff19166101011790555b8015610d88576000805461ff00191690555b50505050505050505050565b609f54600160a060020a0316610def5760405160e560020a62461bcd02815260206004820152601160248201527f77616c6c657420697320696e76616c696400000000000000000000000000000060448201526064016106a1565b609f54600160a060020a03163314610e4c5760405160e560020a62461bcd02815260206004820152601a60248201527f5468652061646472657373206973206e6f7420616c6c6f77656400000000000060448201526064016106a1565b609e548111610ef75760a25460405160e060020a63a9059cbb028152600091600160a060020a03169063a9059cbb90610e8b90339086906004016136a4565b602060405180830381600087803b158015610ea557600080fd5b505af1158015610eb9573d6000803e3d6000fd5b505050506040513d601f19601f82011682018060405250810190610edd91906133fa565b9050801561088357609e54610ef29083612141565b609e55505b50565b60985460ff16610f1f5760405160e560020a62461bcd0281526004016106a1906139de565b60008163ffffffff1611610f485760405160e560020a62461bcd0281526004016106a190613a15565b8063ffffffff16610f5833611185565b1015610fa95760405160e560020a62461bcd02815260206004820152601c60248201527f496e73756666696369656e7420746f6b656e7320746f206275726e2e0000000060448201526064016106a1565b600080610fb58361207e565b915091506000610fc484610887565b9050610fe6610cc1826108e26501d1a94a2000610cbb8764e8d4a5100061244c565b610ff08383612141565b9250610ffc848461247d565b5061100d338563ffffffff166125d1565b609b54611028908590604060020a900463ffffffff16613a8c565b609b80546bffffffff00000000000000001916604060020a63ffffffff93841602179055609a5461105b91839061206b16565b609a5560405163ffffffff8516815233907fe600c25f82e9bac8f9f1663725540d6cd442845726820fd5bee41b66c4bf59be9060200160405180910390a250505050565b600160a060020a0381166000908152606560209081526040808320805482518185028101850190935280835260609492939192909184015b8282101561117a576000848152602090206040805160608101909152600284029091018054829060ff1660038111156111235760e060020a634e487b7102600052602160045260246000fd5b60038111156111455760e060020a634e487b7102600052602160045260246000fd5b81528154610100900463ffffffff166020808301919091526001928301546040909201919091529183529290920191016110d7565b505050509050919050565b600160a060020a031660009081526033602052604090205490565b336111a961133b565b600160a060020a0316146111d25760405160e560020a62461bcd0281526004016106a1906139a9565b606654604051600091600160a060020a031690600080516020613bd8833981519152908390a360668054600160a060020a0319169055565b609b54600090604060020a900463ffffffff1661122660355490565b609b546112419190640100000000900463ffffffff16613b0d565b61124b9190613b0d565b610a87906064613a8c565b6000806112628361271a565b509392505050565b3361127361133b565b600160a060020a03161461129c5760405160e560020a62461bcd0281526004016106a1906139a9565b60985460ff166113005760405160e560020a62461bcd02815260206004820152602360248201527f5468652070726f6475637420746f6b656e20697320616c726561647920706175604482015260ea60020a621cd9590260648201526084016106a1565b6098805460ff19169055604051600081527f65c5ccecef030677b73a1403e7e69ef84d05db9d1732959d543d32f4419909b89060200161074d565b606654600160a060020a031690565b60606037805461076690613b32565b6065602052816000526040600020818154811061137557600080fd5b60009182526020909120600290910201805460019091015460ff8216935061010090910463ffffffff16915083565b336000908152603460209081526040808320600160a060020a03861684529091528120548281101561142c5760405160e560020a62461bcd02815260206004820152602560248201527f45524332303a2064656372656173656420616c6c6f77616e63652062656c6f77604482015260d860020a64207a65726f0260648201526084016106a1565b61143b3385610a668685613af6565b5060019392505050565b3361144e61133b565b600160a060020a0316146114775760405160e560020a62461bcd0281526004016106a1906139a9565b600160a060020a0381166114a05760405160e560020a62461bcd0281526004016106a190613802565b60a28054600160a060020a031916600160a060020a0392909216919091179055565b60006107f633848461214d565b6114d761133b565b600160a060020a031633600160a060020a031614806115005750609c54600160a060020a031633145b61151f5760405160e560020a62461bcd0281526004016106a190613972565b600160a060020a0382166115485760405160e560020a62461bcd0281526004016106a190613839565b60006115548383612821565b9050600081116115a95760405160e560020a62461bcd02815260206004820152600d60248201527f496e76616c69642076616c75650000000000000000000000000000000000000060448201526064016106a1565b6115b383826129d2565b505050565b336115c161133b565b600160a060020a0316146115ea5760405160e560020a62461bcd0281526004016106a1906139a9565b600160a060020a0381166116135760405160e560020a62461bcd0281526004016106a1906138de565b609c8054600160a060020a031916600160a060020a0392909216919091179055565b60985460ff1661165a5760405160e560020a62461bcd0281526004016106a1906139de565b600081116116ad5760405160e560020a62461bcd02815260206004820152601160248201527f696e76616c6964206d617820707269636500000000000000000000000000000060448201526064016106a1565b60a25460405160e060020a6323b872dd02815233600482015230602482015260448101839052600091600160a060020a0316906323b872dd90606401602060405180830381600087803b15801561170357600080fd5b505af1158015611717573d6000803e3d6000fd5b505050506040513d601f19601f8201168201806040525081019061173b91906133fa565b90508061178d5760405160e560020a62461bcd02815260206004820152601060248201527f5075726368617365206661696c65642e0000000000000000000000000000000060448201526064016106a1565b60008060008061179c86612aac565b93509350935063ffffffff16935060008411156118635782156118425760a25460405160e060020a63a9059cbb028152600160a060020a039091169063a9059cbb906117ee90339087906004016136a4565b602060405180830381600087803b15801561180857600080fd5b505af115801561181c573d6000803e3d6000fd5b505050506040513d601f19601f8201168201806040525081019061184091906133fa565b505b61185e610cc1650746a5288000610cbb8464e8d4a5100061244c565b6118ec565b60a25460405160e060020a63a9059cbb028152600160a060020a039091169063a9059cbb906118989033908a906004016136a4565b602060405180830381600087803b1580156118b257600080fd5b505af11580156118c6573d6000803e3d6000fd5b505050506040513d601f19601f820116820180604052508101906118ea91906133fa565b505b505050505050565b600160a060020a038216600090815260656020526040812080548390811061192f5760e060020a634e487b7102600052603260045260246000fd5b600091825260209091206002909102015460ff169392505050565b3361195361133b565b600160a060020a03161461197c5760405160e560020a62461bcd0281526004016106a1906139a9565b600160a060020a0381166119d55760405160e560020a62461bcd02815260206004820152601260248201527f4164647265737320697320696e76616c6964000000000000000000000000000060448201526064016106a1565b609f8054600160a060020a031916600160a060020a0392909216919091179055565b6000610a876001611d1a565b33611a0c61133b565b600160a060020a031614611a355760405160e560020a62461bcd0281526004016106a1906139a9565b600160a060020a038116611a5e5760405160e560020a62461bcd0281526004016106a1906138de565b60a25460405160e060020a6370a08231028152600160a060020a03909116906370a0823190611a91903090600401613690565b60206040518083038186803b158015611aa957600080fd5b505afa158015611abd573d6000803e3d6000fd5b505050506040513d601f19601f82011682018060405250810190611ae191906135d2565b821115611b035760405160e560020a62461bcd0281526004016106a1906138a7565b60a25460405160e060020a63a9059cbb028152600160a060020a039091169063a9059cbb90611b3890849086906004016136a4565b602060405180830381600087803b158015611b5257600080fd5b505af1158015611b66573d6000803e3d6000fd5b505050506040513d601f19601f820116820180604052508101906115b391906133fa565b600054610100900460ff1680611ba3575060005460ff16155b611bc25760405160e560020a62461bcd0281526004016106a190613915565b600054610100900460ff16158015611be4576000805461ffff19166101011790555b611bec612c1b565b611bf68888612c99565b611c038686868686612d1b565b8015611c15576000805461ff00191690555b5050505050505050565b33611c2861133b565b600160a060020a031614611c515760405160e560020a62461bcd0281526004016106a1906139a9565b600160a060020a038116611cd05760405160e560020a62461bcd02815260206004820152602660248201527f4f776e61626c653a206e6577206f776e657220697320746865207a65726f206160448201527f646472657373000000000000000000000000000000000000000000000000000060648201526084016106a1565b606654604051600160a060020a03808416921690600080516020613bd883398151915290600090a360668054600160a060020a031916600160a060020a0392909216919091179055565b609d54600090600160a060020a031663bff82d84611d36612eae565b609954609b54611d4e9063ffffffff1661c350613a8c565b866040518563ffffffff1660e060020a028152600401611d719493929190613a4c565b60206040518083038186803b158015611d8957600080fd5b505afa158015611d9d573d6000803e3d6000fd5b505050506040513d601f19601f820116820180604052508101906107fa91906135d2565b600160a060020a038316611e295760405160e560020a62461bcd028152602060048201526024808201527f45524332303a20617070726f76652066726f6d20746865207a65726f20616464604482015260e060020a63726573730260648201526084016106a1565b600160a060020a038216611e905760405160e560020a62461bcd02815260206004820152602260248201527f45524332303a20617070726f766520746f20746865207a65726f206164647265604482015260f060020a6173730260648201526084016106a1565b600160a060020a0383811660008181526034602090815260408083209487168084529482529182902085905590518481527f8c5be1e5ebec7d5bd14f71427d1e84f3dd0314c0f7b2291e5b200ac8c7c3b92591015b60405180910390a3505050565b600160a060020a03821660009081526065602052604090208054611f4b919083908110611f325760e060020a634e487b7102600052603260045260246000fd5b600091825260209091206002909102015460ff16610b40565b15611f6b5760405160e560020a62461bcd0281526004016106a190613870565b600160a060020a038216600090815260656020526040902080546003919083908110611faa5760e060020a634e487b7102600052603260045260246000fd5b60009182526020909120600290910201805460ff19166001836003811115611fe55760e060020a634e487b7102600052602160045260246000fd5b0217905550600080516020613bb883398151915282826065600086600160a060020a0316600160a060020a0316815260200190815260200160002084815481106120425760e060020a634e487b7102600052603260045260246000fd5b906000526020600020906002020160405161205f939291906136e1565b60405180910390a15050565b60006120778284613a74565b9392505050565b609d5460009081908190600160a060020a0316631c94987361209e612eae565b609954609b5460405163ffffffff85811660e060020a0282526120c994939216908a90600401613a4c565b60206040518083038186803b1580156120e157600080fd5b505afa1580156120f5573d6000803e3d6000fd5b505050506040513d601f19601f8201168201806040525081019061211991906135d2565b9050600061213564e8d4a51000610cbb84640df847580061244c565b91935090915050915091565b60006120778284613af6565b600160a060020a0383166121b75760405160e560020a62461bcd02815260206004820152602560248201527f45524332303a207472616e736665722066726f6d20746865207a65726f206164604482015260d860020a6464726573730260648201526084016106a1565b600160a060020a03821661221f5760405160e560020a62461bcd02815260206004820152602360248201527f45524332303a207472616e7366657220746f20746865207a65726f2061646472604482015260e860020a626573730260648201526084016106a1565b600160a060020a038316600090815260336020526040902054818110156122b15760405160e560020a62461bcd02815260206004820152602660248201527f45524332303a207472616e7366657220616d6f756e742065786365656473206260448201527f616c616e6365000000000000000000000000000000000000000000000000000060648201526084016106a1565b6122bb8282613af6565b600160a060020a0380861660009081526033602052604080822093909355908516815290812080548492906122f1908490613a74565b9250508190555082600160a060020a031684600160a060020a0316600080516020613bf88339815191528460405161232b91815260200190565b60405180910390a350505050565b60008060008363ffffffff16116123655760405160e560020a62461bcd0281526004016106a190613a15565b8263ffffffff1661237533611185565b10156123c65760405160e560020a62461bcd02815260206004820152601c60248201527f496e73756666696369656e7420746f6b656e7320746f2073656c6c2e0000000060448201526064016106a1565b6000806123d28561207e565b60995491935091506123e49083612141565b6099556123f73363ffffffff87166125d1565b6040805163ffffffff871681526020810184905233917f84c8d08e5480cf09cbf77bc575dc4e63845522693c34094f04129a4dedb7abd7910160405180910390a26124428282612141565b9350915050915091565b60006120778284613ad7565b60006120778284613ab4565b8015610ef757609e54612477908261206b565b609e5550565b6000808363ffffffff16116124d75760405160e560020a62461bcd02815260206004820152600e60248201527f496e76616c696420416d6f756e7400000000000000000000000000000000000060448201526064016106a1565b60408051606081018252600180825263ffffffff861660208084019190915282840186905233600090815260658252938420805480840182559085529320825160029094020180549293849391929091839160ff19909116908360038111156125535760e060020a634e487b7102600052602160045260246000fd5b0217905550602082810151825463ffffffff9091166101000264ffffffff001990911617825560409283015160019283015533600090815260659091529182205461259e9190613af6565b9050600080516020613bb88339815191523382846040516125c1939291906136bd565b60405180910390a1949350505050565b600160a060020a0382166126375760405160e560020a62461bcd02815260206004820152602160248201527f45524332303a206275726e2066726f6d20746865207a65726f20616464726573604482015260f860020a60730260648201526084016106a1565b600160a060020a038216600090815260336020526040902054818110156126b15760405160e560020a62461bcd02815260206004820152602260248201527f45524332303a206275726e20616d6f756e7420657863656564732062616c616e604482015260f060020a6163650260648201526084016106a1565b6126bb8282613af6565b600160a060020a038416600090815260336020526040812091909155603580548492906126e9908490613af6565b9091555050604051828152600090600160a060020a03851690600080516020613bf883398151915290602001611ee5565b6000808061273664fb75043000610cbb8664e8d4a5100061244c565b90506000612754655af3107a4000610cbb84650746a528800061244c565b609d54909150600090600160a060020a0316639f4ae6b0612773612eae565b609954609b5463ffffffff90811690612790908990899061214116565b60405163ffffffff86811660e060020a0282529485166004820152602481019390935292166044820152606481019190915260840160206040518083038186803b1580156127dd57600080fd5b505afa1580156127f1573d6000803e3d6000fd5b505050506040513d601f19601f820116820180604052508101906128159190613628565b94509092505050915091565b600160a060020a03821660009081526065602052604081208054612861919084908110611f325760e060020a634e487b7102600052603260045260246000fd5b156128815760405160e560020a62461bcd0281526004016106a190613870565b600160a060020a0383166000908152606560205260409020805460029190849081106128c05760e060020a634e487b7102600052603260045260246000fd5b60009182526020909120600290910201805460ff191660018360038111156128fb5760e060020a634e487b7102600052602160045260246000fd5b0217905550600080516020613bb883398151915283836065600087600160a060020a0316600160a060020a0316815260200190815260200160002085815481106129585760e060020a634e487b7102600052603260045260246000fd5b9060005260206000209060020201604051612975939291906136e1565b60405180910390a1600160a060020a03831660009081526065602052604090208054839081106129b85760e060020a634e487b7102600052603260045260246000fd5b906000526020600020906002020160010154905092915050565b60a25460405160e060020a63a9059cbb028152600091600160a060020a03169063a9059cbb90612a0890869086906004016136a4565b602060405180830381600087803b158015612a2257600080fd5b505af1158015612a36573d6000803e3d6000fd5b505050506040513d601f19601f82011682018060405250810190612a5a91906133fa565b9050806115b35760405160e560020a62461bcd02815260206004820152601360248201527f726566756e6420746f6b656e206661696c65640000000000000000000000000060448201526064016106a1565b6000806000806000612abc61120a565b63ffffffff1611612b125760405160e560020a62461bcd02815260206004820152601e60248201527f536f7272792c207468697320746f6b656e20697320736f6c64206f75742e000060448201526064016106a1565b60008511612b655760405160e560020a62461bcd02815260206004820152601960248201527f4465706f736974206d757374206265206e6f6e2d7a65726f2e0000000000000060448201526064016106a1565b600080612b726001612edb565b9150915086821115612b935760008760008095509550955095505050612c14565b612b9e336001612f94565b612bb4612bab8383612141565b6099549061206b565b60995560408051600181526020810184905233917f5b55159a377d86da80a65140d62d994ddbb2cbd4bb2d1b59cb0827fecbe47cab910160405180910390a26001612c0982612c038a86612141565b90612141565b909650945090925090505b9193509193565b600054610100900460ff1680612c34575060005460ff16155b612c535760405160e560020a62461bcd0281526004016106a190613915565b600054610100900460ff16158015612c75576000805461ffff19166101011790555b612c7d613064565b612c856130d1565b8015610ef7576000805461ff001916905550565b600054610100900460ff1680612cb2575060005460ff16155b612cd15760405160e560020a62461bcd0281526004016106a190613915565b600054610100900460ff16158015612cf3576000805461ffff19166101011790555b612cfb613064565b612d058383613170565b80156115b3576000805461ff0019169055505050565b600054610100900460ff1680612d34575060005460ff16155b612d535760405160e560020a62461bcd0281526004016106a190613915565b600054610100900460ff16158015612d75576000805461ffff19166101011790555b60008463ffffffff1611612dce5760405160e560020a62461bcd02815260206004820152601860248201527f496e76616c6964206d617820746f6b656e20636f756e742e000000000000000060448201526064016106a1565b60008563ffffffff1611612e275760405160e560020a62461bcd02815260206004820152601560248201527f496e76616c6964207265736572766520726174696f000000000000000000000060448201526064016106a1565b609d8054600160a060020a038816600160a060020a03199091161790556099829055609a829055609b805463ffffffff8681166401000000000267ffffffffffffffff19828816606060020a02166fffffffff00000000ffffffffffffffff19909316929092179088161717905580156118ec576000805461ff0019169055505050505050565b609b54600090610a879063ffffffff606060020a82048116916108e291604060020a909104168160355490565b609d5460009081908190600160a060020a031663bff82d84612efb612eae565b609954609b5460405163ffffffff85811660e060020a028252612f2694939216908a90600401613a4c565b60206040518083038186803b158015612f3e57600080fd5b505afa158015612f52573d6000803e3d6000fd5b505050506040513d601f19601f82011682018060405250810190612f7691906135d2565b90506000612135655af3107a4000610cbb84650746a528800061244c565b600160a060020a038216612fed5760405160e560020a62461bcd02815260206004820152601f60248201527f45524332303a206d696e7420746f20746865207a65726f20616464726573730060448201526064016106a1565b8060356000828254612fff9190613a74565b9091555050600160a060020a0382166000908152603360205260408120805483929061302c908490613a74565b9091555050604051818152600160a060020a03831690600090600080516020613bf88339815191529060200160405180910390a35050565b600054610100900460ff168061307d575060005460ff16155b61309c5760405160e560020a62461bcd0281526004016106a190613915565b600054610100900460ff16158015612c85576000805461ffff19166101011790558015610ef7576000805461ff001916905550565b600054610100900460ff16806130ea575060005460ff16155b6131095760405160e560020a62461bcd0281526004016106a190613915565b600054610100900460ff1615801561312b576000805461ffff19166101011790555b60668054600160a060020a031916339081179091556040518190600090600080516020613bd8833981519152908290a3508015610ef7576000805461ff001916905550565b600054610100900460ff1680613189575060005460ff16155b6131a85760405160e560020a62461bcd0281526004016106a190613915565b600054610100900460ff161580156131ca576000805461ffff19166101011790555b82516131dd906036906020860190613208565b5081516131f1906037906020850190613208565b5080156115b3576000805461ff0019169055505050565b82805461321490613b32565b90600052602060002090601f016020900481019282613236576000855561327c565b82601f1061324f57805160ff191683800117855561327c565b8280016001018555821561327c579182015b8281111561327c578251825591602001919060010190613261565b5061328892915061328c565b5090565b5b80821115613288576000815560010161328d565b8035600160a060020a038116811461098357600080fd5b600082601f8301126132c8578081fd5b813567ffffffffffffffff808211156132e3576132e3613b8b565b604051601f8301601f19908116603f0116810190828211818310171561330b5761330b613b8b565b81604052838152866020858801011115613323578485fd5b8360208701602083013792830160200193909352509392505050565b803561098381613ba5565b60006020828403121561335b578081fd5b612077826132a1565b60008060408385031215613376578081fd5b61337f836132a1565b915061338d602084016132a1565b90509250929050565b6000806000606084860312156133aa578081fd5b6133b3846132a1565b92506133c1602085016132a1565b9150604084013590509250925092565b600080604083850312156133e3578182fd5b6133ec836132a1565b946020939093013593505050565b60006020828403121561340b578081fd5b81518015158114612077578182fd5b60006020828403121561342b578081fd5b813560048110612077578182fd5b600080600080600080600060e0888a031215613453578283fd5b873567ffffffffffffffff8082111561346a578485fd5b6134768b838c016132b8565b985060208a013591508082111561348b578485fd5b506134988a828b016132b8565b9650506134a7604089016132a1565b945060608801356134b781613ba5565b935060808801356134c781613ba5565b925060a08801356134d781613ba5565b8092505060c0880135905092959891949750929550565b60008060008060008060008060006101208a8c03121561350c578182fd5b893567ffffffffffffffff80821115613523578384fd5b61352f8d838e016132b8565b9a5060208c0135915080821115613544578384fd5b506135518c828d016132b8565b98505060408a013561356281613ba5565b965060608a013561357281613ba5565b955061358060808b0161333f565b945060a08a0135935060c08a0135925061359c60e08b016132a1565b91506135ab6101008b016132a1565b90509295985092959850929598565b6000602082840312156135cb578081fd5b5035919050565b6000602082840312156135e3578081fd5b5051919050565b600080604083850312156135fc578182fd5b8235915061338d602084016132a1565b60006020828403121561361d578081fd5b813561207781613ba5565b600060208284031215613639578081fd5b815161207781613ba5565b600481106136665760e060020a634e487b710260009081526021600452602490fd5b9052565b613675828251613644565b60208181015163ffffffff1690830152604090810151910152565b600160a060020a0391909116815260200190565b600160a060020a03929092168252602082015260400190565b600160a060020a03841681526020810183905260a081016109a5604083018461366a565b600160a060020a038416815260208101839052815460a082019061370b6040840160ff8316613644565b63ffffffff61010082041660608401525060018301546080830152949350505050565b6020808252825182820181905260009190848201906040850190845b818110156137705761375d83855161366a565b928401926060929092019160010161374a565b50909695505050505050565b602081016107fa8284613644565b606081016137988286613644565b63ffffffff93909316602082015260400152919050565b6000602080835283518082850152825b818110156137db578581018301518582016040015282016137bf565b818111156137ec5783604083870101525b50601f01601f1916929092016040019392505050565b6020808252600f908201527f496e76616c696420616464726573730000000000000000000000000000000000604082015260600190565b6020808252600d908201527f496e76616c696420627579657200000000000000000000000000000000000000604082015260600190565b60208082526011908201527f616c726561647920636f6d706c65746564000000000000000000000000000000604082015260600190565b6020808252600e908201527f696e76616c696420616d6f756e74000000000000000000000000000000000000604082015260600190565b6020808252600f908201527f696e76616c696420616464726573730000000000000000000000000000000000604082015260600190565b6020808252602e908201527f496e697469616c697a61626c653a20636f6e747261637420697320616c72656160408201527f647920696e697469616c697a6564000000000000000000000000000000000000606082015260800190565b60208082526011908201527f7065726d697373696f6e2064656e696564000000000000000000000000000000604082015260600190565b6020808252818101527f4f776e61626c653a2063616c6c6572206973206e6f7420746865206f776e6572604082015260600190565b60208082526013908201527f756e61626c6520746f207472616465206e6f7700000000000000000000000000604082015260600190565b60208082526018908201527f416d6f756e74206d757374206265206e6f6e2d7a65726f2e0000000000000000604082015260600190565b63ffffffff948516815260208101939093529083166040830152909116606082015260800190565b60008219821115613a8757613a87613b71565b500190565b600063ffffffff808316818516808303821115613aab57613aab613b71565b01949350505050565b600082613ad25760e060020a634e487b710281526012600452602481fd5b500490565b6000816000190483118215151615613af157613af1613b71565b500290565b600082821015613b0857613b08613b71565b500390565b600063ffffffff83811690831681811015613b2a57613b2a613b71565b039392505050565b600281046001821680613b4657607f821691505b60208210811415613b6b5760e060020a634e487b710260009081526022600452602490fd5b50919050565b60e060020a634e487b710260009081526011600452602490fd5b60e060020a634e487b710260009081526041600452602490fd5b63ffffffff81168114610ef757600080fdfe09c64bee251b684a6bb80ce179dd520c001481b7c3d7781f1502e3052af474cf8be0079c531659141344cd1fd0a4f28419497f9722a3daafe3b4186f6b6457e0ddf252ad1be2c89b69c2b068fc378daa952ba7f163c4a11628f55a4df523b3efa264697066735822122041c794cc4caaf69022dd87cbb08ebe74644f922896e69b602853395c882d802a64736f6c63430008030033",
  "immutableReferences": {},
  "source": "pragma solidity ^0.8.2;\n\nimport \"@openzeppelin/contracts-upgradeable/token/ERC20/ERC20Upgradeable.sol\";\nimport \"@openzeppelin/contracts-upgradeable/utils/math/SafeMathUpgradeable.sol\";\n\nimport \"../ProductToken.sol\";\nimport \"../ProductTokenV1.sol\";\nimport \"../Power.sol\";\n\n\ncontract ProductTokenV2 is ProductTokenV1 {\n  uint256 public newAttribute;\n\n  function getNewAttribute()\n  public view returns (uint256)\n  {\n    return newAttribute + 1;\n  }\n\n  function getPriceForN(uint32 _amountProduct) \n  \tpublic view override returns(uint256 price)\n  {\n  \treturn bondingCurve.calculatePriceForNTokens(_getTotalSupply(), reserveBalance, reserveRatio+50000, _amountProduct);\n  }\n\n    function getAvailability()\n     public view override returns (uint32 available)\n  {\n    return maxTokenCount - uint32(totalSupply()) - tradeinCount+100;   \n  }\n\n} \n\ncontract ProductTokenV3 is ProductTokenV2 {\n    using SafeMathUpgradeable for uint256;\n    uint32 private constant MAX_RESERVE_RATIO = 2000000;\n\n    function initializeV3(string memory _name, string memory _symbol, uint32 _reserveRatio, uint32 _maxTokenCount, uint32 _supplyOffset, uint256 _baseReserve, uint256 _newInitValue, address _daiAddress, address _chainlink) public  initializer {\n    }\n}\n\ncontract ProductTokenDestroy {\n\n}\n\ncontract ProductTokenV4 is ProductTokenV2 {\n\n}\n\ncontract ProductTokenV5 is ProductTokenV3 {\n  uint256  public newInitValue;\n/**\n   * @dev Constructor\n   *\n   * @param _reserveRatio             the reserve ratio in the curve function\n   * @param _maxTokenCount\t\t\t\t\t\tthe amount of token that will exist for this type.\n   * @param _supplyOffset             a initial amount of offset that drive the price to a starting price\n   * @param _baseReserve              the reserve balance when supply is 0. This is calculated based on the balance function, and evaluated at s = _supplyOffset\n  */\n  function initializeV5(string memory _name, string memory _symbol, address _bondingCurveAddress, uint32 _reserveRatio, uint32 _maxTokenCount, uint32 _supplyOffset, uint256 _baseReserve, uint256 _newInitValue, address _daiAddress, address _chainlink) public  initializer {\t\t\n    __ERC20_init(_name, _symbol);\n    // ProductToken.__ProductToken_init_unchained(_bondingCurveAddress, _reserveRatio, _maxTokenCount, _supplyOffset, _baseReserve);\n    // ProductTokenV1.__ProductToken_init_unchained(_daiAddress, _chainlink);\n    newInitValue= _newInitValue;\n  }\n  function getNewInitValue() public view returns(uint256){\n    return newInitValue;\n  }\n}\n",
  "sourcePath": "/Users/jack/Documents/GitHub/HighStreet/client/src/contracts/Mock/ProductTokenV2.sol",
  "compiler": {
    "name": "solc",
    "version": "0.8.3+commit.8d00100c.Emscripten.clang"
  },
  "schemaVersion": "3.4.0",
  "updatedAt": "2021-09-27T08:10:58.507Z",
  "devdoc": {
    "kind": "dev",
    "methods": {
      "allowance(address,address)": {
        "details": "See {IERC20-allowance}."
      },
      "approve(address,uint256)": {
        "details": "See {IERC20-approve}. Requirements: - `spender` cannot be the zero address."
      },
      "balanceOf(address)": {
        "details": "See {IERC20-balanceOf}."
      },
      "calculateBuyReturn(uint256)": {
        "details": "Function that computes number of product tokens one can buy given an amount in reserve token.",
        "params": {
          "_amountReserve": "purchaing amount in reserve token (dai)(with 4% platform fee)"
        },
        "returns": {
          "mintAmount": "             number of tokens in traded token that can be purchased by given amount."
        }
      },
      "calculateSellReturn(uint32)": {
        "details": "Function that computes selling price in reserve tokens given an amount in traded token.",
        "params": {
          "_amountProduct": "selling amount in product token"
        },
        "returns": {
          "soldAmount": "             total amount that will be transferred to the seller (with 2% platform fee)."
        }
      },
      "decimals()": {
        "details": "Returns the number of decimals used to get its user representation. For example, if `decimals` equals `2`, a balance of `505` tokens should be displayed to a user as `5,05` (`505 / 10 ** 2`). Tokens usually opt for a value of 18, imitating the relationship between Ether and Wei. This is the value {ERC20} uses, unless this function is overloaded; NOTE: This information is only used for _display_ purposes: it in no way affects any of the arithmetic of the contract, including {IERC20-balanceOf} and {IERC20-transfer}."
      },
      "decreaseAllowance(address,uint256)": {
        "details": "Atomically decreases the allowance granted to `spender` by the caller. This is an alternative to {approve} that can be used as a mitigation for problems described in {IERC20-approve}. Emits an {Approval} event indicating the updated allowance. Requirements: - `spender` cannot be the zero address. - `spender` must have allowance for the caller of at least `subtractedValue`."
      },
      "getAvailability()": {
        "details": "Function to check how many tokens of this product are currently available for purchase, by taking the difference between max cap count and current token in circulation or burned.",
        "returns": {
          "available": "               the number of tokens available"
        }
      },
      "getCurrentPrice()": {
        "details": "Function that computes current price for a token through bonding curve calculation based on parameters such as total supply, reserve balance, and reserve ratio.",
        "returns": {
          "price": "                  current price in reserve token (in our case, this is dai). (with 4% platform fee)"
        }
      },
      "getEscrowHistory(address)": {
        "details": "Return the list of all escrows created for a certain user",
        "params": {
          "_buyer": "The address of the buyer"
        },
        "returns": {
          "_0": "A list of past escrows"
        }
      },
      "getPriceForN(uint32)": {
        "details": "Function that computes price total for buying n token through bonding curve calculation based on parameters such as total supply, reserve balance, and reserve ratio.",
        "params": {
          "_amountProduct": "token amount in traded token"
        },
        "returns": {
          "price": "                  total price in reserve token (in our case, this is dai). (with 4% platform fee)"
        }
      },
      "getRedeemStatus(address,uint256)": {
        "details": "Get status of a particular redemption process",
        "params": {
          "_buyer": "The address of the buyer",
          "_id": "The cached id of the escrow, retrieved from database"
        },
        "returns": {
          "_0": "The current status"
        }
      },
      "getSupplierBalance()": {
        "details": "this function returns the amount of reserve balance that the supplier can withdraw from the dapp."
      },
      "increaseAllowance(address,uint256)": {
        "details": "Atomically increases the allowance granted to `spender` by the caller. This is an alternative to {approve} that can be used as a mitigation for problems described in {IERC20-approve}. Emits an {Approval} event indicating the updated allowance. Requirements: - `spender` cannot be the zero address."
      },
      "initialize(string,string,address,uint32,uint32,uint32,uint256)": {
        "details": "initializer function.",
        "params": {
          "_baseReserve": "the base amount of reserve tokens, in accordance to _supplyOffset.",
          "_maxTokenCount": "the amount of token that will exist for this type.",
          "_name": "the name of this token",
          "_reserveRatio": "the reserve ratio in the curve function. Number in parts per million",
          "_supplyOffset": "this amount is used to determine initial price.",
          "_symbol": "the symbol of this token"
        }
      },
      "isStateCompleted(uint8)": {
        "details": "Helper function to check whether a escrow state is completed",
        "params": {
          "_state": "The state to be checked"
        }
      },
      "launch()": {
        "details": "requires function to be called from owner. this enables customers to buy, sell, or redeem the product."
      },
      "name()": {
        "details": "Returns the name of the token."
      },
      "owner()": {
        "details": "Returns the address of the current owner."
      },
      "pause()": {
        "details": "requires function to be called from owner. this prevents customers from buying, selling, or redeeming the product."
      },
      "renounceOwnership()": {
        "details": "Leaves the contract without owner. It will not be possible to call `onlyOwner` functions anymore. Can only be called by the current owner. NOTE: Renouncing ownership will leave the contract without an owner, thereby removing any functionality that is only available to the owner."
      },
      "setBondingCurve(address)": {
        "details": "requires function to be called from owner. sets a bonding curve implementation for this product.",
        "params": {
          "_address": "the address of the bonding curve implementation"
        }
      },
      "symbol()": {
        "details": "Returns the symbol of the token, usually a shorter version of the name."
      },
      "totalSupply()": {
        "details": "See {IERC20-totalSupply}."
      },
      "tradein(uint32)": {
        "details": "When user wants to trade in their token for retail product",
        "params": {
          "amount_": "amount of tokens that user wants to trade in."
        }
      },
      "transfer(address,uint256)": {
        "details": "See {IERC20-transfer}. Requirements: - `recipient` cannot be the zero address. - the caller must have a balance of at least `amount`."
      },
      "transferFrom(address,address,uint256)": {
        "details": "See {IERC20-transferFrom}. Emits an {Approval} event indicating the updated allowance. This is not required by the EIP. See the note at the beginning of {ERC20}. Requirements: - `sender` and `recipient` cannot be the zero address. - `sender` must have a balance of at least `amount`. - the caller must have allowance for ``sender``'s tokens of at least `amount`."
      },
      "transferOwnership(address)": {
        "details": "Transfers ownership of the contract to a new account (`newOwner`). Can only be called by the current owner."
      },
      "updateUserCompleted(address,uint256)": {
        "details": "used to update the status of redemption to \"User Complete\" after an escrow process has been started.",
        "params": {
          "buyer": "the wallet address of product buyer",
          "id": "the id of the escrow, returned to the user after starting of redemption process"
        }
      },
      "updateUserRefund(address,uint256)": {
        "details": "used to update the status of redemption to \"User Refunded\" after an escrow process has been started.",
        "params": {
          "buyer": "the wallet address of product buyer",
          "id": "the id of the escrow, returned to the user after starting of redemption process"
        }
      }
    },
    "version": 1
  },
  "userdoc": {
    "kind": "user",
    "methods": {},
    "version": 1
  }
}