{
  "contractName": "ProductTokenV1",
  "abi": [
    {
      "anonymous": false,
      "inputs": [
        {
          "indexed": true,
          "internalType": "address",
          "name": "owner",
          "type": "address"
        },
        {
          "indexed": true,
          "internalType": "address",
          "name": "spender",
          "type": "address"
        },
        {
          "indexed": false,
          "internalType": "uint256",
          "name": "value",
          "type": "uint256"
        }
      ],
      "name": "Approval",
      "type": "event"
    },
    {
      "anonymous": false,
      "inputs": [
        {
          "indexed": true,
          "internalType": "address",
          "name": "sender",
          "type": "address"
        },
        {
          "indexed": false,
          "internalType": "uint32",
          "name": "amount",
          "type": "uint32"
        },
        {
          "indexed": false,
          "internalType": "uint256",
          "name": "deposit",
          "type": "uint256"
        }
      ],
      "name": "Buy",
      "type": "event"
    },
    {
      "anonymous": false,
      "inputs": [
        {
          "indexed": true,
          "internalType": "address",
          "name": "previousOwner",
          "type": "address"
        },
        {
          "indexed": true,
          "internalType": "address",
          "name": "newOwner",
          "type": "address"
        }
      ],
      "name": "OwnershipTransferred",
      "type": "event"
    },
    {
      "anonymous": false,
      "inputs": [
        {
          "indexed": true,
          "internalType": "address",
          "name": "sender",
          "type": "address"
        },
        {
          "indexed": false,
          "internalType": "uint32",
          "name": "amount",
          "type": "uint32"
        },
        {
          "indexed": false,
          "internalType": "uint256",
          "name": "refund",
          "type": "uint256"
        }
      ],
      "name": "Sell",
      "type": "event"
    },
    {
      "anonymous": false,
      "inputs": [
        {
          "indexed": false,
          "internalType": "bool",
          "name": "isTradable",
          "type": "bool"
        }
      ],
      "name": "Tradable",
      "type": "event"
    },
    {
      "anonymous": false,
      "inputs": [
        {
          "indexed": true,
          "internalType": "address",
          "name": "sender",
          "type": "address"
        },
        {
          "indexed": false,
          "internalType": "uint32",
          "name": "amount",
          "type": "uint32"
        }
      ],
      "name": "Tradein",
      "type": "event"
    },
    {
      "anonymous": false,
      "inputs": [
        {
          "indexed": true,
          "internalType": "address",
          "name": "from",
          "type": "address"
        },
        {
          "indexed": true,
          "internalType": "address",
          "name": "to",
          "type": "address"
        },
        {
          "indexed": false,
          "internalType": "uint256",
          "name": "value",
          "type": "uint256"
        }
      ],
      "name": "Transfer",
      "type": "event"
    },
    {
      "anonymous": false,
      "inputs": [
        {
          "indexed": false,
          "internalType": "address",
          "name": "",
          "type": "address"
        },
        {
          "indexed": false,
          "internalType": "uint256",
          "name": "",
          "type": "uint256"
        },
        {
          "components": [
            {
              "internalType": "enum Escrow.escrowState",
              "name": "state",
              "type": "uint8"
            },
            {
              "internalType": "uint32",
              "name": "amount",
              "type": "uint32"
            },
            {
              "internalType": "uint256",
              "name": "value",
              "type": "uint256"
            }
          ],
          "indexed": false,
          "internalType": "struct Escrow.escrowInfo",
          "name": "",
          "type": "tuple"
        }
      ],
      "name": "escrowStateUpdated",
      "type": "event"
    },
    {
      "stateMutability": "nonpayable",
      "type": "fallback"
    },
    {
      "inputs": [
        {
          "internalType": "address",
          "name": "owner",
          "type": "address"
        },
        {
          "internalType": "address",
          "name": "spender",
          "type": "address"
        }
      ],
      "name": "allowance",
      "outputs": [
        {
          "internalType": "uint256",
          "name": "",
          "type": "uint256"
        }
      ],
      "stateMutability": "view",
      "type": "function",
      "constant": true
    },
    {
      "inputs": [
        {
          "internalType": "address",
          "name": "spender",
          "type": "address"
        },
        {
          "internalType": "uint256",
          "name": "amount",
          "type": "uint256"
        }
      ],
      "name": "approve",
      "outputs": [
        {
          "internalType": "bool",
          "name": "",
          "type": "bool"
        }
      ],
      "stateMutability": "nonpayable",
      "type": "function"
    },
    {
      "inputs": [
        {
          "internalType": "address",
          "name": "account",
          "type": "address"
        }
      ],
      "name": "balanceOf",
      "outputs": [
        {
          "internalType": "uint256",
          "name": "",
          "type": "uint256"
        }
      ],
      "stateMutability": "view",
      "type": "function",
      "constant": true
    },
    {
      "inputs": [
        {
          "internalType": "uint256",
          "name": "_amountReserve",
          "type": "uint256"
        }
      ],
      "name": "calculateBuyReturn",
      "outputs": [
        {
          "internalType": "uint32",
          "name": "mintAmount",
          "type": "uint32"
        }
      ],
      "stateMutability": "view",
      "type": "function",
      "constant": true
    },
    {
      "inputs": [
        {
          "internalType": "uint32",
          "name": "_amountProduct",
          "type": "uint32"
        }
      ],
      "name": "calculateSellReturn",
      "outputs": [
        {
          "internalType": "uint256",
          "name": "soldAmount",
          "type": "uint256"
        }
      ],
      "stateMutability": "view",
      "type": "function",
      "constant": true
    },
    {
      "inputs": [
        {
          "internalType": "uint32",
          "name": "_amount",
          "type": "uint32"
        }
      ],
      "name": "calculateTradinReturn",
      "outputs": [
        {
          "internalType": "uint256",
          "name": "",
          "type": "uint256"
        }
      ],
      "stateMutability": "view",
      "type": "function",
      "constant": true
    },
    {
      "inputs": [],
      "name": "decimals",
      "outputs": [
        {
          "internalType": "uint8",
          "name": "",
          "type": "uint8"
        }
      ],
      "stateMutability": "view",
      "type": "function",
      "constant": true
    },
    {
      "inputs": [
        {
          "internalType": "address",
          "name": "spender",
          "type": "address"
        },
        {
          "internalType": "uint256",
          "name": "subtractedValue",
          "type": "uint256"
        }
      ],
      "name": "decreaseAllowance",
      "outputs": [
        {
          "internalType": "bool",
          "name": "",
          "type": "bool"
        }
      ],
      "stateMutability": "nonpayable",
      "type": "function"
    },
    {
      "inputs": [
        {
          "internalType": "address",
          "name": "",
          "type": "address"
        },
        {
          "internalType": "uint256",
          "name": "",
          "type": "uint256"
        }
      ],
      "name": "escrowList",
      "outputs": [
        {
          "internalType": "enum Escrow.escrowState",
          "name": "state",
          "type": "uint8"
        },
        {
          "internalType": "uint32",
          "name": "amount",
          "type": "uint32"
        },
        {
          "internalType": "uint256",
          "name": "value",
          "type": "uint256"
        }
      ],
      "stateMutability": "view",
      "type": "function",
      "constant": true
    },
    {
      "inputs": [],
      "name": "getAvailability",
      "outputs": [
        {
          "internalType": "uint32",
          "name": "available",
          "type": "uint32"
        }
      ],
      "stateMutability": "view",
      "type": "function",
      "constant": true
    },
    {
      "inputs": [],
      "name": "getCurrentPrice",
      "outputs": [
        {
          "internalType": "uint256",
          "name": "price",
          "type": "uint256"
        }
      ],
      "stateMutability": "view",
      "type": "function",
      "constant": true
    },
    {
      "inputs": [
        {
          "internalType": "address",
          "name": "_buyer",
          "type": "address"
        }
      ],
      "name": "getEscrowHistory",
      "outputs": [
        {
          "components": [
            {
              "internalType": "enum Escrow.escrowState",
              "name": "state",
              "type": "uint8"
            },
            {
              "internalType": "uint32",
              "name": "amount",
              "type": "uint32"
            },
            {
              "internalType": "uint256",
              "name": "value",
              "type": "uint256"
            }
          ],
          "internalType": "struct Escrow.escrowInfo[]",
          "name": "",
          "type": "tuple[]"
        }
      ],
      "stateMutability": "view",
      "type": "function",
      "constant": true
    },
    {
      "inputs": [],
      "name": "getManager",
      "outputs": [
        {
          "internalType": "address",
          "name": "",
          "type": "address"
        }
      ],
      "stateMutability": "view",
      "type": "function",
      "constant": true
    },
    {
      "inputs": [
        {
          "internalType": "uint32",
          "name": "_amountProduct",
          "type": "uint32"
        }
      ],
      "name": "getPriceForN",
      "outputs": [
        {
          "internalType": "uint256",
          "name": "price",
          "type": "uint256"
        }
      ],
      "stateMutability": "view",
      "type": "function",
      "constant": true
    },
    {
      "inputs": [
        {
          "internalType": "address",
          "name": "_buyer",
          "type": "address"
        },
        {
          "internalType": "uint256",
          "name": "_id",
          "type": "uint256"
        }
      ],
      "name": "getRedeemStatus",
      "outputs": [
        {
          "internalType": "enum Escrow.escrowState",
          "name": "",
          "type": "uint8"
        }
      ],
      "stateMutability": "view",
      "type": "function",
      "constant": true
    },
    {
      "inputs": [
        {
          "internalType": "address",
          "name": "spender",
          "type": "address"
        },
        {
          "internalType": "uint256",
          "name": "addedValue",
          "type": "uint256"
        }
      ],
      "name": "increaseAllowance",
      "outputs": [
        {
          "internalType": "bool",
          "name": "",
          "type": "bool"
        }
      ],
      "stateMutability": "nonpayable",
      "type": "function"
    },
    {
      "inputs": [
        {
          "internalType": "string",
          "name": "_name",
          "type": "string"
        },
        {
          "internalType": "string",
          "name": "_symbol",
          "type": "string"
        },
        {
          "internalType": "address",
          "name": "_bondingCurveAddress",
          "type": "address"
        },
        {
          "internalType": "uint32",
          "name": "_reserveRatio",
          "type": "uint32"
        },
        {
          "internalType": "uint32",
          "name": "_maxTokenCount",
          "type": "uint32"
        },
        {
          "internalType": "uint32",
          "name": "_supplyOffset",
          "type": "uint32"
        },
        {
          "internalType": "uint256",
          "name": "_baseReserve",
          "type": "uint256"
        }
      ],
      "name": "initialize",
      "outputs": [],
      "stateMutability": "nonpayable",
      "type": "function"
    },
    {
      "inputs": [
        {
          "internalType": "enum Escrow.escrowState",
          "name": "_state",
          "type": "uint8"
        }
      ],
      "name": "isStateCompleted",
      "outputs": [
        {
          "internalType": "bool",
          "name": "",
          "type": "bool"
        }
      ],
      "stateMutability": "pure",
      "type": "function",
      "constant": true
    },
    {
      "inputs": [],
      "name": "launch",
      "outputs": [],
      "stateMutability": "nonpayable",
      "type": "function"
    },
    {
      "inputs": [],
      "name": "maxTokenCount",
      "outputs": [
        {
          "internalType": "uint32",
          "name": "",
          "type": "uint32"
        }
      ],
      "stateMutability": "view",
      "type": "function",
      "constant": true
    },
    {
      "inputs": [],
      "name": "name",
      "outputs": [
        {
          "internalType": "string",
          "name": "",
          "type": "string"
        }
      ],
      "stateMutability": "view",
      "type": "function",
      "constant": true
    },
    {
      "inputs": [],
      "name": "owner",
      "outputs": [
        {
          "internalType": "address",
          "name": "",
          "type": "address"
        }
      ],
      "stateMutability": "view",
      "type": "function",
      "constant": true
    },
    {
      "inputs": [],
      "name": "pause",
      "outputs": [],
      "stateMutability": "nonpayable",
      "type": "function"
    },
    {
      "inputs": [],
      "name": "renounceOwnership",
      "outputs": [],
      "stateMutability": "nonpayable",
      "type": "function"
    },
    {
      "inputs": [],
      "name": "reserveBalance",
      "outputs": [
        {
          "internalType": "uint256",
          "name": "",
          "type": "uint256"
        }
      ],
      "stateMutability": "view",
      "type": "function",
      "constant": true
    },
    {
      "inputs": [],
      "name": "reserveRatio",
      "outputs": [
        {
          "internalType": "uint32",
          "name": "",
          "type": "uint32"
        }
      ],
      "stateMutability": "view",
      "type": "function",
      "constant": true
    },
    {
      "inputs": [
        {
          "internalType": "address",
          "name": "_address",
          "type": "address"
        }
      ],
      "name": "setBondingCurve",
      "outputs": [],
      "stateMutability": "nonpayable",
      "type": "function"
    },
    {
      "inputs": [
        {
          "internalType": "address",
          "name": "addr_",
          "type": "address"
        }
      ],
      "name": "setManager",
      "outputs": [],
      "stateMutability": "nonpayable",
      "type": "function"
    },
    {
      "inputs": [],
      "name": "supplier",
      "outputs": [
        {
          "internalType": "uint256",
          "name": "amount",
          "type": "uint256"
        },
        {
          "internalType": "address",
          "name": "wallet",
          "type": "address"
        }
      ],
      "stateMutability": "view",
      "type": "function",
      "constant": true
    },
    {
      "inputs": [],
      "name": "symbol",
      "outputs": [
        {
          "internalType": "string",
          "name": "",
          "type": "string"
        }
      ],
      "stateMutability": "view",
      "type": "function",
      "constant": true
    },
    {
      "inputs": [],
      "name": "totalSupply",
      "outputs": [
        {
          "internalType": "uint256",
          "name": "",
          "type": "uint256"
        }
      ],
      "stateMutability": "view",
      "type": "function",
      "constant": true
    },
    {
      "inputs": [],
      "name": "tradeinCount",
      "outputs": [
        {
          "internalType": "uint32",
          "name": "",
          "type": "uint32"
        }
      ],
      "stateMutability": "view",
      "type": "function",
      "constant": true
    },
    {
      "inputs": [],
      "name": "tradeinReserveBalance",
      "outputs": [
        {
          "internalType": "uint256",
          "name": "",
          "type": "uint256"
        }
      ],
      "stateMutability": "view",
      "type": "function",
      "constant": true
    },
    {
      "inputs": [
        {
          "internalType": "address",
          "name": "recipient",
          "type": "address"
        },
        {
          "internalType": "uint256",
          "name": "amount",
          "type": "uint256"
        }
      ],
      "name": "transfer",
      "outputs": [
        {
          "internalType": "bool",
          "name": "",
          "type": "bool"
        }
      ],
      "stateMutability": "nonpayable",
      "type": "function"
    },
    {
      "inputs": [
        {
          "internalType": "address",
          "name": "sender",
          "type": "address"
        },
        {
          "internalType": "address",
          "name": "recipient",
          "type": "address"
        },
        {
          "internalType": "uint256",
          "name": "amount",
          "type": "uint256"
        }
      ],
      "name": "transferFrom",
      "outputs": [
        {
          "internalType": "bool",
          "name": "",
          "type": "bool"
        }
      ],
      "stateMutability": "nonpayable",
      "type": "function"
    },
    {
      "inputs": [
        {
          "internalType": "address",
          "name": "newOwner",
          "type": "address"
        }
      ],
      "name": "transferOwnership",
      "outputs": [],
      "stateMutability": "nonpayable",
      "type": "function"
    },
    {
      "inputs": [
        {
          "internalType": "address",
          "name": "buyer",
          "type": "address"
        },
        {
          "internalType": "uint256",
          "name": "id",
          "type": "uint256"
        }
      ],
      "name": "updateUserCompleted",
      "outputs": [],
      "stateMutability": "nonpayable",
      "type": "function"
    },
    {
      "inputs": [
        {
          "internalType": "address",
          "name": "buyer",
          "type": "address"
        },
        {
          "internalType": "uint256",
          "name": "id",
          "type": "uint256"
        }
      ],
      "name": "updateUserRefund",
      "outputs": [],
      "stateMutability": "nonpayable",
      "type": "function"
    },
    {
      "inputs": [],
      "name": "voucher",
      "outputs": [
        {
          "internalType": "address",
          "name": "addr",
          "type": "address"
        },
        {
          "internalType": "uint256",
          "name": "tokenId",
          "type": "uint256"
        }
      ],
      "stateMutability": "view",
      "type": "function",
      "constant": true
    },
    {
      "inputs": [
        {
          "internalType": "address",
          "name": "highAddress_",
          "type": "address"
        }
      ],
      "name": "setHigh",
      "outputs": [],
      "stateMutability": "nonpayable",
      "type": "function"
    },
    {
      "inputs": [
        {
          "internalType": "uint256",
          "name": "maxPrice_",
          "type": "uint256"
        }
      ],
      "name": "buy",
      "outputs": [],
      "stateMutability": "nonpayable",
      "type": "function"
    },
    {
      "inputs": [
        {
          "internalType": "uint32",
          "name": "amount_",
          "type": "uint32"
        }
      ],
      "name": "sell",
      "outputs": [],
      "stateMutability": "nonpayable",
      "type": "function"
    },
    {
      "inputs": [
        {
          "internalType": "uint32",
          "name": "amount_",
          "type": "uint32"
        }
      ],
      "name": "tradein",
      "outputs": [],
      "stateMutability": "nonpayable",
      "type": "function"
    },
    {
      "inputs": [
        {
          "internalType": "address",
          "name": "wallet_",
          "type": "address"
        }
      ],
      "name": "updateSupplierInfo",
      "outputs": [],
      "stateMutability": "nonpayable",
      "type": "function"
    },
    {
      "inputs": [
        {
          "internalType": "uint256",
          "name": "amount_",
          "type": "uint256"
        }
      ],
      "name": "claimSupplier",
      "outputs": [],
      "stateMutability": "nonpayable",
      "type": "function"
    },
    {
      "inputs": [],
      "name": "getSupplierBalance",
      "outputs": [
        {
          "internalType": "uint256",
          "name": "",
          "type": "uint256"
        }
      ],
      "stateMutability": "view",
      "type": "function",
      "constant": true
    },
    {
      "inputs": [
        {
          "internalType": "uint256",
          "name": "amount_",
          "type": "uint256"
        },
        {
          "internalType": "address",
          "name": "to_",
          "type": "address"
        }
      ],
      "name": "withdrawHigh",
      "outputs": [],
      "stateMutability": "nonpayable",
      "type": "function"
    }
  ],
  "bytecode": "0x608060405234801561001057600080fd5b50613a13806100206000396000f3fe608060405234801561001057600080fd5b50600436106102595760003560e060020a900480638da5cb5b1161014b578063d0ebdbe7116100c2578063d0ebdbe71461052a578063d50095841461053d578063d96a094a1461054e578063dd304b1a14610561578063dd62ed3e14610581578063deebbef1146105ba578063e67dc518146105cd578063eb91d37e146105d6578063ebc9e4d6146105de578063efea8a13146105f1578063f2fde38b14610604578063f97511d31461061757610259565b80638da5cb5b1461043a57806395d89b411461044f578063964a6afe146104575780639b9ffbf31461045f578063a10954fe14610481578063a457c2d71461048a578063a8d926291461049d578063a9059cbb146104b0578063ba7a93b6146104c3578063c4e627c2146104da578063c757d4c7146104f2578063cdda418c1461050557610259565b806339509351116101df578063395093511461036a57806343ff1fb81461037d578063491052cd146103905780634ffd23a7146103a35780635e88752c146103b657806363c51fbb146103c95780636e74607b146103dc57806370a08231146103fc578063715018a61461040f5780637a53e04014610417578063828f3a9c1461041f5780638456cb591461043257610259565b806301339c211461025b57806306fdde0314610263578063095ea7b3146102815780630c7d5cd8146102a45780630ccee99b146102c957806318160ddd146102dc57806319d5b587146102ee578063224e4f481461030157806323b872dd14610314578063313ce5671461032757806336da446814610336575b005b61025961062a565b61026b610712565b6040516102789190613575565b60405180910390f35b61029461028f366004613263565b6107a4565b6040519015158152602001610278565b609b546102b49063ffffffff1681565b60405163ffffffff9091168152602001610278565b6102596102d7366004613263565b6107bb565b6035545b604051908152602001610278565b6102e06102fc3660046133d2565b610842565b6102e061030f3660046133d2565b610943565b610294610322366004613228565b610968565b60405160008152602001610278565b609e54609f5461034d9190600160a060020a031682565b60408051928352600160a060020a03909116602083015201610278565b610294610378366004613263565b610a31565b61025961038b3660046131dc565b610a68565b61029461039e3660046132ac565b610ae5565b6102596103b13660046133d2565b610b3f565b6102596103c4366004613380565b610cc1565b6102596103d73660046133d2565b610e27565b6103ef6103ea3660046131dc565b610fcc565b60405161027891906134f4565b6102e061040a3660046131dc565b6110b2565b6102596110cd565b6102b4611137565b6102b461042d366004613380565b61117d565b610259611191565b610442611262565b6040516102789190613456565b61026b611271565b609e546102e0565b61047261046d366004613263565b611280565b60405161027893929190613550565b6102e060995481565b610294610498366004613263565b6112cb565b6102596104ab3660046131dc565b61136c565b6102946104be366004613263565b6113e9565b609b546102b490604060020a900463ffffffff1681565b609b546102b490640100000000900463ffffffff1681565b610259610500366004613263565b6113f6565b60a05460a15461051c91600160a060020a03169082565b60405161027892919061346a565b6102596105383660046131dc565b6114df565b609c54600160a060020a0316610442565b61025961055c366004613380565b61155c565b61057461056f366004613263565b61181b565b6040516102789190613542565b6102e061058f3660046131f6565b600160a060020a03918216600090815260346020908152604080832093909416825291909152205490565b6102596105c83660046131dc565b611871565b6102e0609a5481565b6102e061191e565b6102596105ec3660046133b0565b61192a565b6102596105ff3660046132cb565b611ab1565b6102596106123660046131dc565b611b46565b6102e06106253660046133d2565b611c41565b33610633611262565b600160a060020a0316146106655760405160e560020a62461bcd02815260040161065c9061376f565b60405180910390fd5b60985460ff16156106cc5760405160e560020a62461bcd02815260206004820152602560248201527f5468652070726f6475637420746f6b656e20697320616c7265616479206c6175604482015260da60020a641b98da195902606482015260840161065c565b6098805460ff191660019081179091556040519081527f65c5ccecef030677b73a1403e7e69ef84d05db9d1732959d543d32f4419909b8906020015b60405180910390a1565b606060368054610721906138f8565b80601f016020809104026020016040519081016040528092919081815260200182805461074d906138f8565b801561079a5780601f1061076f5761010080835404028352916020019161079a565b820191906000526020600020905b81548152906001019060200180831161077d57829003601f168201915b5050505050905090565b60006107b1338484611c5e565b5060015b92915050565b6107c3611262565b600160a060020a031633600160a060020a031614806107ec5750609c54600160a060020a031633145b61080b5760405160e560020a62461bcd02815260040161065c90613738565b600160a060020a0382166108345760405160e560020a62461bcd02815260040161065c906135ff565b61083e8282611d8f565b5050565b6000808263ffffffff161161086c5760405160e560020a62461bcd02815260040161065c9061366d565b609b546000906108a39063ffffffff606060020a820481169161089d9187811691604060020a9004811690611f0816565b90611f08565b609d54609a54609b5460405160e060020a631c949873028152939450600160a060020a0390921692631c949873926108ea928692909163ffffffff16908990600401613812565b60206040518083038186803b15801561090257600080fd5b505afa158015610916573d6000803e3d6000fd5b505050506040513d601f19601f8201168201806040525081019061093a9190613398565b9150505b919050565b600080600061095184611f1b565b90925090506109608282611fde565b949350505050565b6000610975848484611fea565b600160a060020a038416600090815260346020908152604080832033845290915290205482811015610a125760405160e560020a62461bcd02815260206004820152602860248201527f45524332303a207472616e7366657220616d6f756e742065786365656473206160448201527f6c6c6f77616e6365000000000000000000000000000000000000000000000000606482015260840161065c565b610a268533610a2186856138bc565b611c5e565b506001949350505050565b336000818152603460209081526040808320600160a060020a038716845290915281205490916107b1918590610a2190869061383a565b33610a71611262565b600160a060020a031614610a9a5760405160e560020a62461bcd02815260040161065c9061376f565b600160a060020a038116610ac35760405160e560020a62461bcd02815260040161065c906135c8565b609d8054600160a060020a031916600160a060020a0392909216919091179055565b60006003826003811115610b0c5760e060020a634e487b7102600052602160045260246000fd5b14806107b557506002826003811115610b385760e060020a634e487b7102600052602160045260246000fd5b1492915050565b60985460ff16610b645760405160e560020a62461bcd02815260040161065c906137a4565b8063ffffffff16610b74336110b2565b101580610b87575060008163ffffffff16115b610ba65760405160e560020a62461bcd02815260040161065c9061366d565b600080610bb2836121d6565b60a25460405160e060020a63a9059cbb028152929450909250600091600160a060020a039091169063a9059cbb90610bf0903390879060040161346a565b602060405180830381600087803b158015610c0a57600080fd5b505af1158015610c1e573d6000803e3d6000fd5b505050506040513d601f19601f82011682018060405250810190610c42919061328c565b9050610c6b610c666501d1a94a2000610c608564e8d4a510006122e9565b906122f5565b612301565b80610cbb5760405160e560020a62461bcd02815260206004820152601460248201527f73656c6c696e6720746f6b656e206661696c6564000000000000000000000000604482015260640161065c565b50505050565b609f54600160a060020a0316610d1c5760405160e560020a62461bcd02815260206004820152601160248201527f77616c6c657420697320696e76616c6964000000000000000000000000000000604482015260640161065c565b609f54600160a060020a03163314610d795760405160e560020a62461bcd02815260206004820152601a60248201527f5468652061646472657373206973206e6f7420616c6c6f776564000000000000604482015260640161065c565b609e548111610e245760a25460405160e060020a63a9059cbb028152600091600160a060020a03169063a9059cbb90610db8903390869060040161346a565b602060405180830381600087803b158015610dd257600080fd5b505af1158015610de6573d6000803e3d6000fd5b505050506040513d601f19601f82011682018060405250810190610e0a919061328c565b9050801561083e57609e54610e1f9083611fde565b609e55505b50565b60985460ff16610e4c5760405160e560020a62461bcd02815260040161065c906137a4565b60008163ffffffff1611610e755760405160e560020a62461bcd02815260040161065c906137db565b8063ffffffff16610e85336110b2565b1015610ed65760405160e560020a62461bcd02815260206004820152601c60248201527f496e73756666696369656e7420746f6b656e7320746f206275726e2e00000000604482015260640161065c565b600080610ee283611f1b565b915091506000610ef184610842565b9050610f13610c668261089d6501d1a94a2000610c608764e8d4a510006122e9565b610f1d8383611fde565b9250610f29848461231a565b50610f3a338563ffffffff1661246e565b609b54610f55908590604060020a900463ffffffff16613852565b609b80546bffffffff00000000000000001916604060020a63ffffffff93841602179055609a54610f88918390611f0816565b609a5560405163ffffffff8516815233907fe600c25f82e9bac8f9f1663725540d6cd442845726820fd5bee41b66c4bf59be9060200160405180910390a250505050565b600160a060020a0381166000908152606560209081526040808320805482518185028101850190935280835260609492939192909184015b828210156110a7576000848152602090206040805160608101909152600284029091018054829060ff1660038111156110505760e060020a634e487b7102600052602160045260246000fd5b60038111156110725760e060020a634e487b7102600052602160045260246000fd5b81528154610100900463ffffffff16602080830191909152600192830154604090920191909152918352929092019101611004565b505050509050919050565b600160a060020a031660009081526033602052604090205490565b336110d6611262565b600160a060020a0316146110ff5760405160e560020a62461bcd02815260040161065c9061376f565b606654604051600091600160a060020a03169060008051602061399e833981519152908390a360668054600160a060020a0319169055565b609b54600090604060020a900463ffffffff1661115360355490565b609b5461116e9190640100000000900463ffffffff166138d3565b61117891906138d3565b905090565b600080611189836125b7565b509392505050565b3361119a611262565b600160a060020a0316146111c35760405160e560020a62461bcd02815260040161065c9061376f565b60985460ff166112275760405160e560020a62461bcd02815260206004820152602360248201527f5468652070726f6475637420746f6b656e20697320616c726561647920706175604482015260ea60020a621cd95902606482015260840161065c565b6098805460ff19169055604051600081527f65c5ccecef030677b73a1403e7e69ef84d05db9d1732959d543d32f4419909b890602001610708565b606654600160a060020a031690565b606060378054610721906138f8565b6065602052816000526040600020818154811061129c57600080fd5b60009182526020909120600290910201805460019091015460ff8216935061010090910463ffffffff16915083565b336000908152603460209081526040808320600160a060020a0386168452909152812054828110156113535760405160e560020a62461bcd02815260206004820152602560248201527f45524332303a2064656372656173656420616c6c6f77616e63652062656c6f77604482015260d860020a64207a65726f02606482015260840161065c565b6113623385610a2186856138bc565b5060019392505050565b33611375611262565b600160a060020a03161461139e5760405160e560020a62461bcd02815260040161065c9061376f565b600160a060020a0381166113c75760405160e560020a62461bcd02815260040161065c906135c8565b60a28054600160a060020a031916600160a060020a0392909216919091179055565b60006107b1338484611fea565b6113fe611262565b600160a060020a031633600160a060020a031614806114275750609c54600160a060020a031633145b6114465760405160e560020a62461bcd02815260040161065c90613738565b600160a060020a03821661146f5760405160e560020a62461bcd02815260040161065c906135ff565b600061147b83836126be565b9050600081116114d05760405160e560020a62461bcd02815260206004820152600d60248201527f496e76616c69642076616c756500000000000000000000000000000000000000604482015260640161065c565b6114da838261286f565b505050565b336114e8611262565b600160a060020a0316146115115760405160e560020a62461bcd02815260040161065c9061376f565b600160a060020a03811661153a5760405160e560020a62461bcd02815260040161065c906136a4565b609c8054600160a060020a031916600160a060020a0392909216919091179055565b60985460ff166115815760405160e560020a62461bcd02815260040161065c906137a4565b600081116115d45760405160e560020a62461bcd02815260206004820152601160248201527f696e76616c6964206d6178207072696365000000000000000000000000000000604482015260640161065c565b60a25460405160e060020a6323b872dd02815233600482015230602482015260448101839052600091600160a060020a0316906323b872dd90606401602060405180830381600087803b15801561162a57600080fd5b505af115801561163e573d6000803e3d6000fd5b505050506040513d601f19601f82011682018060405250810190611662919061328c565b9050806116b45760405160e560020a62461bcd02815260206004820152601060248201527f5075726368617365206661696c65642e00000000000000000000000000000000604482015260640161065c565b6000806000806116c386612949565b93509350935063ffffffff169350600084111561178a5782156117695760a25460405160e060020a63a9059cbb028152600160a060020a039091169063a9059cbb90611715903390879060040161346a565b602060405180830381600087803b15801561172f57600080fd5b505af1158015611743573d6000803e3d6000fd5b505050506040513d601f19601f82011682018060405250810190611767919061328c565b505b611785610c66650746a5288000610c608464e8d4a510006122e9565b611813565b60a25460405160e060020a63a9059cbb028152600160a060020a039091169063a9059cbb906117bf9033908a9060040161346a565b602060405180830381600087803b1580156117d957600080fd5b505af11580156117ed573d6000803e3d6000fd5b505050506040513d601f19601f82011682018060405250810190611811919061328c565b505b505050505050565b600160a060020a03821660009081526065602052604081208054839081106118565760e060020a634e487b7102600052603260045260246000fd5b600091825260209091206002909102015460ff169392505050565b3361187a611262565b600160a060020a0316146118a35760405160e560020a62461bcd02815260040161065c9061376f565b600160a060020a0381166118fc5760405160e560020a62461bcd02815260206004820152601260248201527f4164647265737320697320696e76616c69640000000000000000000000000000604482015260640161065c565b609f8054600160a060020a031916600160a060020a0392909216919091179055565b60006111786001611c41565b33611933611262565b600160a060020a03161461195c5760405160e560020a62461bcd02815260040161065c9061376f565b600160a060020a0381166119855760405160e560020a62461bcd02815260040161065c906136a4565b60a25460405160e060020a6370a08231028152600160a060020a03909116906370a08231906119b8903090600401613456565b60206040518083038186803b1580156119d057600080fd5b505afa1580156119e4573d6000803e3d6000fd5b505050506040513d601f19601f82011682018060405250810190611a089190613398565b821115611a2a5760405160e560020a62461bcd02815260040161065c9061366d565b60a25460405160e060020a63a9059cbb028152600160a060020a039091169063a9059cbb90611a5f908490869060040161346a565b602060405180830381600087803b158015611a7957600080fd5b505af1158015611a8d573d6000803e3d6000fd5b505050506040513d601f19601f820116820180604052508101906114da919061328c565b600054610100900460ff1680611aca575060005460ff16155b611ae95760405160e560020a62461bcd02815260040161065c906136db565b600054610100900460ff16158015611b0b576000805461ffff19166101011790555b611b13612ab8565b611b1d8888612b36565b611b2a8686868686612bb8565b8015611b3c576000805461ff00191690555b5050505050505050565b33611b4f611262565b600160a060020a031614611b785760405160e560020a62461bcd02815260040161065c9061376f565b600160a060020a038116611bf75760405160e560020a62461bcd02815260206004820152602660248201527f4f776e61626c653a206e6577206f776e657220697320746865207a65726f206160448201527f6464726573730000000000000000000000000000000000000000000000000000606482015260840161065c565b606654604051600160a060020a0380841692169060008051602061399e83398151915290600090a360668054600160a060020a031916600160a060020a0392909216919091179055565b6000806000611c4f84612d4b565b90925090506109608282611f08565b600160a060020a038316611cc65760405160e560020a62461bcd028152602060048201526024808201527f45524332303a20617070726f76652066726f6d20746865207a65726f20616464604482015260e060020a637265737302606482015260840161065c565b600160a060020a038216611d2d5760405160e560020a62461bcd02815260206004820152602260248201527f45524332303a20617070726f766520746f20746865207a65726f206164647265604482015260f060020a61737302606482015260840161065c565b600160a060020a0383811660008181526034602090815260408083209487168084529482529182902085905590518481527f8c5be1e5ebec7d5bd14f71427d1e84f3dd0314c0f7b2291e5b200ac8c7c3b92591015b60405180910390a3505050565b600160a060020a03821660009081526065602052604090208054611de8919083908110611dcf5760e060020a634e487b7102600052603260045260246000fd5b600091825260209091206002909102015460ff16610ae5565b15611e085760405160e560020a62461bcd02815260040161065c90613636565b600160a060020a038216600090815260656020526040902080546003919083908110611e475760e060020a634e487b7102600052603260045260246000fd5b60009182526020909120600290910201805460ff19166001836003811115611e825760e060020a634e487b7102600052602160045260246000fd5b021790555060008051602061397e83398151915282826065600086600160a060020a0316600160a060020a031681526020019081526020016000208481548110611edf5760e060020a634e487b7102600052603260045260246000fd5b9060005260206000209060020201604051611efc939291906134a7565b60405180910390a15050565b6000611f14828461383a565b9392505050565b609d5460009081908190600160a060020a0316631c949873611f3b612e04565b609954609b5460405163ffffffff85811660e060020a028252611f6694939216908a90600401613812565b60206040518083038186803b158015611f7e57600080fd5b505afa158015611f92573d6000803e3d6000fd5b505050506040513d601f19601f82011682018060405250810190611fb69190613398565b90506000611fd264e8d4a51000610c6084640df84758006122e9565b91935090915050915091565b6000611f1482846138bc565b600160a060020a0383166120545760405160e560020a62461bcd02815260206004820152602560248201527f45524332303a207472616e736665722066726f6d20746865207a65726f206164604482015260d860020a64647265737302606482015260840161065c565b600160a060020a0382166120bc5760405160e560020a62461bcd02815260206004820152602360248201527f45524332303a207472616e7366657220746f20746865207a65726f2061646472604482015260e860020a6265737302606482015260840161065c565b600160a060020a0383166000908152603360205260409020548181101561214e5760405160e560020a62461bcd02815260206004820152602660248201527f45524332303a207472616e7366657220616d6f756e742065786365656473206260448201527f616c616e63650000000000000000000000000000000000000000000000000000606482015260840161065c565b61215882826138bc565b600160a060020a03808616600090815260336020526040808220939093559085168152908120805484929061218e90849061383a565b9250508190555082600160a060020a031684600160a060020a03166000805160206139be833981519152846040516121c891815260200190565b60405180910390a350505050565b60008060008363ffffffff16116122025760405160e560020a62461bcd02815260040161065c906137db565b8263ffffffff16612212336110b2565b10156122635760405160e560020a62461bcd02815260206004820152601c60248201527f496e73756666696369656e7420746f6b656e7320746f2073656c6c2e00000000604482015260640161065c565b60008061226f85611f1b565b60995491935091506122819083611fde565b6099556122943363ffffffff871661246e565b6040805163ffffffff871681526020810184905233917f84c8d08e5480cf09cbf77bc575dc4e63845522693c34094f04129a4dedb7abd7910160405180910390a26122df8282611fde565b9350915050915091565b6000611f14828461389d565b6000611f14828461387a565b8015610e2457609e546123149082611f08565b609e5550565b6000808363ffffffff16116123745760405160e560020a62461bcd02815260206004820152600e60248201527f496e76616c696420416d6f756e74000000000000000000000000000000000000604482015260640161065c565b60408051606081018252600180825263ffffffff861660208084019190915282840186905233600090815260658252938420805480840182559085529320825160029094020180549293849391929091839160ff19909116908360038111156123f05760e060020a634e487b7102600052602160045260246000fd5b0217905550602082810151825463ffffffff9091166101000264ffffffff001990911617825560409283015160019283015533600090815260659091529182205461243b91906138bc565b905060008051602061397e83398151915233828460405161245e93929190613483565b60405180910390a1949350505050565b600160a060020a0382166124d45760405160e560020a62461bcd02815260206004820152602160248201527f45524332303a206275726e2066726f6d20746865207a65726f20616464726573604482015260f860020a607302606482015260840161065c565b600160a060020a0382166000908152603360205260409020548181101561254e5760405160e560020a62461bcd02815260206004820152602260248201527f45524332303a206275726e20616d6f756e7420657863656564732062616c616e604482015260f060020a61636502606482015260840161065c565b61255882826138bc565b600160a060020a038416600090815260336020526040812091909155603580548492906125869084906138bc565b9091555050604051828152600090600160a060020a038516906000805160206139be83398151915290602001611d82565b600080806125d364fb75043000610c608664e8d4a510006122e9565b905060006125f1655af3107a4000610c6084650746a52880006122e9565b609d54909150600090600160a060020a0316639f4ae6b0612610612e04565b609954609b5463ffffffff9081169061262d9089908990611fde16565b60405163ffffffff86811660e060020a0282529485166004820152602481019390935292166044820152606481019190915260840160206040518083038186803b15801561267a57600080fd5b505afa15801561268e573d6000803e3d6000fd5b505050506040513d601f19601f820116820180604052508101906126b291906133ee565b94509092505050915091565b600160a060020a038216600090815260656020526040812080546126fe919084908110611dcf5760e060020a634e487b7102600052603260045260246000fd5b1561271e5760405160e560020a62461bcd02815260040161065c90613636565b600160a060020a03831660009081526065602052604090208054600291908490811061275d5760e060020a634e487b7102600052603260045260246000fd5b60009182526020909120600290910201805460ff191660018360038111156127985760e060020a634e487b7102600052602160045260246000fd5b021790555060008051602061397e83398151915283836065600087600160a060020a0316600160a060020a0316815260200190815260200160002085815481106127f55760e060020a634e487b7102600052603260045260246000fd5b9060005260206000209060020201604051612812939291906134a7565b60405180910390a1600160a060020a03831660009081526065602052604090208054839081106128555760e060020a634e487b7102600052603260045260246000fd5b906000526020600020906002020160010154905092915050565b60a25460405160e060020a63a9059cbb028152600091600160a060020a03169063a9059cbb906128a5908690869060040161346a565b602060405180830381600087803b1580156128bf57600080fd5b505af11580156128d3573d6000803e3d6000fd5b505050506040513d601f19601f820116820180604052508101906128f7919061328c565b9050806114da5760405160e560020a62461bcd02815260206004820152601360248201527f726566756e6420746f6b656e206661696c656400000000000000000000000000604482015260640161065c565b6000806000806000612959611137565b63ffffffff16116129af5760405160e560020a62461bcd02815260206004820152601e60248201527f536f7272792c207468697320746f6b656e20697320736f6c64206f75742e0000604482015260640161065c565b60008511612a025760405160e560020a62461bcd02815260206004820152601960248201527f4465706f736974206d757374206265206e6f6e2d7a65726f2e00000000000000604482015260640161065c565b600080612a0f6001612d4b565b9150915086821115612a305760008760008095509550955095505050612ab1565b612a3b336001612e31565b612a51612a488383611fde565b60995490611f08565b60995560408051600181526020810184905233917f5b55159a377d86da80a65140d62d994ddbb2cbd4bb2d1b59cb0827fecbe47cab910160405180910390a26001612aa682612aa08a86611fde565b90611fde565b909650945090925090505b9193509193565b600054610100900460ff1680612ad1575060005460ff16155b612af05760405160e560020a62461bcd02815260040161065c906136db565b600054610100900460ff16158015612b12576000805461ffff19166101011790555b612b1a612f01565b612b22612f6e565b8015610e24576000805461ff001916905550565b600054610100900460ff1680612b4f575060005460ff16155b612b6e5760405160e560020a62461bcd02815260040161065c906136db565b600054610100900460ff16158015612b90576000805461ffff19166101011790555b612b98612f01565b612ba2838361300d565b80156114da576000805461ff0019169055505050565b600054610100900460ff1680612bd1575060005460ff16155b612bf05760405160e560020a62461bcd02815260040161065c906136db565b600054610100900460ff16158015612c12576000805461ffff19166101011790555b60008463ffffffff1611612c6b5760405160e560020a62461bcd02815260206004820152601860248201527f496e76616c6964206d617820746f6b656e20636f756e742e0000000000000000604482015260640161065c565b60008563ffffffff1611612cc45760405160e560020a62461bcd02815260206004820152601560248201527f496e76616c6964207265736572766520726174696f0000000000000000000000604482015260640161065c565b609d8054600160a060020a038816600160a060020a03199091161790556099829055609a829055609b805463ffffffff8681166401000000000267ffffffffffffffff19828816606060020a02166fffffffff00000000ffffffffffffffff1990931692909217908816171790558015611813576000805461ff0019169055505050505050565b609d5460009081908190600160a060020a031663bff82d84612d6b612e04565b609954609b5460405163ffffffff85811660e060020a028252612d9694939216908a90600401613812565b60206040518083038186803b158015612dae57600080fd5b505afa158015612dc2573d6000803e3d6000fd5b505050506040513d601f19601f82011682018060405250810190612de69190613398565b90506000611fd2655af3107a4000610c6084650746a52880006122e9565b609b546000906111789063ffffffff606060020a820481169161089d91604060020a909104168160355490565b600160a060020a038216612e8a5760405160e560020a62461bcd02815260206004820152601f60248201527f45524332303a206d696e7420746f20746865207a65726f206164647265737300604482015260640161065c565b8060356000828254612e9c919061383a565b9091555050600160a060020a03821660009081526033602052604081208054839290612ec990849061383a565b9091555050604051818152600160a060020a038316906000906000805160206139be8339815191529060200160405180910390a35050565b600054610100900460ff1680612f1a575060005460ff16155b612f395760405160e560020a62461bcd02815260040161065c906136db565b600054610100900460ff16158015612b22576000805461ffff19166101011790558015610e24576000805461ff001916905550565b600054610100900460ff1680612f87575060005460ff16155b612fa65760405160e560020a62461bcd02815260040161065c906136db565b600054610100900460ff16158015612fc8576000805461ffff19166101011790555b60668054600160a060020a03191633908117909155604051819060009060008051602061399e833981519152908290a3508015610e24576000805461ff001916905550565b600054610100900460ff1680613026575060005460ff16155b6130455760405160e560020a62461bcd02815260040161065c906136db565b600054610100900460ff16158015613067576000805461ffff19166101011790555b825161307a9060369060208601906130a5565b50815161308e9060379060208501906130a5565b5080156114da576000805461ff0019169055505050565b8280546130b1906138f8565b90600052602060002090601f0160209004810192826130d35760008555613119565b82601f106130ec57805160ff1916838001178555613119565b82800160010185558215613119579182015b828111156131195782518255916020019190600101906130fe565b50613125929150613129565b5090565b5b80821115613125576000815560010161312a565b8035600160a060020a038116811461093e57600080fd5b600082601f830112613165578081fd5b813567ffffffffffffffff8082111561318057613180613951565b604051601f8301601f19908116603f011681019082821181831017156131a8576131a8613951565b816040528381528660208588010111156131c0578485fd5b8360208701602083013792830160200193909352509392505050565b6000602082840312156131ed578081fd5b611f148261313e565b60008060408385031215613208578081fd5b6132118361313e565b915061321f6020840161313e565b90509250929050565b60008060006060848603121561323c578081fd5b6132458461313e565b92506132536020850161313e565b9150604084013590509250925092565b60008060408385031215613275578182fd5b61327e8361313e565b946020939093013593505050565b60006020828403121561329d578081fd5b81518015158114611f14578182fd5b6000602082840312156132bd578081fd5b813560048110611f14578182fd5b600080600080600080600060e0888a0312156132e5578283fd5b873567ffffffffffffffff808211156132fc578485fd5b6133088b838c01613155565b985060208a013591508082111561331d578485fd5b5061332a8a828b01613155565b9650506133396040890161313e565b945060608801356133498161396b565b935060808801356133598161396b565b925060a08801356133698161396b565b8092505060c0880135905092959891949750929550565b600060208284031215613391578081fd5b5035919050565b6000602082840312156133a9578081fd5b5051919050565b600080604083850312156133c2578182fd5b8235915061321f6020840161313e565b6000602082840312156133e3578081fd5b8135611f148161396b565b6000602082840312156133ff578081fd5b8151611f148161396b565b6004811061342c5760e060020a634e487b710260009081526021600452602490fd5b9052565b61343b82825161340a565b60208181015163ffffffff1690830152604090810151910152565b600160a060020a0391909116815260200190565b600160a060020a03929092168252602082015260400190565b600160a060020a03841681526020810183905260a081016109606040830184613430565b600160a060020a038416815260208101839052815460a08201906134d16040840160ff831661340a565b63ffffffff61010082041660608401525060018301546080830152949350505050565b6020808252825182820181905260009190848201906040850190845b8181101561353657613523838551613430565b9284019260609290920191600101613510565b50909695505050505050565b602081016107b5828461340a565b6060810161355e828661340a565b63ffffffff93909316602082015260400152919050565b6000602080835283518082850152825b818110156135a157858101830151858201604001528201613585565b818111156135b25783604083870101525b50601f01601f1916929092016040019392505050565b6020808252600f908201527f496e76616c696420616464726573730000000000000000000000000000000000604082015260600190565b6020808252600d908201527f496e76616c696420627579657200000000000000000000000000000000000000604082015260600190565b60208082526011908201527f616c726561647920636f6d706c65746564000000000000000000000000000000604082015260600190565b6020808252600e908201527f696e76616c696420616d6f756e74000000000000000000000000000000000000604082015260600190565b6020808252600f908201527f696e76616c696420616464726573730000000000000000000000000000000000604082015260600190565b6020808252602e908201527f496e697469616c697a61626c653a20636f6e747261637420697320616c72656160408201527f647920696e697469616c697a6564000000000000000000000000000000000000606082015260800190565b60208082526011908201527f7065726d697373696f6e2064656e696564000000000000000000000000000000604082015260600190565b6020808252818101527f4f776e61626c653a2063616c6c6572206973206e6f7420746865206f776e6572604082015260600190565b60208082526013908201527f756e61626c6520746f207472616465206e6f7700000000000000000000000000604082015260600190565b60208082526018908201527f416d6f756e74206d757374206265206e6f6e2d7a65726f2e0000000000000000604082015260600190565b63ffffffff948516815260208101939093529083166040830152909116606082015260800190565b6000821982111561384d5761384d613937565b500190565b600063ffffffff80831681851680830382111561387157613871613937565b01949350505050565b6000826138985760e060020a634e487b710281526012600452602481fd5b500490565b60008160001904831182151516156138b7576138b7613937565b500290565b6000828210156138ce576138ce613937565b500390565b600063ffffffff838116908316818110156138f0576138f0613937565b039392505050565b60028104600182168061390c57607f821691505b602082108114156139315760e060020a634e487b710260009081526022600452602490fd5b50919050565b60e060020a634e487b710260009081526011600452602490fd5b60e060020a634e487b710260009081526041600452602490fd5b63ffffffff81168114610e2457600080fdfe09c64bee251b684a6bb80ce179dd520c001481b7c3d7781f1502e3052af474cf8be0079c531659141344cd1fd0a4f28419497f9722a3daafe3b4186f6b6457e0ddf252ad1be2c89b69c2b068fc378daa952ba7f163c4a11628f55a4df523b3efa26469706673582212200fdf0ce81c17441eda7abc2ef75f0c2ff3eb169e566d8c3046e8673a72cde89464736f6c63430008030033",
  "immutableReferences": {},
  "source": "// SPDX-License-Identifier: MIT\n\npragma solidity ^0.8.3;\n\nimport \"@openzeppelin/contracts/token/ERC20/IERC20.sol\";\nimport \"@openzeppelin/contracts-upgradeable/utils/math/SafeMathUpgradeable.sol\";\nimport \"./ProductToken.sol\";\nimport \"./interface/IVNFT.sol\";\n\n/// @title ProductTokenV1\n/// @notice This is version 1 of the product token implementation.\n/// @dev This contract builds on top of version 0 by including transaction logics, such as buy and sell transfers\n///    and exchange rate computation by including a price oracle.\ncontract ProductTokenV1 is ProductToken {\n\tusing SafeMathUpgradeable for uint256;\n\n    struct supplierInfo {\n        uint256 amount;\n        address wallet;\n    }\n    struct voucherInfo {\n        address addr;\n        uint256 tokenId;\n    }\n\n    supplierInfo public supplier;\n    voucherInfo public voucher;\n    IERC20 high;\n\n    function setHigh(address highAddress_) external onlyOwner {\n        require(highAddress_!=address(0), \"Invalid address\");\n        high = IERC20(highAddress_);\n    }\n\n    function buy(uint256 maxPrice_) external virtual onlyIfTradable {\n        require(maxPrice_ > 0, \"invalid max price\");\n\n        bool success = high.transferFrom(msg.sender, address(this), maxPrice_);\n        require(success, \"Purchase failed.\");\n\n        (uint256 amount,uint256 change, uint price, uint256 fee)  = _buy(maxPrice_);\n        if (amount > 0) {\n            if(change > 0) {\n                high.transfer(msg.sender, change);\n            }\n            _updateSupplierFee(fee.mul(1e12).div(8e12));\n        }else { // If token transaction failed\n            high.transfer(msg.sender, maxPrice_);\n        }\n    }\n\n    function sell(uint32 amount_) external virtual onlyIfTradable {\n        require(balanceOf(msg.sender) >= amount_ || amount_ > 0, 'invalid amount');\n\n        (uint256 price, uint256 fee )= _sellForAmount(amount_);\n\n        bool success = high.transfer(msg.sender, price);\n        _updateSupplierFee(fee.mul(1e12).div(2e12));\n        require(success, \"selling token failed\");\n    }\n\n    /**\n    * @dev When user wants to trade in their token for retail product\n    *\n    * @param amount_                   amount of tokens that user wants to trade in.\n    */\n    function tradein(uint32 amount_) external virtual onlyIfTradable {\n        require(amount_ > 0, \"Amount must be non-zero.\");\n        require(balanceOf(msg.sender) >= amount_, \"Insufficient tokens to burn.\");\n\n        (uint256 reimburseAmount, uint fee) = _sellReturn(amount_);\n\n        uint256 tradinReturn = calculateTradinReturn(amount_);\n        _updateSupplierFee(fee.mul(1e12).div(2e12).add(tradinReturn));\n        reimburseAmount = reimburseAmount.sub(fee);\n        _addEscrow(amount_,  reimburseAmount);\n        _burn(msg.sender, amount_);\n        tradeinCount = tradeinCount + amount_;\n        tradeinReserveBalance = tradeinReserveBalance.add(tradinReturn);\n\n        emit Tradein(msg.sender, amount_);\n    }\n\n    function updateSupplierInfo( address wallet_) external onlyOwner {\n        require(wallet_!=address(0), \"Address is invalid\");\n        supplier.wallet = wallet_;\n    }\n\n    function claimSupplier(uint256 amount_) external virtual {\n        require(supplier.wallet!=address(0), \"wallet is invalid\");\n        require(msg.sender == supplier.wallet, \"The address is not allowed\");\n        if (amount_ <= supplier.amount){\n            bool success = high.transfer(msg.sender, amount_);\n            if (success) {\n                supplier.amount = supplier.amount.sub(amount_);\n            }\n        }\n    }\n\n    function _updateSupplierFee(uint256 fee) internal virtual {\n        if( fee > 0 ) {\n            supplier.amount = supplier.amount.add(fee);\n        }\n    }\n\n    /**\n    * @dev this function returns the amount of reserve balance that the supplier can withdraw from the dapp.\n    */\n    function getSupplierBalance() public view virtual returns (uint256) {\n        return supplier.amount;\n    }\n\n    /**\n    * @dev A method that refunds the value of a product to a buyer/customer.\n    *\n    * @param buyer_       The wallet address of the owner whose product token is under the redemption process\n    * @param value_       The market value of the token being redeemed\n    *\n    */\n    function _refund(address buyer_, uint256 value_) internal virtual override {\n        bool success = high.transfer(buyer_, value_);\n        require(success, \"refund token failed\");\n    }\n\n    function withdrawHigh(uint256 amount_, address to_) external virtual onlyOwner {\n        require(to_ != address(0), \"invalid address\");\n        require(amount_ <= high.balanceOf(address(this)), 'invalid amount');\n        high.transfer(to_, amount_);\n    }\n\n}\n",
  "sourcePath": "/Users/jack/Documents/GitHub/HighStreet/client/src/contracts/ProductTokenV1.sol",
  "compiler": {
    "name": "solc",
    "version": "0.8.3+commit.8d00100c.Emscripten.clang"
  },
  "schemaVersion": "3.4.0",
  "updatedAt": "2021-09-27T08:15:19.631Z",
  "networkType": "ethereum",
  "devdoc": {
    "details": "This contract builds on top of version 0 by including transaction logics, such as buy and sell transfers    and exchange rate computation by including a price oracle.",
    "kind": "dev",
    "methods": {
      "allowance(address,address)": {
        "details": "See {IERC20-allowance}."
      },
      "approve(address,uint256)": {
        "details": "See {IERC20-approve}. Requirements: - `spender` cannot be the zero address."
      },
      "balanceOf(address)": {
        "details": "See {IERC20-balanceOf}."
      },
      "calculateBuyReturn(uint256)": {
        "details": "Function that computes number of product tokens one can buy given an amount in reserve token.",
        "params": {
          "_amountReserve": "purchaing amount in reserve token (dai)(with 4% platform fee)"
        },
        "returns": {
          "mintAmount": "             number of tokens in traded token that can be purchased by given amount."
        }
      },
      "calculateSellReturn(uint32)": {
        "details": "Function that computes selling price in reserve tokens given an amount in traded token.",
        "params": {
          "_amountProduct": "selling amount in product token"
        },
        "returns": {
          "soldAmount": "             total amount that will be transferred to the seller (with 2% platform fee)."
        }
      },
      "decimals()": {
        "details": "Returns the number of decimals used to get its user representation. For example, if `decimals` equals `2`, a balance of `505` tokens should be displayed to a user as `5,05` (`505 / 10 ** 2`). Tokens usually opt for a value of 18, imitating the relationship between Ether and Wei. This is the value {ERC20} uses, unless this function is overloaded; NOTE: This information is only used for _display_ purposes: it in no way affects any of the arithmetic of the contract, including {IERC20-balanceOf} and {IERC20-transfer}."
      },
      "decreaseAllowance(address,uint256)": {
        "details": "Atomically decreases the allowance granted to `spender` by the caller. This is an alternative to {approve} that can be used as a mitigation for problems described in {IERC20-approve}. Emits an {Approval} event indicating the updated allowance. Requirements: - `spender` cannot be the zero address. - `spender` must have allowance for the caller of at least `subtractedValue`."
      },
      "getAvailability()": {
        "details": "Function to check how many tokens of this product are currently available for purchase, by taking the difference between max cap count and current token in circulation or burned.",
        "returns": {
          "available": "               the number of tokens available"
        }
      },
      "getCurrentPrice()": {
        "details": "Function that computes current price for a token through bonding curve calculation based on parameters such as total supply, reserve balance, and reserve ratio.",
        "returns": {
          "price": "                  current price in reserve token (in our case, this is dai). (with 4% platform fee)"
        }
      },
      "getEscrowHistory(address)": {
        "details": "Return the list of all escrows created for a certain user",
        "params": {
          "_buyer": "The address of the buyer"
        },
        "returns": {
          "_0": "A list of past escrows"
        }
      },
      "getPriceForN(uint32)": {
        "details": "Function that computes price total for buying n token through bonding curve calculation based on parameters such as total supply, reserve balance, and reserve ratio.",
        "params": {
          "_amountProduct": "token amount in traded token"
        },
        "returns": {
          "price": "                  total price in reserve token (in our case, this is dai). (with 4% platform fee)"
        }
      },
      "getRedeemStatus(address,uint256)": {
        "details": "Get status of a particular redemption process",
        "params": {
          "_buyer": "The address of the buyer",
          "_id": "The cached id of the escrow, retrieved from database"
        },
        "returns": {
          "_0": "The current status"
        }
      },
      "getSupplierBalance()": {
        "details": "this function returns the amount of reserve balance that the supplier can withdraw from the dapp."
      },
      "increaseAllowance(address,uint256)": {
        "details": "Atomically increases the allowance granted to `spender` by the caller. This is an alternative to {approve} that can be used as a mitigation for problems described in {IERC20-approve}. Emits an {Approval} event indicating the updated allowance. Requirements: - `spender` cannot be the zero address."
      },
      "initialize(string,string,address,uint32,uint32,uint32,uint256)": {
        "details": "initializer function.",
        "params": {
          "_baseReserve": "the base amount of reserve tokens, in accordance to _supplyOffset.",
          "_maxTokenCount": "the amount of token that will exist for this type.",
          "_name": "the name of this token",
          "_reserveRatio": "the reserve ratio in the curve function. Number in parts per million",
          "_supplyOffset": "this amount is used to determine initial price.",
          "_symbol": "the symbol of this token"
        }
      },
      "isStateCompleted(uint8)": {
        "details": "Helper function to check whether a escrow state is completed",
        "params": {
          "_state": "The state to be checked"
        }
      },
      "launch()": {
        "details": "requires function to be called from owner. this enables customers to buy, sell, or redeem the product."
      },
      "name()": {
        "details": "Returns the name of the token."
      },
      "owner()": {
        "details": "Returns the address of the current owner."
      },
      "pause()": {
        "details": "requires function to be called from owner. this prevents customers from buying, selling, or redeeming the product."
      },
      "renounceOwnership()": {
        "details": "Leaves the contract without owner. It will not be possible to call `onlyOwner` functions anymore. Can only be called by the current owner. NOTE: Renouncing ownership will leave the contract without an owner, thereby removing any functionality that is only available to the owner."
      },
      "setBondingCurve(address)": {
        "details": "requires function to be called from owner. sets a bonding curve implementation for this product.",
        "params": {
          "_address": "the address of the bonding curve implementation"
        }
      },
      "symbol()": {
        "details": "Returns the symbol of the token, usually a shorter version of the name."
      },
      "totalSupply()": {
        "details": "See {IERC20-totalSupply}."
      },
      "tradein(uint32)": {
        "details": "When user wants to trade in their token for retail product",
        "params": {
          "amount_": "amount of tokens that user wants to trade in."
        }
      },
      "transfer(address,uint256)": {
        "details": "See {IERC20-transfer}. Requirements: - `recipient` cannot be the zero address. - the caller must have a balance of at least `amount`."
      },
      "transferFrom(address,address,uint256)": {
        "details": "See {IERC20-transferFrom}. Emits an {Approval} event indicating the updated allowance. This is not required by the EIP. See the note at the beginning of {ERC20}. Requirements: - `sender` and `recipient` cannot be the zero address. - `sender` must have a balance of at least `amount`. - the caller must have allowance for ``sender``'s tokens of at least `amount`."
      },
      "transferOwnership(address)": {
        "details": "Transfers ownership of the contract to a new account (`newOwner`). Can only be called by the current owner."
      },
      "updateUserCompleted(address,uint256)": {
        "details": "used to update the status of redemption to \"User Complete\" after an escrow process has been started.",
        "params": {
          "buyer": "the wallet address of product buyer",
          "id": "the id of the escrow, returned to the user after starting of redemption process"
        }
      },
      "updateUserRefund(address,uint256)": {
        "details": "used to update the status of redemption to \"User Refunded\" after an escrow process has been started.",
        "params": {
          "buyer": "the wallet address of product buyer",
          "id": "the id of the escrow, returned to the user after starting of redemption process"
        }
      }
    },
    "title": "ProductTokenV1",
    "version": 1
  },
  "userdoc": {
    "kind": "user",
    "methods": {},
    "notice": "This is version 1 of the product token implementation.",
    "version": 1
  }
}