{
  "contractName": "ProductTokenV0",
  "abi": [
    {
      "anonymous": false,
      "inputs": [
        {
          "indexed": true,
          "internalType": "address",
          "name": "owner",
          "type": "address"
        },
        {
          "indexed": true,
          "internalType": "address",
          "name": "spender",
          "type": "address"
        },
        {
          "indexed": false,
          "internalType": "uint256",
          "name": "value",
          "type": "uint256"
        }
      ],
      "name": "Approval",
      "type": "event"
    },
    {
      "anonymous": false,
      "inputs": [
        {
          "indexed": true,
          "internalType": "address",
          "name": "sender",
          "type": "address"
        },
        {
          "indexed": false,
          "internalType": "uint32",
          "name": "amount",
          "type": "uint32"
        },
        {
          "indexed": false,
          "internalType": "uint256",
          "name": "deposit",
          "type": "uint256"
        }
      ],
      "name": "Buy",
      "type": "event"
    },
    {
      "anonymous": false,
      "inputs": [
        {
          "indexed": true,
          "internalType": "address",
          "name": "previousOwner",
          "type": "address"
        },
        {
          "indexed": true,
          "internalType": "address",
          "name": "newOwner",
          "type": "address"
        }
      ],
      "name": "OwnershipTransferred",
      "type": "event"
    },
    {
      "anonymous": false,
      "inputs": [
        {
          "indexed": true,
          "internalType": "address",
          "name": "sender",
          "type": "address"
        },
        {
          "indexed": false,
          "internalType": "uint32",
          "name": "amount",
          "type": "uint32"
        },
        {
          "indexed": false,
          "internalType": "uint256",
          "name": "refund",
          "type": "uint256"
        }
      ],
      "name": "Sell",
      "type": "event"
    },
    {
      "anonymous": false,
      "inputs": [
        {
          "indexed": false,
          "internalType": "bool",
          "name": "isTradable",
          "type": "bool"
        }
      ],
      "name": "Tradable",
      "type": "event"
    },
    {
      "anonymous": false,
      "inputs": [
        {
          "indexed": true,
          "internalType": "address",
          "name": "sender",
          "type": "address"
        },
        {
          "indexed": false,
          "internalType": "uint32",
          "name": "amount",
          "type": "uint32"
        }
      ],
      "name": "Tradein",
      "type": "event"
    },
    {
      "anonymous": false,
      "inputs": [
        {
          "indexed": true,
          "internalType": "address",
          "name": "from",
          "type": "address"
        },
        {
          "indexed": true,
          "internalType": "address",
          "name": "to",
          "type": "address"
        },
        {
          "indexed": false,
          "internalType": "uint256",
          "name": "value",
          "type": "uint256"
        }
      ],
      "name": "Transfer",
      "type": "event"
    },
    {
      "anonymous": false,
      "inputs": [
        {
          "indexed": false,
          "internalType": "address",
          "name": "daiAddress",
          "type": "address"
        },
        {
          "indexed": false,
          "internalType": "address",
          "name": "chainlinkAddress",
          "type": "address"
        }
      ],
      "name": "Update",
      "type": "event"
    },
    {
      "anonymous": false,
      "inputs": [
        {
          "indexed": false,
          "internalType": "address",
          "name": "daiAddress",
          "type": "address"
        },
        {
          "indexed": false,
          "internalType": "address",
          "name": "chainlinkAddress",
          "type": "address"
        }
      ],
      "name": "UpdateHsToken",
      "type": "event"
    },
    {
      "anonymous": false,
      "inputs": [
        {
          "indexed": false,
          "internalType": "address",
          "name": "",
          "type": "address"
        },
        {
          "indexed": false,
          "internalType": "uint256",
          "name": "",
          "type": "uint256"
        },
        {
          "components": [
            {
              "internalType": "enum Escrow.escrowState",
              "name": "state",
              "type": "uint8"
            },
            {
              "internalType": "uint32",
              "name": "amount",
              "type": "uint32"
            },
            {
              "internalType": "uint256",
              "name": "value",
              "type": "uint256"
            }
          ],
          "indexed": false,
          "internalType": "struct Escrow.escrowInfo",
          "name": "",
          "type": "tuple"
        }
      ],
      "name": "escrowStateUpdated",
      "type": "event"
    },
    {
      "stateMutability": "nonpayable",
      "type": "fallback"
    },
    {
      "inputs": [],
      "name": "INDEX_DAI",
      "outputs": [
        {
          "internalType": "uint256",
          "name": "",
          "type": "uint256"
        }
      ],
      "stateMutability": "view",
      "type": "function"
    },
    {
      "inputs": [],
      "name": "INDEX_ETH",
      "outputs": [
        {
          "internalType": "uint256",
          "name": "",
          "type": "uint256"
        }
      ],
      "stateMutability": "view",
      "type": "function"
    },
    {
      "inputs": [],
      "name": "INDEX_HIGH",
      "outputs": [
        {
          "internalType": "uint256",
          "name": "",
          "type": "uint256"
        }
      ],
      "stateMutability": "view",
      "type": "function"
    },
    {
      "inputs": [
        {
          "internalType": "uint32",
          "name": "_amountProduct",
          "type": "uint32"
        }
      ],
      "name": "_getPriceForN",
      "outputs": [
        {
          "internalType": "uint256",
          "name": "price",
          "type": "uint256"
        },
        {
          "internalType": "uint256",
          "name": "fee",
          "type": "uint256"
        }
      ],
      "stateMutability": "view",
      "type": "function"
    },
    {
      "inputs": [
        {
          "internalType": "address",
          "name": "owner",
          "type": "address"
        },
        {
          "internalType": "address",
          "name": "spender",
          "type": "address"
        }
      ],
      "name": "allowance",
      "outputs": [
        {
          "internalType": "uint256",
          "name": "",
          "type": "uint256"
        }
      ],
      "stateMutability": "view",
      "type": "function"
    },
    {
      "inputs": [
        {
          "internalType": "address",
          "name": "spender",
          "type": "address"
        },
        {
          "internalType": "uint256",
          "name": "amount",
          "type": "uint256"
        }
      ],
      "name": "approve",
      "outputs": [
        {
          "internalType": "bool",
          "name": "",
          "type": "bool"
        }
      ],
      "stateMutability": "nonpayable",
      "type": "function"
    },
    {
      "inputs": [
        {
          "internalType": "address",
          "name": "account",
          "type": "address"
        }
      ],
      "name": "balanceOf",
      "outputs": [
        {
          "internalType": "uint256",
          "name": "",
          "type": "uint256"
        }
      ],
      "stateMutability": "view",
      "type": "function"
    },
    {
      "inputs": [
        {
          "internalType": "uint256",
          "name": "_amountReserve",
          "type": "uint256"
        }
      ],
      "name": "calculateBuyReturn",
      "outputs": [
        {
          "internalType": "uint32",
          "name": "mintAmount",
          "type": "uint32"
        }
      ],
      "stateMutability": "view",
      "type": "function"
    },
    {
      "inputs": [
        {
          "internalType": "uint32",
          "name": "_amountProduct",
          "type": "uint32"
        }
      ],
      "name": "calculateSellReturn",
      "outputs": [
        {
          "internalType": "uint256",
          "name": "soldAmount",
          "type": "uint256"
        }
      ],
      "stateMutability": "view",
      "type": "function"
    },
    {
      "inputs": [
        {
          "internalType": "uint32",
          "name": "_amount",
          "type": "uint32"
        }
      ],
      "name": "calculateTradinReturn",
      "outputs": [
        {
          "internalType": "uint256",
          "name": "",
          "type": "uint256"
        }
      ],
      "stateMutability": "view",
      "type": "function"
    },
    {
      "inputs": [],
      "name": "decimals",
      "outputs": [
        {
          "internalType": "uint8",
          "name": "",
          "type": "uint8"
        }
      ],
      "stateMutability": "view",
      "type": "function"
    },
    {
      "inputs": [
        {
          "internalType": "address",
          "name": "spender",
          "type": "address"
        },
        {
          "internalType": "uint256",
          "name": "subtractedValue",
          "type": "uint256"
        }
      ],
      "name": "decreaseAllowance",
      "outputs": [
        {
          "internalType": "bool",
          "name": "",
          "type": "bool"
        }
      ],
      "stateMutability": "nonpayable",
      "type": "function"
    },
    {
      "inputs": [
        {
          "internalType": "address",
          "name": "",
          "type": "address"
        },
        {
          "internalType": "uint256",
          "name": "",
          "type": "uint256"
        }
      ],
      "name": "escrowList",
      "outputs": [
        {
          "internalType": "enum Escrow.escrowState",
          "name": "state",
          "type": "uint8"
        },
        {
          "internalType": "uint32",
          "name": "amount",
          "type": "uint32"
        },
        {
          "internalType": "uint256",
          "name": "value",
          "type": "uint256"
        }
      ],
      "stateMutability": "view",
      "type": "function"
    },
    {
      "inputs": [],
      "name": "getAvailability",
      "outputs": [
        {
          "internalType": "uint32",
          "name": "available",
          "type": "uint32"
        }
      ],
      "stateMutability": "view",
      "type": "function"
    },
    {
      "inputs": [],
      "name": "getCurrentPrice",
      "outputs": [
        {
          "internalType": "uint256",
          "name": "price",
          "type": "uint256"
        }
      ],
      "stateMutability": "view",
      "type": "function"
    },
    {
      "inputs": [
        {
          "internalType": "address",
          "name": "_buyer",
          "type": "address"
        }
      ],
      "name": "getEscrowHistory",
      "outputs": [
        {
          "components": [
            {
              "internalType": "enum Escrow.escrowState",
              "name": "state",
              "type": "uint8"
            },
            {
              "internalType": "uint32",
              "name": "amount",
              "type": "uint32"
            },
            {
              "internalType": "uint256",
              "name": "value",
              "type": "uint256"
            }
          ],
          "internalType": "struct Escrow.escrowInfo[]",
          "name": "",
          "type": "tuple[]"
        }
      ],
      "stateMutability": "view",
      "type": "function"
    },
    {
      "inputs": [],
      "name": "getManager",
      "outputs": [
        {
          "internalType": "address",
          "name": "",
          "type": "address"
        }
      ],
      "stateMutability": "view",
      "type": "function"
    },
    {
      "inputs": [
        {
          "internalType": "uint32",
          "name": "_amountProduct",
          "type": "uint32"
        }
      ],
      "name": "getPriceForN",
      "outputs": [
        {
          "internalType": "uint256",
          "name": "price",
          "type": "uint256"
        }
      ],
      "stateMutability": "view",
      "type": "function"
    },
    {
      "inputs": [
        {
          "internalType": "address",
          "name": "_buyer",
          "type": "address"
        },
        {
          "internalType": "uint256",
          "name": "_id",
          "type": "uint256"
        }
      ],
      "name": "getRedeemStatus",
      "outputs": [
        {
          "internalType": "enum Escrow.escrowState",
          "name": "",
          "type": "uint8"
        }
      ],
      "stateMutability": "view",
      "type": "function"
    },
    {
      "inputs": [
        {
          "internalType": "address",
          "name": "spender",
          "type": "address"
        },
        {
          "internalType": "uint256",
          "name": "addedValue",
          "type": "uint256"
        }
      ],
      "name": "increaseAllowance",
      "outputs": [
        {
          "internalType": "bool",
          "name": "",
          "type": "bool"
        }
      ],
      "stateMutability": "nonpayable",
      "type": "function"
    },
    {
      "inputs": [
        {
          "internalType": "string",
          "name": "_name",
          "type": "string"
        },
        {
          "internalType": "string",
          "name": "_symbol",
          "type": "string"
        },
        {
          "internalType": "address",
          "name": "_bondingCurveAddress",
          "type": "address"
        },
        {
          "internalType": "uint32",
          "name": "_reserveRatio",
          "type": "uint32"
        },
        {
          "internalType": "uint32",
          "name": "_maxTokenCount",
          "type": "uint32"
        },
        {
          "internalType": "uint32",
          "name": "_supplyOffset",
          "type": "uint32"
        },
        {
          "internalType": "uint256",
          "name": "_baseReserve",
          "type": "uint256"
        }
      ],
      "name": "initialize",
      "outputs": [],
      "stateMutability": "nonpayable",
      "type": "function"
    },
    {
      "inputs": [
        {
          "internalType": "enum Escrow.escrowState",
          "name": "_state",
          "type": "uint8"
        }
      ],
      "name": "isStateCompleted",
      "outputs": [
        {
          "internalType": "bool",
          "name": "",
          "type": "bool"
        }
      ],
      "stateMutability": "pure",
      "type": "function"
    },
    {
      "inputs": [],
      "name": "launch",
      "outputs": [],
      "stateMutability": "nonpayable",
      "type": "function"
    },
    {
      "inputs": [],
      "name": "maxTokenCount",
      "outputs": [
        {
          "internalType": "uint32",
          "name": "",
          "type": "uint32"
        }
      ],
      "stateMutability": "view",
      "type": "function"
    },
    {
      "inputs": [],
      "name": "name",
      "outputs": [
        {
          "internalType": "string",
          "name": "",
          "type": "string"
        }
      ],
      "stateMutability": "view",
      "type": "function"
    },
    {
      "inputs": [],
      "name": "owner",
      "outputs": [
        {
          "internalType": "address",
          "name": "",
          "type": "address"
        }
      ],
      "stateMutability": "view",
      "type": "function"
    },
    {
      "inputs": [],
      "name": "pause",
      "outputs": [],
      "stateMutability": "nonpayable",
      "type": "function"
    },
    {
      "inputs": [],
      "name": "poolInfo",
      "outputs": [
        {
          "internalType": "uint256",
          "name": "amount",
          "type": "uint256"
        },
        {
          "internalType": "uint256",
          "name": "accRewardPerShare",
          "type": "uint256"
        },
        {
          "internalType": "uint256",
          "name": "tokenReward",
          "type": "uint256"
        }
      ],
      "stateMutability": "view",
      "type": "function"
    },
    {
      "inputs": [],
      "name": "renounceOwnership",
      "outputs": [],
      "stateMutability": "nonpayable",
      "type": "function"
    },
    {
      "inputs": [],
      "name": "reserveBalance",
      "outputs": [
        {
          "internalType": "uint256",
          "name": "",
          "type": "uint256"
        }
      ],
      "stateMutability": "view",
      "type": "function"
    },
    {
      "inputs": [],
      "name": "reserveRatio",
      "outputs": [
        {
          "internalType": "uint32",
          "name": "",
          "type": "uint32"
        }
      ],
      "stateMutability": "view",
      "type": "function"
    },
    {
      "inputs": [
        {
          "internalType": "address",
          "name": "_address",
          "type": "address"
        }
      ],
      "name": "setBondingCurve",
      "outputs": [],
      "stateMutability": "nonpayable",
      "type": "function"
    },
    {
      "inputs": [
        {
          "internalType": "address",
          "name": "addr_",
          "type": "address"
        }
      ],
      "name": "setManager",
      "outputs": [],
      "stateMutability": "nonpayable",
      "type": "function"
    },
    {
      "inputs": [],
      "name": "supplier",
      "outputs": [
        {
          "internalType": "uint256",
          "name": "amount",
          "type": "uint256"
        },
        {
          "internalType": "address",
          "name": "wallet",
          "type": "address"
        }
      ],
      "stateMutability": "view",
      "type": "function"
    },
    {
      "inputs": [],
      "name": "symbol",
      "outputs": [
        {
          "internalType": "string",
          "name": "",
          "type": "string"
        }
      ],
      "stateMutability": "view",
      "type": "function"
    },
    {
      "inputs": [],
      "name": "totalSupply",
      "outputs": [
        {
          "internalType": "uint256",
          "name": "",
          "type": "uint256"
        }
      ],
      "stateMutability": "view",
      "type": "function"
    },
    {
      "inputs": [],
      "name": "tradeinCount",
      "outputs": [
        {
          "internalType": "uint32",
          "name": "",
          "type": "uint32"
        }
      ],
      "stateMutability": "view",
      "type": "function"
    },
    {
      "inputs": [],
      "name": "tradeinReserveBalance",
      "outputs": [
        {
          "internalType": "uint256",
          "name": "",
          "type": "uint256"
        }
      ],
      "stateMutability": "view",
      "type": "function"
    },
    {
      "inputs": [
        {
          "internalType": "address",
          "name": "recipient",
          "type": "address"
        },
        {
          "internalType": "uint256",
          "name": "amount",
          "type": "uint256"
        }
      ],
      "name": "transfer",
      "outputs": [
        {
          "internalType": "bool",
          "name": "",
          "type": "bool"
        }
      ],
      "stateMutability": "nonpayable",
      "type": "function"
    },
    {
      "inputs": [
        {
          "internalType": "address",
          "name": "sender",
          "type": "address"
        },
        {
          "internalType": "address",
          "name": "recipient",
          "type": "address"
        },
        {
          "internalType": "uint256",
          "name": "amount",
          "type": "uint256"
        }
      ],
      "name": "transferFrom",
      "outputs": [
        {
          "internalType": "bool",
          "name": "",
          "type": "bool"
        }
      ],
      "stateMutability": "nonpayable",
      "type": "function"
    },
    {
      "inputs": [
        {
          "internalType": "address",
          "name": "newOwner",
          "type": "address"
        }
      ],
      "name": "transferOwnership",
      "outputs": [],
      "stateMutability": "nonpayable",
      "type": "function"
    },
    {
      "inputs": [
        {
          "internalType": "address",
          "name": "buyer",
          "type": "address"
        },
        {
          "internalType": "uint256",
          "name": "id",
          "type": "uint256"
        }
      ],
      "name": "updateUserCompleted",
      "outputs": [],
      "stateMutability": "nonpayable",
      "type": "function"
    },
    {
      "inputs": [
        {
          "internalType": "address",
          "name": "buyer",
          "type": "address"
        },
        {
          "internalType": "uint256",
          "name": "id",
          "type": "uint256"
        }
      ],
      "name": "updateUserRefund",
      "outputs": [],
      "stateMutability": "nonpayable",
      "type": "function"
    },
    {
      "inputs": [
        {
          "internalType": "address",
          "name": "",
          "type": "address"
        }
      ],
      "name": "userInfo",
      "outputs": [
        {
          "internalType": "uint256",
          "name": "amount",
          "type": "uint256"
        },
        {
          "internalType": "uint256",
          "name": "rewardDebt",
          "type": "uint256"
        }
      ],
      "stateMutability": "view",
      "type": "function"
    },
    {
      "inputs": [],
      "name": "voucher",
      "outputs": [
        {
          "internalType": "address",
          "name": "addr",
          "type": "address"
        },
        {
          "internalType": "contract IVNFT",
          "name": "instance",
          "type": "address"
        },
        {
          "internalType": "uint256",
          "name": "tokenId",
          "type": "uint256"
        },
        {
          "internalType": "bool",
          "name": "isEnable",
          "type": "bool"
        }
      ],
      "stateMutability": "view",
      "type": "function"
    },
    {
      "inputs": [
        {
          "internalType": "address",
          "name": "addr_",
          "type": "address"
        }
      ],
      "name": "setupTokenUtils",
      "outputs": [],
      "stateMutability": "nonpayable",
      "type": "function"
    },
    {
      "inputs": [
        {
          "internalType": "address",
          "name": "addr_",
          "type": "address"
        },
        {
          "internalType": "uint256",
          "name": "tokenId_",
          "type": "uint256"
        },
        {
          "internalType": "bool",
          "name": "enable_",
          "type": "bool"
        }
      ],
      "name": "setupVoucher",
      "outputs": [],
      "stateMutability": "nonpayable",
      "type": "function"
    },
    {
      "inputs": [
        {
          "internalType": "bool",
          "name": "enable_",
          "type": "bool"
        }
      ],
      "name": "pauseVoucher",
      "outputs": [],
      "stateMutability": "nonpayable",
      "type": "function"
    },
    {
      "inputs": [
        {
          "internalType": "uint256",
          "name": "tokenId_",
          "type": "uint256"
        }
      ],
      "name": "claimVoucher",
      "outputs": [],
      "stateMutability": "nonpayable",
      "type": "function"
    },
    {
      "inputs": [
        {
          "internalType": "uint256",
          "name": "tokenId_",
          "type": "uint256"
        },
        {
          "internalType": "uint256",
          "name": "maxPrice_",
          "type": "uint256"
        }
      ],
      "name": "buyByVoucher",
      "outputs": [],
      "stateMutability": "nonpayable",
      "type": "function"
    },
    {
      "inputs": [
        {
          "internalType": "uint256",
          "name": "tokenId_",
          "type": "uint256"
        },
        {
          "internalType": "uint32",
          "name": "amount_",
          "type": "uint32"
        }
      ],
      "name": "sellByVoucher",
      "outputs": [],
      "stateMutability": "nonpayable",
      "type": "function"
    },
    {
      "inputs": [
        {
          "internalType": "uint256",
          "name": "tokenId_",
          "type": "uint256"
        },
        {
          "internalType": "uint32",
          "name": "amount_",
          "type": "uint32"
        }
      ],
      "name": "tradeinVoucher",
      "outputs": [],
      "stateMutability": "nonpayable",
      "type": "function"
    },
    {
      "inputs": [
        {
          "internalType": "address",
          "name": "wallet_",
          "type": "address"
        }
      ],
      "name": "setSupplier",
      "outputs": [],
      "stateMutability": "nonpayable",
      "type": "function"
    },
    {
      "inputs": [
        {
          "internalType": "uint256",
          "name": "tokenId_",
          "type": "uint256"
        },
        {
          "internalType": "uint256",
          "name": "amount_",
          "type": "uint256"
        }
      ],
      "name": "claimSupplier",
      "outputs": [],
      "stateMutability": "nonpayable",
      "type": "function"
    },
    {
      "inputs": [],
      "name": "getSupplierBalance",
      "outputs": [
        {
          "internalType": "uint256",
          "name": "",
          "type": "uint256"
        }
      ],
      "stateMutability": "view",
      "type": "function"
    },
    {
      "inputs": [
        {
          "internalType": "address",
          "name": "addr_",
          "type": "address"
        }
      ],
      "name": "getUserReward",
      "outputs": [
        {
          "internalType": "uint256",
          "name": "",
          "type": "uint256"
        }
      ],
      "stateMutability": "nonpayable",
      "type": "function"
    },
    {
      "inputs": [
        {
          "internalType": "address",
          "name": "addr_",
          "type": "address"
        }
      ],
      "name": "getUserInfo",
      "outputs": [
        {
          "components": [
            {
              "internalType": "uint256",
              "name": "amount",
              "type": "uint256"
            },
            {
              "internalType": "uint256",
              "name": "rewardDebt",
              "type": "uint256"
            },
            {
              "internalType": "uint256[]",
              "name": "records",
              "type": "uint256[]"
            }
          ],
          "internalType": "struct ProductTokenV0.UserInfo",
          "name": "",
          "type": "tuple"
        }
      ],
      "stateMutability": "view",
      "type": "function"
    },
    {
      "inputs": [],
      "name": "getPoolInfo",
      "outputs": [
        {
          "components": [
            {
              "internalType": "uint256",
              "name": "amount",
              "type": "uint256"
            },
            {
              "internalType": "uint256",
              "name": "accRewardPerShare",
              "type": "uint256"
            },
            {
              "internalType": "uint256",
              "name": "tokenReward",
              "type": "uint256"
            }
          ],
          "internalType": "struct ProductTokenV0.PoolInfo",
          "name": "",
          "type": "tuple"
        }
      ],
      "stateMutability": "view",
      "type": "function"
    },
    {
      "inputs": [],
      "name": "getSupplierInfo",
      "outputs": [
        {
          "components": [
            {
              "internalType": "uint256",
              "name": "amount",
              "type": "uint256"
            },
            {
              "internalType": "address",
              "name": "wallet",
              "type": "address"
            }
          ],
          "internalType": "struct ProductTokenV0.supplierInfo",
          "name": "",
          "type": "tuple"
        }
      ],
      "stateMutability": "view",
      "type": "function"
    }
  ],
  "bytecode": "0x608060405234801561001057600080fd5b506142f0806100206000396000f3fe608060405234801561001057600080fd5b50600436106102dd5760003560e060020a900480637a53e0401161018d578063af22803e116100e3578063af22803e146106d1578063ba7a93b6146106e4578063c4e627c2146106fb578063c757d4c714610713578063c75ebb8214610726578063cdda418c14610739578063d0ebdbe71461078b578063d50095841461079e578063dd304b1a146107af578063dd62ed3e146107cf578063e67dc51814610808578063eb91d37e14610811578063efea8a1314610819578063f2fde38b1461082c578063f97511d31461083f576102dd565b80637a53e040146105d957806380f7fdf0146105e1578063828f3a9c146105f45780638456cb59146106075780638da5cb5b1461060f578063946cb16f1461062f57806395d89b4114610642578063964a6afe1461064a5780639ade9687146106525780639b9ffbf3146106655780639d51c6cc14610687578063a10954fe1461069a578063a457c2d7146106a3578063a9059cbb146106b6578063aa4985cc146106c9576102dd565b806336da44681161024257806336da44681461042f578063395093511461046357806343ff1fb814610476578063491052cd146104895780634b9abc261461049c5780635a2f3d09146104a457806360246c88146104d157806360dd8aaf146104fb5780636386c1c71461050e5780636e74607b1461052e57806370a082311461054e578063715018a61461056157806371a125861461056957806374a218721461057c57806374a7b01214610584576102dd565b806301339c21146102df57806306fdde03146102e7578063095ea7b3146103055780630c7d5cd8146103285780630ccee99b1461034d57806314a15a9514610360578063168ae4831461037357806318160ddd146103865780631959a0021461039857806319d5b587146103d45780631b892eb3146103e7578063224e4f48146103fa57806323b872dd1461040d578063313ce56714610420575b005b6102dd610852565b6102ef61093a565b6040516102fc9190613de6565b60405180910390f35b610318610313366004613a50565b6109cc565b60405190151581526020016102fc565b609b546103389063ffffffff1681565b60405163ffffffff90911681526020016102fc565b6102dd61035b366004613a50565b6109e3565b6102dd61036e366004613abc565b610a6a565b6102dd6103813660046139a0565b610aaf565b6035545b6040519081526020016102fc565b6103bf6103a63660046139a0565b60a7602052600090815260409020805460019091015482565b604080519283526020830191909152016102fc565b61038a6103e2366004613c3f565b610b5c565b6102dd6103f53660046139a0565b610c8d565b61038a610408366004613c3f565b610cf4565b61031861041b366004613a10565b610d19565b604051601281526020016102fc565b609e54609f546104469190600160a060020a031682565b60408051928352600160a060020a039091166020830152016102fc565b610318610471366004613a50565b610de2565b6102dd6104843660046139a0565b610e19565b610318610497366004613af4565b610ec6565b61038a600181565b60a05460a15460a2546104b692919083565b604080519384526020840192909252908201526060016102fc565b6104d9610f20565b60408051825181526020808401519082015291810151908201526060016102fc565b6102dd610509366004613bfa565b610f69565b61052161051c3660046139a0565b6110ad565b6040516102fc919061404c565b61054161053c3660046139a0565b611186565b6040516102fc9190613d65565b61038a61055c3660046139a0565b61126c565b6102dd611287565b6102dd610577366004613c1b565b6112f1565b61038a600081565b60408051808201825260008082526020918201528151808301909252609e548252609f54600160a060020a0316908201526040805182518152602092830151600160a060020a031692810192909252016102fc565b6103386114ce565b6102dd6105ef366004613c1b565b611514565b610338610602366004613bca565b611611565b6102dd611625565b6106176116f6565b604051600160a060020a0390911681526020016102fc565b6102dd61063d366004613bfa565b611705565b6102ef611a44565b609e5461038a565b6102dd610660366004613bca565b611a53565b610678610673366004613a50565b611bd4565b6040516102fc93929190613dc1565b6102dd610695366004613a7b565b611c1f565b61038a60995481565b6103186106b1366004613a50565b611cbd565b6103186106c4366004613a50565b611d5e565b61038a600281565b6103bf6106df366004613c3f565b611d6b565b609b5461033890604060020a900463ffffffff1681565b609b5461033890640100000000900463ffffffff1681565b6102dd610721366004613a50565b611e2e565b61038a6107343660046139a0565b611f17565b60a35460a45460a55460a65461075e93600160a060020a039081169316919060ff1684565b60408051600160a060020a03958616815294909316602085015291830152151560608201526080016102fc565b6102dd6107993660046139a0565b611f7c565b609c54600160a060020a0316610617565b6107c26107bd366004613a50565b611ff9565b6040516102fc9190613db3565b61038a6107dd3660046139d8565b600160a060020a03918216600090815260346020908152604080832093909416825291909152205490565b61038a609a5481565b61038a61204f565b6102dd610827366004613b13565b61205b565b6102dd61083a3660046139a0565b6120f0565b61038a61084d366004613c3f565b6121eb565b3361085b6116f6565b600160a060020a03161461088d5760405160e560020a62461bcd02815260040161088490613fa9565b60405180910390fd5b60985460ff16156108f45760405160e560020a62461bcd02815260206004820152602560248201527f5468652070726f6475637420746f6b656e20697320616c7265616479206c6175604482015260da60020a641b98da1959026064820152608401610884565b6098805460ff191660019081179091556040519081527f65c5ccecef030677b73a1403e7e69ef84d05db9d1732959d543d32f4419909b8906020015b60405180910390a1565b60606036805461094990614197565b80601f016020809104026020016040519081016040528092919081815260200182805461097590614197565b80156109c25780601f10610997576101008083540402835291602001916109c2565b820191906000526020600020905b8154815290600101906020018083116109a557829003601f168201915b5050505050905090565b60006109d9338484612208565b5060015b92915050565b6109eb6116f6565b600160a060020a031633600160a060020a03161480610a145750609c54600160a060020a031633145b610a335760405160e560020a62461bcd02815260040161088490613f72565b600160a060020a038216610a5c5760405160e560020a62461bcd02815260040161088490613e70565b610a668282612339565b5050565b33610a736116f6565b600160a060020a031614610a9c5760405160e560020a62461bcd02815260040161088490613fa9565b60a6805460ff1916911515919091179055565b33610ab86116f6565b600160a060020a031614610ae15760405160e560020a62461bcd02815260040161088490613fa9565b600160a060020a038116610b3a5760405160e560020a62461bcd02815260206004820152601260248201527f4164647265737320697320696e76616c696400000000000000000000000000006044820152606401610884565b609f8054600160a060020a031916600160a060020a0392909216919091179055565b6000808263ffffffff1611610bb65760405160e560020a62461bcd02815260206004820152600e60248201527f696e76616c696420616d6f756e740000000000000000000000000000000000006044820152606401610884565b609b54600090610bed9063ffffffff606060020a8204811691610be79187811691604060020a90048116906124b216565b906124b2565b609d54609a54609b5460405160e060020a631c949873028152939450600160a060020a0390921692631c94987392610c34928692909163ffffffff169089906004016140b1565b60206040518083038186803b158015610c4c57600080fd5b505afa158015610c60573d6000803e3d6000fd5b505050506040513d601f19601f82011682018060405250810190610c849190613be2565b9150505b919050565b33610c966116f6565b600160a060020a031614610cbf5760405160e560020a62461bcd02815260040161088490613fa9565b600160a060020a038116610cd257600080fd5b60a88054600160a060020a031916600160a060020a0392909216919091179055565b6000806000610d02846124c5565b9092509050610d11828261257c565b949350505050565b6000610d26848484612588565b600160a060020a038416600090815260346020908152604080832033845290915290205482811015610dc35760405160e560020a62461bcd02815260206004820152602860248201527f45524332303a207472616e7366657220616d6f756e742065786365656473206160448201527f6c6c6f77616e63650000000000000000000000000000000000000000000000006064820152608401610884565b610dd78533610dd2868561415b565b612208565b506001949350505050565b336000818152603460209081526040808320600160a060020a038716845290915281205490916109d9918590610dd29086906140d9565b33610e226116f6565b600160a060020a031614610e4b5760405160e560020a62461bcd02815260040161088490613fa9565b600160a060020a038116610ea45760405160e560020a62461bcd02815260206004820152600f60248201527f496e76616c6964206164647265737300000000000000000000000000000000006044820152606401610884565b609d8054600160a060020a031916600160a060020a0392909216919091179055565b60006003826003811115610eed5760e060020a634e487b7102600052602160045260246000fd5b14806109dd57506002826003811115610f195760e060020a634e487b7102600052602160045260246000fd5b1492915050565b610f4460405180606001604052806000815260200160008152602001600081525090565b506040805160608101825260a054815260a154602082015260a2549181019190915290565b609f54600160a060020a0316610fc45760405160e560020a62461bcd02815260206004820152601160248201527f77616c6c657420697320696e76616c69640000000000000000000000000000006044820152606401610884565b609f54600160a060020a031633146110215760405160e560020a62461bcd02815260206004820152601a60248201527f5468652061646472657373206973206e6f7420616c6c6f7765640000000000006044820152606401610884565b609e548111610a665760a45460a55460405160e160020a632576a9e1028152600160a060020a0390921691634aed53c291611066913091339188908890600401613cc3565b600060405180830381600087803b15801561108057600080fd5b505af1158015611094573d6000803e3d6000fd5b5050609e546110a6925090508261257c565b609e555050565b6110d160405180606001604052806000815260200160008152602001606081525090565b600160a060020a0382166110fa5760405160e560020a62461bcd02815260040161088490613ede565b600160a060020a038216600090815260a760209081526040918290208251606081018452815481526001820154818401526002820180548551818602810186018752818152929593949386019383018282801561117657602002820191906000526020600020905b815481526020019060010190808311611162575b5050505050815250509050919050565b600160a060020a0381166000908152606560209081526040808320805482518185028101850190935280835260609492939192909184015b82821015611261576000848152602090206040805160608101909152600284029091018054829060ff16600381111561120a5760e060020a634e487b7102600052602160045260246000fd5b600381111561122c5760e060020a634e487b7102600052602160045260246000fd5b81528154610100900463ffffffff166020808301919091526001928301546040909201919091529183529290920191016111be565b505050509050919050565b600160a060020a031660009081526033602052604090205490565b336112906116f6565b600160a060020a0316146112b95760405160e560020a62461bcd02815260040161088490613fa9565b606654604051600091600160a060020a03169060008051602061427b833981519152908390a360668054600160a060020a0319169055565b60985460ff166113165760405160e560020a62461bcd02815260040161088490613fde565b60a65460ff1661133b5760405160e560020a62461bcd02815260040161088490613e39565b60008163ffffffff16116113645760405160e560020a62461bcd02815260040161088490614015565b8063ffffffff166113743361126c565b10156113c55760405160e560020a62461bcd02815260206004820152601c60248201527f496e73756666696369656e7420746f6b656e7320746f206275726e2e000000006044820152606401610884565b6000806113d1836124c5565b9150915060006113e084610b5c565b905061140d61140882610be76501d1a94a20006114028764e8d4a51000612774565b90612780565b61278c565b6114208461141b858561257c565b6127a6565b50611431338563ffffffff166128fa565b609b5461144c908590604060020a900463ffffffff166140f1565b609b80546bffffffff00000000000000001916604060020a63ffffffff93841602179055609a5461147f9183906124b216565b609a5561148c8486612a43565b60405163ffffffff8516815233907fe600c25f82e9bac8f9f1663725540d6cd442845726820fd5bee41b66c4bf59be9060200160405180910390a25050505050565b609b54600090604060020a900463ffffffff166114ea60355490565b609b546115059190640100000000900463ffffffff16614172565b61150f9190614172565b905090565b60985460ff166115395760405160e560020a62461bcd02815260040161088490613fde565b60a65460ff1661155e5760405160e560020a62461bcd02815260040161088490613e39565b60008061156a83612c29565b915091506115788385612a43565b60a45460a55460405160e160020a632576a9e1028152600160a060020a0390921691634aed53c2916115b491309133918a908990600401613cc3565b600060405180830381600087803b1580156115ce57600080fd5b505af11580156115e2573d6000803e3d6000fd5b5050505061160b6114086501d1a94a200061140264e8d4a510008561277490919063ffffffff16565b50505050565b60008061161d83612d3c565b509392505050565b3361162e6116f6565b600160a060020a0316146116575760405160e560020a62461bcd02815260040161088490613fa9565b60985460ff166116bb5760405160e560020a62461bcd02815260206004820152602360248201527f5468652070726f6475637420746f6b656e20697320616c726561647920706175604482015260ea60020a621cd959026064820152608401610884565b6098805460ff19169055604051600081527f65c5ccecef030677b73a1403e7e69ef84d05db9d1732959d543d32f4419909b890602001610930565b606654600160a060020a031690565b60985460ff1661172a5760405160e560020a62461bcd02815260040161088490613fde565b60a65460ff1661174f5760405160e560020a62461bcd02815260040161088490613e39565b600081116117a25760405160e560020a62461bcd02815260206004820152601160248201527f696e76616c6964206d61782070726963650000000000000000000000000000006044820152606401610884565b60a45460a55460405160e160020a632576a9e1028152600160a060020a03909216918291634aed53c2916117e0913391309189918990600401613cc3565b600060405180830381600087803b1580156117fa57600080fd5b505af115801561180e573d6000803e3d6000fd5b5050505060008060008061182186612e41565b93509350935063ffffffff16935060008411156119cf5782156118aa5760a55460405160e160020a632576a9e1028152600160a060020a03871691634aed53c2916118779130913391908d908a90600401613cc3565b600060405180830381600087803b15801561189157600080fd5b505af11580156118a5573d6000803e3d6000fd5b505050505b6118c6611408650746a52880006114028464e8d4a51000612774565b6118ec6118e3650746a528800061140284650574fbde6000612774565b60a254906124b2565b60a25533600090815260a760205260408120600181015460a1548254929360a093909261192f9290916119299164e8d4a510009161140291612774565b9061257c565b905080156119a65787600160a060020a0316634aed53c2303360a3600201548e866040518663ffffffff1660e060020a028152600401611973959493929190613cc3565b600060405180830381600087803b15801561198d57600080fd5b505af11580156119a1573d6000803e3d6000fd5b505050505b60a0546119b390866124b2565b60a0556119be612fa6565b6119c785612fe5565b505050611a3b565b60a55460405160e160020a632576a9e1028152600160a060020a03871691634aed53c291611a089130913391908d908d90600401613cc3565b600060405180830381600087803b158015611a2257600080fd5b505af1158015611a36573d6000803e3d6000fd5b505050505b50505050505050565b60606037805461094990614197565b33611a5c6116f6565b600160a060020a031614611a855760405160e560020a62461bcd02815260040161088490613fa9565b80611ad55760405160e560020a62461bcd02815260206004820152600a60248201527f696e76616c6964206964000000000000000000000000000000000000000000006044820152606401610884565b60a45460a55460405160e060020a63becef6070281526004810191909152600091600160a060020a03169063becef6079060240160206040518083038186803b158015611b2157600080fd5b505afa158015611b35573d6000803e3d6000fd5b505050506040513d601f19601f82011682018060405250810190611b599190613be2565b60a454909150600160a060020a0316634aed53c230611b766116f6565b60a55460405160e060020a63ffffffff8616028152611b9e9392919088908890600401613cc3565b600060405180830381600087803b158015611bb857600080fd5b505af1158015611bcc573d6000803e3d6000fd5b505050505050565b60656020528160005260406000208181548110611bf057600080fd5b60009182526020909120600290910201805460019091015460ff8216935061010090910463ffffffff16915083565b33611c286116f6565b600160a060020a031614611c515760405160e560020a62461bcd02815260040161088490613fa9565b600160a060020a038316611c7a5760405160e560020a62461bcd02815260040161088490613ede565b60a38054600160a060020a03909416600160a060020a0319948516811790915560a480549094161790925560a55560a6805491151560ff19909216919091179055565b336000908152603460209081526040808320600160a060020a038616845290915281205482811015611d455760405160e560020a62461bcd02815260206004820152602560248201527f45524332303a2064656372656173656420616c6c6f77616e63652062656c6f77604482015260d860020a64207a65726f026064820152608401610884565b611d543385610dd2868561415b565b5060019392505050565b60006109d9338484612588565b609d5460009081908190600160a060020a031663bff82d84611d8b61303e565b609954609b5460405163ffffffff85811660e060020a028252611db694939216908a906004016140b1565b60206040518083038186803b158015611dce57600080fd5b505afa158015611de2573d6000803e3d6000fd5b505050506040513d601f19601f82011682018060405250810190611e069190613be2565b90506000611e2264e8d4a51000611402846412a05f2000612774565b91935090915050915091565b611e366116f6565b600160a060020a031633600160a060020a03161480611e5f5750609c54600160a060020a031633145b611e7e5760405160e560020a62461bcd02815260040161088490613f72565b600160a060020a038216611ea75760405160e560020a62461bcd02815260040161088490613e70565b6000611eb3838361306b565b905060008111611f085760405160e560020a62461bcd02815260206004820152600d60248201527f496e76616c69642076616c7565000000000000000000000000000000000000006044820152606401610884565b611f12838261321c565b505050565b600160a060020a038116600090815260a7602052604081205415611f745733600090815260a760205260409020600181015460a154825460a092611f6b9290916119299164e8d4a510009161140291612774565b92505050610c88565b506000919050565b33611f856116f6565b600160a060020a031614611fae5760405160e560020a62461bcd02815260040161088490613fa9565b600160a060020a038116611fd75760405160e560020a62461bcd02815260040161088490613ede565b609c8054600160a060020a031916600160a060020a0392909216919091179055565b600160a060020a03821660009081526065602052604081208054839081106120345760e060020a634e487b7102600052603260045260246000fd5b600091825260209091206002909102015460ff169392505050565b600061150f60016121eb565b600054610100900460ff1680612074575060005460ff16155b6120935760405160e560020a62461bcd02815260040161088490613f15565b600054610100900460ff161580156120b5576000805461ffff19166101011790555b6120bd613379565b6120c788886133f7565b6120d48686868686613479565b80156120e6576000805461ff00191690555b5050505050505050565b336120f96116f6565b600160a060020a0316146121225760405160e560020a62461bcd02815260040161088490613fa9565b600160a060020a0381166121a15760405160e560020a62461bcd02815260206004820152602660248201527f4f776e61626c653a206e6577206f776e657220697320746865207a65726f206160448201527f64647265737300000000000000000000000000000000000000000000000000006064820152608401610884565b606654604051600160a060020a0380841692169060008051602061427b83398151915290600090a360668054600160a060020a031916600160a060020a0392909216919091179055565b60008060006121f984611d6b565b9092509050610d1182826124b2565b600160a060020a0383166122705760405160e560020a62461bcd028152602060048201526024808201527f45524332303a20617070726f76652066726f6d20746865207a65726f20616464604482015260e060020a6372657373026064820152608401610884565b600160a060020a0382166122d75760405160e560020a62461bcd02815260206004820152602260248201527f45524332303a20617070726f766520746f20746865207a65726f206164647265604482015260f060020a617373026064820152608401610884565b600160a060020a0383811660008181526034602090815260408083209487168084529482529182902085905590518481527f8c5be1e5ebec7d5bd14f71427d1e84f3dd0314c0f7b2291e5b200ac8c7c3b92591015b60405180910390a3505050565b600160a060020a038216600090815260656020526040902080546123929190839081106123795760e060020a634e487b7102600052603260045260246000fd5b600091825260209091206002909102015460ff16610ec6565b156123b25760405160e560020a62461bcd02815260040161088490613ea7565b600160a060020a0382166000908152606560205260409020805460039190839081106123f15760e060020a634e487b7102600052603260045260246000fd5b60009182526020909120600290910201805460ff1916600183600381111561242c5760e060020a634e487b7102600052602160045260246000fd5b021790555060008051602061425b83398151915282826065600086600160a060020a0316600160a060020a0316815260200190815260200160002084815481106124895760e060020a634e487b7102600052603260045260246000fd5b90600052602060002090600202016040516124a693929190613d18565b60405180910390a15050565b60006124be82846140d9565b9392505050565b609d5460009081908190600160a060020a0316631c9498736124e561303e565b609954609b5460405163ffffffff85811660e060020a02825261251094939216908a906004016140b1565b60206040518083038186803b15801561252857600080fd5b505afa15801561253c573d6000803e3d6000fd5b505050506040513d601f19601f820116820180604052508101906125609190613be2565b90506000611e2264e8d4a51000611402846404a817c800612774565b60006124be828461415b565b600160a060020a0383166125f25760405160e560020a62461bcd02815260206004820152602560248201527f45524332303a207472616e736665722066726f6d20746865207a65726f206164604482015260d860020a646472657373026064820152608401610884565b600160a060020a03821661265a5760405160e560020a62461bcd02815260206004820152602360248201527f45524332303a207472616e7366657220746f20746865207a65726f2061646472604482015260e860020a62657373026064820152608401610884565b600160a060020a038316600090815260336020526040902054818110156126ec5760405160e560020a62461bcd02815260206004820152602660248201527f45524332303a207472616e7366657220616d6f756e742065786365656473206260448201527f616c616e636500000000000000000000000000000000000000000000000000006064820152608401610884565b6126f6828261415b565b600160a060020a03808616600090815260336020526040808220939093559085168152908120805484929061272c9084906140d9565b9250508190555082600160a060020a031684600160a060020a031660008051602061429b8339815191528460405161276691815260200190565b60405180910390a350505050565b60006124be828461413c565b60006124be8284614119565b80156127a357609e5461279f90826124b2565b609e555b50565b6000808363ffffffff16116128005760405160e560020a62461bcd02815260206004820152600e60248201527f496e76616c696420416d6f756e740000000000000000000000000000000000006044820152606401610884565b60408051606081018252600180825263ffffffff861660208084019190915282840186905233600090815260658252938420805480840182559085529320825160029094020180549293849391929091839160ff199091169083600381111561287c5760e060020a634e487b7102600052602160045260246000fd5b0217905550602082810151825463ffffffff9091166101000264ffffffff00199091161782556040928301516001928301553360009081526065909152918220546128c7919061415b565b905060008051602061425b8339815191523382846040516128ea93929190613cf4565b60405180910390a1949350505050565b600160a060020a0382166129605760405160e560020a62461bcd02815260206004820152602160248201527f45524332303a206275726e2066726f6d20746865207a65726f20616464726573604482015260f860020a6073026064820152608401610884565b600160a060020a038216600090815260336020526040902054818110156129da5760405160e560020a62461bcd02815260206004820152602260248201527f45524332303a206275726e20616d6f756e7420657863656564732062616c616e604482015260f060020a616365026064820152608401610884565b6129e4828261415b565b600160a060020a03841660009081526033602052604081209190915560358054849290612a1290849061415b565b9091555050604051828152600090600160a060020a0385169060008051602061429b8339815191529060200161232c565b33600090815260a7602052604090205415610a665733600081815260a76020526040902060028101549091612a779061126c565b11611f1257600281015463ffffffff841690811115612a97575060028101545b6000805b82811015612b4357600284018054612af49190612ab990600161257c565b81548110612ada5760e060020a634e487b7102600052603260045260246000fd5b9060005260206000200154836124b290919063ffffffff16565b915083600201805480612b1a5760e060020a634e487b7102600052603160045260246000fd5b600190038181906000526020600020016000905590558080612b3b906141d6565b915050612a9b565b50600183015460a154845460a092600092612b6c926119299164e8d4a510009161140291612774565b60a054909150612b7c908461257c565b60a0558015612bf45760a45460a55460405160e160020a632576a9e1028152600160a060020a0390921691634aed53c291612bc191309133918c908890600401613cc3565b600060405180830381600087803b158015612bdb57600080fd5b505af1158015612bef573d6000803e3d6000fd5b505050505b8454612c00908461257c565b80865560a154612c1b9164e8d4a51000916114029190612774565b600186015550505050505050565b60008060008363ffffffff1611612c555760405160e560020a62461bcd02815260040161088490614015565b8263ffffffff16612c653361126c565b1015612cb65760405160e560020a62461bcd02815260206004820152601c60248201527f496e73756666696369656e7420746f6b656e7320746f2073656c6c2e000000006044820152606401610884565b600080612cc2856124c5565b6099549193509150612cd4908361257c565b609955612ce73363ffffffff87166128fa565b6040805163ffffffff871681526020810184905233917f84c8d08e5480cf09cbf77bc575dc4e63845522693c34094f04129a4dedb7abd7910160405180910390a2612d32828261257c565b9350915050915091565b60008080612d5864fb750430006114028664e8d4a51000612774565b90506000612d7464e8d4a5100061140284640df8475800612774565b609d54909150600090600160a060020a0316639f4ae6b0612d9361303e565b609954609b5463ffffffff90811690612db0908990899061257c16565b60405163ffffffff86811660e060020a0282529485166004820152602481019390935292166044820152606481019190915260840160206040518083038186803b158015612dfd57600080fd5b505afa158015612e11573d6000803e3d6000fd5b505050506040513d601f19601f82011682018060405250810190612e359190613c5b565b94509092505050915091565b6000806000806000612e516114ce565b63ffffffff1611612ea75760405160e560020a62461bcd02815260206004820152601e60248201527f536f7272792c207468697320746f6b656e20697320736f6c64206f75742e00006044820152606401610884565b60008511612efa5760405160e560020a62461bcd02815260206004820152601960248201527f4465706f736974206d757374206265206e6f6e2d7a65726f2e000000000000006044820152606401610884565b600080612f076001611d6b565b9150915086821115612f285760008760008095509550955095505050612f9f565b612f3333600161360c565b612f49612f40838361257c565b609954906124b2565b60995560408051600181526020810184905233917f5b55159a377d86da80a65140d62d994ddbb2cbd4bb2d1b59cb0827fecbe47cab910160405180910390a26001612f94888461257c565b909650945090925090505b9193509193565b60a05480612fb95750600060a155612fe3565b60a254612fde90612fd59083906114029064e8d4a51000612774565b60a154906124b2565b60a155505b565b33600090815260a760205260409020805461300090836124b2565b8155600281018054600181018255600091825260209091200182905560a15481546130359164e8d4a510009161140291612774565b60019091015550565b609b5460009061150f9063ffffffff606060020a8204811691610be791604060020a909104168160355490565b600160a060020a038216600090815260656020526040812080546130ab9190849081106123795760e060020a634e487b7102600052603260045260246000fd5b156130cb5760405160e560020a62461bcd02815260040161088490613ea7565b600160a060020a03831660009081526065602052604090208054600291908490811061310a5760e060020a634e487b7102600052603260045260246000fd5b60009182526020909120600290910201805460ff191660018360038111156131455760e060020a634e487b7102600052602160045260246000fd5b021790555060008051602061425b83398151915283836065600087600160a060020a0316600160a060020a0316815260200190815260200160002085815481106131a25760e060020a634e487b7102600052603260045260246000fd5b90600052602060002090600202016040516131bf93929190613d18565b60405180910390a1600160a060020a03831660009081526065602052604090208054839081106132025760e060020a634e487b7102600052603260045260246000fd5b906000526020600020906002020160010154905092915050565b60a85460405160e060020a63bf418de102815260016004820152600091600160a060020a03169063bf418de19060240160206040518083038186803b15801561326457600080fd5b505afa158015613278573d6000803e3d6000fd5b505050506040513d601f19601f8201168201806040525081019061329c91906139bc565b60405160e060020a63a9059cbb028152600160a060020a0385811660048301526024820185905291925060009183169063a9059cbb90604401602060405180830381600087803b1580156132ef57600080fd5b505af1158015613303573d6000803e3d6000fd5b505050506040513d601f19601f820116820180604052508101906133279190613ad8565b90508061160b5760405160e560020a62461bcd02815260206004820152601360248201527f726566756e6420746f6b656e206661696c6564000000000000000000000000006044820152606401610884565b600054610100900460ff1680613392575060005460ff16155b6133b15760405160e560020a62461bcd02815260040161088490613f15565b600054610100900460ff161580156133d3576000805461ffff19166101011790555b6133db6136dc565b6133e3613749565b80156127a3576000805461ff001916905550565b600054610100900460ff1680613410575060005460ff16155b61342f5760405160e560020a62461bcd02815260040161088490613f15565b600054610100900460ff16158015613451576000805461ffff19166101011790555b6134596136dc565b61346383836137e8565b8015611f12576000805461ff0019169055505050565b600054610100900460ff1680613492575060005460ff16155b6134b15760405160e560020a62461bcd02815260040161088490613f15565b600054610100900460ff161580156134d3576000805461ffff19166101011790555b60008463ffffffff161161352c5760405160e560020a62461bcd02815260206004820152601860248201527f496e76616c6964206d617820746f6b656e20636f756e742e00000000000000006044820152606401610884565b60008563ffffffff16116135855760405160e560020a62461bcd02815260206004820152601560248201527f496e76616c6964207265736572766520726174696f00000000000000000000006044820152606401610884565b609d8054600160a060020a038816600160a060020a03199091161790556099829055609a829055609b805463ffffffff8681166401000000000267ffffffffffffffff19828816606060020a02166fffffffff00000000ffffffffffffffff1990931692909217908816171790558015611bcc576000805461ff0019169055505050505050565b600160a060020a0382166136655760405160e560020a62461bcd02815260206004820152601f60248201527f45524332303a206d696e7420746f20746865207a65726f2061646472657373006044820152606401610884565b806035600082825461367791906140d9565b9091555050600160a060020a038216600090815260336020526040812080548392906136a49084906140d9565b9091555050604051818152600160a060020a0383169060009060008051602061429b8339815191529060200160405180910390a35050565b600054610100900460ff16806136f5575060005460ff16155b6137145760405160e560020a62461bcd02815260040161088490613f15565b600054610100900460ff161580156133e3576000805461ffff191661010117905580156127a3576000805461ff001916905550565b600054610100900460ff1680613762575060005460ff16155b6137815760405160e560020a62461bcd02815260040161088490613f15565b600054610100900460ff161580156137a3576000805461ffff19166101011790555b60668054600160a060020a03191633908117909155604051819060009060008051602061427b833981519152908290a35080156127a3576000805461ff001916905550565b600054610100900460ff1680613801575060005460ff16155b6138205760405160e560020a62461bcd02815260040161088490613f15565b600054610100900460ff16158015613842576000805461ffff19166101011790555b8251613855906036906020860190613880565b508151613869906037906020850190613880565b508015611f12576000805461ff0019169055505050565b82805461388c90614197565b90600052602060002090601f0160209004810192826138ae57600085556138f4565b82601f106138c757805160ff19168380011785556138f4565b828001600101855582156138f4579182015b828111156138f45782518255916020019190600101906138d9565b50613900929150613904565b5090565b5b808211156139005760008155600101613905565b600082601f830112613929578081fd5b813567ffffffffffffffff808211156139445761394461420b565b604051601f8301601f19908116603f0116810190828211818310171561396c5761396c61420b565b81604052838152866020858801011115613984578485fd5b8360208701602083013792830160200193909352509392505050565b6000602082840312156139b1578081fd5b81356124be81614225565b6000602082840312156139cd578081fd5b81516124be81614225565b600080604083850312156139ea578081fd5b82356139f581614225565b91506020830135613a0581614225565b809150509250929050565b600080600060608486031215613a24578081fd5b8335613a2f81614225565b92506020840135613a3f81614225565b929592945050506040919091013590565b60008060408385031215613a62578182fd5b8235613a6d81614225565b946020939093013593505050565b600080600060608486031215613a8f578283fd5b8335613a9a81614225565b9250602084013591506040840135613ab18161423a565b809150509250925092565b600060208284031215613acd578081fd5b81356124be8161423a565b600060208284031215613ae9578081fd5b81516124be8161423a565b600060208284031215613b05578081fd5b8135600481106124be578182fd5b600080600080600080600060e0888a031215613b2d578283fd5b873567ffffffffffffffff80821115613b44578485fd5b613b508b838c01613919565b985060208a0135915080821115613b65578485fd5b50613b728a828b01613919565b9650506040880135613b8381614225565b94506060880135613b9381614248565b93506080880135613ba381614248565b925060a0880135613bb381614248565b8092505060c0880135905092959891949750929550565b600060208284031215613bdb578081fd5b5035919050565b600060208284031215613bf3578081fd5b5051919050565b60008060408385031215613c0c578182fd5b50508035926020909101359150565b60008060408385031215613c2d578182fd5b823591506020830135613a0581614248565b600060208284031215613c50578081fd5b81356124be81614248565b600060208284031215613c6c578081fd5b81516124be81614248565b60048110613c995760e060020a634e487b710260009081526021600452602490fd5b9052565b613ca8828251613c77565b60208181015163ffffffff1690830152604090810151910152565b600160a060020a03958616815293909416602084015260408301919091526060820152608081019190915260a00190565b600160a060020a03841681526020810183905260a08101610d116040830184613c9d565b600160a060020a038416815260208101839052815460a0820190613d426040840160ff8316613c77565b63ffffffff61010082041660608401525060018301546080830152949350505050565b6020808252825182820181905260009190848201906040850190845b81811015613da757613d94838551613c9d565b9284019260609290920191600101613d81565b50909695505050505050565b602081016109dd8284613c77565b60608101613dcf8286613c77565b63ffffffff93909316602082015260400152919050565b6000602080835283518082850152825b81811015613e1257858101830151858201604001528201613df6565b81811115613e235783604083870101525b50601f01601f1916929092016040019392505050565b60208082526015908201527f756e61626c6520746f2075736520766f75636865720000000000000000000000604082015260600190565b6020808252600d908201527f496e76616c696420627579657200000000000000000000000000000000000000604082015260600190565b60208082526011908201527f616c726561647920636f6d706c65746564000000000000000000000000000000604082015260600190565b6020808252600f908201527f696e76616c696420616464726573730000000000000000000000000000000000604082015260600190565b6020808252602e908201527f496e697469616c697a61626c653a20636f6e747261637420697320616c72656160408201527f647920696e697469616c697a6564000000000000000000000000000000000000606082015260800190565b60208082526011908201527f7065726d697373696f6e2064656e696564000000000000000000000000000000604082015260600190565b6020808252818101527f4f776e61626c653a2063616c6c6572206973206e6f7420746865206f776e6572604082015260600190565b60208082526013908201527f756e61626c6520746f207472616465206e6f7700000000000000000000000000604082015260600190565b60208082526018908201527f416d6f756e74206d757374206265206e6f6e2d7a65726f2e0000000000000000604082015260600190565b6000602080835260808301845182850152818501516040850152604085015160608086015281815180845260a08701915084830193508592505b808310156140a65783518252928401926001929092019190840190614086565b509695505050505050565b63ffffffff948516815260208101939093529083166040830152909116606082015260800190565b600082198211156140ec576140ec6141f1565b500190565b600063ffffffff808316818516808303821115614110576141106141f1565b01949350505050565b6000826141375760e060020a634e487b710281526012600452602481fd5b500490565b6000816000190483118215151615614156576141566141f1565b500290565b60008282101561416d5761416d6141f1565b500390565b600063ffffffff8381169083168181101561418f5761418f6141f1565b039392505050565b6002810460018216806141ab57607f821691505b602082108114156141d05760e060020a634e487b710260009081526022600452602490fd5b50919050565b60006000198214156141ea576141ea6141f1565b5060010190565b60e060020a634e487b710260009081526011600452602490fd5b60e060020a634e487b710260009081526041600452602490fd5b600160a060020a03811681146127a357600080fd5b80151581146127a357600080fd5b63ffffffff811681146127a357600080fdfe09c64bee251b684a6bb80ce179dd520c001481b7c3d7781f1502e3052af474cf8be0079c531659141344cd1fd0a4f28419497f9722a3daafe3b4186f6b6457e0ddf252ad1be2c89b69c2b068fc378daa952ba7f163c4a11628f55a4df523b3efa264697066735822122057a66b5a0685bb22538d09123d05e1a6829ddde27eded0bd4fd88a902682959d64736f6c63430008030033",
  "immutableReferences": {},
  "source": "pragma solidity ^0.8.3;\n\nimport \"@openzeppelin/contracts/token/ERC20/IERC20.sol\";\nimport \"@openzeppelin/contracts-upgradeable/utils/math/SafeMathUpgradeable.sol\";\nimport \"./ProductToken.sol\";\nimport \"./interface/IVNFT.sol\";\nimport \"./interface/ITokenUtils.sol\";\n\n/// @title ProductTokenV0\n/// @notice This is version 0 of the product token implementation.\n/// @dev This contract builds on top of version 0 by including transaction logics, such as buy and sell transfers\n///    and exchange rate computation by including a price oracle.\ncontract ProductTokenV0 is ProductToken {\n\tusing SafeMathUpgradeable for uint256;\n\n    event Update(address daiAddress, address chainlinkAddress);\n    event UpdateHsToken(address daiAddress, address chainlinkAddress);\n\n    struct supplierInfo {\n        uint256 amount;\n        address wallet;\n    }\n    struct UserInfo {\n        uint256 amount;\n        uint256 rewardDebt;\n        uint256[] records;\n    }\n    struct PoolInfo {\n        uint256 amount; // record the entire pool vaule\n        uint256 accRewardPerShare; // Accumulated reward per share\n        uint256 tokenReward; //total reward\n    }\n    struct voucherInfo {\n        address addr;\n        IVNFT instance;\n        uint256 tokenId;\n        bool isEnable;\n    }\n\n    uint256 constant public  INDEX_ETH  = 0;\n    uint256 constant public  INDEX_HIGH = 1;\n    uint256 constant public  INDEX_DAI  = 2;\n\n    supplierInfo public supplier;\n    PoolInfo public poolInfo;\n    voucherInfo public voucher;\n    mapping (address => UserInfo) public userInfo;\n    ITokenUtils private _tokenUtils;\n\n    function setupTokenUtils(address addr_) external virtual onlyOwner {\n        require(addr_ != address(0));\n        _tokenUtils = ITokenUtils(addr_);\n    }\n\n    function _updatePool() internal virtual{\n        uint256 supply = poolInfo.amount;\n        if (supply == 0) {\n            poolInfo.accRewardPerShare = 0;\n            return;\n        }\n        poolInfo.accRewardPerShare = poolInfo.accRewardPerShare.add(poolInfo.tokenReward.mul(1e12).div(supply));\n    }\n\n    function _updateSellStaking(uint32 amount_, uint256 tokenId_) internal virtual {\n        if(userInfo[msg.sender].amount > 0) {\n            UserInfo storage user = userInfo[msg.sender];\n            if(balanceOf(msg.sender) <= user.records.length) {\n                uint max = uint256(amount_);\n                if(max > user.records.length) {\n                    max = user.records.length;\n                }\n                uint256 value = 0;\n                for(uint i = 0; i < max; i++) {\n                    value = value.add(user.records[user.records.length.sub(1)]);\n                    user.records.pop();\n                }\n                PoolInfo storage pool = poolInfo;\n                uint256 pending = user.amount.mul(pool.accRewardPerShare).div(1e12).sub(user.rewardDebt);\n\n                poolInfo.amount = poolInfo.amount.sub(value);\n                if(pending > 0) {\n                    voucher.instance.transferFrom(address(this), msg.sender, voucher.tokenId, tokenId_, pending);\n                }\n                user.amount = user.amount.sub(value);\n                user.rewardDebt = user.amount.mul(poolInfo.accRewardPerShare).div(1e12);\n            }\n        }\n    }\n\n    function _updateUserInfo(uint256 price_ ) internal virtual {\n        UserInfo storage user = userInfo[msg.sender];\n        user.amount = user.amount.add(price_);\n        user.records.push(price_);\n        user.rewardDebt = user.amount.mul(poolInfo.accRewardPerShare).div(1e12);\n    }\n\n    function setupVoucher(address addr_, uint256 tokenId_, bool enable_) external virtual onlyOwner{\n        require(addr_ != address(0), 'invalid address');\n        voucher.addr = addr_;\n        voucher.instance = IVNFT(addr_);\n        voucher.tokenId = tokenId_;\n        voucher.isEnable = enable_;\n    }\n\n    function pauseVoucher(bool enable_) external virtual onlyOwner {\n        voucher.isEnable = enable_;\n    }\n\n    function claimVoucher(uint256 tokenId_) external virtual onlyOwner{\n        require(tokenId_ != 0, 'invalid id');\n        uint256 amount = voucher.instance.unitsInToken(voucher.tokenId);\n        voucher.instance.transferFrom(address(this), owner(), voucher.tokenId , tokenId_, amount);\n    }\n\n    function buyByVoucher(uint256 tokenId_, uint256 maxPrice_) external virtual onlyIfTradable{\n        require(voucher.isEnable, 'unable to use voucher');\n        require(tokenId_ >= 0, \"Invalid id\");\n        require(maxPrice_ > 0, \"invalid max price\");\n        IVNFT instance = voucher.instance;\n        instance.transferFrom(msg.sender, address(this), tokenId_, voucher.tokenId, maxPrice_);\n\n        (uint256 amount,uint256 change, uint price, uint256 fee)  = _buy(maxPrice_);\n        if (amount > 0) {\n            if(change > 0) {\n                instance.transferFrom(address(this), msg.sender, voucher.tokenId, tokenId_, change);\n            }\n            _updateSupplierFee(fee.mul(1e12).div(8e12));\n            poolInfo.tokenReward = poolInfo.tokenReward.add(fee.mul(6e12).div(8e12));\n            UserInfo storage user = userInfo[msg.sender];\n            PoolInfo storage pool = poolInfo;\n            uint256 pending = user.amount.mul(pool.accRewardPerShare).div(1e12).sub(user.rewardDebt);\n            if(pending > 0) {\n                instance.transferFrom(address(this), msg.sender, voucher.tokenId, tokenId_, pending);\n            }\n            poolInfo.amount = poolInfo.amount.add(price);\n            _updatePool();\n            _updateUserInfo(price);\n        } else {\n            instance.transferFrom(address(this), msg.sender, voucher.tokenId, tokenId_, maxPrice_);\n        }\n    }\n\n    function sellByVoucher(uint256 tokenId_, uint32 amount_) external virtual onlyIfTradable{\n        require(voucher.isEnable, 'unable to use voucher');\n        (uint256 price, uint256 fee )= _sellForAmount(amount_);\n\n        _updateSellStaking(amount_, tokenId_);\n\n        voucher.instance.transferFrom(address(this), msg.sender, voucher.tokenId, tokenId_, price);\n        _updateSupplierFee(fee.mul(1e12).div(2e12));\n    }\n\n    function tradeinVoucher(uint256 tokenId_, uint32 amount_) external virtual onlyIfTradable {\n        require(voucher.isEnable, 'unable to use voucher');\n        require(amount_ > 0, \"Amount must be non-zero.\");\n        require(balanceOf(msg.sender) >= amount_, \"Insufficient tokens to burn.\");\n\n        (uint256 reimburseAmount, uint fee) = _sellReturn(amount_);\n        uint256 tradinReturn = calculateTradinReturn(amount_);\n        _updateSupplierFee(fee.mul(1e12).div(2e12).add(tradinReturn));\n        _addEscrow(amount_,  reimburseAmount.sub(fee));\n        _burn(msg.sender, amount_);\n        tradeinCount = tradeinCount + amount_;\n        tradeinReserveBalance = tradeinReserveBalance.add(tradinReturn);\n\n        _updateSellStaking(amount_, tokenId_);\n\n        emit Tradein(msg.sender, amount_);\n    }\n\n    function setSupplier( address wallet_) external virtual onlyOwner {\n        require(wallet_!=address(0), \"Address is invalid\");\n        supplier.wallet = wallet_;\n    }\n\n    function claimSupplier(uint256 tokenId_, uint256 amount_) external virtual{\n        require(supplier.wallet!=address(0), \"wallet is invalid\");\n        require(msg.sender == supplier.wallet, \"The address is not allowed\");\n        if (amount_ <= supplier.amount){\n            voucher.instance.transferFrom(address(this), msg.sender, voucher.tokenId, tokenId_, amount_);\n            supplier.amount = supplier.amount.sub(amount_);\n        }\n    }\n\n    function _updateSupplierFee(uint256 fee) virtual internal {\n        if( fee > 0 ) {\n            supplier.amount = supplier.amount.add(fee);\n        }\n    }\n\n    /**\n    * @dev this function returns the amount of reserve balance that the supplier can withdraw from the dapp.\n    */\n    function getSupplierBalance() public view virtual returns (uint256) {\n        return supplier.amount;\n    }\n\n    /**\n    * @dev A method that refunds the value of a product to a buyer/customer.\n    *\n    * @param buyer_       The wallet address of the owner whose product token is under the redemption process\n    * @param value_       The market value of the token being redeemed\n    *\n    */\n    function _refund(address buyer_, uint256 value_) internal virtual override {\n        address highAddress = _tokenUtils.getAddressByIds(INDEX_HIGH);\n\n        bool success = IERC20(highAddress).transfer(buyer_, value_);\n        require(success, \"refund token failed\");\n    }\n\n    function getUserReward(address addr_) external virtual returns (uint256) {\n        if(userInfo[addr_].amount > 0) {\n            UserInfo storage user = userInfo[msg.sender];\n            PoolInfo storage pool = poolInfo;\n            return user.amount.mul(pool.accRewardPerShare).div(1e12).sub(user.rewardDebt);\n        }\n        return 0;\n    }\n\n    function getUserInfo(address addr_) external view virtual returns( UserInfo memory) {\n        require(addr_ != address(0), 'invalid address');\n        return userInfo[addr_];\n    }\n\n    function getPoolInfo() external view virtual returns( PoolInfo memory) {\n        return poolInfo;\n    }\n\n    function getSupplierInfo() external view virtual returns( supplierInfo memory) {\n        return supplier;\n    }\n\n}\n",
  "sourcePath": "/Users/jack/Documents/GitHub/HighStreet/client/src/contracts/ProductTokenV0.sol",
  "compiler": {
    "name": "solc",
    "version": "0.8.3+commit.8d00100c.Emscripten.clang"
  },
  "schemaVersion": "3.4.0",
  "updatedAt": "2021-09-16T14:56:36.307Z",
  "devdoc": {
    "details": "This contract builds on top of version 0 by including transaction logics, such as buy and sell transfers    and exchange rate computation by including a price oracle.",
    "kind": "dev",
    "methods": {
      "allowance(address,address)": {
        "details": "See {IERC20-allowance}."
      },
      "approve(address,uint256)": {
        "details": "See {IERC20-approve}. Requirements: - `spender` cannot be the zero address."
      },
      "balanceOf(address)": {
        "details": "See {IERC20-balanceOf}."
      },
      "calculateBuyReturn(uint256)": {
        "details": "Function that computes number of product tokens one can buy given an amount in reserve token.",
        "params": {
          "_amountReserve": "purchaing amount in reserve token (dai)(with 4% platform fee)"
        },
        "returns": {
          "mintAmount": "             number of tokens in traded token that can be purchased by given amount."
        }
      },
      "calculateSellReturn(uint32)": {
        "details": "Function that computes selling price in reserve tokens given an amount in traded token.",
        "params": {
          "_amountProduct": "selling amount in product token"
        },
        "returns": {
          "soldAmount": "             total amount that will be transferred to the seller (with 2% platform fee)."
        }
      },
      "decimals()": {
        "details": "Returns the number of decimals used to get its user representation. For example, if `decimals` equals `2`, a balance of `505` tokens should be displayed to a user as `5,05` (`505 / 10 ** 2`). Tokens usually opt for a value of 18, imitating the relationship between Ether and Wei. This is the value {ERC20} uses, unless this function is overloaded; NOTE: This information is only used for _display_ purposes: it in no way affects any of the arithmetic of the contract, including {IERC20-balanceOf} and {IERC20-transfer}."
      },
      "decreaseAllowance(address,uint256)": {
        "details": "Atomically decreases the allowance granted to `spender` by the caller. This is an alternative to {approve} that can be used as a mitigation for problems described in {IERC20-approve}. Emits an {Approval} event indicating the updated allowance. Requirements: - `spender` cannot be the zero address. - `spender` must have allowance for the caller of at least `subtractedValue`."
      },
      "getAvailability()": {
        "details": "Function to check how many tokens of this product are currently available for purchase, by taking the difference between max cap count and current token in circulation or burned.",
        "returns": {
          "available": "               the number of tokens available"
        }
      },
      "getCurrentPrice()": {
        "details": "Function that computes current price for a token through bonding curve calculation based on parameters such as total supply, reserve balance, and reserve ratio.",
        "returns": {
          "price": "                  current price in reserve token (in our case, this is dai). (with 4% platform fee)"
        }
      },
      "getEscrowHistory(address)": {
        "details": "Return the list of all escrows created for a certain user",
        "params": {
          "_buyer": "The address of the buyer"
        },
        "returns": {
          "_0": "A list of past escrows"
        }
      },
      "getPriceForN(uint32)": {
        "details": "Function that computes price total for buying n token through bonding curve calculation based on parameters such as total supply, reserve balance, and reserve ratio.",
        "params": {
          "_amountProduct": "token amount in traded token"
        },
        "returns": {
          "price": "                  total price in reserve token (in our case, this is dai). (with 4% platform fee)"
        }
      },
      "getRedeemStatus(address,uint256)": {
        "details": "Get status of a particular redemption process",
        "params": {
          "_buyer": "The address of the buyer",
          "_id": "The cached id of the escrow, retrieved from database"
        },
        "returns": {
          "_0": "The current status"
        }
      },
      "getSupplierBalance()": {
        "details": "this function returns the amount of reserve balance that the supplier can withdraw from the dapp."
      },
      "increaseAllowance(address,uint256)": {
        "details": "Atomically increases the allowance granted to `spender` by the caller. This is an alternative to {approve} that can be used as a mitigation for problems described in {IERC20-approve}. Emits an {Approval} event indicating the updated allowance. Requirements: - `spender` cannot be the zero address."
      },
      "initialize(string,string,address,uint32,uint32,uint32,uint256)": {
        "details": "initializer function.",
        "params": {
          "_baseReserve": "the base amount of reserve tokens, in accordance to _supplyOffset.",
          "_maxTokenCount": "the amount of token that will exist for this type.",
          "_name": "the name of this token",
          "_reserveRatio": "the reserve ratio in the curve function. Number in parts per million",
          "_supplyOffset": "this amount is used to determine initial price.",
          "_symbol": "the symbol of this token"
        }
      },
      "isStateCompleted(uint8)": {
        "details": "Helper function to check whether a escrow state is completed",
        "params": {
          "_state": "The state to be checked"
        }
      },
      "launch()": {
        "details": "requires function to be called from owner. this enables customers to buy, sell, or redeem the product."
      },
      "name()": {
        "details": "Returns the name of the token."
      },
      "owner()": {
        "details": "Returns the address of the current owner."
      },
      "pause()": {
        "details": "requires function to be called from owner. this prevents customers from buying, selling, or redeeming the product."
      },
      "renounceOwnership()": {
        "details": "Leaves the contract without owner. It will not be possible to call `onlyOwner` functions anymore. Can only be called by the current owner. NOTE: Renouncing ownership will leave the contract without an owner, thereby removing any functionality that is only available to the owner."
      },
      "setBondingCurve(address)": {
        "details": "requires function to be called from owner. sets a bonding curve implementation for this product.",
        "params": {
          "_address": "the address of the bonding curve implementation"
        }
      },
      "symbol()": {
        "details": "Returns the symbol of the token, usually a shorter version of the name."
      },
      "totalSupply()": {
        "details": "See {IERC20-totalSupply}."
      },
      "transfer(address,uint256)": {
        "details": "See {IERC20-transfer}. Requirements: - `recipient` cannot be the zero address. - the caller must have a balance of at least `amount`."
      },
      "transferFrom(address,address,uint256)": {
        "details": "See {IERC20-transferFrom}. Emits an {Approval} event indicating the updated allowance. This is not required by the EIP. See the note at the beginning of {ERC20}. Requirements: - `sender` and `recipient` cannot be the zero address. - `sender` must have a balance of at least `amount`. - the caller must have allowance for ``sender``'s tokens of at least `amount`."
      },
      "transferOwnership(address)": {
        "details": "Transfers ownership of the contract to a new account (`newOwner`). Can only be called by the current owner."
      },
      "updateUserCompleted(address,uint256)": {
        "details": "used to update the status of redemption to \"User Complete\" after an escrow process has been started.",
        "params": {
          "buyer": "the wallet address of product buyer",
          "id": "the id of the escrow, returned to the user after starting of redemption process"
        }
      },
      "updateUserRefund(address,uint256)": {
        "details": "used to update the status of redemption to \"User Refunded\" after an escrow process has been started.",
        "params": {
          "buyer": "the wallet address of product buyer",
          "id": "the id of the escrow, returned to the user after starting of redemption process"
        }
      }
    },
    "title": "ProductTokenV0",
    "version": 1
  },
  "userdoc": {
    "kind": "user",
    "methods": {},
    "notice": "This is version 0 of the product token implementation.",
    "version": 1
  }
}