{
  "contractName": "ProductTokenV0",
  "abi": [
    {
      "anonymous": false,
      "inputs": [
        {
          "indexed": true,
          "internalType": "address",
          "name": "owner",
          "type": "address"
        },
        {
          "indexed": true,
          "internalType": "address",
          "name": "spender",
          "type": "address"
        },
        {
          "indexed": false,
          "internalType": "uint256",
          "name": "value",
          "type": "uint256"
        }
      ],
      "name": "Approval",
      "type": "event"
    },
    {
      "anonymous": false,
      "inputs": [
        {
          "indexed": true,
          "internalType": "address",
          "name": "sender",
          "type": "address"
        },
        {
          "indexed": false,
          "internalType": "uint32",
          "name": "amount",
          "type": "uint32"
        },
        {
          "indexed": false,
          "internalType": "uint256",
          "name": "deposit",
          "type": "uint256"
        }
      ],
      "name": "Buy",
      "type": "event"
    },
    {
      "anonymous": false,
      "inputs": [
        {
          "indexed": true,
          "internalType": "address",
          "name": "previousOwner",
          "type": "address"
        },
        {
          "indexed": true,
          "internalType": "address",
          "name": "newOwner",
          "type": "address"
        }
      ],
      "name": "OwnershipTransferred",
      "type": "event"
    },
    {
      "anonymous": false,
      "inputs": [
        {
          "indexed": true,
          "internalType": "address",
          "name": "sender",
          "type": "address"
        },
        {
          "indexed": false,
          "internalType": "uint32",
          "name": "amount",
          "type": "uint32"
        },
        {
          "indexed": false,
          "internalType": "uint256",
          "name": "refund",
          "type": "uint256"
        }
      ],
      "name": "Sell",
      "type": "event"
    },
    {
      "anonymous": false,
      "inputs": [
        {
          "indexed": false,
          "internalType": "bool",
          "name": "isTradable",
          "type": "bool"
        }
      ],
      "name": "Tradable",
      "type": "event"
    },
    {
      "anonymous": false,
      "inputs": [
        {
          "indexed": true,
          "internalType": "address",
          "name": "sender",
          "type": "address"
        },
        {
          "indexed": false,
          "internalType": "uint32",
          "name": "amount",
          "type": "uint32"
        }
      ],
      "name": "Tradein",
      "type": "event"
    },
    {
      "anonymous": false,
      "inputs": [
        {
          "indexed": true,
          "internalType": "address",
          "name": "from",
          "type": "address"
        },
        {
          "indexed": true,
          "internalType": "address",
          "name": "to",
          "type": "address"
        },
        {
          "indexed": false,
          "internalType": "uint256",
          "name": "value",
          "type": "uint256"
        }
      ],
      "name": "Transfer",
      "type": "event"
    },
    {
      "anonymous": false,
      "inputs": [
        {
          "indexed": false,
          "internalType": "address",
          "name": "",
          "type": "address"
        },
        {
          "indexed": false,
          "internalType": "uint256",
          "name": "",
          "type": "uint256"
        },
        {
          "components": [
            {
              "internalType": "enum Escrow.escrowState",
              "name": "state",
              "type": "uint8"
            },
            {
              "internalType": "uint32",
              "name": "amount",
              "type": "uint32"
            },
            {
              "internalType": "uint256",
              "name": "value",
              "type": "uint256"
            }
          ],
          "indexed": false,
          "internalType": "struct Escrow.escrowInfo",
          "name": "",
          "type": "tuple"
        }
      ],
      "name": "escrowStateUpdated",
      "type": "event"
    },
    {
      "stateMutability": "nonpayable",
      "type": "fallback"
    },
    {
      "inputs": [
        {
          "internalType": "uint32",
          "name": "_amountProduct",
          "type": "uint32"
        }
      ],
      "name": "_getPriceForN",
      "outputs": [
        {
          "internalType": "uint256",
          "name": "price",
          "type": "uint256"
        },
        {
          "internalType": "uint256",
          "name": "fee",
          "type": "uint256"
        }
      ],
      "stateMutability": "view",
      "type": "function",
      "constant": true
    },
    {
      "inputs": [
        {
          "internalType": "address",
          "name": "owner",
          "type": "address"
        },
        {
          "internalType": "address",
          "name": "spender",
          "type": "address"
        }
      ],
      "name": "allowance",
      "outputs": [
        {
          "internalType": "uint256",
          "name": "",
          "type": "uint256"
        }
      ],
      "stateMutability": "view",
      "type": "function",
      "constant": true
    },
    {
      "inputs": [
        {
          "internalType": "address",
          "name": "spender",
          "type": "address"
        },
        {
          "internalType": "uint256",
          "name": "amount",
          "type": "uint256"
        }
      ],
      "name": "approve",
      "outputs": [
        {
          "internalType": "bool",
          "name": "",
          "type": "bool"
        }
      ],
      "stateMutability": "nonpayable",
      "type": "function"
    },
    {
      "inputs": [
        {
          "internalType": "address",
          "name": "account",
          "type": "address"
        }
      ],
      "name": "balanceOf",
      "outputs": [
        {
          "internalType": "uint256",
          "name": "",
          "type": "uint256"
        }
      ],
      "stateMutability": "view",
      "type": "function",
      "constant": true
    },
    {
      "inputs": [
        {
          "internalType": "uint256",
          "name": "_amountReserve",
          "type": "uint256"
        }
      ],
      "name": "calculateBuyReturn",
      "outputs": [
        {
          "internalType": "uint32",
          "name": "mintAmount",
          "type": "uint32"
        }
      ],
      "stateMutability": "view",
      "type": "function",
      "constant": true
    },
    {
      "inputs": [
        {
          "internalType": "uint32",
          "name": "_amountProduct",
          "type": "uint32"
        }
      ],
      "name": "calculateSellReturn",
      "outputs": [
        {
          "internalType": "uint256",
          "name": "soldAmount",
          "type": "uint256"
        }
      ],
      "stateMutability": "view",
      "type": "function",
      "constant": true
    },
    {
      "inputs": [
        {
          "internalType": "uint32",
          "name": "_amount",
          "type": "uint32"
        }
      ],
      "name": "calculateTradinReturn",
      "outputs": [
        {
          "internalType": "uint256",
          "name": "",
          "type": "uint256"
        }
      ],
      "stateMutability": "view",
      "type": "function",
      "constant": true
    },
    {
      "inputs": [],
      "name": "decimals",
      "outputs": [
        {
          "internalType": "uint8",
          "name": "",
          "type": "uint8"
        }
      ],
      "stateMutability": "view",
      "type": "function",
      "constant": true
    },
    {
      "inputs": [
        {
          "internalType": "address",
          "name": "spender",
          "type": "address"
        },
        {
          "internalType": "uint256",
          "name": "subtractedValue",
          "type": "uint256"
        }
      ],
      "name": "decreaseAllowance",
      "outputs": [
        {
          "internalType": "bool",
          "name": "",
          "type": "bool"
        }
      ],
      "stateMutability": "nonpayable",
      "type": "function"
    },
    {
      "inputs": [
        {
          "internalType": "address",
          "name": "",
          "type": "address"
        },
        {
          "internalType": "uint256",
          "name": "",
          "type": "uint256"
        }
      ],
      "name": "escrowList",
      "outputs": [
        {
          "internalType": "enum Escrow.escrowState",
          "name": "state",
          "type": "uint8"
        },
        {
          "internalType": "uint32",
          "name": "amount",
          "type": "uint32"
        },
        {
          "internalType": "uint256",
          "name": "value",
          "type": "uint256"
        }
      ],
      "stateMutability": "view",
      "type": "function",
      "constant": true
    },
    {
      "inputs": [],
      "name": "getAvailability",
      "outputs": [
        {
          "internalType": "uint32",
          "name": "available",
          "type": "uint32"
        }
      ],
      "stateMutability": "view",
      "type": "function",
      "constant": true
    },
    {
      "inputs": [],
      "name": "getCurrentPrice",
      "outputs": [
        {
          "internalType": "uint256",
          "name": "price",
          "type": "uint256"
        }
      ],
      "stateMutability": "view",
      "type": "function",
      "constant": true
    },
    {
      "inputs": [
        {
          "internalType": "address",
          "name": "_buyer",
          "type": "address"
        }
      ],
      "name": "getEscrowHistory",
      "outputs": [
        {
          "components": [
            {
              "internalType": "enum Escrow.escrowState",
              "name": "state",
              "type": "uint8"
            },
            {
              "internalType": "uint32",
              "name": "amount",
              "type": "uint32"
            },
            {
              "internalType": "uint256",
              "name": "value",
              "type": "uint256"
            }
          ],
          "internalType": "struct Escrow.escrowInfo[]",
          "name": "",
          "type": "tuple[]"
        }
      ],
      "stateMutability": "view",
      "type": "function",
      "constant": true
    },
    {
      "inputs": [],
      "name": "getManager",
      "outputs": [
        {
          "internalType": "address",
          "name": "",
          "type": "address"
        }
      ],
      "stateMutability": "view",
      "type": "function",
      "constant": true
    },
    {
      "inputs": [
        {
          "internalType": "uint32",
          "name": "_amountProduct",
          "type": "uint32"
        }
      ],
      "name": "getPriceForN",
      "outputs": [
        {
          "internalType": "uint256",
          "name": "price",
          "type": "uint256"
        }
      ],
      "stateMutability": "view",
      "type": "function",
      "constant": true
    },
    {
      "inputs": [
        {
          "internalType": "address",
          "name": "_buyer",
          "type": "address"
        },
        {
          "internalType": "uint256",
          "name": "_id",
          "type": "uint256"
        }
      ],
      "name": "getRedeemStatus",
      "outputs": [
        {
          "internalType": "enum Escrow.escrowState",
          "name": "",
          "type": "uint8"
        }
      ],
      "stateMutability": "view",
      "type": "function",
      "constant": true
    },
    {
      "inputs": [
        {
          "internalType": "address",
          "name": "spender",
          "type": "address"
        },
        {
          "internalType": "uint256",
          "name": "addedValue",
          "type": "uint256"
        }
      ],
      "name": "increaseAllowance",
      "outputs": [
        {
          "internalType": "bool",
          "name": "",
          "type": "bool"
        }
      ],
      "stateMutability": "nonpayable",
      "type": "function"
    },
    {
      "inputs": [
        {
          "internalType": "string",
          "name": "_name",
          "type": "string"
        },
        {
          "internalType": "string",
          "name": "_symbol",
          "type": "string"
        },
        {
          "internalType": "address",
          "name": "_bondingCurveAddress",
          "type": "address"
        },
        {
          "internalType": "uint32",
          "name": "_reserveRatio",
          "type": "uint32"
        },
        {
          "internalType": "uint32",
          "name": "_maxTokenCount",
          "type": "uint32"
        },
        {
          "internalType": "uint32",
          "name": "_supplyOffset",
          "type": "uint32"
        },
        {
          "internalType": "uint256",
          "name": "_baseReserve",
          "type": "uint256"
        }
      ],
      "name": "initialize",
      "outputs": [],
      "stateMutability": "nonpayable",
      "type": "function"
    },
    {
      "inputs": [
        {
          "internalType": "enum Escrow.escrowState",
          "name": "_state",
          "type": "uint8"
        }
      ],
      "name": "isStateCompleted",
      "outputs": [
        {
          "internalType": "bool",
          "name": "",
          "type": "bool"
        }
      ],
      "stateMutability": "pure",
      "type": "function",
      "constant": true
    },
    {
      "inputs": [],
      "name": "launch",
      "outputs": [],
      "stateMutability": "nonpayable",
      "type": "function"
    },
    {
      "inputs": [],
      "name": "maxTokenCount",
      "outputs": [
        {
          "internalType": "uint32",
          "name": "",
          "type": "uint32"
        }
      ],
      "stateMutability": "view",
      "type": "function",
      "constant": true
    },
    {
      "inputs": [],
      "name": "name",
      "outputs": [
        {
          "internalType": "string",
          "name": "",
          "type": "string"
        }
      ],
      "stateMutability": "view",
      "type": "function",
      "constant": true
    },
    {
      "inputs": [],
      "name": "owner",
      "outputs": [
        {
          "internalType": "address",
          "name": "",
          "type": "address"
        }
      ],
      "stateMutability": "view",
      "type": "function",
      "constant": true
    },
    {
      "inputs": [],
      "name": "pause",
      "outputs": [],
      "stateMutability": "nonpayable",
      "type": "function"
    },
    {
      "inputs": [],
      "name": "poolInfo",
      "outputs": [
        {
          "internalType": "uint256",
          "name": "amount",
          "type": "uint256"
        },
        {
          "internalType": "uint256",
          "name": "accRewardPerShare",
          "type": "uint256"
        },
        {
          "internalType": "uint256",
          "name": "tokenReward",
          "type": "uint256"
        }
      ],
      "stateMutability": "view",
      "type": "function",
      "constant": true
    },
    {
      "inputs": [],
      "name": "renounceOwnership",
      "outputs": [],
      "stateMutability": "nonpayable",
      "type": "function"
    },
    {
      "inputs": [],
      "name": "reserveBalance",
      "outputs": [
        {
          "internalType": "uint256",
          "name": "",
          "type": "uint256"
        }
      ],
      "stateMutability": "view",
      "type": "function",
      "constant": true
    },
    {
      "inputs": [],
      "name": "reserveRatio",
      "outputs": [
        {
          "internalType": "uint32",
          "name": "",
          "type": "uint32"
        }
      ],
      "stateMutability": "view",
      "type": "function",
      "constant": true
    },
    {
      "inputs": [
        {
          "internalType": "address",
          "name": "_address",
          "type": "address"
        }
      ],
      "name": "setBondingCurve",
      "outputs": [],
      "stateMutability": "nonpayable",
      "type": "function"
    },
    {
      "inputs": [
        {
          "internalType": "address",
          "name": "addr_",
          "type": "address"
        }
      ],
      "name": "setManager",
      "outputs": [],
      "stateMutability": "nonpayable",
      "type": "function"
    },
    {
      "inputs": [],
      "name": "supplier",
      "outputs": [
        {
          "internalType": "uint256",
          "name": "amount",
          "type": "uint256"
        },
        {
          "internalType": "address",
          "name": "wallet",
          "type": "address"
        }
      ],
      "stateMutability": "view",
      "type": "function",
      "constant": true
    },
    {
      "inputs": [],
      "name": "symbol",
      "outputs": [
        {
          "internalType": "string",
          "name": "",
          "type": "string"
        }
      ],
      "stateMutability": "view",
      "type": "function",
      "constant": true
    },
    {
      "inputs": [],
      "name": "totalSupply",
      "outputs": [
        {
          "internalType": "uint256",
          "name": "",
          "type": "uint256"
        }
      ],
      "stateMutability": "view",
      "type": "function",
      "constant": true
    },
    {
      "inputs": [],
      "name": "tradeinCount",
      "outputs": [
        {
          "internalType": "uint32",
          "name": "",
          "type": "uint32"
        }
      ],
      "stateMutability": "view",
      "type": "function",
      "constant": true
    },
    {
      "inputs": [],
      "name": "tradeinReserveBalance",
      "outputs": [
        {
          "internalType": "uint256",
          "name": "",
          "type": "uint256"
        }
      ],
      "stateMutability": "view",
      "type": "function",
      "constant": true
    },
    {
      "inputs": [
        {
          "internalType": "address",
          "name": "sender",
          "type": "address"
        },
        {
          "internalType": "address",
          "name": "recipient",
          "type": "address"
        },
        {
          "internalType": "uint256",
          "name": "amount",
          "type": "uint256"
        }
      ],
      "name": "transferFrom",
      "outputs": [
        {
          "internalType": "bool",
          "name": "",
          "type": "bool"
        }
      ],
      "stateMutability": "nonpayable",
      "type": "function"
    },
    {
      "inputs": [
        {
          "internalType": "address",
          "name": "newOwner",
          "type": "address"
        }
      ],
      "name": "transferOwnership",
      "outputs": [],
      "stateMutability": "nonpayable",
      "type": "function"
    },
    {
      "inputs": [
        {
          "internalType": "address",
          "name": "buyer",
          "type": "address"
        },
        {
          "internalType": "uint256",
          "name": "id",
          "type": "uint256"
        }
      ],
      "name": "updateUserCompleted",
      "outputs": [],
      "stateMutability": "nonpayable",
      "type": "function"
    },
    {
      "inputs": [
        {
          "internalType": "address",
          "name": "buyer",
          "type": "address"
        },
        {
          "internalType": "uint256",
          "name": "id",
          "type": "uint256"
        }
      ],
      "name": "updateUserRefund",
      "outputs": [],
      "stateMutability": "nonpayable",
      "type": "function"
    },
    {
      "inputs": [
        {
          "internalType": "address",
          "name": "",
          "type": "address"
        }
      ],
      "name": "userInfo",
      "outputs": [
        {
          "internalType": "uint256",
          "name": "amount",
          "type": "uint256"
        },
        {
          "internalType": "uint256",
          "name": "rewardDebt",
          "type": "uint256"
        },
        {
          "internalType": "uint256",
          "name": "pendingReward",
          "type": "uint256"
        }
      ],
      "stateMutability": "view",
      "type": "function",
      "constant": true
    },
    {
      "inputs": [],
      "name": "voucher",
      "outputs": [
        {
          "internalType": "address",
          "name": "addr",
          "type": "address"
        },
        {
          "internalType": "uint256",
          "name": "tokenId",
          "type": "uint256"
        }
      ],
      "stateMutability": "view",
      "type": "function",
      "constant": true
    },
    {
      "inputs": [
        {
          "internalType": "address",
          "name": "addr_",
          "type": "address"
        },
        {
          "internalType": "uint256",
          "name": "tokenId_",
          "type": "uint256"
        }
      ],
      "name": "setupVoucher",
      "outputs": [],
      "stateMutability": "nonpayable",
      "type": "function"
    },
    {
      "inputs": [
        {
          "internalType": "uint256",
          "name": "tokenId_",
          "type": "uint256"
        }
      ],
      "name": "claimVoucher",
      "outputs": [],
      "stateMutability": "nonpayable",
      "type": "function"
    },
    {
      "inputs": [
        {
          "internalType": "uint256",
          "name": "tokenId_",
          "type": "uint256"
        },
        {
          "internalType": "uint256",
          "name": "maxPrice_",
          "type": "uint256"
        }
      ],
      "name": "buyByVoucher",
      "outputs": [],
      "stateMutability": "nonpayable",
      "type": "function"
    },
    {
      "inputs": [
        {
          "internalType": "uint256",
          "name": "tokenId_",
          "type": "uint256"
        },
        {
          "internalType": "uint32",
          "name": "amount_",
          "type": "uint32"
        }
      ],
      "name": "sellByVoucher",
      "outputs": [],
      "stateMutability": "nonpayable",
      "type": "function"
    },
    {
      "inputs": [
        {
          "internalType": "uint256",
          "name": "tokenId_",
          "type": "uint256"
        },
        {
          "internalType": "uint32",
          "name": "amount_",
          "type": "uint32"
        }
      ],
      "name": "tradeinVoucher",
      "outputs": [],
      "stateMutability": "nonpayable",
      "type": "function"
    },
    {
      "inputs": [
        {
          "internalType": "address",
          "name": "wallet_",
          "type": "address"
        }
      ],
      "name": "setSupplier",
      "outputs": [],
      "stateMutability": "nonpayable",
      "type": "function"
    },
    {
      "inputs": [
        {
          "internalType": "uint256",
          "name": "tokenId_",
          "type": "uint256"
        },
        {
          "internalType": "uint256",
          "name": "amount_",
          "type": "uint256"
        }
      ],
      "name": "claimSupplier",
      "outputs": [],
      "stateMutability": "nonpayable",
      "type": "function"
    },
    {
      "inputs": [],
      "name": "getSupplierBalance",
      "outputs": [
        {
          "internalType": "uint256",
          "name": "",
          "type": "uint256"
        }
      ],
      "stateMutability": "view",
      "type": "function",
      "constant": true
    },
    {
      "inputs": [
        {
          "internalType": "address",
          "name": "addr_",
          "type": "address"
        }
      ],
      "name": "getUserReward",
      "outputs": [
        {
          "internalType": "uint256",
          "name": "",
          "type": "uint256"
        }
      ],
      "stateMutability": "view",
      "type": "function",
      "constant": true
    },
    {
      "inputs": [
        {
          "internalType": "address",
          "name": "addr_",
          "type": "address"
        }
      ],
      "name": "getUserInfo",
      "outputs": [
        {
          "components": [
            {
              "internalType": "uint256",
              "name": "amount",
              "type": "uint256"
            },
            {
              "internalType": "uint256",
              "name": "rewardDebt",
              "type": "uint256"
            },
            {
              "internalType": "uint256",
              "name": "pendingReward",
              "type": "uint256"
            },
            {
              "internalType": "uint256[]",
              "name": "records",
              "type": "uint256[]"
            }
          ],
          "internalType": "struct ProductTokenV0.UserInfo",
          "name": "",
          "type": "tuple"
        }
      ],
      "stateMutability": "view",
      "type": "function",
      "constant": true
    },
    {
      "inputs": [],
      "name": "getPoolInfo",
      "outputs": [
        {
          "components": [
            {
              "internalType": "uint256",
              "name": "amount",
              "type": "uint256"
            },
            {
              "internalType": "uint256",
              "name": "accRewardPerShare",
              "type": "uint256"
            },
            {
              "internalType": "uint256",
              "name": "tokenReward",
              "type": "uint256"
            }
          ],
          "internalType": "struct ProductTokenV0.PoolInfo",
          "name": "",
          "type": "tuple"
        }
      ],
      "stateMutability": "view",
      "type": "function",
      "constant": true
    },
    {
      "inputs": [],
      "name": "getSupplierInfo",
      "outputs": [
        {
          "components": [
            {
              "internalType": "uint256",
              "name": "amount",
              "type": "uint256"
            },
            {
              "internalType": "address",
              "name": "wallet",
              "type": "address"
            }
          ],
          "internalType": "struct ProductTokenV0.supplierInfo",
          "name": "",
          "type": "tuple"
        }
      ],
      "stateMutability": "view",
      "type": "function",
      "constant": true
    },
    {
      "inputs": [
        {
          "internalType": "address",
          "name": "recipient_",
          "type": "address"
        },
        {
          "internalType": "uint256",
          "name": "amount_",
          "type": "uint256"
        }
      ],
      "name": "transfer",
      "outputs": [
        {
          "internalType": "bool",
          "name": "",
          "type": "bool"
        }
      ],
      "stateMutability": "nonpayable",
      "type": "function"
    }
  ],
  "bytecode": "0x608060405234801561001057600080fd5b50613b79806100206000396000f3fe608060405234801561001057600080fd5b50600436106102a65760003560e060020a90048063828f3a9c1161016c578063ba7a93b6116100d8578063ba7a93b614610677578063c4e627c21461068e578063c757d4c7146106a6578063c75ebb82146106b9578063cdda418c146106cc578063d0ebdbe714610702578063d500958414610715578063dd304b1a14610726578063dd62ed3e14610746578063e67dc5181461077f578063eb91d37e14610788578063efea8a1314610790578063f2fde38b146107a3578063f97511d3146107b6576102a6565b8063828f3a9c1461057a5780638456cb591461058d5780638da5cb5b14610595578063946cb16f146105b557806395d89b41146105c8578063964a6afe146105d057806399740166146105d85780639ade9687146105eb5780639b9ffbf3146105fe578063a10954fe14610620578063a457c2d714610629578063a9059cbb1461063c578063af22803e1461064f576102a6565b80633950935111610216578063395093511461041457806343ff1fb814610427578063491052cd1461043a5780635a2f3d091461044d57806360246c881461045f57806360dd8aaf146104895780636386c1c71461049c5780636e74607b146104bc57806370a08231146104dc578063715018a6146104ef57806371a12586146104f757806374a7b0121461050a5780637a53e0401461055f57806380f7fdf014610567576102a6565b806301339c21146102a857806306fdde03146102b0578063095ea7b3146102ce5780630c7d5cd8146102f15780630ccee99b14610316578063168ae4831461032957806318160ddd1461033c5780631959a0021461034e57806319d5b58714610398578063224e4f48146103ab57806323b872dd146103be578063313ce567146103d157806336da4468146103e0575b005b6102a66107c9565b6102b86108b1565b6040516102c591906136da565b60405180910390f35b6102e16102dc3660046133b6565b610943565b60405190151581526020016102c5565b609b546103019063ffffffff1681565b60405163ffffffff90911681526020016102c5565b6102a66103243660046133b6565b61095a565b6102a661033736600461332f565b6109e1565b6035545b6040519081526020016102c5565b61037d61035c36600461332f565b60a56020526000908152604090208054600182015460029092015490919083565b604080519384526020840192909252908201526060016102c5565b6103406103a6366004613533565b610a8e565b6103406103b9366004613533565b610bbf565b6102e16103cc36600461337b565b610be4565b604051600081526020016102c5565b609e54609f546103f79190600160a060020a031682565b60408051928352600160a060020a039091166020830152016102c5565b6102e16104223660046133b6565b610cad565b6102a661043536600461332f565b610ce4565b6102e16104483660046133df565b610d91565b60a05460a15460a25461037d92919083565b610467610deb565b60408051825181526020808401519082015291810151908201526060016102c5565b6102a66104973660046134e3565b610e34565b6104af6104aa36600461332f565b610f78565b6040516102c59190613909565b6104cf6104ca36600461332f565b611065565b6040516102c59190613659565b6103406104ea36600461332f565b61114b565b6102a6611166565b6102a6610505366004613504565b6111d0565b60408051808201825260008082526020918201528151808301909252609e548252609f54600160a060020a0316908201526040805182518152602092830151600160a060020a031692810192909252016102c5565b61030161137e565b6102a6610575366004613504565b6113c4565b6103016105883660046134b3565b611492565b6102a66114a6565b61059d611577565b604051600160a060020a0390911681526020016102c5565b6102a66105c33660046134e3565b611586565b6102b861179c565b609e54610340565b6102a66105e63660046133b6565b6117ab565b6102a66105f93660046134b3565b61182c565b61061161060c3660046133b6565b6119ad565b6040516102c5939291906136b5565b61034060995481565b6102e16106373660046133b6565b6119f8565b6102e161064a3660046133b6565b611a99565b61066261065d366004613533565b611aac565b604080519283526020830191909152016102c5565b609b5461030190604060020a900463ffffffff1681565b609b5461030190640100000000900463ffffffff1681565b6102a66106b43660046133b6565b611b6f565b6103406106c736600461332f565b611c4e565b60a35460a4546106e391600160a060020a03169082565b60408051600160a060020a0390931683526020830191909152016102c5565b6102a661071036600461332f565b611cc2565b609c54600160a060020a031661059d565b6107396107343660046133b6565b611d3f565b6040516102c591906136a7565b610340610754366004613349565b600160a060020a03918216600090815260346020908152604080832093909416825291909152205490565b610340609a5481565b610340611d95565b6102a661079e3660046133fe565b611da1565b6102a66107b136600461332f565b611e36565b6103406107c4366004613533565b611f31565b336107d2611577565b600160a060020a0316146108045760405160e560020a62461bcd0281526004016107fb90613866565b60405180910390fd5b60985460ff161561086b5760405160e560020a62461bcd02815260206004820152602560248201527f5468652070726f6475637420746f6b656e20697320616c7265616479206c6175604482015260da60020a641b98da19590260648201526084016107fb565b6098805460ff191660019081179091556040519081527f65c5ccecef030677b73a1403e7e69ef84d05db9d1732959d543d32f4419909b8906020015b60405180910390a1565b6060603680546108c090613a5e565b80601f01602080910402602001604051908101604052809291908181526020018280546108ec90613a5e565b80156109395780601f1061090e57610100808354040283529160200191610939565b820191906000526020600020905b81548152906001019060200180831161091c57829003601f168201915b5050505050905090565b6000610950338484611f4e565b5060015b92915050565b610962611577565b600160a060020a031633600160a060020a0316148061098b5750609c54600160a060020a031633145b6109aa5760405160e560020a62461bcd0281526004016107fb9061382f565b600160a060020a0382166109d35760405160e560020a62461bcd0281526004016107fb9061372d565b6109dd828261207f565b5050565b336109ea611577565b600160a060020a031614610a135760405160e560020a62461bcd0281526004016107fb90613866565b600160a060020a038116610a6c5760405160e560020a62461bcd02815260206004820152601260248201527f4164647265737320697320696e76616c6964000000000000000000000000000060448201526064016107fb565b609f8054600160a060020a031916600160a060020a0392909216919091179055565b6000808263ffffffff1611610ae85760405160e560020a62461bcd02815260206004820152600e60248201527f696e76616c696420616d6f756e7400000000000000000000000000000000000060448201526064016107fb565b609b54600090610b1f9063ffffffff606060020a8204811691610b199187811691604060020a90048116906121f816565b906121f8565b609d54609a54609b5460405160e060020a631c949873028152939450600160a060020a0390921692631c94987392610b66928692909163ffffffff16908990600401613978565b60206040518083038186803b158015610b7e57600080fd5b505afa158015610b92573d6000803e3d6000fd5b505050506040513d601f19601f82011682018060405250810190610bb691906134cb565b9150505b919050565b6000806000610bcd8461220b565b9092509050610bdc82826122c2565b949350505050565b6000610bf18484846122ce565b600160a060020a038416600090815260346020908152604080832033845290915290205482811015610c8e5760405160e560020a62461bcd02815260206004820152602860248201527f45524332303a207472616e7366657220616d6f756e742065786365656473206160448201527f6c6c6f77616e636500000000000000000000000000000000000000000000000060648201526084016107fb565b610ca28533610c9d8685613a22565b611f4e565b506001949350505050565b336000818152603460209081526040808320600160a060020a03871684529091528120549091610950918590610c9d9086906139a0565b33610ced611577565b600160a060020a031614610d165760405160e560020a62461bcd0281526004016107fb90613866565b600160a060020a038116610d6f5760405160e560020a62461bcd02815260206004820152600f60248201527f496e76616c69642061646472657373000000000000000000000000000000000060448201526064016107fb565b609d8054600160a060020a031916600160a060020a0392909216919091179055565b60006003826003811115610db85760e060020a634e487b7102600052602160045260246000fd5b148061095457506002826003811115610de45760e060020a634e487b7102600052602160045260246000fd5b1492915050565b610e0f60405180606001604052806000815260200160008152602001600081525090565b506040805160608101825260a054815260a154602082015260a2549181019190915290565b609f54600160a060020a0316610e8f5760405160e560020a62461bcd02815260206004820152601160248201527f77616c6c657420697320696e76616c696400000000000000000000000000000060448201526064016107fb565b609f54600160a060020a03163314610eec5760405160e560020a62461bcd02815260206004820152601a60248201527f5468652061646472657373206973206e6f7420616c6c6f77656400000000000060448201526064016107fb565b609e5481116109dd5760a35460a45460405160e160020a632576a9e1028152600160a060020a0390921691634aed53c291610f319130913391889088906004016135b7565b600060405180830381600087803b158015610f4b57600080fd5b505af1158015610f5f573d6000803e3d6000fd5b5050609e54610f7192509050826122c2565b609e555050565b610fa36040518060800160405280600081526020016000815260200160008152602001606081525090565b600160a060020a038216610fcc5760405160e560020a62461bcd0281526004016107fb9061379b565b600160a060020a038216600090815260a56020908152604091829020825160808101845281548152600182015481840152600282015481850152600382018054855181860281018601909652808652919492936060860193929083018282801561105557602002820191906000526020600020905b815481526020019060010190808311611041575b5050505050815250509050919050565b600160a060020a0381166000908152606560209081526040808320805482518185028101850190935280835260609492939192909184015b82821015611140576000848152602090206040805160608101909152600284029091018054829060ff1660038111156110e95760e060020a634e487b7102600052602160045260246000fd5b600381111561110b5760e060020a634e487b7102600052602160045260246000fd5b81528154610100900463ffffffff1660208083019190915260019283015460409092019190915291835292909201910161109d565b505050509050919050565b600160a060020a031660009081526033602052604090205490565b3361116f611577565b600160a060020a0316146111985760405160e560020a62461bcd0281526004016107fb90613866565b606654604051600091600160a060020a031690600080516020613b04833981519152908390a360668054600160a060020a0319169055565b60985460ff166111f55760405160e560020a62461bcd0281526004016107fb9061389b565b60008163ffffffff161161121e5760405160e560020a62461bcd0281526004016107fb906138d2565b8063ffffffff1661122e3361114b565b101561127f5760405160e560020a62461bcd02815260206004820152601c60248201527f496e73756666696369656e7420746f6b656e7320746f206275726e2e0000000060448201526064016107fb565b60008061128b8361220b565b91509150600061129a84610a8e565b90506112c76112c282610b196501d1a94a20006112bc8764e8d4a510006124ba565b906124c6565b6124d2565b6112da846112d585856122c2565b6124ec565b506112eb338563ffffffff16612640565b609b54611306908590604060020a900463ffffffff166139b8565b609b80546bffffffff00000000000000001916604060020a63ffffffff93841602179055609a546113399183906121f816565b609a5560405163ffffffff8516815233907fe600c25f82e9bac8f9f1663725540d6cd442845726820fd5bee41b66c4bf59be9060200160405180910390a25050505050565b609b54600090604060020a900463ffffffff1661139a60355490565b609b546113b59190640100000000900463ffffffff16613a39565b6113bf9190613a39565b905090565b60985460ff166113e95760405160e560020a62461bcd0281526004016107fb9061389b565b6000806113f583612789565b60a35460a45460405160e160020a632576a9e1028152939550919350600160a060020a031691634aed53c29161143591309133918a9089906004016135b7565b600060405180830381600087803b15801561144f57600080fd5b505af1158015611463573d6000803e3d6000fd5b5050505061148c6112c26501d1a94a20006112bc64e8d4a51000856124ba90919063ffffffff16565b50505050565b60008061149e8361289c565b509392505050565b336114af611577565b600160a060020a0316146114d85760405160e560020a62461bcd0281526004016107fb90613866565b60985460ff1661153c5760405160e560020a62461bcd02815260206004820152602360248201527f5468652070726f6475637420746f6b656e20697320616c726561647920706175604482015260ea60020a621cd9590260648201526084016107fb565b6098805460ff19169055604051600081527f65c5ccecef030677b73a1403e7e69ef84d05db9d1732959d543d32f4419909b8906020016108a7565b606654600160a060020a031690565b60985460ff166115ab5760405160e560020a62461bcd0281526004016107fb9061389b565b600081116115fe5760405160e560020a62461bcd02815260206004820152601160248201527f696e76616c6964206d617820707269636500000000000000000000000000000060448201526064016107fb565b60a35460a45460405160e160020a632576a9e1028152600160a060020a03909216918291634aed53c29161163c9133913091899189906004016135b7565b600060405180830381600087803b15801561165657600080fd5b505af115801561166a573d6000803e3d6000fd5b5050505060008060008061167d866129a1565b93509350935063ffffffff16935060008411156117275782156117065760a45460405160e160020a632576a9e1028152600160a060020a03871691634aed53c2916116d39130913391908d908a906004016135b7565b600060405180830381600087803b1580156116ed57600080fd5b505af1158015611701573d6000803e3d6000fd5b505050505b6117226112c2650746a52880006112bc8464e8d4a510006124ba565b611793565b60a45460405160e160020a632576a9e1028152600160a060020a03871691634aed53c2916117609130913391908d908d906004016135b7565b600060405180830381600087803b15801561177a57600080fd5b505af115801561178e573d6000803e3d6000fd5b505050505b50505050505050565b6060603780546108c090613a5e565b336117b4611577565b600160a060020a0316146117dd5760405160e560020a62461bcd0281526004016107fb90613866565b600160a060020a0382166118065760405160e560020a62461bcd0281526004016107fb9061379b565b60a38054600160a060020a031916600160a060020a03939093169290921790915560a455565b33611835611577565b600160a060020a03161461185e5760405160e560020a62461bcd0281526004016107fb90613866565b806118ae5760405160e560020a62461bcd02815260206004820152600a60248201527f696e76616c69642069640000000000000000000000000000000000000000000060448201526064016107fb565b60a35460a45460405160e060020a63becef6070281526004810191909152600091600160a060020a03169063becef6079060240160206040518083038186803b1580156118fa57600080fd5b505afa15801561190e573d6000803e3d6000fd5b505050506040513d601f19601f8201168201806040525081019061193291906134cb565b60a354909150600160a060020a0316634aed53c23061194f611577565b60a45460405160e060020a63ffffffff861602815261197793929190889088906004016135b7565b600060405180830381600087803b15801561199157600080fd5b505af11580156119a5573d6000803e3d6000fd5b505050505050565b606560205281600052604060002081815481106119c957600080fd5b60009182526020909120600290910201805460019091015460ff8216935061010090910463ffffffff16915083565b336000908152603460209081526040808320600160a060020a038616845290915281205482811015611a805760405160e560020a62461bcd02815260206004820152602560248201527f45524332303a2064656372656173656420616c6c6f77616e63652062656c6f77604482015260d860020a64207a65726f0260648201526084016107fb565b611a8f3385610c9d8685613a22565b5060019392505050565b6000611aa58383612b06565b5092915050565b609d5460009081908190600160a060020a031663bff82d84611acc612b13565b609954609b5460405163ffffffff85811660e060020a028252611af794939216908a90600401613978565b60206040518083038186803b158015611b0f57600080fd5b505afa158015611b23573d6000803e3d6000fd5b505050506040513d601f19601f82011682018060405250810190611b4791906134cb565b90506000611b6364e8d4a510006112bc846412a05f20006124ba565b91935090915050915091565b611b77611577565b600160a060020a031633600160a060020a03161480611ba05750609c54600160a060020a031633145b611bbf5760405160e560020a62461bcd0281526004016107fb9061382f565b600160a060020a038216611be85760405160e560020a62461bcd0281526004016107fb9061372d565b6000611bf48383612b40565b905060008111611c495760405160e560020a62461bcd02815260206004820152600d60248201527f496e76616c69642076616c75650000000000000000000000000000000000000060448201526064016107fb565b505050565b600160a060020a038116600090815260a5602052604081205415611cba57600160a060020a038216600090815260a560205260409020600181015460a154825460a092611cb1929091611cab9164e8d4a51000916112bc916124ba565b906122c2565b92505050610bba565b506000919050565b33611ccb611577565b600160a060020a031614611cf45760405160e560020a62461bcd0281526004016107fb90613866565b600160a060020a038116611d1d5760405160e560020a62461bcd0281526004016107fb9061379b565b609c8054600160a060020a031916600160a060020a0392909216919091179055565b600160a060020a0382166000908152606560205260408120805483908110611d7a5760e060020a634e487b7102600052603260045260246000fd5b600091825260209091206002909102015460ff169392505050565b60006113bf6001611f31565b600054610100900460ff1680611dba575060005460ff16155b611dd95760405160e560020a62461bcd0281526004016107fb906137d2565b600054610100900460ff16158015611dfb576000805461ffff19166101011790555b611e03612cf1565b611e0d8888612d6f565b611e1a8686868686612df1565b8015611e2c576000805461ff00191690555b5050505050505050565b33611e3f611577565b600160a060020a031614611e685760405160e560020a62461bcd0281526004016107fb90613866565b600160a060020a038116611ee75760405160e560020a62461bcd02815260206004820152602660248201527f4f776e61626c653a206e6577206f776e657220697320746865207a65726f206160448201527f646472657373000000000000000000000000000000000000000000000000000060648201526084016107fb565b606654604051600160a060020a03808416921690600080516020613b0483398151915290600090a360668054600160a060020a031916600160a060020a0392909216919091179055565b6000806000611f3f84611aac565b9092509050610bdc82826121f8565b600160a060020a038316611fb65760405160e560020a62461bcd028152602060048201526024808201527f45524332303a20617070726f76652066726f6d20746865207a65726f20616464604482015260e060020a63726573730260648201526084016107fb565b600160a060020a03821661201d5760405160e560020a62461bcd02815260206004820152602260248201527f45524332303a20617070726f766520746f20746865207a65726f206164647265604482015260f060020a6173730260648201526084016107fb565b600160a060020a0383811660008181526034602090815260408083209487168084529482529182902085905590518481527f8c5be1e5ebec7d5bd14f71427d1e84f3dd0314c0f7b2291e5b200ac8c7c3b92591015b60405180910390a3505050565b600160a060020a038216600090815260656020526040902080546120d89190839081106120bf5760e060020a634e487b7102600052603260045260246000fd5b600091825260209091206002909102015460ff16610d91565b156120f85760405160e560020a62461bcd0281526004016107fb90613764565b600160a060020a0382166000908152606560205260409020805460039190839081106121375760e060020a634e487b7102600052603260045260246000fd5b60009182526020909120600290910201805460ff191660018360038111156121725760e060020a634e487b7102600052602160045260246000fd5b0217905550600080516020613ae483398151915282826065600086600160a060020a0316600160a060020a0316815260200190815260200160002084815481106121cf5760e060020a634e487b7102600052603260045260246000fd5b90600052602060002090600202016040516121ec9392919061360c565b60405180910390a15050565b600061220482846139a0565b9392505050565b609d5460009081908190600160a060020a0316631c94987361222b612b13565b609954609b5460405163ffffffff85811660e060020a02825261225694939216908a90600401613978565b60206040518083038186803b15801561226e57600080fd5b505afa158015612282573d6000803e3d6000fd5b505050506040513d601f19601f820116820180604052508101906122a691906134cb565b90506000611b6364e8d4a510006112bc846404a817c8006124ba565b60006122048284613a22565b600160a060020a0383166123385760405160e560020a62461bcd02815260206004820152602560248201527f45524332303a207472616e736665722066726f6d20746865207a65726f206164604482015260d860020a6464726573730260648201526084016107fb565b600160a060020a0382166123a05760405160e560020a62461bcd02815260206004820152602360248201527f45524332303a207472616e7366657220746f20746865207a65726f2061646472604482015260e860020a626573730260648201526084016107fb565b600160a060020a038316600090815260336020526040902054818110156124325760405160e560020a62461bcd02815260206004820152602660248201527f45524332303a207472616e7366657220616d6f756e742065786365656473206260448201527f616c616e6365000000000000000000000000000000000000000000000000000060648201526084016107fb565b61243c8282613a22565b600160a060020a0380861660009081526033602052604080822093909355908516815290812080548492906124729084906139a0565b9250508190555082600160a060020a031684600160a060020a0316600080516020613b24833981519152846040516124ac91815260200190565b60405180910390a350505050565b60006122048284613a03565b600061220482846139e0565b80156124e957609e546124e590826121f8565b609e555b50565b6000808363ffffffff16116125465760405160e560020a62461bcd02815260206004820152600e60248201527f496e76616c696420416d6f756e7400000000000000000000000000000000000060448201526064016107fb565b60408051606081018252600180825263ffffffff861660208084019190915282840186905233600090815260658252938420805480840182559085529320825160029094020180549293849391929091839160ff19909116908360038111156125c25760e060020a634e487b7102600052602160045260246000fd5b0217905550602082810151825463ffffffff9091166101000264ffffffff001990911617825560409283015160019283015533600090815260659091529182205461260d9190613a22565b9050600080516020613ae4833981519152338284604051612630939291906135e8565b60405180910390a1949350505050565b600160a060020a0382166126a65760405160e560020a62461bcd02815260206004820152602160248201527f45524332303a206275726e2066726f6d20746865207a65726f20616464726573604482015260f860020a60730260648201526084016107fb565b600160a060020a038216600090815260336020526040902054818110156127205760405160e560020a62461bcd02815260206004820152602260248201527f45524332303a206275726e20616d6f756e7420657863656564732062616c616e604482015260f060020a6163650260648201526084016107fb565b61272a8282613a22565b600160a060020a03841660009081526033602052604081209190915560358054849290612758908490613a22565b9091555050604051828152600090600160a060020a03851690600080516020613b2483398151915290602001612072565b60008060008363ffffffff16116127b55760405160e560020a62461bcd0281526004016107fb906138d2565b8263ffffffff166127c53361114b565b10156128165760405160e560020a62461bcd02815260206004820152601c60248201527f496e73756666696369656e7420746f6b656e7320746f2073656c6c2e0000000060448201526064016107fb565b6000806128228561220b565b609954919350915061283490836122c2565b6099556128473363ffffffff8716612640565b6040805163ffffffff871681526020810184905233917f84c8d08e5480cf09cbf77bc575dc4e63845522693c34094f04129a4dedb7abd7910160405180910390a261289282826122c2565b9350915050915091565b600080806128b864fb750430006112bc8664e8d4a510006124ba565b905060006128d464e8d4a510006112bc84640df84758006124ba565b609d54909150600090600160a060020a0316639f4ae6b06128f3612b13565b609954609b5463ffffffff9081169061291090899089906122c216565b60405163ffffffff86811660e060020a0282529485166004820152602481019390935292166044820152606481019190915260840160206040518083038186803b15801561295d57600080fd5b505afa158015612971573d6000803e3d6000fd5b505050506040513d601f19601f82011682018060405250810190612995919061354f565b94509092505050915091565b60008060008060006129b161137e565b63ffffffff1611612a075760405160e560020a62461bcd02815260206004820152601e60248201527f536f7272792c207468697320746f6b656e20697320736f6c64206f75742e000060448201526064016107fb565b60008511612a5a5760405160e560020a62461bcd02815260206004820152601960248201527f4465706f736974206d757374206265206e6f6e2d7a65726f2e0000000000000060448201526064016107fb565b600080612a676001611aac565b9150915086821115612a885760008760008095509550955095505050612aff565b612a93336001612f84565b612aa9612aa083836122c2565b609954906121f8565b60995560408051600181526020810184905233917f5b55159a377d86da80a65140d62d994ddbb2cbd4bb2d1b59cb0827fecbe47cab910160405180910390a26001612af488846122c2565b909650945090925090505b9193509193565b60006109503384846122ce565b609b546000906113bf9063ffffffff606060020a8204811691610b1991604060020a909104168160355490565b600160a060020a03821660009081526065602052604081208054612b809190849081106120bf5760e060020a634e487b7102600052603260045260246000fd5b15612ba05760405160e560020a62461bcd0281526004016107fb90613764565b600160a060020a038316600090815260656020526040902080546002919084908110612bdf5760e060020a634e487b7102600052603260045260246000fd5b60009182526020909120600290910201805460ff19166001836003811115612c1a5760e060020a634e487b7102600052602160045260246000fd5b0217905550600080516020613ae483398151915283836065600087600160a060020a0316600160a060020a031681526020019081526020016000208581548110612c775760e060020a634e487b7102600052603260045260246000fd5b9060005260206000209060020201604051612c949392919061360c565b60405180910390a1600160a060020a0383166000908152606560205260409020805483908110612cd75760e060020a634e487b7102600052603260045260246000fd5b906000526020600020906002020160010154905092915050565b600054610100900460ff1680612d0a575060005460ff16155b612d295760405160e560020a62461bcd0281526004016107fb906137d2565b600054610100900460ff16158015612d4b576000805461ffff19166101011790555b612d53613054565b612d5b6130c1565b80156124e9576000805461ff001916905550565b600054610100900460ff1680612d88575060005460ff16155b612da75760405160e560020a62461bcd0281526004016107fb906137d2565b600054610100900460ff16158015612dc9576000805461ffff19166101011790555b612dd1613054565b612ddb8383613160565b8015611c49576000805461ff0019169055505050565b600054610100900460ff1680612e0a575060005460ff16155b612e295760405160e560020a62461bcd0281526004016107fb906137d2565b600054610100900460ff16158015612e4b576000805461ffff19166101011790555b60008463ffffffff1611612ea45760405160e560020a62461bcd02815260206004820152601860248201527f496e76616c6964206d617820746f6b656e20636f756e742e000000000000000060448201526064016107fb565b60008563ffffffff1611612efd5760405160e560020a62461bcd02815260206004820152601560248201527f496e76616c6964207265736572766520726174696f000000000000000000000060448201526064016107fb565b609d8054600160a060020a038816600160a060020a03199091161790556099829055609a829055609b805463ffffffff8681166401000000000267ffffffffffffffff19828816606060020a02166fffffffff00000000ffffffffffffffff19909316929092179088161717905580156119a5576000805461ff0019169055505050505050565b600160a060020a038216612fdd5760405160e560020a62461bcd02815260206004820152601f60248201527f45524332303a206d696e7420746f20746865207a65726f20616464726573730060448201526064016107fb565b8060356000828254612fef91906139a0565b9091555050600160a060020a0382166000908152603360205260408120805483929061301c9084906139a0565b9091555050604051818152600160a060020a03831690600090600080516020613b248339815191529060200160405180910390a35050565b600054610100900460ff168061306d575060005460ff16155b61308c5760405160e560020a62461bcd0281526004016107fb906137d2565b600054610100900460ff16158015612d5b576000805461ffff191661010117905580156124e9576000805461ff001916905550565b600054610100900460ff16806130da575060005460ff16155b6130f95760405160e560020a62461bcd0281526004016107fb906137d2565b600054610100900460ff1615801561311b576000805461ffff19166101011790555b60668054600160a060020a031916339081179091556040518190600090600080516020613b04833981519152908290a35080156124e9576000805461ff001916905550565b600054610100900460ff1680613179575060005460ff16155b6131985760405160e560020a62461bcd0281526004016107fb906137d2565b600054610100900460ff161580156131ba576000805461ffff19166101011790555b82516131cd9060369060208601906131f8565b5081516131e19060379060208501906131f8565b508015611c49576000805461ff0019169055505050565b82805461320490613a5e565b90600052602060002090601f016020900481019282613226576000855561326c565b82601f1061323f57805160ff191683800117855561326c565b8280016001018555821561326c579182015b8281111561326c578251825591602001919060010190613251565b5061327892915061327c565b5090565b5b80821115613278576000815560010161327d565b8035600160a060020a0381168114610bba57600080fd5b600082601f8301126132b8578081fd5b813567ffffffffffffffff808211156132d3576132d3613ab7565b604051601f8301601f19908116603f011681019082821181831017156132fb576132fb613ab7565b81604052838152866020858801011115613313578485fd5b8360208701602083013792830160200193909352509392505050565b600060208284031215613340578081fd5b61220482613291565b6000806040838503121561335b578081fd5b61336483613291565b915061337260208401613291565b90509250929050565b60008060006060848603121561338f578081fd5b61339884613291565b92506133a660208501613291565b9150604084013590509250925092565b600080604083850312156133c8578182fd5b6133d183613291565b946020939093013593505050565b6000602082840312156133f0578081fd5b813560048110612204578182fd5b600080600080600080600060e0888a031215613418578283fd5b873567ffffffffffffffff8082111561342f578485fd5b61343b8b838c016132a8565b985060208a0135915080821115613450578485fd5b5061345d8a828b016132a8565b96505061346c60408901613291565b9450606088013561347c81613ad1565b9350608088013561348c81613ad1565b925060a088013561349c81613ad1565b8092505060c0880135905092959891949750929550565b6000602082840312156134c4578081fd5b5035919050565b6000602082840312156134dc578081fd5b5051919050565b600080604083850312156134f5578182fd5b50508035926020909101359150565b60008060408385031215613516578182fd5b82359150602083013561352881613ad1565b809150509250929050565b600060208284031215613544578081fd5b813561220481613ad1565b600060208284031215613560578081fd5b815161220481613ad1565b6004811061358d5760e060020a634e487b710260009081526021600452602490fd5b9052565b61359c82825161356b565b60208181015163ffffffff1690830152604090810151910152565b600160a060020a03958616815293909416602084015260408301919091526060820152608081019190915260a00190565b600160a060020a03841681526020810183905260a08101610bdc6040830184613591565b600160a060020a038416815260208101839052815460a08201906136366040840160ff831661356b565b63ffffffff61010082041660608401525060018301546080830152949350505050565b6020808252825182820181905260009190848201906040850190845b8181101561369b57613688838551613591565b9284019260609290920191600101613675565b50909695505050505050565b60208101610954828461356b565b606081016136c3828661356b565b63ffffffff93909316602082015260400152919050565b6000602080835283518082850152825b81811015613706578581018301518582016040015282016136ea565b818111156137175783604083870101525b50601f01601f1916929092016040019392505050565b6020808252600d908201527f496e76616c696420627579657200000000000000000000000000000000000000604082015260600190565b60208082526011908201527f616c726561647920636f6d706c65746564000000000000000000000000000000604082015260600190565b6020808252600f908201527f696e76616c696420616464726573730000000000000000000000000000000000604082015260600190565b6020808252602e908201527f496e697469616c697a61626c653a20636f6e747261637420697320616c72656160408201527f647920696e697469616c697a6564000000000000000000000000000000000000606082015260800190565b60208082526011908201527f7065726d697373696f6e2064656e696564000000000000000000000000000000604082015260600190565b6020808252818101527f4f776e61626c653a2063616c6c6572206973206e6f7420746865206f776e6572604082015260600190565b60208082526013908201527f756e61626c6520746f207472616465206e6f7700000000000000000000000000604082015260600190565b60208082526018908201527f416d6f756e74206d757374206265206e6f6e2d7a65726f2e0000000000000000604082015260600190565b6000602080835260a0830184518285015281850151604085015260408501516060850152606085015160808086015281815180845260c08701915084830193508592505b8083101561396d578351825292840192600192909201919084019061394d565b509695505050505050565b63ffffffff948516815260208101939093529083166040830152909116606082015260800190565b600082198211156139b3576139b3613a9d565b500190565b600063ffffffff8083168185168083038211156139d7576139d7613a9d565b01949350505050565b6000826139fe5760e060020a634e487b710281526012600452602481fd5b500490565b6000816000190483118215151615613a1d57613a1d613a9d565b500290565b600082821015613a3457613a34613a9d565b500390565b600063ffffffff83811690831681811015613a5657613a56613a9d565b039392505050565b600281046001821680613a7257607f821691505b60208210811415613a975760e060020a634e487b710260009081526022600452602490fd5b50919050565b60e060020a634e487b710260009081526011600452602490fd5b60e060020a634e487b710260009081526041600452602490fd5b63ffffffff811681146124e957600080fdfe09c64bee251b684a6bb80ce179dd520c001481b7c3d7781f1502e3052af474cf8be0079c531659141344cd1fd0a4f28419497f9722a3daafe3b4186f6b6457e0ddf252ad1be2c89b69c2b068fc378daa952ba7f163c4a11628f55a4df523b3efa2646970667358221220f0de7c854b0b28452d91583e0d5fe9ecce50d3fac13bf072936083a8dc419bee64736f6c63430008030033",
  "immutableReferences": {},
  "source": "// SPDX-License-Identifier: MIT\n\npragma solidity ^0.8.3;\n\nimport \"@openzeppelin/contracts/token/ERC20/IERC20.sol\";\nimport \"@openzeppelin/contracts-upgradeable/utils/math/SafeMathUpgradeable.sol\";\nimport \"./ProductToken.sol\";\nimport \"./interface/IVNFT.sol\";\n\n/// @title ProductTokenV0\n/// @notice This is version 0 of the product token implementation.\n/// @dev This contract builds on top of version 0 by including transaction logics, such as buy and sell transfers\n///    and exchange rate computation by including a price oracle.\ncontract ProductTokenV0 is ProductToken {\n\tusing SafeMathUpgradeable for uint256;\n\n    struct supplierInfo {\n        uint256 amount;\n        address wallet;\n    }\n    struct UserInfo {\n        uint256 amount;\n        uint256 rewardDebt;\n        uint256 pendingReward;\n        uint256[] records;\n    }\n    struct PoolInfo {\n        uint256 amount; // record the entire pool vaule\n        uint256 accRewardPerShare; // Accumulated reward per share\n        uint256 tokenReward; //total reward\n    }\n    struct voucherInfo {\n        address addr;\n        uint256 tokenId;\n    }\n\n    supplierInfo public supplier;\n    PoolInfo public poolInfo;\n    voucherInfo public voucher;\n    mapping (address => UserInfo) public userInfo;\n\n    function _updatePool(uint256 fee_) internal virtual{\n        uint256 supply = poolInfo.amount;\n        if (supply == 0) {\n            poolInfo.accRewardPerShare = 0;\n            return;\n        }\n        poolInfo.accRewardPerShare = poolInfo.accRewardPerShare.add(fee_.mul(1e12).div(supply));\n    }\n\n    // function _updateSellStaking(uint32 amount_, uint256 tokenId_) internal virtual {\n    //     UserInfo storage user = userInfo[msg.sender];\n    //     require(user.amount > 0, \"invalid amount\");\n    //     if(balanceOf(msg.sender) <= user.records.length) {\n    //         uint max = uint256(amount_);\n    //         if(max > user.records.length) {\n    //             max = user.records.length;\n    //         }\n    //         uint256 value = 0;\n    //         for(uint i = 0; i < max; i++) {\n    //             value = value.add(user.records[user.records.length.sub(1)]);\n    //             user.records.pop();\n    //         }\n    //         PoolInfo storage pool = poolInfo;\n    //         user.pendingReward = 0;\n    //         uint256 reward = user.amount.mul(pool.accRewardPerShare).div(1e12).sub(user.rewardDebt).add(user.pendingReward);\n    //         poolInfo.amount = poolInfo.amount.sub(value);\n    //         if(reward > 0) {\n    //             IVNFT(voucher.addr).transferFrom(address(this), msg.sender, voucher.tokenId, tokenId_, reward);\n    //             poolInfo.tokenReward = poolInfo.tokenReward.sub(reward);\n    //         }\n    //         user.amount = user.amount.sub(value);\n    //         user.rewardDebt = user.amount.mul(poolInfo.accRewardPerShare).div(1e12);\n    //     }\n    // }\n\n    // function _updateTranferStaking(address sender_, address recipient_, uint256 amount_) internal virtual {\n    //     UserInfo storage sender = userInfo[sender_];\n    //     UserInfo storage recipient = userInfo[recipient_];\n\n    //     // 1. transfer, tranferFrom \n    //         // 1. \n    //             // sender.amount = sender.amount - amount;\n    //             // integer = amount_.div(1 ether);\n    //             // percentage = (amount_.mod(1 ether).mul(1e12)).div(1 ether);\n    //         // 2. FILO\n\n    //     uint max = amount_.div(1 ether);;\n    //     if(max > sender.records.length) {\n    //         max = sender.records.length;\n    //     }\n    //     uint256 value = 0;\n    //     uint256 temp;\n    //     for(uint i = 0; i < max; i++) {\n    //         temp = sender.records[sender.records.length.sub(1)];\n    //         sender.records.pop();\n    //         recipient.records.push(temp);\n    //         value = value.add(temp);\n    //     }\n    //     uint percent = (amount_.mod(1 ether));\n    //     temp = sender.records[sender.records.length.sub(1)].mul(percent).div(1 ether);\n    // }\n\n    function _updateUserInfo(uint256 price_ ) internal virtual {\n        UserInfo storage user = userInfo[msg.sender];\n        user.amount = user.amount.add(price_);\n        user.records.push(price_);\n        user.rewardDebt = user.amount.mul(poolInfo.accRewardPerShare).div(1e12);\n    }\n\n    function setupVoucher(address addr_, uint256 tokenId_) external virtual onlyOwner{\n        require(addr_ != address(0), 'invalid address');\n        voucher.addr = addr_;\n        voucher.tokenId = tokenId_;\n    }\n\n    function claimVoucher(uint256 tokenId_) external virtual onlyOwner{\n        require(tokenId_ != 0, 'invalid id');\n\n        uint256 amount = IVNFT(voucher.addr).unitsInToken(voucher.tokenId);\n        IVNFT(voucher.addr).transferFrom(address(this), owner(), voucher.tokenId , tokenId_, amount);\n    }\n\n    function buyByVoucher(uint256 tokenId_, uint256 maxPrice_) external virtual onlyIfTradable{\n        require(tokenId_ >= 0, \"Invalid id\");\n        require(maxPrice_ > 0, \"invalid max price\");\n        IVNFT instance = IVNFT(voucher.addr);\n        instance.transferFrom(msg.sender, address(this), tokenId_, voucher.tokenId, maxPrice_);\n\n        (uint256 amount,uint256 change, uint price, uint256 fee)  = _buy(maxPrice_);\n        if (amount > 0) {\n            if(change > 0) {\n                instance.transferFrom(address(this), msg.sender, voucher.tokenId, tokenId_, change);\n            }\n            _updateSupplierFee(fee.mul(1e12).div(8e12));\n            // uint256 reward = fee.mul(6e12).div(8e12);\n            // _updatePool(reward);\n            // poolInfo.tokenReward = poolInfo.tokenReward.add(reward);\n            // UserInfo storage user = userInfo[msg.sender];\n            // PoolInfo storage pool = poolInfo;\n            // user.pendingReward = 0;\n            // uint256 pending = user.amount.mul(pool.accRewardPerShare).div(1e12).sub(user.rewardDebt).add(user.pendingReward);\n            // if(pending > 0) {\n            //     user.pendingReward= pending;\n            //     instance.transferFrom(address(this), msg.sender, voucher.tokenId, tokenId_, pending);\n            //     poolInfo.tokenReward = poolInfo.tokenReward.sub(pending);\n            // }\n            // poolInfo.amount = poolInfo.amount.add(price);\n            // _updateUserInfo(price);\n        } else {\n            instance.transferFrom(address(this), msg.sender, voucher.tokenId, tokenId_, maxPrice_);\n        }\n    }\n\n    function sellByVoucher(uint256 tokenId_, uint32 amount_) external virtual onlyIfTradable{\n        (uint256 price, uint256 fee )= _sellForAmount(amount_);\n\n        // _updateSellStaking(amount_, tokenId_);\n\n        IVNFT(voucher.addr).transferFrom(address(this), msg.sender, voucher.tokenId, tokenId_, price);\n        _updateSupplierFee(fee.mul(1e12).div(2e12));\n    }\n\n    function tradeinVoucher(uint256 tokenId_, uint32 amount_) external virtual onlyIfTradable {\n        require(amount_ > 0, \"Amount must be non-zero.\");\n        require(balanceOf(msg.sender) >= amount_, \"Insufficient tokens to burn.\");\n\n        (uint256 reimburseAmount, uint fee) = _sellReturn(amount_);\n        uint256 tradinReturn = calculateTradinReturn(amount_);\n        _updateSupplierFee(fee.mul(1e12).div(2e12).add(tradinReturn));\n        _addEscrow(amount_,  reimburseAmount.sub(fee));\n        _burn(msg.sender, amount_);\n        tradeinCount = tradeinCount + amount_;\n        tradeinReserveBalance = tradeinReserveBalance.add(tradinReturn);\n\n        // _updateSellStaking(amount_, tokenId_);\n\n        emit Tradein(msg.sender, amount_);\n    }\n\n    function setSupplier( address wallet_) external virtual onlyOwner {\n        require(wallet_!=address(0), \"Address is invalid\");\n        supplier.wallet = wallet_;\n    }\n\n    function claimSupplier(uint256 tokenId_, uint256 amount_) external virtual{\n        require(supplier.wallet!=address(0), \"wallet is invalid\");\n        require(msg.sender == supplier.wallet, \"The address is not allowed\");\n        if (amount_ <= supplier.amount){\n            IVNFT(voucher.addr).transferFrom(address(this), msg.sender, voucher.tokenId, tokenId_, amount_);\n            supplier.amount = supplier.amount.sub(amount_);\n        }\n    }\n\n    function _updateSupplierFee(uint256 fee) virtual internal {\n        if( fee > 0 ) {\n            supplier.amount = supplier.amount.add(fee);\n        }\n    }\n\n    /**\n    * @dev this function returns the amount of reserve balance that the supplier can withdraw from the dapp.\n    */\n    function getSupplierBalance() public view virtual returns (uint256) {\n        return supplier.amount;\n    }\n\n    function getUserReward(address addr_) external view virtual returns (uint256) {\n        if(userInfo[addr_].amount > 0) {\n            UserInfo storage user = userInfo[addr_];\n            PoolInfo storage pool = poolInfo;\n            return user.amount.mul(pool.accRewardPerShare).div(1e12).sub(user.rewardDebt);\n        }\n        return 0;\n    }\n\n    function getUserInfo(address addr_) external view virtual returns( UserInfo memory) {\n        require(addr_ != address(0), 'invalid address');\n        return userInfo[addr_];\n    }\n\n    function getPoolInfo() external view virtual returns( PoolInfo memory) {\n        return poolInfo;\n    }\n\n    function getSupplierInfo() external view virtual returns( supplierInfo memory) {\n        return supplier;\n    }\n\n    function transfer(address recipient_, uint256 amount_) public virtual override returns (bool) {\n        // require(amount_.mod(1 ether) == 0, 'only support integer');\n        super.transfer(recipient_, amount_);\n        //deal with staking\n        // cleanup Sell staking\n        // _updateSellStaking(msg.sender, uint32(amount_), 0, true);\n        //add staking to new owner\n    }\n\n    // function transferFrom(\n    //     address sender_,\n    //     address recipient_,\n    //     uint256 amount_\n    // ) public virtual override returns (bool) {\n    //     // require(amount_.mod(1 ether) == 0, 'only support integer');\n    //     super.transfer(recipient_, amount_);\n    //     //deal with staking\n    //     // _updateSellStaking(sender_,  uint32(amount_), 0, true);\n    // }\n\n}\n",
  "sourcePath": "/Users/jack/Documents/GitHub/HighStreet/client/src/contracts/ProductTokenV0.sol",
  "compiler": {
    "name": "solc",
    "version": "0.8.3+commit.8d00100c.Emscripten.clang"
  },
  "schemaVersion": "3.4.0",
  "updatedAt": "2021-09-25T11:36:19.637Z",
  "networkType": "ethereum",
  "devdoc": {
    "details": "This contract builds on top of version 0 by including transaction logics, such as buy and sell transfers    and exchange rate computation by including a price oracle.",
    "kind": "dev",
    "methods": {
      "allowance(address,address)": {
        "details": "See {IERC20-allowance}."
      },
      "approve(address,uint256)": {
        "details": "See {IERC20-approve}. Requirements: - `spender` cannot be the zero address."
      },
      "balanceOf(address)": {
        "details": "See {IERC20-balanceOf}."
      },
      "calculateBuyReturn(uint256)": {
        "details": "Function that computes number of product tokens one can buy given an amount in reserve token.",
        "params": {
          "_amountReserve": "purchaing amount in reserve token (dai)(with 4% platform fee)"
        },
        "returns": {
          "mintAmount": "             number of tokens in traded token that can be purchased by given amount."
        }
      },
      "calculateSellReturn(uint32)": {
        "details": "Function that computes selling price in reserve tokens given an amount in traded token.",
        "params": {
          "_amountProduct": "selling amount in product token"
        },
        "returns": {
          "soldAmount": "             total amount that will be transferred to the seller (with 2% platform fee)."
        }
      },
      "decimals()": {
        "details": "Returns the number of decimals used to get its user representation. For example, if `decimals` equals `2`, a balance of `505` tokens should be displayed to a user as `5,05` (`505 / 10 ** 2`). Tokens usually opt for a value of 18, imitating the relationship between Ether and Wei. This is the value {ERC20} uses, unless this function is overloaded; NOTE: This information is only used for _display_ purposes: it in no way affects any of the arithmetic of the contract, including {IERC20-balanceOf} and {IERC20-transfer}."
      },
      "decreaseAllowance(address,uint256)": {
        "details": "Atomically decreases the allowance granted to `spender` by the caller. This is an alternative to {approve} that can be used as a mitigation for problems described in {IERC20-approve}. Emits an {Approval} event indicating the updated allowance. Requirements: - `spender` cannot be the zero address. - `spender` must have allowance for the caller of at least `subtractedValue`."
      },
      "getAvailability()": {
        "details": "Function to check how many tokens of this product are currently available for purchase, by taking the difference between max cap count and current token in circulation or burned.",
        "returns": {
          "available": "               the number of tokens available"
        }
      },
      "getCurrentPrice()": {
        "details": "Function that computes current price for a token through bonding curve calculation based on parameters such as total supply, reserve balance, and reserve ratio.",
        "returns": {
          "price": "                  current price in reserve token (in our case, this is dai). (with 4% platform fee)"
        }
      },
      "getEscrowHistory(address)": {
        "details": "Return the list of all escrows created for a certain user",
        "params": {
          "_buyer": "The address of the buyer"
        },
        "returns": {
          "_0": "A list of past escrows"
        }
      },
      "getPriceForN(uint32)": {
        "details": "Function that computes price total for buying n token through bonding curve calculation based on parameters such as total supply, reserve balance, and reserve ratio.",
        "params": {
          "_amountProduct": "token amount in traded token"
        },
        "returns": {
          "price": "                  total price in reserve token (in our case, this is dai). (with 4% platform fee)"
        }
      },
      "getRedeemStatus(address,uint256)": {
        "details": "Get status of a particular redemption process",
        "params": {
          "_buyer": "The address of the buyer",
          "_id": "The cached id of the escrow, retrieved from database"
        },
        "returns": {
          "_0": "The current status"
        }
      },
      "getSupplierBalance()": {
        "details": "this function returns the amount of reserve balance that the supplier can withdraw from the dapp."
      },
      "increaseAllowance(address,uint256)": {
        "details": "Atomically increases the allowance granted to `spender` by the caller. This is an alternative to {approve} that can be used as a mitigation for problems described in {IERC20-approve}. Emits an {Approval} event indicating the updated allowance. Requirements: - `spender` cannot be the zero address."
      },
      "initialize(string,string,address,uint32,uint32,uint32,uint256)": {
        "details": "initializer function.",
        "params": {
          "_baseReserve": "the base amount of reserve tokens, in accordance to _supplyOffset.",
          "_maxTokenCount": "the amount of token that will exist for this type.",
          "_name": "the name of this token",
          "_reserveRatio": "the reserve ratio in the curve function. Number in parts per million",
          "_supplyOffset": "this amount is used to determine initial price.",
          "_symbol": "the symbol of this token"
        }
      },
      "isStateCompleted(uint8)": {
        "details": "Helper function to check whether a escrow state is completed",
        "params": {
          "_state": "The state to be checked"
        }
      },
      "launch()": {
        "details": "requires function to be called from owner. this enables customers to buy, sell, or redeem the product."
      },
      "name()": {
        "details": "Returns the name of the token."
      },
      "owner()": {
        "details": "Returns the address of the current owner."
      },
      "pause()": {
        "details": "requires function to be called from owner. this prevents customers from buying, selling, or redeeming the product."
      },
      "renounceOwnership()": {
        "details": "Leaves the contract without owner. It will not be possible to call `onlyOwner` functions anymore. Can only be called by the current owner. NOTE: Renouncing ownership will leave the contract without an owner, thereby removing any functionality that is only available to the owner."
      },
      "setBondingCurve(address)": {
        "details": "requires function to be called from owner. sets a bonding curve implementation for this product.",
        "params": {
          "_address": "the address of the bonding curve implementation"
        }
      },
      "symbol()": {
        "details": "Returns the symbol of the token, usually a shorter version of the name."
      },
      "totalSupply()": {
        "details": "See {IERC20-totalSupply}."
      },
      "transferFrom(address,address,uint256)": {
        "details": "See {IERC20-transferFrom}. Emits an {Approval} event indicating the updated allowance. This is not required by the EIP. See the note at the beginning of {ERC20}. Requirements: - `sender` and `recipient` cannot be the zero address. - `sender` must have a balance of at least `amount`. - the caller must have allowance for ``sender``'s tokens of at least `amount`."
      },
      "transferOwnership(address)": {
        "details": "Transfers ownership of the contract to a new account (`newOwner`). Can only be called by the current owner."
      },
      "updateUserCompleted(address,uint256)": {
        "details": "used to update the status of redemption to \"User Complete\" after an escrow process has been started.",
        "params": {
          "buyer": "the wallet address of product buyer",
          "id": "the id of the escrow, returned to the user after starting of redemption process"
        }
      },
      "updateUserRefund(address,uint256)": {
        "details": "used to update the status of redemption to \"User Refunded\" after an escrow process has been started.",
        "params": {
          "buyer": "the wallet address of product buyer",
          "id": "the id of the escrow, returned to the user after starting of redemption process"
        }
      }
    },
    "title": "ProductTokenV0",
    "version": 1
  },
  "userdoc": {
    "kind": "user",
    "methods": {},
    "notice": "This is version 0 of the product token implementation.",
    "version": 1
  }
}