{
  "contractName": "ProductTokenV5",
  "abi": [
    {
      "anonymous": false,
      "inputs": [
        {
          "indexed": true,
          "internalType": "address",
          "name": "owner",
          "type": "address"
        },
        {
          "indexed": true,
          "internalType": "address",
          "name": "spender",
          "type": "address"
        },
        {
          "indexed": false,
          "internalType": "uint256",
          "name": "value",
          "type": "uint256"
        }
      ],
      "name": "Approval",
      "type": "event"
    },
    {
      "anonymous": false,
      "inputs": [
        {
          "indexed": true,
          "internalType": "address",
          "name": "sender",
          "type": "address"
        },
        {
          "indexed": false,
          "internalType": "uint32",
          "name": "amount",
          "type": "uint32"
        },
        {
          "indexed": false,
          "internalType": "uint256",
          "name": "deposit",
          "type": "uint256"
        }
      ],
      "name": "Buy",
      "type": "event"
    },
    {
      "anonymous": false,
      "inputs": [
        {
          "indexed": true,
          "internalType": "address",
          "name": "previousOwner",
          "type": "address"
        },
        {
          "indexed": true,
          "internalType": "address",
          "name": "newOwner",
          "type": "address"
        }
      ],
      "name": "OwnershipTransferred",
      "type": "event"
    },
    {
      "anonymous": false,
      "inputs": [
        {
          "indexed": true,
          "internalType": "address",
          "name": "sender",
          "type": "address"
        },
        {
          "indexed": false,
          "internalType": "uint32",
          "name": "amount",
          "type": "uint32"
        },
        {
          "indexed": false,
          "internalType": "uint256",
          "name": "refund",
          "type": "uint256"
        }
      ],
      "name": "Sell",
      "type": "event"
    },
    {
      "anonymous": false,
      "inputs": [
        {
          "indexed": false,
          "internalType": "bool",
          "name": "isTradable",
          "type": "bool"
        }
      ],
      "name": "Tradable",
      "type": "event"
    },
    {
      "anonymous": false,
      "inputs": [
        {
          "indexed": true,
          "internalType": "address",
          "name": "sender",
          "type": "address"
        },
        {
          "indexed": false,
          "internalType": "uint32",
          "name": "amount",
          "type": "uint32"
        }
      ],
      "name": "Tradein",
      "type": "event"
    },
    {
      "anonymous": false,
      "inputs": [
        {
          "indexed": true,
          "internalType": "address",
          "name": "from",
          "type": "address"
        },
        {
          "indexed": true,
          "internalType": "address",
          "name": "to",
          "type": "address"
        },
        {
          "indexed": false,
          "internalType": "uint256",
          "name": "value",
          "type": "uint256"
        }
      ],
      "name": "Transfer",
      "type": "event"
    },
    {
      "anonymous": false,
      "inputs": [
        {
          "indexed": false,
          "internalType": "address",
          "name": "",
          "type": "address"
        },
        {
          "indexed": false,
          "internalType": "uint256",
          "name": "",
          "type": "uint256"
        },
        {
          "components": [
            {
              "internalType": "enum Escrow.escrowState",
              "name": "state",
              "type": "uint8"
            },
            {
              "internalType": "uint32",
              "name": "amount",
              "type": "uint32"
            },
            {
              "internalType": "uint256",
              "name": "value",
              "type": "uint256"
            }
          ],
          "indexed": false,
          "internalType": "struct Escrow.escrowInfo",
          "name": "",
          "type": "tuple"
        }
      ],
      "name": "escrowStateUpdated",
      "type": "event"
    },
    {
      "stateMutability": "nonpayable",
      "type": "fallback"
    },
    {
      "inputs": [
        {
          "internalType": "uint32",
          "name": "_amountProduct",
          "type": "uint32"
        }
      ],
      "name": "_getPriceForN",
      "outputs": [
        {
          "internalType": "uint256",
          "name": "price",
          "type": "uint256"
        },
        {
          "internalType": "uint256",
          "name": "fee",
          "type": "uint256"
        }
      ],
      "stateMutability": "view",
      "type": "function"
    },
    {
      "inputs": [
        {
          "internalType": "address",
          "name": "owner",
          "type": "address"
        },
        {
          "internalType": "address",
          "name": "spender",
          "type": "address"
        }
      ],
      "name": "allowance",
      "outputs": [
        {
          "internalType": "uint256",
          "name": "",
          "type": "uint256"
        }
      ],
      "stateMutability": "view",
      "type": "function"
    },
    {
      "inputs": [
        {
          "internalType": "address",
          "name": "spender",
          "type": "address"
        },
        {
          "internalType": "uint256",
          "name": "amount",
          "type": "uint256"
        }
      ],
      "name": "approve",
      "outputs": [
        {
          "internalType": "bool",
          "name": "",
          "type": "bool"
        }
      ],
      "stateMutability": "nonpayable",
      "type": "function"
    },
    {
      "inputs": [
        {
          "internalType": "address",
          "name": "account",
          "type": "address"
        }
      ],
      "name": "balanceOf",
      "outputs": [
        {
          "internalType": "uint256",
          "name": "",
          "type": "uint256"
        }
      ],
      "stateMutability": "view",
      "type": "function"
    },
    {
      "inputs": [
        {
          "internalType": "uint256",
          "name": "maxPrice_",
          "type": "uint256"
        }
      ],
      "name": "buy",
      "outputs": [],
      "stateMutability": "nonpayable",
      "type": "function"
    },
    {
      "inputs": [
        {
          "internalType": "uint256",
          "name": "_amountReserve",
          "type": "uint256"
        }
      ],
      "name": "calculateBuyReturn",
      "outputs": [
        {
          "internalType": "uint32",
          "name": "mintAmount",
          "type": "uint32"
        }
      ],
      "stateMutability": "view",
      "type": "function"
    },
    {
      "inputs": [
        {
          "internalType": "uint32",
          "name": "_amountProduct",
          "type": "uint32"
        }
      ],
      "name": "calculateSellReturn",
      "outputs": [
        {
          "internalType": "uint256",
          "name": "soldAmount",
          "type": "uint256"
        }
      ],
      "stateMutability": "view",
      "type": "function"
    },
    {
      "inputs": [
        {
          "internalType": "uint32",
          "name": "_amount",
          "type": "uint32"
        }
      ],
      "name": "calculateTradinReturn",
      "outputs": [
        {
          "internalType": "uint256",
          "name": "",
          "type": "uint256"
        }
      ],
      "stateMutability": "view",
      "type": "function"
    },
    {
      "inputs": [
        {
          "internalType": "uint256",
          "name": "amount_",
          "type": "uint256"
        }
      ],
      "name": "claimSupplier",
      "outputs": [],
      "stateMutability": "nonpayable",
      "type": "function"
    },
    {
      "inputs": [],
      "name": "decimals",
      "outputs": [
        {
          "internalType": "uint8",
          "name": "",
          "type": "uint8"
        }
      ],
      "stateMutability": "view",
      "type": "function"
    },
    {
      "inputs": [
        {
          "internalType": "address",
          "name": "spender",
          "type": "address"
        },
        {
          "internalType": "uint256",
          "name": "subtractedValue",
          "type": "uint256"
        }
      ],
      "name": "decreaseAllowance",
      "outputs": [
        {
          "internalType": "bool",
          "name": "",
          "type": "bool"
        }
      ],
      "stateMutability": "nonpayable",
      "type": "function"
    },
    {
      "inputs": [
        {
          "internalType": "address",
          "name": "",
          "type": "address"
        },
        {
          "internalType": "uint256",
          "name": "",
          "type": "uint256"
        }
      ],
      "name": "escrowList",
      "outputs": [
        {
          "internalType": "enum Escrow.escrowState",
          "name": "state",
          "type": "uint8"
        },
        {
          "internalType": "uint32",
          "name": "amount",
          "type": "uint32"
        },
        {
          "internalType": "uint256",
          "name": "value",
          "type": "uint256"
        }
      ],
      "stateMutability": "view",
      "type": "function"
    },
    {
      "inputs": [],
      "name": "getAvailability",
      "outputs": [
        {
          "internalType": "uint32",
          "name": "available",
          "type": "uint32"
        }
      ],
      "stateMutability": "view",
      "type": "function"
    },
    {
      "inputs": [],
      "name": "getCurrentPrice",
      "outputs": [
        {
          "internalType": "uint256",
          "name": "price",
          "type": "uint256"
        }
      ],
      "stateMutability": "view",
      "type": "function"
    },
    {
      "inputs": [
        {
          "internalType": "address",
          "name": "_buyer",
          "type": "address"
        }
      ],
      "name": "getEscrowHistory",
      "outputs": [
        {
          "components": [
            {
              "internalType": "enum Escrow.escrowState",
              "name": "state",
              "type": "uint8"
            },
            {
              "internalType": "uint32",
              "name": "amount",
              "type": "uint32"
            },
            {
              "internalType": "uint256",
              "name": "value",
              "type": "uint256"
            }
          ],
          "internalType": "struct Escrow.escrowInfo[]",
          "name": "",
          "type": "tuple[]"
        }
      ],
      "stateMutability": "view",
      "type": "function"
    },
    {
      "inputs": [],
      "name": "getManager",
      "outputs": [
        {
          "internalType": "address",
          "name": "",
          "type": "address"
        }
      ],
      "stateMutability": "view",
      "type": "function"
    },
    {
      "inputs": [],
      "name": "getNewAttribute",
      "outputs": [
        {
          "internalType": "uint256",
          "name": "",
          "type": "uint256"
        }
      ],
      "stateMutability": "view",
      "type": "function"
    },
    {
      "inputs": [],
      "name": "getPoolInfo",
      "outputs": [
        {
          "components": [
            {
              "internalType": "uint256",
              "name": "amount",
              "type": "uint256"
            },
            {
              "internalType": "uint256",
              "name": "accRewardPerShare",
              "type": "uint256"
            },
            {
              "internalType": "uint256",
              "name": "tokenReward",
              "type": "uint256"
            }
          ],
          "internalType": "struct ProductTokenV1.PoolInfo",
          "name": "",
          "type": "tuple"
        }
      ],
      "stateMutability": "view",
      "type": "function"
    },
    {
      "inputs": [
        {
          "internalType": "uint32",
          "name": "_amountProduct",
          "type": "uint32"
        }
      ],
      "name": "getPriceForN",
      "outputs": [
        {
          "internalType": "uint256",
          "name": "price",
          "type": "uint256"
        }
      ],
      "stateMutability": "view",
      "type": "function"
    },
    {
      "inputs": [
        {
          "internalType": "address",
          "name": "_buyer",
          "type": "address"
        },
        {
          "internalType": "uint256",
          "name": "_id",
          "type": "uint256"
        }
      ],
      "name": "getRedeemStatus",
      "outputs": [
        {
          "internalType": "enum Escrow.escrowState",
          "name": "",
          "type": "uint8"
        }
      ],
      "stateMutability": "view",
      "type": "function"
    },
    {
      "inputs": [],
      "name": "getSupplierBalance",
      "outputs": [
        {
          "internalType": "uint256",
          "name": "",
          "type": "uint256"
        }
      ],
      "stateMutability": "view",
      "type": "function"
    },
    {
      "inputs": [],
      "name": "getSupplierInfo",
      "outputs": [
        {
          "components": [
            {
              "internalType": "uint256",
              "name": "amount",
              "type": "uint256"
            },
            {
              "internalType": "address",
              "name": "wallet",
              "type": "address"
            }
          ],
          "internalType": "struct ProductTokenV1.supplierInfo",
          "name": "",
          "type": "tuple"
        }
      ],
      "stateMutability": "view",
      "type": "function"
    },
    {
      "inputs": [
        {
          "internalType": "address",
          "name": "addr_",
          "type": "address"
        }
      ],
      "name": "getUserInfo",
      "outputs": [
        {
          "components": [
            {
              "internalType": "uint256",
              "name": "amount",
              "type": "uint256"
            },
            {
              "internalType": "uint256",
              "name": "rewardDebt",
              "type": "uint256"
            },
            {
              "internalType": "uint256",
              "name": "lastReward",
              "type": "uint256"
            },
            {
              "internalType": "uint256[]",
              "name": "records",
              "type": "uint256[]"
            }
          ],
          "internalType": "struct ProductTokenV1.UserInfo",
          "name": "",
          "type": "tuple"
        }
      ],
      "stateMutability": "view",
      "type": "function"
    },
    {
      "inputs": [
        {
          "internalType": "address",
          "name": "addr_",
          "type": "address"
        }
      ],
      "name": "getUserReward",
      "outputs": [
        {
          "internalType": "uint256",
          "name": "",
          "type": "uint256"
        }
      ],
      "stateMutability": "view",
      "type": "function"
    },
    {
      "inputs": [
        {
          "internalType": "address",
          "name": "spender",
          "type": "address"
        },
        {
          "internalType": "uint256",
          "name": "addedValue",
          "type": "uint256"
        }
      ],
      "name": "increaseAllowance",
      "outputs": [
        {
          "internalType": "bool",
          "name": "",
          "type": "bool"
        }
      ],
      "stateMutability": "nonpayable",
      "type": "function"
    },
    {
      "inputs": [
        {
          "internalType": "string",
          "name": "_name",
          "type": "string"
        },
        {
          "internalType": "string",
          "name": "_symbol",
          "type": "string"
        },
        {
          "internalType": "address",
          "name": "_bondingCurveAddress",
          "type": "address"
        },
        {
          "internalType": "uint32",
          "name": "_reserveRatio",
          "type": "uint32"
        },
        {
          "internalType": "uint32",
          "name": "_maxTokenCount",
          "type": "uint32"
        },
        {
          "internalType": "uint32",
          "name": "_supplyOffset",
          "type": "uint32"
        },
        {
          "internalType": "uint256",
          "name": "_baseReserve",
          "type": "uint256"
        }
      ],
      "name": "initialize",
      "outputs": [],
      "stateMutability": "nonpayable",
      "type": "function"
    },
    {
      "inputs": [
        {
          "internalType": "string",
          "name": "_name",
          "type": "string"
        },
        {
          "internalType": "string",
          "name": "_symbol",
          "type": "string"
        },
        {
          "internalType": "uint32",
          "name": "_reserveRatio",
          "type": "uint32"
        },
        {
          "internalType": "uint32",
          "name": "_maxTokenCount",
          "type": "uint32"
        },
        {
          "internalType": "uint32",
          "name": "_supplyOffset",
          "type": "uint32"
        },
        {
          "internalType": "uint256",
          "name": "_baseReserve",
          "type": "uint256"
        },
        {
          "internalType": "uint256",
          "name": "_newInitValue",
          "type": "uint256"
        },
        {
          "internalType": "address",
          "name": "_daiAddress",
          "type": "address"
        },
        {
          "internalType": "address",
          "name": "_chainlink",
          "type": "address"
        }
      ],
      "name": "initializeV3",
      "outputs": [],
      "stateMutability": "nonpayable",
      "type": "function"
    },
    {
      "inputs": [
        {
          "internalType": "enum Escrow.escrowState",
          "name": "_state",
          "type": "uint8"
        }
      ],
      "name": "isStateCompleted",
      "outputs": [
        {
          "internalType": "bool",
          "name": "",
          "type": "bool"
        }
      ],
      "stateMutability": "pure",
      "type": "function"
    },
    {
      "inputs": [],
      "name": "launch",
      "outputs": [],
      "stateMutability": "nonpayable",
      "type": "function"
    },
    {
      "inputs": [],
      "name": "maxTokenCount",
      "outputs": [
        {
          "internalType": "uint32",
          "name": "",
          "type": "uint32"
        }
      ],
      "stateMutability": "view",
      "type": "function"
    },
    {
      "inputs": [],
      "name": "name",
      "outputs": [
        {
          "internalType": "string",
          "name": "",
          "type": "string"
        }
      ],
      "stateMutability": "view",
      "type": "function"
    },
    {
      "inputs": [],
      "name": "newAttribute",
      "outputs": [
        {
          "internalType": "uint256",
          "name": "",
          "type": "uint256"
        }
      ],
      "stateMutability": "view",
      "type": "function"
    },
    {
      "inputs": [],
      "name": "newInitValue",
      "outputs": [
        {
          "internalType": "uint256",
          "name": "",
          "type": "uint256"
        }
      ],
      "stateMutability": "view",
      "type": "function"
    },
    {
      "inputs": [],
      "name": "owner",
      "outputs": [
        {
          "internalType": "address",
          "name": "",
          "type": "address"
        }
      ],
      "stateMutability": "view",
      "type": "function"
    },
    {
      "inputs": [],
      "name": "pause",
      "outputs": [],
      "stateMutability": "nonpayable",
      "type": "function"
    },
    {
      "inputs": [],
      "name": "poolInfo",
      "outputs": [
        {
          "internalType": "uint256",
          "name": "amount",
          "type": "uint256"
        },
        {
          "internalType": "uint256",
          "name": "accRewardPerShare",
          "type": "uint256"
        },
        {
          "internalType": "uint256",
          "name": "tokenReward",
          "type": "uint256"
        }
      ],
      "stateMutability": "view",
      "type": "function"
    },
    {
      "inputs": [],
      "name": "renounceOwnership",
      "outputs": [],
      "stateMutability": "nonpayable",
      "type": "function"
    },
    {
      "inputs": [],
      "name": "reserveBalance",
      "outputs": [
        {
          "internalType": "uint256",
          "name": "",
          "type": "uint256"
        }
      ],
      "stateMutability": "view",
      "type": "function"
    },
    {
      "inputs": [],
      "name": "reserveRatio",
      "outputs": [
        {
          "internalType": "uint32",
          "name": "",
          "type": "uint32"
        }
      ],
      "stateMutability": "view",
      "type": "function"
    },
    {
      "inputs": [
        {
          "internalType": "uint32",
          "name": "amount_",
          "type": "uint32"
        }
      ],
      "name": "sell",
      "outputs": [],
      "stateMutability": "nonpayable",
      "type": "function"
    },
    {
      "inputs": [
        {
          "internalType": "address",
          "name": "_address",
          "type": "address"
        }
      ],
      "name": "setBondingCurve",
      "outputs": [],
      "stateMutability": "nonpayable",
      "type": "function"
    },
    {
      "inputs": [
        {
          "internalType": "address",
          "name": "highAddress_",
          "type": "address"
        }
      ],
      "name": "setHigh",
      "outputs": [],
      "stateMutability": "nonpayable",
      "type": "function"
    },
    {
      "inputs": [
        {
          "internalType": "address",
          "name": "addr_",
          "type": "address"
        }
      ],
      "name": "setManager",
      "outputs": [],
      "stateMutability": "nonpayable",
      "type": "function"
    },
    {
      "inputs": [],
      "name": "supplier",
      "outputs": [
        {
          "internalType": "uint256",
          "name": "amount",
          "type": "uint256"
        },
        {
          "internalType": "address",
          "name": "wallet",
          "type": "address"
        }
      ],
      "stateMutability": "view",
      "type": "function"
    },
    {
      "inputs": [],
      "name": "symbol",
      "outputs": [
        {
          "internalType": "string",
          "name": "",
          "type": "string"
        }
      ],
      "stateMutability": "view",
      "type": "function"
    },
    {
      "inputs": [],
      "name": "totalSupply",
      "outputs": [
        {
          "internalType": "uint256",
          "name": "",
          "type": "uint256"
        }
      ],
      "stateMutability": "view",
      "type": "function"
    },
    {
      "inputs": [
        {
          "internalType": "uint32",
          "name": "amount_",
          "type": "uint32"
        }
      ],
      "name": "tradein",
      "outputs": [],
      "stateMutability": "nonpayable",
      "type": "function"
    },
    {
      "inputs": [],
      "name": "tradeinCount",
      "outputs": [
        {
          "internalType": "uint32",
          "name": "",
          "type": "uint32"
        }
      ],
      "stateMutability": "view",
      "type": "function"
    },
    {
      "inputs": [],
      "name": "tradeinReserveBalance",
      "outputs": [
        {
          "internalType": "uint256",
          "name": "",
          "type": "uint256"
        }
      ],
      "stateMutability": "view",
      "type": "function"
    },
    {
      "inputs": [
        {
          "internalType": "address",
          "name": "recipient",
          "type": "address"
        },
        {
          "internalType": "uint256",
          "name": "amount",
          "type": "uint256"
        }
      ],
      "name": "transfer",
      "outputs": [
        {
          "internalType": "bool",
          "name": "",
          "type": "bool"
        }
      ],
      "stateMutability": "nonpayable",
      "type": "function"
    },
    {
      "inputs": [
        {
          "internalType": "address",
          "name": "sender",
          "type": "address"
        },
        {
          "internalType": "address",
          "name": "recipient",
          "type": "address"
        },
        {
          "internalType": "uint256",
          "name": "amount",
          "type": "uint256"
        }
      ],
      "name": "transferFrom",
      "outputs": [
        {
          "internalType": "bool",
          "name": "",
          "type": "bool"
        }
      ],
      "stateMutability": "nonpayable",
      "type": "function"
    },
    {
      "inputs": [
        {
          "internalType": "address",
          "name": "newOwner",
          "type": "address"
        }
      ],
      "name": "transferOwnership",
      "outputs": [],
      "stateMutability": "nonpayable",
      "type": "function"
    },
    {
      "inputs": [
        {
          "internalType": "uint256",
          "name": "fee_",
          "type": "uint256"
        }
      ],
      "name": "updatePool",
      "outputs": [],
      "stateMutability": "nonpayable",
      "type": "function"
    },
    {
      "inputs": [
        {
          "internalType": "address",
          "name": "wallet_",
          "type": "address"
        }
      ],
      "name": "updateSupplierInfo",
      "outputs": [],
      "stateMutability": "nonpayable",
      "type": "function"
    },
    {
      "inputs": [
        {
          "internalType": "address",
          "name": "buyer",
          "type": "address"
        },
        {
          "internalType": "uint256",
          "name": "id",
          "type": "uint256"
        }
      ],
      "name": "updateUserCompleted",
      "outputs": [],
      "stateMutability": "nonpayable",
      "type": "function"
    },
    {
      "inputs": [
        {
          "internalType": "address",
          "name": "buyer",
          "type": "address"
        },
        {
          "internalType": "uint256",
          "name": "id",
          "type": "uint256"
        }
      ],
      "name": "updateUserRefund",
      "outputs": [],
      "stateMutability": "nonpayable",
      "type": "function"
    },
    {
      "inputs": [
        {
          "internalType": "address",
          "name": "",
          "type": "address"
        }
      ],
      "name": "userInfo",
      "outputs": [
        {
          "internalType": "uint256",
          "name": "amount",
          "type": "uint256"
        },
        {
          "internalType": "uint256",
          "name": "rewardDebt",
          "type": "uint256"
        },
        {
          "internalType": "uint256",
          "name": "lastReward",
          "type": "uint256"
        }
      ],
      "stateMutability": "view",
      "type": "function"
    },
    {
      "inputs": [],
      "name": "voucher",
      "outputs": [
        {
          "internalType": "address",
          "name": "addr",
          "type": "address"
        },
        {
          "internalType": "contract IVNFT",
          "name": "instance",
          "type": "address"
        },
        {
          "internalType": "uint256",
          "name": "tokenId",
          "type": "uint256"
        },
        {
          "internalType": "bool",
          "name": "isEnable",
          "type": "bool"
        }
      ],
      "stateMutability": "view",
      "type": "function"
    },
    {
      "inputs": [
        {
          "internalType": "uint256",
          "name": "value_",
          "type": "uint256"
        }
      ],
      "name": "withdrawEther",
      "outputs": [],
      "stateMutability": "payable",
      "type": "function"
    },
    {
      "inputs": [
        {
          "internalType": "uint256",
          "name": "amount_",
          "type": "uint256"
        },
        {
          "internalType": "address",
          "name": "to_",
          "type": "address"
        }
      ],
      "name": "withdrawHigh",
      "outputs": [],
      "stateMutability": "nonpayable",
      "type": "function"
    },
    {
      "inputs": [
        {
          "internalType": "string",
          "name": "_name",
          "type": "string"
        },
        {
          "internalType": "string",
          "name": "_symbol",
          "type": "string"
        },
        {
          "internalType": "address",
          "name": "_bondingCurveAddress",
          "type": "address"
        },
        {
          "internalType": "uint32",
          "name": "_reserveRatio",
          "type": "uint32"
        },
        {
          "internalType": "uint32",
          "name": "_maxTokenCount",
          "type": "uint32"
        },
        {
          "internalType": "uint32",
          "name": "_supplyOffset",
          "type": "uint32"
        },
        {
          "internalType": "uint256",
          "name": "_baseReserve",
          "type": "uint256"
        },
        {
          "internalType": "uint256",
          "name": "_newInitValue",
          "type": "uint256"
        },
        {
          "internalType": "address",
          "name": "_daiAddress",
          "type": "address"
        },
        {
          "internalType": "address",
          "name": "_chainlink",
          "type": "address"
        }
      ],
      "name": "initializeV5",
      "outputs": [],
      "stateMutability": "nonpayable",
      "type": "function"
    },
    {
      "inputs": [],
      "name": "getNewInitValue",
      "outputs": [
        {
          "internalType": "uint256",
          "name": "",
          "type": "uint256"
        }
      ],
      "stateMutability": "view",
      "type": "function"
    }
  ],
  "bytecode": "0x608060405234801561001057600080fd5b506149df806100206000396000f3fe6080604052600436106103115760003560e060020a9004806374a7b0121161019b578063c4e627c2116100f1578063dd62ed3e11610094578063dd62ed3e14610aca578063deebbef114610b10578063e67dc51814610b30578063eb91d37e14610b46578063ebc9e4d614610b5b578063efea8a1314610b7b578063f2fde38b14610b9b578063f97511d314610bbb57610311565b8063c4e627c21461097b578063c757d4c7146109a0578063c75ebb82146109c0578063cdda418c146109e0578063d0ebdbe714610a3f578063d500958414610a5f578063d96a094a14610a7d578063dd304b1a14610a9d57610311565b806374a7b0121461076f5780637a53e040146107d1578063828f3a9c146107e65780638456cb59146108065780638da5cb5b1461081b57806395d89b411461083d578063964a6afe146108525780639b9ffbf314610867578063a10954fe14610896578063a457c2d7146108ac578063a8d92629146108cc578063a9059cbb146108ec578063af22803e1461090c578063b679ef3814610941578063ba7a93b61461095757610311565b80633bed33ce1161026b5780635e88752c1161020e5780635e88752c1461064957806360246c88146106695780636386c1c7146106a057806363c51fbb146106cd57806365d10897146106ed5780636e74607b1461070d57806370a082311461073a578063715018a61461075a57610311565b80633bed33ce1461056157806343ff1fb814610574578063483335a114610594578063491052cd146105aa5780634ffd23a7146105ca57806351eb05a6146105ea5780635a2f3d091461060a5780635c8ea0931461062957610311565b806301339c211461032057806306fdde0314610337578063095ea7b3146103625780630c7d5cd8146103925780630ccee99b146103c457806318160ddd146103e45780631959a0021461040357806319d5b5871461045a578063224e4f481461047a57806323b872dd1461049a5780632f0a3fe4146104ba578063313ce567146104cf57806335d43be4146104eb57806336da4468146105005780633950935114610541575b34801561031d57600080fd5b50005b34801561032c57600080fd5b50610335610bdb565b005b34801561034357600080fd5b5061034c610cc3565b60405161035991906144b7565b60405180910390f35b34801561036e57600080fd5b5061038261037d366004613fff565b610d55565b6040519015158152602001610359565b34801561039e57600080fd5b50609b546103af9063ffffffff1681565b60405163ffffffff9091168152602001610359565b3480156103d057600080fd5b506103356103df366004613fff565b610d6c565b3480156103f057600080fd5b506035545b604051908152602001610359565b34801561040f57600080fd5b5061043f61041e366004613f78565b60a76020526000908152604090208054600182015460029092015490919083565b60408051938452602084019290925290820152606001610359565b34801561046657600080fd5b506103f5610475366004614314565b610df3565b34801561048657600080fd5b506103f5610495366004614314565b610ef4565b3480156104a657600080fd5b506103826104b5366004613fc4565b610f19565b3480156104c657600080fd5b506103f5610fe2565b3480156104db57600080fd5b5060405160008152602001610359565b3480156104f757600080fd5b5060aa546103f5565b34801561050c57600080fd5b50609e54609f546105249190600160a060020a031682565b60408051928352600160a060020a03909116602083015201610359565b34801561054d57600080fd5b5061038261055c366004613fff565b610ff8565b61033561056f3660046142c2565b61102f565b34801561058057600080fd5b5061033561058f366004613f78565b6110df565b3480156105a057600080fd5b506103f560a95481565b3480156105b657600080fd5b506103826105c5366004614048565b61115c565b3480156105d657600080fd5b506103356105e5366004614314565b6111b6565b3480156105f657600080fd5b506103356106053660046142c2565b61133d565b34801561061657600080fd5b5060a05460a15460a25461043f92919083565b34801561063557600080fd5b506103356106443660046141f6565b611377565b34801561065557600080fd5b506103356106643660046142c2565b6113ef565b34801561067557600080fd5b5061067e611554565b6040805182518152602080840151908201529181015190820152606001610359565b3480156106ac57600080fd5b506106c06106bb366004613f78565b61159d565b6040516103599190614754565b3480156106d957600080fd5b506103356106e8366004614314565b61168a565b3480156106f957600080fd5b5061033561070836600461411c565b611839565b34801561071957600080fd5b5061072d610728366004613f78565b6118c1565b6040516103599190614436565b34801561074657600080fd5b506103f5610755366004613f78565b6119a7565b34801561076657600080fd5b506103356119c2565b34801561077b57600080fd5b5060408051808201825260008082526020918201528151808301909252609e548252609f54600160a060020a0316908201526040805182518152602092830151600160a060020a03169281019290925201610359565b3480156107dd57600080fd5b506103af611a2c565b3480156107f257600080fd5b506103af6108013660046142c2565b611a78565b34801561081257600080fd5b50610335611a8c565b34801561082757600080fd5b50610830611b5d565b6040516103599190614398565b34801561084957600080fd5b5061034c611b6c565b34801561085e57600080fd5b50609e546103f5565b34801561087357600080fd5b50610887610882366004613fff565b611b7b565b60405161035993929190614492565b3480156108a257600080fd5b506103f560995481565b3480156108b857600080fd5b506103826108c7366004613fff565b611bc6565b3480156108d857600080fd5b506103356108e7366004613f78565b611c67565b3480156108f857600080fd5b50610382610907366004613fff565b611ce4565b34801561091857600080fd5b5061092c610927366004614314565b611cf1565b60408051928352602083019190915201610359565b34801561094d57600080fd5b506103f560aa5481565b34801561096357600080fd5b50609b546103af90604060020a900463ffffffff1681565b34801561098757600080fd5b50609b546103af90640100000000900463ffffffff1681565b3480156109ac57600080fd5b506103356109bb366004613fff565b611db4565b3480156109cc57600080fd5b506103f56109db366004613f78565b611e9d565b3480156109ec57600080fd5b5060a35460a45460a55460a654610a1293600160a060020a039081169316919060ff1684565b60408051600160a060020a0395861681529490931660208501529183015215156060820152608001610359565b348015610a4b57600080fd5b50610335610a5a366004613f78565b611f11565b348015610a6b57600080fd5b50609c54600160a060020a0316610830565b348015610a8957600080fd5b50610335610a983660046142c2565b611f8e565b348015610aa957600080fd5b50610abd610ab8366004613fff565b612384565b6040516103599190614484565b348015610ad657600080fd5b506103f5610ae5366004613f92565b600160a060020a03918216600090815260346020908152604080832093909416825291909152205490565b348015610b1c57600080fd5b50610335610b2b366004613f78565b6123da565b348015610b3c57600080fd5b506103f5609a5481565b348015610b5257600080fd5b506103f5612487565b348015610b6757600080fd5b50610335610b763660046142f2565b612493565b348015610b8757600080fd5b50610335610b96366004614067565b61261a565b348015610ba757600080fd5b50610335610bb6366004613f78565b6126af565b348015610bc757600080fd5b506103f5610bd6366004614314565b6127aa565b33610be4611b5d565b600160a060020a031614610c165760405160e560020a62461bcd028152600401610c0d906146b1565b60405180910390fd5b60985460ff1615610c7d5760405160e560020a62461bcd02815260206004820152602560248201527f5468652070726f6475637420746f6b656e20697320616c7265616479206c6175604482015260da60020a641b98da1959026064820152608401610c0d565b6098805460ff191660019081179091556040519081527f65c5ccecef030677b73a1403e7e69ef84d05db9d1732959d543d32f4419909b8906020015b60405180910390a1565b606060368054610cd2906148a9565b80601f0160208091040260200160405190810160405280929190818152602001828054610cfe906148a9565b8015610d4b5780601f10610d2057610100808354040283529160200191610d4b565b820191906000526020600020905b815481529060010190602001808311610d2e57829003601f168201915b5050505050905090565b6000610d62338484612851565b5060015b92915050565b610d74611b5d565b600160a060020a031633600160a060020a03161480610d9d5750609c54600160a060020a031633145b610dbc5760405160e560020a62461bcd028152600401610c0d9061467a565b600160a060020a038216610de55760405160e560020a62461bcd028152600401610c0d90614541565b610def8282612982565b5050565b6000808263ffffffff1611610e1d5760405160e560020a62461bcd028152600401610c0d906145af565b609b54600090610e549063ffffffff606060020a8204811691610e4e9187811691604060020a9004811690612afb16565b90612afb565b609d54609a54609b5460405160e060020a631c949873028152939450600160a060020a0390921692631c94987392610e9b928692909163ffffffff169089906004016147c3565b60206040518083038186803b158015610eb357600080fd5b505afa158015610ec7573d6000803e3d6000fd5b505050506040513d601f19601f82011682018060405250810190610eeb91906142da565b9150505b919050565b6000806000610f0284612b0e565b9092509050610f118282612bc5565b949350505050565b6000610f26848484612bd1565b600160a060020a038416600090815260346020908152604080832033845290915290205482811015610fc35760405160e560020a62461bcd02815260206004820152602860248201527f45524332303a207472616e7366657220616d6f756e742065786365656473206160448201527f6c6c6f77616e63650000000000000000000000000000000000000000000000006064820152608401610c0d565b610fd78533610fd2868561486d565b612851565b506001949350505050565b600060a9546001610ff391906147eb565b905090565b336000818152603460209081526040808320600160a060020a03871684529091528120549091610d62918590610fd29086906147eb565b33611038611b5d565b600160a060020a0316146110615760405160e560020a62461bcd028152600401610c0d906146b1565b30316110b25760405160e560020a62461bcd02815260206004820152600f60248201527f6e6f20656e6f75676820657468657200000000000000000000000000000000006044820152606401610c0d565b604051339082156108fc029083906000818181858888f19350505050158015610def573d6000803e3d6000fd5b336110e8611b5d565b600160a060020a0316146111115760405160e560020a62461bcd028152600401610c0d906146b1565b600160a060020a03811661113a5760405160e560020a62461bcd028152600401610c0d9061450a565b609d8054600160a060020a031916600160a060020a0392909216919091179055565b600060038260038111156111835760e060020a634e487b7102600052602160045260246000fd5b1480610d66575060028260038111156111af5760e060020a634e487b7102600052602160045260246000fd5b1492915050565b60985460ff166111db5760405160e560020a62461bcd028152600401610c0d906146e6565b8063ffffffff166111eb336119a7565b1015806111fe575060008163ffffffff16115b61121d5760405160e560020a62461bcd028152600401610c0d906145af565b60008061122983612dbd565b9150915061123683612ed0565b60a85460405160e060020a63a9059cbb028152600091600160a060020a03169063a9059cbb9061126c90339087906004016143ac565b602060405180830381600087803b15801561128657600080fd5b505af115801561129a573d6000803e3d6000fd5b505050506040513d601f19601f820116820180604052508101906112be9190614028565b90506112e76112e26501d1a94a20006112dc8564e8d4a510006130e6565b906130f2565b6130fe565b806113375760405160e560020a62461bcd02815260206004820152601460248201527f73656c6c696e6720746f6b656e206661696c65640000000000000000000000006044820152606401610c0d565b50505050565b60a054806113505750600060a155611374565b61136f611366826112dc8564e8d4a510006130e6565b60a15490612afb565b60a155505b50565b600054610100900460ff1680611390575060005460ff16155b6113af5760405160e560020a62461bcd028152600401610c0d9061461d565b600054610100900460ff161580156113d1576000805461ffff19166101011790555b80156113e3576000805461ff00191690555b50505050505050505050565b609f54600160a060020a031661144a5760405160e560020a62461bcd02815260206004820152601160248201527f77616c6c657420697320696e76616c69640000000000000000000000000000006044820152606401610c0d565b609f54600160a060020a031633146114a75760405160e560020a62461bcd02815260206004820152601a60248201527f5468652061646472657373206973206e6f7420616c6c6f7765640000000000006044820152606401610c0d565b609e5481116113745760a85460405160e060020a63a9059cbb028152600091600160a060020a03169063a9059cbb906114e690339086906004016143ac565b602060405180830381600087803b15801561150057600080fd5b505af1158015611514573d6000803e3d6000fd5b505050506040513d601f19601f820116820180604052508101906115389190614028565b90508015610def57609e5461154d9083612bc5565b609e555050565b61157860405180606001604052806000815260200160008152602001600081525090565b506040805160608101825260a054815260a154602082015260a2549181019190915290565b6115c86040518060800160405280600081526020016000815260200160008152602001606081525090565b600160a060020a0382166115f15760405160e560020a62461bcd028152600401610c0d906145e6565b600160a060020a038216600090815260a76020908152604091829020825160808101845281548152600182015481840152600282015481850152600382018054855181860281018601909652808652919492936060860193929083018282801561167a57602002820191906000526020600020905b815481526020019060010190808311611666575b5050505050815250509050919050565b60985460ff166116af5760405160e560020a62461bcd028152600401610c0d906146e6565b60008163ffffffff16116116d85760405160e560020a62461bcd028152600401610c0d9061471d565b8063ffffffff166116e8336119a7565b10156117395760405160e560020a62461bcd02815260206004820152601c60248201527f496e73756666696369656e7420746f6b656e7320746f206275726e2e000000006044820152606401610c0d565b60008061174583612b0e565b91509150600061175484610df3565b90506117776112e282610e4e6512309ce540006112dc876509184e72a0006130e6565b6117818383612bc5565b925061178d8484613117565b5061179e338563ffffffff1661326b565b609b546117b9908590604060020a900463ffffffff16614803565b609b80546bffffffff00000000000000001916604060020a63ffffffff93841602179055609a546117ec918390612afb16565b609a556117f884612ed0565b60405163ffffffff8516815233907fe600c25f82e9bac8f9f1663725540d6cd442845726820fd5bee41b66c4bf59be9060200160405180910390a250505050565b600054610100900460ff1680611852575060005460ff16155b6118715760405160e560020a62461bcd028152600401610c0d9061461d565b600054610100900460ff16158015611893576000805461ffff19166101011790555b61189d8b8b6133b4565b60aa84905580156118b4576000805461ff00191690555b5050505050505050505050565b600160a060020a0381166000908152606560209081526040808320805482518185028101850190935280835260609492939192909184015b8282101561199c576000848152602090206040805160608101909152600284029091018054829060ff1660038111156119455760e060020a634e487b7102600052602160045260246000fd5b60038111156119675760e060020a634e487b7102600052602160045260246000fd5b81528154610100900463ffffffff166020808301919091526001928301546040909201919091529183529290920191016118f9565b505050509050919050565b600160a060020a031660009081526033602052604090205490565b336119cb611b5d565b600160a060020a0316146119f45760405160e560020a62461bcd028152600401610c0d906146b1565b606654604051600091600160a060020a03169060008051602061496a833981519152908390a360668054600160a060020a0319169055565b609b54600090604060020a900463ffffffff16611a4860355490565b609b54611a639190640100000000900463ffffffff16614884565b611a6d9190614884565b610ff3906064614803565b600080611a8483613436565b509392505050565b33611a95611b5d565b600160a060020a031614611abe5760405160e560020a62461bcd028152600401610c0d906146b1565b60985460ff16611b225760405160e560020a62461bcd02815260206004820152602360248201527f5468652070726f6475637420746f6b656e20697320616c726561647920706175604482015260ea60020a621cd959026064820152608401610c0d565b6098805460ff19169055604051600081527f65c5ccecef030677b73a1403e7e69ef84d05db9d1732959d543d32f4419909b890602001610cb9565b606654600160a060020a031690565b606060378054610cd2906148a9565b60656020528160005260406000208181548110611b9757600080fd5b60009182526020909120600290910201805460019091015460ff8216935061010090910463ffffffff16915083565b336000908152603460209081526040808320600160a060020a038616845290915281205482811015611c4e5760405160e560020a62461bcd02815260206004820152602560248201527f45524332303a2064656372656173656420616c6c6f77616e63652062656c6f77604482015260d860020a64207a65726f026064820152608401610c0d565b611c5d3385610fd2868561486d565b5060019392505050565b33611c70611b5d565b600160a060020a031614611c995760405160e560020a62461bcd028152600401610c0d906146b1565b600160a060020a038116611cc25760405160e560020a62461bcd028152600401610c0d9061450a565b60a88054600160a060020a031916600160a060020a0392909216919091179055565b6000610d62338484612bd1565b609d5460009081908190600160a060020a031663bff82d84611d1161353b565b609954609b5460405163ffffffff85811660e060020a028252611d3c94939216908a906004016147c3565b60206040518083038186803b158015611d5457600080fd5b505afa158015611d68573d6000803e3d6000fd5b505050506040513d601f19601f82011682018060405250810190611d8c91906142da565b90506000611da864e8d4a510006112dc846412a05f20006130e6565b91935090915050915091565b611dbc611b5d565b600160a060020a031633600160a060020a03161480611de55750609c54600160a060020a031633145b611e045760405160e560020a62461bcd028152600401610c0d9061467a565b600160a060020a038216611e2d5760405160e560020a62461bcd028152600401610c0d90614541565b6000611e398383613568565b905060008111611e8e5760405160e560020a62461bcd02815260206004820152600d60248201527f496e76616c69642076616c7565000000000000000000000000000000000000006044820152606401610c0d565b611e988382613719565b505050565b600160a060020a038116600090815260a7602052604081205415611f0957600160a060020a038216600090815260a760205260409020600181015460a154825460a092611f00929091611efa9164e8d4a51000916112dc916130e6565b90612bc5565b92505050610eef565b506000919050565b33611f1a611b5d565b600160a060020a031614611f435760405160e560020a62461bcd028152600401610c0d906146b1565b600160a060020a038116611f6c5760405160e560020a62461bcd028152600401610c0d906145e6565b609c8054600160a060020a031916600160a060020a0392909216919091179055565b60985460ff16611fb35760405160e560020a62461bcd028152600401610c0d906146e6565b600081116120065760405160e560020a62461bcd02815260206004820152601160248201527f696e76616c6964206d61782070726963650000000000000000000000000000006044820152606401610c0d565b60a85460405160e060020a6323b872dd02815233600482015230602482015260448101839052600091600160a060020a0316906323b872dd90606401602060405180830381600087803b15801561205c57600080fd5b505af1158015612070573d6000803e3d6000fd5b505050506040513d601f19601f820116820180604052508101906120949190614028565b9050806120e65760405160e560020a62461bcd02815260206004820152601060248201527f5075726368617365206661696c65642e000000000000000000000000000000006044820152606401610c0d565b6000806000806120f5866137f3565b93509350935063ffffffff16935060008411156122f357821561219b5760a85460405160e060020a63a9059cbb028152600160a060020a039091169063a9059cbb9061214790339087906004016143ac565b602060405180830381600087803b15801561216157600080fd5b505af1158015612175573d6000803e3d6000fd5b505050506040513d601f19601f820116820180604052508101906121999190614028565b505b6121b76112e2650746a52880006112dc8464e8d4a510006130e6565b60006121d3650746a52880006112dc84650574fbde60006130e6565b60a2549091506121e39082612afb565b60a2556121ef8161133d565b33600090815260a760205260408120600181015460a1548254929360a0939092612229929091611efa9164e8d4a51000916112dc916130e6565b905080156122d1576002830181905560a85460405160e060020a63a9059cbb028152600160a060020a039091169063a9059cbb9061226d90339085906004016143ac565b602060405180830381600087803b15801561228757600080fd5b505af115801561229b573d6000803e3d6000fd5b505050506040513d601f19601f820116820180604052508101906122bf9190614028565b5060a2546122cd9082612bc5565b60a2555b60a0546122de9087612afb565b60a0556122ea86613958565b5050505061237c565b60a85460405160e060020a63a9059cbb028152600160a060020a039091169063a9059cbb906123289033908a906004016143ac565b602060405180830381600087803b15801561234257600080fd5b505af1158015612356573d6000803e3d6000fd5b505050506040513d601f19601f8201168201806040525081019061237a9190614028565b505b505050505050565b600160a060020a03821660009081526065602052604081208054839081106123bf5760e060020a634e487b7102600052603260045260246000fd5b600091825260209091206002909102015460ff169392505050565b336123e3611b5d565b600160a060020a03161461240c5760405160e560020a62461bcd028152600401610c0d906146b1565b600160a060020a0381166124655760405160e560020a62461bcd02815260206004820152601260248201527f4164647265737320697320696e76616c696400000000000000000000000000006044820152606401610c0d565b609f8054600160a060020a031916600160a060020a0392909216919091179055565b6000610ff360016127aa565b3361249c611b5d565b600160a060020a0316146124c55760405160e560020a62461bcd028152600401610c0d906146b1565b600160a060020a0381166124ee5760405160e560020a62461bcd028152600401610c0d906145e6565b60a85460405160e060020a6370a08231028152600160a060020a03909116906370a0823190612521903090600401614398565b60206040518083038186803b15801561253957600080fd5b505afa15801561254d573d6000803e3d6000fd5b505050506040513d601f19601f8201168201806040525081019061257191906142da565b8211156125935760405160e560020a62461bcd028152600401610c0d906145af565b60a85460405160e060020a63a9059cbb028152600160a060020a039091169063a9059cbb906125c890849086906004016143ac565b602060405180830381600087803b1580156125e257600080fd5b505af11580156125f6573d6000803e3d6000fd5b505050506040513d601f19601f82011682018060405250810190611e989190614028565b600054610100900460ff1680612633575060005460ff16155b6126525760405160e560020a62461bcd028152600401610c0d9061461d565b600054610100900460ff16158015612674576000805461ffff19166101011790555b61267c6139b1565b61268688886133b4565b6126938686868686613a2f565b80156126a5576000805461ff00191690555b5050505050505050565b336126b8611b5d565b600160a060020a0316146126e15760405160e560020a62461bcd028152600401610c0d906146b1565b600160a060020a0381166127605760405160e560020a62461bcd02815260206004820152602660248201527f4f776e61626c653a206e6577206f776e657220697320746865207a65726f206160448201527f64647265737300000000000000000000000000000000000000000000000000006064820152608401610c0d565b606654604051600160a060020a0380841692169060008051602061496a83398151915290600090a360668054600160a060020a031916600160a060020a0392909216919091179055565b609d54600090600160a060020a031663bff82d846127c661353b565b609954609b546127de9063ffffffff1661c350614803565b866040518563ffffffff1660e060020a02815260040161280194939291906147c3565b60206040518083038186803b15801561281957600080fd5b505afa15801561282d573d6000803e3d6000fd5b505050506040513d601f19601f82011682018060405250810190610d6691906142da565b600160a060020a0383166128b95760405160e560020a62461bcd028152602060048201526024808201527f45524332303a20617070726f76652066726f6d20746865207a65726f20616464604482015260e060020a6372657373026064820152608401610c0d565b600160a060020a0382166129205760405160e560020a62461bcd02815260206004820152602260248201527f45524332303a20617070726f766520746f20746865207a65726f206164647265604482015260f060020a617373026064820152608401610c0d565b600160a060020a0383811660008181526034602090815260408083209487168084529482529182902085905590518481527f8c5be1e5ebec7d5bd14f71427d1e84f3dd0314c0f7b2291e5b200ac8c7c3b92591015b60405180910390a3505050565b600160a060020a038216600090815260656020526040902080546129db9190839081106129c25760e060020a634e487b7102600052603260045260246000fd5b600091825260209091206002909102015460ff1661115c565b156129fb5760405160e560020a62461bcd028152600401610c0d90614578565b600160a060020a038216600090815260656020526040902080546003919083908110612a3a5760e060020a634e487b7102600052603260045260246000fd5b60009182526020909120600290910201805460ff19166001836003811115612a755760e060020a634e487b7102600052602160045260246000fd5b021790555060008051602061494a83398151915282826065600086600160a060020a0316600160a060020a031681526020019081526020016000208481548110612ad25760e060020a634e487b7102600052603260045260246000fd5b9060005260206000209060020201604051612aef939291906143e9565b60405180910390a15050565b6000612b0782846147eb565b9392505050565b609d5460009081908190600160a060020a0316631c949873612b2e61353b565b609954609b5460405163ffffffff85811660e060020a028252612b5994939216908a906004016147c3565b60206040518083038186803b158015612b7157600080fd5b505afa158015612b85573d6000803e3d6000fd5b505050506040513d601f19601f82011682018060405250810190612ba991906142da565b90506000611da864e8d4a510006112dc846404a817c8006130e6565b6000612b07828461486d565b600160a060020a038316612c3b5760405160e560020a62461bcd02815260206004820152602560248201527f45524332303a207472616e736665722066726f6d20746865207a65726f206164604482015260d860020a646472657373026064820152608401610c0d565b600160a060020a038216612ca35760405160e560020a62461bcd02815260206004820152602360248201527f45524332303a207472616e7366657220746f20746865207a65726f2061646472604482015260e860020a62657373026064820152608401610c0d565b600160a060020a03831660009081526033602052604090205481811015612d355760405160e560020a62461bcd02815260206004820152602660248201527f45524332303a207472616e7366657220616d6f756e742065786365656473206260448201527f616c616e636500000000000000000000000000000000000000000000000000006064820152608401610c0d565b612d3f828261486d565b600160a060020a038086166000908152603360205260408082209390935590851681529081208054849290612d759084906147eb565b9250508190555082600160a060020a031684600160a060020a031660008051602061498a83398151915284604051612daf91815260200190565b60405180910390a350505050565b60008060008363ffffffff1611612de95760405160e560020a62461bcd028152600401610c0d9061471d565b8263ffffffff16612df9336119a7565b1015612e4a5760405160e560020a62461bcd02815260206004820152601c60248201527f496e73756666696369656e7420746f6b656e7320746f2073656c6c2e000000006044820152606401610c0d565b600080612e5685612b0e565b6099549193509150612e689083612bc5565b609955612e7b3363ffffffff871661326b565b6040805163ffffffff871681526020810184905233917f84c8d08e5480cf09cbf77bc575dc4e63845522693c34094f04129a4dedb7abd7910160405180910390a2612ec68282612bc5565b9350915050915091565b33600090815260a76020526040902054156113745733600081815260a76020526040902060038101549091612f04906119a7565b11610def57600381015463ffffffff831690811115612f24575060038101545b6000805b82811015612fd057600384018054612f819190612f46906001612bc5565b81548110612f675760e060020a634e487b7102600052603260045260246000fd5b906000526020600020015483612afb90919063ffffffff16565b915083600301805480612fa75760e060020a634e487b7102600052603160045260246000fd5b600190038181906000526020600020016000905590558080612fc8906148e8565b915050612f28565b50600183015460a154845460a092600092612ff992611efa9164e8d4a51000916112dc916130e6565b60a0549091506130099084612bc5565b60a05580156130b2576002850181905560a85460405160e060020a63a9059cbb028152600160a060020a039091169063a9059cbb9061304e90339085906004016143ac565b602060405180830381600087803b15801561306857600080fd5b505af115801561307c573d6000803e3d6000fd5b505050506040513d601f19601f820116820180604052508101906130a09190614028565b5060a2546130ae9082612bc5565b60a2555b84546130be9084612bc5565b80865560a1546130d99164e8d4a51000916112dc91906130e6565b6001860155505050505050565b6000612b07828461484e565b6000612b07828461482b565b801561137457609e546131119082612afb565b609e5550565b6000808363ffffffff16116131715760405160e560020a62461bcd02815260206004820152600e60248201527f496e76616c696420416d6f756e740000000000000000000000000000000000006044820152606401610c0d565b60408051606081018252600180825263ffffffff861660208084019190915282840186905233600090815260658252938420805480840182559085529320825160029094020180549293849391929091839160ff19909116908360038111156131ed5760e060020a634e487b7102600052602160045260246000fd5b0217905550602082810151825463ffffffff9091166101000264ffffffff0019909116178255604092830151600192830155336000908152606590915291822054613238919061486d565b905060008051602061494a83398151915233828460405161325b939291906143c5565b60405180910390a1949350505050565b600160a060020a0382166132d15760405160e560020a62461bcd02815260206004820152602160248201527f45524332303a206275726e2066726f6d20746865207a65726f20616464726573604482015260f860020a6073026064820152608401610c0d565b600160a060020a0382166000908152603360205260409020548181101561334b5760405160e560020a62461bcd02815260206004820152602260248201527f45524332303a206275726e20616d6f756e7420657863656564732062616c616e604482015260f060020a616365026064820152608401610c0d565b613355828261486d565b600160a060020a0384166000908152603360205260408120919091556035805484929061338390849061486d565b9091555050604051828152600090600160a060020a0385169060008051602061498a83398151915290602001612975565b600054610100900460ff16806133cd575060005460ff16155b6133ec5760405160e560020a62461bcd028152600401610c0d9061461d565b600054610100900460ff1615801561340e576000805461ffff19166101011790555b613416613bc2565b6134208383613c2f565b8015611e98576000805461ff0019169055505050565b6000808061345264fb750430006112dc8664e8d4a510006130e6565b9050600061346e64e8d4a510006112dc84640df84758006130e6565b609d54909150600090600160a060020a0316639f4ae6b061348d61353b565b609954609b5463ffffffff908116906134aa9089908990612bc516565b60405163ffffffff86811660e060020a0282529485166004820152602481019390935292166044820152606481019190915260840160206040518083038186803b1580156134f757600080fd5b505afa15801561350b573d6000803e3d6000fd5b505050506040513d601f19601f8201168201806040525081019061352f9190614330565b94509092505050915091565b609b54600090610ff39063ffffffff606060020a8204811691610e4e91604060020a909104168160355490565b600160a060020a038216600090815260656020526040812080546135a89190849081106129c25760e060020a634e487b7102600052603260045260246000fd5b156135c85760405160e560020a62461bcd028152600401610c0d90614578565b600160a060020a0383166000908152606560205260409020805460029190849081106136075760e060020a634e487b7102600052603260045260246000fd5b60009182526020909120600290910201805460ff191660018360038111156136425760e060020a634e487b7102600052602160045260246000fd5b021790555060008051602061494a83398151915283836065600087600160a060020a0316600160a060020a03168152602001908152602001600020858154811061369f5760e060020a634e487b7102600052603260045260246000fd5b90600052602060002090600202016040516136bc939291906143e9565b60405180910390a1600160a060020a03831660009081526065602052604090208054839081106136ff5760e060020a634e487b7102600052603260045260246000fd5b906000526020600020906002020160010154905092915050565b60a85460405160e060020a63a9059cbb028152600091600160a060020a03169063a9059cbb9061374f90869086906004016143ac565b602060405180830381600087803b15801561376957600080fd5b505af115801561377d573d6000803e3d6000fd5b505050506040513d601f19601f820116820180604052508101906137a19190614028565b905080611e985760405160e560020a62461bcd02815260206004820152601360248201527f726566756e6420746f6b656e206661696c6564000000000000000000000000006044820152606401610c0d565b6000806000806000613803611a2c565b63ffffffff16116138595760405160e560020a62461bcd02815260206004820152601e60248201527f536f7272792c207468697320746f6b656e20697320736f6c64206f75742e00006044820152606401610c0d565b600085116138ac5760405160e560020a62461bcd02815260206004820152601960248201527f4465706f736974206d757374206265206e6f6e2d7a65726f2e000000000000006044820152606401610c0d565b6000806138b96001611cf1565b91509150868211156138da5760008760008095509550955095505050613951565b6138e5336001613cc7565b6138fb6138f28383612bc5565b60995490612afb565b60995560408051600181526020810184905233917f5b55159a377d86da80a65140d62d994ddbb2cbd4bb2d1b59cb0827fecbe47cab910160405180910390a260016139468884612bc5565b909650945090925090505b9193509193565b33600090815260a76020526040902080546139739083612afb565b8155600381018054600181018255600091825260209091200182905560a15481546139a89164e8d4a51000916112dc916130e6565b60019091015550565b600054610100900460ff16806139ca575060005460ff16155b6139e95760405160e560020a62461bcd028152600401610c0d9061461d565b600054610100900460ff16158015613a0b576000805461ffff19166101011790555b613a13613bc2565b613a1b613d97565b8015611374576000805461ff001916905550565b600054610100900460ff1680613a48575060005460ff16155b613a675760405160e560020a62461bcd028152600401610c0d9061461d565b600054610100900460ff16158015613a89576000805461ffff19166101011790555b60008463ffffffff1611613ae25760405160e560020a62461bcd02815260206004820152601860248201527f496e76616c6964206d617820746f6b656e20636f756e742e00000000000000006044820152606401610c0d565b60008563ffffffff1611613b3b5760405160e560020a62461bcd02815260206004820152601560248201527f496e76616c6964207265736572766520726174696f00000000000000000000006044820152606401610c0d565b609d8054600160a060020a038816600160a060020a03199091161790556099829055609a829055609b805463ffffffff8681166401000000000267ffffffffffffffff19828816606060020a02166fffffffff00000000ffffffffffffffff199093169290921790881617179055801561237c576000805461ff0019169055505050505050565b600054610100900460ff1680613bdb575060005460ff16155b613bfa5760405160e560020a62461bcd028152600401610c0d9061461d565b600054610100900460ff16158015613a1b576000805461ffff19166101011790558015611374576000805461ff001916905550565b600054610100900460ff1680613c48575060005460ff16155b613c675760405160e560020a62461bcd028152600401610c0d9061461d565b600054610100900460ff16158015613c89576000805461ffff19166101011790555b8251613c9c906036906020860190613e36565b508151613cb0906037906020850190613e36565b508015611e98576000805461ff0019169055505050565b600160a060020a038216613d205760405160e560020a62461bcd02815260206004820152601f60248201527f45524332303a206d696e7420746f20746865207a65726f2061646472657373006044820152606401610c0d565b8060356000828254613d3291906147eb565b9091555050600160a060020a03821660009081526033602052604081208054839290613d5f9084906147eb565b9091555050604051818152600160a060020a0383169060009060008051602061498a8339815191529060200160405180910390a35050565b600054610100900460ff1680613db0575060005460ff16155b613dcf5760405160e560020a62461bcd028152600401610c0d9061461d565b600054610100900460ff16158015613df1576000805461ffff19166101011790555b60668054600160a060020a03191633908117909155604051819060009060008051602061496a833981519152908290a3508015611374576000805461ff001916905550565b828054613e42906148a9565b90600052602060002090601f016020900481019282613e645760008555613eaa565b82601f10613e7d57805160ff1916838001178555613eaa565b82800160010185558215613eaa579182015b82811115613eaa578251825591602001919060010190613e8f565b50613eb6929150613eba565b5090565b5b80821115613eb65760008155600101613ebb565b8035600160a060020a0381168114610eef57600080fd5b600082601f830112613ef6578081fd5b813567ffffffffffffffff80821115613f1157613f1161491d565b604051601f8301601f19908116603f01168101908282118183101715613f3957613f3961491d565b81604052838152866020858801011115613f51578485fd5b8360208701602083013792830160200193909352509392505050565b8035610eef81614937565b600060208284031215613f89578081fd5b612b0782613ecf565b60008060408385031215613fa4578081fd5b613fad83613ecf565b9150613fbb60208401613ecf565b90509250929050565b600080600060608486031215613fd8578081fd5b613fe184613ecf565b9250613fef60208501613ecf565b9150604084013590509250925092565b60008060408385031215614011578182fd5b61401a83613ecf565b946020939093013593505050565b600060208284031215614039578081fd5b81518015158114612b07578182fd5b600060208284031215614059578081fd5b813560048110612b07578182fd5b600080600080600080600060e0888a031215614081578283fd5b873567ffffffffffffffff80821115614098578485fd5b6140a48b838c01613ee6565b985060208a01359150808211156140b9578485fd5b506140c68a828b01613ee6565b9650506140d560408901613ecf565b945060608801356140e581614937565b935060808801356140f581614937565b925060a088013561410581614937565b8092505060c0880135905092959891949750929550565b6000806000806000806000806000806101408b8d03121561413b578283fd5b8a3567ffffffffffffffff80821115614152578485fd5b61415e8e838f01613ee6565b9b5060208d0135915080821115614173578485fd5b506141808d828e01613ee6565b99505061418f60408c01613ecf565b975061419d60608c01613f6d565b96506141ab60808c01613f6d565b95506141b960a08c01613f6d565b945060c08b0135935060e08b013592506141d66101008c01613ecf565b91506141e56101208c01613ecf565b90509295989b9194979a5092959850565b60008060008060008060008060006101208a8c031215614214578485fd5b893567ffffffffffffffff8082111561422b578687fd5b6142378d838e01613ee6565b9a5060208c013591508082111561424c578687fd5b506142598c828d01613ee6565b98505060408a013561426a81614937565b965060608a013561427a81614937565b955061428860808b01613f6d565b945060a08a0135935060c08a013592506142a460e08b01613ecf565b91506142b36101008b01613ecf565b90509295985092959850929598565b6000602082840312156142d3578081fd5b5035919050565b6000602082840312156142eb578081fd5b5051919050565b60008060408385031215614304578182fd5b82359150613fbb60208401613ecf565b600060208284031215614325578081fd5b8135612b0781614937565b600060208284031215614341578081fd5b8151612b0781614937565b6004811061436e5760e060020a634e487b710260009081526021600452602490fd5b9052565b61437d82825161434c565b60208181015163ffffffff1690830152604090810151910152565b600160a060020a0391909116815260200190565b600160a060020a03929092168252602082015260400190565b600160a060020a03841681526020810183905260a08101610f116040830184614372565b600160a060020a038416815260208101839052815460a08201906144136040840160ff831661434c565b63ffffffff61010082041660608401525060018301546080830152949350505050565b6020808252825182820181905260009190848201906040850190845b8181101561447857614465838551614372565b9284019260609290920191600101614452565b50909695505050505050565b60208101610d66828461434c565b606081016144a0828661434c565b63ffffffff93909316602082015260400152919050565b6000602080835283518082850152825b818110156144e3578581018301518582016040015282016144c7565b818111156144f45783604083870101525b50601f01601f1916929092016040019392505050565b6020808252600f908201527f496e76616c696420616464726573730000000000000000000000000000000000604082015260600190565b6020808252600d908201527f496e76616c696420627579657200000000000000000000000000000000000000604082015260600190565b60208082526011908201527f616c726561647920636f6d706c65746564000000000000000000000000000000604082015260600190565b6020808252600e908201527f696e76616c696420616d6f756e74000000000000000000000000000000000000604082015260600190565b6020808252600f908201527f696e76616c696420616464726573730000000000000000000000000000000000604082015260600190565b6020808252602e908201527f496e697469616c697a61626c653a20636f6e747261637420697320616c72656160408201527f647920696e697469616c697a6564000000000000000000000000000000000000606082015260800190565b60208082526011908201527f7065726d697373696f6e2064656e696564000000000000000000000000000000604082015260600190565b6020808252818101527f4f776e61626c653a2063616c6c6572206973206e6f7420746865206f776e6572604082015260600190565b60208082526013908201527f756e61626c6520746f207472616465206e6f7700000000000000000000000000604082015260600190565b60208082526018908201527f416d6f756e74206d757374206265206e6f6e2d7a65726f2e0000000000000000604082015260600190565b6000602080835260a0830184518285015281850151604085015260408501516060850152606085015160808086015281815180845260c08701915084830193508592505b808310156147b85783518252928401926001929092019190840190614798565b509695505050505050565b63ffffffff948516815260208101939093529083166040830152909116606082015260800190565b600082198211156147fe576147fe614903565b500190565b600063ffffffff80831681851680830382111561482257614822614903565b01949350505050565b6000826148495760e060020a634e487b710281526012600452602481fd5b500490565b600081600019048311821515161561486857614868614903565b500290565b60008282101561487f5761487f614903565b500390565b600063ffffffff838116908316818110156148a1576148a1614903565b039392505050565b6002810460018216806148bd57607f821691505b602082108114156148e25760e060020a634e487b710260009081526022600452602490fd5b50919050565b60006000198214156148fc576148fc614903565b5060010190565b60e060020a634e487b710260009081526011600452602490fd5b60e060020a634e487b710260009081526041600452602490fd5b63ffffffff8116811461137457600080fdfe09c64bee251b684a6bb80ce179dd520c001481b7c3d7781f1502e3052af474cf8be0079c531659141344cd1fd0a4f28419497f9722a3daafe3b4186f6b6457e0ddf252ad1be2c89b69c2b068fc378daa952ba7f163c4a11628f55a4df523b3efa2646970667358221220bd2993893aaaf673cba04777af290b7f19ce3e31be9933f6ffea91390a2054aa64736f6c63430008030033",
  "immutableReferences": {},
  "source": "pragma solidity ^0.8.2;\n\nimport \"@openzeppelin/contracts-upgradeable/token/ERC20/ERC20Upgradeable.sol\";\nimport \"@openzeppelin/contracts-upgradeable/utils/math/SafeMathUpgradeable.sol\";\n\nimport \"../ProductToken.sol\";\nimport \"../ProductTokenV1.sol\";\nimport \"../Power.sol\";\n\n\ncontract ProductTokenV2 is ProductTokenV1 {\n  uint256 public newAttribute;\n\n  function getNewAttribute()\n  public view returns (uint256)\n  {\n    return newAttribute + 1;\n  }\n\n  function getPriceForN(uint32 _amountProduct) \n  \tpublic view override returns(uint256 price)\n  {\n  \treturn bondingCurve.calculatePriceForNTokens(_getTotalSupply(), reserveBalance, reserveRatio+50000, _amountProduct);\n  }\n\n    function getAvailability()\n     public view override returns (uint32 available)\n  {\n    return maxTokenCount - uint32(totalSupply()) - tradeinCount+100;   \n  }\n\n} \n\ncontract ProductTokenV3 is ProductTokenV2 {\n    using SafeMathUpgradeable for uint256;\n    uint32 private constant MAX_RESERVE_RATIO = 2000000;\n\n    function initializeV3(string memory _name, string memory _symbol, uint32 _reserveRatio, uint32 _maxTokenCount, uint32 _supplyOffset, uint256 _baseReserve, uint256 _newInitValue, address _daiAddress, address _chainlink) public  initializer {\n    }\n}\n\ncontract ProductTokenDestroy {\n\n}\n\ncontract ProductTokenV4 is ProductTokenV2 {\n\n}\n\ncontract ProductTokenV5 is ProductTokenV3 {\n  uint256  public newInitValue;\n/**\n   * @dev Constructor\n   *\n   * @param _reserveRatio             the reserve ratio in the curve function\n   * @param _maxTokenCount\t\t\t\t\t\tthe amount of token that will exist for this type.\n   * @param _supplyOffset             a initial amount of offset that drive the price to a starting price\n   * @param _baseReserve              the reserve balance when supply is 0. This is calculated based on the balance function, and evaluated at s = _supplyOffset\n  */\n  function initializeV5(string memory _name, string memory _symbol, address _bondingCurveAddress, uint32 _reserveRatio, uint32 _maxTokenCount, uint32 _supplyOffset, uint256 _baseReserve, uint256 _newInitValue, address _daiAddress, address _chainlink) public  initializer {\t\t\n    __ERC20_init(_name, _symbol);\n    // ProductToken.__ProductToken_init_unchained(_bondingCurveAddress, _reserveRatio, _maxTokenCount, _supplyOffset, _baseReserve);\n    // ProductTokenV1.__ProductToken_init_unchained(_daiAddress, _chainlink);\n    newInitValue= _newInitValue;\n  }\n  function getNewInitValue() public view returns(uint256){\n    return newInitValue;\n  }\n}\n",
  "sourcePath": "/Users/jack/Documents/GitHub/HighStreet/client/src/contracts/Mock/ProductTokenV2.sol",
  "compiler": {
    "name": "solc",
    "version": "0.8.3+commit.8d00100c.Emscripten.clang"
  },
  "schemaVersion": "3.4.0",
  "updatedAt": "2021-09-25T11:30:46.714Z",
  "devdoc": {
    "kind": "dev",
    "methods": {
      "allowance(address,address)": {
        "details": "See {IERC20-allowance}."
      },
      "approve(address,uint256)": {
        "details": "See {IERC20-approve}. Requirements: - `spender` cannot be the zero address."
      },
      "balanceOf(address)": {
        "details": "See {IERC20-balanceOf}."
      },
      "calculateBuyReturn(uint256)": {
        "details": "Function that computes number of product tokens one can buy given an amount in reserve token.",
        "params": {
          "_amountReserve": "purchaing amount in reserve token (dai)(with 4% platform fee)"
        },
        "returns": {
          "mintAmount": "             number of tokens in traded token that can be purchased by given amount."
        }
      },
      "calculateSellReturn(uint32)": {
        "details": "Function that computes selling price in reserve tokens given an amount in traded token.",
        "params": {
          "_amountProduct": "selling amount in product token"
        },
        "returns": {
          "soldAmount": "             total amount that will be transferred to the seller (with 2% platform fee)."
        }
      },
      "decimals()": {
        "details": "Returns the number of decimals used to get its user representation. For example, if `decimals` equals `2`, a balance of `505` tokens should be displayed to a user as `5,05` (`505 / 10 ** 2`). Tokens usually opt for a value of 18, imitating the relationship between Ether and Wei. This is the value {ERC20} uses, unless this function is overloaded; NOTE: This information is only used for _display_ purposes: it in no way affects any of the arithmetic of the contract, including {IERC20-balanceOf} and {IERC20-transfer}."
      },
      "decreaseAllowance(address,uint256)": {
        "details": "Atomically decreases the allowance granted to `spender` by the caller. This is an alternative to {approve} that can be used as a mitigation for problems described in {IERC20-approve}. Emits an {Approval} event indicating the updated allowance. Requirements: - `spender` cannot be the zero address. - `spender` must have allowance for the caller of at least `subtractedValue`."
      },
      "getAvailability()": {
        "details": "Function to check how many tokens of this product are currently available for purchase, by taking the difference between max cap count and current token in circulation or burned.",
        "returns": {
          "available": "               the number of tokens available"
        }
      },
      "getCurrentPrice()": {
        "details": "Function that computes current price for a token through bonding curve calculation based on parameters such as total supply, reserve balance, and reserve ratio.",
        "returns": {
          "price": "                  current price in reserve token (in our case, this is dai). (with 4% platform fee)"
        }
      },
      "getEscrowHistory(address)": {
        "details": "Return the list of all escrows created for a certain user",
        "params": {
          "_buyer": "The address of the buyer"
        },
        "returns": {
          "_0": "A list of past escrows"
        }
      },
      "getPriceForN(uint32)": {
        "details": "Function that computes price total for buying n token through bonding curve calculation based on parameters such as total supply, reserve balance, and reserve ratio.",
        "params": {
          "_amountProduct": "token amount in traded token"
        },
        "returns": {
          "price": "                  total price in reserve token (in our case, this is dai). (with 4% platform fee)"
        }
      },
      "getRedeemStatus(address,uint256)": {
        "details": "Get status of a particular redemption process",
        "params": {
          "_buyer": "The address of the buyer",
          "_id": "The cached id of the escrow, retrieved from database"
        },
        "returns": {
          "_0": "The current status"
        }
      },
      "getSupplierBalance()": {
        "details": "this function returns the amount of reserve balance that the supplier can withdraw from the dapp."
      },
      "increaseAllowance(address,uint256)": {
        "details": "Atomically increases the allowance granted to `spender` by the caller. This is an alternative to {approve} that can be used as a mitigation for problems described in {IERC20-approve}. Emits an {Approval} event indicating the updated allowance. Requirements: - `spender` cannot be the zero address."
      },
      "initialize(string,string,address,uint32,uint32,uint32,uint256)": {
        "details": "initializer function.",
        "params": {
          "_baseReserve": "the base amount of reserve tokens, in accordance to _supplyOffset.",
          "_maxTokenCount": "the amount of token that will exist for this type.",
          "_name": "the name of this token",
          "_reserveRatio": "the reserve ratio in the curve function. Number in parts per million",
          "_supplyOffset": "this amount is used to determine initial price.",
          "_symbol": "the symbol of this token"
        }
      },
      "initializeV5(string,string,address,uint32,uint32,uint32,uint256,uint256,address,address)": {
        "details": "Constructor",
        "params": {
          "_baseReserve": "the reserve balance when supply is 0. This is calculated based on the balance function, and evaluated at s = _supplyOffset",
          "_maxTokenCount": "the amount of token that will exist for this type.",
          "_reserveRatio": "the reserve ratio in the curve function",
          "_supplyOffset": "a initial amount of offset that drive the price to a starting price"
        }
      },
      "isStateCompleted(uint8)": {
        "details": "Helper function to check whether a escrow state is completed",
        "params": {
          "_state": "The state to be checked"
        }
      },
      "launch()": {
        "details": "requires function to be called from owner. this enables customers to buy, sell, or redeem the product."
      },
      "name()": {
        "details": "Returns the name of the token."
      },
      "owner()": {
        "details": "Returns the address of the current owner."
      },
      "pause()": {
        "details": "requires function to be called from owner. this prevents customers from buying, selling, or redeeming the product."
      },
      "renounceOwnership()": {
        "details": "Leaves the contract without owner. It will not be possible to call `onlyOwner` functions anymore. Can only be called by the current owner. NOTE: Renouncing ownership will leave the contract without an owner, thereby removing any functionality that is only available to the owner."
      },
      "setBondingCurve(address)": {
        "details": "requires function to be called from owner. sets a bonding curve implementation for this product.",
        "params": {
          "_address": "the address of the bonding curve implementation"
        }
      },
      "symbol()": {
        "details": "Returns the symbol of the token, usually a shorter version of the name."
      },
      "totalSupply()": {
        "details": "See {IERC20-totalSupply}."
      },
      "tradein(uint32)": {
        "details": "When user wants to trade in their token for retail product",
        "params": {
          "amount_": "amount of tokens that user wants to trade in."
        }
      },
      "transfer(address,uint256)": {
        "details": "See {IERC20-transfer}. Requirements: - `recipient` cannot be the zero address. - the caller must have a balance of at least `amount`."
      },
      "transferFrom(address,address,uint256)": {
        "details": "See {IERC20-transferFrom}. Emits an {Approval} event indicating the updated allowance. This is not required by the EIP. See the note at the beginning of {ERC20}. Requirements: - `sender` and `recipient` cannot be the zero address. - `sender` must have a balance of at least `amount`. - the caller must have allowance for ``sender``'s tokens of at least `amount`."
      },
      "transferOwnership(address)": {
        "details": "Transfers ownership of the contract to a new account (`newOwner`). Can only be called by the current owner."
      },
      "updateUserCompleted(address,uint256)": {
        "details": "used to update the status of redemption to \"User Complete\" after an escrow process has been started.",
        "params": {
          "buyer": "the wallet address of product buyer",
          "id": "the id of the escrow, returned to the user after starting of redemption process"
        }
      },
      "updateUserRefund(address,uint256)": {
        "details": "used to update the status of redemption to \"User Refunded\" after an escrow process has been started.",
        "params": {
          "buyer": "the wallet address of product buyer",
          "id": "the id of the escrow, returned to the user after starting of redemption process"
        }
      },
      "withdrawEther(uint256)": {
        "details": "A method allow us to withdraw liquidity (eth) from the contract Since eth is not used as a return currency, we need to withdraw eth from the system.",
        "params": {
          "value_": "the value of ether"
        }
      }
    },
    "version": 1
  },
  "userdoc": {
    "kind": "user",
    "methods": {},
    "version": 1
  }
}