{
  "contractName": "ProductTokenV5",
  "abi": [
    {
      "anonymous": false,
      "inputs": [
        {
          "indexed": true,
          "internalType": "address",
          "name": "owner",
          "type": "address"
        },
        {
          "indexed": true,
          "internalType": "address",
          "name": "spender",
          "type": "address"
        },
        {
          "indexed": false,
          "internalType": "uint256",
          "name": "value",
          "type": "uint256"
        }
      ],
      "name": "Approval",
      "type": "event"
    },
    {
      "anonymous": false,
      "inputs": [
        {
          "indexed": true,
          "internalType": "address",
          "name": "sender",
          "type": "address"
        },
        {
          "indexed": false,
          "internalType": "uint32",
          "name": "amount",
          "type": "uint32"
        },
        {
          "indexed": false,
          "internalType": "uint256",
          "name": "deposit",
          "type": "uint256"
        }
      ],
      "name": "Buy",
      "type": "event"
    },
    {
      "anonymous": false,
      "inputs": [
        {
          "indexed": true,
          "internalType": "address",
          "name": "previousOwner",
          "type": "address"
        },
        {
          "indexed": true,
          "internalType": "address",
          "name": "newOwner",
          "type": "address"
        }
      ],
      "name": "OwnershipTransferred",
      "type": "event"
    },
    {
      "anonymous": false,
      "inputs": [
        {
          "indexed": true,
          "internalType": "address",
          "name": "sender",
          "type": "address"
        },
        {
          "indexed": false,
          "internalType": "uint32",
          "name": "amount",
          "type": "uint32"
        },
        {
          "indexed": false,
          "internalType": "uint256",
          "name": "refund",
          "type": "uint256"
        }
      ],
      "name": "Sell",
      "type": "event"
    },
    {
      "anonymous": false,
      "inputs": [
        {
          "indexed": false,
          "internalType": "bool",
          "name": "isTradable",
          "type": "bool"
        }
      ],
      "name": "Tradable",
      "type": "event"
    },
    {
      "anonymous": false,
      "inputs": [
        {
          "indexed": true,
          "internalType": "address",
          "name": "sender",
          "type": "address"
        },
        {
          "indexed": false,
          "internalType": "uint32",
          "name": "amount",
          "type": "uint32"
        }
      ],
      "name": "Tradein",
      "type": "event"
    },
    {
      "anonymous": false,
      "inputs": [
        {
          "indexed": true,
          "internalType": "address",
          "name": "from",
          "type": "address"
        },
        {
          "indexed": true,
          "internalType": "address",
          "name": "to",
          "type": "address"
        },
        {
          "indexed": false,
          "internalType": "uint256",
          "name": "value",
          "type": "uint256"
        }
      ],
      "name": "Transfer",
      "type": "event"
    },
    {
      "anonymous": false,
      "inputs": [
        {
          "indexed": false,
          "internalType": "address",
          "name": "",
          "type": "address"
        },
        {
          "indexed": false,
          "internalType": "uint256",
          "name": "",
          "type": "uint256"
        },
        {
          "components": [
            {
              "internalType": "enum Escrow.escrowState",
              "name": "state",
              "type": "uint8"
            },
            {
              "internalType": "uint32",
              "name": "amount",
              "type": "uint32"
            },
            {
              "internalType": "uint256",
              "name": "value",
              "type": "uint256"
            }
          ],
          "indexed": false,
          "internalType": "struct Escrow.escrowInfo",
          "name": "",
          "type": "tuple"
        }
      ],
      "name": "escrowStateUpdated",
      "type": "event"
    },
    {
      "stateMutability": "nonpayable",
      "type": "fallback"
    },
    {
      "inputs": [
        {
          "internalType": "address",
          "name": "owner",
          "type": "address"
        },
        {
          "internalType": "address",
          "name": "spender",
          "type": "address"
        }
      ],
      "name": "allowance",
      "outputs": [
        {
          "internalType": "uint256",
          "name": "",
          "type": "uint256"
        }
      ],
      "stateMutability": "view",
      "type": "function"
    },
    {
      "inputs": [
        {
          "internalType": "address",
          "name": "spender",
          "type": "address"
        },
        {
          "internalType": "uint256",
          "name": "amount",
          "type": "uint256"
        }
      ],
      "name": "approve",
      "outputs": [
        {
          "internalType": "bool",
          "name": "",
          "type": "bool"
        }
      ],
      "stateMutability": "nonpayable",
      "type": "function"
    },
    {
      "inputs": [
        {
          "internalType": "address",
          "name": "account",
          "type": "address"
        }
      ],
      "name": "balanceOf",
      "outputs": [
        {
          "internalType": "uint256",
          "name": "",
          "type": "uint256"
        }
      ],
      "stateMutability": "view",
      "type": "function"
    },
    {
      "inputs": [
        {
          "internalType": "uint256",
          "name": "maxPrice_",
          "type": "uint256"
        }
      ],
      "name": "buy",
      "outputs": [],
      "stateMutability": "nonpayable",
      "type": "function"
    },
    {
      "inputs": [
        {
          "internalType": "uint256",
          "name": "_amountReserve",
          "type": "uint256"
        }
      ],
      "name": "calculateBuyReturn",
      "outputs": [
        {
          "internalType": "uint32",
          "name": "mintAmount",
          "type": "uint32"
        }
      ],
      "stateMutability": "view",
      "type": "function"
    },
    {
      "inputs": [
        {
          "internalType": "uint32",
          "name": "_amountProduct",
          "type": "uint32"
        }
      ],
      "name": "calculateSellReturn",
      "outputs": [
        {
          "internalType": "uint256",
          "name": "soldAmount",
          "type": "uint256"
        }
      ],
      "stateMutability": "view",
      "type": "function"
    },
    {
      "inputs": [
        {
          "internalType": "uint32",
          "name": "_amount",
          "type": "uint32"
        }
      ],
      "name": "calculateTradinReturn",
      "outputs": [
        {
          "internalType": "uint256",
          "name": "",
          "type": "uint256"
        }
      ],
      "stateMutability": "view",
      "type": "function"
    },
    {
      "inputs": [
        {
          "internalType": "uint256",
          "name": "amount_",
          "type": "uint256"
        }
      ],
      "name": "claimSupplier",
      "outputs": [],
      "stateMutability": "nonpayable",
      "type": "function"
    },
    {
      "inputs": [],
      "name": "decimals",
      "outputs": [
        {
          "internalType": "uint8",
          "name": "",
          "type": "uint8"
        }
      ],
      "stateMutability": "view",
      "type": "function"
    },
    {
      "inputs": [
        {
          "internalType": "address",
          "name": "spender",
          "type": "address"
        },
        {
          "internalType": "uint256",
          "name": "subtractedValue",
          "type": "uint256"
        }
      ],
      "name": "decreaseAllowance",
      "outputs": [
        {
          "internalType": "bool",
          "name": "",
          "type": "bool"
        }
      ],
      "stateMutability": "nonpayable",
      "type": "function"
    },
    {
      "inputs": [
        {
          "internalType": "address",
          "name": "",
          "type": "address"
        },
        {
          "internalType": "uint256",
          "name": "",
          "type": "uint256"
        }
      ],
      "name": "escrowList",
      "outputs": [
        {
          "internalType": "enum Escrow.escrowState",
          "name": "state",
          "type": "uint8"
        },
        {
          "internalType": "uint32",
          "name": "amount",
          "type": "uint32"
        },
        {
          "internalType": "uint256",
          "name": "value",
          "type": "uint256"
        }
      ],
      "stateMutability": "view",
      "type": "function"
    },
    {
      "inputs": [],
      "name": "getAvailability",
      "outputs": [
        {
          "internalType": "uint32",
          "name": "available",
          "type": "uint32"
        }
      ],
      "stateMutability": "view",
      "type": "function"
    },
    {
      "inputs": [],
      "name": "getCurrentPrice",
      "outputs": [
        {
          "internalType": "uint256",
          "name": "price",
          "type": "uint256"
        }
      ],
      "stateMutability": "view",
      "type": "function"
    },
    {
      "inputs": [
        {
          "internalType": "address",
          "name": "_buyer",
          "type": "address"
        }
      ],
      "name": "getEscrowHistory",
      "outputs": [
        {
          "components": [
            {
              "internalType": "enum Escrow.escrowState",
              "name": "state",
              "type": "uint8"
            },
            {
              "internalType": "uint32",
              "name": "amount",
              "type": "uint32"
            },
            {
              "internalType": "uint256",
              "name": "value",
              "type": "uint256"
            }
          ],
          "internalType": "struct Escrow.escrowInfo[]",
          "name": "",
          "type": "tuple[]"
        }
      ],
      "stateMutability": "view",
      "type": "function"
    },
    {
      "inputs": [],
      "name": "getManager",
      "outputs": [
        {
          "internalType": "address",
          "name": "",
          "type": "address"
        }
      ],
      "stateMutability": "view",
      "type": "function"
    },
    {
      "inputs": [],
      "name": "getNewAttribute",
      "outputs": [
        {
          "internalType": "uint256",
          "name": "",
          "type": "uint256"
        }
      ],
      "stateMutability": "view",
      "type": "function"
    },
    {
      "inputs": [],
      "name": "getPoolInfo",
      "outputs": [
        {
          "components": [
            {
              "internalType": "uint256",
              "name": "amount",
              "type": "uint256"
            },
            {
              "internalType": "uint256",
              "name": "accRewardPerShare",
              "type": "uint256"
            },
            {
              "internalType": "uint256",
              "name": "tokenReward",
              "type": "uint256"
            }
          ],
          "internalType": "struct ProductTokenV1.PoolInfo",
          "name": "",
          "type": "tuple"
        }
      ],
      "stateMutability": "view",
      "type": "function"
    },
    {
      "inputs": [
        {
          "internalType": "uint32",
          "name": "_amountProduct",
          "type": "uint32"
        }
      ],
      "name": "getPriceForN",
      "outputs": [
        {
          "internalType": "uint256",
          "name": "price",
          "type": "uint256"
        }
      ],
      "stateMutability": "view",
      "type": "function"
    },
    {
      "inputs": [
        {
          "internalType": "address",
          "name": "_buyer",
          "type": "address"
        },
        {
          "internalType": "uint256",
          "name": "_id",
          "type": "uint256"
        }
      ],
      "name": "getRedeemStatus",
      "outputs": [
        {
          "internalType": "enum Escrow.escrowState",
          "name": "",
          "type": "uint8"
        }
      ],
      "stateMutability": "view",
      "type": "function"
    },
    {
      "inputs": [],
      "name": "getSupplierBalance",
      "outputs": [
        {
          "internalType": "uint256",
          "name": "",
          "type": "uint256"
        }
      ],
      "stateMutability": "view",
      "type": "function"
    },
    {
      "inputs": [],
      "name": "getSupplierInfo",
      "outputs": [
        {
          "components": [
            {
              "internalType": "uint256",
              "name": "amount",
              "type": "uint256"
            },
            {
              "internalType": "address",
              "name": "wallet",
              "type": "address"
            }
          ],
          "internalType": "struct ProductTokenV1.supplierInfo",
          "name": "",
          "type": "tuple"
        }
      ],
      "stateMutability": "view",
      "type": "function"
    },
    {
      "inputs": [
        {
          "internalType": "address",
          "name": "addr_",
          "type": "address"
        }
      ],
      "name": "getUserInfo",
      "outputs": [
        {
          "components": [
            {
              "internalType": "uint256",
              "name": "amount",
              "type": "uint256"
            },
            {
              "internalType": "uint256",
              "name": "rewardDebt",
              "type": "uint256"
            },
            {
              "internalType": "uint256",
              "name": "lastReward",
              "type": "uint256"
            },
            {
              "internalType": "uint256[]",
              "name": "records",
              "type": "uint256[]"
            }
          ],
          "internalType": "struct ProductTokenV1.UserInfo",
          "name": "",
          "type": "tuple"
        }
      ],
      "stateMutability": "view",
      "type": "function"
    },
    {
      "inputs": [
        {
          "internalType": "address",
          "name": "addr_",
          "type": "address"
        }
      ],
      "name": "getUserReward",
      "outputs": [
        {
          "internalType": "uint256",
          "name": "",
          "type": "uint256"
        }
      ],
      "stateMutability": "view",
      "type": "function"
    },
    {
      "inputs": [
        {
          "internalType": "address",
          "name": "spender",
          "type": "address"
        },
        {
          "internalType": "uint256",
          "name": "addedValue",
          "type": "uint256"
        }
      ],
      "name": "increaseAllowance",
      "outputs": [
        {
          "internalType": "bool",
          "name": "",
          "type": "bool"
        }
      ],
      "stateMutability": "nonpayable",
      "type": "function"
    },
    {
      "inputs": [
        {
          "internalType": "string",
          "name": "_name",
          "type": "string"
        },
        {
          "internalType": "string",
          "name": "_symbol",
          "type": "string"
        },
        {
          "internalType": "address",
          "name": "_bondingCurveAddress",
          "type": "address"
        },
        {
          "internalType": "uint32",
          "name": "_reserveRatio",
          "type": "uint32"
        },
        {
          "internalType": "uint32",
          "name": "_maxTokenCount",
          "type": "uint32"
        },
        {
          "internalType": "uint32",
          "name": "_supplyOffset",
          "type": "uint32"
        },
        {
          "internalType": "uint256",
          "name": "_baseReserve",
          "type": "uint256"
        }
      ],
      "name": "initialize",
      "outputs": [],
      "stateMutability": "nonpayable",
      "type": "function"
    },
    {
      "inputs": [
        {
          "internalType": "string",
          "name": "_name",
          "type": "string"
        },
        {
          "internalType": "string",
          "name": "_symbol",
          "type": "string"
        },
        {
          "internalType": "uint32",
          "name": "_reserveRatio",
          "type": "uint32"
        },
        {
          "internalType": "uint32",
          "name": "_maxTokenCount",
          "type": "uint32"
        },
        {
          "internalType": "uint32",
          "name": "_supplyOffset",
          "type": "uint32"
        },
        {
          "internalType": "uint256",
          "name": "_baseReserve",
          "type": "uint256"
        },
        {
          "internalType": "uint256",
          "name": "_newInitValue",
          "type": "uint256"
        },
        {
          "internalType": "address",
          "name": "_daiAddress",
          "type": "address"
        },
        {
          "internalType": "address",
          "name": "_chainlink",
          "type": "address"
        }
      ],
      "name": "initializeV3",
      "outputs": [],
      "stateMutability": "nonpayable",
      "type": "function"
    },
    {
      "inputs": [
        {
          "internalType": "enum Escrow.escrowState",
          "name": "_state",
          "type": "uint8"
        }
      ],
      "name": "isStateCompleted",
      "outputs": [
        {
          "internalType": "bool",
          "name": "",
          "type": "bool"
        }
      ],
      "stateMutability": "pure",
      "type": "function"
    },
    {
      "inputs": [],
      "name": "launch",
      "outputs": [],
      "stateMutability": "nonpayable",
      "type": "function"
    },
    {
      "inputs": [],
      "name": "maxTokenCount",
      "outputs": [
        {
          "internalType": "uint32",
          "name": "",
          "type": "uint32"
        }
      ],
      "stateMutability": "view",
      "type": "function"
    },
    {
      "inputs": [],
      "name": "name",
      "outputs": [
        {
          "internalType": "string",
          "name": "",
          "type": "string"
        }
      ],
      "stateMutability": "view",
      "type": "function"
    },
    {
      "inputs": [],
      "name": "newAttribute",
      "outputs": [
        {
          "internalType": "uint256",
          "name": "",
          "type": "uint256"
        }
      ],
      "stateMutability": "view",
      "type": "function"
    },
    {
      "inputs": [],
      "name": "newInitValue",
      "outputs": [
        {
          "internalType": "uint256",
          "name": "",
          "type": "uint256"
        }
      ],
      "stateMutability": "view",
      "type": "function"
    },
    {
      "inputs": [],
      "name": "owner",
      "outputs": [
        {
          "internalType": "address",
          "name": "",
          "type": "address"
        }
      ],
      "stateMutability": "view",
      "type": "function"
    },
    {
      "inputs": [],
      "name": "pause",
      "outputs": [],
      "stateMutability": "nonpayable",
      "type": "function"
    },
    {
      "inputs": [],
      "name": "poolInfo",
      "outputs": [
        {
          "internalType": "uint256",
          "name": "amount",
          "type": "uint256"
        },
        {
          "internalType": "uint256",
          "name": "accRewardPerShare",
          "type": "uint256"
        },
        {
          "internalType": "uint256",
          "name": "tokenReward",
          "type": "uint256"
        }
      ],
      "stateMutability": "view",
      "type": "function"
    },
    {
      "inputs": [],
      "name": "renounceOwnership",
      "outputs": [],
      "stateMutability": "nonpayable",
      "type": "function"
    },
    {
      "inputs": [],
      "name": "reserveBalance",
      "outputs": [
        {
          "internalType": "uint256",
          "name": "",
          "type": "uint256"
        }
      ],
      "stateMutability": "view",
      "type": "function"
    },
    {
      "inputs": [],
      "name": "reserveRatio",
      "outputs": [
        {
          "internalType": "uint32",
          "name": "",
          "type": "uint32"
        }
      ],
      "stateMutability": "view",
      "type": "function"
    },
    {
      "inputs": [
        {
          "internalType": "uint32",
          "name": "amount_",
          "type": "uint32"
        }
      ],
      "name": "sell",
      "outputs": [],
      "stateMutability": "nonpayable",
      "type": "function"
    },
    {
      "inputs": [
        {
          "internalType": "address",
          "name": "_address",
          "type": "address"
        }
      ],
      "name": "setBondingCurve",
      "outputs": [],
      "stateMutability": "nonpayable",
      "type": "function"
    },
    {
      "inputs": [
        {
          "internalType": "address",
          "name": "highAddress_",
          "type": "address"
        }
      ],
      "name": "setHigh",
      "outputs": [],
      "stateMutability": "nonpayable",
      "type": "function"
    },
    {
      "inputs": [
        {
          "internalType": "address",
          "name": "addr_",
          "type": "address"
        }
      ],
      "name": "setManager",
      "outputs": [],
      "stateMutability": "nonpayable",
      "type": "function"
    },
    {
      "inputs": [],
      "name": "supplier",
      "outputs": [
        {
          "internalType": "uint256",
          "name": "amount",
          "type": "uint256"
        },
        {
          "internalType": "address",
          "name": "wallet",
          "type": "address"
        }
      ],
      "stateMutability": "view",
      "type": "function"
    },
    {
      "inputs": [],
      "name": "symbol",
      "outputs": [
        {
          "internalType": "string",
          "name": "",
          "type": "string"
        }
      ],
      "stateMutability": "view",
      "type": "function"
    },
    {
      "inputs": [],
      "name": "totalSupply",
      "outputs": [
        {
          "internalType": "uint256",
          "name": "",
          "type": "uint256"
        }
      ],
      "stateMutability": "view",
      "type": "function"
    },
    {
      "inputs": [
        {
          "internalType": "uint32",
          "name": "amount_",
          "type": "uint32"
        }
      ],
      "name": "tradein",
      "outputs": [],
      "stateMutability": "nonpayable",
      "type": "function"
    },
    {
      "inputs": [],
      "name": "tradeinCount",
      "outputs": [
        {
          "internalType": "uint32",
          "name": "",
          "type": "uint32"
        }
      ],
      "stateMutability": "view",
      "type": "function"
    },
    {
      "inputs": [],
      "name": "tradeinReserveBalance",
      "outputs": [
        {
          "internalType": "uint256",
          "name": "",
          "type": "uint256"
        }
      ],
      "stateMutability": "view",
      "type": "function"
    },
    {
      "inputs": [
        {
          "internalType": "address",
          "name": "recipient",
          "type": "address"
        },
        {
          "internalType": "uint256",
          "name": "amount",
          "type": "uint256"
        }
      ],
      "name": "transfer",
      "outputs": [
        {
          "internalType": "bool",
          "name": "",
          "type": "bool"
        }
      ],
      "stateMutability": "nonpayable",
      "type": "function"
    },
    {
      "inputs": [
        {
          "internalType": "address",
          "name": "sender",
          "type": "address"
        },
        {
          "internalType": "address",
          "name": "recipient",
          "type": "address"
        },
        {
          "internalType": "uint256",
          "name": "amount",
          "type": "uint256"
        }
      ],
      "name": "transferFrom",
      "outputs": [
        {
          "internalType": "bool",
          "name": "",
          "type": "bool"
        }
      ],
      "stateMutability": "nonpayable",
      "type": "function"
    },
    {
      "inputs": [
        {
          "internalType": "address",
          "name": "newOwner",
          "type": "address"
        }
      ],
      "name": "transferOwnership",
      "outputs": [],
      "stateMutability": "nonpayable",
      "type": "function"
    },
    {
      "inputs": [
        {
          "internalType": "uint256",
          "name": "fee_",
          "type": "uint256"
        }
      ],
      "name": "updatePool",
      "outputs": [],
      "stateMutability": "nonpayable",
      "type": "function"
    },
    {
      "inputs": [
        {
          "internalType": "address",
          "name": "wallet_",
          "type": "address"
        }
      ],
      "name": "updateSupplierInfo",
      "outputs": [],
      "stateMutability": "nonpayable",
      "type": "function"
    },
    {
      "inputs": [
        {
          "internalType": "address",
          "name": "buyer",
          "type": "address"
        },
        {
          "internalType": "uint256",
          "name": "id",
          "type": "uint256"
        }
      ],
      "name": "updateUserCompleted",
      "outputs": [],
      "stateMutability": "nonpayable",
      "type": "function"
    },
    {
      "inputs": [
        {
          "internalType": "address",
          "name": "buyer",
          "type": "address"
        },
        {
          "internalType": "uint256",
          "name": "id",
          "type": "uint256"
        }
      ],
      "name": "updateUserRefund",
      "outputs": [],
      "stateMutability": "nonpayable",
      "type": "function"
    },
    {
      "inputs": [
        {
          "internalType": "address",
          "name": "",
          "type": "address"
        }
      ],
      "name": "userInfo",
      "outputs": [
        {
          "internalType": "uint256",
          "name": "amount",
          "type": "uint256"
        },
        {
          "internalType": "uint256",
          "name": "rewardDebt",
          "type": "uint256"
        },
        {
          "internalType": "uint256",
          "name": "lastReward",
          "type": "uint256"
        }
      ],
      "stateMutability": "view",
      "type": "function"
    },
    {
      "inputs": [],
      "name": "voucher",
      "outputs": [
        {
          "internalType": "address",
          "name": "addr",
          "type": "address"
        },
        {
          "internalType": "contract IVNFT",
          "name": "instance",
          "type": "address"
        },
        {
          "internalType": "uint256",
          "name": "tokenId",
          "type": "uint256"
        },
        {
          "internalType": "bool",
          "name": "isEnable",
          "type": "bool"
        }
      ],
      "stateMutability": "view",
      "type": "function"
    },
    {
      "inputs": [
        {
          "internalType": "uint256",
          "name": "value_",
          "type": "uint256"
        }
      ],
      "name": "withdrawEther",
      "outputs": [],
      "stateMutability": "payable",
      "type": "function"
    },
    {
      "inputs": [
        {
          "internalType": "uint256",
          "name": "amount_",
          "type": "uint256"
        },
        {
          "internalType": "address",
          "name": "to_",
          "type": "address"
        }
      ],
      "name": "withdrawHigh",
      "outputs": [],
      "stateMutability": "nonpayable",
      "type": "function"
    },
    {
      "inputs": [
        {
          "internalType": "string",
          "name": "_name",
          "type": "string"
        },
        {
          "internalType": "string",
          "name": "_symbol",
          "type": "string"
        },
        {
          "internalType": "address",
          "name": "_bondingCurveAddress",
          "type": "address"
        },
        {
          "internalType": "uint32",
          "name": "_reserveRatio",
          "type": "uint32"
        },
        {
          "internalType": "uint32",
          "name": "_maxTokenCount",
          "type": "uint32"
        },
        {
          "internalType": "uint32",
          "name": "_supplyOffset",
          "type": "uint32"
        },
        {
          "internalType": "uint256",
          "name": "_baseReserve",
          "type": "uint256"
        },
        {
          "internalType": "uint256",
          "name": "_newInitValue",
          "type": "uint256"
        },
        {
          "internalType": "address",
          "name": "_daiAddress",
          "type": "address"
        },
        {
          "internalType": "address",
          "name": "_chainlink",
          "type": "address"
        }
      ],
      "name": "initializeV5",
      "outputs": [],
      "stateMutability": "nonpayable",
      "type": "function"
    },
    {
      "inputs": [],
      "name": "getNewInitValue",
      "outputs": [
        {
          "internalType": "uint256",
          "name": "",
          "type": "uint256"
        }
      ],
      "stateMutability": "view",
      "type": "function"
    }
  ],
  "bytecode": "0x608060405234801561001057600080fd5b5061498f806100206000396000f3fe6080604052600436106102f65760003560e060020a90048063715018a61161019b578063c4e627c2116100f1578063dd62ed3e11610094578063dd62ed3e14610a7a578063deebbef114610ac0578063e67dc51814610ae0578063eb91d37e14610af6578063ebc9e4d614610b0b578063efea8a1314610b2b578063f2fde38b14610b4b578063f97511d314610b6b576102f6565b8063c4e627c21461092b578063c757d4c714610950578063c75ebb8214610970578063cdda418c14610990578063d0ebdbe7146109ef578063d500958414610a0f578063d96a094a14610a2d578063dd304b1a14610a4d576102f6565b8063715018a61461073f57806374a7b012146107545780637a53e040146107b6578063828f3a9c146107cb5780638456cb59146107eb5780638da5cb5b1461080057806395d89b4114610822578063964a6afe146108375780639b9ffbf31461084c578063a10954fe1461087b578063a457c2d714610891578063a8d92629146108b1578063a9059cbb146108d1578063b679ef38146108f1578063ba7a93b614610907576102f6565b80633bed33ce116102505780633bed33ce1461054657806343ff1fb814610559578063483335a114610579578063491052cd1461058f5780634ffd23a7146105af57806351eb05a6146105cf5780635a2f3d09146105ef5780635c8ea0931461060e5780635e88752c1461062e57806360246c881461064e5780636386c1c71461068557806363c51fbb146106b257806365d10897146106d25780636e74607b146106f257806370a082311461071f576102f6565b806301339c211461030557806306fdde031461031c578063095ea7b3146103475780630c7d5cd8146103775780630ccee99b146103a957806318160ddd146103c95780631959a002146103e857806319d5b5871461043f578063224e4f481461045f57806323b872dd1461047f5780632f0a3fe41461049f578063313ce567146104b457806335d43be4146104d057806336da4468146104e55780633950935114610526575b34801561030257600080fd5b50005b34801561031157600080fd5b5061031a610b8b565b005b34801561032857600080fd5b50610331610c73565b60405161033e9190614467565b60405180910390f35b34801561035357600080fd5b50610367610362366004613faf565b610d05565b604051901515815260200161033e565b34801561038357600080fd5b50609b546103949063ffffffff1681565b60405163ffffffff909116815260200161033e565b3480156103b557600080fd5b5061031a6103c4366004613faf565b610d1c565b3480156103d557600080fd5b506035545b60405190815260200161033e565b3480156103f457600080fd5b50610424610403366004613f28565b60a76020526000908152604090208054600182015460029092015490919083565b6040805193845260208401929092529082015260600161033e565b34801561044b57600080fd5b506103da61045a3660046142c4565b610da3565b34801561046b57600080fd5b506103da61047a3660046142c4565b610ea4565b34801561048b57600080fd5b5061036761049a366004613f74565b610ec9565b3480156104ab57600080fd5b506103da610f92565b3480156104c057600080fd5b506040516000815260200161033e565b3480156104dc57600080fd5b5060aa546103da565b3480156104f157600080fd5b50609e54609f546105099190600160a060020a031682565b60408051928352600160a060020a0390911660208301520161033e565b34801561053257600080fd5b50610367610541366004613faf565b610fa8565b61031a610554366004614272565b610fdf565b34801561056557600080fd5b5061031a610574366004613f28565b61108f565b34801561058557600080fd5b506103da60a95481565b34801561059b57600080fd5b506103676105aa366004613ff8565b61110c565b3480156105bb57600080fd5b5061031a6105ca3660046142c4565b611166565b3480156105db57600080fd5b5061031a6105ea366004614272565b6112ed565b3480156105fb57600080fd5b5060a05460a15460a25461042492919083565b34801561061a57600080fd5b5061031a6106293660046141a6565b611327565b34801561063a57600080fd5b5061031a610649366004614272565b61139f565b34801561065a57600080fd5b50610663611504565b604080518251815260208084015190820152918101519082015260600161033e565b34801561069157600080fd5b506106a56106a0366004613f28565b61154d565b60405161033e9190614704565b3480156106be57600080fd5b5061031a6106cd3660046142c4565b61163a565b3480156106de57600080fd5b5061031a6106ed3660046140cc565b6117e9565b3480156106fe57600080fd5b5061071261070d366004613f28565b611871565b60405161033e91906143e6565b34801561072b57600080fd5b506103da61073a366004613f28565b611957565b34801561074b57600080fd5b5061031a611972565b34801561076057600080fd5b5060408051808201825260008082526020918201528151808301909252609e548252609f54600160a060020a0316908201526040805182518152602092830151600160a060020a0316928101929092520161033e565b3480156107c257600080fd5b506103946119dc565b3480156107d757600080fd5b506103946107e6366004614272565b611a28565b3480156107f757600080fd5b5061031a611a3c565b34801561080c57600080fd5b50610815611b0d565b60405161033e9190614348565b34801561082e57600080fd5b50610331611b1c565b34801561084357600080fd5b50609e546103da565b34801561085857600080fd5b5061086c610867366004613faf565b611b2b565b60405161033e93929190614442565b34801561088757600080fd5b506103da60995481565b34801561089d57600080fd5b506103676108ac366004613faf565b611b76565b3480156108bd57600080fd5b5061031a6108cc366004613f28565b611c17565b3480156108dd57600080fd5b506103676108ec366004613faf565b611c94565b3480156108fd57600080fd5b506103da60aa5481565b34801561091357600080fd5b50609b5461039490604060020a900463ffffffff1681565b34801561093757600080fd5b50609b5461039490640100000000900463ffffffff1681565b34801561095c57600080fd5b5061031a61096b366004613faf565b611ca1565b34801561097c57600080fd5b506103da61098b366004613f28565b611d8a565b34801561099c57600080fd5b5060a35460a45460a55460a6546109c293600160a060020a039081169316919060ff1684565b60408051600160a060020a039586168152949093166020850152918301521515606082015260800161033e565b3480156109fb57600080fd5b5061031a610a0a366004613f28565b611dfe565b348015610a1b57600080fd5b50609c54600160a060020a0316610815565b348015610a3957600080fd5b5061031a610a48366004614272565b611e7b565b348015610a5957600080fd5b50610a6d610a68366004613faf565b612271565b60405161033e9190614434565b348015610a8657600080fd5b506103da610a95366004613f42565b600160a060020a03918216600090815260346020908152604080832093909416825291909152205490565b348015610acc57600080fd5b5061031a610adb366004613f28565b6122c7565b348015610aec57600080fd5b506103da609a5481565b348015610b0257600080fd5b506103da612374565b348015610b1757600080fd5b5061031a610b263660046142a2565b612380565b348015610b3757600080fd5b5061031a610b46366004614017565b612507565b348015610b5757600080fd5b5061031a610b66366004613f28565b61259c565b348015610b7757600080fd5b506103da610b863660046142c4565b612697565b33610b94611b0d565b600160a060020a031614610bc65760405160e560020a62461bcd028152600401610bbd90614661565b60405180910390fd5b60985460ff1615610c2d5760405160e560020a62461bcd02815260206004820152602560248201527f5468652070726f6475637420746f6b656e20697320616c7265616479206c6175604482015260da60020a641b98da1959026064820152608401610bbd565b6098805460ff191660019081179091556040519081527f65c5ccecef030677b73a1403e7e69ef84d05db9d1732959d543d32f4419909b8906020015b60405180910390a1565b606060368054610c8290614859565b80601f0160208091040260200160405190810160405280929190818152602001828054610cae90614859565b8015610cfb5780601f10610cd057610100808354040283529160200191610cfb565b820191906000526020600020905b815481529060010190602001808311610cde57829003601f168201915b5050505050905090565b6000610d1233848461273e565b5060015b92915050565b610d24611b0d565b600160a060020a031633600160a060020a03161480610d4d5750609c54600160a060020a031633145b610d6c5760405160e560020a62461bcd028152600401610bbd9061462a565b600160a060020a038216610d955760405160e560020a62461bcd028152600401610bbd906144f1565b610d9f828261286f565b5050565b6000808263ffffffff1611610dcd5760405160e560020a62461bcd028152600401610bbd9061455f565b609b54600090610e049063ffffffff606060020a8204811691610dfe9187811691604060020a90048116906129e816565b906129e8565b609d54609a54609b5460405160e060020a631c949873028152939450600160a060020a0390921692631c94987392610e4b928692909163ffffffff16908990600401614773565b60206040518083038186803b158015610e6357600080fd5b505afa158015610e77573d6000803e3d6000fd5b505050506040513d601f19601f82011682018060405250810190610e9b919061428a565b9150505b919050565b6000806000610eb2846129fb565b9092509050610ec18282612abe565b949350505050565b6000610ed6848484612aca565b600160a060020a038416600090815260346020908152604080832033845290915290205482811015610f735760405160e560020a62461bcd02815260206004820152602860248201527f45524332303a207472616e7366657220616d6f756e742065786365656473206160448201527f6c6c6f77616e63650000000000000000000000000000000000000000000000006064820152608401610bbd565b610f878533610f82868561481d565b61273e565b506001949350505050565b600060a9546001610fa3919061479b565b905090565b336000818152603460209081526040808320600160a060020a03871684529091528120549091610d12918590610f8290869061479b565b33610fe8611b0d565b600160a060020a0316146110115760405160e560020a62461bcd028152600401610bbd90614661565b30316110625760405160e560020a62461bcd02815260206004820152600f60248201527f6e6f20656e6f75676820657468657200000000000000000000000000000000006044820152606401610bbd565b604051339082156108fc029083906000818181858888f19350505050158015610d9f573d6000803e3d6000fd5b33611098611b0d565b600160a060020a0316146110c15760405160e560020a62461bcd028152600401610bbd90614661565b600160a060020a0381166110ea5760405160e560020a62461bcd028152600401610bbd906144ba565b609d8054600160a060020a031916600160a060020a0392909216919091179055565b600060038260038111156111335760e060020a634e487b7102600052602160045260246000fd5b1480610d165750600282600381111561115f5760e060020a634e487b7102600052602160045260246000fd5b1492915050565b60985460ff1661118b5760405160e560020a62461bcd028152600401610bbd90614696565b8063ffffffff1661119b33611957565b1015806111ae575060008163ffffffff16115b6111cd5760405160e560020a62461bcd028152600401610bbd9061455f565b6000806111d983612cb6565b915091506111e683612dc9565b60a85460405160e060020a63a9059cbb028152600091600160a060020a03169063a9059cbb9061121c903390879060040161435c565b602060405180830381600087803b15801561123657600080fd5b505af115801561124a573d6000803e3d6000fd5b505050506040513d601f19601f8201168201806040525081019061126e9190613fd8565b90506112976112926501d1a94a200061128c8564e8d4a51000612fdf565b90612feb565b612ff7565b806112e75760405160e560020a62461bcd02815260206004820152601460248201527f73656c6c696e6720746f6b656e206661696c65640000000000000000000000006044820152606401610bbd565b50505050565b60a054806113005750600060a155611324565b61131f6113168261128c8564e8d4a51000612fdf565b60a154906129e8565b60a155505b50565b600054610100900460ff1680611340575060005460ff16155b61135f5760405160e560020a62461bcd028152600401610bbd906145cd565b600054610100900460ff16158015611381576000805461ffff19166101011790555b8015611393576000805461ff00191690555b50505050505050505050565b609f54600160a060020a03166113fa5760405160e560020a62461bcd02815260206004820152601160248201527f77616c6c657420697320696e76616c69640000000000000000000000000000006044820152606401610bbd565b609f54600160a060020a031633146114575760405160e560020a62461bcd02815260206004820152601a60248201527f5468652061646472657373206973206e6f7420616c6c6f7765640000000000006044820152606401610bbd565b609e5481116113245760a85460405160e060020a63a9059cbb028152600091600160a060020a03169063a9059cbb90611496903390869060040161435c565b602060405180830381600087803b1580156114b057600080fd5b505af11580156114c4573d6000803e3d6000fd5b505050506040513d601f19601f820116820180604052508101906114e89190613fd8565b90508015610d9f57609e546114fd9083612abe565b609e555050565b61152860405180606001604052806000815260200160008152602001600081525090565b506040805160608101825260a054815260a154602082015260a2549181019190915290565b6115786040518060800160405280600081526020016000815260200160008152602001606081525090565b600160a060020a0382166115a15760405160e560020a62461bcd028152600401610bbd90614596565b600160a060020a038216600090815260a76020908152604091829020825160808101845281548152600182015481840152600282015481850152600382018054855181860281018601909652808652919492936060860193929083018282801561162a57602002820191906000526020600020905b815481526020019060010190808311611616575b5050505050815250509050919050565b60985460ff1661165f5760405160e560020a62461bcd028152600401610bbd90614696565b60008163ffffffff16116116885760405160e560020a62461bcd028152600401610bbd906146cd565b8063ffffffff1661169833611957565b10156116e95760405160e560020a62461bcd02815260206004820152601c60248201527f496e73756666696369656e7420746f6b656e7320746f206275726e2e000000006044820152606401610bbd565b6000806116f5836129fb565b91509150600061170484610da3565b905061172761129282610dfe6512309ce5400061128c876509184e72a000612fdf565b6117318383612abe565b925061173d8484613010565b5061174e338563ffffffff16613164565b609b54611769908590604060020a900463ffffffff166147b3565b609b80546bffffffff00000000000000001916604060020a63ffffffff93841602179055609a5461179c9183906129e816565b609a556117a884612dc9565b60405163ffffffff8516815233907fe600c25f82e9bac8f9f1663725540d6cd442845726820fd5bee41b66c4bf59be9060200160405180910390a250505050565b600054610100900460ff1680611802575060005460ff16155b6118215760405160e560020a62461bcd028152600401610bbd906145cd565b600054610100900460ff16158015611843576000805461ffff19166101011790555b61184d8b8b6132ad565b60aa8490558015611864576000805461ff00191690555b5050505050505050505050565b600160a060020a0381166000908152606560209081526040808320805482518185028101850190935280835260609492939192909184015b8282101561194c576000848152602090206040805160608101909152600284029091018054829060ff1660038111156118f55760e060020a634e487b7102600052602160045260246000fd5b60038111156119175760e060020a634e487b7102600052602160045260246000fd5b81528154610100900463ffffffff166020808301919091526001928301546040909201919091529183529290920191016118a9565b505050509050919050565b600160a060020a031660009081526033602052604090205490565b3361197b611b0d565b600160a060020a0316146119a45760405160e560020a62461bcd028152600401610bbd90614661565b606654604051600091600160a060020a03169060008051602061491a833981519152908390a360668054600160a060020a0319169055565b609b54600090604060020a900463ffffffff166119f860355490565b609b54611a139190640100000000900463ffffffff16614834565b611a1d9190614834565b610fa39060646147b3565b600080611a348361332f565b509392505050565b33611a45611b0d565b600160a060020a031614611a6e5760405160e560020a62461bcd028152600401610bbd90614661565b60985460ff16611ad25760405160e560020a62461bcd02815260206004820152602360248201527f5468652070726f6475637420746f6b656e20697320616c726561647920706175604482015260ea60020a621cd959026064820152608401610bbd565b6098805460ff19169055604051600081527f65c5ccecef030677b73a1403e7e69ef84d05db9d1732959d543d32f4419909b890602001610c69565b606654600160a060020a031690565b606060378054610c8290614859565b60656020528160005260406000208181548110611b4757600080fd5b60009182526020909120600290910201805460019091015460ff8216935061010090910463ffffffff16915083565b336000908152603460209081526040808320600160a060020a038616845290915281205482811015611bfe5760405160e560020a62461bcd02815260206004820152602560248201527f45524332303a2064656372656173656420616c6c6f77616e63652062656c6f77604482015260d860020a64207a65726f026064820152608401610bbd565b611c0d3385610f82868561481d565b5060019392505050565b33611c20611b0d565b600160a060020a031614611c495760405160e560020a62461bcd028152600401610bbd90614661565b600160a060020a038116611c725760405160e560020a62461bcd028152600401610bbd906144ba565b60a88054600160a060020a031916600160a060020a0392909216919091179055565b6000610d12338484612aca565b611ca9611b0d565b600160a060020a031633600160a060020a03161480611cd25750609c54600160a060020a031633145b611cf15760405160e560020a62461bcd028152600401610bbd9061462a565b600160a060020a038216611d1a5760405160e560020a62461bcd028152600401610bbd906144f1565b6000611d268383613434565b905060008111611d7b5760405160e560020a62461bcd02815260206004820152600d60248201527f496e76616c69642076616c7565000000000000000000000000000000000000006044820152606401610bbd565b611d8583826135e5565b505050565b600160a060020a038116600090815260a7602052604081205415611df657600160a060020a038216600090815260a760205260409020600181015460a154825460a092611ded929091611de79164e8d4a510009161128c91612fdf565b90612abe565b92505050610e9f565b506000919050565b33611e07611b0d565b600160a060020a031614611e305760405160e560020a62461bcd028152600401610bbd90614661565b600160a060020a038116611e595760405160e560020a62461bcd028152600401610bbd90614596565b609c8054600160a060020a031916600160a060020a0392909216919091179055565b60985460ff16611ea05760405160e560020a62461bcd028152600401610bbd90614696565b60008111611ef35760405160e560020a62461bcd02815260206004820152601160248201527f696e76616c6964206d61782070726963650000000000000000000000000000006044820152606401610bbd565b60a85460405160e060020a6323b872dd02815233600482015230602482015260448101839052600091600160a060020a0316906323b872dd90606401602060405180830381600087803b158015611f4957600080fd5b505af1158015611f5d573d6000803e3d6000fd5b505050506040513d601f19601f82011682018060405250810190611f819190613fd8565b905080611fd35760405160e560020a62461bcd02815260206004820152601060248201527f5075726368617365206661696c65642e000000000000000000000000000000006044820152606401610bbd565b600080600080611fe2866136bf565b93509350935063ffffffff16935060008411156121e05782156120885760a85460405160e060020a63a9059cbb028152600160a060020a039091169063a9059cbb90612034903390879060040161435c565b602060405180830381600087803b15801561204e57600080fd5b505af1158015612062573d6000803e3d6000fd5b505050506040513d601f19601f820116820180604052508101906120869190613fd8565b505b6120a4611292650746a528800061128c8464e8d4a51000612fdf565b60006120c0650746a528800061128c84650574fbde6000612fdf565b60a2549091506120d090826129e8565b60a2556120dc816112ed565b33600090815260a760205260408120600181015460a1548254929360a0939092612116929091611de79164e8d4a510009161128c91612fdf565b905080156121be576002830181905560a85460405160e060020a63a9059cbb028152600160a060020a039091169063a9059cbb9061215a903390859060040161435c565b602060405180830381600087803b15801561217457600080fd5b505af1158015612188573d6000803e3d6000fd5b505050506040513d601f19601f820116820180604052508101906121ac9190613fd8565b5060a2546121ba9082612abe565b60a2555b60a0546121cb90876129e8565b60a0556121d786613824565b50505050612269565b60a85460405160e060020a63a9059cbb028152600160a060020a039091169063a9059cbb906122159033908a9060040161435c565b602060405180830381600087803b15801561222f57600080fd5b505af1158015612243573d6000803e3d6000fd5b505050506040513d601f19601f820116820180604052508101906122679190613fd8565b505b505050505050565b600160a060020a03821660009081526065602052604081208054839081106122ac5760e060020a634e487b7102600052603260045260246000fd5b600091825260209091206002909102015460ff169392505050565b336122d0611b0d565b600160a060020a0316146122f95760405160e560020a62461bcd028152600401610bbd90614661565b600160a060020a0381166123525760405160e560020a62461bcd02815260206004820152601260248201527f4164647265737320697320696e76616c696400000000000000000000000000006044820152606401610bbd565b609f8054600160a060020a031916600160a060020a0392909216919091179055565b6000610fa36001612697565b33612389611b0d565b600160a060020a0316146123b25760405160e560020a62461bcd028152600401610bbd90614661565b600160a060020a0381166123db5760405160e560020a62461bcd028152600401610bbd90614596565b60a85460405160e060020a6370a08231028152600160a060020a03909116906370a082319061240e903090600401614348565b60206040518083038186803b15801561242657600080fd5b505afa15801561243a573d6000803e3d6000fd5b505050506040513d601f19601f8201168201806040525081019061245e919061428a565b8211156124805760405160e560020a62461bcd028152600401610bbd9061455f565b60a85460405160e060020a63a9059cbb028152600160a060020a039091169063a9059cbb906124b5908490869060040161435c565b602060405180830381600087803b1580156124cf57600080fd5b505af11580156124e3573d6000803e3d6000fd5b505050506040513d601f19601f82011682018060405250810190611d859190613fd8565b600054610100900460ff1680612520575060005460ff16155b61253f5760405160e560020a62461bcd028152600401610bbd906145cd565b600054610100900460ff16158015612561576000805461ffff19166101011790555b61256961387d565b61257388886132ad565b61258086868686866138fb565b8015612592576000805461ff00191690555b5050505050505050565b336125a5611b0d565b600160a060020a0316146125ce5760405160e560020a62461bcd028152600401610bbd90614661565b600160a060020a03811661264d5760405160e560020a62461bcd02815260206004820152602660248201527f4f776e61626c653a206e6577206f776e657220697320746865207a65726f206160448201527f64647265737300000000000000000000000000000000000000000000000000006064820152608401610bbd565b606654604051600160a060020a0380841692169060008051602061491a83398151915290600090a360668054600160a060020a031916600160a060020a0392909216919091179055565b609d54600090600160a060020a031663bff82d846126b3613a8e565b609954609b546126cb9063ffffffff1661c3506147b3565b866040518563ffffffff1660e060020a0281526004016126ee9493929190614773565b60206040518083038186803b15801561270657600080fd5b505afa15801561271a573d6000803e3d6000fd5b505050506040513d601f19601f82011682018060405250810190610d16919061428a565b600160a060020a0383166127a65760405160e560020a62461bcd028152602060048201526024808201527f45524332303a20617070726f76652066726f6d20746865207a65726f20616464604482015260e060020a6372657373026064820152608401610bbd565b600160a060020a03821661280d5760405160e560020a62461bcd02815260206004820152602260248201527f45524332303a20617070726f766520746f20746865207a65726f206164647265604482015260f060020a617373026064820152608401610bbd565b600160a060020a0383811660008181526034602090815260408083209487168084529482529182902085905590518481527f8c5be1e5ebec7d5bd14f71427d1e84f3dd0314c0f7b2291e5b200ac8c7c3b92591015b60405180910390a3505050565b600160a060020a038216600090815260656020526040902080546128c89190839081106128af5760e060020a634e487b7102600052603260045260246000fd5b600091825260209091206002909102015460ff1661110c565b156128e85760405160e560020a62461bcd028152600401610bbd90614528565b600160a060020a0382166000908152606560205260409020805460039190839081106129275760e060020a634e487b7102600052603260045260246000fd5b60009182526020909120600290910201805460ff191660018360038111156129625760e060020a634e487b7102600052602160045260246000fd5b02179055506000805160206148fa83398151915282826065600086600160a060020a0316600160a060020a0316815260200190815260200160002084815481106129bf5760e060020a634e487b7102600052603260045260246000fd5b90600052602060002090600202016040516129dc93929190614399565b60405180910390a15050565b60006129f4828461479b565b9392505050565b609d5460009081908190600160a060020a0316631c949873612a1b613a8e565b609954609b5460405163ffffffff85811660e060020a028252612a4694939216908a90600401614773565b60206040518083038186803b158015612a5e57600080fd5b505afa158015612a72573d6000803e3d6000fd5b505050506040513d601f19601f82011682018060405250810190612a96919061428a565b90506000612ab264e8d4a5100061128c846404a817c800612fdf565b91935090915050915091565b60006129f4828461481d565b600160a060020a038316612b345760405160e560020a62461bcd02815260206004820152602560248201527f45524332303a207472616e736665722066726f6d20746865207a65726f206164604482015260d860020a646472657373026064820152608401610bbd565b600160a060020a038216612b9c5760405160e560020a62461bcd02815260206004820152602360248201527f45524332303a207472616e7366657220746f20746865207a65726f2061646472604482015260e860020a62657373026064820152608401610bbd565b600160a060020a03831660009081526033602052604090205481811015612c2e5760405160e560020a62461bcd02815260206004820152602660248201527f45524332303a207472616e7366657220616d6f756e742065786365656473206260448201527f616c616e636500000000000000000000000000000000000000000000000000006064820152608401610bbd565b612c38828261481d565b600160a060020a038086166000908152603360205260408082209390935590851681529081208054849290612c6e90849061479b565b9250508190555082600160a060020a031684600160a060020a031660008051602061493a83398151915284604051612ca891815260200190565b60405180910390a350505050565b60008060008363ffffffff1611612ce25760405160e560020a62461bcd028152600401610bbd906146cd565b8263ffffffff16612cf233611957565b1015612d435760405160e560020a62461bcd02815260206004820152601c60248201527f496e73756666696369656e7420746f6b656e7320746f2073656c6c2e000000006044820152606401610bbd565b600080612d4f856129fb565b6099549193509150612d619083612abe565b609955612d743363ffffffff8716613164565b6040805163ffffffff871681526020810184905233917f84c8d08e5480cf09cbf77bc575dc4e63845522693c34094f04129a4dedb7abd7910160405180910390a2612dbf8282612abe565b9350915050915091565b33600090815260a76020526040902054156113245733600081815260a76020526040902060038101549091612dfd90611957565b11610d9f57600381015463ffffffff831690811115612e1d575060038101545b6000805b82811015612ec957600384018054612e7a9190612e3f906001612abe565b81548110612e605760e060020a634e487b7102600052603260045260246000fd5b9060005260206000200154836129e890919063ffffffff16565b915083600301805480612ea05760e060020a634e487b7102600052603160045260246000fd5b600190038181906000526020600020016000905590558080612ec190614898565b915050612e21565b50600183015460a154845460a092600092612ef292611de79164e8d4a510009161128c91612fdf565b60a054909150612f029084612abe565b60a0558015612fab576002850181905560a85460405160e060020a63a9059cbb028152600160a060020a039091169063a9059cbb90612f47903390859060040161435c565b602060405180830381600087803b158015612f6157600080fd5b505af1158015612f75573d6000803e3d6000fd5b505050506040513d601f19601f82011682018060405250810190612f999190613fd8565b5060a254612fa79082612abe565b60a2555b8454612fb79084612abe565b80865560a154612fd29164e8d4a510009161128c9190612fdf565b6001860155505050505050565b60006129f482846147fe565b60006129f482846147db565b801561132457609e5461300a90826129e8565b609e5550565b6000808363ffffffff161161306a5760405160e560020a62461bcd02815260206004820152600e60248201527f496e76616c696420416d6f756e740000000000000000000000000000000000006044820152606401610bbd565b60408051606081018252600180825263ffffffff861660208084019190915282840186905233600090815260658252938420805480840182559085529320825160029094020180549293849391929091839160ff19909116908360038111156130e65760e060020a634e487b7102600052602160045260246000fd5b0217905550602082810151825463ffffffff9091166101000264ffffffff0019909116178255604092830151600192830155336000908152606590915291822054613131919061481d565b90506000805160206148fa83398151915233828460405161315493929190614375565b60405180910390a1949350505050565b600160a060020a0382166131ca5760405160e560020a62461bcd02815260206004820152602160248201527f45524332303a206275726e2066726f6d20746865207a65726f20616464726573604482015260f860020a6073026064820152608401610bbd565b600160a060020a038216600090815260336020526040902054818110156132445760405160e560020a62461bcd02815260206004820152602260248201527f45524332303a206275726e20616d6f756e7420657863656564732062616c616e604482015260f060020a616365026064820152608401610bbd565b61324e828261481d565b600160a060020a0384166000908152603360205260408120919091556035805484929061327c90849061481d565b9091555050604051828152600090600160a060020a0385169060008051602061493a83398151915290602001612862565b600054610100900460ff16806132c6575060005460ff16155b6132e55760405160e560020a62461bcd028152600401610bbd906145cd565b600054610100900460ff16158015613307576000805461ffff19166101011790555b61330f613abb565b6133198383613b28565b8015611d85576000805461ff0019169055505050565b6000808061334b64fb7504300061128c8664e8d4a51000612fdf565b9050600061336764e8d4a5100061128c84640df8475800612fdf565b609d54909150600090600160a060020a0316639f4ae6b0613386613a8e565b609954609b5463ffffffff908116906133a39089908990612abe16565b60405163ffffffff86811660e060020a0282529485166004820152602481019390935292166044820152606481019190915260840160206040518083038186803b1580156133f057600080fd5b505afa158015613404573d6000803e3d6000fd5b505050506040513d601f19601f8201168201806040525081019061342891906142e0565b94509092505050915091565b600160a060020a038216600090815260656020526040812080546134749190849081106128af5760e060020a634e487b7102600052603260045260246000fd5b156134945760405160e560020a62461bcd028152600401610bbd90614528565b600160a060020a0383166000908152606560205260409020805460029190849081106134d35760e060020a634e487b7102600052603260045260246000fd5b60009182526020909120600290910201805460ff1916600183600381111561350e5760e060020a634e487b7102600052602160045260246000fd5b02179055506000805160206148fa83398151915283836065600087600160a060020a0316600160a060020a03168152602001908152602001600020858154811061356b5760e060020a634e487b7102600052603260045260246000fd5b906000526020600020906002020160405161358893929190614399565b60405180910390a1600160a060020a03831660009081526065602052604090208054839081106135cb5760e060020a634e487b7102600052603260045260246000fd5b906000526020600020906002020160010154905092915050565b60a85460405160e060020a63a9059cbb028152600091600160a060020a03169063a9059cbb9061361b908690869060040161435c565b602060405180830381600087803b15801561363557600080fd5b505af1158015613649573d6000803e3d6000fd5b505050506040513d601f19601f8201168201806040525081019061366d9190613fd8565b905080611d855760405160e560020a62461bcd02815260206004820152601360248201527f726566756e6420746f6b656e206661696c6564000000000000000000000000006044820152606401610bbd565b60008060008060006136cf6119dc565b63ffffffff16116137255760405160e560020a62461bcd02815260206004820152601e60248201527f536f7272792c207468697320746f6b656e20697320736f6c64206f75742e00006044820152606401610bbd565b600085116137785760405160e560020a62461bcd02815260206004820152601960248201527f4465706f736974206d757374206265206e6f6e2d7a65726f2e000000000000006044820152606401610bbd565b6000806137856001613bc0565b91509150868211156137a6576000876000809550955095509550505061381d565b6137b1336001613c77565b6137c76137be8383612abe565b609954906129e8565b60995560408051600181526020810184905233917f5b55159a377d86da80a65140d62d994ddbb2cbd4bb2d1b59cb0827fecbe47cab910160405180910390a260016138128884612abe565b909650945090925090505b9193509193565b33600090815260a760205260409020805461383f90836129e8565b8155600381018054600181018255600091825260209091200182905560a15481546138749164e8d4a510009161128c91612fdf565b60019091015550565b600054610100900460ff1680613896575060005460ff16155b6138b55760405160e560020a62461bcd028152600401610bbd906145cd565b600054610100900460ff161580156138d7576000805461ffff19166101011790555b6138df613abb565b6138e7613d47565b8015611324576000805461ff001916905550565b600054610100900460ff1680613914575060005460ff16155b6139335760405160e560020a62461bcd028152600401610bbd906145cd565b600054610100900460ff16158015613955576000805461ffff19166101011790555b60008463ffffffff16116139ae5760405160e560020a62461bcd02815260206004820152601860248201527f496e76616c6964206d617820746f6b656e20636f756e742e00000000000000006044820152606401610bbd565b60008563ffffffff1611613a075760405160e560020a62461bcd02815260206004820152601560248201527f496e76616c6964207265736572766520726174696f00000000000000000000006044820152606401610bbd565b609d8054600160a060020a038816600160a060020a03199091161790556099829055609a829055609b805463ffffffff8681166401000000000267ffffffffffffffff19828816606060020a02166fffffffff00000000ffffffffffffffff1990931692909217908816171790558015612269576000805461ff0019169055505050505050565b609b54600090610fa39063ffffffff606060020a8204811691610dfe91604060020a909104168160355490565b600054610100900460ff1680613ad4575060005460ff16155b613af35760405160e560020a62461bcd028152600401610bbd906145cd565b600054610100900460ff161580156138e7576000805461ffff19166101011790558015611324576000805461ff001916905550565b600054610100900460ff1680613b41575060005460ff16155b613b605760405160e560020a62461bcd028152600401610bbd906145cd565b600054610100900460ff16158015613b82576000805461ffff19166101011790555b8251613b95906036906020860190613de6565b508151613ba9906037906020850190613de6565b508015611d85576000805461ff0019169055505050565b609d5460009081908190600160a060020a031663bff82d84613be0613a8e565b609954609b5460405163ffffffff85811660e060020a028252613c0b94939216908a90600401614773565b60206040518083038186803b158015613c2357600080fd5b505afa158015613c37573d6000803e3d6000fd5b505050506040513d601f19601f82011682018060405250810190613c5b919061428a565b90506000612ab264e8d4a5100061128c846412a05f2000612fdf565b600160a060020a038216613cd05760405160e560020a62461bcd02815260206004820152601f60248201527f45524332303a206d696e7420746f20746865207a65726f2061646472657373006044820152606401610bbd565b8060356000828254613ce2919061479b565b9091555050600160a060020a03821660009081526033602052604081208054839290613d0f90849061479b565b9091555050604051818152600160a060020a0383169060009060008051602061493a8339815191529060200160405180910390a35050565b600054610100900460ff1680613d60575060005460ff16155b613d7f5760405160e560020a62461bcd028152600401610bbd906145cd565b600054610100900460ff16158015613da1576000805461ffff19166101011790555b60668054600160a060020a03191633908117909155604051819060009060008051602061491a833981519152908290a3508015611324576000805461ff001916905550565b828054613df290614859565b90600052602060002090601f016020900481019282613e145760008555613e5a565b82601f10613e2d57805160ff1916838001178555613e5a565b82800160010185558215613e5a579182015b82811115613e5a578251825591602001919060010190613e3f565b50613e66929150613e6a565b5090565b5b80821115613e665760008155600101613e6b565b8035600160a060020a0381168114610e9f57600080fd5b600082601f830112613ea6578081fd5b813567ffffffffffffffff80821115613ec157613ec16148cd565b604051601f8301601f19908116603f01168101908282118183101715613ee957613ee96148cd565b81604052838152866020858801011115613f01578485fd5b8360208701602083013792830160200193909352509392505050565b8035610e9f816148e7565b600060208284031215613f39578081fd5b6129f482613e7f565b60008060408385031215613f54578081fd5b613f5d83613e7f565b9150613f6b60208401613e7f565b90509250929050565b600080600060608486031215613f88578081fd5b613f9184613e7f565b9250613f9f60208501613e7f565b9150604084013590509250925092565b60008060408385031215613fc1578182fd5b613fca83613e7f565b946020939093013593505050565b600060208284031215613fe9578081fd5b815180151581146129f4578182fd5b600060208284031215614009578081fd5b8135600481106129f4578182fd5b600080600080600080600060e0888a031215614031578283fd5b873567ffffffffffffffff80821115614048578485fd5b6140548b838c01613e96565b985060208a0135915080821115614069578485fd5b506140768a828b01613e96565b96505061408560408901613e7f565b94506060880135614095816148e7565b935060808801356140a5816148e7565b925060a08801356140b5816148e7565b8092505060c0880135905092959891949750929550565b6000806000806000806000806000806101408b8d0312156140eb578283fd5b8a3567ffffffffffffffff80821115614102578485fd5b61410e8e838f01613e96565b9b5060208d0135915080821115614123578485fd5b506141308d828e01613e96565b99505061413f60408c01613e7f565b975061414d60608c01613f1d565b965061415b60808c01613f1d565b955061416960a08c01613f1d565b945060c08b0135935060e08b013592506141866101008c01613e7f565b91506141956101208c01613e7f565b90509295989b9194979a5092959850565b60008060008060008060008060006101208a8c0312156141c4578485fd5b893567ffffffffffffffff808211156141db578687fd5b6141e78d838e01613e96565b9a5060208c01359150808211156141fc578687fd5b506142098c828d01613e96565b98505060408a013561421a816148e7565b965060608a013561422a816148e7565b955061423860808b01613f1d565b945060a08a0135935060c08a0135925061425460e08b01613e7f565b91506142636101008b01613e7f565b90509295985092959850929598565b600060208284031215614283578081fd5b5035919050565b60006020828403121561429b578081fd5b5051919050565b600080604083850312156142b4578182fd5b82359150613f6b60208401613e7f565b6000602082840312156142d5578081fd5b81356129f4816148e7565b6000602082840312156142f1578081fd5b81516129f4816148e7565b6004811061431e5760e060020a634e487b710260009081526021600452602490fd5b9052565b61432d8282516142fc565b60208181015163ffffffff1690830152604090810151910152565b600160a060020a0391909116815260200190565b600160a060020a03929092168252602082015260400190565b600160a060020a03841681526020810183905260a08101610ec16040830184614322565b600160a060020a038416815260208101839052815460a08201906143c36040840160ff83166142fc565b63ffffffff61010082041660608401525060018301546080830152949350505050565b6020808252825182820181905260009190848201906040850190845b8181101561442857614415838551614322565b9284019260609290920191600101614402565b50909695505050505050565b60208101610d1682846142fc565b6060810161445082866142fc565b63ffffffff93909316602082015260400152919050565b6000602080835283518082850152825b8181101561449357858101830151858201604001528201614477565b818111156144a45783604083870101525b50601f01601f1916929092016040019392505050565b6020808252600f908201527f496e76616c696420616464726573730000000000000000000000000000000000604082015260600190565b6020808252600d908201527f496e76616c696420627579657200000000000000000000000000000000000000604082015260600190565b60208082526011908201527f616c726561647920636f6d706c65746564000000000000000000000000000000604082015260600190565b6020808252600e908201527f696e76616c696420616d6f756e74000000000000000000000000000000000000604082015260600190565b6020808252600f908201527f696e76616c696420616464726573730000000000000000000000000000000000604082015260600190565b6020808252602e908201527f496e697469616c697a61626c653a20636f6e747261637420697320616c72656160408201527f647920696e697469616c697a6564000000000000000000000000000000000000606082015260800190565b60208082526011908201527f7065726d697373696f6e2064656e696564000000000000000000000000000000604082015260600190565b6020808252818101527f4f776e61626c653a2063616c6c6572206973206e6f7420746865206f776e6572604082015260600190565b60208082526013908201527f756e61626c6520746f207472616465206e6f7700000000000000000000000000604082015260600190565b60208082526018908201527f416d6f756e74206d757374206265206e6f6e2d7a65726f2e0000000000000000604082015260600190565b6000602080835260a0830184518285015281850151604085015260408501516060850152606085015160808086015281815180845260c08701915084830193508592505b808310156147685783518252928401926001929092019190840190614748565b509695505050505050565b63ffffffff948516815260208101939093529083166040830152909116606082015260800190565b600082198211156147ae576147ae6148b3565b500190565b600063ffffffff8083168185168083038211156147d2576147d26148b3565b01949350505050565b6000826147f95760e060020a634e487b710281526012600452602481fd5b500490565b6000816000190483118215151615614818576148186148b3565b500290565b60008282101561482f5761482f6148b3565b500390565b600063ffffffff83811690831681811015614851576148516148b3565b039392505050565b60028104600182168061486d57607f821691505b602082108114156148925760e060020a634e487b710260009081526022600452602490fd5b50919050565b60006000198214156148ac576148ac6148b3565b5060010190565b60e060020a634e487b710260009081526011600452602490fd5b60e060020a634e487b710260009081526041600452602490fd5b63ffffffff8116811461132457600080fdfe09c64bee251b684a6bb80ce179dd520c001481b7c3d7781f1502e3052af474cf8be0079c531659141344cd1fd0a4f28419497f9722a3daafe3b4186f6b6457e0ddf252ad1be2c89b69c2b068fc378daa952ba7f163c4a11628f55a4df523b3efa264697066735822122067c77f69446a9863519a89d3c954dc42d33f8cfd04d101911adab17e4151aeab64736f6c63430008030033",
  "immutableReferences": {},
  "source": "pragma solidity ^0.8.2;\n\nimport \"@openzeppelin/contracts-upgradeable/token/ERC20/ERC20Upgradeable.sol\";\nimport \"@openzeppelin/contracts-upgradeable/utils/math/SafeMathUpgradeable.sol\";\n\nimport \"../ProductToken.sol\";\nimport \"../ProductTokenV1.sol\";\nimport \"../Power.sol\";\n\n\ncontract ProductTokenV2 is ProductTokenV1 {\n  uint256 public newAttribute;\n\n  function getNewAttribute()\n  public view returns (uint256)\n  {\n    return newAttribute + 1;\n  }\n\n  function getPriceForN(uint32 _amountProduct) \n  \tpublic view override returns(uint256 price)\n  {\n  \treturn bondingCurve.calculatePriceForNTokens(_getTotalSupply(), reserveBalance, reserveRatio+50000, _amountProduct);\n  }\n\n    function getAvailability()\n     public view override returns (uint32 available)\n  {\n    return maxTokenCount - uint32(totalSupply()) - tradeinCount+100;   \n  }\n\n} \n\ncontract ProductTokenV3 is ProductTokenV2 {\n    using SafeMathUpgradeable for uint256;\n    uint32 private constant MAX_RESERVE_RATIO = 2000000;\n\n    function initializeV3(string memory _name, string memory _symbol, uint32 _reserveRatio, uint32 _maxTokenCount, uint32 _supplyOffset, uint256 _baseReserve, uint256 _newInitValue, address _daiAddress, address _chainlink) public  initializer {\n    }\n}\n\ncontract ProductTokenDestroy {\n\n}\n\ncontract ProductTokenV4 is ProductTokenV2 {\n\n}\n\ncontract ProductTokenV5 is ProductTokenV3 {\n  uint256  public newInitValue;\n/**\n   * @dev Constructor\n   *\n   * @param _reserveRatio             the reserve ratio in the curve function\n   * @param _maxTokenCount\t\t\t\t\t\tthe amount of token that will exist for this type.\n   * @param _supplyOffset             a initial amount of offset that drive the price to a starting price\n   * @param _baseReserve              the reserve balance when supply is 0. This is calculated based on the balance function, and evaluated at s = _supplyOffset\n  */\n  function initializeV5(string memory _name, string memory _symbol, address _bondingCurveAddress, uint32 _reserveRatio, uint32 _maxTokenCount, uint32 _supplyOffset, uint256 _baseReserve, uint256 _newInitValue, address _daiAddress, address _chainlink) public  initializer {\t\t\n    __ERC20_init(_name, _symbol);\n    // ProductToken.__ProductToken_init_unchained(_bondingCurveAddress, _reserveRatio, _maxTokenCount, _supplyOffset, _baseReserve);\n    // ProductTokenV1.__ProductToken_init_unchained(_daiAddress, _chainlink);\n    newInitValue= _newInitValue;\n  }\n  function getNewInitValue() public view returns(uint256){\n    return newInitValue;\n  }\n}\n",
  "sourcePath": "/Users/jack/Documents/GitHub/HighStreet/client/src/contracts/Mock/ProductTokenV2.sol",
  "compiler": {
    "name": "solc",
    "version": "0.8.3+commit.8d00100c.Emscripten.clang"
  },
  "schemaVersion": "3.4.0",
  "updatedAt": "2021-09-26T08:29:11.777Z",
  "devdoc": {
    "kind": "dev",
    "methods": {
      "allowance(address,address)": {
        "details": "See {IERC20-allowance}."
      },
      "approve(address,uint256)": {
        "details": "See {IERC20-approve}. Requirements: - `spender` cannot be the zero address."
      },
      "balanceOf(address)": {
        "details": "See {IERC20-balanceOf}."
      },
      "calculateBuyReturn(uint256)": {
        "details": "Function that computes number of product tokens one can buy given an amount in reserve token.",
        "params": {
          "_amountReserve": "purchaing amount in reserve token (dai)(with 4% platform fee)"
        },
        "returns": {
          "mintAmount": "             number of tokens in traded token that can be purchased by given amount."
        }
      },
      "calculateSellReturn(uint32)": {
        "details": "Function that computes selling price in reserve tokens given an amount in traded token.",
        "params": {
          "_amountProduct": "selling amount in product token"
        },
        "returns": {
          "soldAmount": "             total amount that will be transferred to the seller (with 2% platform fee)."
        }
      },
      "decimals()": {
        "details": "Returns the number of decimals used to get its user representation. For example, if `decimals` equals `2`, a balance of `505` tokens should be displayed to a user as `5,05` (`505 / 10 ** 2`). Tokens usually opt for a value of 18, imitating the relationship between Ether and Wei. This is the value {ERC20} uses, unless this function is overloaded; NOTE: This information is only used for _display_ purposes: it in no way affects any of the arithmetic of the contract, including {IERC20-balanceOf} and {IERC20-transfer}."
      },
      "decreaseAllowance(address,uint256)": {
        "details": "Atomically decreases the allowance granted to `spender` by the caller. This is an alternative to {approve} that can be used as a mitigation for problems described in {IERC20-approve}. Emits an {Approval} event indicating the updated allowance. Requirements: - `spender` cannot be the zero address. - `spender` must have allowance for the caller of at least `subtractedValue`."
      },
      "getAvailability()": {
        "details": "Function to check how many tokens of this product are currently available for purchase, by taking the difference between max cap count and current token in circulation or burned.",
        "returns": {
          "available": "               the number of tokens available"
        }
      },
      "getCurrentPrice()": {
        "details": "Function that computes current price for a token through bonding curve calculation based on parameters such as total supply, reserve balance, and reserve ratio.",
        "returns": {
          "price": "                  current price in reserve token (in our case, this is dai). (with 4% platform fee)"
        }
      },
      "getEscrowHistory(address)": {
        "details": "Return the list of all escrows created for a certain user",
        "params": {
          "_buyer": "The address of the buyer"
        },
        "returns": {
          "_0": "A list of past escrows"
        }
      },
      "getPriceForN(uint32)": {
        "details": "Function that computes price total for buying n token through bonding curve calculation based on parameters such as total supply, reserve balance, and reserve ratio.",
        "params": {
          "_amountProduct": "token amount in traded token"
        },
        "returns": {
          "price": "                  total price in reserve token (in our case, this is dai). (with 4% platform fee)"
        }
      },
      "getRedeemStatus(address,uint256)": {
        "details": "Get status of a particular redemption process",
        "params": {
          "_buyer": "The address of the buyer",
          "_id": "The cached id of the escrow, retrieved from database"
        },
        "returns": {
          "_0": "The current status"
        }
      },
      "getSupplierBalance()": {
        "details": "this function returns the amount of reserve balance that the supplier can withdraw from the dapp."
      },
      "increaseAllowance(address,uint256)": {
        "details": "Atomically increases the allowance granted to `spender` by the caller. This is an alternative to {approve} that can be used as a mitigation for problems described in {IERC20-approve}. Emits an {Approval} event indicating the updated allowance. Requirements: - `spender` cannot be the zero address."
      },
      "initialize(string,string,address,uint32,uint32,uint32,uint256)": {
        "details": "initializer function.",
        "params": {
          "_baseReserve": "the base amount of reserve tokens, in accordance to _supplyOffset.",
          "_maxTokenCount": "the amount of token that will exist for this type.",
          "_name": "the name of this token",
          "_reserveRatio": "the reserve ratio in the curve function. Number in parts per million",
          "_supplyOffset": "this amount is used to determine initial price.",
          "_symbol": "the symbol of this token"
        }
      },
      "initializeV5(string,string,address,uint32,uint32,uint32,uint256,uint256,address,address)": {
        "details": "Constructor",
        "params": {
          "_baseReserve": "the reserve balance when supply is 0. This is calculated based on the balance function, and evaluated at s = _supplyOffset",
          "_maxTokenCount": "the amount of token that will exist for this type.",
          "_reserveRatio": "the reserve ratio in the curve function",
          "_supplyOffset": "a initial amount of offset that drive the price to a starting price"
        }
      },
      "isStateCompleted(uint8)": {
        "details": "Helper function to check whether a escrow state is completed",
        "params": {
          "_state": "The state to be checked"
        }
      },
      "launch()": {
        "details": "requires function to be called from owner. this enables customers to buy, sell, or redeem the product."
      },
      "name()": {
        "details": "Returns the name of the token."
      },
      "owner()": {
        "details": "Returns the address of the current owner."
      },
      "pause()": {
        "details": "requires function to be called from owner. this prevents customers from buying, selling, or redeeming the product."
      },
      "renounceOwnership()": {
        "details": "Leaves the contract without owner. It will not be possible to call `onlyOwner` functions anymore. Can only be called by the current owner. NOTE: Renouncing ownership will leave the contract without an owner, thereby removing any functionality that is only available to the owner."
      },
      "setBondingCurve(address)": {
        "details": "requires function to be called from owner. sets a bonding curve implementation for this product.",
        "params": {
          "_address": "the address of the bonding curve implementation"
        }
      },
      "symbol()": {
        "details": "Returns the symbol of the token, usually a shorter version of the name."
      },
      "totalSupply()": {
        "details": "See {IERC20-totalSupply}."
      },
      "tradein(uint32)": {
        "details": "When user wants to trade in their token for retail product",
        "params": {
          "amount_": "amount of tokens that user wants to trade in."
        }
      },
      "transfer(address,uint256)": {
        "details": "See {IERC20-transfer}. Requirements: - `recipient` cannot be the zero address. - the caller must have a balance of at least `amount`."
      },
      "transferFrom(address,address,uint256)": {
        "details": "See {IERC20-transferFrom}. Emits an {Approval} event indicating the updated allowance. This is not required by the EIP. See the note at the beginning of {ERC20}. Requirements: - `sender` and `recipient` cannot be the zero address. - `sender` must have a balance of at least `amount`. - the caller must have allowance for ``sender``'s tokens of at least `amount`."
      },
      "transferOwnership(address)": {
        "details": "Transfers ownership of the contract to a new account (`newOwner`). Can only be called by the current owner."
      },
      "updateUserCompleted(address,uint256)": {
        "details": "used to update the status of redemption to \"User Complete\" after an escrow process has been started.",
        "params": {
          "buyer": "the wallet address of product buyer",
          "id": "the id of the escrow, returned to the user after starting of redemption process"
        }
      },
      "updateUserRefund(address,uint256)": {
        "details": "used to update the status of redemption to \"User Refunded\" after an escrow process has been started.",
        "params": {
          "buyer": "the wallet address of product buyer",
          "id": "the id of the escrow, returned to the user after starting of redemption process"
        }
      },
      "withdrawEther(uint256)": {
        "details": "A method allow us to withdraw liquidity (eth) from the contract Since eth is not used as a return currency, we need to withdraw eth from the system.",
        "params": {
          "value_": "the value of ether"
        }
      }
    },
    "version": 1
  },
  "userdoc": {
    "kind": "user",
    "methods": {},
    "version": 1
  }
}