{
  "contractName": "ProductTokenV3",
  "abi": [
    {
      "anonymous": false,
      "inputs": [
        {
          "indexed": true,
          "internalType": "address",
          "name": "owner",
          "type": "address"
        },
        {
          "indexed": true,
          "internalType": "address",
          "name": "spender",
          "type": "address"
        },
        {
          "indexed": false,
          "internalType": "uint256",
          "name": "value",
          "type": "uint256"
        }
      ],
      "name": "Approval",
      "type": "event"
    },
    {
      "anonymous": false,
      "inputs": [
        {
          "indexed": true,
          "internalType": "address",
          "name": "sender",
          "type": "address"
        },
        {
          "indexed": false,
          "internalType": "uint32",
          "name": "amount",
          "type": "uint32"
        },
        {
          "indexed": false,
          "internalType": "uint256",
          "name": "deposit",
          "type": "uint256"
        }
      ],
      "name": "Buy",
      "type": "event"
    },
    {
      "anonymous": false,
      "inputs": [
        {
          "indexed": true,
          "internalType": "address",
          "name": "previousOwner",
          "type": "address"
        },
        {
          "indexed": true,
          "internalType": "address",
          "name": "newOwner",
          "type": "address"
        }
      ],
      "name": "OwnershipTransferred",
      "type": "event"
    },
    {
      "anonymous": false,
      "inputs": [
        {
          "indexed": true,
          "internalType": "address",
          "name": "sender",
          "type": "address"
        },
        {
          "indexed": false,
          "internalType": "uint32",
          "name": "amount",
          "type": "uint32"
        },
        {
          "indexed": false,
          "internalType": "uint256",
          "name": "refund",
          "type": "uint256"
        }
      ],
      "name": "Sell",
      "type": "event"
    },
    {
      "anonymous": false,
      "inputs": [
        {
          "indexed": false,
          "internalType": "bool",
          "name": "isTradable",
          "type": "bool"
        }
      ],
      "name": "Tradable",
      "type": "event"
    },
    {
      "anonymous": false,
      "inputs": [
        {
          "indexed": true,
          "internalType": "address",
          "name": "sender",
          "type": "address"
        },
        {
          "indexed": false,
          "internalType": "uint32",
          "name": "amount",
          "type": "uint32"
        }
      ],
      "name": "Tradein",
      "type": "event"
    },
    {
      "anonymous": false,
      "inputs": [
        {
          "indexed": true,
          "internalType": "address",
          "name": "from",
          "type": "address"
        },
        {
          "indexed": true,
          "internalType": "address",
          "name": "to",
          "type": "address"
        },
        {
          "indexed": false,
          "internalType": "uint256",
          "name": "value",
          "type": "uint256"
        }
      ],
      "name": "Transfer",
      "type": "event"
    },
    {
      "anonymous": false,
      "inputs": [
        {
          "indexed": false,
          "internalType": "address",
          "name": "",
          "type": "address"
        },
        {
          "indexed": false,
          "internalType": "uint256",
          "name": "",
          "type": "uint256"
        },
        {
          "components": [
            {
              "internalType": "enum Escrow.escrowState",
              "name": "state",
              "type": "uint8"
            },
            {
              "internalType": "uint32",
              "name": "amount",
              "type": "uint32"
            },
            {
              "internalType": "uint256",
              "name": "value",
              "type": "uint256"
            }
          ],
          "indexed": false,
          "internalType": "struct Escrow.escrowInfo",
          "name": "",
          "type": "tuple"
        }
      ],
      "name": "escrowStateUpdated",
      "type": "event"
    },
    {
      "stateMutability": "nonpayable",
      "type": "fallback"
    },
    {
      "inputs": [
        {
          "internalType": "uint32",
          "name": "_amountProduct",
          "type": "uint32"
        }
      ],
      "name": "_getPriceForN",
      "outputs": [
        {
          "internalType": "uint256",
          "name": "price",
          "type": "uint256"
        },
        {
          "internalType": "uint256",
          "name": "fee",
          "type": "uint256"
        }
      ],
      "stateMutability": "view",
      "type": "function"
    },
    {
      "inputs": [
        {
          "internalType": "address",
          "name": "owner",
          "type": "address"
        },
        {
          "internalType": "address",
          "name": "spender",
          "type": "address"
        }
      ],
      "name": "allowance",
      "outputs": [
        {
          "internalType": "uint256",
          "name": "",
          "type": "uint256"
        }
      ],
      "stateMutability": "view",
      "type": "function"
    },
    {
      "inputs": [
        {
          "internalType": "address",
          "name": "spender",
          "type": "address"
        },
        {
          "internalType": "uint256",
          "name": "amount",
          "type": "uint256"
        }
      ],
      "name": "approve",
      "outputs": [
        {
          "internalType": "bool",
          "name": "",
          "type": "bool"
        }
      ],
      "stateMutability": "nonpayable",
      "type": "function"
    },
    {
      "inputs": [
        {
          "internalType": "address",
          "name": "account",
          "type": "address"
        }
      ],
      "name": "balanceOf",
      "outputs": [
        {
          "internalType": "uint256",
          "name": "",
          "type": "uint256"
        }
      ],
      "stateMutability": "view",
      "type": "function"
    },
    {
      "inputs": [
        {
          "internalType": "uint256",
          "name": "maxPrice_",
          "type": "uint256"
        }
      ],
      "name": "buy",
      "outputs": [],
      "stateMutability": "nonpayable",
      "type": "function"
    },
    {
      "inputs": [
        {
          "internalType": "uint256",
          "name": "_amountReserve",
          "type": "uint256"
        }
      ],
      "name": "calculateBuyReturn",
      "outputs": [
        {
          "internalType": "uint32",
          "name": "mintAmount",
          "type": "uint32"
        }
      ],
      "stateMutability": "view",
      "type": "function"
    },
    {
      "inputs": [
        {
          "internalType": "uint32",
          "name": "_amountProduct",
          "type": "uint32"
        }
      ],
      "name": "calculateSellReturn",
      "outputs": [
        {
          "internalType": "uint256",
          "name": "soldAmount",
          "type": "uint256"
        }
      ],
      "stateMutability": "view",
      "type": "function"
    },
    {
      "inputs": [
        {
          "internalType": "uint32",
          "name": "_amount",
          "type": "uint32"
        }
      ],
      "name": "calculateTradinReturn",
      "outputs": [
        {
          "internalType": "uint256",
          "name": "",
          "type": "uint256"
        }
      ],
      "stateMutability": "view",
      "type": "function"
    },
    {
      "inputs": [
        {
          "internalType": "uint256",
          "name": "amount_",
          "type": "uint256"
        }
      ],
      "name": "claimSupplier",
      "outputs": [],
      "stateMutability": "nonpayable",
      "type": "function"
    },
    {
      "inputs": [],
      "name": "decimals",
      "outputs": [
        {
          "internalType": "uint8",
          "name": "",
          "type": "uint8"
        }
      ],
      "stateMutability": "view",
      "type": "function"
    },
    {
      "inputs": [
        {
          "internalType": "address",
          "name": "spender",
          "type": "address"
        },
        {
          "internalType": "uint256",
          "name": "subtractedValue",
          "type": "uint256"
        }
      ],
      "name": "decreaseAllowance",
      "outputs": [
        {
          "internalType": "bool",
          "name": "",
          "type": "bool"
        }
      ],
      "stateMutability": "nonpayable",
      "type": "function"
    },
    {
      "inputs": [
        {
          "internalType": "address",
          "name": "",
          "type": "address"
        },
        {
          "internalType": "uint256",
          "name": "",
          "type": "uint256"
        }
      ],
      "name": "escrowList",
      "outputs": [
        {
          "internalType": "enum Escrow.escrowState",
          "name": "state",
          "type": "uint8"
        },
        {
          "internalType": "uint32",
          "name": "amount",
          "type": "uint32"
        },
        {
          "internalType": "uint256",
          "name": "value",
          "type": "uint256"
        }
      ],
      "stateMutability": "view",
      "type": "function"
    },
    {
      "inputs": [],
      "name": "getAvailability",
      "outputs": [
        {
          "internalType": "uint32",
          "name": "available",
          "type": "uint32"
        }
      ],
      "stateMutability": "view",
      "type": "function"
    },
    {
      "inputs": [],
      "name": "getCurrentPrice",
      "outputs": [
        {
          "internalType": "uint256",
          "name": "price",
          "type": "uint256"
        }
      ],
      "stateMutability": "view",
      "type": "function"
    },
    {
      "inputs": [
        {
          "internalType": "address",
          "name": "_buyer",
          "type": "address"
        }
      ],
      "name": "getEscrowHistory",
      "outputs": [
        {
          "components": [
            {
              "internalType": "enum Escrow.escrowState",
              "name": "state",
              "type": "uint8"
            },
            {
              "internalType": "uint32",
              "name": "amount",
              "type": "uint32"
            },
            {
              "internalType": "uint256",
              "name": "value",
              "type": "uint256"
            }
          ],
          "internalType": "struct Escrow.escrowInfo[]",
          "name": "",
          "type": "tuple[]"
        }
      ],
      "stateMutability": "view",
      "type": "function"
    },
    {
      "inputs": [],
      "name": "getManager",
      "outputs": [
        {
          "internalType": "address",
          "name": "",
          "type": "address"
        }
      ],
      "stateMutability": "view",
      "type": "function"
    },
    {
      "inputs": [],
      "name": "getNewAttribute",
      "outputs": [
        {
          "internalType": "uint256",
          "name": "",
          "type": "uint256"
        }
      ],
      "stateMutability": "view",
      "type": "function"
    },
    {
      "inputs": [],
      "name": "getPoolInfo",
      "outputs": [
        {
          "components": [
            {
              "internalType": "uint256",
              "name": "amount",
              "type": "uint256"
            },
            {
              "internalType": "uint256",
              "name": "accRewardPerShare",
              "type": "uint256"
            },
            {
              "internalType": "uint256",
              "name": "tokenReward",
              "type": "uint256"
            }
          ],
          "internalType": "struct ProductTokenV1.PoolInfo",
          "name": "",
          "type": "tuple"
        }
      ],
      "stateMutability": "view",
      "type": "function"
    },
    {
      "inputs": [
        {
          "internalType": "uint32",
          "name": "_amountProduct",
          "type": "uint32"
        }
      ],
      "name": "getPriceForN",
      "outputs": [
        {
          "internalType": "uint256",
          "name": "price",
          "type": "uint256"
        }
      ],
      "stateMutability": "view",
      "type": "function"
    },
    {
      "inputs": [
        {
          "internalType": "address",
          "name": "_buyer",
          "type": "address"
        },
        {
          "internalType": "uint256",
          "name": "_id",
          "type": "uint256"
        }
      ],
      "name": "getRedeemStatus",
      "outputs": [
        {
          "internalType": "enum Escrow.escrowState",
          "name": "",
          "type": "uint8"
        }
      ],
      "stateMutability": "view",
      "type": "function"
    },
    {
      "inputs": [],
      "name": "getSupplierBalance",
      "outputs": [
        {
          "internalType": "uint256",
          "name": "",
          "type": "uint256"
        }
      ],
      "stateMutability": "view",
      "type": "function"
    },
    {
      "inputs": [],
      "name": "getSupplierInfo",
      "outputs": [
        {
          "components": [
            {
              "internalType": "uint256",
              "name": "amount",
              "type": "uint256"
            },
            {
              "internalType": "address",
              "name": "wallet",
              "type": "address"
            }
          ],
          "internalType": "struct ProductTokenV1.supplierInfo",
          "name": "",
          "type": "tuple"
        }
      ],
      "stateMutability": "view",
      "type": "function"
    },
    {
      "inputs": [
        {
          "internalType": "address",
          "name": "addr_",
          "type": "address"
        }
      ],
      "name": "getUserInfo",
      "outputs": [
        {
          "components": [
            {
              "internalType": "uint256",
              "name": "amount",
              "type": "uint256"
            },
            {
              "internalType": "uint256",
              "name": "rewardDebt",
              "type": "uint256"
            },
            {
              "internalType": "uint256",
              "name": "lastReward",
              "type": "uint256"
            },
            {
              "internalType": "uint256[]",
              "name": "records",
              "type": "uint256[]"
            }
          ],
          "internalType": "struct ProductTokenV1.UserInfo",
          "name": "",
          "type": "tuple"
        }
      ],
      "stateMutability": "view",
      "type": "function"
    },
    {
      "inputs": [
        {
          "internalType": "address",
          "name": "addr_",
          "type": "address"
        }
      ],
      "name": "getUserReward",
      "outputs": [
        {
          "internalType": "uint256",
          "name": "",
          "type": "uint256"
        }
      ],
      "stateMutability": "view",
      "type": "function"
    },
    {
      "inputs": [
        {
          "internalType": "address",
          "name": "spender",
          "type": "address"
        },
        {
          "internalType": "uint256",
          "name": "addedValue",
          "type": "uint256"
        }
      ],
      "name": "increaseAllowance",
      "outputs": [
        {
          "internalType": "bool",
          "name": "",
          "type": "bool"
        }
      ],
      "stateMutability": "nonpayable",
      "type": "function"
    },
    {
      "inputs": [
        {
          "internalType": "string",
          "name": "_name",
          "type": "string"
        },
        {
          "internalType": "string",
          "name": "_symbol",
          "type": "string"
        },
        {
          "internalType": "address",
          "name": "_bondingCurveAddress",
          "type": "address"
        },
        {
          "internalType": "uint32",
          "name": "_reserveRatio",
          "type": "uint32"
        },
        {
          "internalType": "uint32",
          "name": "_maxTokenCount",
          "type": "uint32"
        },
        {
          "internalType": "uint32",
          "name": "_supplyOffset",
          "type": "uint32"
        },
        {
          "internalType": "uint256",
          "name": "_baseReserve",
          "type": "uint256"
        }
      ],
      "name": "initialize",
      "outputs": [],
      "stateMutability": "nonpayable",
      "type": "function"
    },
    {
      "inputs": [
        {
          "internalType": "enum Escrow.escrowState",
          "name": "_state",
          "type": "uint8"
        }
      ],
      "name": "isStateCompleted",
      "outputs": [
        {
          "internalType": "bool",
          "name": "",
          "type": "bool"
        }
      ],
      "stateMutability": "pure",
      "type": "function"
    },
    {
      "inputs": [],
      "name": "launch",
      "outputs": [],
      "stateMutability": "nonpayable",
      "type": "function"
    },
    {
      "inputs": [],
      "name": "maxTokenCount",
      "outputs": [
        {
          "internalType": "uint32",
          "name": "",
          "type": "uint32"
        }
      ],
      "stateMutability": "view",
      "type": "function"
    },
    {
      "inputs": [],
      "name": "name",
      "outputs": [
        {
          "internalType": "string",
          "name": "",
          "type": "string"
        }
      ],
      "stateMutability": "view",
      "type": "function"
    },
    {
      "inputs": [],
      "name": "newAttribute",
      "outputs": [
        {
          "internalType": "uint256",
          "name": "",
          "type": "uint256"
        }
      ],
      "stateMutability": "view",
      "type": "function"
    },
    {
      "inputs": [],
      "name": "owner",
      "outputs": [
        {
          "internalType": "address",
          "name": "",
          "type": "address"
        }
      ],
      "stateMutability": "view",
      "type": "function"
    },
    {
      "inputs": [],
      "name": "pause",
      "outputs": [],
      "stateMutability": "nonpayable",
      "type": "function"
    },
    {
      "inputs": [],
      "name": "poolInfo",
      "outputs": [
        {
          "internalType": "uint256",
          "name": "amount",
          "type": "uint256"
        },
        {
          "internalType": "uint256",
          "name": "accRewardPerShare",
          "type": "uint256"
        },
        {
          "internalType": "uint256",
          "name": "tokenReward",
          "type": "uint256"
        }
      ],
      "stateMutability": "view",
      "type": "function"
    },
    {
      "inputs": [],
      "name": "renounceOwnership",
      "outputs": [],
      "stateMutability": "nonpayable",
      "type": "function"
    },
    {
      "inputs": [],
      "name": "reserveBalance",
      "outputs": [
        {
          "internalType": "uint256",
          "name": "",
          "type": "uint256"
        }
      ],
      "stateMutability": "view",
      "type": "function"
    },
    {
      "inputs": [],
      "name": "reserveRatio",
      "outputs": [
        {
          "internalType": "uint32",
          "name": "",
          "type": "uint32"
        }
      ],
      "stateMutability": "view",
      "type": "function"
    },
    {
      "inputs": [
        {
          "internalType": "uint32",
          "name": "amount_",
          "type": "uint32"
        }
      ],
      "name": "sell",
      "outputs": [],
      "stateMutability": "nonpayable",
      "type": "function"
    },
    {
      "inputs": [
        {
          "internalType": "address",
          "name": "_address",
          "type": "address"
        }
      ],
      "name": "setBondingCurve",
      "outputs": [],
      "stateMutability": "nonpayable",
      "type": "function"
    },
    {
      "inputs": [
        {
          "internalType": "address",
          "name": "highAddress_",
          "type": "address"
        }
      ],
      "name": "setHigh",
      "outputs": [],
      "stateMutability": "nonpayable",
      "type": "function"
    },
    {
      "inputs": [
        {
          "internalType": "address",
          "name": "addr_",
          "type": "address"
        }
      ],
      "name": "setManager",
      "outputs": [],
      "stateMutability": "nonpayable",
      "type": "function"
    },
    {
      "inputs": [],
      "name": "supplier",
      "outputs": [
        {
          "internalType": "uint256",
          "name": "amount",
          "type": "uint256"
        },
        {
          "internalType": "address",
          "name": "wallet",
          "type": "address"
        }
      ],
      "stateMutability": "view",
      "type": "function"
    },
    {
      "inputs": [],
      "name": "symbol",
      "outputs": [
        {
          "internalType": "string",
          "name": "",
          "type": "string"
        }
      ],
      "stateMutability": "view",
      "type": "function"
    },
    {
      "inputs": [],
      "name": "totalSupply",
      "outputs": [
        {
          "internalType": "uint256",
          "name": "",
          "type": "uint256"
        }
      ],
      "stateMutability": "view",
      "type": "function"
    },
    {
      "inputs": [
        {
          "internalType": "uint32",
          "name": "amount_",
          "type": "uint32"
        }
      ],
      "name": "tradein",
      "outputs": [],
      "stateMutability": "nonpayable",
      "type": "function"
    },
    {
      "inputs": [],
      "name": "tradeinCount",
      "outputs": [
        {
          "internalType": "uint32",
          "name": "",
          "type": "uint32"
        }
      ],
      "stateMutability": "view",
      "type": "function"
    },
    {
      "inputs": [],
      "name": "tradeinReserveBalance",
      "outputs": [
        {
          "internalType": "uint256",
          "name": "",
          "type": "uint256"
        }
      ],
      "stateMutability": "view",
      "type": "function"
    },
    {
      "inputs": [
        {
          "internalType": "address",
          "name": "recipient",
          "type": "address"
        },
        {
          "internalType": "uint256",
          "name": "amount",
          "type": "uint256"
        }
      ],
      "name": "transfer",
      "outputs": [
        {
          "internalType": "bool",
          "name": "",
          "type": "bool"
        }
      ],
      "stateMutability": "nonpayable",
      "type": "function"
    },
    {
      "inputs": [
        {
          "internalType": "address",
          "name": "sender",
          "type": "address"
        },
        {
          "internalType": "address",
          "name": "recipient",
          "type": "address"
        },
        {
          "internalType": "uint256",
          "name": "amount",
          "type": "uint256"
        }
      ],
      "name": "transferFrom",
      "outputs": [
        {
          "internalType": "bool",
          "name": "",
          "type": "bool"
        }
      ],
      "stateMutability": "nonpayable",
      "type": "function"
    },
    {
      "inputs": [
        {
          "internalType": "address",
          "name": "newOwner",
          "type": "address"
        }
      ],
      "name": "transferOwnership",
      "outputs": [],
      "stateMutability": "nonpayable",
      "type": "function"
    },
    {
      "inputs": [
        {
          "internalType": "uint256",
          "name": "fee_",
          "type": "uint256"
        }
      ],
      "name": "updatePool",
      "outputs": [],
      "stateMutability": "nonpayable",
      "type": "function"
    },
    {
      "inputs": [
        {
          "internalType": "address",
          "name": "wallet_",
          "type": "address"
        }
      ],
      "name": "updateSupplierInfo",
      "outputs": [],
      "stateMutability": "nonpayable",
      "type": "function"
    },
    {
      "inputs": [
        {
          "internalType": "address",
          "name": "buyer",
          "type": "address"
        },
        {
          "internalType": "uint256",
          "name": "id",
          "type": "uint256"
        }
      ],
      "name": "updateUserCompleted",
      "outputs": [],
      "stateMutability": "nonpayable",
      "type": "function"
    },
    {
      "inputs": [
        {
          "internalType": "address",
          "name": "buyer",
          "type": "address"
        },
        {
          "internalType": "uint256",
          "name": "id",
          "type": "uint256"
        }
      ],
      "name": "updateUserRefund",
      "outputs": [],
      "stateMutability": "nonpayable",
      "type": "function"
    },
    {
      "inputs": [
        {
          "internalType": "address",
          "name": "",
          "type": "address"
        }
      ],
      "name": "userInfo",
      "outputs": [
        {
          "internalType": "uint256",
          "name": "amount",
          "type": "uint256"
        },
        {
          "internalType": "uint256",
          "name": "rewardDebt",
          "type": "uint256"
        },
        {
          "internalType": "uint256",
          "name": "lastReward",
          "type": "uint256"
        }
      ],
      "stateMutability": "view",
      "type": "function"
    },
    {
      "inputs": [],
      "name": "voucher",
      "outputs": [
        {
          "internalType": "address",
          "name": "addr",
          "type": "address"
        },
        {
          "internalType": "contract IVNFT",
          "name": "instance",
          "type": "address"
        },
        {
          "internalType": "uint256",
          "name": "tokenId",
          "type": "uint256"
        },
        {
          "internalType": "bool",
          "name": "isEnable",
          "type": "bool"
        }
      ],
      "stateMutability": "view",
      "type": "function"
    },
    {
      "inputs": [
        {
          "internalType": "uint256",
          "name": "value_",
          "type": "uint256"
        }
      ],
      "name": "withdrawEther",
      "outputs": [],
      "stateMutability": "payable",
      "type": "function"
    },
    {
      "inputs": [
        {
          "internalType": "uint256",
          "name": "amount_",
          "type": "uint256"
        },
        {
          "internalType": "address",
          "name": "to_",
          "type": "address"
        }
      ],
      "name": "withdrawHigh",
      "outputs": [],
      "stateMutability": "nonpayable",
      "type": "function"
    },
    {
      "inputs": [
        {
          "internalType": "string",
          "name": "_name",
          "type": "string"
        },
        {
          "internalType": "string",
          "name": "_symbol",
          "type": "string"
        },
        {
          "internalType": "uint32",
          "name": "_reserveRatio",
          "type": "uint32"
        },
        {
          "internalType": "uint32",
          "name": "_maxTokenCount",
          "type": "uint32"
        },
        {
          "internalType": "uint32",
          "name": "_supplyOffset",
          "type": "uint32"
        },
        {
          "internalType": "uint256",
          "name": "_baseReserve",
          "type": "uint256"
        },
        {
          "internalType": "uint256",
          "name": "_newInitValue",
          "type": "uint256"
        },
        {
          "internalType": "address",
          "name": "_daiAddress",
          "type": "address"
        },
        {
          "internalType": "address",
          "name": "_chainlink",
          "type": "address"
        }
      ],
      "name": "initializeV3",
      "outputs": [],
      "stateMutability": "nonpayable",
      "type": "function"
    }
  ],
  "bytecode": "0x608060405234801561001057600080fd5b506147f1806100206000396000f3fe6080604052600436106102d05760003560e060020a9004806374a7b01211610180578063c757d4c7116100d6578063c757d4c714610914578063c75ebb8214610934578063cdda418c14610954578063d0ebdbe7146109b3578063d5009584146109d3578063d96a094a146109f1578063dd304b1a14610a11578063dd62ed3e14610a3e578063deebbef114610a84578063e67dc51814610aa4578063eb91d37e14610aba578063ebc9e4d614610acf578063efea8a1314610aef578063f2fde38b14610b0f578063f97511d314610b2f576102d0565b806374a7b012146106f95780637a53e0401461075b578063828f3a9c146107705780638456cb59146107905780638da5cb5b146107a557806395d89b41146107c7578063964a6afe146107dc5780639b9ffbf3146107f1578063a10954fe14610820578063a457c2d714610836578063a8d9262914610856578063a9059cbb14610876578063af22803e14610896578063ba7a93b6146108cb578063c4e627c2146108ef576102d0565b80633bed33ce116102355780633bed33ce1461050b57806343ff1fb81461051e578063483335a11461053e578063491052cd146105545780634ffd23a71461057457806351eb05a6146105945780635a2f3d09146105b45780635c8ea093146105d35780635e88752c146105f357806360246c88146106135780636386c1c71461064a57806363c51fbb146106775780636e74607b1461069757806370a08231146106c4578063715018a6146106e4576102d0565b806301339c21146102df57806306fdde03146102f6578063095ea7b3146103215780630c7d5cd8146103515780630ccee99b1461038357806318160ddd146103a35780631959a002146103c257806319d5b58714610419578063224e4f481461043957806323b872dd146104595780632f0a3fe414610479578063313ce5671461048e57806336da4468146104aa57806339509351146104eb575b3480156102dc57600080fd5b50005b3480156102eb57600080fd5b506102f4610b4f565b005b34801561030257600080fd5b5061030b610c37565b60405161031891906142c9565b60405180910390f35b34801561032d57600080fd5b5061034161033c366004613eeb565b610cc9565b6040519015158152602001610318565b34801561035d57600080fd5b50609b5461036e9063ffffffff1681565b60405163ffffffff9091168152602001610318565b34801561038f57600080fd5b506102f461039e366004613eeb565b610ce0565b3480156103af57600080fd5b506035545b604051908152602001610318565b3480156103ce57600080fd5b506103fe6103dd366004613e64565b60a76020526000908152604090208054600182015460029092015490919083565b60408051938452602084019290925290820152606001610318565b34801561042557600080fd5b506103b4610434366004614126565b610d67565b34801561044557600080fd5b506103b4610454366004614126565b610e68565b34801561046557600080fd5b50610341610474366004613eb0565b610e8d565b34801561048557600080fd5b506103b4610f56565b34801561049a57600080fd5b5060405160008152602001610318565b3480156104b657600080fd5b50609e54609f546104ce9190600160a060020a031682565b60408051928352600160a060020a03909116602083015201610318565b3480156104f757600080fd5b50610341610506366004613eeb565b610f6c565b6102f46105193660046140d4565b610fa3565b34801561052a57600080fd5b506102f4610539366004613e64565b611053565b34801561054a57600080fd5b506103b460a95481565b34801561056057600080fd5b5061034161056f366004613f34565b6110d0565b34801561058057600080fd5b506102f461058f366004614126565b61112a565b3480156105a057600080fd5b506102f46105af3660046140d4565b6112b1565b3480156105c057600080fd5b5060a05460a15460a2546103fe92919083565b3480156105df57600080fd5b506102f46105ee366004614008565b6112eb565b3480156105ff57600080fd5b506102f461060e3660046140d4565b611363565b34801561061f57600080fd5b506106286114c8565b6040805182518152602080840151908201529181015190820152606001610318565b34801561065657600080fd5b5061066a610665366004613e64565b611511565b6040516103189190614566565b34801561068357600080fd5b506102f4610692366004614126565b6115fe565b3480156106a357600080fd5b506106b76106b2366004613e64565b6117ad565b6040516103189190614248565b3480156106d057600080fd5b506103b46106df366004613e64565b611893565b3480156106f057600080fd5b506102f46118ae565b34801561070557600080fd5b5060408051808201825260008082526020918201528151808301909252609e548252609f54600160a060020a0316908201526040805182518152602092830151600160a060020a03169281019290925201610318565b34801561076757600080fd5b5061036e611918565b34801561077c57600080fd5b5061036e61078b3660046140d4565b611964565b34801561079c57600080fd5b506102f4611978565b3480156107b157600080fd5b506107ba611a49565b60405161031891906141aa565b3480156107d357600080fd5b5061030b611a58565b3480156107e857600080fd5b50609e546103b4565b3480156107fd57600080fd5b5061081161080c366004613eeb565b611a67565b604051610318939291906142a4565b34801561082c57600080fd5b506103b460995481565b34801561084257600080fd5b50610341610851366004613eeb565b611ab2565b34801561086257600080fd5b506102f4610871366004613e64565b611b53565b34801561088257600080fd5b50610341610891366004613eeb565b611bd0565b3480156108a257600080fd5b506108b66108b1366004614126565b611bdd565b60408051928352602083019190915201610318565b3480156108d757600080fd5b50609b5461036e90604060020a900463ffffffff1681565b3480156108fb57600080fd5b50609b5461036e90640100000000900463ffffffff1681565b34801561092057600080fd5b506102f461092f366004613eeb565b611ca0565b34801561094057600080fd5b506103b461094f366004613e64565b611d89565b34801561096057600080fd5b5060a35460a45460a55460a65461098693600160a060020a039081169316919060ff1684565b60408051600160a060020a0395861681529490931660208501529183015215156060820152608001610318565b3480156109bf57600080fd5b506102f46109ce366004613e64565b611dfd565b3480156109df57600080fd5b50609c54600160a060020a03166107ba565b3480156109fd57600080fd5b506102f4610a0c3660046140d4565b611e7a565b348015610a1d57600080fd5b50610a31610a2c366004613eeb565b612270565b6040516103189190614296565b348015610a4a57600080fd5b506103b4610a59366004613e7e565b600160a060020a03918216600090815260346020908152604080832093909416825291909152205490565b348015610a9057600080fd5b506102f4610a9f366004613e64565b6122c6565b348015610ab057600080fd5b506103b4609a5481565b348015610ac657600080fd5b506103b4612373565b348015610adb57600080fd5b506102f4610aea366004614104565b61237f565b348015610afb57600080fd5b506102f4610b0a366004613f53565b612506565b348015610b1b57600080fd5b506102f4610b2a366004613e64565b61259b565b348015610b3b57600080fd5b506103b4610b4a366004614126565b612696565b33610b58611a49565b600160a060020a031614610b8a5760405160e560020a62461bcd028152600401610b81906144c3565b60405180910390fd5b60985460ff1615610bf15760405160e560020a62461bcd02815260206004820152602560248201527f5468652070726f6475637420746f6b656e20697320616c7265616479206c6175604482015260da60020a641b98da1959026064820152608401610b81565b6098805460ff191660019081179091556040519081527f65c5ccecef030677b73a1403e7e69ef84d05db9d1732959d543d32f4419909b8906020015b60405180910390a1565b606060368054610c46906146bb565b80601f0160208091040260200160405190810160405280929190818152602001828054610c72906146bb565b8015610cbf5780601f10610c9457610100808354040283529160200191610cbf565b820191906000526020600020905b815481529060010190602001808311610ca257829003601f168201915b5050505050905090565b6000610cd633848461273d565b5060015b92915050565b610ce8611a49565b600160a060020a031633600160a060020a03161480610d115750609c54600160a060020a031633145b610d305760405160e560020a62461bcd028152600401610b819061448c565b600160a060020a038216610d595760405160e560020a62461bcd028152600401610b8190614353565b610d63828261286e565b5050565b6000808263ffffffff1611610d915760405160e560020a62461bcd028152600401610b81906143c1565b609b54600090610dc89063ffffffff606060020a8204811691610dc29187811691604060020a90048116906129e716565b906129e7565b609d54609a54609b5460405160e060020a631c949873028152939450600160a060020a0390921692631c94987392610e0f928692909163ffffffff169089906004016145d5565b60206040518083038186803b158015610e2757600080fd5b505afa158015610e3b573d6000803e3d6000fd5b505050506040513d601f19601f82011682018060405250810190610e5f91906140ec565b9150505b919050565b6000806000610e76846129fa565b9092509050610e858282612ab1565b949350505050565b6000610e9a848484612abd565b600160a060020a038416600090815260346020908152604080832033845290915290205482811015610f375760405160e560020a62461bcd02815260206004820152602860248201527f45524332303a207472616e7366657220616d6f756e742065786365656473206160448201527f6c6c6f77616e63650000000000000000000000000000000000000000000000006064820152608401610b81565b610f4b8533610f46868561467f565b61273d565b506001949350505050565b600060a9546001610f6791906145fd565b905090565b336000818152603460209081526040808320600160a060020a03871684529091528120549091610cd6918590610f469086906145fd565b33610fac611a49565b600160a060020a031614610fd55760405160e560020a62461bcd028152600401610b81906144c3565b30316110265760405160e560020a62461bcd02815260206004820152600f60248201527f6e6f20656e6f75676820657468657200000000000000000000000000000000006044820152606401610b81565b604051339082156108fc029083906000818181858888f19350505050158015610d63573d6000803e3d6000fd5b3361105c611a49565b600160a060020a0316146110855760405160e560020a62461bcd028152600401610b81906144c3565b600160a060020a0381166110ae5760405160e560020a62461bcd028152600401610b819061431c565b609d8054600160a060020a031916600160a060020a0392909216919091179055565b600060038260038111156110f75760e060020a634e487b7102600052602160045260246000fd5b1480610cda575060028260038111156111235760e060020a634e487b7102600052602160045260246000fd5b1492915050565b60985460ff1661114f5760405160e560020a62461bcd028152600401610b81906144f8565b8063ffffffff1661115f33611893565b101580611172575060008163ffffffff16115b6111915760405160e560020a62461bcd028152600401610b81906143c1565b60008061119d83612ca9565b915091506111aa83612dbc565b60a85460405160e060020a63a9059cbb028152600091600160a060020a03169063a9059cbb906111e090339087906004016141be565b602060405180830381600087803b1580156111fa57600080fd5b505af115801561120e573d6000803e3d6000fd5b505050506040513d601f19601f820116820180604052508101906112329190613f14565b905061125b6112566501d1a94a20006112508564e8d4a51000612fd2565b90612fde565b612fea565b806112ab5760405160e560020a62461bcd02815260206004820152601460248201527f73656c6c696e6720746f6b656e206661696c65640000000000000000000000006044820152606401610b81565b50505050565b60a054806112c45750600060a1556112e8565b6112e36112da826112508564e8d4a51000612fd2565b60a154906129e7565b60a155505b50565b600054610100900460ff1680611304575060005460ff16155b6113235760405160e560020a62461bcd028152600401610b819061442f565b600054610100900460ff16158015611345576000805461ffff19166101011790555b8015611357576000805461ff00191690555b50505050505050505050565b609f54600160a060020a03166113be5760405160e560020a62461bcd02815260206004820152601160248201527f77616c6c657420697320696e76616c69640000000000000000000000000000006044820152606401610b81565b609f54600160a060020a0316331461141b5760405160e560020a62461bcd02815260206004820152601a60248201527f5468652061646472657373206973206e6f7420616c6c6f7765640000000000006044820152606401610b81565b609e5481116112e85760a85460405160e060020a63a9059cbb028152600091600160a060020a03169063a9059cbb9061145a90339086906004016141be565b602060405180830381600087803b15801561147457600080fd5b505af1158015611488573d6000803e3d6000fd5b505050506040513d601f19601f820116820180604052508101906114ac9190613f14565b90508015610d6357609e546114c19083612ab1565b609e555050565b6114ec60405180606001604052806000815260200160008152602001600081525090565b506040805160608101825260a054815260a154602082015260a2549181019190915290565b61153c6040518060800160405280600081526020016000815260200160008152602001606081525090565b600160a060020a0382166115655760405160e560020a62461bcd028152600401610b81906143f8565b600160a060020a038216600090815260a7602090815260409182902082516080810184528154815260018201548184015260028201548185015260038201805485518186028101860190965280865291949293606086019392908301828280156115ee57602002820191906000526020600020905b8154815260200190600101908083116115da575b5050505050815250509050919050565b60985460ff166116235760405160e560020a62461bcd028152600401610b81906144f8565b60008163ffffffff161161164c5760405160e560020a62461bcd028152600401610b819061452f565b8063ffffffff1661165c33611893565b10156116ad5760405160e560020a62461bcd02815260206004820152601c60248201527f496e73756666696369656e7420746f6b656e7320746f206275726e2e000000006044820152606401610b81565b6000806116b9836129fa565b9150915060006116c884610d67565b90506116eb61125682610dc26512309ce54000611250876509184e72a000612fd2565b6116f58383612ab1565b92506117018484613003565b50611712338563ffffffff16613157565b609b5461172d908590604060020a900463ffffffff16614615565b609b80546bffffffff00000000000000001916604060020a63ffffffff93841602179055609a546117609183906129e716565b609a5561176c84612dbc565b60405163ffffffff8516815233907fe600c25f82e9bac8f9f1663725540d6cd442845726820fd5bee41b66c4bf59be9060200160405180910390a250505050565b600160a060020a0381166000908152606560209081526040808320805482518185028101850190935280835260609492939192909184015b82821015611888576000848152602090206040805160608101909152600284029091018054829060ff1660038111156118315760e060020a634e487b7102600052602160045260246000fd5b60038111156118535760e060020a634e487b7102600052602160045260246000fd5b81528154610100900463ffffffff166020808301919091526001928301546040909201919091529183529290920191016117e5565b505050509050919050565b600160a060020a031660009081526033602052604090205490565b336118b7611a49565b600160a060020a0316146118e05760405160e560020a62461bcd028152600401610b81906144c3565b606654604051600091600160a060020a03169060008051602061477c833981519152908390a360668054600160a060020a0319169055565b609b54600090604060020a900463ffffffff1661193460355490565b609b5461194f9190640100000000900463ffffffff16614696565b6119599190614696565b610f67906064614615565b600080611970836132a0565b509392505050565b33611981611a49565b600160a060020a0316146119aa5760405160e560020a62461bcd028152600401610b81906144c3565b60985460ff16611a0e5760405160e560020a62461bcd02815260206004820152602360248201527f5468652070726f6475637420746f6b656e20697320616c726561647920706175604482015260ea60020a621cd959026064820152608401610b81565b6098805460ff19169055604051600081527f65c5ccecef030677b73a1403e7e69ef84d05db9d1732959d543d32f4419909b890602001610c2d565b606654600160a060020a031690565b606060378054610c46906146bb565b60656020528160005260406000208181548110611a8357600080fd5b60009182526020909120600290910201805460019091015460ff8216935061010090910463ffffffff16915083565b336000908152603460209081526040808320600160a060020a038616845290915281205482811015611b3a5760405160e560020a62461bcd02815260206004820152602560248201527f45524332303a2064656372656173656420616c6c6f77616e63652062656c6f77604482015260d860020a64207a65726f026064820152608401610b81565b611b493385610f46868561467f565b5060019392505050565b33611b5c611a49565b600160a060020a031614611b855760405160e560020a62461bcd028152600401610b81906144c3565b600160a060020a038116611bae5760405160e560020a62461bcd028152600401610b819061431c565b60a88054600160a060020a031916600160a060020a0392909216919091179055565b6000610cd6338484612abd565b609d5460009081908190600160a060020a031663bff82d84611bfd6133a5565b609954609b5460405163ffffffff85811660e060020a028252611c2894939216908a906004016145d5565b60206040518083038186803b158015611c4057600080fd5b505afa158015611c54573d6000803e3d6000fd5b505050506040513d601f19601f82011682018060405250810190611c7891906140ec565b90506000611c9464e8d4a51000611250846412a05f2000612fd2565b91935090915050915091565b611ca8611a49565b600160a060020a031633600160a060020a03161480611cd15750609c54600160a060020a031633145b611cf05760405160e560020a62461bcd028152600401610b819061448c565b600160a060020a038216611d195760405160e560020a62461bcd028152600401610b8190614353565b6000611d2583836133d2565b905060008111611d7a5760405160e560020a62461bcd02815260206004820152600d60248201527f496e76616c69642076616c7565000000000000000000000000000000000000006044820152606401610b81565b611d848382613583565b505050565b600160a060020a038116600090815260a7602052604081205415611df557600160a060020a038216600090815260a760205260409020600181015460a154825460a092611dec929091611de69164e8d4a510009161125091612fd2565b90612ab1565b92505050610e63565b506000919050565b33611e06611a49565b600160a060020a031614611e2f5760405160e560020a62461bcd028152600401610b81906144c3565b600160a060020a038116611e585760405160e560020a62461bcd028152600401610b81906143f8565b609c8054600160a060020a031916600160a060020a0392909216919091179055565b60985460ff16611e9f5760405160e560020a62461bcd028152600401610b81906144f8565b60008111611ef25760405160e560020a62461bcd02815260206004820152601160248201527f696e76616c6964206d61782070726963650000000000000000000000000000006044820152606401610b81565b60a85460405160e060020a6323b872dd02815233600482015230602482015260448101839052600091600160a060020a0316906323b872dd90606401602060405180830381600087803b158015611f4857600080fd5b505af1158015611f5c573d6000803e3d6000fd5b505050506040513d601f19601f82011682018060405250810190611f809190613f14565b905080611fd25760405160e560020a62461bcd02815260206004820152601060248201527f5075726368617365206661696c65642e000000000000000000000000000000006044820152606401610b81565b600080600080611fe18661365d565b93509350935063ffffffff16935060008411156121df5782156120875760a85460405160e060020a63a9059cbb028152600160a060020a039091169063a9059cbb9061203390339087906004016141be565b602060405180830381600087803b15801561204d57600080fd5b505af1158015612061573d6000803e3d6000fd5b505050506040513d601f19601f820116820180604052508101906120859190613f14565b505b6120a3611256650746a52880006112508464e8d4a51000612fd2565b60006120bf650746a528800061125084650574fbde6000612fd2565b60a2549091506120cf90826129e7565b60a2556120db816112b1565b33600090815260a760205260408120600181015460a1548254929360a0939092612115929091611de69164e8d4a510009161125091612fd2565b905080156121bd576002830181905560a85460405160e060020a63a9059cbb028152600160a060020a039091169063a9059cbb9061215990339085906004016141be565b602060405180830381600087803b15801561217357600080fd5b505af1158015612187573d6000803e3d6000fd5b505050506040513d601f19601f820116820180604052508101906121ab9190613f14565b5060a2546121b99082612ab1565b60a2555b60a0546121ca90876129e7565b60a0556121d6866137c2565b50505050612268565b60a85460405160e060020a63a9059cbb028152600160a060020a039091169063a9059cbb906122149033908a906004016141be565b602060405180830381600087803b15801561222e57600080fd5b505af1158015612242573d6000803e3d6000fd5b505050506040513d601f19601f820116820180604052508101906122669190613f14565b505b505050505050565b600160a060020a03821660009081526065602052604081208054839081106122ab5760e060020a634e487b7102600052603260045260246000fd5b600091825260209091206002909102015460ff169392505050565b336122cf611a49565b600160a060020a0316146122f85760405160e560020a62461bcd028152600401610b81906144c3565b600160a060020a0381166123515760405160e560020a62461bcd02815260206004820152601260248201527f4164647265737320697320696e76616c696400000000000000000000000000006044820152606401610b81565b609f8054600160a060020a031916600160a060020a0392909216919091179055565b6000610f676001612696565b33612388611a49565b600160a060020a0316146123b15760405160e560020a62461bcd028152600401610b81906144c3565b600160a060020a0381166123da5760405160e560020a62461bcd028152600401610b81906143f8565b60a85460405160e060020a6370a08231028152600160a060020a03909116906370a082319061240d9030906004016141aa565b60206040518083038186803b15801561242557600080fd5b505afa158015612439573d6000803e3d6000fd5b505050506040513d601f19601f8201168201806040525081019061245d91906140ec565b82111561247f5760405160e560020a62461bcd028152600401610b81906143c1565b60a85460405160e060020a63a9059cbb028152600160a060020a039091169063a9059cbb906124b490849086906004016141be565b602060405180830381600087803b1580156124ce57600080fd5b505af11580156124e2573d6000803e3d6000fd5b505050506040513d601f19601f82011682018060405250810190611d849190613f14565b600054610100900460ff168061251f575060005460ff16155b61253e5760405160e560020a62461bcd028152600401610b819061442f565b600054610100900460ff16158015612560576000805461ffff19166101011790555b61256861381b565b6125728888613899565b61257f868686868661391b565b8015612591576000805461ff00191690555b5050505050505050565b336125a4611a49565b600160a060020a0316146125cd5760405160e560020a62461bcd028152600401610b81906144c3565b600160a060020a03811661264c5760405160e560020a62461bcd02815260206004820152602660248201527f4f776e61626c653a206e6577206f776e657220697320746865207a65726f206160448201527f64647265737300000000000000000000000000000000000000000000000000006064820152608401610b81565b606654604051600160a060020a0380841692169060008051602061477c83398151915290600090a360668054600160a060020a031916600160a060020a0392909216919091179055565b609d54600090600160a060020a031663bff82d846126b26133a5565b609954609b546126ca9063ffffffff1661c350614615565b866040518563ffffffff1660e060020a0281526004016126ed94939291906145d5565b60206040518083038186803b15801561270557600080fd5b505afa158015612719573d6000803e3d6000fd5b505050506040513d601f19601f82011682018060405250810190610cda91906140ec565b600160a060020a0383166127a55760405160e560020a62461bcd028152602060048201526024808201527f45524332303a20617070726f76652066726f6d20746865207a65726f20616464604482015260e060020a6372657373026064820152608401610b81565b600160a060020a03821661280c5760405160e560020a62461bcd02815260206004820152602260248201527f45524332303a20617070726f766520746f20746865207a65726f206164647265604482015260f060020a617373026064820152608401610b81565b600160a060020a0383811660008181526034602090815260408083209487168084529482529182902085905590518481527f8c5be1e5ebec7d5bd14f71427d1e84f3dd0314c0f7b2291e5b200ac8c7c3b92591015b60405180910390a3505050565b600160a060020a038216600090815260656020526040902080546128c79190839081106128ae5760e060020a634e487b7102600052603260045260246000fd5b600091825260209091206002909102015460ff166110d0565b156128e75760405160e560020a62461bcd028152600401610b819061438a565b600160a060020a0382166000908152606560205260409020805460039190839081106129265760e060020a634e487b7102600052603260045260246000fd5b60009182526020909120600290910201805460ff191660018360038111156129615760e060020a634e487b7102600052602160045260246000fd5b021790555060008051602061475c83398151915282826065600086600160a060020a0316600160a060020a0316815260200190815260200160002084815481106129be5760e060020a634e487b7102600052603260045260246000fd5b90600052602060002090600202016040516129db939291906141fb565b60405180910390a15050565b60006129f382846145fd565b9392505050565b609d5460009081908190600160a060020a0316631c949873612a1a6133a5565b609954609b5460405163ffffffff85811660e060020a028252612a4594939216908a906004016145d5565b60206040518083038186803b158015612a5d57600080fd5b505afa158015612a71573d6000803e3d6000fd5b505050506040513d601f19601f82011682018060405250810190612a9591906140ec565b90506000611c9464e8d4a51000611250846404a817c800612fd2565b60006129f3828461467f565b600160a060020a038316612b275760405160e560020a62461bcd02815260206004820152602560248201527f45524332303a207472616e736665722066726f6d20746865207a65726f206164604482015260d860020a646472657373026064820152608401610b81565b600160a060020a038216612b8f5760405160e560020a62461bcd02815260206004820152602360248201527f45524332303a207472616e7366657220746f20746865207a65726f2061646472604482015260e860020a62657373026064820152608401610b81565b600160a060020a03831660009081526033602052604090205481811015612c215760405160e560020a62461bcd02815260206004820152602660248201527f45524332303a207472616e7366657220616d6f756e742065786365656473206260448201527f616c616e636500000000000000000000000000000000000000000000000000006064820152608401610b81565b612c2b828261467f565b600160a060020a038086166000908152603360205260408082209390935590851681529081208054849290612c619084906145fd565b9250508190555082600160a060020a031684600160a060020a031660008051602061479c83398151915284604051612c9b91815260200190565b60405180910390a350505050565b60008060008363ffffffff1611612cd55760405160e560020a62461bcd028152600401610b819061452f565b8263ffffffff16612ce533611893565b1015612d365760405160e560020a62461bcd02815260206004820152601c60248201527f496e73756666696369656e7420746f6b656e7320746f2073656c6c2e000000006044820152606401610b81565b600080612d42856129fa565b6099549193509150612d549083612ab1565b609955612d673363ffffffff8716613157565b6040805163ffffffff871681526020810184905233917f84c8d08e5480cf09cbf77bc575dc4e63845522693c34094f04129a4dedb7abd7910160405180910390a2612db28282612ab1565b9350915050915091565b33600090815260a76020526040902054156112e85733600081815260a76020526040902060038101549091612df090611893565b11610d6357600381015463ffffffff831690811115612e10575060038101545b6000805b82811015612ebc57600384018054612e6d9190612e32906001612ab1565b81548110612e535760e060020a634e487b7102600052603260045260246000fd5b9060005260206000200154836129e790919063ffffffff16565b915083600301805480612e935760e060020a634e487b7102600052603160045260246000fd5b600190038181906000526020600020016000905590558080612eb4906146fa565b915050612e14565b50600183015460a154845460a092600092612ee592611de69164e8d4a510009161125091612fd2565b60a054909150612ef59084612ab1565b60a0558015612f9e576002850181905560a85460405160e060020a63a9059cbb028152600160a060020a039091169063a9059cbb90612f3a90339085906004016141be565b602060405180830381600087803b158015612f5457600080fd5b505af1158015612f68573d6000803e3d6000fd5b505050506040513d601f19601f82011682018060405250810190612f8c9190613f14565b5060a254612f9a9082612ab1565b60a2555b8454612faa9084612ab1565b80865560a154612fc59164e8d4a51000916112509190612fd2565b6001860155505050505050565b60006129f38284614660565b60006129f3828461463d565b80156112e857609e54612ffd90826129e7565b609e5550565b6000808363ffffffff161161305d5760405160e560020a62461bcd02815260206004820152600e60248201527f496e76616c696420416d6f756e740000000000000000000000000000000000006044820152606401610b81565b60408051606081018252600180825263ffffffff861660208084019190915282840186905233600090815260658252938420805480840182559085529320825160029094020180549293849391929091839160ff19909116908360038111156130d95760e060020a634e487b7102600052602160045260246000fd5b0217905550602082810151825463ffffffff9091166101000264ffffffff0019909116178255604092830151600192830155336000908152606590915291822054613124919061467f565b905060008051602061475c833981519152338284604051613147939291906141d7565b60405180910390a1949350505050565b600160a060020a0382166131bd5760405160e560020a62461bcd02815260206004820152602160248201527f45524332303a206275726e2066726f6d20746865207a65726f20616464726573604482015260f860020a6073026064820152608401610b81565b600160a060020a038216600090815260336020526040902054818110156132375760405160e560020a62461bcd02815260206004820152602260248201527f45524332303a206275726e20616d6f756e7420657863656564732062616c616e604482015260f060020a616365026064820152608401610b81565b613241828261467f565b600160a060020a0384166000908152603360205260408120919091556035805484929061326f90849061467f565b9091555050604051828152600090600160a060020a0385169060008051602061479c83398151915290602001612861565b600080806132bc64fb750430006112508664e8d4a51000612fd2565b905060006132d864e8d4a5100061125084640df8475800612fd2565b609d54909150600090600160a060020a0316639f4ae6b06132f76133a5565b609954609b5463ffffffff908116906133149089908990612ab116565b60405163ffffffff86811660e060020a0282529485166004820152602481019390935292166044820152606481019190915260840160206040518083038186803b15801561336157600080fd5b505afa158015613375573d6000803e3d6000fd5b505050506040513d601f19601f820116820180604052508101906133999190614142565b94509092505050915091565b609b54600090610f679063ffffffff606060020a8204811691610dc291604060020a909104168160355490565b600160a060020a038216600090815260656020526040812080546134129190849081106128ae5760e060020a634e487b7102600052603260045260246000fd5b156134325760405160e560020a62461bcd028152600401610b819061438a565b600160a060020a0383166000908152606560205260409020805460029190849081106134715760e060020a634e487b7102600052603260045260246000fd5b60009182526020909120600290910201805460ff191660018360038111156134ac5760e060020a634e487b7102600052602160045260246000fd5b021790555060008051602061475c83398151915283836065600087600160a060020a0316600160a060020a0316815260200190815260200160002085815481106135095760e060020a634e487b7102600052603260045260246000fd5b9060005260206000209060020201604051613526939291906141fb565b60405180910390a1600160a060020a03831660009081526065602052604090208054839081106135695760e060020a634e487b7102600052603260045260246000fd5b906000526020600020906002020160010154905092915050565b60a85460405160e060020a63a9059cbb028152600091600160a060020a03169063a9059cbb906135b990869086906004016141be565b602060405180830381600087803b1580156135d357600080fd5b505af11580156135e7573d6000803e3d6000fd5b505050506040513d601f19601f8201168201806040525081019061360b9190613f14565b905080611d845760405160e560020a62461bcd02815260206004820152601360248201527f726566756e6420746f6b656e206661696c6564000000000000000000000000006044820152606401610b81565b600080600080600061366d611918565b63ffffffff16116136c35760405160e560020a62461bcd02815260206004820152601e60248201527f536f7272792c207468697320746f6b656e20697320736f6c64206f75742e00006044820152606401610b81565b600085116137165760405160e560020a62461bcd02815260206004820152601960248201527f4465706f736974206d757374206265206e6f6e2d7a65726f2e000000000000006044820152606401610b81565b6000806137236001611bdd565b915091508682111561374457600087600080955095509550955050506137bb565b61374f336001613aae565b61376561375c8383612ab1565b609954906129e7565b60995560408051600181526020810184905233917f5b55159a377d86da80a65140d62d994ddbb2cbd4bb2d1b59cb0827fecbe47cab910160405180910390a260016137b08884612ab1565b909650945090925090505b9193509193565b33600090815260a76020526040902080546137dd90836129e7565b8155600381018054600181018255600091825260209091200182905560a15481546138129164e8d4a510009161125091612fd2565b60019091015550565b600054610100900460ff1680613834575060005460ff16155b6138535760405160e560020a62461bcd028152600401610b819061442f565b600054610100900460ff16158015613875576000805461ffff19166101011790555b61387d613b7e565b613885613beb565b80156112e8576000805461ff001916905550565b600054610100900460ff16806138b2575060005460ff16155b6138d15760405160e560020a62461bcd028152600401610b819061442f565b600054610100900460ff161580156138f3576000805461ffff19166101011790555b6138fb613b7e565b6139058383613c8a565b8015611d84576000805461ff0019169055505050565b600054610100900460ff1680613934575060005460ff16155b6139535760405160e560020a62461bcd028152600401610b819061442f565b600054610100900460ff16158015613975576000805461ffff19166101011790555b60008463ffffffff16116139ce5760405160e560020a62461bcd02815260206004820152601860248201527f496e76616c6964206d617820746f6b656e20636f756e742e00000000000000006044820152606401610b81565b60008563ffffffff1611613a275760405160e560020a62461bcd02815260206004820152601560248201527f496e76616c6964207265736572766520726174696f00000000000000000000006044820152606401610b81565b609d8054600160a060020a038816600160a060020a03199091161790556099829055609a829055609b805463ffffffff8681166401000000000267ffffffffffffffff19828816606060020a02166fffffffff00000000ffffffffffffffff1990931692909217908816171790558015612268576000805461ff0019169055505050505050565b600160a060020a038216613b075760405160e560020a62461bcd02815260206004820152601f60248201527f45524332303a206d696e7420746f20746865207a65726f2061646472657373006044820152606401610b81565b8060356000828254613b1991906145fd565b9091555050600160a060020a03821660009081526033602052604081208054839290613b469084906145fd565b9091555050604051818152600160a060020a0383169060009060008051602061479c8339815191529060200160405180910390a35050565b600054610100900460ff1680613b97575060005460ff16155b613bb65760405160e560020a62461bcd028152600401610b819061442f565b600054610100900460ff16158015613885576000805461ffff191661010117905580156112e8576000805461ff001916905550565b600054610100900460ff1680613c04575060005460ff16155b613c235760405160e560020a62461bcd028152600401610b819061442f565b600054610100900460ff16158015613c45576000805461ffff19166101011790555b60668054600160a060020a03191633908117909155604051819060009060008051602061477c833981519152908290a35080156112e8576000805461ff001916905550565b600054610100900460ff1680613ca3575060005460ff16155b613cc25760405160e560020a62461bcd028152600401610b819061442f565b600054610100900460ff16158015613ce4576000805461ffff19166101011790555b8251613cf7906036906020860190613d22565b508151613d0b906037906020850190613d22565b508015611d84576000805461ff0019169055505050565b828054613d2e906146bb565b90600052602060002090601f016020900481019282613d505760008555613d96565b82601f10613d6957805160ff1916838001178555613d96565b82800160010185558215613d96579182015b82811115613d96578251825591602001919060010190613d7b565b50613da2929150613da6565b5090565b5b80821115613da25760008155600101613da7565b8035600160a060020a0381168114610e6357600080fd5b600082601f830112613de2578081fd5b813567ffffffffffffffff80821115613dfd57613dfd61472f565b604051601f8301601f19908116603f01168101908282118183101715613e2557613e2561472f565b81604052838152866020858801011115613e3d578485fd5b8360208701602083013792830160200193909352509392505050565b8035610e6381614749565b600060208284031215613e75578081fd5b6129f382613dbb565b60008060408385031215613e90578081fd5b613e9983613dbb565b9150613ea760208401613dbb565b90509250929050565b600080600060608486031215613ec4578081fd5b613ecd84613dbb565b9250613edb60208501613dbb565b9150604084013590509250925092565b60008060408385031215613efd578182fd5b613f0683613dbb565b946020939093013593505050565b600060208284031215613f25578081fd5b815180151581146129f3578182fd5b600060208284031215613f45578081fd5b8135600481106129f3578182fd5b600080600080600080600060e0888a031215613f6d578283fd5b873567ffffffffffffffff80821115613f84578485fd5b613f908b838c01613dd2565b985060208a0135915080821115613fa5578485fd5b50613fb28a828b01613dd2565b965050613fc160408901613dbb565b94506060880135613fd181614749565b93506080880135613fe181614749565b925060a0880135613ff181614749565b8092505060c0880135905092959891949750929550565b60008060008060008060008060006101208a8c031215614026578182fd5b893567ffffffffffffffff8082111561403d578384fd5b6140498d838e01613dd2565b9a5060208c013591508082111561405e578384fd5b5061406b8c828d01613dd2565b98505060408a013561407c81614749565b965060608a013561408c81614749565b955061409a60808b01613e59565b945060a08a0135935060c08a013592506140b660e08b01613dbb565b91506140c56101008b01613dbb565b90509295985092959850929598565b6000602082840312156140e5578081fd5b5035919050565b6000602082840312156140fd578081fd5b5051919050565b60008060408385031215614116578182fd5b82359150613ea760208401613dbb565b600060208284031215614137578081fd5b81356129f381614749565b600060208284031215614153578081fd5b81516129f381614749565b600481106141805760e060020a634e487b710260009081526021600452602490fd5b9052565b61418f82825161415e565b60208181015163ffffffff1690830152604090810151910152565b600160a060020a0391909116815260200190565b600160a060020a03929092168252602082015260400190565b600160a060020a03841681526020810183905260a08101610e856040830184614184565b600160a060020a038416815260208101839052815460a08201906142256040840160ff831661415e565b63ffffffff61010082041660608401525060018301546080830152949350505050565b6020808252825182820181905260009190848201906040850190845b8181101561428a57614277838551614184565b9284019260609290920191600101614264565b50909695505050505050565b60208101610cda828461415e565b606081016142b2828661415e565b63ffffffff93909316602082015260400152919050565b6000602080835283518082850152825b818110156142f5578581018301518582016040015282016142d9565b818111156143065783604083870101525b50601f01601f1916929092016040019392505050565b6020808252600f908201527f496e76616c696420616464726573730000000000000000000000000000000000604082015260600190565b6020808252600d908201527f496e76616c696420627579657200000000000000000000000000000000000000604082015260600190565b60208082526011908201527f616c726561647920636f6d706c65746564000000000000000000000000000000604082015260600190565b6020808252600e908201527f696e76616c696420616d6f756e74000000000000000000000000000000000000604082015260600190565b6020808252600f908201527f696e76616c696420616464726573730000000000000000000000000000000000604082015260600190565b6020808252602e908201527f496e697469616c697a61626c653a20636f6e747261637420697320616c72656160408201527f647920696e697469616c697a6564000000000000000000000000000000000000606082015260800190565b60208082526011908201527f7065726d697373696f6e2064656e696564000000000000000000000000000000604082015260600190565b6020808252818101527f4f776e61626c653a2063616c6c6572206973206e6f7420746865206f776e6572604082015260600190565b60208082526013908201527f756e61626c6520746f207472616465206e6f7700000000000000000000000000604082015260600190565b60208082526018908201527f416d6f756e74206d757374206265206e6f6e2d7a65726f2e0000000000000000604082015260600190565b6000602080835260a0830184518285015281850151604085015260408501516060850152606085015160808086015281815180845260c08701915084830193508592505b808310156145ca57835182529284019260019290920191908401906145aa565b509695505050505050565b63ffffffff948516815260208101939093529083166040830152909116606082015260800190565b6000821982111561461057614610614715565b500190565b600063ffffffff80831681851680830382111561463457614634614715565b01949350505050565b60008261465b5760e060020a634e487b710281526012600452602481fd5b500490565b600081600019048311821515161561467a5761467a614715565b500290565b60008282101561469157614691614715565b500390565b600063ffffffff838116908316818110156146b3576146b3614715565b039392505050565b6002810460018216806146cf57607f821691505b602082108114156146f45760e060020a634e487b710260009081526022600452602490fd5b50919050565b600060001982141561470e5761470e614715565b5060010190565b60e060020a634e487b710260009081526011600452602490fd5b60e060020a634e487b710260009081526041600452602490fd5b63ffffffff811681146112e857600080fdfe09c64bee251b684a6bb80ce179dd520c001481b7c3d7781f1502e3052af474cf8be0079c531659141344cd1fd0a4f28419497f9722a3daafe3b4186f6b6457e0ddf252ad1be2c89b69c2b068fc378daa952ba7f163c4a11628f55a4df523b3efa26469706673582212206040e12c362d35f3b4030a90480c8f5d26ae9f26ba8b4d0b7129c345745c283064736f6c63430008030033",
  "immutableReferences": {},
  "source": "pragma solidity ^0.8.2;\n\nimport \"@openzeppelin/contracts-upgradeable/token/ERC20/ERC20Upgradeable.sol\";\nimport \"@openzeppelin/contracts-upgradeable/utils/math/SafeMathUpgradeable.sol\";\n\nimport \"../ProductToken.sol\";\nimport \"../ProductTokenV1.sol\";\nimport \"../Power.sol\";\n\n\ncontract ProductTokenV2 is ProductTokenV1 {\n  uint256 public newAttribute;\n\n  function getNewAttribute()\n  public view returns (uint256)\n  {\n    return newAttribute + 1;\n  }\n\n  function getPriceForN(uint32 _amountProduct) \n  \tpublic view override returns(uint256 price)\n  {\n  \treturn bondingCurve.calculatePriceForNTokens(_getTotalSupply(), reserveBalance, reserveRatio+50000, _amountProduct);\n  }\n\n    function getAvailability()\n     public view override returns (uint32 available)\n  {\n    return maxTokenCount - uint32(totalSupply()) - tradeinCount+100;   \n  }\n\n} \n\ncontract ProductTokenV3 is ProductTokenV2 {\n    using SafeMathUpgradeable for uint256;\n    uint32 private constant MAX_RESERVE_RATIO = 2000000;\n\n    function initializeV3(string memory _name, string memory _symbol, uint32 _reserveRatio, uint32 _maxTokenCount, uint32 _supplyOffset, uint256 _baseReserve, uint256 _newInitValue, address _daiAddress, address _chainlink) public  initializer {\n    }\n}\n\ncontract ProductTokenDestroy {\n\n}\n\ncontract ProductTokenV4 is ProductTokenV2 {\n\n}\n\ncontract ProductTokenV5 is ProductTokenV3 {\n  uint256  public newInitValue;\n/**\n   * @dev Constructor\n   *\n   * @param _reserveRatio             the reserve ratio in the curve function\n   * @param _maxTokenCount\t\t\t\t\t\tthe amount of token that will exist for this type.\n   * @param _supplyOffset             a initial amount of offset that drive the price to a starting price\n   * @param _baseReserve              the reserve balance when supply is 0. This is calculated based on the balance function, and evaluated at s = _supplyOffset\n  */\n  function initializeV5(string memory _name, string memory _symbol, address _bondingCurveAddress, uint32 _reserveRatio, uint32 _maxTokenCount, uint32 _supplyOffset, uint256 _baseReserve, uint256 _newInitValue, address _daiAddress, address _chainlink) public  initializer {\t\t\n    __ERC20_init(_name, _symbol);\n    // ProductToken.__ProductToken_init_unchained(_bondingCurveAddress, _reserveRatio, _maxTokenCount, _supplyOffset, _baseReserve);\n    // ProductTokenV1.__ProductToken_init_unchained(_daiAddress, _chainlink);\n    newInitValue= _newInitValue;\n  }\n  function getNewInitValue() public view returns(uint256){\n    return newInitValue;\n  }\n}\n",
  "sourcePath": "/Users/jack/Documents/GitHub/HighStreet/client/src/contracts/Mock/ProductTokenV2.sol",
  "compiler": {
    "name": "solc",
    "version": "0.8.3+commit.8d00100c.Emscripten.clang"
  },
  "schemaVersion": "3.4.0",
  "updatedAt": "2021-09-25T11:30:46.686Z",
  "devdoc": {
    "kind": "dev",
    "methods": {
      "allowance(address,address)": {
        "details": "See {IERC20-allowance}."
      },
      "approve(address,uint256)": {
        "details": "See {IERC20-approve}. Requirements: - `spender` cannot be the zero address."
      },
      "balanceOf(address)": {
        "details": "See {IERC20-balanceOf}."
      },
      "calculateBuyReturn(uint256)": {
        "details": "Function that computes number of product tokens one can buy given an amount in reserve token.",
        "params": {
          "_amountReserve": "purchaing amount in reserve token (dai)(with 4% platform fee)"
        },
        "returns": {
          "mintAmount": "             number of tokens in traded token that can be purchased by given amount."
        }
      },
      "calculateSellReturn(uint32)": {
        "details": "Function that computes selling price in reserve tokens given an amount in traded token.",
        "params": {
          "_amountProduct": "selling amount in product token"
        },
        "returns": {
          "soldAmount": "             total amount that will be transferred to the seller (with 2% platform fee)."
        }
      },
      "decimals()": {
        "details": "Returns the number of decimals used to get its user representation. For example, if `decimals` equals `2`, a balance of `505` tokens should be displayed to a user as `5,05` (`505 / 10 ** 2`). Tokens usually opt for a value of 18, imitating the relationship between Ether and Wei. This is the value {ERC20} uses, unless this function is overloaded; NOTE: This information is only used for _display_ purposes: it in no way affects any of the arithmetic of the contract, including {IERC20-balanceOf} and {IERC20-transfer}."
      },
      "decreaseAllowance(address,uint256)": {
        "details": "Atomically decreases the allowance granted to `spender` by the caller. This is an alternative to {approve} that can be used as a mitigation for problems described in {IERC20-approve}. Emits an {Approval} event indicating the updated allowance. Requirements: - `spender` cannot be the zero address. - `spender` must have allowance for the caller of at least `subtractedValue`."
      },
      "getAvailability()": {
        "details": "Function to check how many tokens of this product are currently available for purchase, by taking the difference between max cap count and current token in circulation or burned.",
        "returns": {
          "available": "               the number of tokens available"
        }
      },
      "getCurrentPrice()": {
        "details": "Function that computes current price for a token through bonding curve calculation based on parameters such as total supply, reserve balance, and reserve ratio.",
        "returns": {
          "price": "                  current price in reserve token (in our case, this is dai). (with 4% platform fee)"
        }
      },
      "getEscrowHistory(address)": {
        "details": "Return the list of all escrows created for a certain user",
        "params": {
          "_buyer": "The address of the buyer"
        },
        "returns": {
          "_0": "A list of past escrows"
        }
      },
      "getPriceForN(uint32)": {
        "details": "Function that computes price total for buying n token through bonding curve calculation based on parameters such as total supply, reserve balance, and reserve ratio.",
        "params": {
          "_amountProduct": "token amount in traded token"
        },
        "returns": {
          "price": "                  total price in reserve token (in our case, this is dai). (with 4% platform fee)"
        }
      },
      "getRedeemStatus(address,uint256)": {
        "details": "Get status of a particular redemption process",
        "params": {
          "_buyer": "The address of the buyer",
          "_id": "The cached id of the escrow, retrieved from database"
        },
        "returns": {
          "_0": "The current status"
        }
      },
      "getSupplierBalance()": {
        "details": "this function returns the amount of reserve balance that the supplier can withdraw from the dapp."
      },
      "increaseAllowance(address,uint256)": {
        "details": "Atomically increases the allowance granted to `spender` by the caller. This is an alternative to {approve} that can be used as a mitigation for problems described in {IERC20-approve}. Emits an {Approval} event indicating the updated allowance. Requirements: - `spender` cannot be the zero address."
      },
      "initialize(string,string,address,uint32,uint32,uint32,uint256)": {
        "details": "initializer function.",
        "params": {
          "_baseReserve": "the base amount of reserve tokens, in accordance to _supplyOffset.",
          "_maxTokenCount": "the amount of token that will exist for this type.",
          "_name": "the name of this token",
          "_reserveRatio": "the reserve ratio in the curve function. Number in parts per million",
          "_supplyOffset": "this amount is used to determine initial price.",
          "_symbol": "the symbol of this token"
        }
      },
      "isStateCompleted(uint8)": {
        "details": "Helper function to check whether a escrow state is completed",
        "params": {
          "_state": "The state to be checked"
        }
      },
      "launch()": {
        "details": "requires function to be called from owner. this enables customers to buy, sell, or redeem the product."
      },
      "name()": {
        "details": "Returns the name of the token."
      },
      "owner()": {
        "details": "Returns the address of the current owner."
      },
      "pause()": {
        "details": "requires function to be called from owner. this prevents customers from buying, selling, or redeeming the product."
      },
      "renounceOwnership()": {
        "details": "Leaves the contract without owner. It will not be possible to call `onlyOwner` functions anymore. Can only be called by the current owner. NOTE: Renouncing ownership will leave the contract without an owner, thereby removing any functionality that is only available to the owner."
      },
      "setBondingCurve(address)": {
        "details": "requires function to be called from owner. sets a bonding curve implementation for this product.",
        "params": {
          "_address": "the address of the bonding curve implementation"
        }
      },
      "symbol()": {
        "details": "Returns the symbol of the token, usually a shorter version of the name."
      },
      "totalSupply()": {
        "details": "See {IERC20-totalSupply}."
      },
      "tradein(uint32)": {
        "details": "When user wants to trade in their token for retail product",
        "params": {
          "amount_": "amount of tokens that user wants to trade in."
        }
      },
      "transfer(address,uint256)": {
        "details": "See {IERC20-transfer}. Requirements: - `recipient` cannot be the zero address. - the caller must have a balance of at least `amount`."
      },
      "transferFrom(address,address,uint256)": {
        "details": "See {IERC20-transferFrom}. Emits an {Approval} event indicating the updated allowance. This is not required by the EIP. See the note at the beginning of {ERC20}. Requirements: - `sender` and `recipient` cannot be the zero address. - `sender` must have a balance of at least `amount`. - the caller must have allowance for ``sender``'s tokens of at least `amount`."
      },
      "transferOwnership(address)": {
        "details": "Transfers ownership of the contract to a new account (`newOwner`). Can only be called by the current owner."
      },
      "updateUserCompleted(address,uint256)": {
        "details": "used to update the status of redemption to \"User Complete\" after an escrow process has been started.",
        "params": {
          "buyer": "the wallet address of product buyer",
          "id": "the id of the escrow, returned to the user after starting of redemption process"
        }
      },
      "updateUserRefund(address,uint256)": {
        "details": "used to update the status of redemption to \"User Refunded\" after an escrow process has been started.",
        "params": {
          "buyer": "the wallet address of product buyer",
          "id": "the id of the escrow, returned to the user after starting of redemption process"
        }
      },
      "withdrawEther(uint256)": {
        "details": "A method allow us to withdraw liquidity (eth) from the contract Since eth is not used as a return currency, we need to withdraw eth from the system.",
        "params": {
          "value_": "the value of ether"
        }
      }
    },
    "version": 1
  },
  "userdoc": {
    "kind": "user",
    "methods": {},
    "version": 1
  }
}