{
  "contractName": "ProductTokenV3",
  "abi": [
    {
      "anonymous": false,
      "inputs": [
        {
          "indexed": true,
          "internalType": "address",
          "name": "owner",
          "type": "address"
        },
        {
          "indexed": true,
          "internalType": "address",
          "name": "spender",
          "type": "address"
        },
        {
          "indexed": false,
          "internalType": "uint256",
          "name": "value",
          "type": "uint256"
        }
      ],
      "name": "Approval",
      "type": "event"
    },
    {
      "anonymous": false,
      "inputs": [
        {
          "indexed": true,
          "internalType": "address",
          "name": "sender",
          "type": "address"
        },
        {
          "indexed": false,
          "internalType": "uint32",
          "name": "amount",
          "type": "uint32"
        },
        {
          "indexed": false,
          "internalType": "uint256",
          "name": "deposit",
          "type": "uint256"
        }
      ],
      "name": "Buy",
      "type": "event"
    },
    {
      "anonymous": false,
      "inputs": [
        {
          "indexed": true,
          "internalType": "address",
          "name": "previousOwner",
          "type": "address"
        },
        {
          "indexed": true,
          "internalType": "address",
          "name": "newOwner",
          "type": "address"
        }
      ],
      "name": "OwnershipTransferred",
      "type": "event"
    },
    {
      "anonymous": false,
      "inputs": [
        {
          "indexed": true,
          "internalType": "address",
          "name": "sender",
          "type": "address"
        },
        {
          "indexed": false,
          "internalType": "uint32",
          "name": "amount",
          "type": "uint32"
        },
        {
          "indexed": false,
          "internalType": "uint256",
          "name": "refund",
          "type": "uint256"
        }
      ],
      "name": "Sell",
      "type": "event"
    },
    {
      "anonymous": false,
      "inputs": [
        {
          "indexed": false,
          "internalType": "bool",
          "name": "isTradable",
          "type": "bool"
        }
      ],
      "name": "Tradable",
      "type": "event"
    },
    {
      "anonymous": false,
      "inputs": [
        {
          "indexed": true,
          "internalType": "address",
          "name": "sender",
          "type": "address"
        },
        {
          "indexed": false,
          "internalType": "uint32",
          "name": "amount",
          "type": "uint32"
        }
      ],
      "name": "Tradein",
      "type": "event"
    },
    {
      "anonymous": false,
      "inputs": [
        {
          "indexed": true,
          "internalType": "address",
          "name": "from",
          "type": "address"
        },
        {
          "indexed": true,
          "internalType": "address",
          "name": "to",
          "type": "address"
        },
        {
          "indexed": false,
          "internalType": "uint256",
          "name": "value",
          "type": "uint256"
        }
      ],
      "name": "Transfer",
      "type": "event"
    },
    {
      "anonymous": false,
      "inputs": [
        {
          "indexed": false,
          "internalType": "address",
          "name": "",
          "type": "address"
        },
        {
          "indexed": false,
          "internalType": "uint256",
          "name": "",
          "type": "uint256"
        },
        {
          "components": [
            {
              "internalType": "enum Escrow.escrowState",
              "name": "state",
              "type": "uint8"
            },
            {
              "internalType": "uint32",
              "name": "amount",
              "type": "uint32"
            },
            {
              "internalType": "uint256",
              "name": "value",
              "type": "uint256"
            }
          ],
          "indexed": false,
          "internalType": "struct Escrow.escrowInfo",
          "name": "",
          "type": "tuple"
        }
      ],
      "name": "escrowStateUpdated",
      "type": "event"
    },
    {
      "stateMutability": "nonpayable",
      "type": "fallback"
    },
    {
      "inputs": [
        {
          "internalType": "address",
          "name": "owner",
          "type": "address"
        },
        {
          "internalType": "address",
          "name": "spender",
          "type": "address"
        }
      ],
      "name": "allowance",
      "outputs": [
        {
          "internalType": "uint256",
          "name": "",
          "type": "uint256"
        }
      ],
      "stateMutability": "view",
      "type": "function"
    },
    {
      "inputs": [
        {
          "internalType": "address",
          "name": "spender",
          "type": "address"
        },
        {
          "internalType": "uint256",
          "name": "amount",
          "type": "uint256"
        }
      ],
      "name": "approve",
      "outputs": [
        {
          "internalType": "bool",
          "name": "",
          "type": "bool"
        }
      ],
      "stateMutability": "nonpayable",
      "type": "function"
    },
    {
      "inputs": [
        {
          "internalType": "address",
          "name": "account",
          "type": "address"
        }
      ],
      "name": "balanceOf",
      "outputs": [
        {
          "internalType": "uint256",
          "name": "",
          "type": "uint256"
        }
      ],
      "stateMutability": "view",
      "type": "function"
    },
    {
      "inputs": [
        {
          "internalType": "uint256",
          "name": "maxPrice_",
          "type": "uint256"
        }
      ],
      "name": "buy",
      "outputs": [],
      "stateMutability": "nonpayable",
      "type": "function"
    },
    {
      "inputs": [
        {
          "internalType": "uint256",
          "name": "_amountReserve",
          "type": "uint256"
        }
      ],
      "name": "calculateBuyReturn",
      "outputs": [
        {
          "internalType": "uint32",
          "name": "mintAmount",
          "type": "uint32"
        }
      ],
      "stateMutability": "view",
      "type": "function"
    },
    {
      "inputs": [
        {
          "internalType": "uint32",
          "name": "_amountProduct",
          "type": "uint32"
        }
      ],
      "name": "calculateSellReturn",
      "outputs": [
        {
          "internalType": "uint256",
          "name": "soldAmount",
          "type": "uint256"
        }
      ],
      "stateMutability": "view",
      "type": "function"
    },
    {
      "inputs": [
        {
          "internalType": "uint32",
          "name": "_amount",
          "type": "uint32"
        }
      ],
      "name": "calculateTradinReturn",
      "outputs": [
        {
          "internalType": "uint256",
          "name": "",
          "type": "uint256"
        }
      ],
      "stateMutability": "view",
      "type": "function"
    },
    {
      "inputs": [
        {
          "internalType": "uint256",
          "name": "amount_",
          "type": "uint256"
        }
      ],
      "name": "claimSupplier",
      "outputs": [],
      "stateMutability": "nonpayable",
      "type": "function"
    },
    {
      "inputs": [],
      "name": "decimals",
      "outputs": [
        {
          "internalType": "uint8",
          "name": "",
          "type": "uint8"
        }
      ],
      "stateMutability": "view",
      "type": "function"
    },
    {
      "inputs": [
        {
          "internalType": "address",
          "name": "spender",
          "type": "address"
        },
        {
          "internalType": "uint256",
          "name": "subtractedValue",
          "type": "uint256"
        }
      ],
      "name": "decreaseAllowance",
      "outputs": [
        {
          "internalType": "bool",
          "name": "",
          "type": "bool"
        }
      ],
      "stateMutability": "nonpayable",
      "type": "function"
    },
    {
      "inputs": [
        {
          "internalType": "address",
          "name": "",
          "type": "address"
        },
        {
          "internalType": "uint256",
          "name": "",
          "type": "uint256"
        }
      ],
      "name": "escrowList",
      "outputs": [
        {
          "internalType": "enum Escrow.escrowState",
          "name": "state",
          "type": "uint8"
        },
        {
          "internalType": "uint32",
          "name": "amount",
          "type": "uint32"
        },
        {
          "internalType": "uint256",
          "name": "value",
          "type": "uint256"
        }
      ],
      "stateMutability": "view",
      "type": "function"
    },
    {
      "inputs": [],
      "name": "getAvailability",
      "outputs": [
        {
          "internalType": "uint32",
          "name": "available",
          "type": "uint32"
        }
      ],
      "stateMutability": "view",
      "type": "function"
    },
    {
      "inputs": [],
      "name": "getCurrentPrice",
      "outputs": [
        {
          "internalType": "uint256",
          "name": "price",
          "type": "uint256"
        }
      ],
      "stateMutability": "view",
      "type": "function"
    },
    {
      "inputs": [
        {
          "internalType": "address",
          "name": "_buyer",
          "type": "address"
        }
      ],
      "name": "getEscrowHistory",
      "outputs": [
        {
          "components": [
            {
              "internalType": "enum Escrow.escrowState",
              "name": "state",
              "type": "uint8"
            },
            {
              "internalType": "uint32",
              "name": "amount",
              "type": "uint32"
            },
            {
              "internalType": "uint256",
              "name": "value",
              "type": "uint256"
            }
          ],
          "internalType": "struct Escrow.escrowInfo[]",
          "name": "",
          "type": "tuple[]"
        }
      ],
      "stateMutability": "view",
      "type": "function"
    },
    {
      "inputs": [],
      "name": "getManager",
      "outputs": [
        {
          "internalType": "address",
          "name": "",
          "type": "address"
        }
      ],
      "stateMutability": "view",
      "type": "function"
    },
    {
      "inputs": [],
      "name": "getNewAttribute",
      "outputs": [
        {
          "internalType": "uint256",
          "name": "",
          "type": "uint256"
        }
      ],
      "stateMutability": "view",
      "type": "function"
    },
    {
      "inputs": [],
      "name": "getPoolInfo",
      "outputs": [
        {
          "components": [
            {
              "internalType": "uint256",
              "name": "amount",
              "type": "uint256"
            },
            {
              "internalType": "uint256",
              "name": "accRewardPerShare",
              "type": "uint256"
            },
            {
              "internalType": "uint256",
              "name": "tokenReward",
              "type": "uint256"
            }
          ],
          "internalType": "struct ProductTokenV1.PoolInfo",
          "name": "",
          "type": "tuple"
        }
      ],
      "stateMutability": "view",
      "type": "function"
    },
    {
      "inputs": [
        {
          "internalType": "uint32",
          "name": "_amountProduct",
          "type": "uint32"
        }
      ],
      "name": "getPriceForN",
      "outputs": [
        {
          "internalType": "uint256",
          "name": "price",
          "type": "uint256"
        }
      ],
      "stateMutability": "view",
      "type": "function"
    },
    {
      "inputs": [
        {
          "internalType": "address",
          "name": "_buyer",
          "type": "address"
        },
        {
          "internalType": "uint256",
          "name": "_id",
          "type": "uint256"
        }
      ],
      "name": "getRedeemStatus",
      "outputs": [
        {
          "internalType": "enum Escrow.escrowState",
          "name": "",
          "type": "uint8"
        }
      ],
      "stateMutability": "view",
      "type": "function"
    },
    {
      "inputs": [],
      "name": "getSupplierBalance",
      "outputs": [
        {
          "internalType": "uint256",
          "name": "",
          "type": "uint256"
        }
      ],
      "stateMutability": "view",
      "type": "function"
    },
    {
      "inputs": [],
      "name": "getSupplierInfo",
      "outputs": [
        {
          "components": [
            {
              "internalType": "uint256",
              "name": "amount",
              "type": "uint256"
            },
            {
              "internalType": "address",
              "name": "wallet",
              "type": "address"
            }
          ],
          "internalType": "struct ProductTokenV1.supplierInfo",
          "name": "",
          "type": "tuple"
        }
      ],
      "stateMutability": "view",
      "type": "function"
    },
    {
      "inputs": [
        {
          "internalType": "address",
          "name": "addr_",
          "type": "address"
        }
      ],
      "name": "getUserInfo",
      "outputs": [
        {
          "components": [
            {
              "internalType": "uint256",
              "name": "amount",
              "type": "uint256"
            },
            {
              "internalType": "uint256",
              "name": "rewardDebt",
              "type": "uint256"
            },
            {
              "internalType": "uint256",
              "name": "lastReward",
              "type": "uint256"
            },
            {
              "internalType": "uint256[]",
              "name": "records",
              "type": "uint256[]"
            }
          ],
          "internalType": "struct ProductTokenV1.UserInfo",
          "name": "",
          "type": "tuple"
        }
      ],
      "stateMutability": "view",
      "type": "function"
    },
    {
      "inputs": [
        {
          "internalType": "address",
          "name": "addr_",
          "type": "address"
        }
      ],
      "name": "getUserReward",
      "outputs": [
        {
          "internalType": "uint256",
          "name": "",
          "type": "uint256"
        }
      ],
      "stateMutability": "view",
      "type": "function"
    },
    {
      "inputs": [
        {
          "internalType": "address",
          "name": "spender",
          "type": "address"
        },
        {
          "internalType": "uint256",
          "name": "addedValue",
          "type": "uint256"
        }
      ],
      "name": "increaseAllowance",
      "outputs": [
        {
          "internalType": "bool",
          "name": "",
          "type": "bool"
        }
      ],
      "stateMutability": "nonpayable",
      "type": "function"
    },
    {
      "inputs": [
        {
          "internalType": "string",
          "name": "_name",
          "type": "string"
        },
        {
          "internalType": "string",
          "name": "_symbol",
          "type": "string"
        },
        {
          "internalType": "address",
          "name": "_bondingCurveAddress",
          "type": "address"
        },
        {
          "internalType": "uint32",
          "name": "_reserveRatio",
          "type": "uint32"
        },
        {
          "internalType": "uint32",
          "name": "_maxTokenCount",
          "type": "uint32"
        },
        {
          "internalType": "uint32",
          "name": "_supplyOffset",
          "type": "uint32"
        },
        {
          "internalType": "uint256",
          "name": "_baseReserve",
          "type": "uint256"
        }
      ],
      "name": "initialize",
      "outputs": [],
      "stateMutability": "nonpayable",
      "type": "function"
    },
    {
      "inputs": [
        {
          "internalType": "enum Escrow.escrowState",
          "name": "_state",
          "type": "uint8"
        }
      ],
      "name": "isStateCompleted",
      "outputs": [
        {
          "internalType": "bool",
          "name": "",
          "type": "bool"
        }
      ],
      "stateMutability": "pure",
      "type": "function"
    },
    {
      "inputs": [],
      "name": "launch",
      "outputs": [],
      "stateMutability": "nonpayable",
      "type": "function"
    },
    {
      "inputs": [],
      "name": "maxTokenCount",
      "outputs": [
        {
          "internalType": "uint32",
          "name": "",
          "type": "uint32"
        }
      ],
      "stateMutability": "view",
      "type": "function"
    },
    {
      "inputs": [],
      "name": "name",
      "outputs": [
        {
          "internalType": "string",
          "name": "",
          "type": "string"
        }
      ],
      "stateMutability": "view",
      "type": "function"
    },
    {
      "inputs": [],
      "name": "newAttribute",
      "outputs": [
        {
          "internalType": "uint256",
          "name": "",
          "type": "uint256"
        }
      ],
      "stateMutability": "view",
      "type": "function"
    },
    {
      "inputs": [],
      "name": "owner",
      "outputs": [
        {
          "internalType": "address",
          "name": "",
          "type": "address"
        }
      ],
      "stateMutability": "view",
      "type": "function"
    },
    {
      "inputs": [],
      "name": "pause",
      "outputs": [],
      "stateMutability": "nonpayable",
      "type": "function"
    },
    {
      "inputs": [],
      "name": "poolInfo",
      "outputs": [
        {
          "internalType": "uint256",
          "name": "amount",
          "type": "uint256"
        },
        {
          "internalType": "uint256",
          "name": "accRewardPerShare",
          "type": "uint256"
        },
        {
          "internalType": "uint256",
          "name": "tokenReward",
          "type": "uint256"
        }
      ],
      "stateMutability": "view",
      "type": "function"
    },
    {
      "inputs": [],
      "name": "renounceOwnership",
      "outputs": [],
      "stateMutability": "nonpayable",
      "type": "function"
    },
    {
      "inputs": [],
      "name": "reserveBalance",
      "outputs": [
        {
          "internalType": "uint256",
          "name": "",
          "type": "uint256"
        }
      ],
      "stateMutability": "view",
      "type": "function"
    },
    {
      "inputs": [],
      "name": "reserveRatio",
      "outputs": [
        {
          "internalType": "uint32",
          "name": "",
          "type": "uint32"
        }
      ],
      "stateMutability": "view",
      "type": "function"
    },
    {
      "inputs": [
        {
          "internalType": "uint32",
          "name": "amount_",
          "type": "uint32"
        }
      ],
      "name": "sell",
      "outputs": [],
      "stateMutability": "nonpayable",
      "type": "function"
    },
    {
      "inputs": [
        {
          "internalType": "address",
          "name": "_address",
          "type": "address"
        }
      ],
      "name": "setBondingCurve",
      "outputs": [],
      "stateMutability": "nonpayable",
      "type": "function"
    },
    {
      "inputs": [
        {
          "internalType": "address",
          "name": "highAddress_",
          "type": "address"
        }
      ],
      "name": "setHigh",
      "outputs": [],
      "stateMutability": "nonpayable",
      "type": "function"
    },
    {
      "inputs": [
        {
          "internalType": "address",
          "name": "addr_",
          "type": "address"
        }
      ],
      "name": "setManager",
      "outputs": [],
      "stateMutability": "nonpayable",
      "type": "function"
    },
    {
      "inputs": [],
      "name": "supplier",
      "outputs": [
        {
          "internalType": "uint256",
          "name": "amount",
          "type": "uint256"
        },
        {
          "internalType": "address",
          "name": "wallet",
          "type": "address"
        }
      ],
      "stateMutability": "view",
      "type": "function"
    },
    {
      "inputs": [],
      "name": "symbol",
      "outputs": [
        {
          "internalType": "string",
          "name": "",
          "type": "string"
        }
      ],
      "stateMutability": "view",
      "type": "function"
    },
    {
      "inputs": [],
      "name": "totalSupply",
      "outputs": [
        {
          "internalType": "uint256",
          "name": "",
          "type": "uint256"
        }
      ],
      "stateMutability": "view",
      "type": "function"
    },
    {
      "inputs": [
        {
          "internalType": "uint32",
          "name": "amount_",
          "type": "uint32"
        }
      ],
      "name": "tradein",
      "outputs": [],
      "stateMutability": "nonpayable",
      "type": "function"
    },
    {
      "inputs": [],
      "name": "tradeinCount",
      "outputs": [
        {
          "internalType": "uint32",
          "name": "",
          "type": "uint32"
        }
      ],
      "stateMutability": "view",
      "type": "function"
    },
    {
      "inputs": [],
      "name": "tradeinReserveBalance",
      "outputs": [
        {
          "internalType": "uint256",
          "name": "",
          "type": "uint256"
        }
      ],
      "stateMutability": "view",
      "type": "function"
    },
    {
      "inputs": [
        {
          "internalType": "address",
          "name": "recipient",
          "type": "address"
        },
        {
          "internalType": "uint256",
          "name": "amount",
          "type": "uint256"
        }
      ],
      "name": "transfer",
      "outputs": [
        {
          "internalType": "bool",
          "name": "",
          "type": "bool"
        }
      ],
      "stateMutability": "nonpayable",
      "type": "function"
    },
    {
      "inputs": [
        {
          "internalType": "address",
          "name": "sender",
          "type": "address"
        },
        {
          "internalType": "address",
          "name": "recipient",
          "type": "address"
        },
        {
          "internalType": "uint256",
          "name": "amount",
          "type": "uint256"
        }
      ],
      "name": "transferFrom",
      "outputs": [
        {
          "internalType": "bool",
          "name": "",
          "type": "bool"
        }
      ],
      "stateMutability": "nonpayable",
      "type": "function"
    },
    {
      "inputs": [
        {
          "internalType": "address",
          "name": "newOwner",
          "type": "address"
        }
      ],
      "name": "transferOwnership",
      "outputs": [],
      "stateMutability": "nonpayable",
      "type": "function"
    },
    {
      "inputs": [
        {
          "internalType": "uint256",
          "name": "fee_",
          "type": "uint256"
        }
      ],
      "name": "updatePool",
      "outputs": [],
      "stateMutability": "nonpayable",
      "type": "function"
    },
    {
      "inputs": [
        {
          "internalType": "address",
          "name": "wallet_",
          "type": "address"
        }
      ],
      "name": "updateSupplierInfo",
      "outputs": [],
      "stateMutability": "nonpayable",
      "type": "function"
    },
    {
      "inputs": [
        {
          "internalType": "address",
          "name": "buyer",
          "type": "address"
        },
        {
          "internalType": "uint256",
          "name": "id",
          "type": "uint256"
        }
      ],
      "name": "updateUserCompleted",
      "outputs": [],
      "stateMutability": "nonpayable",
      "type": "function"
    },
    {
      "inputs": [
        {
          "internalType": "address",
          "name": "buyer",
          "type": "address"
        },
        {
          "internalType": "uint256",
          "name": "id",
          "type": "uint256"
        }
      ],
      "name": "updateUserRefund",
      "outputs": [],
      "stateMutability": "nonpayable",
      "type": "function"
    },
    {
      "inputs": [
        {
          "internalType": "address",
          "name": "",
          "type": "address"
        }
      ],
      "name": "userInfo",
      "outputs": [
        {
          "internalType": "uint256",
          "name": "amount",
          "type": "uint256"
        },
        {
          "internalType": "uint256",
          "name": "rewardDebt",
          "type": "uint256"
        },
        {
          "internalType": "uint256",
          "name": "lastReward",
          "type": "uint256"
        }
      ],
      "stateMutability": "view",
      "type": "function"
    },
    {
      "inputs": [],
      "name": "voucher",
      "outputs": [
        {
          "internalType": "address",
          "name": "addr",
          "type": "address"
        },
        {
          "internalType": "contract IVNFT",
          "name": "instance",
          "type": "address"
        },
        {
          "internalType": "uint256",
          "name": "tokenId",
          "type": "uint256"
        },
        {
          "internalType": "bool",
          "name": "isEnable",
          "type": "bool"
        }
      ],
      "stateMutability": "view",
      "type": "function"
    },
    {
      "inputs": [
        {
          "internalType": "uint256",
          "name": "value_",
          "type": "uint256"
        }
      ],
      "name": "withdrawEther",
      "outputs": [],
      "stateMutability": "payable",
      "type": "function"
    },
    {
      "inputs": [
        {
          "internalType": "uint256",
          "name": "amount_",
          "type": "uint256"
        },
        {
          "internalType": "address",
          "name": "to_",
          "type": "address"
        }
      ],
      "name": "withdrawHigh",
      "outputs": [],
      "stateMutability": "nonpayable",
      "type": "function"
    },
    {
      "inputs": [
        {
          "internalType": "string",
          "name": "_name",
          "type": "string"
        },
        {
          "internalType": "string",
          "name": "_symbol",
          "type": "string"
        },
        {
          "internalType": "uint32",
          "name": "_reserveRatio",
          "type": "uint32"
        },
        {
          "internalType": "uint32",
          "name": "_maxTokenCount",
          "type": "uint32"
        },
        {
          "internalType": "uint32",
          "name": "_supplyOffset",
          "type": "uint32"
        },
        {
          "internalType": "uint256",
          "name": "_baseReserve",
          "type": "uint256"
        },
        {
          "internalType": "uint256",
          "name": "_newInitValue",
          "type": "uint256"
        },
        {
          "internalType": "address",
          "name": "_daiAddress",
          "type": "address"
        },
        {
          "internalType": "address",
          "name": "_chainlink",
          "type": "address"
        }
      ],
      "name": "initializeV3",
      "outputs": [],
      "stateMutability": "nonpayable",
      "type": "function"
    }
  ],
  "bytecode": "0x608060405234801561001057600080fd5b506147b1806100206000396000f3fe6080604052600436106102c55760003560e060020a9004806374a7b01211610175578063c757d4c7116100d6578063c757d4c7146108d4578063c75ebb82146108f4578063cdda418c14610914578063d0ebdbe714610973578063d500958414610993578063d96a094a146109b1578063dd304b1a146109d1578063dd62ed3e146109fe578063deebbef114610a44578063e67dc51814610a64578063eb91d37e14610a7a578063ebc9e4d614610a8f578063efea8a1314610aaf578063f2fde38b14610acf578063f97511d314610aef576102c5565b806374a7b012146106ee5780637a53e04014610750578063828f3a9c146107655780638456cb59146107855780638da5cb5b1461079a57806395d89b41146107bc578063964a6afe146107d15780639b9ffbf3146107e6578063a10954fe14610815578063a457c2d71461082b578063a8d926291461084b578063a9059cbb1461086b578063ba7a93b61461088b578063c4e627c2146108af576102c5565b80633bed33ce1161022a5780633bed33ce1461050057806343ff1fb814610513578063483335a114610533578063491052cd146105495780634ffd23a71461056957806351eb05a6146105895780635a2f3d09146105a95780635c8ea093146105c85780635e88752c146105e857806360246c88146106085780636386c1c71461063f57806363c51fbb1461066c5780636e74607b1461068c57806370a08231146106b9578063715018a6146106d9576102c5565b806301339c21146102d457806306fdde03146102eb578063095ea7b3146103165780630c7d5cd8146103465780630ccee99b1461037857806318160ddd146103985780631959a002146103b757806319d5b5871461040e578063224e4f481461042e57806323b872dd1461044e5780632f0a3fe41461046e578063313ce5671461048357806336da44681461049f57806339509351146104e0575b3480156102d157600080fd5b50005b3480156102e057600080fd5b506102e9610b0f565b005b3480156102f757600080fd5b50610300610bf7565b60405161030d9190614289565b60405180910390f35b34801561032257600080fd5b50610336610331366004613eab565b610c89565b604051901515815260200161030d565b34801561035257600080fd5b50609b546103639063ffffffff1681565b60405163ffffffff909116815260200161030d565b34801561038457600080fd5b506102e9610393366004613eab565b610ca0565b3480156103a457600080fd5b506035545b60405190815260200161030d565b3480156103c357600080fd5b506103f36103d2366004613e24565b60a76020526000908152604090208054600182015460029092015490919083565b6040805193845260208401929092529082015260600161030d565b34801561041a57600080fd5b506103a96104293660046140e6565b610d27565b34801561043a57600080fd5b506103a96104493660046140e6565b610e28565b34801561045a57600080fd5b50610336610469366004613e70565b610e4d565b34801561047a57600080fd5b506103a9610f16565b34801561048f57600080fd5b506040516000815260200161030d565b3480156104ab57600080fd5b50609e54609f546104c39190600160a060020a031682565b60408051928352600160a060020a0390911660208301520161030d565b3480156104ec57600080fd5b506103366104fb366004613eab565b610f2c565b6102e961050e366004614094565b610f63565b34801561051f57600080fd5b506102e961052e366004613e24565b611013565b34801561053f57600080fd5b506103a960a95481565b34801561055557600080fd5b50610336610564366004613ef4565b611090565b34801561057557600080fd5b506102e96105843660046140e6565b6110ea565b34801561059557600080fd5b506102e96105a4366004614094565b611271565b3480156105b557600080fd5b5060a05460a15460a2546103f392919083565b3480156105d457600080fd5b506102e96105e3366004613fc8565b6112ab565b3480156105f457600080fd5b506102e9610603366004614094565b611323565b34801561061457600080fd5b5061061d611488565b604080518251815260208084015190820152918101519082015260600161030d565b34801561064b57600080fd5b5061065f61065a366004613e24565b6114d1565b60405161030d9190614526565b34801561067857600080fd5b506102e96106873660046140e6565b6115be565b34801561069857600080fd5b506106ac6106a7366004613e24565b61176d565b60405161030d9190614208565b3480156106c557600080fd5b506103a96106d4366004613e24565b611853565b3480156106e557600080fd5b506102e961186e565b3480156106fa57600080fd5b5060408051808201825260008082526020918201528151808301909252609e548252609f54600160a060020a0316908201526040805182518152602092830151600160a060020a0316928101929092520161030d565b34801561075c57600080fd5b506103636118d8565b34801561077157600080fd5b50610363610780366004614094565b611924565b34801561079157600080fd5b506102e9611938565b3480156107a657600080fd5b506107af611a09565b60405161030d919061416a565b3480156107c857600080fd5b50610300611a18565b3480156107dd57600080fd5b50609e546103a9565b3480156107f257600080fd5b50610806610801366004613eab565b611a27565b60405161030d93929190614264565b34801561082157600080fd5b506103a960995481565b34801561083757600080fd5b50610336610846366004613eab565b611a72565b34801561085757600080fd5b506102e9610866366004613e24565b611b13565b34801561087757600080fd5b50610336610886366004613eab565b611b90565b34801561089757600080fd5b50609b5461036390604060020a900463ffffffff1681565b3480156108bb57600080fd5b50609b5461036390640100000000900463ffffffff1681565b3480156108e057600080fd5b506102e96108ef366004613eab565b611b9d565b34801561090057600080fd5b506103a961090f366004613e24565b611c86565b34801561092057600080fd5b5060a35460a45460a55460a65461094693600160a060020a039081169316919060ff1684565b60408051600160a060020a039586168152949093166020850152918301521515606082015260800161030d565b34801561097f57600080fd5b506102e961098e366004613e24565b611cfa565b34801561099f57600080fd5b50609c54600160a060020a03166107af565b3480156109bd57600080fd5b506102e96109cc366004614094565b611d77565b3480156109dd57600080fd5b506109f16109ec366004613eab565b61216d565b60405161030d9190614256565b348015610a0a57600080fd5b506103a9610a19366004613e3e565b600160a060020a03918216600090815260346020908152604080832093909416825291909152205490565b348015610a5057600080fd5b506102e9610a5f366004613e24565b6121c3565b348015610a7057600080fd5b506103a9609a5481565b348015610a8657600080fd5b506103a9612270565b348015610a9b57600080fd5b506102e9610aaa3660046140c4565b61227c565b348015610abb57600080fd5b506102e9610aca366004613f13565b612403565b348015610adb57600080fd5b506102e9610aea366004613e24565b612498565b348015610afb57600080fd5b506103a9610b0a3660046140e6565b612593565b33610b18611a09565b600160a060020a031614610b4a5760405160e560020a62461bcd028152600401610b4190614483565b60405180910390fd5b60985460ff1615610bb15760405160e560020a62461bcd02815260206004820152602560248201527f5468652070726f6475637420746f6b656e20697320616c7265616479206c6175604482015260da60020a641b98da1959026064820152608401610b41565b6098805460ff191660019081179091556040519081527f65c5ccecef030677b73a1403e7e69ef84d05db9d1732959d543d32f4419909b8906020015b60405180910390a1565b606060368054610c069061467b565b80601f0160208091040260200160405190810160405280929190818152602001828054610c329061467b565b8015610c7f5780601f10610c5457610100808354040283529160200191610c7f565b820191906000526020600020905b815481529060010190602001808311610c6257829003601f168201915b5050505050905090565b6000610c9633848461263a565b5060015b92915050565b610ca8611a09565b600160a060020a031633600160a060020a03161480610cd15750609c54600160a060020a031633145b610cf05760405160e560020a62461bcd028152600401610b419061444c565b600160a060020a038216610d195760405160e560020a62461bcd028152600401610b4190614313565b610d23828261276b565b5050565b6000808263ffffffff1611610d515760405160e560020a62461bcd028152600401610b4190614381565b609b54600090610d889063ffffffff606060020a8204811691610d829187811691604060020a90048116906128e416565b906128e4565b609d54609a54609b5460405160e060020a631c949873028152939450600160a060020a0390921692631c94987392610dcf928692909163ffffffff16908990600401614595565b60206040518083038186803b158015610de757600080fd5b505afa158015610dfb573d6000803e3d6000fd5b505050506040513d601f19601f82011682018060405250810190610e1f91906140ac565b9150505b919050565b6000806000610e36846128f7565b9092509050610e4582826129ba565b949350505050565b6000610e5a8484846129c6565b600160a060020a038416600090815260346020908152604080832033845290915290205482811015610ef75760405160e560020a62461bcd02815260206004820152602860248201527f45524332303a207472616e7366657220616d6f756e742065786365656473206160448201527f6c6c6f77616e63650000000000000000000000000000000000000000000000006064820152608401610b41565b610f0b8533610f06868561463f565b61263a565b506001949350505050565b600060a9546001610f2791906145bd565b905090565b336000818152603460209081526040808320600160a060020a03871684529091528120549091610c96918590610f069086906145bd565b33610f6c611a09565b600160a060020a031614610f955760405160e560020a62461bcd028152600401610b4190614483565b3031610fe65760405160e560020a62461bcd02815260206004820152600f60248201527f6e6f20656e6f75676820657468657200000000000000000000000000000000006044820152606401610b41565b604051339082156108fc029083906000818181858888f19350505050158015610d23573d6000803e3d6000fd5b3361101c611a09565b600160a060020a0316146110455760405160e560020a62461bcd028152600401610b4190614483565b600160a060020a03811661106e5760405160e560020a62461bcd028152600401610b41906142dc565b609d8054600160a060020a031916600160a060020a0392909216919091179055565b600060038260038111156110b75760e060020a634e487b7102600052602160045260246000fd5b1480610c9a575060028260038111156110e35760e060020a634e487b7102600052602160045260246000fd5b1492915050565b60985460ff1661110f5760405160e560020a62461bcd028152600401610b41906144b8565b8063ffffffff1661111f33611853565b101580611132575060008163ffffffff16115b6111515760405160e560020a62461bcd028152600401610b4190614381565b60008061115d83612bb2565b9150915061116a83612cc5565b60a85460405160e060020a63a9059cbb028152600091600160a060020a03169063a9059cbb906111a0903390879060040161417e565b602060405180830381600087803b1580156111ba57600080fd5b505af11580156111ce573d6000803e3d6000fd5b505050506040513d601f19601f820116820180604052508101906111f29190613ed4565b905061121b6112166501d1a94a20006112108564e8d4a51000612edb565b90612ee7565b612ef3565b8061126b5760405160e560020a62461bcd02815260206004820152601460248201527f73656c6c696e6720746f6b656e206661696c65640000000000000000000000006044820152606401610b41565b50505050565b60a054806112845750600060a1556112a8565b6112a361129a826112108564e8d4a51000612edb565b60a154906128e4565b60a155505b50565b600054610100900460ff16806112c4575060005460ff16155b6112e35760405160e560020a62461bcd028152600401610b41906143ef565b600054610100900460ff16158015611305576000805461ffff19166101011790555b8015611317576000805461ff00191690555b50505050505050505050565b609f54600160a060020a031661137e5760405160e560020a62461bcd02815260206004820152601160248201527f77616c6c657420697320696e76616c69640000000000000000000000000000006044820152606401610b41565b609f54600160a060020a031633146113db5760405160e560020a62461bcd02815260206004820152601a60248201527f5468652061646472657373206973206e6f7420616c6c6f7765640000000000006044820152606401610b41565b609e5481116112a85760a85460405160e060020a63a9059cbb028152600091600160a060020a03169063a9059cbb9061141a903390869060040161417e565b602060405180830381600087803b15801561143457600080fd5b505af1158015611448573d6000803e3d6000fd5b505050506040513d601f19601f8201168201806040525081019061146c9190613ed4565b90508015610d2357609e5461148190836129ba565b609e555050565b6114ac60405180606001604052806000815260200160008152602001600081525090565b506040805160608101825260a054815260a154602082015260a2549181019190915290565b6114fc6040518060800160405280600081526020016000815260200160008152602001606081525090565b600160a060020a0382166115255760405160e560020a62461bcd028152600401610b41906143b8565b600160a060020a038216600090815260a7602090815260409182902082516080810184528154815260018201548184015260028201548185015260038201805485518186028101860190965280865291949293606086019392908301828280156115ae57602002820191906000526020600020905b81548152602001906001019080831161159a575b5050505050815250509050919050565b60985460ff166115e35760405160e560020a62461bcd028152600401610b41906144b8565b60008163ffffffff161161160c5760405160e560020a62461bcd028152600401610b41906144ef565b8063ffffffff1661161c33611853565b101561166d5760405160e560020a62461bcd02815260206004820152601c60248201527f496e73756666696369656e7420746f6b656e7320746f206275726e2e000000006044820152606401610b41565b600080611679836128f7565b91509150600061168884610d27565b90506116ab61121682610d826512309ce54000611210876509184e72a000612edb565b6116b583836129ba565b92506116c18484612f0c565b506116d2338563ffffffff16613060565b609b546116ed908590604060020a900463ffffffff166145d5565b609b80546bffffffff00000000000000001916604060020a63ffffffff93841602179055609a546117209183906128e416565b609a5561172c84612cc5565b60405163ffffffff8516815233907fe600c25f82e9bac8f9f1663725540d6cd442845726820fd5bee41b66c4bf59be9060200160405180910390a250505050565b600160a060020a0381166000908152606560209081526040808320805482518185028101850190935280835260609492939192909184015b82821015611848576000848152602090206040805160608101909152600284029091018054829060ff1660038111156117f15760e060020a634e487b7102600052602160045260246000fd5b60038111156118135760e060020a634e487b7102600052602160045260246000fd5b81528154610100900463ffffffff166020808301919091526001928301546040909201919091529183529290920191016117a5565b505050509050919050565b600160a060020a031660009081526033602052604090205490565b33611877611a09565b600160a060020a0316146118a05760405160e560020a62461bcd028152600401610b4190614483565b606654604051600091600160a060020a03169060008051602061473c833981519152908390a360668054600160a060020a0319169055565b609b54600090604060020a900463ffffffff166118f460355490565b609b5461190f9190640100000000900463ffffffff16614656565b6119199190614656565b610f279060646145d5565b600080611930836131a9565b509392505050565b33611941611a09565b600160a060020a03161461196a5760405160e560020a62461bcd028152600401610b4190614483565b60985460ff166119ce5760405160e560020a62461bcd02815260206004820152602360248201527f5468652070726f6475637420746f6b656e20697320616c726561647920706175604482015260ea60020a621cd959026064820152608401610b41565b6098805460ff19169055604051600081527f65c5ccecef030677b73a1403e7e69ef84d05db9d1732959d543d32f4419909b890602001610bed565b606654600160a060020a031690565b606060378054610c069061467b565b60656020528160005260406000208181548110611a4357600080fd5b60009182526020909120600290910201805460019091015460ff8216935061010090910463ffffffff16915083565b336000908152603460209081526040808320600160a060020a038616845290915281205482811015611afa5760405160e560020a62461bcd02815260206004820152602560248201527f45524332303a2064656372656173656420616c6c6f77616e63652062656c6f77604482015260d860020a64207a65726f026064820152608401610b41565b611b093385610f06868561463f565b5060019392505050565b33611b1c611a09565b600160a060020a031614611b455760405160e560020a62461bcd028152600401610b4190614483565b600160a060020a038116611b6e5760405160e560020a62461bcd028152600401610b41906142dc565b60a88054600160a060020a031916600160a060020a0392909216919091179055565b6000610c963384846129c6565b611ba5611a09565b600160a060020a031633600160a060020a03161480611bce5750609c54600160a060020a031633145b611bed5760405160e560020a62461bcd028152600401610b419061444c565b600160a060020a038216611c165760405160e560020a62461bcd028152600401610b4190614313565b6000611c2283836132ae565b905060008111611c775760405160e560020a62461bcd02815260206004820152600d60248201527f496e76616c69642076616c7565000000000000000000000000000000000000006044820152606401610b41565b611c81838261345f565b505050565b600160a060020a038116600090815260a7602052604081205415611cf257600160a060020a038216600090815260a760205260409020600181015460a154825460a092611ce9929091611ce39164e8d4a510009161121091612edb565b906129ba565b92505050610e23565b506000919050565b33611d03611a09565b600160a060020a031614611d2c5760405160e560020a62461bcd028152600401610b4190614483565b600160a060020a038116611d555760405160e560020a62461bcd028152600401610b41906143b8565b609c8054600160a060020a031916600160a060020a0392909216919091179055565b60985460ff16611d9c5760405160e560020a62461bcd028152600401610b41906144b8565b60008111611def5760405160e560020a62461bcd02815260206004820152601160248201527f696e76616c6964206d61782070726963650000000000000000000000000000006044820152606401610b41565b60a85460405160e060020a6323b872dd02815233600482015230602482015260448101839052600091600160a060020a0316906323b872dd90606401602060405180830381600087803b158015611e4557600080fd5b505af1158015611e59573d6000803e3d6000fd5b505050506040513d601f19601f82011682018060405250810190611e7d9190613ed4565b905080611ecf5760405160e560020a62461bcd02815260206004820152601060248201527f5075726368617365206661696c65642e000000000000000000000000000000006044820152606401610b41565b600080600080611ede86613539565b93509350935063ffffffff16935060008411156120dc578215611f845760a85460405160e060020a63a9059cbb028152600160a060020a039091169063a9059cbb90611f30903390879060040161417e565b602060405180830381600087803b158015611f4a57600080fd5b505af1158015611f5e573d6000803e3d6000fd5b505050506040513d601f19601f82011682018060405250810190611f829190613ed4565b505b611fa0611216650746a52880006112108464e8d4a51000612edb565b6000611fbc650746a528800061121084650574fbde6000612edb565b60a254909150611fcc90826128e4565b60a255611fd881611271565b33600090815260a760205260408120600181015460a1548254929360a0939092612012929091611ce39164e8d4a510009161121091612edb565b905080156120ba576002830181905560a85460405160e060020a63a9059cbb028152600160a060020a039091169063a9059cbb90612056903390859060040161417e565b602060405180830381600087803b15801561207057600080fd5b505af1158015612084573d6000803e3d6000fd5b505050506040513d601f19601f820116820180604052508101906120a89190613ed4565b5060a2546120b690826129ba565b60a2555b60a0546120c790876128e4565b60a0556120d38661369e565b50505050612165565b60a85460405160e060020a63a9059cbb028152600160a060020a039091169063a9059cbb906121119033908a9060040161417e565b602060405180830381600087803b15801561212b57600080fd5b505af115801561213f573d6000803e3d6000fd5b505050506040513d601f19601f820116820180604052508101906121639190613ed4565b505b505050505050565b600160a060020a03821660009081526065602052604081208054839081106121a85760e060020a634e487b7102600052603260045260246000fd5b600091825260209091206002909102015460ff169392505050565b336121cc611a09565b600160a060020a0316146121f55760405160e560020a62461bcd028152600401610b4190614483565b600160a060020a03811661224e5760405160e560020a62461bcd02815260206004820152601260248201527f4164647265737320697320696e76616c696400000000000000000000000000006044820152606401610b41565b609f8054600160a060020a031916600160a060020a0392909216919091179055565b6000610f276001612593565b33612285611a09565b600160a060020a0316146122ae5760405160e560020a62461bcd028152600401610b4190614483565b600160a060020a0381166122d75760405160e560020a62461bcd028152600401610b41906143b8565b60a85460405160e060020a6370a08231028152600160a060020a03909116906370a082319061230a90309060040161416a565b60206040518083038186803b15801561232257600080fd5b505afa158015612336573d6000803e3d6000fd5b505050506040513d601f19601f8201168201806040525081019061235a91906140ac565b82111561237c5760405160e560020a62461bcd028152600401610b4190614381565b60a85460405160e060020a63a9059cbb028152600160a060020a039091169063a9059cbb906123b1908490869060040161417e565b602060405180830381600087803b1580156123cb57600080fd5b505af11580156123df573d6000803e3d6000fd5b505050506040513d601f19601f82011682018060405250810190611c819190613ed4565b600054610100900460ff168061241c575060005460ff16155b61243b5760405160e560020a62461bcd028152600401610b41906143ef565b600054610100900460ff1615801561245d576000805461ffff19166101011790555b6124656136f7565b61246f8888613775565b61247c86868686866137f7565b801561248e576000805461ff00191690555b5050505050505050565b336124a1611a09565b600160a060020a0316146124ca5760405160e560020a62461bcd028152600401610b4190614483565b600160a060020a0381166125495760405160e560020a62461bcd02815260206004820152602660248201527f4f776e61626c653a206e6577206f776e657220697320746865207a65726f206160448201527f64647265737300000000000000000000000000000000000000000000000000006064820152608401610b41565b606654604051600160a060020a0380841692169060008051602061473c83398151915290600090a360668054600160a060020a031916600160a060020a0392909216919091179055565b609d54600090600160a060020a031663bff82d846125af61398a565b609954609b546125c79063ffffffff1661c3506145d5565b866040518563ffffffff1660e060020a0281526004016125ea9493929190614595565b60206040518083038186803b15801561260257600080fd5b505afa158015612616573d6000803e3d6000fd5b505050506040513d601f19601f82011682018060405250810190610c9a91906140ac565b600160a060020a0383166126a25760405160e560020a62461bcd028152602060048201526024808201527f45524332303a20617070726f76652066726f6d20746865207a65726f20616464604482015260e060020a6372657373026064820152608401610b41565b600160a060020a0382166127095760405160e560020a62461bcd02815260206004820152602260248201527f45524332303a20617070726f766520746f20746865207a65726f206164647265604482015260f060020a617373026064820152608401610b41565b600160a060020a0383811660008181526034602090815260408083209487168084529482529182902085905590518481527f8c5be1e5ebec7d5bd14f71427d1e84f3dd0314c0f7b2291e5b200ac8c7c3b92591015b60405180910390a3505050565b600160a060020a038216600090815260656020526040902080546127c49190839081106127ab5760e060020a634e487b7102600052603260045260246000fd5b600091825260209091206002909102015460ff16611090565b156127e45760405160e560020a62461bcd028152600401610b419061434a565b600160a060020a0382166000908152606560205260409020805460039190839081106128235760e060020a634e487b7102600052603260045260246000fd5b60009182526020909120600290910201805460ff1916600183600381111561285e5760e060020a634e487b7102600052602160045260246000fd5b021790555060008051602061471c83398151915282826065600086600160a060020a0316600160a060020a0316815260200190815260200160002084815481106128bb5760e060020a634e487b7102600052603260045260246000fd5b90600052602060002090600202016040516128d8939291906141bb565b60405180910390a15050565b60006128f082846145bd565b9392505050565b609d5460009081908190600160a060020a0316631c94987361291761398a565b609954609b5460405163ffffffff85811660e060020a02825261294294939216908a90600401614595565b60206040518083038186803b15801561295a57600080fd5b505afa15801561296e573d6000803e3d6000fd5b505050506040513d601f19601f8201168201806040525081019061299291906140ac565b905060006129ae64e8d4a51000611210846404a817c800612edb565b91935090915050915091565b60006128f0828461463f565b600160a060020a038316612a305760405160e560020a62461bcd02815260206004820152602560248201527f45524332303a207472616e736665722066726f6d20746865207a65726f206164604482015260d860020a646472657373026064820152608401610b41565b600160a060020a038216612a985760405160e560020a62461bcd02815260206004820152602360248201527f45524332303a207472616e7366657220746f20746865207a65726f2061646472604482015260e860020a62657373026064820152608401610b41565b600160a060020a03831660009081526033602052604090205481811015612b2a5760405160e560020a62461bcd02815260206004820152602660248201527f45524332303a207472616e7366657220616d6f756e742065786365656473206260448201527f616c616e636500000000000000000000000000000000000000000000000000006064820152608401610b41565b612b34828261463f565b600160a060020a038086166000908152603360205260408082209390935590851681529081208054849290612b6a9084906145bd565b9250508190555082600160a060020a031684600160a060020a031660008051602061475c83398151915284604051612ba491815260200190565b60405180910390a350505050565b60008060008363ffffffff1611612bde5760405160e560020a62461bcd028152600401610b41906144ef565b8263ffffffff16612bee33611853565b1015612c3f5760405160e560020a62461bcd02815260206004820152601c60248201527f496e73756666696369656e7420746f6b656e7320746f2073656c6c2e000000006044820152606401610b41565b600080612c4b856128f7565b6099549193509150612c5d90836129ba565b609955612c703363ffffffff8716613060565b6040805163ffffffff871681526020810184905233917f84c8d08e5480cf09cbf77bc575dc4e63845522693c34094f04129a4dedb7abd7910160405180910390a2612cbb82826129ba565b9350915050915091565b33600090815260a76020526040902054156112a85733600081815260a76020526040902060038101549091612cf990611853565b11610d2357600381015463ffffffff831690811115612d19575060038101545b6000805b82811015612dc557600384018054612d769190612d3b9060016129ba565b81548110612d5c5760e060020a634e487b7102600052603260045260246000fd5b9060005260206000200154836128e490919063ffffffff16565b915083600301805480612d9c5760e060020a634e487b7102600052603160045260246000fd5b600190038181906000526020600020016000905590558080612dbd906146ba565b915050612d1d565b50600183015460a154845460a092600092612dee92611ce39164e8d4a510009161121091612edb565b60a054909150612dfe90846129ba565b60a0558015612ea7576002850181905560a85460405160e060020a63a9059cbb028152600160a060020a039091169063a9059cbb90612e43903390859060040161417e565b602060405180830381600087803b158015612e5d57600080fd5b505af1158015612e71573d6000803e3d6000fd5b505050506040513d601f19601f82011682018060405250810190612e959190613ed4565b5060a254612ea390826129ba565b60a2555b8454612eb390846129ba565b80865560a154612ece9164e8d4a51000916112109190612edb565b6001860155505050505050565b60006128f08284614620565b60006128f082846145fd565b80156112a857609e54612f0690826128e4565b609e5550565b6000808363ffffffff1611612f665760405160e560020a62461bcd02815260206004820152600e60248201527f496e76616c696420416d6f756e740000000000000000000000000000000000006044820152606401610b41565b60408051606081018252600180825263ffffffff861660208084019190915282840186905233600090815260658252938420805480840182559085529320825160029094020180549293849391929091839160ff1990911690836003811115612fe25760e060020a634e487b7102600052602160045260246000fd5b0217905550602082810151825463ffffffff9091166101000264ffffffff001990911617825560409283015160019283015533600090815260659091529182205461302d919061463f565b905060008051602061471c83398151915233828460405161305093929190614197565b60405180910390a1949350505050565b600160a060020a0382166130c65760405160e560020a62461bcd02815260206004820152602160248201527f45524332303a206275726e2066726f6d20746865207a65726f20616464726573604482015260f860020a6073026064820152608401610b41565b600160a060020a038216600090815260336020526040902054818110156131405760405160e560020a62461bcd02815260206004820152602260248201527f45524332303a206275726e20616d6f756e7420657863656564732062616c616e604482015260f060020a616365026064820152608401610b41565b61314a828261463f565b600160a060020a0384166000908152603360205260408120919091556035805484929061317890849061463f565b9091555050604051828152600090600160a060020a0385169060008051602061475c8339815191529060200161275e565b600080806131c564fb750430006112108664e8d4a51000612edb565b905060006131e164e8d4a5100061121084640df8475800612edb565b609d54909150600090600160a060020a0316639f4ae6b061320061398a565b609954609b5463ffffffff9081169061321d90899089906129ba16565b60405163ffffffff86811660e060020a0282529485166004820152602481019390935292166044820152606481019190915260840160206040518083038186803b15801561326a57600080fd5b505afa15801561327e573d6000803e3d6000fd5b505050506040513d601f19601f820116820180604052508101906132a29190614102565b94509092505050915091565b600160a060020a038216600090815260656020526040812080546132ee9190849081106127ab5760e060020a634e487b7102600052603260045260246000fd5b1561330e5760405160e560020a62461bcd028152600401610b419061434a565b600160a060020a03831660009081526065602052604090208054600291908490811061334d5760e060020a634e487b7102600052603260045260246000fd5b60009182526020909120600290910201805460ff191660018360038111156133885760e060020a634e487b7102600052602160045260246000fd5b021790555060008051602061471c83398151915283836065600087600160a060020a0316600160a060020a0316815260200190815260200160002085815481106133e55760e060020a634e487b7102600052603260045260246000fd5b9060005260206000209060020201604051613402939291906141bb565b60405180910390a1600160a060020a03831660009081526065602052604090208054839081106134455760e060020a634e487b7102600052603260045260246000fd5b906000526020600020906002020160010154905092915050565b60a85460405160e060020a63a9059cbb028152600091600160a060020a03169063a9059cbb90613495908690869060040161417e565b602060405180830381600087803b1580156134af57600080fd5b505af11580156134c3573d6000803e3d6000fd5b505050506040513d601f19601f820116820180604052508101906134e79190613ed4565b905080611c815760405160e560020a62461bcd02815260206004820152601360248201527f726566756e6420746f6b656e206661696c6564000000000000000000000000006044820152606401610b41565b60008060008060006135496118d8565b63ffffffff161161359f5760405160e560020a62461bcd02815260206004820152601e60248201527f536f7272792c207468697320746f6b656e20697320736f6c64206f75742e00006044820152606401610b41565b600085116135f25760405160e560020a62461bcd02815260206004820152601960248201527f4465706f736974206d757374206265206e6f6e2d7a65726f2e000000000000006044820152606401610b41565b6000806135ff60016139b7565b91509150868211156136205760008760008095509550955095505050613697565b61362b336001613a6e565b61364161363883836129ba565b609954906128e4565b60995560408051600181526020810184905233917f5b55159a377d86da80a65140d62d994ddbb2cbd4bb2d1b59cb0827fecbe47cab910160405180910390a2600161368c88846129ba565b909650945090925090505b9193509193565b33600090815260a76020526040902080546136b990836128e4565b8155600381018054600181018255600091825260209091200182905560a15481546136ee9164e8d4a510009161121091612edb565b60019091015550565b600054610100900460ff1680613710575060005460ff16155b61372f5760405160e560020a62461bcd028152600401610b41906143ef565b600054610100900460ff16158015613751576000805461ffff19166101011790555b613759613b3e565b613761613bab565b80156112a8576000805461ff001916905550565b600054610100900460ff168061378e575060005460ff16155b6137ad5760405160e560020a62461bcd028152600401610b41906143ef565b600054610100900460ff161580156137cf576000805461ffff19166101011790555b6137d7613b3e565b6137e18383613c4a565b8015611c81576000805461ff0019169055505050565b600054610100900460ff1680613810575060005460ff16155b61382f5760405160e560020a62461bcd028152600401610b41906143ef565b600054610100900460ff16158015613851576000805461ffff19166101011790555b60008463ffffffff16116138aa5760405160e560020a62461bcd02815260206004820152601860248201527f496e76616c6964206d617820746f6b656e20636f756e742e00000000000000006044820152606401610b41565b60008563ffffffff16116139035760405160e560020a62461bcd02815260206004820152601560248201527f496e76616c6964207265736572766520726174696f00000000000000000000006044820152606401610b41565b609d8054600160a060020a038816600160a060020a03199091161790556099829055609a829055609b805463ffffffff8681166401000000000267ffffffffffffffff19828816606060020a02166fffffffff00000000ffffffffffffffff1990931692909217908816171790558015612165576000805461ff0019169055505050505050565b609b54600090610f279063ffffffff606060020a8204811691610d8291604060020a909104168160355490565b609d5460009081908190600160a060020a031663bff82d846139d761398a565b609954609b5460405163ffffffff85811660e060020a028252613a0294939216908a90600401614595565b60206040518083038186803b158015613a1a57600080fd5b505afa158015613a2e573d6000803e3d6000fd5b505050506040513d601f19601f82011682018060405250810190613a5291906140ac565b905060006129ae64e8d4a51000611210846412a05f2000612edb565b600160a060020a038216613ac75760405160e560020a62461bcd02815260206004820152601f60248201527f45524332303a206d696e7420746f20746865207a65726f2061646472657373006044820152606401610b41565b8060356000828254613ad991906145bd565b9091555050600160a060020a03821660009081526033602052604081208054839290613b069084906145bd565b9091555050604051818152600160a060020a0383169060009060008051602061475c8339815191529060200160405180910390a35050565b600054610100900460ff1680613b57575060005460ff16155b613b765760405160e560020a62461bcd028152600401610b41906143ef565b600054610100900460ff16158015613761576000805461ffff191661010117905580156112a8576000805461ff001916905550565b600054610100900460ff1680613bc4575060005460ff16155b613be35760405160e560020a62461bcd028152600401610b41906143ef565b600054610100900460ff16158015613c05576000805461ffff19166101011790555b60668054600160a060020a03191633908117909155604051819060009060008051602061473c833981519152908290a35080156112a8576000805461ff001916905550565b600054610100900460ff1680613c63575060005460ff16155b613c825760405160e560020a62461bcd028152600401610b41906143ef565b600054610100900460ff16158015613ca4576000805461ffff19166101011790555b8251613cb7906036906020860190613ce2565b508151613ccb906037906020850190613ce2565b508015611c81576000805461ff0019169055505050565b828054613cee9061467b565b90600052602060002090601f016020900481019282613d105760008555613d56565b82601f10613d2957805160ff1916838001178555613d56565b82800160010185558215613d56579182015b82811115613d56578251825591602001919060010190613d3b565b50613d62929150613d66565b5090565b5b80821115613d625760008155600101613d67565b8035600160a060020a0381168114610e2357600080fd5b600082601f830112613da2578081fd5b813567ffffffffffffffff80821115613dbd57613dbd6146ef565b604051601f8301601f19908116603f01168101908282118183101715613de557613de56146ef565b81604052838152866020858801011115613dfd578485fd5b8360208701602083013792830160200193909352509392505050565b8035610e2381614709565b600060208284031215613e35578081fd5b6128f082613d7b565b60008060408385031215613e50578081fd5b613e5983613d7b565b9150613e6760208401613d7b565b90509250929050565b600080600060608486031215613e84578081fd5b613e8d84613d7b565b9250613e9b60208501613d7b565b9150604084013590509250925092565b60008060408385031215613ebd578182fd5b613ec683613d7b565b946020939093013593505050565b600060208284031215613ee5578081fd5b815180151581146128f0578182fd5b600060208284031215613f05578081fd5b8135600481106128f0578182fd5b600080600080600080600060e0888a031215613f2d578283fd5b873567ffffffffffffffff80821115613f44578485fd5b613f508b838c01613d92565b985060208a0135915080821115613f65578485fd5b50613f728a828b01613d92565b965050613f8160408901613d7b565b94506060880135613f9181614709565b93506080880135613fa181614709565b925060a0880135613fb181614709565b8092505060c0880135905092959891949750929550565b60008060008060008060008060006101208a8c031215613fe6578182fd5b893567ffffffffffffffff80821115613ffd578384fd5b6140098d838e01613d92565b9a5060208c013591508082111561401e578384fd5b5061402b8c828d01613d92565b98505060408a013561403c81614709565b965060608a013561404c81614709565b955061405a60808b01613e19565b945060a08a0135935060c08a0135925061407660e08b01613d7b565b91506140856101008b01613d7b565b90509295985092959850929598565b6000602082840312156140a5578081fd5b5035919050565b6000602082840312156140bd578081fd5b5051919050565b600080604083850312156140d6578182fd5b82359150613e6760208401613d7b565b6000602082840312156140f7578081fd5b81356128f081614709565b600060208284031215614113578081fd5b81516128f081614709565b600481106141405760e060020a634e487b710260009081526021600452602490fd5b9052565b61414f82825161411e565b60208181015163ffffffff1690830152604090810151910152565b600160a060020a0391909116815260200190565b600160a060020a03929092168252602082015260400190565b600160a060020a03841681526020810183905260a08101610e456040830184614144565b600160a060020a038416815260208101839052815460a08201906141e56040840160ff831661411e565b63ffffffff61010082041660608401525060018301546080830152949350505050565b6020808252825182820181905260009190848201906040850190845b8181101561424a57614237838551614144565b9284019260609290920191600101614224565b50909695505050505050565b60208101610c9a828461411e565b60608101614272828661411e565b63ffffffff93909316602082015260400152919050565b6000602080835283518082850152825b818110156142b557858101830151858201604001528201614299565b818111156142c65783604083870101525b50601f01601f1916929092016040019392505050565b6020808252600f908201527f496e76616c696420616464726573730000000000000000000000000000000000604082015260600190565b6020808252600d908201527f496e76616c696420627579657200000000000000000000000000000000000000604082015260600190565b60208082526011908201527f616c726561647920636f6d706c65746564000000000000000000000000000000604082015260600190565b6020808252600e908201527f696e76616c696420616d6f756e74000000000000000000000000000000000000604082015260600190565b6020808252600f908201527f696e76616c696420616464726573730000000000000000000000000000000000604082015260600190565b6020808252602e908201527f496e697469616c697a61626c653a20636f6e747261637420697320616c72656160408201527f647920696e697469616c697a6564000000000000000000000000000000000000606082015260800190565b60208082526011908201527f7065726d697373696f6e2064656e696564000000000000000000000000000000604082015260600190565b6020808252818101527f4f776e61626c653a2063616c6c6572206973206e6f7420746865206f776e6572604082015260600190565b60208082526013908201527f756e61626c6520746f207472616465206e6f7700000000000000000000000000604082015260600190565b60208082526018908201527f416d6f756e74206d757374206265206e6f6e2d7a65726f2e0000000000000000604082015260600190565b6000602080835260a0830184518285015281850151604085015260408501516060850152606085015160808086015281815180845260c08701915084830193508592505b8083101561458a578351825292840192600192909201919084019061456a565b509695505050505050565b63ffffffff948516815260208101939093529083166040830152909116606082015260800190565b600082198211156145d0576145d06146d5565b500190565b600063ffffffff8083168185168083038211156145f4576145f46146d5565b01949350505050565b60008261461b5760e060020a634e487b710281526012600452602481fd5b500490565b600081600019048311821515161561463a5761463a6146d5565b500290565b600082821015614651576146516146d5565b500390565b600063ffffffff83811690831681811015614673576146736146d5565b039392505050565b60028104600182168061468f57607f821691505b602082108114156146b45760e060020a634e487b710260009081526022600452602490fd5b50919050565b60006000198214156146ce576146ce6146d5565b5060010190565b60e060020a634e487b710260009081526011600452602490fd5b60e060020a634e487b710260009081526041600452602490fd5b63ffffffff811681146112a857600080fdfe09c64bee251b684a6bb80ce179dd520c001481b7c3d7781f1502e3052af474cf8be0079c531659141344cd1fd0a4f28419497f9722a3daafe3b4186f6b6457e0ddf252ad1be2c89b69c2b068fc378daa952ba7f163c4a11628f55a4df523b3efa2646970667358221220e03456e88ce37e6deeb4535ae9ee4ed22e2bd6bdc73f82d35b6f74853bfd31c364736f6c63430008030033",
  "immutableReferences": {},
  "source": "pragma solidity ^0.8.2;\n\nimport \"@openzeppelin/contracts-upgradeable/token/ERC20/ERC20Upgradeable.sol\";\nimport \"@openzeppelin/contracts-upgradeable/utils/math/SafeMathUpgradeable.sol\";\n\nimport \"../ProductToken.sol\";\nimport \"../ProductTokenV1.sol\";\nimport \"../Power.sol\";\n\n\ncontract ProductTokenV2 is ProductTokenV1 {\n  uint256 public newAttribute;\n\n  function getNewAttribute()\n  public view returns (uint256)\n  {\n    return newAttribute + 1;\n  }\n\n  function getPriceForN(uint32 _amountProduct) \n  \tpublic view override returns(uint256 price)\n  {\n  \treturn bondingCurve.calculatePriceForNTokens(_getTotalSupply(), reserveBalance, reserveRatio+50000, _amountProduct);\n  }\n\n    function getAvailability()\n     public view override returns (uint32 available)\n  {\n    return maxTokenCount - uint32(totalSupply()) - tradeinCount+100;   \n  }\n\n} \n\ncontract ProductTokenV3 is ProductTokenV2 {\n    using SafeMathUpgradeable for uint256;\n    uint32 private constant MAX_RESERVE_RATIO = 2000000;\n\n    function initializeV3(string memory _name, string memory _symbol, uint32 _reserveRatio, uint32 _maxTokenCount, uint32 _supplyOffset, uint256 _baseReserve, uint256 _newInitValue, address _daiAddress, address _chainlink) public  initializer {\n    }\n}\n\ncontract ProductTokenDestroy {\n\n}\n\ncontract ProductTokenV4 is ProductTokenV2 {\n\n}\n\ncontract ProductTokenV5 is ProductTokenV3 {\n  uint256  public newInitValue;\n/**\n   * @dev Constructor\n   *\n   * @param _reserveRatio             the reserve ratio in the curve function\n   * @param _maxTokenCount\t\t\t\t\t\tthe amount of token that will exist for this type.\n   * @param _supplyOffset             a initial amount of offset that drive the price to a starting price\n   * @param _baseReserve              the reserve balance when supply is 0. This is calculated based on the balance function, and evaluated at s = _supplyOffset\n  */\n  function initializeV5(string memory _name, string memory _symbol, address _bondingCurveAddress, uint32 _reserveRatio, uint32 _maxTokenCount, uint32 _supplyOffset, uint256 _baseReserve, uint256 _newInitValue, address _daiAddress, address _chainlink) public  initializer {\t\t\n    __ERC20_init(_name, _symbol);\n    // ProductToken.__ProductToken_init_unchained(_bondingCurveAddress, _reserveRatio, _maxTokenCount, _supplyOffset, _baseReserve);\n    // ProductTokenV1.__ProductToken_init_unchained(_daiAddress, _chainlink);\n    newInitValue= _newInitValue;\n  }\n  function getNewInitValue() public view returns(uint256){\n    return newInitValue;\n  }\n}\n",
  "sourcePath": "/Users/jack/Documents/GitHub/HighStreet/client/src/contracts/Mock/ProductTokenV2.sol",
  "compiler": {
    "name": "solc",
    "version": "0.8.3+commit.8d00100c.Emscripten.clang"
  },
  "schemaVersion": "3.4.0",
  "updatedAt": "2021-09-26T08:29:11.737Z",
  "devdoc": {
    "kind": "dev",
    "methods": {
      "allowance(address,address)": {
        "details": "See {IERC20-allowance}."
      },
      "approve(address,uint256)": {
        "details": "See {IERC20-approve}. Requirements: - `spender` cannot be the zero address."
      },
      "balanceOf(address)": {
        "details": "See {IERC20-balanceOf}."
      },
      "calculateBuyReturn(uint256)": {
        "details": "Function that computes number of product tokens one can buy given an amount in reserve token.",
        "params": {
          "_amountReserve": "purchaing amount in reserve token (dai)(with 4% platform fee)"
        },
        "returns": {
          "mintAmount": "             number of tokens in traded token that can be purchased by given amount."
        }
      },
      "calculateSellReturn(uint32)": {
        "details": "Function that computes selling price in reserve tokens given an amount in traded token.",
        "params": {
          "_amountProduct": "selling amount in product token"
        },
        "returns": {
          "soldAmount": "             total amount that will be transferred to the seller (with 2% platform fee)."
        }
      },
      "decimals()": {
        "details": "Returns the number of decimals used to get its user representation. For example, if `decimals` equals `2`, a balance of `505` tokens should be displayed to a user as `5,05` (`505 / 10 ** 2`). Tokens usually opt for a value of 18, imitating the relationship between Ether and Wei. This is the value {ERC20} uses, unless this function is overloaded; NOTE: This information is only used for _display_ purposes: it in no way affects any of the arithmetic of the contract, including {IERC20-balanceOf} and {IERC20-transfer}."
      },
      "decreaseAllowance(address,uint256)": {
        "details": "Atomically decreases the allowance granted to `spender` by the caller. This is an alternative to {approve} that can be used as a mitigation for problems described in {IERC20-approve}. Emits an {Approval} event indicating the updated allowance. Requirements: - `spender` cannot be the zero address. - `spender` must have allowance for the caller of at least `subtractedValue`."
      },
      "getAvailability()": {
        "details": "Function to check how many tokens of this product are currently available for purchase, by taking the difference between max cap count and current token in circulation or burned.",
        "returns": {
          "available": "               the number of tokens available"
        }
      },
      "getCurrentPrice()": {
        "details": "Function that computes current price for a token through bonding curve calculation based on parameters such as total supply, reserve balance, and reserve ratio.",
        "returns": {
          "price": "                  current price in reserve token (in our case, this is dai). (with 4% platform fee)"
        }
      },
      "getEscrowHistory(address)": {
        "details": "Return the list of all escrows created for a certain user",
        "params": {
          "_buyer": "The address of the buyer"
        },
        "returns": {
          "_0": "A list of past escrows"
        }
      },
      "getPriceForN(uint32)": {
        "details": "Function that computes price total for buying n token through bonding curve calculation based on parameters such as total supply, reserve balance, and reserve ratio.",
        "params": {
          "_amountProduct": "token amount in traded token"
        },
        "returns": {
          "price": "                  total price in reserve token (in our case, this is dai). (with 4% platform fee)"
        }
      },
      "getRedeemStatus(address,uint256)": {
        "details": "Get status of a particular redemption process",
        "params": {
          "_buyer": "The address of the buyer",
          "_id": "The cached id of the escrow, retrieved from database"
        },
        "returns": {
          "_0": "The current status"
        }
      },
      "getSupplierBalance()": {
        "details": "this function returns the amount of reserve balance that the supplier can withdraw from the dapp."
      },
      "increaseAllowance(address,uint256)": {
        "details": "Atomically increases the allowance granted to `spender` by the caller. This is an alternative to {approve} that can be used as a mitigation for problems described in {IERC20-approve}. Emits an {Approval} event indicating the updated allowance. Requirements: - `spender` cannot be the zero address."
      },
      "initialize(string,string,address,uint32,uint32,uint32,uint256)": {
        "details": "initializer function.",
        "params": {
          "_baseReserve": "the base amount of reserve tokens, in accordance to _supplyOffset.",
          "_maxTokenCount": "the amount of token that will exist for this type.",
          "_name": "the name of this token",
          "_reserveRatio": "the reserve ratio in the curve function. Number in parts per million",
          "_supplyOffset": "this amount is used to determine initial price.",
          "_symbol": "the symbol of this token"
        }
      },
      "isStateCompleted(uint8)": {
        "details": "Helper function to check whether a escrow state is completed",
        "params": {
          "_state": "The state to be checked"
        }
      },
      "launch()": {
        "details": "requires function to be called from owner. this enables customers to buy, sell, or redeem the product."
      },
      "name()": {
        "details": "Returns the name of the token."
      },
      "owner()": {
        "details": "Returns the address of the current owner."
      },
      "pause()": {
        "details": "requires function to be called from owner. this prevents customers from buying, selling, or redeeming the product."
      },
      "renounceOwnership()": {
        "details": "Leaves the contract without owner. It will not be possible to call `onlyOwner` functions anymore. Can only be called by the current owner. NOTE: Renouncing ownership will leave the contract without an owner, thereby removing any functionality that is only available to the owner."
      },
      "setBondingCurve(address)": {
        "details": "requires function to be called from owner. sets a bonding curve implementation for this product.",
        "params": {
          "_address": "the address of the bonding curve implementation"
        }
      },
      "symbol()": {
        "details": "Returns the symbol of the token, usually a shorter version of the name."
      },
      "totalSupply()": {
        "details": "See {IERC20-totalSupply}."
      },
      "tradein(uint32)": {
        "details": "When user wants to trade in their token for retail product",
        "params": {
          "amount_": "amount of tokens that user wants to trade in."
        }
      },
      "transfer(address,uint256)": {
        "details": "See {IERC20-transfer}. Requirements: - `recipient` cannot be the zero address. - the caller must have a balance of at least `amount`."
      },
      "transferFrom(address,address,uint256)": {
        "details": "See {IERC20-transferFrom}. Emits an {Approval} event indicating the updated allowance. This is not required by the EIP. See the note at the beginning of {ERC20}. Requirements: - `sender` and `recipient` cannot be the zero address. - `sender` must have a balance of at least `amount`. - the caller must have allowance for ``sender``'s tokens of at least `amount`."
      },
      "transferOwnership(address)": {
        "details": "Transfers ownership of the contract to a new account (`newOwner`). Can only be called by the current owner."
      },
      "updateUserCompleted(address,uint256)": {
        "details": "used to update the status of redemption to \"User Complete\" after an escrow process has been started.",
        "params": {
          "buyer": "the wallet address of product buyer",
          "id": "the id of the escrow, returned to the user after starting of redemption process"
        }
      },
      "updateUserRefund(address,uint256)": {
        "details": "used to update the status of redemption to \"User Refunded\" after an escrow process has been started.",
        "params": {
          "buyer": "the wallet address of product buyer",
          "id": "the id of the escrow, returned to the user after starting of redemption process"
        }
      },
      "withdrawEther(uint256)": {
        "details": "A method allow us to withdraw liquidity (eth) from the contract Since eth is not used as a return currency, we need to withdraw eth from the system.",
        "params": {
          "value_": "the value of ether"
        }
      }
    },
    "version": 1
  },
  "userdoc": {
    "kind": "user",
    "methods": {},
    "version": 1
  }
}