{
  "contractName": "ProductTokenV0",
  "abi": [
    {
      "anonymous": false,
      "inputs": [
        {
          "indexed": true,
          "internalType": "address",
          "name": "owner",
          "type": "address"
        },
        {
          "indexed": true,
          "internalType": "address",
          "name": "spender",
          "type": "address"
        },
        {
          "indexed": false,
          "internalType": "uint256",
          "name": "value",
          "type": "uint256"
        }
      ],
      "name": "Approval",
      "type": "event"
    },
    {
      "anonymous": false,
      "inputs": [
        {
          "indexed": true,
          "internalType": "address",
          "name": "sender",
          "type": "address"
        },
        {
          "indexed": false,
          "internalType": "uint32",
          "name": "amount",
          "type": "uint32"
        },
        {
          "indexed": false,
          "internalType": "uint256",
          "name": "deposit",
          "type": "uint256"
        }
      ],
      "name": "Buy",
      "type": "event"
    },
    {
      "anonymous": false,
      "inputs": [
        {
          "indexed": true,
          "internalType": "address",
          "name": "previousOwner",
          "type": "address"
        },
        {
          "indexed": true,
          "internalType": "address",
          "name": "newOwner",
          "type": "address"
        }
      ],
      "name": "OwnershipTransferred",
      "type": "event"
    },
    {
      "anonymous": false,
      "inputs": [
        {
          "indexed": true,
          "internalType": "address",
          "name": "sender",
          "type": "address"
        },
        {
          "indexed": false,
          "internalType": "uint32",
          "name": "amount",
          "type": "uint32"
        },
        {
          "indexed": false,
          "internalType": "uint256",
          "name": "refund",
          "type": "uint256"
        }
      ],
      "name": "Sell",
      "type": "event"
    },
    {
      "anonymous": false,
      "inputs": [
        {
          "indexed": false,
          "internalType": "bool",
          "name": "isTradable",
          "type": "bool"
        }
      ],
      "name": "Tradable",
      "type": "event"
    },
    {
      "anonymous": false,
      "inputs": [
        {
          "indexed": true,
          "internalType": "address",
          "name": "sender",
          "type": "address"
        },
        {
          "indexed": false,
          "internalType": "uint32",
          "name": "amount",
          "type": "uint32"
        }
      ],
      "name": "Tradein",
      "type": "event"
    },
    {
      "anonymous": false,
      "inputs": [
        {
          "indexed": true,
          "internalType": "address",
          "name": "from",
          "type": "address"
        },
        {
          "indexed": true,
          "internalType": "address",
          "name": "to",
          "type": "address"
        },
        {
          "indexed": false,
          "internalType": "uint256",
          "name": "value",
          "type": "uint256"
        }
      ],
      "name": "Transfer",
      "type": "event"
    },
    {
      "anonymous": false,
      "inputs": [
        {
          "indexed": false,
          "internalType": "address",
          "name": "",
          "type": "address"
        },
        {
          "indexed": false,
          "internalType": "uint256",
          "name": "",
          "type": "uint256"
        },
        {
          "components": [
            {
              "internalType": "enum Escrow.escrowState",
              "name": "state",
              "type": "uint8"
            },
            {
              "internalType": "uint32",
              "name": "amount",
              "type": "uint32"
            },
            {
              "internalType": "uint256",
              "name": "value",
              "type": "uint256"
            }
          ],
          "indexed": false,
          "internalType": "struct Escrow.escrowInfo",
          "name": "",
          "type": "tuple"
        }
      ],
      "name": "escrowStateUpdated",
      "type": "event"
    },
    {
      "stateMutability": "nonpayable",
      "type": "fallback"
    },
    {
      "inputs": [
        {
          "internalType": "address",
          "name": "owner",
          "type": "address"
        },
        {
          "internalType": "address",
          "name": "spender",
          "type": "address"
        }
      ],
      "name": "allowance",
      "outputs": [
        {
          "internalType": "uint256",
          "name": "",
          "type": "uint256"
        }
      ],
      "stateMutability": "view",
      "type": "function"
    },
    {
      "inputs": [
        {
          "internalType": "address",
          "name": "spender",
          "type": "address"
        },
        {
          "internalType": "uint256",
          "name": "amount",
          "type": "uint256"
        }
      ],
      "name": "approve",
      "outputs": [
        {
          "internalType": "bool",
          "name": "",
          "type": "bool"
        }
      ],
      "stateMutability": "nonpayable",
      "type": "function"
    },
    {
      "inputs": [
        {
          "internalType": "address",
          "name": "account",
          "type": "address"
        }
      ],
      "name": "balanceOf",
      "outputs": [
        {
          "internalType": "uint256",
          "name": "",
          "type": "uint256"
        }
      ],
      "stateMutability": "view",
      "type": "function"
    },
    {
      "inputs": [
        {
          "internalType": "uint256",
          "name": "_amountReserve",
          "type": "uint256"
        }
      ],
      "name": "calculateBuyReturn",
      "outputs": [
        {
          "internalType": "uint32",
          "name": "mintAmount",
          "type": "uint32"
        }
      ],
      "stateMutability": "view",
      "type": "function"
    },
    {
      "inputs": [
        {
          "internalType": "uint32",
          "name": "_amountProduct",
          "type": "uint32"
        }
      ],
      "name": "calculateSellReturn",
      "outputs": [
        {
          "internalType": "uint256",
          "name": "soldAmount",
          "type": "uint256"
        }
      ],
      "stateMutability": "view",
      "type": "function"
    },
    {
      "inputs": [
        {
          "internalType": "uint32",
          "name": "_amount",
          "type": "uint32"
        }
      ],
      "name": "calculateTradinReturn",
      "outputs": [
        {
          "internalType": "uint256",
          "name": "",
          "type": "uint256"
        }
      ],
      "stateMutability": "view",
      "type": "function"
    },
    {
      "inputs": [],
      "name": "decimals",
      "outputs": [
        {
          "internalType": "uint8",
          "name": "",
          "type": "uint8"
        }
      ],
      "stateMutability": "view",
      "type": "function"
    },
    {
      "inputs": [
        {
          "internalType": "address",
          "name": "spender",
          "type": "address"
        },
        {
          "internalType": "uint256",
          "name": "subtractedValue",
          "type": "uint256"
        }
      ],
      "name": "decreaseAllowance",
      "outputs": [
        {
          "internalType": "bool",
          "name": "",
          "type": "bool"
        }
      ],
      "stateMutability": "nonpayable",
      "type": "function"
    },
    {
      "inputs": [
        {
          "internalType": "address",
          "name": "",
          "type": "address"
        },
        {
          "internalType": "uint256",
          "name": "",
          "type": "uint256"
        }
      ],
      "name": "escrowList",
      "outputs": [
        {
          "internalType": "enum Escrow.escrowState",
          "name": "state",
          "type": "uint8"
        },
        {
          "internalType": "uint32",
          "name": "amount",
          "type": "uint32"
        },
        {
          "internalType": "uint256",
          "name": "value",
          "type": "uint256"
        }
      ],
      "stateMutability": "view",
      "type": "function"
    },
    {
      "inputs": [],
      "name": "getAvailability",
      "outputs": [
        {
          "internalType": "uint32",
          "name": "available",
          "type": "uint32"
        }
      ],
      "stateMutability": "view",
      "type": "function"
    },
    {
      "inputs": [],
      "name": "getCurrentPrice",
      "outputs": [
        {
          "internalType": "uint256",
          "name": "price",
          "type": "uint256"
        }
      ],
      "stateMutability": "view",
      "type": "function"
    },
    {
      "inputs": [
        {
          "internalType": "address",
          "name": "_buyer",
          "type": "address"
        }
      ],
      "name": "getEscrowHistory",
      "outputs": [
        {
          "components": [
            {
              "internalType": "enum Escrow.escrowState",
              "name": "state",
              "type": "uint8"
            },
            {
              "internalType": "uint32",
              "name": "amount",
              "type": "uint32"
            },
            {
              "internalType": "uint256",
              "name": "value",
              "type": "uint256"
            }
          ],
          "internalType": "struct Escrow.escrowInfo[]",
          "name": "",
          "type": "tuple[]"
        }
      ],
      "stateMutability": "view",
      "type": "function"
    },
    {
      "inputs": [],
      "name": "getManager",
      "outputs": [
        {
          "internalType": "address",
          "name": "",
          "type": "address"
        }
      ],
      "stateMutability": "view",
      "type": "function"
    },
    {
      "inputs": [
        {
          "internalType": "uint32",
          "name": "_amountProduct",
          "type": "uint32"
        }
      ],
      "name": "getPriceForN",
      "outputs": [
        {
          "internalType": "uint256",
          "name": "price",
          "type": "uint256"
        }
      ],
      "stateMutability": "view",
      "type": "function"
    },
    {
      "inputs": [
        {
          "internalType": "address",
          "name": "_buyer",
          "type": "address"
        },
        {
          "internalType": "uint256",
          "name": "_id",
          "type": "uint256"
        }
      ],
      "name": "getRedeemStatus",
      "outputs": [
        {
          "internalType": "enum Escrow.escrowState",
          "name": "",
          "type": "uint8"
        }
      ],
      "stateMutability": "view",
      "type": "function"
    },
    {
      "inputs": [
        {
          "internalType": "address",
          "name": "spender",
          "type": "address"
        },
        {
          "internalType": "uint256",
          "name": "addedValue",
          "type": "uint256"
        }
      ],
      "name": "increaseAllowance",
      "outputs": [
        {
          "internalType": "bool",
          "name": "",
          "type": "bool"
        }
      ],
      "stateMutability": "nonpayable",
      "type": "function"
    },
    {
      "inputs": [
        {
          "internalType": "string",
          "name": "_name",
          "type": "string"
        },
        {
          "internalType": "string",
          "name": "_symbol",
          "type": "string"
        },
        {
          "internalType": "address",
          "name": "_bondingCurveAddress",
          "type": "address"
        },
        {
          "internalType": "uint32",
          "name": "_reserveRatio",
          "type": "uint32"
        },
        {
          "internalType": "uint32",
          "name": "_maxTokenCount",
          "type": "uint32"
        },
        {
          "internalType": "uint32",
          "name": "_supplyOffset",
          "type": "uint32"
        },
        {
          "internalType": "uint256",
          "name": "_baseReserve",
          "type": "uint256"
        }
      ],
      "name": "initialize",
      "outputs": [],
      "stateMutability": "nonpayable",
      "type": "function"
    },
    {
      "inputs": [
        {
          "internalType": "enum Escrow.escrowState",
          "name": "_state",
          "type": "uint8"
        }
      ],
      "name": "isStateCompleted",
      "outputs": [
        {
          "internalType": "bool",
          "name": "",
          "type": "bool"
        }
      ],
      "stateMutability": "pure",
      "type": "function"
    },
    {
      "inputs": [],
      "name": "launch",
      "outputs": [],
      "stateMutability": "nonpayable",
      "type": "function"
    },
    {
      "inputs": [],
      "name": "maxTokenCount",
      "outputs": [
        {
          "internalType": "uint32",
          "name": "",
          "type": "uint32"
        }
      ],
      "stateMutability": "view",
      "type": "function"
    },
    {
      "inputs": [],
      "name": "name",
      "outputs": [
        {
          "internalType": "string",
          "name": "",
          "type": "string"
        }
      ],
      "stateMutability": "view",
      "type": "function"
    },
    {
      "inputs": [],
      "name": "owner",
      "outputs": [
        {
          "internalType": "address",
          "name": "",
          "type": "address"
        }
      ],
      "stateMutability": "view",
      "type": "function"
    },
    {
      "inputs": [],
      "name": "pause",
      "outputs": [],
      "stateMutability": "nonpayable",
      "type": "function"
    },
    {
      "inputs": [],
      "name": "renounceOwnership",
      "outputs": [],
      "stateMutability": "nonpayable",
      "type": "function"
    },
    {
      "inputs": [],
      "name": "reserveBalance",
      "outputs": [
        {
          "internalType": "uint256",
          "name": "",
          "type": "uint256"
        }
      ],
      "stateMutability": "view",
      "type": "function"
    },
    {
      "inputs": [],
      "name": "reserveRatio",
      "outputs": [
        {
          "internalType": "uint32",
          "name": "",
          "type": "uint32"
        }
      ],
      "stateMutability": "view",
      "type": "function"
    },
    {
      "inputs": [
        {
          "internalType": "address",
          "name": "_address",
          "type": "address"
        }
      ],
      "name": "setBondingCurve",
      "outputs": [],
      "stateMutability": "nonpayable",
      "type": "function"
    },
    {
      "inputs": [
        {
          "internalType": "address",
          "name": "addr_",
          "type": "address"
        }
      ],
      "name": "setManager",
      "outputs": [],
      "stateMutability": "nonpayable",
      "type": "function"
    },
    {
      "inputs": [],
      "name": "supplier",
      "outputs": [
        {
          "internalType": "uint256",
          "name": "amount",
          "type": "uint256"
        },
        {
          "internalType": "address",
          "name": "wallet",
          "type": "address"
        }
      ],
      "stateMutability": "view",
      "type": "function"
    },
    {
      "inputs": [],
      "name": "symbol",
      "outputs": [
        {
          "internalType": "string",
          "name": "",
          "type": "string"
        }
      ],
      "stateMutability": "view",
      "type": "function"
    },
    {
      "inputs": [],
      "name": "totalSupply",
      "outputs": [
        {
          "internalType": "uint256",
          "name": "",
          "type": "uint256"
        }
      ],
      "stateMutability": "view",
      "type": "function"
    },
    {
      "inputs": [],
      "name": "tradeinCount",
      "outputs": [
        {
          "internalType": "uint32",
          "name": "",
          "type": "uint32"
        }
      ],
      "stateMutability": "view",
      "type": "function"
    },
    {
      "inputs": [],
      "name": "tradeinReserveBalance",
      "outputs": [
        {
          "internalType": "uint256",
          "name": "",
          "type": "uint256"
        }
      ],
      "stateMutability": "view",
      "type": "function"
    },
    {
      "inputs": [
        {
          "internalType": "address",
          "name": "recipient",
          "type": "address"
        },
        {
          "internalType": "uint256",
          "name": "amount",
          "type": "uint256"
        }
      ],
      "name": "transfer",
      "outputs": [
        {
          "internalType": "bool",
          "name": "",
          "type": "bool"
        }
      ],
      "stateMutability": "nonpayable",
      "type": "function"
    },
    {
      "inputs": [
        {
          "internalType": "address",
          "name": "sender",
          "type": "address"
        },
        {
          "internalType": "address",
          "name": "recipient",
          "type": "address"
        },
        {
          "internalType": "uint256",
          "name": "amount",
          "type": "uint256"
        }
      ],
      "name": "transferFrom",
      "outputs": [
        {
          "internalType": "bool",
          "name": "",
          "type": "bool"
        }
      ],
      "stateMutability": "nonpayable",
      "type": "function"
    },
    {
      "inputs": [
        {
          "internalType": "address",
          "name": "newOwner",
          "type": "address"
        }
      ],
      "name": "transferOwnership",
      "outputs": [],
      "stateMutability": "nonpayable",
      "type": "function"
    },
    {
      "inputs": [
        {
          "internalType": "address",
          "name": "buyer",
          "type": "address"
        },
        {
          "internalType": "uint256",
          "name": "id",
          "type": "uint256"
        }
      ],
      "name": "updateUserCompleted",
      "outputs": [],
      "stateMutability": "nonpayable",
      "type": "function"
    },
    {
      "inputs": [
        {
          "internalType": "address",
          "name": "buyer",
          "type": "address"
        },
        {
          "internalType": "uint256",
          "name": "id",
          "type": "uint256"
        }
      ],
      "name": "updateUserRefund",
      "outputs": [],
      "stateMutability": "nonpayable",
      "type": "function"
    },
    {
      "inputs": [],
      "name": "voucher",
      "outputs": [
        {
          "internalType": "address",
          "name": "addr",
          "type": "address"
        },
        {
          "internalType": "uint256",
          "name": "tokenId",
          "type": "uint256"
        }
      ],
      "stateMutability": "view",
      "type": "function"
    },
    {
      "inputs": [
        {
          "internalType": "address",
          "name": "addr_",
          "type": "address"
        },
        {
          "internalType": "uint256",
          "name": "tokenId_",
          "type": "uint256"
        }
      ],
      "name": "setupVoucher",
      "outputs": [],
      "stateMutability": "nonpayable",
      "type": "function"
    },
    {
      "inputs": [
        {
          "internalType": "uint256",
          "name": "tokenId_",
          "type": "uint256"
        }
      ],
      "name": "claimVoucher",
      "outputs": [],
      "stateMutability": "nonpayable",
      "type": "function"
    },
    {
      "inputs": [
        {
          "internalType": "uint256",
          "name": "tokenId_",
          "type": "uint256"
        },
        {
          "internalType": "uint256",
          "name": "maxPrice_",
          "type": "uint256"
        }
      ],
      "name": "buyByVoucher",
      "outputs": [],
      "stateMutability": "nonpayable",
      "type": "function"
    },
    {
      "inputs": [
        {
          "internalType": "uint256",
          "name": "tokenId_",
          "type": "uint256"
        },
        {
          "internalType": "uint32",
          "name": "amount_",
          "type": "uint32"
        }
      ],
      "name": "sellByVoucher",
      "outputs": [],
      "stateMutability": "nonpayable",
      "type": "function"
    },
    {
      "inputs": [
        {
          "internalType": "uint256",
          "name": "tokenId_",
          "type": "uint256"
        },
        {
          "internalType": "uint32",
          "name": "amount_",
          "type": "uint32"
        }
      ],
      "name": "tradeinVoucher",
      "outputs": [],
      "stateMutability": "nonpayable",
      "type": "function"
    },
    {
      "inputs": [
        {
          "internalType": "address",
          "name": "wallet_",
          "type": "address"
        }
      ],
      "name": "setSupplier",
      "outputs": [],
      "stateMutability": "nonpayable",
      "type": "function"
    },
    {
      "inputs": [
        {
          "internalType": "uint256",
          "name": "tokenId_",
          "type": "uint256"
        },
        {
          "internalType": "uint256",
          "name": "amount_",
          "type": "uint256"
        }
      ],
      "name": "claimSupplier",
      "outputs": [],
      "stateMutability": "nonpayable",
      "type": "function"
    },
    {
      "inputs": [],
      "name": "getSupplierBalance",
      "outputs": [
        {
          "internalType": "uint256",
          "name": "",
          "type": "uint256"
        }
      ],
      "stateMutability": "view",
      "type": "function"
    }
  ],
  "bytecode": "0x608060405234801561001057600080fd5b506137ca806100206000396000f3fe608060405234801561001057600080fd5b50600436106102595760003560e060020a900480638456cb591161014b578063c4e627c2116100c2578063c4e627c21461051e578063c757d4c714610536578063cdda418c14610549578063d0ebdbe71461057f578063d500958414610592578063dd304b1a146105a3578063dd62ed3e146105c3578063e67dc518146105fc578063eb91d37e14610605578063efea8a131461060d578063f2fde38b14610620578063f97511d31461063357610259565b80638456cb59146104455780638da5cb5b1461044d578063946cb16f1461046d57806395d89b4114610480578063964a6afe1461048857806399740166146104905780639ade9687146104a35780639b9ffbf3146104b6578063a10954fe146104d8578063a457c2d7146104e1578063a9059cbb146104f4578063ba7a93b61461050757610259565b806336da4468116101df57806336da446814610349578063395093511461037d57806343ff1fb814610390578063491052cd146103a357806360dd8aaf146103b65780636e74607b146103c957806370a08231146103e9578063715018a6146103fc57806371a12586146104045780637a53e0401461041757806380f7fdf01461041f578063828f3a9c1461043257610259565b806301339c211461025b57806306fdde0314610263578063095ea7b3146102815780630c7d5cd8146102a45780630ccee99b146102c9578063168ae483146102dc57806318160ddd146102ef57806319d5b58714610301578063224e4f481461031457806323b872dd14610327578063313ce5671461033a575b005b610259610646565b61026b61072e565b604051610278919061339a565b60405180910390f35b61029461028f366004613076565b6107c0565b6040519015158152602001610278565b609b546102b49063ffffffff1681565b60405163ffffffff9091168152602001610278565b6102596102d7366004613076565b6107d7565b6102596102ea366004612fef565b61085e565b6035545b604051908152602001610278565b6102f361030f3660046131f3565b61090b565b6102f36103223660046131f3565b610a3c565b61029461033536600461303b565b610a61565b60405160008152602001610278565b609e54609f546103609190600160a060020a031682565b60408051928352600160a060020a03909116602083015201610278565b61029461038b366004613076565b610b2a565b61025961039e366004612fef565b610b61565b6102946103b136600461309f565b610c0e565b6102596103c43660046131a3565b610c68565b6103dc6103d7366004612fef565b610dac565b6040516102789190613319565b6102f36103f7366004612fef565b610e92565b610259610ead565b6102596104123660046131c4565b610f17565b6102b46110c5565b61025961042d3660046131c4565b61110b565b6102b4610440366004613173565b6111d9565b6102596111ed565b6104556112be565b604051600160a060020a039091168152602001610278565b61025961047b3660046131a3565b6112cd565b61026b6114e3565b609e546102f3565b61025961049e366004613076565b6114f2565b6102596104b1366004613173565b611573565b6104c96104c4366004613076565b6116f4565b60405161027893929190613375565b6102f360995481565b6102946104ef366004613076565b61173f565b610294610502366004613076565b6117e0565b609b546102b490604060020a900463ffffffff1681565b609b546102b490640100000000900463ffffffff1681565b610259610544366004613076565b6117ed565b60a05460a15461056091600160a060020a03169082565b60408051600160a060020a039093168352602083019190915201610278565b61025961058d366004612fef565b6118cc565b609c54600160a060020a0316610455565b6105b66105b1366004613076565b611949565b6040516102789190613367565b6102f36105d1366004613009565b600160a060020a03918216600090815260346020908152604080832093909416825291909152205490565b6102f3609a5481565b6102f361199f565b61025961061b3660046130be565b6119ab565b61025961062e366004612fef565b611a40565b6102f36106413660046131f3565b611b3b565b3361064f6112be565b600160a060020a0316146106815760405160e560020a62461bcd02815260040161067890613526565b60405180910390fd5b60985460ff16156106e85760405160e560020a62461bcd02815260206004820152602560248201527f5468652070726f6475637420746f6b656e20697320616c7265616479206c6175604482015260da60020a641b98da1959026064820152608401610678565b6098805460ff191660019081179091556040519081527f65c5ccecef030677b73a1403e7e69ef84d05db9d1732959d543d32f4419909b8906020015b60405180910390a1565b60606036805461073d906136af565b80601f0160208091040260200160405190810160405280929190818152602001828054610769906136af565b80156107b65780601f1061078b576101008083540402835291602001916107b6565b820191906000526020600020905b81548152906001019060200180831161079957829003601f168201915b5050505050905090565b60006107cd338484611b58565b5060015b92915050565b6107df6112be565b600160a060020a031633600160a060020a031614806108085750609c54600160a060020a031633145b6108275760405160e560020a62461bcd028152600401610678906134ef565b600160a060020a0382166108505760405160e560020a62461bcd028152600401610678906133ed565b61085a8282611c89565b5050565b336108676112be565b600160a060020a0316146108905760405160e560020a62461bcd02815260040161067890613526565b600160a060020a0381166108e95760405160e560020a62461bcd02815260206004820152601260248201527f4164647265737320697320696e76616c696400000000000000000000000000006044820152606401610678565b609f8054600160a060020a031916600160a060020a0392909216919091179055565b6000808263ffffffff16116109655760405160e560020a62461bcd02815260206004820152600e60248201527f696e76616c696420616d6f756e740000000000000000000000000000000000006044820152606401610678565b609b5460009061099c9063ffffffff606060020a82048116916109969187811691604060020a9004811690611e0216565b90611e02565b609d54609a54609b5460405160e060020a631c949873028152939450600160a060020a0390921692631c949873926109e3928692909163ffffffff169089906004016135c9565b60206040518083038186803b1580156109fb57600080fd5b505afa158015610a0f573d6000803e3d6000fd5b505050506040513d601f19601f82011682018060405250810190610a33919061318b565b9150505b919050565b6000806000610a4a84611e15565b9092509050610a598282611ed8565b949350505050565b6000610a6e848484611ee4565b600160a060020a038416600090815260346020908152604080832033845290915290205482811015610b0b5760405160e560020a62461bcd02815260206004820152602860248201527f45524332303a207472616e7366657220616d6f756e742065786365656473206160448201527f6c6c6f77616e63650000000000000000000000000000000000000000000000006064820152608401610678565b610b1f8533610b1a8685613673565b611b58565b506001949350505050565b336000818152603460209081526040808320600160a060020a038716845290915281205490916107cd918590610b1a9086906135f1565b33610b6a6112be565b600160a060020a031614610b935760405160e560020a62461bcd02815260040161067890613526565b600160a060020a038116610bec5760405160e560020a62461bcd02815260206004820152600f60248201527f496e76616c6964206164647265737300000000000000000000000000000000006044820152606401610678565b609d8054600160a060020a031916600160a060020a0392909216919091179055565b60006003826003811115610c355760e060020a634e487b7102600052602160045260246000fd5b14806107d157506002826003811115610c615760e060020a634e487b7102600052602160045260246000fd5b1492915050565b609f54600160a060020a0316610cc35760405160e560020a62461bcd02815260206004820152601160248201527f77616c6c657420697320696e76616c69640000000000000000000000000000006044820152606401610678565b609f54600160a060020a03163314610d205760405160e560020a62461bcd02815260206004820152601a60248201527f5468652061646472657373206973206e6f7420616c6c6f7765640000000000006044820152606401610678565b609e54811161085a5760a05460a15460405160e160020a632576a9e1028152600160a060020a0390921691634aed53c291610d65913091339188908890600401613277565b600060405180830381600087803b158015610d7f57600080fd5b505af1158015610d93573d6000803e3d6000fd5b5050609e54610da59250905082611ed8565b609e555050565b600160a060020a0381166000908152606560209081526040808320805482518185028101850190935280835260609492939192909184015b82821015610e87576000848152602090206040805160608101909152600284029091018054829060ff166003811115610e305760e060020a634e487b7102600052602160045260246000fd5b6003811115610e525760e060020a634e487b7102600052602160045260246000fd5b81528154610100900463ffffffff16602080830191909152600192830154604090920191909152918352929092019101610de4565b505050509050919050565b600160a060020a031660009081526033602052604090205490565b33610eb66112be565b600160a060020a031614610edf5760405160e560020a62461bcd02815260040161067890613526565b606654604051600091600160a060020a031690600080516020613755833981519152908390a360668054600160a060020a0319169055565b60985460ff16610f3c5760405160e560020a62461bcd0281526004016106789061355b565b60008163ffffffff1611610f655760405160e560020a62461bcd02815260040161067890613592565b8063ffffffff16610f7533610e92565b1015610fc65760405160e560020a62461bcd02815260206004820152601c60248201527f496e73756666696369656e7420746f6b656e7320746f206275726e2e000000006044820152606401610678565b600080610fd283611e15565b915091506000610fe18461090b565b905061100e611009826109966501d1a94a20006110038764e8d4a510006120d0565b906120dc565b6120e8565b6110218461101c8585611ed8565b612102565b50611032338563ffffffff16612256565b609b5461104d908590604060020a900463ffffffff16613609565b609b80546bffffffff00000000000000001916604060020a63ffffffff93841602179055609a54611080918390611e0216565b609a5560405163ffffffff8516815233907fe600c25f82e9bac8f9f1663725540d6cd442845726820fd5bee41b66c4bf59be9060200160405180910390a25050505050565b609b54600090604060020a900463ffffffff166110e160355490565b609b546110fc9190640100000000900463ffffffff1661368a565b611106919061368a565b905090565b60985460ff166111305760405160e560020a62461bcd0281526004016106789061355b565b60008061113c8361239f565b60a05460a15460405160e160020a632576a9e1028152939550919350600160a060020a031691634aed53c29161117c91309133918a908990600401613277565b600060405180830381600087803b15801561119657600080fd5b505af11580156111aa573d6000803e3d6000fd5b505050506111d36110096501d1a94a200061100364e8d4a51000856120d090919063ffffffff16565b50505050565b6000806111e5836124b2565b509392505050565b336111f66112be565b600160a060020a03161461121f5760405160e560020a62461bcd02815260040161067890613526565b60985460ff166112835760405160e560020a62461bcd02815260206004820152602360248201527f5468652070726f6475637420746f6b656e20697320616c726561647920706175604482015260ea60020a621cd959026064820152608401610678565b6098805460ff19169055604051600081527f65c5ccecef030677b73a1403e7e69ef84d05db9d1732959d543d32f4419909b890602001610724565b606654600160a060020a031690565b60985460ff166112f25760405160e560020a62461bcd0281526004016106789061355b565b600081116113455760405160e560020a62461bcd02815260206004820152601160248201527f696e76616c6964206d61782070726963650000000000000000000000000000006044820152606401610678565b60a05460a15460405160e160020a632576a9e1028152600160a060020a03909216918291634aed53c291611383913391309189918990600401613277565b600060405180830381600087803b15801561139d57600080fd5b505af11580156113b1573d6000803e3d6000fd5b505050506000806000806113c4866125b7565b93509350935063ffffffff169350600084111561146e57821561144d5760a15460405160e160020a632576a9e1028152600160a060020a03871691634aed53c29161141a9130913391908d908a90600401613277565b600060405180830381600087803b15801561143457600080fd5b505af1158015611448573d6000803e3d6000fd5b505050505b611469611009650746a52880006110038464e8d4a510006120d0565b6114da565b60a15460405160e160020a632576a9e1028152600160a060020a03871691634aed53c2916114a79130913391908d908d90600401613277565b600060405180830381600087803b1580156114c157600080fd5b505af11580156114d5573d6000803e3d6000fd5b505050505b50505050505050565b60606037805461073d906136af565b336114fb6112be565b600160a060020a0316146115245760405160e560020a62461bcd02815260040161067890613526565b600160a060020a03821661154d5760405160e560020a62461bcd0281526004016106789061345b565b60a08054600160a060020a031916600160a060020a03939093169290921790915560a155565b3361157c6112be565b600160a060020a0316146115a55760405160e560020a62461bcd02815260040161067890613526565b806115f55760405160e560020a62461bcd02815260206004820152600a60248201527f696e76616c6964206964000000000000000000000000000000000000000000006044820152606401610678565b60a05460a15460405160e060020a63becef6070281526004810191909152600091600160a060020a03169063becef6079060240160206040518083038186803b15801561164157600080fd5b505afa158015611655573d6000803e3d6000fd5b505050506040513d601f19601f82011682018060405250810190611679919061318b565b60a054909150600160a060020a0316634aed53c2306116966112be565b60a15460405160e060020a63ffffffff86160281526116be9392919088908890600401613277565b600060405180830381600087803b1580156116d857600080fd5b505af11580156116ec573d6000803e3d6000fd5b505050505050565b6065602052816000526040600020818154811061171057600080fd5b60009182526020909120600290910201805460019091015460ff8216935061010090910463ffffffff16915083565b336000908152603460209081526040808320600160a060020a0386168452909152812054828110156117c75760405160e560020a62461bcd02815260206004820152602560248201527f45524332303a2064656372656173656420616c6c6f77616e63652062656c6f77604482015260d860020a64207a65726f026064820152608401610678565b6117d63385610b1a8685613673565b5060019392505050565b60006107cd338484611ee4565b6117f56112be565b600160a060020a031633600160a060020a0316148061181e5750609c54600160a060020a031633145b61183d5760405160e560020a62461bcd028152600401610678906134ef565b600160a060020a0382166118665760405160e560020a62461bcd028152600401610678906133ed565b6000611872838361271c565b9050600081116118c75760405160e560020a62461bcd02815260206004820152600d60248201527f496e76616c69642076616c7565000000000000000000000000000000000000006044820152606401610678565b505050565b336118d56112be565b600160a060020a0316146118fe5760405160e560020a62461bcd02815260040161067890613526565b600160a060020a0381166119275760405160e560020a62461bcd0281526004016106789061345b565b609c8054600160a060020a031916600160a060020a0392909216919091179055565b600160a060020a03821660009081526065602052604081208054839081106119845760e060020a634e487b7102600052603260045260246000fd5b600091825260209091206002909102015460ff169392505050565b60006111066001611b3b565b600054610100900460ff16806119c4575060005460ff16155b6119e35760405160e560020a62461bcd02815260040161067890613492565b600054610100900460ff16158015611a05576000805461ffff19166101011790555b611a0d6128cd565b611a17888861294b565b611a2486868686866129cd565b8015611a36576000805461ff00191690555b5050505050505050565b33611a496112be565b600160a060020a031614611a725760405160e560020a62461bcd02815260040161067890613526565b600160a060020a038116611af15760405160e560020a62461bcd02815260206004820152602660248201527f4f776e61626c653a206e6577206f776e657220697320746865207a65726f206160448201527f64647265737300000000000000000000000000000000000000000000000000006064820152608401610678565b606654604051600160a060020a0380841692169060008051602061375583398151915290600090a360668054600160a060020a031916600160a060020a0392909216919091179055565b6000806000611b4984612b60565b9092509050610a598282611e02565b600160a060020a038316611bc05760405160e560020a62461bcd028152602060048201526024808201527f45524332303a20617070726f76652066726f6d20746865207a65726f20616464604482015260e060020a6372657373026064820152608401610678565b600160a060020a038216611c275760405160e560020a62461bcd02815260206004820152602260248201527f45524332303a20617070726f766520746f20746865207a65726f206164647265604482015260f060020a617373026064820152608401610678565b600160a060020a0383811660008181526034602090815260408083209487168084529482529182902085905590518481527f8c5be1e5ebec7d5bd14f71427d1e84f3dd0314c0f7b2291e5b200ac8c7c3b92591015b60405180910390a3505050565b600160a060020a03821660009081526065602052604090208054611ce2919083908110611cc95760e060020a634e487b7102600052603260045260246000fd5b600091825260209091206002909102015460ff16610c0e565b15611d025760405160e560020a62461bcd02815260040161067890613424565b600160a060020a038216600090815260656020526040902080546003919083908110611d415760e060020a634e487b7102600052603260045260246000fd5b60009182526020909120600290910201805460ff19166001836003811115611d7c5760e060020a634e487b7102600052602160045260246000fd5b021790555060008051602061373583398151915282826065600086600160a060020a0316600160a060020a031681526020019081526020016000208481548110611dd95760e060020a634e487b7102600052603260045260246000fd5b9060005260206000209060020201604051611df6939291906132cc565b60405180910390a15050565b6000611e0e82846135f1565b9392505050565b609d5460009081908190600160a060020a0316631c949873611e35612c17565b609954609b5460405163ffffffff85811660e060020a028252611e6094939216908a906004016135c9565b60206040518083038186803b158015611e7857600080fd5b505afa158015611e8c573d6000803e3d6000fd5b505050506040513d601f19601f82011682018060405250810190611eb0919061318b565b90506000611ecc64e8d4a51000611003846404a817c8006120d0565b91935090915050915091565b6000611e0e8284613673565b600160a060020a038316611f4e5760405160e560020a62461bcd02815260206004820152602560248201527f45524332303a207472616e736665722066726f6d20746865207a65726f206164604482015260d860020a646472657373026064820152608401610678565b600160a060020a038216611fb65760405160e560020a62461bcd02815260206004820152602360248201527f45524332303a207472616e7366657220746f20746865207a65726f2061646472604482015260e860020a62657373026064820152608401610678565b600160a060020a038316600090815260336020526040902054818110156120485760405160e560020a62461bcd02815260206004820152602660248201527f45524332303a207472616e7366657220616d6f756e742065786365656473206260448201527f616c616e636500000000000000000000000000000000000000000000000000006064820152608401610678565b6120528282613673565b600160a060020a0380861660009081526033602052604080822093909355908516815290812080548492906120889084906135f1565b9250508190555082600160a060020a031684600160a060020a0316600080516020613775833981519152846040516120c291815260200190565b60405180910390a350505050565b6000611e0e8284613654565b6000611e0e8284613631565b80156120ff57609e546120fb9082611e02565b609e555b50565b6000808363ffffffff161161215c5760405160e560020a62461bcd02815260206004820152600e60248201527f496e76616c696420416d6f756e740000000000000000000000000000000000006044820152606401610678565b60408051606081018252600180825263ffffffff861660208084019190915282840186905233600090815260658252938420805480840182559085529320825160029094020180549293849391929091839160ff19909116908360038111156121d85760e060020a634e487b7102600052602160045260246000fd5b0217905550602082810151825463ffffffff9091166101000264ffffffff00199091161782556040928301516001928301553360009081526065909152918220546122239190613673565b9050600080516020613735833981519152338284604051612246939291906132a8565b60405180910390a1949350505050565b600160a060020a0382166122bc5760405160e560020a62461bcd02815260206004820152602160248201527f45524332303a206275726e2066726f6d20746865207a65726f20616464726573604482015260f860020a6073026064820152608401610678565b600160a060020a038216600090815260336020526040902054818110156123365760405160e560020a62461bcd02815260206004820152602260248201527f45524332303a206275726e20616d6f756e7420657863656564732062616c616e604482015260f060020a616365026064820152608401610678565b6123408282613673565b600160a060020a0384166000908152603360205260408120919091556035805484929061236e908490613673565b9091555050604051828152600090600160a060020a0385169060008051602061377583398151915290602001611c7c565b60008060008363ffffffff16116123cb5760405160e560020a62461bcd02815260040161067890613592565b8263ffffffff166123db33610e92565b101561242c5760405160e560020a62461bcd02815260206004820152601c60248201527f496e73756666696369656e7420746f6b656e7320746f2073656c6c2e000000006044820152606401610678565b60008061243885611e15565b609954919350915061244a9083611ed8565b60995561245d3363ffffffff8716612256565b6040805163ffffffff871681526020810184905233917f84c8d08e5480cf09cbf77bc575dc4e63845522693c34094f04129a4dedb7abd7910160405180910390a26124a88282611ed8565b9350915050915091565b600080806124ce64fb750430006110038664e8d4a510006120d0565b905060006124ea64e8d4a5100061100384640df84758006120d0565b609d54909150600090600160a060020a0316639f4ae6b0612509612c17565b609954609b5463ffffffff908116906125269089908990611ed816565b60405163ffffffff86811660e060020a0282529485166004820152602481019390935292166044820152606481019190915260840160206040518083038186803b15801561257357600080fd5b505afa158015612587573d6000803e3d6000fd5b505050506040513d601f19601f820116820180604052508101906125ab919061320f565b94509092505050915091565b60008060008060006125c76110c5565b63ffffffff161161261d5760405160e560020a62461bcd02815260206004820152601e60248201527f536f7272792c207468697320746f6b656e20697320736f6c64206f75742e00006044820152606401610678565b600085116126705760405160e560020a62461bcd02815260206004820152601960248201527f4465706f736974206d757374206265206e6f6e2d7a65726f2e000000000000006044820152606401610678565b60008061267d6001612b60565b915091508682111561269e5760008760008095509550955095505050612715565b6126a9336001612c44565b6126bf6126b68383611ed8565b60995490611e02565b60995560408051600181526020810184905233917f5b55159a377d86da80a65140d62d994ddbb2cbd4bb2d1b59cb0827fecbe47cab910160405180910390a2600161270a8884611ed8565b909650945090925090505b9193509193565b600160a060020a0382166000908152606560205260408120805461275c919084908110611cc95760e060020a634e487b7102600052603260045260246000fd5b1561277c5760405160e560020a62461bcd02815260040161067890613424565b600160a060020a0383166000908152606560205260409020805460029190849081106127bb5760e060020a634e487b7102600052603260045260246000fd5b60009182526020909120600290910201805460ff191660018360038111156127f65760e060020a634e487b7102600052602160045260246000fd5b021790555060008051602061373583398151915283836065600087600160a060020a0316600160a060020a0316815260200190815260200160002085815481106128535760e060020a634e487b7102600052603260045260246000fd5b9060005260206000209060020201604051612870939291906132cc565b60405180910390a1600160a060020a03831660009081526065602052604090208054839081106128b35760e060020a634e487b7102600052603260045260246000fd5b906000526020600020906002020160010154905092915050565b600054610100900460ff16806128e6575060005460ff16155b6129055760405160e560020a62461bcd02815260040161067890613492565b600054610100900460ff16158015612927576000805461ffff19166101011790555b61292f612d14565b612937612d81565b80156120ff576000805461ff001916905550565b600054610100900460ff1680612964575060005460ff16155b6129835760405160e560020a62461bcd02815260040161067890613492565b600054610100900460ff161580156129a5576000805461ffff19166101011790555b6129ad612d14565b6129b78383612e20565b80156118c7576000805461ff0019169055505050565b600054610100900460ff16806129e6575060005460ff16155b612a055760405160e560020a62461bcd02815260040161067890613492565b600054610100900460ff16158015612a27576000805461ffff19166101011790555b60008463ffffffff1611612a805760405160e560020a62461bcd02815260206004820152601860248201527f496e76616c6964206d617820746f6b656e20636f756e742e00000000000000006044820152606401610678565b60008563ffffffff1611612ad95760405160e560020a62461bcd02815260206004820152601560248201527f496e76616c6964207265736572766520726174696f00000000000000000000006044820152606401610678565b609d8054600160a060020a038816600160a060020a03199091161790556099829055609a829055609b805463ffffffff8681166401000000000267ffffffffffffffff19828816606060020a02166fffffffff00000000ffffffffffffffff19909316929092179088161717905580156116ec576000805461ff0019169055505050505050565b609d5460009081908190600160a060020a031663bff82d84612b80612c17565b609954609b5460405163ffffffff85811660e060020a028252612bab94939216908a906004016135c9565b60206040518083038186803b158015612bc357600080fd5b505afa158015612bd7573d6000803e3d6000fd5b505050506040513d601f19601f82011682018060405250810190612bfb919061318b565b90506000611ecc64e8d4a51000611003846412a05f20006120d0565b609b546000906111069063ffffffff606060020a820481169161099691604060020a909104168160355490565b600160a060020a038216612c9d5760405160e560020a62461bcd02815260206004820152601f60248201527f45524332303a206d696e7420746f20746865207a65726f2061646472657373006044820152606401610678565b8060356000828254612caf91906135f1565b9091555050600160a060020a03821660009081526033602052604081208054839290612cdc9084906135f1565b9091555050604051818152600160a060020a038316906000906000805160206137758339815191529060200160405180910390a35050565b600054610100900460ff1680612d2d575060005460ff16155b612d4c5760405160e560020a62461bcd02815260040161067890613492565b600054610100900460ff16158015612937576000805461ffff191661010117905580156120ff576000805461ff001916905550565b600054610100900460ff1680612d9a575060005460ff16155b612db95760405160e560020a62461bcd02815260040161067890613492565b600054610100900460ff16158015612ddb576000805461ffff19166101011790555b60668054600160a060020a031916339081179091556040518190600090600080516020613755833981519152908290a35080156120ff576000805461ff001916905550565b600054610100900460ff1680612e39575060005460ff16155b612e585760405160e560020a62461bcd02815260040161067890613492565b600054610100900460ff16158015612e7a576000805461ffff19166101011790555b8251612e8d906036906020860190612eb8565b508151612ea1906037906020850190612eb8565b5080156118c7576000805461ff0019169055505050565b828054612ec4906136af565b90600052602060002090601f016020900481019282612ee65760008555612f2c565b82601f10612eff57805160ff1916838001178555612f2c565b82800160010185558215612f2c579182015b82811115612f2c578251825591602001919060010190612f11565b50612f38929150612f3c565b5090565b5b80821115612f385760008155600101612f3d565b8035600160a060020a0381168114610a3757600080fd5b600082601f830112612f78578081fd5b813567ffffffffffffffff80821115612f9357612f93613708565b604051601f8301601f19908116603f01168101908282118183101715612fbb57612fbb613708565b81604052838152866020858801011115612fd3578485fd5b8360208701602083013792830160200193909352509392505050565b600060208284031215613000578081fd5b611e0e82612f51565b6000806040838503121561301b578081fd5b61302483612f51565b915061303260208401612f51565b90509250929050565b60008060006060848603121561304f578081fd5b61305884612f51565b925061306660208501612f51565b9150604084013590509250925092565b60008060408385031215613088578182fd5b61309183612f51565b946020939093013593505050565b6000602082840312156130b0578081fd5b813560048110611e0e578182fd5b600080600080600080600060e0888a0312156130d8578283fd5b873567ffffffffffffffff808211156130ef578485fd5b6130fb8b838c01612f68565b985060208a0135915080821115613110578485fd5b5061311d8a828b01612f68565b96505061312c60408901612f51565b9450606088013561313c81613722565b9350608088013561314c81613722565b925060a088013561315c81613722565b8092505060c0880135905092959891949750929550565b600060208284031215613184578081fd5b5035919050565b60006020828403121561319c578081fd5b5051919050565b600080604083850312156131b5578182fd5b50508035926020909101359150565b600080604083850312156131d6578182fd5b8235915060208301356131e881613722565b809150509250929050565b600060208284031215613204578081fd5b8135611e0e81613722565b600060208284031215613220578081fd5b8151611e0e81613722565b6004811061324d5760e060020a634e487b710260009081526021600452602490fd5b9052565b61325c82825161322b565b60208181015163ffffffff1690830152604090810151910152565b600160a060020a03958616815293909416602084015260408301919091526060820152608081019190915260a00190565b600160a060020a03841681526020810183905260a08101610a596040830184613251565b600160a060020a038416815260208101839052815460a08201906132f66040840160ff831661322b565b63ffffffff61010082041660608401525060018301546080830152949350505050565b6020808252825182820181905260009190848201906040850190845b8181101561335b57613348838551613251565b9284019260609290920191600101613335565b50909695505050505050565b602081016107d1828461322b565b60608101613383828661322b565b63ffffffff93909316602082015260400152919050565b6000602080835283518082850152825b818110156133c6578581018301518582016040015282016133aa565b818111156133d75783604083870101525b50601f01601f1916929092016040019392505050565b6020808252600d908201527f496e76616c696420627579657200000000000000000000000000000000000000604082015260600190565b60208082526011908201527f616c726561647920636f6d706c65746564000000000000000000000000000000604082015260600190565b6020808252600f908201527f696e76616c696420616464726573730000000000000000000000000000000000604082015260600190565b6020808252602e908201527f496e697469616c697a61626c653a20636f6e747261637420697320616c72656160408201527f647920696e697469616c697a6564000000000000000000000000000000000000606082015260800190565b60208082526011908201527f7065726d697373696f6e2064656e696564000000000000000000000000000000604082015260600190565b6020808252818101527f4f776e61626c653a2063616c6c6572206973206e6f7420746865206f776e6572604082015260600190565b60208082526013908201527f756e61626c6520746f207472616465206e6f7700000000000000000000000000604082015260600190565b60208082526018908201527f416d6f756e74206d757374206265206e6f6e2d7a65726f2e0000000000000000604082015260600190565b63ffffffff948516815260208101939093529083166040830152909116606082015260800190565b60008219821115613604576136046136ee565b500190565b600063ffffffff808316818516808303821115613628576136286136ee565b01949350505050565b60008261364f5760e060020a634e487b710281526012600452602481fd5b500490565b600081600019048311821515161561366e5761366e6136ee565b500290565b600082821015613685576136856136ee565b500390565b600063ffffffff838116908316818110156136a7576136a76136ee565b039392505050565b6002810460018216806136c357607f821691505b602082108114156136e85760e060020a634e487b710260009081526022600452602490fd5b50919050565b60e060020a634e487b710260009081526011600452602490fd5b60e060020a634e487b710260009081526041600452602490fd5b63ffffffff811681146120ff57600080fdfe09c64bee251b684a6bb80ce179dd520c001481b7c3d7781f1502e3052af474cf8be0079c531659141344cd1fd0a4f28419497f9722a3daafe3b4186f6b6457e0ddf252ad1be2c89b69c2b068fc378daa952ba7f163c4a11628f55a4df523b3efa26469706673582212201384985d210242a5c1fa3e1ce185c3e43f25eeeaa7822b4f1110685e9892084664736f6c63430008030033",
  "immutableReferences": {},
  "source": "// SPDX-License-Identifier: MIT\n\npragma solidity ^0.8.3;\n\nimport \"@openzeppelin/contracts/token/ERC20/IERC20.sol\";\nimport \"@openzeppelin/contracts-upgradeable/utils/math/SafeMathUpgradeable.sol\";\nimport \"./ProductToken.sol\";\nimport \"./interface/IVNFT.sol\";\n\n/// @title ProductTokenV0\n/// @notice This is version 0 of the product token implementation.\n/// @dev This contract builds on top of version 0 by including transaction logics, such as buy and sell transfers\n///    and exchange rate computation by including a price oracle.\ncontract ProductTokenV0 is ProductToken {\n\tusing SafeMathUpgradeable for uint256;\n\n    struct supplierInfo {\n        uint256 amount;\n        address wallet;\n    }\n    struct voucherInfo {\n        address addr;\n        uint256 tokenId;\n    }\n\n    supplierInfo public supplier;\n    voucherInfo public voucher;\n\n    function setupVoucher(address addr_, uint256 tokenId_) external virtual onlyOwner{\n        require(addr_ != address(0), 'invalid address');\n        voucher.addr = addr_;\n        voucher.tokenId = tokenId_;\n    }\n\n    function claimVoucher(uint256 tokenId_) external virtual onlyOwner{\n        require(tokenId_ != 0, 'invalid id');\n\n        uint256 amount = IVNFT(voucher.addr).unitsInToken(voucher.tokenId);\n        IVNFT(voucher.addr).transferFrom(address(this), owner(), voucher.tokenId , tokenId_, amount);\n    }\n\n    function buyByVoucher(uint256 tokenId_, uint256 maxPrice_) external virtual onlyIfTradable{\n        require(tokenId_ >= 0, \"Invalid id\");\n        require(maxPrice_ > 0, \"invalid max price\");\n        IVNFT instance = IVNFT(voucher.addr);\n        instance.transferFrom(msg.sender, address(this), tokenId_, voucher.tokenId, maxPrice_);\n\n        (uint256 amount,uint256 change, uint price, uint256 fee)  = _buy(maxPrice_);\n        if (amount > 0) {\n            if(change > 0) {\n                instance.transferFrom(address(this), msg.sender, voucher.tokenId, tokenId_, change);\n            }\n            _updateSupplierFee(fee.mul(1e12).div(8e12));\n        } else {\n            instance.transferFrom(address(this), msg.sender, voucher.tokenId, tokenId_, maxPrice_);\n        }\n    }\n\n    function sellByVoucher(uint256 tokenId_, uint32 amount_) external virtual onlyIfTradable{\n        (uint256 price, uint256 fee )= _sellForAmount(amount_);\n        IVNFT(voucher.addr).transferFrom(address(this), msg.sender, voucher.tokenId, tokenId_, price);\n        _updateSupplierFee(fee.mul(1e12).div(2e12));\n    }\n\n    function tradeinVoucher(uint256 tokenId_, uint32 amount_) external virtual onlyIfTradable {\n        require(amount_ > 0, \"Amount must be non-zero.\");\n        require(balanceOf(msg.sender) >= amount_, \"Insufficient tokens to burn.\");\n\n        (uint256 reimburseAmount, uint fee) = _sellReturn(amount_);\n        uint256 tradinReturn = calculateTradinReturn(amount_);\n        _updateSupplierFee(fee.mul(1e12).div(2e12).add(tradinReturn));\n        _addEscrow(amount_,  reimburseAmount.sub(fee));\n        _burn(msg.sender, amount_);\n        tradeinCount = tradeinCount + amount_;\n        tradeinReserveBalance = tradeinReserveBalance.add(tradinReturn);\n        emit Tradein(msg.sender, amount_);\n    }\n\n    function setSupplier( address wallet_) external virtual onlyOwner {\n        require(wallet_!=address(0), \"Address is invalid\");\n        supplier.wallet = wallet_;\n    }\n\n    function claimSupplier(uint256 tokenId_, uint256 amount_) external virtual{\n        require(supplier.wallet!=address(0), \"wallet is invalid\");\n        require(msg.sender == supplier.wallet, \"The address is not allowed\");\n        if (amount_ <= supplier.amount){\n            IVNFT(voucher.addr).transferFrom(address(this), msg.sender, voucher.tokenId, tokenId_, amount_);\n            supplier.amount = supplier.amount.sub(amount_);\n        }\n    }\n\n    function _updateSupplierFee(uint256 fee) virtual internal {\n        if( fee > 0 ) {\n            supplier.amount = supplier.amount.add(fee);\n        }\n    }\n\n    /**\n    * @dev this function returns the amount of reserve balance that the supplier can withdraw from the dapp.\n    */\n    function getSupplierBalance() public view virtual returns (uint256) {\n        return supplier.amount;\n    }\n\n}\n",
  "sourcePath": "/Users/jack/Documents/GitHub/HighStreet/client/src/contracts/ProductTokenV0.sol",
  "compiler": {
    "name": "solc",
    "version": "0.8.3+commit.8d00100c.Emscripten.clang"
  },
  "schemaVersion": "3.4.0",
  "updatedAt": "2021-09-26T08:29:11.821Z",
  "devdoc": {
    "details": "This contract builds on top of version 0 by including transaction logics, such as buy and sell transfers    and exchange rate computation by including a price oracle.",
    "kind": "dev",
    "methods": {
      "allowance(address,address)": {
        "details": "See {IERC20-allowance}."
      },
      "approve(address,uint256)": {
        "details": "See {IERC20-approve}. Requirements: - `spender` cannot be the zero address."
      },
      "balanceOf(address)": {
        "details": "See {IERC20-balanceOf}."
      },
      "calculateBuyReturn(uint256)": {
        "details": "Function that computes number of product tokens one can buy given an amount in reserve token.",
        "params": {
          "_amountReserve": "purchaing amount in reserve token (dai)(with 4% platform fee)"
        },
        "returns": {
          "mintAmount": "             number of tokens in traded token that can be purchased by given amount."
        }
      },
      "calculateSellReturn(uint32)": {
        "details": "Function that computes selling price in reserve tokens given an amount in traded token.",
        "params": {
          "_amountProduct": "selling amount in product token"
        },
        "returns": {
          "soldAmount": "             total amount that will be transferred to the seller (with 2% platform fee)."
        }
      },
      "decimals()": {
        "details": "Returns the number of decimals used to get its user representation. For example, if `decimals` equals `2`, a balance of `505` tokens should be displayed to a user as `5,05` (`505 / 10 ** 2`). Tokens usually opt for a value of 18, imitating the relationship between Ether and Wei. This is the value {ERC20} uses, unless this function is overloaded; NOTE: This information is only used for _display_ purposes: it in no way affects any of the arithmetic of the contract, including {IERC20-balanceOf} and {IERC20-transfer}."
      },
      "decreaseAllowance(address,uint256)": {
        "details": "Atomically decreases the allowance granted to `spender` by the caller. This is an alternative to {approve} that can be used as a mitigation for problems described in {IERC20-approve}. Emits an {Approval} event indicating the updated allowance. Requirements: - `spender` cannot be the zero address. - `spender` must have allowance for the caller of at least `subtractedValue`."
      },
      "getAvailability()": {
        "details": "Function to check how many tokens of this product are currently available for purchase, by taking the difference between max cap count and current token in circulation or burned.",
        "returns": {
          "available": "               the number of tokens available"
        }
      },
      "getCurrentPrice()": {
        "details": "Function that computes current price for a token through bonding curve calculation based on parameters such as total supply, reserve balance, and reserve ratio.",
        "returns": {
          "price": "                  current price in reserve token (in our case, this is dai). (with 4% platform fee)"
        }
      },
      "getEscrowHistory(address)": {
        "details": "Return the list of all escrows created for a certain user",
        "params": {
          "_buyer": "The address of the buyer"
        },
        "returns": {
          "_0": "A list of past escrows"
        }
      },
      "getPriceForN(uint32)": {
        "details": "Function that computes price total for buying n token through bonding curve calculation based on parameters such as total supply, reserve balance, and reserve ratio.",
        "params": {
          "_amountProduct": "token amount in traded token"
        },
        "returns": {
          "price": "                  total price in reserve token (in our case, this is dai). (with 4% platform fee)"
        }
      },
      "getRedeemStatus(address,uint256)": {
        "details": "Get status of a particular redemption process",
        "params": {
          "_buyer": "The address of the buyer",
          "_id": "The cached id of the escrow, retrieved from database"
        },
        "returns": {
          "_0": "The current status"
        }
      },
      "getSupplierBalance()": {
        "details": "this function returns the amount of reserve balance that the supplier can withdraw from the dapp."
      },
      "increaseAllowance(address,uint256)": {
        "details": "Atomically increases the allowance granted to `spender` by the caller. This is an alternative to {approve} that can be used as a mitigation for problems described in {IERC20-approve}. Emits an {Approval} event indicating the updated allowance. Requirements: - `spender` cannot be the zero address."
      },
      "initialize(string,string,address,uint32,uint32,uint32,uint256)": {
        "details": "initializer function.",
        "params": {
          "_baseReserve": "the base amount of reserve tokens, in accordance to _supplyOffset.",
          "_maxTokenCount": "the amount of token that will exist for this type.",
          "_name": "the name of this token",
          "_reserveRatio": "the reserve ratio in the curve function. Number in parts per million",
          "_supplyOffset": "this amount is used to determine initial price.",
          "_symbol": "the symbol of this token"
        }
      },
      "isStateCompleted(uint8)": {
        "details": "Helper function to check whether a escrow state is completed",
        "params": {
          "_state": "The state to be checked"
        }
      },
      "launch()": {
        "details": "requires function to be called from owner. this enables customers to buy, sell, or redeem the product."
      },
      "name()": {
        "details": "Returns the name of the token."
      },
      "owner()": {
        "details": "Returns the address of the current owner."
      },
      "pause()": {
        "details": "requires function to be called from owner. this prevents customers from buying, selling, or redeeming the product."
      },
      "renounceOwnership()": {
        "details": "Leaves the contract without owner. It will not be possible to call `onlyOwner` functions anymore. Can only be called by the current owner. NOTE: Renouncing ownership will leave the contract without an owner, thereby removing any functionality that is only available to the owner."
      },
      "setBondingCurve(address)": {
        "details": "requires function to be called from owner. sets a bonding curve implementation for this product.",
        "params": {
          "_address": "the address of the bonding curve implementation"
        }
      },
      "symbol()": {
        "details": "Returns the symbol of the token, usually a shorter version of the name."
      },
      "totalSupply()": {
        "details": "See {IERC20-totalSupply}."
      },
      "transfer(address,uint256)": {
        "details": "See {IERC20-transfer}. Requirements: - `recipient` cannot be the zero address. - the caller must have a balance of at least `amount`."
      },
      "transferFrom(address,address,uint256)": {
        "details": "See {IERC20-transferFrom}. Emits an {Approval} event indicating the updated allowance. This is not required by the EIP. See the note at the beginning of {ERC20}. Requirements: - `sender` and `recipient` cannot be the zero address. - `sender` must have a balance of at least `amount`. - the caller must have allowance for ``sender``'s tokens of at least `amount`."
      },
      "transferOwnership(address)": {
        "details": "Transfers ownership of the contract to a new account (`newOwner`). Can only be called by the current owner."
      },
      "updateUserCompleted(address,uint256)": {
        "details": "used to update the status of redemption to \"User Complete\" after an escrow process has been started.",
        "params": {
          "buyer": "the wallet address of product buyer",
          "id": "the id of the escrow, returned to the user after starting of redemption process"
        }
      },
      "updateUserRefund(address,uint256)": {
        "details": "used to update the status of redemption to \"User Refunded\" after an escrow process has been started.",
        "params": {
          "buyer": "the wallet address of product buyer",
          "id": "the id of the escrow, returned to the user after starting of redemption process"
        }
      }
    },
    "title": "ProductTokenV0",
    "version": 1
  },
  "userdoc": {
    "kind": "user",
    "methods": {},
    "notice": "This is version 0 of the product token implementation.",
    "version": 1
  }
}