{
  "contractName": "ProductTokenV1",
  "abi": [
    {
      "anonymous": false,
      "inputs": [
        {
          "indexed": true,
          "internalType": "address",
          "name": "owner",
          "type": "address"
        },
        {
          "indexed": true,
          "internalType": "address",
          "name": "spender",
          "type": "address"
        },
        {
          "indexed": false,
          "internalType": "uint256",
          "name": "value",
          "type": "uint256"
        }
      ],
      "name": "Approval",
      "type": "event"
    },
    {
      "anonymous": false,
      "inputs": [
        {
          "indexed": true,
          "internalType": "address",
          "name": "sender",
          "type": "address"
        },
        {
          "indexed": false,
          "internalType": "uint32",
          "name": "amount",
          "type": "uint32"
        },
        {
          "indexed": false,
          "internalType": "uint256",
          "name": "deposit",
          "type": "uint256"
        }
      ],
      "name": "Buy",
      "type": "event"
    },
    {
      "anonymous": false,
      "inputs": [
        {
          "indexed": true,
          "internalType": "address",
          "name": "previousOwner",
          "type": "address"
        },
        {
          "indexed": true,
          "internalType": "address",
          "name": "newOwner",
          "type": "address"
        }
      ],
      "name": "OwnershipTransferred",
      "type": "event"
    },
    {
      "anonymous": false,
      "inputs": [
        {
          "indexed": true,
          "internalType": "address",
          "name": "sender",
          "type": "address"
        },
        {
          "indexed": false,
          "internalType": "uint32",
          "name": "amount",
          "type": "uint32"
        },
        {
          "indexed": false,
          "internalType": "uint256",
          "name": "refund",
          "type": "uint256"
        }
      ],
      "name": "Sell",
      "type": "event"
    },
    {
      "anonymous": false,
      "inputs": [
        {
          "indexed": false,
          "internalType": "bool",
          "name": "isTradable",
          "type": "bool"
        }
      ],
      "name": "Tradable",
      "type": "event"
    },
    {
      "anonymous": false,
      "inputs": [
        {
          "indexed": true,
          "internalType": "address",
          "name": "sender",
          "type": "address"
        },
        {
          "indexed": false,
          "internalType": "uint32",
          "name": "amount",
          "type": "uint32"
        }
      ],
      "name": "Tradein",
      "type": "event"
    },
    {
      "anonymous": false,
      "inputs": [
        {
          "indexed": true,
          "internalType": "address",
          "name": "from",
          "type": "address"
        },
        {
          "indexed": true,
          "internalType": "address",
          "name": "to",
          "type": "address"
        },
        {
          "indexed": false,
          "internalType": "uint256",
          "name": "value",
          "type": "uint256"
        }
      ],
      "name": "Transfer",
      "type": "event"
    },
    {
      "anonymous": false,
      "inputs": [
        {
          "indexed": false,
          "internalType": "address",
          "name": "",
          "type": "address"
        },
        {
          "indexed": false,
          "internalType": "uint256",
          "name": "",
          "type": "uint256"
        },
        {
          "components": [
            {
              "internalType": "enum Escrow.escrowState",
              "name": "state",
              "type": "uint8"
            },
            {
              "internalType": "uint32",
              "name": "amount",
              "type": "uint32"
            },
            {
              "internalType": "uint256",
              "name": "value",
              "type": "uint256"
            }
          ],
          "indexed": false,
          "internalType": "struct Escrow.escrowInfo",
          "name": "",
          "type": "tuple"
        }
      ],
      "name": "escrowStateUpdated",
      "type": "event"
    },
    {
      "stateMutability": "nonpayable",
      "type": "fallback"
    },
    {
      "inputs": [
        {
          "internalType": "address",
          "name": "owner",
          "type": "address"
        },
        {
          "internalType": "address",
          "name": "spender",
          "type": "address"
        }
      ],
      "name": "allowance",
      "outputs": [
        {
          "internalType": "uint256",
          "name": "",
          "type": "uint256"
        }
      ],
      "stateMutability": "view",
      "type": "function"
    },
    {
      "inputs": [
        {
          "internalType": "address",
          "name": "spender",
          "type": "address"
        },
        {
          "internalType": "uint256",
          "name": "amount",
          "type": "uint256"
        }
      ],
      "name": "approve",
      "outputs": [
        {
          "internalType": "bool",
          "name": "",
          "type": "bool"
        }
      ],
      "stateMutability": "nonpayable",
      "type": "function"
    },
    {
      "inputs": [
        {
          "internalType": "address",
          "name": "account",
          "type": "address"
        }
      ],
      "name": "balanceOf",
      "outputs": [
        {
          "internalType": "uint256",
          "name": "",
          "type": "uint256"
        }
      ],
      "stateMutability": "view",
      "type": "function"
    },
    {
      "inputs": [
        {
          "internalType": "uint256",
          "name": "_amountReserve",
          "type": "uint256"
        }
      ],
      "name": "calculateBuyReturn",
      "outputs": [
        {
          "internalType": "uint32",
          "name": "mintAmount",
          "type": "uint32"
        }
      ],
      "stateMutability": "view",
      "type": "function"
    },
    {
      "inputs": [
        {
          "internalType": "uint32",
          "name": "_amountProduct",
          "type": "uint32"
        }
      ],
      "name": "calculateSellReturn",
      "outputs": [
        {
          "internalType": "uint256",
          "name": "soldAmount",
          "type": "uint256"
        }
      ],
      "stateMutability": "view",
      "type": "function"
    },
    {
      "inputs": [
        {
          "internalType": "uint32",
          "name": "_amount",
          "type": "uint32"
        }
      ],
      "name": "calculateTradinReturn",
      "outputs": [
        {
          "internalType": "uint256",
          "name": "",
          "type": "uint256"
        }
      ],
      "stateMutability": "view",
      "type": "function"
    },
    {
      "inputs": [],
      "name": "decimals",
      "outputs": [
        {
          "internalType": "uint8",
          "name": "",
          "type": "uint8"
        }
      ],
      "stateMutability": "view",
      "type": "function"
    },
    {
      "inputs": [
        {
          "internalType": "address",
          "name": "spender",
          "type": "address"
        },
        {
          "internalType": "uint256",
          "name": "subtractedValue",
          "type": "uint256"
        }
      ],
      "name": "decreaseAllowance",
      "outputs": [
        {
          "internalType": "bool",
          "name": "",
          "type": "bool"
        }
      ],
      "stateMutability": "nonpayable",
      "type": "function"
    },
    {
      "inputs": [
        {
          "internalType": "address",
          "name": "",
          "type": "address"
        },
        {
          "internalType": "uint256",
          "name": "",
          "type": "uint256"
        }
      ],
      "name": "escrowList",
      "outputs": [
        {
          "internalType": "enum Escrow.escrowState",
          "name": "state",
          "type": "uint8"
        },
        {
          "internalType": "uint32",
          "name": "amount",
          "type": "uint32"
        },
        {
          "internalType": "uint256",
          "name": "value",
          "type": "uint256"
        }
      ],
      "stateMutability": "view",
      "type": "function"
    },
    {
      "inputs": [],
      "name": "getAvailability",
      "outputs": [
        {
          "internalType": "uint32",
          "name": "available",
          "type": "uint32"
        }
      ],
      "stateMutability": "view",
      "type": "function"
    },
    {
      "inputs": [],
      "name": "getCurrentPrice",
      "outputs": [
        {
          "internalType": "uint256",
          "name": "price",
          "type": "uint256"
        }
      ],
      "stateMutability": "view",
      "type": "function"
    },
    {
      "inputs": [
        {
          "internalType": "address",
          "name": "_buyer",
          "type": "address"
        }
      ],
      "name": "getEscrowHistory",
      "outputs": [
        {
          "components": [
            {
              "internalType": "enum Escrow.escrowState",
              "name": "state",
              "type": "uint8"
            },
            {
              "internalType": "uint32",
              "name": "amount",
              "type": "uint32"
            },
            {
              "internalType": "uint256",
              "name": "value",
              "type": "uint256"
            }
          ],
          "internalType": "struct Escrow.escrowInfo[]",
          "name": "",
          "type": "tuple[]"
        }
      ],
      "stateMutability": "view",
      "type": "function"
    },
    {
      "inputs": [],
      "name": "getManager",
      "outputs": [
        {
          "internalType": "address",
          "name": "",
          "type": "address"
        }
      ],
      "stateMutability": "view",
      "type": "function"
    },
    {
      "inputs": [
        {
          "internalType": "uint32",
          "name": "_amountProduct",
          "type": "uint32"
        }
      ],
      "name": "getPriceForN",
      "outputs": [
        {
          "internalType": "uint256",
          "name": "price",
          "type": "uint256"
        }
      ],
      "stateMutability": "view",
      "type": "function"
    },
    {
      "inputs": [
        {
          "internalType": "address",
          "name": "_buyer",
          "type": "address"
        },
        {
          "internalType": "uint256",
          "name": "_id",
          "type": "uint256"
        }
      ],
      "name": "getRedeemStatus",
      "outputs": [
        {
          "internalType": "enum Escrow.escrowState",
          "name": "",
          "type": "uint8"
        }
      ],
      "stateMutability": "view",
      "type": "function"
    },
    {
      "inputs": [
        {
          "internalType": "address",
          "name": "spender",
          "type": "address"
        },
        {
          "internalType": "uint256",
          "name": "addedValue",
          "type": "uint256"
        }
      ],
      "name": "increaseAllowance",
      "outputs": [
        {
          "internalType": "bool",
          "name": "",
          "type": "bool"
        }
      ],
      "stateMutability": "nonpayable",
      "type": "function"
    },
    {
      "inputs": [
        {
          "internalType": "string",
          "name": "_name",
          "type": "string"
        },
        {
          "internalType": "string",
          "name": "_symbol",
          "type": "string"
        },
        {
          "internalType": "address",
          "name": "_bondingCurveAddress",
          "type": "address"
        },
        {
          "internalType": "uint32",
          "name": "_reserveRatio",
          "type": "uint32"
        },
        {
          "internalType": "uint32",
          "name": "_maxTokenCount",
          "type": "uint32"
        },
        {
          "internalType": "uint32",
          "name": "_supplyOffset",
          "type": "uint32"
        },
        {
          "internalType": "uint256",
          "name": "_baseReserve",
          "type": "uint256"
        }
      ],
      "name": "initialize",
      "outputs": [],
      "stateMutability": "nonpayable",
      "type": "function"
    },
    {
      "inputs": [
        {
          "internalType": "enum Escrow.escrowState",
          "name": "_state",
          "type": "uint8"
        }
      ],
      "name": "isStateCompleted",
      "outputs": [
        {
          "internalType": "bool",
          "name": "",
          "type": "bool"
        }
      ],
      "stateMutability": "pure",
      "type": "function"
    },
    {
      "inputs": [],
      "name": "launch",
      "outputs": [],
      "stateMutability": "nonpayable",
      "type": "function"
    },
    {
      "inputs": [],
      "name": "maxTokenCount",
      "outputs": [
        {
          "internalType": "uint32",
          "name": "",
          "type": "uint32"
        }
      ],
      "stateMutability": "view",
      "type": "function"
    },
    {
      "inputs": [],
      "name": "name",
      "outputs": [
        {
          "internalType": "string",
          "name": "",
          "type": "string"
        }
      ],
      "stateMutability": "view",
      "type": "function"
    },
    {
      "inputs": [],
      "name": "owner",
      "outputs": [
        {
          "internalType": "address",
          "name": "",
          "type": "address"
        }
      ],
      "stateMutability": "view",
      "type": "function"
    },
    {
      "inputs": [],
      "name": "pause",
      "outputs": [],
      "stateMutability": "nonpayable",
      "type": "function"
    },
    {
      "inputs": [],
      "name": "poolInfo",
      "outputs": [
        {
          "internalType": "uint256",
          "name": "amount",
          "type": "uint256"
        },
        {
          "internalType": "uint256",
          "name": "accRewardPerShare",
          "type": "uint256"
        },
        {
          "internalType": "uint256",
          "name": "tokenReward",
          "type": "uint256"
        }
      ],
      "stateMutability": "view",
      "type": "function"
    },
    {
      "inputs": [],
      "name": "renounceOwnership",
      "outputs": [],
      "stateMutability": "nonpayable",
      "type": "function"
    },
    {
      "inputs": [],
      "name": "reserveBalance",
      "outputs": [
        {
          "internalType": "uint256",
          "name": "",
          "type": "uint256"
        }
      ],
      "stateMutability": "view",
      "type": "function"
    },
    {
      "inputs": [],
      "name": "reserveRatio",
      "outputs": [
        {
          "internalType": "uint32",
          "name": "",
          "type": "uint32"
        }
      ],
      "stateMutability": "view",
      "type": "function"
    },
    {
      "inputs": [
        {
          "internalType": "address",
          "name": "_address",
          "type": "address"
        }
      ],
      "name": "setBondingCurve",
      "outputs": [],
      "stateMutability": "nonpayable",
      "type": "function"
    },
    {
      "inputs": [
        {
          "internalType": "address",
          "name": "addr_",
          "type": "address"
        }
      ],
      "name": "setManager",
      "outputs": [],
      "stateMutability": "nonpayable",
      "type": "function"
    },
    {
      "inputs": [],
      "name": "supplier",
      "outputs": [
        {
          "internalType": "uint256",
          "name": "amount",
          "type": "uint256"
        },
        {
          "internalType": "address",
          "name": "wallet",
          "type": "address"
        }
      ],
      "stateMutability": "view",
      "type": "function"
    },
    {
      "inputs": [],
      "name": "symbol",
      "outputs": [
        {
          "internalType": "string",
          "name": "",
          "type": "string"
        }
      ],
      "stateMutability": "view",
      "type": "function"
    },
    {
      "inputs": [],
      "name": "totalSupply",
      "outputs": [
        {
          "internalType": "uint256",
          "name": "",
          "type": "uint256"
        }
      ],
      "stateMutability": "view",
      "type": "function"
    },
    {
      "inputs": [],
      "name": "tradeinCount",
      "outputs": [
        {
          "internalType": "uint32",
          "name": "",
          "type": "uint32"
        }
      ],
      "stateMutability": "view",
      "type": "function"
    },
    {
      "inputs": [],
      "name": "tradeinReserveBalance",
      "outputs": [
        {
          "internalType": "uint256",
          "name": "",
          "type": "uint256"
        }
      ],
      "stateMutability": "view",
      "type": "function"
    },
    {
      "inputs": [
        {
          "internalType": "address",
          "name": "recipient",
          "type": "address"
        },
        {
          "internalType": "uint256",
          "name": "amount",
          "type": "uint256"
        }
      ],
      "name": "transfer",
      "outputs": [
        {
          "internalType": "bool",
          "name": "",
          "type": "bool"
        }
      ],
      "stateMutability": "nonpayable",
      "type": "function"
    },
    {
      "inputs": [
        {
          "internalType": "address",
          "name": "sender",
          "type": "address"
        },
        {
          "internalType": "address",
          "name": "recipient",
          "type": "address"
        },
        {
          "internalType": "uint256",
          "name": "amount",
          "type": "uint256"
        }
      ],
      "name": "transferFrom",
      "outputs": [
        {
          "internalType": "bool",
          "name": "",
          "type": "bool"
        }
      ],
      "stateMutability": "nonpayable",
      "type": "function"
    },
    {
      "inputs": [
        {
          "internalType": "address",
          "name": "newOwner",
          "type": "address"
        }
      ],
      "name": "transferOwnership",
      "outputs": [],
      "stateMutability": "nonpayable",
      "type": "function"
    },
    {
      "inputs": [
        {
          "internalType": "address",
          "name": "buyer",
          "type": "address"
        },
        {
          "internalType": "uint256",
          "name": "id",
          "type": "uint256"
        }
      ],
      "name": "updateUserCompleted",
      "outputs": [],
      "stateMutability": "nonpayable",
      "type": "function"
    },
    {
      "inputs": [
        {
          "internalType": "address",
          "name": "buyer",
          "type": "address"
        },
        {
          "internalType": "uint256",
          "name": "id",
          "type": "uint256"
        }
      ],
      "name": "updateUserRefund",
      "outputs": [],
      "stateMutability": "nonpayable",
      "type": "function"
    },
    {
      "inputs": [
        {
          "internalType": "address",
          "name": "",
          "type": "address"
        }
      ],
      "name": "userInfo",
      "outputs": [
        {
          "internalType": "uint256",
          "name": "amount",
          "type": "uint256"
        },
        {
          "internalType": "uint256",
          "name": "rewardDebt",
          "type": "uint256"
        },
        {
          "internalType": "uint256",
          "name": "lastReward",
          "type": "uint256"
        }
      ],
      "stateMutability": "view",
      "type": "function"
    },
    {
      "inputs": [],
      "name": "voucher",
      "outputs": [
        {
          "internalType": "address",
          "name": "addr",
          "type": "address"
        },
        {
          "internalType": "contract IVNFT",
          "name": "instance",
          "type": "address"
        },
        {
          "internalType": "uint256",
          "name": "tokenId",
          "type": "uint256"
        },
        {
          "internalType": "bool",
          "name": "isEnable",
          "type": "bool"
        }
      ],
      "stateMutability": "view",
      "type": "function"
    },
    {
      "inputs": [
        {
          "internalType": "address",
          "name": "highAddress_",
          "type": "address"
        }
      ],
      "name": "setHigh",
      "outputs": [],
      "stateMutability": "nonpayable",
      "type": "function"
    },
    {
      "inputs": [
        {
          "internalType": "uint256",
          "name": "maxPrice_",
          "type": "uint256"
        }
      ],
      "name": "buy",
      "outputs": [],
      "stateMutability": "nonpayable",
      "type": "function"
    },
    {
      "inputs": [
        {
          "internalType": "uint32",
          "name": "amount_",
          "type": "uint32"
        }
      ],
      "name": "sell",
      "outputs": [],
      "stateMutability": "nonpayable",
      "type": "function"
    },
    {
      "inputs": [
        {
          "internalType": "uint32",
          "name": "amount_",
          "type": "uint32"
        }
      ],
      "name": "tradein",
      "outputs": [],
      "stateMutability": "nonpayable",
      "type": "function"
    },
    {
      "inputs": [
        {
          "internalType": "uint256",
          "name": "fee_",
          "type": "uint256"
        }
      ],
      "name": "updatePool",
      "outputs": [],
      "stateMutability": "nonpayable",
      "type": "function"
    },
    {
      "inputs": [
        {
          "internalType": "address",
          "name": "wallet_",
          "type": "address"
        }
      ],
      "name": "updateSupplierInfo",
      "outputs": [],
      "stateMutability": "nonpayable",
      "type": "function"
    },
    {
      "inputs": [
        {
          "internalType": "uint256",
          "name": "amount_",
          "type": "uint256"
        }
      ],
      "name": "claimSupplier",
      "outputs": [],
      "stateMutability": "nonpayable",
      "type": "function"
    },
    {
      "inputs": [],
      "name": "getSupplierBalance",
      "outputs": [
        {
          "internalType": "uint256",
          "name": "",
          "type": "uint256"
        }
      ],
      "stateMutability": "view",
      "type": "function"
    },
    {
      "inputs": [
        {
          "internalType": "uint256",
          "name": "value_",
          "type": "uint256"
        }
      ],
      "name": "withdrawEther",
      "outputs": [],
      "stateMutability": "payable",
      "type": "function"
    },
    {
      "inputs": [
        {
          "internalType": "uint256",
          "name": "amount_",
          "type": "uint256"
        },
        {
          "internalType": "address",
          "name": "to_",
          "type": "address"
        }
      ],
      "name": "withdrawHigh",
      "outputs": [],
      "stateMutability": "nonpayable",
      "type": "function"
    },
    {
      "inputs": [
        {
          "internalType": "address",
          "name": "addr_",
          "type": "address"
        }
      ],
      "name": "getUserReward",
      "outputs": [
        {
          "internalType": "uint256",
          "name": "",
          "type": "uint256"
        }
      ],
      "stateMutability": "view",
      "type": "function"
    },
    {
      "inputs": [
        {
          "internalType": "address",
          "name": "addr_",
          "type": "address"
        }
      ],
      "name": "getUserInfo",
      "outputs": [
        {
          "components": [
            {
              "internalType": "uint256",
              "name": "amount",
              "type": "uint256"
            },
            {
              "internalType": "uint256",
              "name": "rewardDebt",
              "type": "uint256"
            },
            {
              "internalType": "uint256",
              "name": "lastReward",
              "type": "uint256"
            },
            {
              "internalType": "uint256[]",
              "name": "records",
              "type": "uint256[]"
            }
          ],
          "internalType": "struct ProductTokenV1.UserInfo",
          "name": "",
          "type": "tuple"
        }
      ],
      "stateMutability": "view",
      "type": "function"
    },
    {
      "inputs": [],
      "name": "getPoolInfo",
      "outputs": [
        {
          "components": [
            {
              "internalType": "uint256",
              "name": "amount",
              "type": "uint256"
            },
            {
              "internalType": "uint256",
              "name": "accRewardPerShare",
              "type": "uint256"
            },
            {
              "internalType": "uint256",
              "name": "tokenReward",
              "type": "uint256"
            }
          ],
          "internalType": "struct ProductTokenV1.PoolInfo",
          "name": "",
          "type": "tuple"
        }
      ],
      "stateMutability": "view",
      "type": "function"
    },
    {
      "inputs": [],
      "name": "getSupplierInfo",
      "outputs": [
        {
          "components": [
            {
              "internalType": "uint256",
              "name": "amount",
              "type": "uint256"
            },
            {
              "internalType": "address",
              "name": "wallet",
              "type": "address"
            }
          ],
          "internalType": "struct ProductTokenV1.supplierInfo",
          "name": "",
          "type": "tuple"
        }
      ],
      "stateMutability": "view",
      "type": "function"
    }
  ],
  "bytecode": "0x608060405234801561001057600080fd5b50614550806100206000396000f3fe6080604052600436106102a45760003560e060020a900480637a53e0401161016a578063c75ebb82116100cb578063c75ebb8214610888578063cdda418c146108a8578063d0ebdbe714610907578063d500958414610927578063d96a094a14610945578063dd304b1a14610965578063dd62ed3e14610992578063deebbef1146109d8578063e67dc518146109f8578063eb91d37e14610a0e578063ebc9e4d614610a23578063efea8a1314610a43578063f2fde38b14610a63578063f97511d314610a83576102a4565b80637a53e040146106e4578063828f3a9c146106f95780638456cb59146107195780638da5cb5b1461072e57806395d89b4114610750578063964a6afe146107655780639b9ffbf31461077a578063a10954fe146107a9578063a457c2d7146107bf578063a8d92629146107df578063a9059cbb146107ff578063ba7a93b61461081f578063c4e627c214610843578063c757d4c714610868576102a4565b80633bed33ce116102145780633bed33ce146104ca57806343ff1fb8146104dd578063491052cd146104fd5780634ffd23a71461051d57806351eb05a61461053d5780635a2f3d091461055d5780635e88752c1461057c57806360246c881461059c5780636386c1c7146105d357806363c51fbb146106005780636e74607b1461062057806370a082311461064d578063715018a61461066d57806374a7b01214610682576102a4565b806301339c21146102b357806306fdde03146102ca578063095ea7b3146102f55780630c7d5cd8146103255780630ccee99b1461035757806318160ddd146103775780631959a0021461039657806319d5b587146103ed578063224e4f481461040d57806323b872dd1461042d578063313ce5671461044d57806336da44681461046957806339509351146104aa575b3480156102b057600080fd5b50005b3480156102bf57600080fd5b506102c8610aa3565b005b3480156102d657600080fd5b506102df610b8b565b6040516102ec9190614028565b60405180910390f35b34801561030157600080fd5b50610315610310366004613d16565b610c1d565b60405190151581526020016102ec565b34801561033157600080fd5b50609b546103429063ffffffff1681565b60405163ffffffff90911681526020016102ec565b34801561036357600080fd5b506102c8610372366004613d16565b610c34565b34801561038357600080fd5b506035545b6040519081526020016102ec565b3480156103a257600080fd5b506103d26103b1366004613c8f565b60a76020526000908152604090208054600182015460029092015490919083565b604080519384526020840192909252908201526060016102ec565b3480156103f957600080fd5b50610388610408366004613e85565b610cbb565b34801561041957600080fd5b50610388610428366004613e85565b610dbc565b34801561043957600080fd5b50610315610448366004613cdb565b610de1565b34801561045957600080fd5b50604051600081526020016102ec565b34801561047557600080fd5b50609e54609f5461048d9190600160a060020a031682565b60408051928352600160a060020a039091166020830152016102ec565b3480156104b657600080fd5b506103156104c5366004613d16565b610eaa565b6102c86104d8366004613e33565b610ee1565b3480156104e957600080fd5b506102c86104f8366004613c8f565b610f91565b34801561050957600080fd5b50610315610518366004613d5f565b61100e565b34801561052957600080fd5b506102c8610538366004613e85565b611068565b34801561054957600080fd5b506102c8610558366004613e33565b6111ef565b34801561056957600080fd5b5060a05460a15460a2546103d292919083565b34801561058857600080fd5b506102c8610597366004613e33565b611229565b3480156105a857600080fd5b506105b161138e565b60408051825181526020808401519082015291810151908201526060016102ec565b3480156105df57600080fd5b506105f36105ee366004613c8f565b6113d7565b6040516102ec91906142c5565b34801561060c57600080fd5b506102c861061b366004613e85565b6114c4565b34801561062c57600080fd5b5061064061063b366004613c8f565b611673565b6040516102ec9190613fa7565b34801561065957600080fd5b50610388610668366004613c8f565b611759565b34801561067957600080fd5b506102c8611774565b34801561068e57600080fd5b5060408051808201825260008082526020918201528151808301909252609e548252609f54600160a060020a0316908201526040805182518152602092830151600160a060020a031692810192909252016102ec565b3480156106f057600080fd5b506103426117de565b34801561070557600080fd5b50610342610714366004613e33565b611824565b34801561072557600080fd5b506102c8611838565b34801561073a57600080fd5b50610743611909565b6040516102ec9190613f09565b34801561075c57600080fd5b506102df611918565b34801561077157600080fd5b50609e54610388565b34801561078657600080fd5b5061079a610795366004613d16565b611927565b6040516102ec93929190614003565b3480156107b557600080fd5b5061038860995481565b3480156107cb57600080fd5b506103156107da366004613d16565b611972565b3480156107eb57600080fd5b506102c86107fa366004613c8f565b611a13565b34801561080b57600080fd5b5061031561081a366004613d16565b611a90565b34801561082b57600080fd5b50609b5461034290604060020a900463ffffffff1681565b34801561084f57600080fd5b50609b5461034290640100000000900463ffffffff1681565b34801561087457600080fd5b506102c8610883366004613d16565b611a9d565b34801561089457600080fd5b506103886108a3366004613c8f565b611b86565b3480156108b457600080fd5b5060a35460a45460a55460a6546108da93600160a060020a039081169316919060ff1684565b60408051600160a060020a03958616815294909316602085015291830152151560608201526080016102ec565b34801561091357600080fd5b506102c8610922366004613c8f565b611bfa565b34801561093357600080fd5b50609c54600160a060020a0316610743565b34801561095157600080fd5b506102c8610960366004613e33565b611c77565b34801561097157600080fd5b50610985610980366004613d16565b61206d565b6040516102ec9190613ff5565b34801561099e57600080fd5b506103886109ad366004613ca9565b600160a060020a03918216600090815260346020908152604080832093909416825291909152205490565b3480156109e457600080fd5b506102c86109f3366004613c8f565b6120c3565b348015610a0457600080fd5b50610388609a5481565b348015610a1a57600080fd5b50610388612170565b348015610a2f57600080fd5b506102c8610a3e366004613e63565b61217c565b348015610a4f57600080fd5b506102c8610a5e366004613d7e565b612303565b348015610a6f57600080fd5b506102c8610a7e366004613c8f565b612398565b348015610a8f57600080fd5b50610388610a9e366004613e85565b612493565b33610aac611909565b600160a060020a031614610ade5760405160e560020a62461bcd028152600401610ad590614222565b60405180910390fd5b60985460ff1615610b455760405160e560020a62461bcd02815260206004820152602560248201527f5468652070726f6475637420746f6b656e20697320616c7265616479206c6175604482015260da60020a641b98da1959026064820152608401610ad5565b6098805460ff191660019081179091556040519081527f65c5ccecef030677b73a1403e7e69ef84d05db9d1732959d543d32f4419909b8906020015b60405180910390a1565b606060368054610b9a9061441a565b80601f0160208091040260200160405190810160405280929190818152602001828054610bc69061441a565b8015610c135780601f10610be857610100808354040283529160200191610c13565b820191906000526020600020905b815481529060010190602001808311610bf657829003601f168201915b5050505050905090565b6000610c2a3384846124b0565b5060015b92915050565b610c3c611909565b600160a060020a031633600160a060020a03161480610c655750609c54600160a060020a031633145b610c845760405160e560020a62461bcd028152600401610ad5906141eb565b600160a060020a038216610cad5760405160e560020a62461bcd028152600401610ad5906140b2565b610cb782826125e1565b5050565b6000808263ffffffff1611610ce55760405160e560020a62461bcd028152600401610ad590614120565b609b54600090610d1c9063ffffffff606060020a8204811691610d169187811691604060020a900481169061275a16565b9061275a565b609d54609a54609b5460405160e060020a631c949873028152939450600160a060020a0390921692631c94987392610d63928692909163ffffffff16908990600401614334565b60206040518083038186803b158015610d7b57600080fd5b505afa158015610d8f573d6000803e3d6000fd5b505050506040513d601f19601f82011682018060405250810190610db39190613e4b565b9150505b919050565b6000806000610dca8461276d565b9092509050610dd98282612830565b949350505050565b6000610dee84848461283c565b600160a060020a038416600090815260346020908152604080832033845290915290205482811015610e8b5760405160e560020a62461bcd02815260206004820152602860248201527f45524332303a207472616e7366657220616d6f756e742065786365656473206160448201527f6c6c6f77616e63650000000000000000000000000000000000000000000000006064820152608401610ad5565b610e9f8533610e9a86856143de565b6124b0565b506001949350505050565b336000818152603460209081526040808320600160a060020a03871684529091528120549091610c2a918590610e9a90869061435c565b33610eea611909565b600160a060020a031614610f135760405160e560020a62461bcd028152600401610ad590614222565b3031610f645760405160e560020a62461bcd02815260206004820152600f60248201527f6e6f20656e6f75676820657468657200000000000000000000000000000000006044820152606401610ad5565b604051339082156108fc029083906000818181858888f19350505050158015610cb7573d6000803e3d6000fd5b33610f9a611909565b600160a060020a031614610fc35760405160e560020a62461bcd028152600401610ad590614222565b600160a060020a038116610fec5760405160e560020a62461bcd028152600401610ad59061407b565b609d8054600160a060020a031916600160a060020a0392909216919091179055565b600060038260038111156110355760e060020a634e487b7102600052602160045260246000fd5b1480610c2e575060028260038111156110615760e060020a634e487b7102600052602160045260246000fd5b1492915050565b60985460ff1661108d5760405160e560020a62461bcd028152600401610ad590614257565b8063ffffffff1661109d33611759565b1015806110b0575060008163ffffffff16115b6110cf5760405160e560020a62461bcd028152600401610ad590614120565b6000806110db83612a28565b915091506110e883612b3b565b60a85460405160e060020a63a9059cbb028152600091600160a060020a03169063a9059cbb9061111e9033908790600401613f1d565b602060405180830381600087803b15801561113857600080fd5b505af115801561114c573d6000803e3d6000fd5b505050506040513d601f19601f820116820180604052508101906111709190613d3f565b90506111996111946501d1a94a200061118e8564e8d4a51000612d51565b90612d5d565b612d69565b806111e95760405160e560020a62461bcd02815260206004820152601460248201527f73656c6c696e6720746f6b656e206661696c65640000000000000000000000006044820152606401610ad5565b50505050565b60a054806112025750600060a155611226565b6112216112188261118e8564e8d4a51000612d51565b60a1549061275a565b60a155505b50565b609f54600160a060020a03166112845760405160e560020a62461bcd02815260206004820152601160248201527f77616c6c657420697320696e76616c69640000000000000000000000000000006044820152606401610ad5565b609f54600160a060020a031633146112e15760405160e560020a62461bcd02815260206004820152601a60248201527f5468652061646472657373206973206e6f7420616c6c6f7765640000000000006044820152606401610ad5565b609e5481116112265760a85460405160e060020a63a9059cbb028152600091600160a060020a03169063a9059cbb906113209033908690600401613f1d565b602060405180830381600087803b15801561133a57600080fd5b505af115801561134e573d6000803e3d6000fd5b505050506040513d601f19601f820116820180604052508101906113729190613d3f565b90508015610cb757609e546113879083612830565b609e555050565b6113b260405180606001604052806000815260200160008152602001600081525090565b506040805160608101825260a054815260a154602082015260a2549181019190915290565b6114026040518060800160405280600081526020016000815260200160008152602001606081525090565b600160a060020a03821661142b5760405160e560020a62461bcd028152600401610ad590614157565b600160a060020a038216600090815260a7602090815260409182902082516080810184528154815260018201548184015260028201548185015260038201805485518186028101860190965280865291949293606086019392908301828280156114b457602002820191906000526020600020905b8154815260200190600101908083116114a0575b5050505050815250509050919050565b60985460ff166114e95760405160e560020a62461bcd028152600401610ad590614257565b60008163ffffffff16116115125760405160e560020a62461bcd028152600401610ad59061428e565b8063ffffffff1661152233611759565b10156115735760405160e560020a62461bcd02815260206004820152601c60248201527f496e73756666696369656e7420746f6b656e7320746f206275726e2e000000006044820152606401610ad5565b60008061157f8361276d565b91509150600061158e84610cbb565b90506115b161119482610d166512309ce5400061118e876509184e72a000612d51565b6115bb8383612830565b92506115c78484612d82565b506115d8338563ffffffff16612ed6565b609b546115f3908590604060020a900463ffffffff16614374565b609b80546bffffffff00000000000000001916604060020a63ffffffff93841602179055609a5461162691839061275a16565b609a5561163284612b3b565b60405163ffffffff8516815233907fe600c25f82e9bac8f9f1663725540d6cd442845726820fd5bee41b66c4bf59be9060200160405180910390a250505050565b600160a060020a0381166000908152606560209081526040808320805482518185028101850190935280835260609492939192909184015b8282101561174e576000848152602090206040805160608101909152600284029091018054829060ff1660038111156116f75760e060020a634e487b7102600052602160045260246000fd5b60038111156117195760e060020a634e487b7102600052602160045260246000fd5b81528154610100900463ffffffff166020808301919091526001928301546040909201919091529183529290920191016116ab565b505050509050919050565b600160a060020a031660009081526033602052604090205490565b3361177d611909565b600160a060020a0316146117a65760405160e560020a62461bcd028152600401610ad590614222565b606654604051600091600160a060020a0316906000805160206144db833981519152908390a360668054600160a060020a0319169055565b609b54600090604060020a900463ffffffff166117fa60355490565b609b546118159190640100000000900463ffffffff166143f5565b61181f91906143f5565b905090565b6000806118308361301f565b509392505050565b33611841611909565b600160a060020a03161461186a5760405160e560020a62461bcd028152600401610ad590614222565b60985460ff166118ce5760405160e560020a62461bcd02815260206004820152602360248201527f5468652070726f6475637420746f6b656e20697320616c726561647920706175604482015260ea60020a621cd959026064820152608401610ad5565b6098805460ff19169055604051600081527f65c5ccecef030677b73a1403e7e69ef84d05db9d1732959d543d32f4419909b890602001610b81565b606654600160a060020a031690565b606060378054610b9a9061441a565b6065602052816000526040600020818154811061194357600080fd5b60009182526020909120600290910201805460019091015460ff8216935061010090910463ffffffff16915083565b336000908152603460209081526040808320600160a060020a0386168452909152812054828110156119fa5760405160e560020a62461bcd02815260206004820152602560248201527f45524332303a2064656372656173656420616c6c6f77616e63652062656c6f77604482015260d860020a64207a65726f026064820152608401610ad5565b611a093385610e9a86856143de565b5060019392505050565b33611a1c611909565b600160a060020a031614611a455760405160e560020a62461bcd028152600401610ad590614222565b600160a060020a038116611a6e5760405160e560020a62461bcd028152600401610ad59061407b565b60a88054600160a060020a031916600160a060020a0392909216919091179055565b6000610c2a33848461283c565b611aa5611909565b600160a060020a031633600160a060020a03161480611ace5750609c54600160a060020a031633145b611aed5760405160e560020a62461bcd028152600401610ad5906141eb565b600160a060020a038216611b165760405160e560020a62461bcd028152600401610ad5906140b2565b6000611b228383613124565b905060008111611b775760405160e560020a62461bcd02815260206004820152600d60248201527f496e76616c69642076616c7565000000000000000000000000000000000000006044820152606401610ad5565b611b8183826132d5565b505050565b600160a060020a038116600090815260a7602052604081205415611bf257600160a060020a038216600090815260a760205260409020600181015460a154825460a092611be9929091611be39164e8d4a510009161118e91612d51565b90612830565b92505050610db7565b506000919050565b33611c03611909565b600160a060020a031614611c2c5760405160e560020a62461bcd028152600401610ad590614222565b600160a060020a038116611c555760405160e560020a62461bcd028152600401610ad590614157565b609c8054600160a060020a031916600160a060020a0392909216919091179055565b60985460ff16611c9c5760405160e560020a62461bcd028152600401610ad590614257565b60008111611cef5760405160e560020a62461bcd02815260206004820152601160248201527f696e76616c6964206d61782070726963650000000000000000000000000000006044820152606401610ad5565b60a85460405160e060020a6323b872dd02815233600482015230602482015260448101839052600091600160a060020a0316906323b872dd90606401602060405180830381600087803b158015611d4557600080fd5b505af1158015611d59573d6000803e3d6000fd5b505050506040513d601f19601f82011682018060405250810190611d7d9190613d3f565b905080611dcf5760405160e560020a62461bcd02815260206004820152601060248201527f5075726368617365206661696c65642e000000000000000000000000000000006044820152606401610ad5565b600080600080611dde866133af565b93509350935063ffffffff1693506000841115611fdc578215611e845760a85460405160e060020a63a9059cbb028152600160a060020a039091169063a9059cbb90611e309033908790600401613f1d565b602060405180830381600087803b158015611e4a57600080fd5b505af1158015611e5e573d6000803e3d6000fd5b505050506040513d601f19601f82011682018060405250810190611e829190613d3f565b505b611ea0611194650746a528800061118e8464e8d4a51000612d51565b6000611ebc650746a528800061118e84650574fbde6000612d51565b60a254909150611ecc908261275a565b60a255611ed8816111ef565b33600090815260a760205260408120600181015460a1548254929360a0939092611f12929091611be39164e8d4a510009161118e91612d51565b90508015611fba576002830181905560a85460405160e060020a63a9059cbb028152600160a060020a039091169063a9059cbb90611f569033908590600401613f1d565b602060405180830381600087803b158015611f7057600080fd5b505af1158015611f84573d6000803e3d6000fd5b505050506040513d601f19601f82011682018060405250810190611fa89190613d3f565b5060a254611fb69082612830565b60a2555b60a054611fc7908761275a565b60a055611fd386613514565b50505050612065565b60a85460405160e060020a63a9059cbb028152600160a060020a039091169063a9059cbb906120119033908a90600401613f1d565b602060405180830381600087803b15801561202b57600080fd5b505af115801561203f573d6000803e3d6000fd5b505050506040513d601f19601f820116820180604052508101906120639190613d3f565b505b505050505050565b600160a060020a03821660009081526065602052604081208054839081106120a85760e060020a634e487b7102600052603260045260246000fd5b600091825260209091206002909102015460ff169392505050565b336120cc611909565b600160a060020a0316146120f55760405160e560020a62461bcd028152600401610ad590614222565b600160a060020a03811661214e5760405160e560020a62461bcd02815260206004820152601260248201527f4164647265737320697320696e76616c696400000000000000000000000000006044820152606401610ad5565b609f8054600160a060020a031916600160a060020a0392909216919091179055565b600061181f6001612493565b33612185611909565b600160a060020a0316146121ae5760405160e560020a62461bcd028152600401610ad590614222565b600160a060020a0381166121d75760405160e560020a62461bcd028152600401610ad590614157565b60a85460405160e060020a6370a08231028152600160a060020a03909116906370a082319061220a903090600401613f09565b60206040518083038186803b15801561222257600080fd5b505afa158015612236573d6000803e3d6000fd5b505050506040513d601f19601f8201168201806040525081019061225a9190613e4b565b82111561227c5760405160e560020a62461bcd028152600401610ad590614120565b60a85460405160e060020a63a9059cbb028152600160a060020a039091169063a9059cbb906122b19084908690600401613f1d565b602060405180830381600087803b1580156122cb57600080fd5b505af11580156122df573d6000803e3d6000fd5b505050506040513d601f19601f82011682018060405250810190611b819190613d3f565b600054610100900460ff168061231c575060005460ff16155b61233b5760405160e560020a62461bcd028152600401610ad59061418e565b600054610100900460ff1615801561235d576000805461ffff19166101011790555b61236561356d565b61236f88886135eb565b61237c868686868661366d565b801561238e576000805461ff00191690555b5050505050505050565b336123a1611909565b600160a060020a0316146123ca5760405160e560020a62461bcd028152600401610ad590614222565b600160a060020a0381166124495760405160e560020a62461bcd02815260206004820152602660248201527f4f776e61626c653a206e6577206f776e657220697320746865207a65726f206160448201527f64647265737300000000000000000000000000000000000000000000000000006064820152608401610ad5565b606654604051600160a060020a038084169216906000805160206144db83398151915290600090a360668054600160a060020a031916600160a060020a0392909216919091179055565b60008060006124a184613800565b9092509050610dd9828261275a565b600160a060020a0383166125185760405160e560020a62461bcd028152602060048201526024808201527f45524332303a20617070726f76652066726f6d20746865207a65726f20616464604482015260e060020a6372657373026064820152608401610ad5565b600160a060020a03821661257f5760405160e560020a62461bcd02815260206004820152602260248201527f45524332303a20617070726f766520746f20746865207a65726f206164647265604482015260f060020a617373026064820152608401610ad5565b600160a060020a0383811660008181526034602090815260408083209487168084529482529182902085905590518481527f8c5be1e5ebec7d5bd14f71427d1e84f3dd0314c0f7b2291e5b200ac8c7c3b92591015b60405180910390a3505050565b600160a060020a0382166000908152606560205260409020805461263a9190839081106126215760e060020a634e487b7102600052603260045260246000fd5b600091825260209091206002909102015460ff1661100e565b1561265a5760405160e560020a62461bcd028152600401610ad5906140e9565b600160a060020a0382166000908152606560205260409020805460039190839081106126995760e060020a634e487b7102600052603260045260246000fd5b60009182526020909120600290910201805460ff191660018360038111156126d45760e060020a634e487b7102600052602160045260246000fd5b02179055506000805160206144bb83398151915282826065600086600160a060020a0316600160a060020a0316815260200190815260200160002084815481106127315760e060020a634e487b7102600052603260045260246000fd5b906000526020600020906002020160405161274e93929190613f5a565b60405180910390a15050565b6000612766828461435c565b9392505050565b609d5460009081908190600160a060020a0316631c94987361278d6138b7565b609954609b5460405163ffffffff85811660e060020a0282526127b894939216908a90600401614334565b60206040518083038186803b1580156127d057600080fd5b505afa1580156127e4573d6000803e3d6000fd5b505050506040513d601f19601f820116820180604052508101906128089190613e4b565b9050600061282464e8d4a5100061118e846404a817c800612d51565b91935090915050915091565b600061276682846143de565b600160a060020a0383166128a65760405160e560020a62461bcd02815260206004820152602560248201527f45524332303a207472616e736665722066726f6d20746865207a65726f206164604482015260d860020a646472657373026064820152608401610ad5565b600160a060020a03821661290e5760405160e560020a62461bcd02815260206004820152602360248201527f45524332303a207472616e7366657220746f20746865207a65726f2061646472604482015260e860020a62657373026064820152608401610ad5565b600160a060020a038316600090815260336020526040902054818110156129a05760405160e560020a62461bcd02815260206004820152602660248201527f45524332303a207472616e7366657220616d6f756e742065786365656473206260448201527f616c616e636500000000000000000000000000000000000000000000000000006064820152608401610ad5565b6129aa82826143de565b600160a060020a0380861660009081526033602052604080822093909355908516815290812080548492906129e090849061435c565b9250508190555082600160a060020a031684600160a060020a03166000805160206144fb83398151915284604051612a1a91815260200190565b60405180910390a350505050565b60008060008363ffffffff1611612a545760405160e560020a62461bcd028152600401610ad59061428e565b8263ffffffff16612a6433611759565b1015612ab55760405160e560020a62461bcd02815260206004820152601c60248201527f496e73756666696369656e7420746f6b656e7320746f2073656c6c2e000000006044820152606401610ad5565b600080612ac18561276d565b6099549193509150612ad39083612830565b609955612ae63363ffffffff8716612ed6565b6040805163ffffffff871681526020810184905233917f84c8d08e5480cf09cbf77bc575dc4e63845522693c34094f04129a4dedb7abd7910160405180910390a2612b318282612830565b9350915050915091565b33600090815260a76020526040902054156112265733600081815260a76020526040902060038101549091612b6f90611759565b11610cb757600381015463ffffffff831690811115612b8f575060038101545b6000805b82811015612c3b57600384018054612bec9190612bb1906001612830565b81548110612bd25760e060020a634e487b7102600052603260045260246000fd5b90600052602060002001548361275a90919063ffffffff16565b915083600301805480612c125760e060020a634e487b7102600052603160045260246000fd5b600190038181906000526020600020016000905590558080612c3390614459565b915050612b93565b50600183015460a154845460a092600092612c6492611be39164e8d4a510009161118e91612d51565b60a054909150612c749084612830565b60a0558015612d1d576002850181905560a85460405160e060020a63a9059cbb028152600160a060020a039091169063a9059cbb90612cb99033908590600401613f1d565b602060405180830381600087803b158015612cd357600080fd5b505af1158015612ce7573d6000803e3d6000fd5b505050506040513d601f19601f82011682018060405250810190612d0b9190613d3f565b5060a254612d199082612830565b60a2555b8454612d299084612830565b80865560a154612d449164e8d4a510009161118e9190612d51565b6001860155505050505050565b600061276682846143bf565b6000612766828461439c565b801561122657609e54612d7c908261275a565b609e5550565b6000808363ffffffff1611612ddc5760405160e560020a62461bcd02815260206004820152600e60248201527f496e76616c696420416d6f756e740000000000000000000000000000000000006044820152606401610ad5565b60408051606081018252600180825263ffffffff861660208084019190915282840186905233600090815260658252938420805480840182559085529320825160029094020180549293849391929091839160ff1990911690836003811115612e585760e060020a634e487b7102600052602160045260246000fd5b0217905550602082810151825463ffffffff9091166101000264ffffffff0019909116178255604092830151600192830155336000908152606590915291822054612ea391906143de565b90506000805160206144bb833981519152338284604051612ec693929190613f36565b60405180910390a1949350505050565b600160a060020a038216612f3c5760405160e560020a62461bcd02815260206004820152602160248201527f45524332303a206275726e2066726f6d20746865207a65726f20616464726573604482015260f860020a6073026064820152608401610ad5565b600160a060020a03821660009081526033602052604090205481811015612fb65760405160e560020a62461bcd02815260206004820152602260248201527f45524332303a206275726e20616d6f756e7420657863656564732062616c616e604482015260f060020a616365026064820152608401610ad5565b612fc082826143de565b600160a060020a03841660009081526033602052604081209190915560358054849290612fee9084906143de565b9091555050604051828152600090600160a060020a038516906000805160206144fb833981519152906020016125d4565b6000808061303b64fb7504300061118e8664e8d4a51000612d51565b9050600061305764e8d4a5100061118e84640df8475800612d51565b609d54909150600090600160a060020a0316639f4ae6b06130766138b7565b609954609b5463ffffffff90811690613093908990899061283016565b60405163ffffffff86811660e060020a0282529485166004820152602481019390935292166044820152606481019190915260840160206040518083038186803b1580156130e057600080fd5b505afa1580156130f4573d6000803e3d6000fd5b505050506040513d601f19601f820116820180604052508101906131189190613ea1565b94509092505050915091565b600160a060020a038216600090815260656020526040812080546131649190849081106126215760e060020a634e487b7102600052603260045260246000fd5b156131845760405160e560020a62461bcd028152600401610ad5906140e9565b600160a060020a0383166000908152606560205260409020805460029190849081106131c35760e060020a634e487b7102600052603260045260246000fd5b60009182526020909120600290910201805460ff191660018360038111156131fe5760e060020a634e487b7102600052602160045260246000fd5b02179055506000805160206144bb83398151915283836065600087600160a060020a0316600160a060020a03168152602001908152602001600020858154811061325b5760e060020a634e487b7102600052603260045260246000fd5b906000526020600020906002020160405161327893929190613f5a565b60405180910390a1600160a060020a03831660009081526065602052604090208054839081106132bb5760e060020a634e487b7102600052603260045260246000fd5b906000526020600020906002020160010154905092915050565b60a85460405160e060020a63a9059cbb028152600091600160a060020a03169063a9059cbb9061330b9086908690600401613f1d565b602060405180830381600087803b15801561332557600080fd5b505af1158015613339573d6000803e3d6000fd5b505050506040513d601f19601f8201168201806040525081019061335d9190613d3f565b905080611b815760405160e560020a62461bcd02815260206004820152601360248201527f726566756e6420746f6b656e206661696c6564000000000000000000000000006044820152606401610ad5565b60008060008060006133bf6117de565b63ffffffff16116134155760405160e560020a62461bcd02815260206004820152601e60248201527f536f7272792c207468697320746f6b656e20697320736f6c64206f75742e00006044820152606401610ad5565b600085116134685760405160e560020a62461bcd02815260206004820152601960248201527f4465706f736974206d757374206265206e6f6e2d7a65726f2e000000000000006044820152606401610ad5565b6000806134756001613800565b9150915086821115613496576000876000809550955095509550505061350d565b6134a13360016138e4565b6134b76134ae8383612830565b6099549061275a565b60995560408051600181526020810184905233917f5b55159a377d86da80a65140d62d994ddbb2cbd4bb2d1b59cb0827fecbe47cab910160405180910390a260016135028884612830565b909650945090925090505b9193509193565b33600090815260a760205260409020805461352f908361275a565b8155600381018054600181018255600091825260209091200182905560a15481546135649164e8d4a510009161118e91612d51565b60019091015550565b600054610100900460ff1680613586575060005460ff16155b6135a55760405160e560020a62461bcd028152600401610ad59061418e565b600054610100900460ff161580156135c7576000805461ffff19166101011790555b6135cf6139b4565b6135d7613a21565b8015611226576000805461ff001916905550565b600054610100900460ff1680613604575060005460ff16155b6136235760405160e560020a62461bcd028152600401610ad59061418e565b600054610100900460ff16158015613645576000805461ffff19166101011790555b61364d6139b4565b6136578383613ac0565b8015611b81576000805461ff0019169055505050565b600054610100900460ff1680613686575060005460ff16155b6136a55760405160e560020a62461bcd028152600401610ad59061418e565b600054610100900460ff161580156136c7576000805461ffff19166101011790555b60008463ffffffff16116137205760405160e560020a62461bcd02815260206004820152601860248201527f496e76616c6964206d617820746f6b656e20636f756e742e00000000000000006044820152606401610ad5565b60008563ffffffff16116137795760405160e560020a62461bcd02815260206004820152601560248201527f496e76616c6964207265736572766520726174696f00000000000000000000006044820152606401610ad5565b609d8054600160a060020a038816600160a060020a03199091161790556099829055609a829055609b805463ffffffff8681166401000000000267ffffffffffffffff19828816606060020a02166fffffffff00000000ffffffffffffffff1990931692909217908816171790558015612065576000805461ff0019169055505050505050565b609d5460009081908190600160a060020a031663bff82d846138206138b7565b609954609b5460405163ffffffff85811660e060020a02825261384b94939216908a90600401614334565b60206040518083038186803b15801561386357600080fd5b505afa158015613877573d6000803e3d6000fd5b505050506040513d601f19601f8201168201806040525081019061389b9190613e4b565b9050600061282464e8d4a5100061118e846412a05f2000612d51565b609b5460009061181f9063ffffffff606060020a8204811691610d1691604060020a909104168160355490565b600160a060020a03821661393d5760405160e560020a62461bcd02815260206004820152601f60248201527f45524332303a206d696e7420746f20746865207a65726f2061646472657373006044820152606401610ad5565b806035600082825461394f919061435c565b9091555050600160a060020a0382166000908152603360205260408120805483929061397c90849061435c565b9091555050604051818152600160a060020a038316906000906000805160206144fb8339815191529060200160405180910390a35050565b600054610100900460ff16806139cd575060005460ff16155b6139ec5760405160e560020a62461bcd028152600401610ad59061418e565b600054610100900460ff161580156135d7576000805461ffff19166101011790558015611226576000805461ff001916905550565b600054610100900460ff1680613a3a575060005460ff16155b613a595760405160e560020a62461bcd028152600401610ad59061418e565b600054610100900460ff16158015613a7b576000805461ffff19166101011790555b60668054600160a060020a0319163390811790915560405181906000906000805160206144db833981519152908290a3508015611226576000805461ff001916905550565b600054610100900460ff1680613ad9575060005460ff16155b613af85760405160e560020a62461bcd028152600401610ad59061418e565b600054610100900460ff16158015613b1a576000805461ffff19166101011790555b8251613b2d906036906020860190613b58565b508151613b41906037906020850190613b58565b508015611b81576000805461ff0019169055505050565b828054613b649061441a565b90600052602060002090601f016020900481019282613b865760008555613bcc565b82601f10613b9f57805160ff1916838001178555613bcc565b82800160010185558215613bcc579182015b82811115613bcc578251825591602001919060010190613bb1565b50613bd8929150613bdc565b5090565b5b80821115613bd85760008155600101613bdd565b8035600160a060020a0381168114610db757600080fd5b600082601f830112613c18578081fd5b813567ffffffffffffffff80821115613c3357613c3361448e565b604051601f8301601f19908116603f01168101908282118183101715613c5b57613c5b61448e565b81604052838152866020858801011115613c73578485fd5b8360208701602083013792830160200193909352509392505050565b600060208284031215613ca0578081fd5b61276682613bf1565b60008060408385031215613cbb578081fd5b613cc483613bf1565b9150613cd260208401613bf1565b90509250929050565b600080600060608486031215613cef578081fd5b613cf884613bf1565b9250613d0660208501613bf1565b9150604084013590509250925092565b60008060408385031215613d28578182fd5b613d3183613bf1565b946020939093013593505050565b600060208284031215613d50578081fd5b81518015158114612766578182fd5b600060208284031215613d70578081fd5b813560048110612766578182fd5b600080600080600080600060e0888a031215613d98578283fd5b873567ffffffffffffffff80821115613daf578485fd5b613dbb8b838c01613c08565b985060208a0135915080821115613dd0578485fd5b50613ddd8a828b01613c08565b965050613dec60408901613bf1565b94506060880135613dfc816144a8565b93506080880135613e0c816144a8565b925060a0880135613e1c816144a8565b8092505060c0880135905092959891949750929550565b600060208284031215613e44578081fd5b5035919050565b600060208284031215613e5c578081fd5b5051919050565b60008060408385031215613e75578182fd5b82359150613cd260208401613bf1565b600060208284031215613e96578081fd5b8135612766816144a8565b600060208284031215613eb2578081fd5b8151612766816144a8565b60048110613edf5760e060020a634e487b710260009081526021600452602490fd5b9052565b613eee828251613ebd565b60208181015163ffffffff1690830152604090810151910152565b600160a060020a0391909116815260200190565b600160a060020a03929092168252602082015260400190565b600160a060020a03841681526020810183905260a08101610dd96040830184613ee3565b600160a060020a038416815260208101839052815460a0820190613f846040840160ff8316613ebd565b63ffffffff61010082041660608401525060018301546080830152949350505050565b6020808252825182820181905260009190848201906040850190845b81811015613fe957613fd6838551613ee3565b9284019260609290920191600101613fc3565b50909695505050505050565b60208101610c2e8284613ebd565b606081016140118286613ebd565b63ffffffff93909316602082015260400152919050565b6000602080835283518082850152825b8181101561405457858101830151858201604001528201614038565b818111156140655783604083870101525b50601f01601f1916929092016040019392505050565b6020808252600f908201527f496e76616c696420616464726573730000000000000000000000000000000000604082015260600190565b6020808252600d908201527f496e76616c696420627579657200000000000000000000000000000000000000604082015260600190565b60208082526011908201527f616c726561647920636f6d706c65746564000000000000000000000000000000604082015260600190565b6020808252600e908201527f696e76616c696420616d6f756e74000000000000000000000000000000000000604082015260600190565b6020808252600f908201527f696e76616c696420616464726573730000000000000000000000000000000000604082015260600190565b6020808252602e908201527f496e697469616c697a61626c653a20636f6e747261637420697320616c72656160408201527f647920696e697469616c697a6564000000000000000000000000000000000000606082015260800190565b60208082526011908201527f7065726d697373696f6e2064656e696564000000000000000000000000000000604082015260600190565b6020808252818101527f4f776e61626c653a2063616c6c6572206973206e6f7420746865206f776e6572604082015260600190565b60208082526013908201527f756e61626c6520746f207472616465206e6f7700000000000000000000000000604082015260600190565b60208082526018908201527f416d6f756e74206d757374206265206e6f6e2d7a65726f2e0000000000000000604082015260600190565b6000602080835260a0830184518285015281850151604085015260408501516060850152606085015160808086015281815180845260c08701915084830193508592505b808310156143295783518252928401926001929092019190840190614309565b509695505050505050565b63ffffffff948516815260208101939093529083166040830152909116606082015260800190565b6000821982111561436f5761436f614474565b500190565b600063ffffffff80831681851680830382111561439357614393614474565b01949350505050565b6000826143ba5760e060020a634e487b710281526012600452602481fd5b500490565b60008160001904831182151516156143d9576143d9614474565b500290565b6000828210156143f0576143f0614474565b500390565b600063ffffffff8381169083168181101561441257614412614474565b039392505050565b60028104600182168061442e57607f821691505b602082108114156144535760e060020a634e487b710260009081526022600452602490fd5b50919050565b600060001982141561446d5761446d614474565b5060010190565b60e060020a634e487b710260009081526011600452602490fd5b60e060020a634e487b710260009081526041600452602490fd5b63ffffffff8116811461122657600080fdfe09c64bee251b684a6bb80ce179dd520c001481b7c3d7781f1502e3052af474cf8be0079c531659141344cd1fd0a4f28419497f9722a3daafe3b4186f6b6457e0ddf252ad1be2c89b69c2b068fc378daa952ba7f163c4a11628f55a4df523b3efa264697066735822122073bdc9065ddc3eb33d7c6ec5f8b698d62d7c1dde98a69a0dca4c75e34f1fdad464736f6c63430008030033",
  "immutableReferences": {},
  "source": "// SPDX-License-Identifier: MIT\n\npragma solidity ^0.8.3;\n\nimport \"@openzeppelin/contracts/token/ERC20/IERC20.sol\";\nimport \"@openzeppelin/contracts-upgradeable/utils/math/SafeMathUpgradeable.sol\";\nimport \"./ProductToken.sol\";\nimport \"./interface/IVNFT.sol\";\n\n/// @title ProductTokenV1\n/// @notice This is version 1 of the product token implementation.\n/// @dev This contract builds on top of version 0 by including transaction logics, such as buy and sell transfers\n///    and exchange rate computation by including a price oracle.\ncontract ProductTokenV1 is ProductToken {\n\tusing SafeMathUpgradeable for uint256;\n\n    struct supplierInfo {\n        uint256 amount;\n        address wallet;\n    }\n    struct UserInfo {\n        uint256 amount;\n        uint256 rewardDebt;\n        uint256 lastReward;\n        uint256[] records;\n    }\n    struct PoolInfo {\n        uint256 amount; // record the entire pool vaule\n        uint256 accRewardPerShare; // Accumulated reward per share\n        uint256 tokenReward; //total reward\n    }\n    struct voucherInfo {\n        address addr;\n        IVNFT instance;\n        uint256 tokenId;\n        bool isEnable;\n    }\n\n    supplierInfo public supplier;\n    PoolInfo public poolInfo;\n    voucherInfo public voucher;\n    mapping (address => UserInfo) public userInfo;\n    IERC20 high;\n\n    function setHigh(address highAddress_) external onlyOwner {\n        require(highAddress_!=address(0), \"Invalid address\");\n        high = IERC20(highAddress_);\n    }\n\n    function buy(uint256 maxPrice_) external virtual onlyIfTradable {\n        require(maxPrice_ > 0, \"invalid max price\");\n\n        bool success = high.transferFrom(msg.sender, address(this), maxPrice_);\n        require(success, \"Purchase failed.\");\n\n        (uint256 amount,uint256 change, uint price, uint256 fee)  = _buy(maxPrice_);\n        if (amount > 0) {\n            if(change > 0) {\n                high.transfer(msg.sender, change);\n            }\n            _updateSupplierFee(fee.mul(1e12).div(8e12));\n            uint256 reward = fee.mul(6e12).div(8e12);\n            poolInfo.tokenReward = poolInfo.tokenReward.add(reward);\n            updatePool(reward);\n            UserInfo storage user = userInfo[msg.sender];\n            PoolInfo storage pool = poolInfo;\n            uint256 pending = user.amount.mul(pool.accRewardPerShare).div(1e12).sub(user.rewardDebt);\n            if(pending > 0) {\n                user.lastReward= pending;\n                high.transfer(msg.sender, pending);\n                poolInfo.tokenReward = poolInfo.tokenReward.sub(pending);\n            }\n            poolInfo.amount = poolInfo.amount.add(price);\n            _updateUserInfo(price);\n        }else { // If token transaction failed\n            high.transfer(msg.sender, maxPrice_);\n        }\n    }\n\n    function sell(uint32 amount_) external virtual onlyIfTradable {\n        require(balanceOf(msg.sender) >= amount_ || amount_ > 0, 'invalid amount');\n\n        (uint256 price, uint256 fee )= _sellForAmount(amount_);\n\n        _updateSellStaking(amount_);\n\n        bool success = high.transfer(msg.sender, price);\n        _updateSupplierFee(fee.mul(1e12).div(2e12));\n        require(success, \"selling token failed\");\n    }\n\n    /**\n    * @dev When user wants to trade in their token for retail product\n    *\n    * @param amount_                   amount of tokens that user wants to trade in.\n    */\n    function tradein(uint32 amount_) external virtual onlyIfTradable {\n        require(amount_ > 0, \"Amount must be non-zero.\");\n        require(balanceOf(msg.sender) >= amount_, \"Insufficient tokens to burn.\");\n\n        (uint256 reimburseAmount, uint fee) = _sellReturn(amount_);\n\n        uint256 tradinReturn = calculateTradinReturn(amount_);\n        _updateSupplierFee(fee.mul(1e13).div(2e13).add(tradinReturn));\n        reimburseAmount = reimburseAmount.sub(fee);\n        _addEscrow(amount_,  reimburseAmount);\n        _burn(msg.sender, amount_);\n        tradeinCount = tradeinCount + amount_;\n        tradeinReserveBalance = tradeinReserveBalance.add(tradinReturn);\n\n        _updateSellStaking(amount_);\n\n        emit Tradein(msg.sender, amount_);\n    }\n\n    function updatePool(uint fee_) public virtual{\n        uint256 supply = poolInfo.amount;\n        if (supply == 0) {\n            poolInfo.accRewardPerShare = 0;\n            return;\n        }\n        poolInfo.accRewardPerShare = poolInfo.accRewardPerShare.add(fee_.mul(1e12).div(supply));\n    }\n\n    function _updateSellStaking(uint32 amount_) internal virtual {\n        if(userInfo[msg.sender].amount > 0) {\n            UserInfo storage user = userInfo[msg.sender];\n            if(balanceOf(msg.sender) <= user.records.length) {\n                uint max = uint256(amount_);\n                if(max > user.records.length) {\n                    max = user.records.length;\n                }\n                uint256 value = 0;\n                for(uint i = 0; i < max; i++) {\n                    value = value.add(user.records[user.records.length.sub(1)]);\n                    user.records.pop();\n                }\n                PoolInfo storage pool = poolInfo;\n                uint256 pending = user.amount.mul(pool.accRewardPerShare).div(1e12).sub(user.rewardDebt);\n\n                poolInfo.amount = poolInfo.amount.sub(value);\n                if(pending > 0) {\n                    user.lastReward= pending;\n                    high.transfer(msg.sender, pending);\n                    poolInfo.tokenReward = poolInfo.tokenReward.sub(pending);\n                }\n                user.amount = user.amount.sub(value);\n                user.rewardDebt = user.amount.mul(poolInfo.accRewardPerShare).div(1e12);\n            }\n        }\n    }\n\n    function _updateUserInfo(uint256 price_ ) internal virtual {\n        UserInfo storage user = userInfo[msg.sender];\n        user.amount = user.amount.add(price_);\n        user.records.push(price_);\n        user.rewardDebt = user.amount.mul(poolInfo.accRewardPerShare).div(1e12);\n    }\n\n    function updateSupplierInfo( address wallet_) external onlyOwner {\n        require(wallet_!=address(0), \"Address is invalid\");\n        supplier.wallet = wallet_;\n    }\n\n    function claimSupplier(uint256 amount_) external virtual {\n        require(supplier.wallet!=address(0), \"wallet is invalid\");\n        require(msg.sender == supplier.wallet, \"The address is not allowed\");\n        if (amount_ <= supplier.amount){\n            bool success = high.transfer(msg.sender, amount_);\n            if (success) {\n                supplier.amount = supplier.amount.sub(amount_);\n            }\n        }\n    }\n\n    function _updateSupplierFee(uint256 fee) internal virtual {\n        if( fee > 0 ) {\n            supplier.amount = supplier.amount.add(fee);\n        }\n    }\n\n    /**\n    * @dev this function returns the amount of reserve balance that the supplier can withdraw from the dapp.\n    */\n    function getSupplierBalance() public view virtual returns (uint256) {\n        return supplier.amount;\n    }\n\n    /**\n    * @dev A method that refunds the value of a product to a buyer/customer.\n    *\n    * @param buyer_       The wallet address of the owner whose product token is under the redemption process\n    * @param value_       The market value of the token being redeemed\n    *\n    */\n    function _refund(address buyer_, uint256 value_) internal virtual override {\n        bool success = high.transfer(buyer_, value_);\n        require(success, \"refund token failed\");\n    }\n\n    /**\n    * @dev A method allow us to withdraw liquidity (eth) from the contract\n    * Since eth is not used as a return currency, we need to withdraw eth from the system.\n    *\n    * @param value_       the value of ether\n    *\n    */\n    function withdrawEther(uint256 value_) payable external virtual onlyOwner {\n        require(address(this).balance > 0, \"no enough ether\");\n        payable(msg.sender).transfer(value_);\n    }\n\n    function withdrawHigh(uint256 amount_, address to_) external virtual onlyOwner{\n        require(to_ != address(0), \"invalid address\");\n        require(amount_ <= high.balanceOf(address(this)), 'invalid amount');\n        high.transfer(to_, amount_);\n    }\n\n    function getUserReward(address addr_) external view virtual returns (uint256) {\n        if(userInfo[addr_].amount > 0) {\n            UserInfo storage user = userInfo[addr_];\n            PoolInfo storage pool = poolInfo;\n            return user.amount.mul(pool.accRewardPerShare).div(1e12).sub(user.rewardDebt);\n        }\n        return 0;\n    }\n\n    function getUserInfo(address addr_) external view virtual returns( UserInfo memory) {\n        require(addr_ != address(0), 'invalid address');\n        return userInfo[addr_];\n    }\n\n    function getPoolInfo() external view virtual returns( PoolInfo memory) {\n        return poolInfo;\n    }\n\n    function getSupplierInfo() external view virtual returns( supplierInfo memory) {\n        return supplier;\n    }\n}\n",
  "sourcePath": "/Users/jack/Documents/GitHub/HighStreet/client/src/contracts/ProductTokenV1.sol",
  "compiler": {
    "name": "solc",
    "version": "0.8.3+commit.8d00100c.Emscripten.clang"
  },
  "schemaVersion": "3.4.0",
  "updatedAt": "2021-09-26T08:29:11.880Z",
  "devdoc": {
    "details": "This contract builds on top of version 0 by including transaction logics, such as buy and sell transfers    and exchange rate computation by including a price oracle.",
    "kind": "dev",
    "methods": {
      "allowance(address,address)": {
        "details": "See {IERC20-allowance}."
      },
      "approve(address,uint256)": {
        "details": "See {IERC20-approve}. Requirements: - `spender` cannot be the zero address."
      },
      "balanceOf(address)": {
        "details": "See {IERC20-balanceOf}."
      },
      "calculateBuyReturn(uint256)": {
        "details": "Function that computes number of product tokens one can buy given an amount in reserve token.",
        "params": {
          "_amountReserve": "purchaing amount in reserve token (dai)(with 4% platform fee)"
        },
        "returns": {
          "mintAmount": "             number of tokens in traded token that can be purchased by given amount."
        }
      },
      "calculateSellReturn(uint32)": {
        "details": "Function that computes selling price in reserve tokens given an amount in traded token.",
        "params": {
          "_amountProduct": "selling amount in product token"
        },
        "returns": {
          "soldAmount": "             total amount that will be transferred to the seller (with 2% platform fee)."
        }
      },
      "decimals()": {
        "details": "Returns the number of decimals used to get its user representation. For example, if `decimals` equals `2`, a balance of `505` tokens should be displayed to a user as `5,05` (`505 / 10 ** 2`). Tokens usually opt for a value of 18, imitating the relationship between Ether and Wei. This is the value {ERC20} uses, unless this function is overloaded; NOTE: This information is only used for _display_ purposes: it in no way affects any of the arithmetic of the contract, including {IERC20-balanceOf} and {IERC20-transfer}."
      },
      "decreaseAllowance(address,uint256)": {
        "details": "Atomically decreases the allowance granted to `spender` by the caller. This is an alternative to {approve} that can be used as a mitigation for problems described in {IERC20-approve}. Emits an {Approval} event indicating the updated allowance. Requirements: - `spender` cannot be the zero address. - `spender` must have allowance for the caller of at least `subtractedValue`."
      },
      "getAvailability()": {
        "details": "Function to check how many tokens of this product are currently available for purchase, by taking the difference between max cap count and current token in circulation or burned.",
        "returns": {
          "available": "               the number of tokens available"
        }
      },
      "getCurrentPrice()": {
        "details": "Function that computes current price for a token through bonding curve calculation based on parameters such as total supply, reserve balance, and reserve ratio.",
        "returns": {
          "price": "                  current price in reserve token (in our case, this is dai). (with 4% platform fee)"
        }
      },
      "getEscrowHistory(address)": {
        "details": "Return the list of all escrows created for a certain user",
        "params": {
          "_buyer": "The address of the buyer"
        },
        "returns": {
          "_0": "A list of past escrows"
        }
      },
      "getPriceForN(uint32)": {
        "details": "Function that computes price total for buying n token through bonding curve calculation based on parameters such as total supply, reserve balance, and reserve ratio.",
        "params": {
          "_amountProduct": "token amount in traded token"
        },
        "returns": {
          "price": "                  total price in reserve token (in our case, this is dai). (with 4% platform fee)"
        }
      },
      "getRedeemStatus(address,uint256)": {
        "details": "Get status of a particular redemption process",
        "params": {
          "_buyer": "The address of the buyer",
          "_id": "The cached id of the escrow, retrieved from database"
        },
        "returns": {
          "_0": "The current status"
        }
      },
      "getSupplierBalance()": {
        "details": "this function returns the amount of reserve balance that the supplier can withdraw from the dapp."
      },
      "increaseAllowance(address,uint256)": {
        "details": "Atomically increases the allowance granted to `spender` by the caller. This is an alternative to {approve} that can be used as a mitigation for problems described in {IERC20-approve}. Emits an {Approval} event indicating the updated allowance. Requirements: - `spender` cannot be the zero address."
      },
      "initialize(string,string,address,uint32,uint32,uint32,uint256)": {
        "details": "initializer function.",
        "params": {
          "_baseReserve": "the base amount of reserve tokens, in accordance to _supplyOffset.",
          "_maxTokenCount": "the amount of token that will exist for this type.",
          "_name": "the name of this token",
          "_reserveRatio": "the reserve ratio in the curve function. Number in parts per million",
          "_supplyOffset": "this amount is used to determine initial price.",
          "_symbol": "the symbol of this token"
        }
      },
      "isStateCompleted(uint8)": {
        "details": "Helper function to check whether a escrow state is completed",
        "params": {
          "_state": "The state to be checked"
        }
      },
      "launch()": {
        "details": "requires function to be called from owner. this enables customers to buy, sell, or redeem the product."
      },
      "name()": {
        "details": "Returns the name of the token."
      },
      "owner()": {
        "details": "Returns the address of the current owner."
      },
      "pause()": {
        "details": "requires function to be called from owner. this prevents customers from buying, selling, or redeeming the product."
      },
      "renounceOwnership()": {
        "details": "Leaves the contract without owner. It will not be possible to call `onlyOwner` functions anymore. Can only be called by the current owner. NOTE: Renouncing ownership will leave the contract without an owner, thereby removing any functionality that is only available to the owner."
      },
      "setBondingCurve(address)": {
        "details": "requires function to be called from owner. sets a bonding curve implementation for this product.",
        "params": {
          "_address": "the address of the bonding curve implementation"
        }
      },
      "symbol()": {
        "details": "Returns the symbol of the token, usually a shorter version of the name."
      },
      "totalSupply()": {
        "details": "See {IERC20-totalSupply}."
      },
      "tradein(uint32)": {
        "details": "When user wants to trade in their token for retail product",
        "params": {
          "amount_": "amount of tokens that user wants to trade in."
        }
      },
      "transfer(address,uint256)": {
        "details": "See {IERC20-transfer}. Requirements: - `recipient` cannot be the zero address. - the caller must have a balance of at least `amount`."
      },
      "transferFrom(address,address,uint256)": {
        "details": "See {IERC20-transferFrom}. Emits an {Approval} event indicating the updated allowance. This is not required by the EIP. See the note at the beginning of {ERC20}. Requirements: - `sender` and `recipient` cannot be the zero address. - `sender` must have a balance of at least `amount`. - the caller must have allowance for ``sender``'s tokens of at least `amount`."
      },
      "transferOwnership(address)": {
        "details": "Transfers ownership of the contract to a new account (`newOwner`). Can only be called by the current owner."
      },
      "updateUserCompleted(address,uint256)": {
        "details": "used to update the status of redemption to \"User Complete\" after an escrow process has been started.",
        "params": {
          "buyer": "the wallet address of product buyer",
          "id": "the id of the escrow, returned to the user after starting of redemption process"
        }
      },
      "updateUserRefund(address,uint256)": {
        "details": "used to update the status of redemption to \"User Refunded\" after an escrow process has been started.",
        "params": {
          "buyer": "the wallet address of product buyer",
          "id": "the id of the escrow, returned to the user after starting of redemption process"
        }
      },
      "withdrawEther(uint256)": {
        "details": "A method allow us to withdraw liquidity (eth) from the contract Since eth is not used as a return currency, we need to withdraw eth from the system.",
        "params": {
          "value_": "the value of ether"
        }
      }
    },
    "title": "ProductTokenV1",
    "version": 1
  },
  "userdoc": {
    "kind": "user",
    "methods": {},
    "notice": "This is version 1 of the product token implementation.",
    "version": 1
  }
}