{
  "contractName": "ProductTokenV5",
  "abi": [
    {
      "anonymous": false,
      "inputs": [
        {
          "indexed": true,
          "internalType": "address",
          "name": "owner",
          "type": "address"
        },
        {
          "indexed": true,
          "internalType": "address",
          "name": "spender",
          "type": "address"
        },
        {
          "indexed": false,
          "internalType": "uint256",
          "name": "value",
          "type": "uint256"
        }
      ],
      "name": "Approval",
      "type": "event"
    },
    {
      "anonymous": false,
      "inputs": [
        {
          "indexed": true,
          "internalType": "address",
          "name": "sender",
          "type": "address"
        },
        {
          "indexed": false,
          "internalType": "uint32",
          "name": "amount",
          "type": "uint32"
        },
        {
          "indexed": false,
          "internalType": "uint256",
          "name": "deposit",
          "type": "uint256"
        }
      ],
      "name": "Buy",
      "type": "event"
    },
    {
      "anonymous": false,
      "inputs": [
        {
          "indexed": true,
          "internalType": "address",
          "name": "previousOwner",
          "type": "address"
        },
        {
          "indexed": true,
          "internalType": "address",
          "name": "newOwner",
          "type": "address"
        }
      ],
      "name": "OwnershipTransferred",
      "type": "event"
    },
    {
      "anonymous": false,
      "inputs": [
        {
          "indexed": true,
          "internalType": "address",
          "name": "sender",
          "type": "address"
        },
        {
          "indexed": false,
          "internalType": "uint32",
          "name": "amount",
          "type": "uint32"
        },
        {
          "indexed": false,
          "internalType": "uint256",
          "name": "refund",
          "type": "uint256"
        }
      ],
      "name": "Sell",
      "type": "event"
    },
    {
      "anonymous": false,
      "inputs": [
        {
          "indexed": false,
          "internalType": "bool",
          "name": "isTradable",
          "type": "bool"
        }
      ],
      "name": "Tradable",
      "type": "event"
    },
    {
      "anonymous": false,
      "inputs": [
        {
          "indexed": true,
          "internalType": "address",
          "name": "sender",
          "type": "address"
        },
        {
          "indexed": false,
          "internalType": "uint32",
          "name": "amount",
          "type": "uint32"
        }
      ],
      "name": "Tradein",
      "type": "event"
    },
    {
      "anonymous": false,
      "inputs": [
        {
          "indexed": true,
          "internalType": "address",
          "name": "from",
          "type": "address"
        },
        {
          "indexed": true,
          "internalType": "address",
          "name": "to",
          "type": "address"
        },
        {
          "indexed": false,
          "internalType": "uint256",
          "name": "value",
          "type": "uint256"
        }
      ],
      "name": "Transfer",
      "type": "event"
    },
    {
      "anonymous": false,
      "inputs": [
        {
          "indexed": false,
          "internalType": "address",
          "name": "",
          "type": "address"
        },
        {
          "indexed": false,
          "internalType": "uint256",
          "name": "",
          "type": "uint256"
        },
        {
          "components": [
            {
              "internalType": "enum Escrow.escrowState",
              "name": "state",
              "type": "uint8"
            },
            {
              "internalType": "uint32",
              "name": "amount",
              "type": "uint32"
            },
            {
              "internalType": "uint256",
              "name": "value",
              "type": "uint256"
            }
          ],
          "indexed": false,
          "internalType": "struct Escrow.escrowInfo",
          "name": "",
          "type": "tuple"
        }
      ],
      "name": "escrowStateUpdated",
      "type": "event"
    },
    {
      "stateMutability": "nonpayable",
      "type": "fallback"
    },
    {
      "inputs": [
        {
          "internalType": "address",
          "name": "owner",
          "type": "address"
        },
        {
          "internalType": "address",
          "name": "spender",
          "type": "address"
        }
      ],
      "name": "allowance",
      "outputs": [
        {
          "internalType": "uint256",
          "name": "",
          "type": "uint256"
        }
      ],
      "stateMutability": "view",
      "type": "function"
    },
    {
      "inputs": [
        {
          "internalType": "address",
          "name": "spender",
          "type": "address"
        },
        {
          "internalType": "uint256",
          "name": "amount",
          "type": "uint256"
        }
      ],
      "name": "approve",
      "outputs": [
        {
          "internalType": "bool",
          "name": "",
          "type": "bool"
        }
      ],
      "stateMutability": "nonpayable",
      "type": "function"
    },
    {
      "inputs": [
        {
          "internalType": "address",
          "name": "account",
          "type": "address"
        }
      ],
      "name": "balanceOf",
      "outputs": [
        {
          "internalType": "uint256",
          "name": "",
          "type": "uint256"
        }
      ],
      "stateMutability": "view",
      "type": "function"
    },
    {
      "inputs": [
        {
          "internalType": "uint256",
          "name": "maxPrice_",
          "type": "uint256"
        }
      ],
      "name": "buy",
      "outputs": [],
      "stateMutability": "nonpayable",
      "type": "function"
    },
    {
      "inputs": [
        {
          "internalType": "uint256",
          "name": "_amountReserve",
          "type": "uint256"
        }
      ],
      "name": "calculateBuyReturn",
      "outputs": [
        {
          "internalType": "uint32",
          "name": "mintAmount",
          "type": "uint32"
        }
      ],
      "stateMutability": "view",
      "type": "function"
    },
    {
      "inputs": [
        {
          "internalType": "uint32",
          "name": "_amountProduct",
          "type": "uint32"
        }
      ],
      "name": "calculateSellReturn",
      "outputs": [
        {
          "internalType": "uint256",
          "name": "soldAmount",
          "type": "uint256"
        }
      ],
      "stateMutability": "view",
      "type": "function"
    },
    {
      "inputs": [
        {
          "internalType": "uint32",
          "name": "_amount",
          "type": "uint32"
        }
      ],
      "name": "calculateTradinReturn",
      "outputs": [
        {
          "internalType": "uint256",
          "name": "",
          "type": "uint256"
        }
      ],
      "stateMutability": "view",
      "type": "function"
    },
    {
      "inputs": [
        {
          "internalType": "uint256",
          "name": "amount_",
          "type": "uint256"
        }
      ],
      "name": "claimSupplier",
      "outputs": [],
      "stateMutability": "nonpayable",
      "type": "function"
    },
    {
      "inputs": [],
      "name": "decimals",
      "outputs": [
        {
          "internalType": "uint8",
          "name": "",
          "type": "uint8"
        }
      ],
      "stateMutability": "view",
      "type": "function"
    },
    {
      "inputs": [
        {
          "internalType": "address",
          "name": "spender",
          "type": "address"
        },
        {
          "internalType": "uint256",
          "name": "subtractedValue",
          "type": "uint256"
        }
      ],
      "name": "decreaseAllowance",
      "outputs": [
        {
          "internalType": "bool",
          "name": "",
          "type": "bool"
        }
      ],
      "stateMutability": "nonpayable",
      "type": "function"
    },
    {
      "inputs": [
        {
          "internalType": "address",
          "name": "",
          "type": "address"
        },
        {
          "internalType": "uint256",
          "name": "",
          "type": "uint256"
        }
      ],
      "name": "escrowList",
      "outputs": [
        {
          "internalType": "enum Escrow.escrowState",
          "name": "state",
          "type": "uint8"
        },
        {
          "internalType": "uint32",
          "name": "amount",
          "type": "uint32"
        },
        {
          "internalType": "uint256",
          "name": "value",
          "type": "uint256"
        }
      ],
      "stateMutability": "view",
      "type": "function"
    },
    {
      "inputs": [],
      "name": "getAvailability",
      "outputs": [
        {
          "internalType": "uint32",
          "name": "available",
          "type": "uint32"
        }
      ],
      "stateMutability": "view",
      "type": "function"
    },
    {
      "inputs": [],
      "name": "getCurrentPrice",
      "outputs": [
        {
          "internalType": "uint256",
          "name": "price",
          "type": "uint256"
        }
      ],
      "stateMutability": "view",
      "type": "function"
    },
    {
      "inputs": [
        {
          "internalType": "address",
          "name": "_buyer",
          "type": "address"
        }
      ],
      "name": "getEscrowHistory",
      "outputs": [
        {
          "components": [
            {
              "internalType": "enum Escrow.escrowState",
              "name": "state",
              "type": "uint8"
            },
            {
              "internalType": "uint32",
              "name": "amount",
              "type": "uint32"
            },
            {
              "internalType": "uint256",
              "name": "value",
              "type": "uint256"
            }
          ],
          "internalType": "struct Escrow.escrowInfo[]",
          "name": "",
          "type": "tuple[]"
        }
      ],
      "stateMutability": "view",
      "type": "function"
    },
    {
      "inputs": [],
      "name": "getManager",
      "outputs": [
        {
          "internalType": "address",
          "name": "",
          "type": "address"
        }
      ],
      "stateMutability": "view",
      "type": "function"
    },
    {
      "inputs": [],
      "name": "getNewAttribute",
      "outputs": [
        {
          "internalType": "uint256",
          "name": "",
          "type": "uint256"
        }
      ],
      "stateMutability": "view",
      "type": "function"
    },
    {
      "inputs": [
        {
          "internalType": "uint32",
          "name": "_amountProduct",
          "type": "uint32"
        }
      ],
      "name": "getPriceForN",
      "outputs": [
        {
          "internalType": "uint256",
          "name": "price",
          "type": "uint256"
        }
      ],
      "stateMutability": "view",
      "type": "function"
    },
    {
      "inputs": [
        {
          "internalType": "address",
          "name": "_buyer",
          "type": "address"
        },
        {
          "internalType": "uint256",
          "name": "_id",
          "type": "uint256"
        }
      ],
      "name": "getRedeemStatus",
      "outputs": [
        {
          "internalType": "enum Escrow.escrowState",
          "name": "",
          "type": "uint8"
        }
      ],
      "stateMutability": "view",
      "type": "function"
    },
    {
      "inputs": [],
      "name": "getSupplierBalance",
      "outputs": [
        {
          "internalType": "uint256",
          "name": "",
          "type": "uint256"
        }
      ],
      "stateMutability": "view",
      "type": "function"
    },
    {
      "inputs": [
        {
          "internalType": "address",
          "name": "spender",
          "type": "address"
        },
        {
          "internalType": "uint256",
          "name": "addedValue",
          "type": "uint256"
        }
      ],
      "name": "increaseAllowance",
      "outputs": [
        {
          "internalType": "bool",
          "name": "",
          "type": "bool"
        }
      ],
      "stateMutability": "nonpayable",
      "type": "function"
    },
    {
      "inputs": [
        {
          "internalType": "string",
          "name": "_name",
          "type": "string"
        },
        {
          "internalType": "string",
          "name": "_symbol",
          "type": "string"
        },
        {
          "internalType": "address",
          "name": "_bondingCurveAddress",
          "type": "address"
        },
        {
          "internalType": "uint32",
          "name": "_reserveRatio",
          "type": "uint32"
        },
        {
          "internalType": "uint32",
          "name": "_maxTokenCount",
          "type": "uint32"
        },
        {
          "internalType": "uint32",
          "name": "_supplyOffset",
          "type": "uint32"
        },
        {
          "internalType": "uint256",
          "name": "_baseReserve",
          "type": "uint256"
        }
      ],
      "name": "initialize",
      "outputs": [],
      "stateMutability": "nonpayable",
      "type": "function"
    },
    {
      "inputs": [
        {
          "internalType": "string",
          "name": "_name",
          "type": "string"
        },
        {
          "internalType": "string",
          "name": "_symbol",
          "type": "string"
        },
        {
          "internalType": "uint32",
          "name": "_reserveRatio",
          "type": "uint32"
        },
        {
          "internalType": "uint32",
          "name": "_maxTokenCount",
          "type": "uint32"
        },
        {
          "internalType": "uint32",
          "name": "_supplyOffset",
          "type": "uint32"
        },
        {
          "internalType": "uint256",
          "name": "_baseReserve",
          "type": "uint256"
        },
        {
          "internalType": "uint256",
          "name": "_newInitValue",
          "type": "uint256"
        },
        {
          "internalType": "address",
          "name": "_daiAddress",
          "type": "address"
        },
        {
          "internalType": "address",
          "name": "_chainlink",
          "type": "address"
        }
      ],
      "name": "initializeV3",
      "outputs": [],
      "stateMutability": "nonpayable",
      "type": "function"
    },
    {
      "inputs": [
        {
          "internalType": "enum Escrow.escrowState",
          "name": "_state",
          "type": "uint8"
        }
      ],
      "name": "isStateCompleted",
      "outputs": [
        {
          "internalType": "bool",
          "name": "",
          "type": "bool"
        }
      ],
      "stateMutability": "pure",
      "type": "function"
    },
    {
      "inputs": [],
      "name": "launch",
      "outputs": [],
      "stateMutability": "nonpayable",
      "type": "function"
    },
    {
      "inputs": [],
      "name": "maxTokenCount",
      "outputs": [
        {
          "internalType": "uint32",
          "name": "",
          "type": "uint32"
        }
      ],
      "stateMutability": "view",
      "type": "function"
    },
    {
      "inputs": [],
      "name": "name",
      "outputs": [
        {
          "internalType": "string",
          "name": "",
          "type": "string"
        }
      ],
      "stateMutability": "view",
      "type": "function"
    },
    {
      "inputs": [],
      "name": "newAttribute",
      "outputs": [
        {
          "internalType": "uint256",
          "name": "",
          "type": "uint256"
        }
      ],
      "stateMutability": "view",
      "type": "function"
    },
    {
      "inputs": [],
      "name": "newInitValue",
      "outputs": [
        {
          "internalType": "uint256",
          "name": "",
          "type": "uint256"
        }
      ],
      "stateMutability": "view",
      "type": "function"
    },
    {
      "inputs": [],
      "name": "owner",
      "outputs": [
        {
          "internalType": "address",
          "name": "",
          "type": "address"
        }
      ],
      "stateMutability": "view",
      "type": "function"
    },
    {
      "inputs": [],
      "name": "pause",
      "outputs": [],
      "stateMutability": "nonpayable",
      "type": "function"
    },
    {
      "inputs": [],
      "name": "renounceOwnership",
      "outputs": [],
      "stateMutability": "nonpayable",
      "type": "function"
    },
    {
      "inputs": [],
      "name": "reserveBalance",
      "outputs": [
        {
          "internalType": "uint256",
          "name": "",
          "type": "uint256"
        }
      ],
      "stateMutability": "view",
      "type": "function"
    },
    {
      "inputs": [],
      "name": "reserveRatio",
      "outputs": [
        {
          "internalType": "uint32",
          "name": "",
          "type": "uint32"
        }
      ],
      "stateMutability": "view",
      "type": "function"
    },
    {
      "inputs": [
        {
          "internalType": "uint32",
          "name": "amount_",
          "type": "uint32"
        }
      ],
      "name": "sell",
      "outputs": [],
      "stateMutability": "nonpayable",
      "type": "function"
    },
    {
      "inputs": [
        {
          "internalType": "address",
          "name": "_address",
          "type": "address"
        }
      ],
      "name": "setBondingCurve",
      "outputs": [],
      "stateMutability": "nonpayable",
      "type": "function"
    },
    {
      "inputs": [
        {
          "internalType": "address",
          "name": "highAddress_",
          "type": "address"
        }
      ],
      "name": "setHigh",
      "outputs": [],
      "stateMutability": "nonpayable",
      "type": "function"
    },
    {
      "inputs": [
        {
          "internalType": "address",
          "name": "addr_",
          "type": "address"
        }
      ],
      "name": "setManager",
      "outputs": [],
      "stateMutability": "nonpayable",
      "type": "function"
    },
    {
      "inputs": [],
      "name": "supplier",
      "outputs": [
        {
          "internalType": "uint256",
          "name": "amount",
          "type": "uint256"
        },
        {
          "internalType": "address",
          "name": "wallet",
          "type": "address"
        }
      ],
      "stateMutability": "view",
      "type": "function"
    },
    {
      "inputs": [],
      "name": "symbol",
      "outputs": [
        {
          "internalType": "string",
          "name": "",
          "type": "string"
        }
      ],
      "stateMutability": "view",
      "type": "function"
    },
    {
      "inputs": [],
      "name": "totalSupply",
      "outputs": [
        {
          "internalType": "uint256",
          "name": "",
          "type": "uint256"
        }
      ],
      "stateMutability": "view",
      "type": "function"
    },
    {
      "inputs": [
        {
          "internalType": "uint32",
          "name": "amount_",
          "type": "uint32"
        }
      ],
      "name": "tradein",
      "outputs": [],
      "stateMutability": "nonpayable",
      "type": "function"
    },
    {
      "inputs": [],
      "name": "tradeinCount",
      "outputs": [
        {
          "internalType": "uint32",
          "name": "",
          "type": "uint32"
        }
      ],
      "stateMutability": "view",
      "type": "function"
    },
    {
      "inputs": [],
      "name": "tradeinReserveBalance",
      "outputs": [
        {
          "internalType": "uint256",
          "name": "",
          "type": "uint256"
        }
      ],
      "stateMutability": "view",
      "type": "function"
    },
    {
      "inputs": [
        {
          "internalType": "address",
          "name": "recipient",
          "type": "address"
        },
        {
          "internalType": "uint256",
          "name": "amount",
          "type": "uint256"
        }
      ],
      "name": "transfer",
      "outputs": [
        {
          "internalType": "bool",
          "name": "",
          "type": "bool"
        }
      ],
      "stateMutability": "nonpayable",
      "type": "function"
    },
    {
      "inputs": [
        {
          "internalType": "address",
          "name": "sender",
          "type": "address"
        },
        {
          "internalType": "address",
          "name": "recipient",
          "type": "address"
        },
        {
          "internalType": "uint256",
          "name": "amount",
          "type": "uint256"
        }
      ],
      "name": "transferFrom",
      "outputs": [
        {
          "internalType": "bool",
          "name": "",
          "type": "bool"
        }
      ],
      "stateMutability": "nonpayable",
      "type": "function"
    },
    {
      "inputs": [
        {
          "internalType": "address",
          "name": "newOwner",
          "type": "address"
        }
      ],
      "name": "transferOwnership",
      "outputs": [],
      "stateMutability": "nonpayable",
      "type": "function"
    },
    {
      "inputs": [
        {
          "internalType": "address",
          "name": "wallet_",
          "type": "address"
        }
      ],
      "name": "updateSupplierInfo",
      "outputs": [],
      "stateMutability": "nonpayable",
      "type": "function"
    },
    {
      "inputs": [
        {
          "internalType": "address",
          "name": "buyer",
          "type": "address"
        },
        {
          "internalType": "uint256",
          "name": "id",
          "type": "uint256"
        }
      ],
      "name": "updateUserCompleted",
      "outputs": [],
      "stateMutability": "nonpayable",
      "type": "function"
    },
    {
      "inputs": [
        {
          "internalType": "address",
          "name": "buyer",
          "type": "address"
        },
        {
          "internalType": "uint256",
          "name": "id",
          "type": "uint256"
        }
      ],
      "name": "updateUserRefund",
      "outputs": [],
      "stateMutability": "nonpayable",
      "type": "function"
    },
    {
      "inputs": [],
      "name": "voucher",
      "outputs": [
        {
          "internalType": "address",
          "name": "addr",
          "type": "address"
        },
        {
          "internalType": "uint256",
          "name": "tokenId",
          "type": "uint256"
        }
      ],
      "stateMutability": "view",
      "type": "function"
    },
    {
      "inputs": [
        {
          "internalType": "uint256",
          "name": "amount_",
          "type": "uint256"
        },
        {
          "internalType": "address",
          "name": "to_",
          "type": "address"
        }
      ],
      "name": "withdrawHigh",
      "outputs": [],
      "stateMutability": "nonpayable",
      "type": "function"
    },
    {
      "inputs": [
        {
          "internalType": "string",
          "name": "_name",
          "type": "string"
        },
        {
          "internalType": "string",
          "name": "_symbol",
          "type": "string"
        },
        {
          "internalType": "address",
          "name": "_bondingCurveAddress",
          "type": "address"
        },
        {
          "internalType": "uint32",
          "name": "_reserveRatio",
          "type": "uint32"
        },
        {
          "internalType": "uint32",
          "name": "_maxTokenCount",
          "type": "uint32"
        },
        {
          "internalType": "uint32",
          "name": "_supplyOffset",
          "type": "uint32"
        },
        {
          "internalType": "uint256",
          "name": "_baseReserve",
          "type": "uint256"
        },
        {
          "internalType": "uint256",
          "name": "_newInitValue",
          "type": "uint256"
        },
        {
          "internalType": "address",
          "name": "_daiAddress",
          "type": "address"
        },
        {
          "internalType": "address",
          "name": "_chainlink",
          "type": "address"
        }
      ],
      "name": "initializeV5",
      "outputs": [],
      "stateMutability": "nonpayable",
      "type": "function"
    },
    {
      "inputs": [],
      "name": "getNewInitValue",
      "outputs": [
        {
          "internalType": "uint256",
          "name": "",
          "type": "uint256"
        }
      ],
      "stateMutability": "view",
      "type": "function"
    }
  ],
  "bytecode": "0x608060405234801561001057600080fd5b50613df4806100206000396000f3fe608060405234801561001057600080fd5b506004361061029b5760003560e060020a90048063828f3a9c1161016c578063c757d4c7116100d8578063c757d4c71461057c578063cdda418c1461058f578063d0ebdbe7146105b4578063d5009584146105c7578063d96a094a146105d8578063dd304b1a146105eb578063dd62ed3e1461060b578063deebbef114610644578063e67dc51814610657578063eb91d37e14610660578063ebc9e4d614610668578063efea8a131461067b578063f2fde38b1461068e578063f97511d3146106a15761029b565b8063828f3a9c146104a05780638456cb59146104b35780638da5cb5b146104bb57806395d89b41146104d0578063964a6afe146104d85780639b9ffbf3146104e0578063a10954fe14610502578063a457c2d71461050b578063a8d926291461051e578063a9059cbb14610531578063b679ef3814610544578063ba7a93b61461054d578063c4e627c2146105645761029b565b8063395093511161020b57806339509351146103bc57806343ff1fb8146103cf578063483335a1146103e2578063491052cd146103eb5780634ffd23a7146103fe5780635c8ea093146104115780635e88752c1461042457806363c51fbb1461043757806365d108971461044a5780636e74607b1461045d57806370a082311461047d578063715018a6146104905780637a53e040146104985761029b565b806301339c211461029d57806306fdde03146102a5578063095ea7b3146102c35780630c7d5cd8146102e65780630ccee99b1461030b57806318160ddd1461031e57806319d5b58714610330578063224e4f481461034357806323b872dd146103565780632f0a3fe414610369578063313ce5671461037157806335d43be41461038057806336da446814610388575b005b61029b6106b4565b6102ad61079c565b6040516102ba9190613956565b60405180910390f35b6102d66102d136600461349e565b61082e565b60405190151581526020016102ba565b609b546102f69063ffffffff1681565b60405163ffffffff90911681526020016102ba565b61029b61031936600461349e565b610845565b6035545b6040519081526020016102ba565b61032261033e3660046137b3565b6108cc565b6103226103513660046137b3565b6109cd565b6102d6610364366004613463565b6109f2565b610322610abb565b604051600081526020016102ba565b60a454610322565b609e54609f5461039f9190600160a060020a031682565b60408051928352600160a060020a039091166020830152016102ba565b6102d66103ca36600461349e565b610ad1565b61029b6103dd366004613417565b610b08565b61032260a35481565b6102d66103f93660046134e7565b610b85565b61029b61040c3660046137b3565b610bdf565b61029b61041f366004613695565b610d61565b61029b610432366004613761565b610dd9565b61029b6104453660046137b3565b610f3f565b61029b6104583660046135bb565b6110e4565b61047061046b366004613417565b61116c565b6040516102ba91906138d5565b61032261048b366004613417565b611252565b61029b61126d565b6102f66112d7565b6102f66104ae366004613761565b611323565b61029b611337565b6104c3611408565b6040516102ba9190613837565b6102ad611417565b609e54610322565b6104f36104ee36600461349e565b611426565b6040516102ba93929190613931565b61032260995481565b6102d661051936600461349e565b611471565b61029b61052c366004613417565b611512565b6102d661053f36600461349e565b61158f565b61032260a45481565b609b546102f690604060020a900463ffffffff1681565b609b546102f690640100000000900463ffffffff1681565b61029b61058a36600461349e565b61159c565b60a05460a1546105a691600160a060020a03169082565b6040516102ba92919061384b565b61029b6105c2366004613417565b611685565b609c54600160a060020a03166104c3565b61029b6105e6366004613761565b611702565b6105fe6105f936600461349e565b6119c1565b6040516102ba9190613923565b610322610619366004613431565b600160a060020a03918216600090815260346020908152604080832093909416825291909152205490565b61029b610652366004613417565b611a17565b610322609a5481565b610322611ac4565b61029b610676366004613791565b611ad0565b61029b610689366004613506565b611c57565b61029b61069c366004613417565b611cec565b6103226106af3660046137b3565b611de7565b336106bd611408565b600160a060020a0316146106ef5760405160e560020a62461bcd0281526004016106e690613b50565b60405180910390fd5b60985460ff16156107565760405160e560020a62461bcd02815260206004820152602560248201527f5468652070726f6475637420746f6b656e20697320616c7265616479206c6175604482015260da60020a641b98da19590260648201526084016106e6565b6098805460ff191660019081179091556040519081527f65c5ccecef030677b73a1403e7e69ef84d05db9d1732959d543d32f4419909b8906020015b60405180910390a1565b6060603680546107ab90613cd9565b80601f01602080910402602001604051908101604052809291908181526020018280546107d790613cd9565b80156108245780601f106107f957610100808354040283529160200191610824565b820191906000526020600020905b81548152906001019060200180831161080757829003601f168201915b5050505050905090565b600061083b338484611e8e565b5060015b92915050565b61084d611408565b600160a060020a031633600160a060020a031614806108765750609c54600160a060020a031633145b6108955760405160e560020a62461bcd0281526004016106e690613b19565b600160a060020a0382166108be5760405160e560020a62461bcd0281526004016106e6906139e0565b6108c88282611fbf565b5050565b6000808263ffffffff16116108f65760405160e560020a62461bcd0281526004016106e690613a4e565b609b5460009061092d9063ffffffff606060020a82048116916109279187811691604060020a900481169061213816565b90612138565b609d54609a54609b5460405160e060020a631c949873028152939450600160a060020a0390921692631c94987392610974928692909163ffffffff16908990600401613bf3565b60206040518083038186803b15801561098c57600080fd5b505afa1580156109a0573d6000803e3d6000fd5b505050506040513d601f19601f820116820180604052508101906109c49190613779565b9150505b919050565b60008060006109db8461214b565b90925090506109ea828261220e565b949350505050565b60006109ff84848461221a565b600160a060020a038416600090815260346020908152604080832033845290915290205482811015610a9c5760405160e560020a62461bcd02815260206004820152602860248201527f45524332303a207472616e7366657220616d6f756e742065786365656473206160448201527f6c6c6f77616e636500000000000000000000000000000000000000000000000060648201526084016106e6565b610ab08533610aab8685613c9d565b611e8e565b506001949350505050565b600060a3546001610acc9190613c1b565b905090565b336000818152603460209081526040808320600160a060020a0387168452909152812054909161083b918590610aab908690613c1b565b33610b11611408565b600160a060020a031614610b3a5760405160e560020a62461bcd0281526004016106e690613b50565b600160a060020a038116610b635760405160e560020a62461bcd0281526004016106e6906139a9565b609d8054600160a060020a031916600160a060020a0392909216919091179055565b60006003826003811115610bac5760e060020a634e487b7102600052602160045260246000fd5b148061083f57506002826003811115610bd85760e060020a634e487b7102600052602160045260246000fd5b1492915050565b60985460ff16610c045760405160e560020a62461bcd0281526004016106e690613b85565b8063ffffffff16610c1433611252565b101580610c27575060008163ffffffff16115b610c465760405160e560020a62461bcd0281526004016106e690613a4e565b600080610c5283612406565b60a25460405160e060020a63a9059cbb028152929450909250600091600160a060020a039091169063a9059cbb90610c90903390879060040161384b565b602060405180830381600087803b158015610caa57600080fd5b505af1158015610cbe573d6000803e3d6000fd5b505050506040513d601f19601f82011682018060405250810190610ce291906134c7565b9050610d0b610d066501d1a94a2000610d008564e8d4a51000612519565b90612525565b612531565b80610d5b5760405160e560020a62461bcd02815260206004820152601460248201527f73656c6c696e6720746f6b656e206661696c656400000000000000000000000060448201526064016106e6565b50505050565b600054610100900460ff1680610d7a575060005460ff16155b610d995760405160e560020a62461bcd0281526004016106e690613abc565b600054610100900460ff16158015610dbb576000805461ffff19166101011790555b8015610dcd576000805461ff00191690555b50505050505050505050565b609f54600160a060020a0316610e345760405160e560020a62461bcd02815260206004820152601160248201527f77616c6c657420697320696e76616c696400000000000000000000000000000060448201526064016106e6565b609f54600160a060020a03163314610e915760405160e560020a62461bcd02815260206004820152601a60248201527f5468652061646472657373206973206e6f7420616c6c6f77656400000000000060448201526064016106e6565b609e548111610f3c5760a25460405160e060020a63a9059cbb028152600091600160a060020a03169063a9059cbb90610ed0903390869060040161384b565b602060405180830381600087803b158015610eea57600080fd5b505af1158015610efe573d6000803e3d6000fd5b505050506040513d601f19601f82011682018060405250810190610f2291906134c7565b905080156108c857609e54610f37908361220e565b609e55505b50565b60985460ff16610f645760405160e560020a62461bcd0281526004016106e690613b85565b60008163ffffffff1611610f8d5760405160e560020a62461bcd0281526004016106e690613bbc565b8063ffffffff16610f9d33611252565b1015610fee5760405160e560020a62461bcd02815260206004820152601c60248201527f496e73756666696369656e7420746f6b656e7320746f206275726e2e0000000060448201526064016106e6565b600080610ffa8361214b565b915091506000611009846108cc565b905061102b610d06826109276501d1a94a2000610d008764e8d4a51000612519565b611035838361220e565b9250611041848461254a565b50611052338563ffffffff1661269e565b609b5461106d908590604060020a900463ffffffff16613c33565b609b80546bffffffff00000000000000001916604060020a63ffffffff93841602179055609a546110a091839061213816565b609a5560405163ffffffff8516815233907fe600c25f82e9bac8f9f1663725540d6cd442845726820fd5bee41b66c4bf59be9060200160405180910390a250505050565b600054610100900460ff16806110fd575060005460ff16155b61111c5760405160e560020a62461bcd0281526004016106e690613abc565b600054610100900460ff1615801561113e576000805461ffff19166101011790555b6111488b8b6127e7565b60a4849055801561115f576000805461ff00191690555b5050505050505050505050565b600160a060020a0381166000908152606560209081526040808320805482518185028101850190935280835260609492939192909184015b82821015611247576000848152602090206040805160608101909152600284029091018054829060ff1660038111156111f05760e060020a634e487b7102600052602160045260246000fd5b60038111156112125760e060020a634e487b7102600052602160045260246000fd5b81528154610100900463ffffffff166020808301919091526001928301546040909201919091529183529290920191016111a4565b505050509050919050565b600160a060020a031660009081526033602052604090205490565b33611276611408565b600160a060020a03161461129f5760405160e560020a62461bcd0281526004016106e690613b50565b606654604051600091600160a060020a031690600080516020613d7f833981519152908390a360668054600160a060020a0319169055565b609b54600090604060020a900463ffffffff166112f360355490565b609b5461130e9190640100000000900463ffffffff16613cb4565b6113189190613cb4565b610acc906064613c33565b60008061132f83612869565b509392505050565b33611340611408565b600160a060020a0316146113695760405160e560020a62461bcd0281526004016106e690613b50565b60985460ff166113cd5760405160e560020a62461bcd02815260206004820152602360248201527f5468652070726f6475637420746f6b656e20697320616c726561647920706175604482015260ea60020a621cd9590260648201526084016106e6565b6098805460ff19169055604051600081527f65c5ccecef030677b73a1403e7e69ef84d05db9d1732959d543d32f4419909b890602001610792565b606654600160a060020a031690565b6060603780546107ab90613cd9565b6065602052816000526040600020818154811061144257600080fd5b60009182526020909120600290910201805460019091015460ff8216935061010090910463ffffffff16915083565b336000908152603460209081526040808320600160a060020a0386168452909152812054828110156114f95760405160e560020a62461bcd02815260206004820152602560248201527f45524332303a2064656372656173656420616c6c6f77616e63652062656c6f77604482015260d860020a64207a65726f0260648201526084016106e6565b6115083385610aab8685613c9d565b5060019392505050565b3361151b611408565b600160a060020a0316146115445760405160e560020a62461bcd0281526004016106e690613b50565b600160a060020a03811661156d5760405160e560020a62461bcd0281526004016106e6906139a9565b60a28054600160a060020a031916600160a060020a0392909216919091179055565b600061083b33848461221a565b6115a4611408565b600160a060020a031633600160a060020a031614806115cd5750609c54600160a060020a031633145b6115ec5760405160e560020a62461bcd0281526004016106e690613b19565b600160a060020a0382166116155760405160e560020a62461bcd0281526004016106e6906139e0565b60006116218383612970565b9050600081116116765760405160e560020a62461bcd02815260206004820152600d60248201527f496e76616c69642076616c75650000000000000000000000000000000000000060448201526064016106e6565b6116808382612b21565b505050565b3361168e611408565b600160a060020a0316146116b75760405160e560020a62461bcd0281526004016106e690613b50565b600160a060020a0381166116e05760405160e560020a62461bcd0281526004016106e690613a85565b609c8054600160a060020a031916600160a060020a0392909216919091179055565b60985460ff166117275760405160e560020a62461bcd0281526004016106e690613b85565b6000811161177a5760405160e560020a62461bcd02815260206004820152601160248201527f696e76616c6964206d617820707269636500000000000000000000000000000060448201526064016106e6565b60a25460405160e060020a6323b872dd02815233600482015230602482015260448101839052600091600160a060020a0316906323b872dd90606401602060405180830381600087803b1580156117d057600080fd5b505af11580156117e4573d6000803e3d6000fd5b505050506040513d601f19601f8201168201806040525081019061180891906134c7565b90508061185a5760405160e560020a62461bcd02815260206004820152601060248201527f5075726368617365206661696c65642e0000000000000000000000000000000060448201526064016106e6565b60008060008061186986612bfb565b93509350935063ffffffff169350600084111561193057821561190f5760a25460405160e060020a63a9059cbb028152600160a060020a039091169063a9059cbb906118bb903390879060040161384b565b602060405180830381600087803b1580156118d557600080fd5b505af11580156118e9573d6000803e3d6000fd5b505050506040513d601f19601f8201168201806040525081019061190d91906134c7565b505b61192b610d06650746a5288000610d008464e8d4a51000612519565b6119b9565b60a25460405160e060020a63a9059cbb028152600160a060020a039091169063a9059cbb906119659033908a9060040161384b565b602060405180830381600087803b15801561197f57600080fd5b505af1158015611993573d6000803e3d6000fd5b505050506040513d601f19601f820116820180604052508101906119b791906134c7565b505b505050505050565b600160a060020a03821660009081526065602052604081208054839081106119fc5760e060020a634e487b7102600052603260045260246000fd5b600091825260209091206002909102015460ff169392505050565b33611a20611408565b600160a060020a031614611a495760405160e560020a62461bcd0281526004016106e690613b50565b600160a060020a038116611aa25760405160e560020a62461bcd02815260206004820152601260248201527f4164647265737320697320696e76616c6964000000000000000000000000000060448201526064016106e6565b609f8054600160a060020a031916600160a060020a0392909216919091179055565b6000610acc6001611de7565b33611ad9611408565b600160a060020a031614611b025760405160e560020a62461bcd0281526004016106e690613b50565b600160a060020a038116611b2b5760405160e560020a62461bcd0281526004016106e690613a85565b60a25460405160e060020a6370a08231028152600160a060020a03909116906370a0823190611b5e903090600401613837565b60206040518083038186803b158015611b7657600080fd5b505afa158015611b8a573d6000803e3d6000fd5b505050506040513d601f19601f82011682018060405250810190611bae9190613779565b821115611bd05760405160e560020a62461bcd0281526004016106e690613a4e565b60a25460405160e060020a63a9059cbb028152600160a060020a039091169063a9059cbb90611c05908490869060040161384b565b602060405180830381600087803b158015611c1f57600080fd5b505af1158015611c33573d6000803e3d6000fd5b505050506040513d601f19601f8201168201806040525081019061168091906134c7565b600054610100900460ff1680611c70575060005460ff16155b611c8f5760405160e560020a62461bcd0281526004016106e690613abc565b600054610100900460ff16158015611cb1576000805461ffff19166101011790555b611cb9612d6a565b611cc388886127e7565b611cd08686868686612de8565b8015611ce2576000805461ff00191690555b5050505050505050565b33611cf5611408565b600160a060020a031614611d1e5760405160e560020a62461bcd0281526004016106e690613b50565b600160a060020a038116611d9d5760405160e560020a62461bcd02815260206004820152602660248201527f4f776e61626c653a206e6577206f776e657220697320746865207a65726f206160448201527f646472657373000000000000000000000000000000000000000000000000000060648201526084016106e6565b606654604051600160a060020a03808416921690600080516020613d7f83398151915290600090a360668054600160a060020a031916600160a060020a0392909216919091179055565b609d54600090600160a060020a031663bff82d84611e03612f7b565b609954609b54611e1b9063ffffffff1661c350613c33565b866040518563ffffffff1660e060020a028152600401611e3e9493929190613bf3565b60206040518083038186803b158015611e5657600080fd5b505afa158015611e6a573d6000803e3d6000fd5b505050506040513d601f19601f8201168201806040525081019061083f9190613779565b600160a060020a038316611ef65760405160e560020a62461bcd028152602060048201526024808201527f45524332303a20617070726f76652066726f6d20746865207a65726f20616464604482015260e060020a63726573730260648201526084016106e6565b600160a060020a038216611f5d5760405160e560020a62461bcd02815260206004820152602260248201527f45524332303a20617070726f766520746f20746865207a65726f206164647265604482015260f060020a6173730260648201526084016106e6565b600160a060020a0383811660008181526034602090815260408083209487168084529482529182902085905590518481527f8c5be1e5ebec7d5bd14f71427d1e84f3dd0314c0f7b2291e5b200ac8c7c3b92591015b60405180910390a3505050565b600160a060020a03821660009081526065602052604090208054612018919083908110611fff5760e060020a634e487b7102600052603260045260246000fd5b600091825260209091206002909102015460ff16610b85565b156120385760405160e560020a62461bcd0281526004016106e690613a17565b600160a060020a0382166000908152606560205260409020805460039190839081106120775760e060020a634e487b7102600052603260045260246000fd5b60009182526020909120600290910201805460ff191660018360038111156120b25760e060020a634e487b7102600052602160045260246000fd5b0217905550600080516020613d5f83398151915282826065600086600160a060020a0316600160a060020a03168152602001908152602001600020848154811061210f5760e060020a634e487b7102600052603260045260246000fd5b906000526020600020906002020160405161212c93929190613888565b60405180910390a15050565b60006121448284613c1b565b9392505050565b609d5460009081908190600160a060020a0316631c94987361216b612f7b565b609954609b5460405163ffffffff85811660e060020a02825261219694939216908a90600401613bf3565b60206040518083038186803b1580156121ae57600080fd5b505afa1580156121c2573d6000803e3d6000fd5b505050506040513d601f19601f820116820180604052508101906121e69190613779565b9050600061220264e8d4a51000610d0084640df8475800612519565b91935090915050915091565b60006121448284613c9d565b600160a060020a0383166122845760405160e560020a62461bcd02815260206004820152602560248201527f45524332303a207472616e736665722066726f6d20746865207a65726f206164604482015260d860020a6464726573730260648201526084016106e6565b600160a060020a0382166122ec5760405160e560020a62461bcd02815260206004820152602360248201527f45524332303a207472616e7366657220746f20746865207a65726f2061646472604482015260e860020a626573730260648201526084016106e6565b600160a060020a0383166000908152603360205260409020548181101561237e5760405160e560020a62461bcd02815260206004820152602660248201527f45524332303a207472616e7366657220616d6f756e742065786365656473206260448201527f616c616e6365000000000000000000000000000000000000000000000000000060648201526084016106e6565b6123888282613c9d565b600160a060020a0380861660009081526033602052604080822093909355908516815290812080548492906123be908490613c1b565b9250508190555082600160a060020a031684600160a060020a0316600080516020613d9f833981519152846040516123f891815260200190565b60405180910390a350505050565b60008060008363ffffffff16116124325760405160e560020a62461bcd0281526004016106e690613bbc565b8263ffffffff1661244233611252565b10156124935760405160e560020a62461bcd02815260206004820152601c60248201527f496e73756666696369656e7420746f6b656e7320746f2073656c6c2e0000000060448201526064016106e6565b60008061249f8561214b565b60995491935091506124b1908361220e565b6099556124c43363ffffffff871661269e565b6040805163ffffffff871681526020810184905233917f84c8d08e5480cf09cbf77bc575dc4e63845522693c34094f04129a4dedb7abd7910160405180910390a261250f828261220e565b9350915050915091565b60006121448284613c7e565b60006121448284613c5b565b8015610f3c57609e546125449082612138565b609e5550565b6000808363ffffffff16116125a45760405160e560020a62461bcd02815260206004820152600e60248201527f496e76616c696420416d6f756e7400000000000000000000000000000000000060448201526064016106e6565b60408051606081018252600180825263ffffffff861660208084019190915282840186905233600090815260658252938420805480840182559085529320825160029094020180549293849391929091839160ff19909116908360038111156126205760e060020a634e487b7102600052602160045260246000fd5b0217905550602082810151825463ffffffff9091166101000264ffffffff001990911617825560409283015160019283015533600090815260659091529182205461266b9190613c9d565b9050600080516020613d5f83398151915233828460405161268e93929190613864565b60405180910390a1949350505050565b600160a060020a0382166127045760405160e560020a62461bcd02815260206004820152602160248201527f45524332303a206275726e2066726f6d20746865207a65726f20616464726573604482015260f860020a60730260648201526084016106e6565b600160a060020a0382166000908152603360205260409020548181101561277e5760405160e560020a62461bcd02815260206004820152602260248201527f45524332303a206275726e20616d6f756e7420657863656564732062616c616e604482015260f060020a6163650260648201526084016106e6565b6127888282613c9d565b600160a060020a038416600090815260336020526040812091909155603580548492906127b6908490613c9d565b9091555050604051828152600090600160a060020a03851690600080516020613d9f83398151915290602001611fb2565b600054610100900460ff1680612800575060005460ff16155b61281f5760405160e560020a62461bcd0281526004016106e690613abc565b600054610100900460ff16158015612841576000805461ffff19166101011790555b612849612fa8565b6128538383613015565b8015611680576000805461ff0019169055505050565b6000808061288564fb75043000610d008664e8d4a51000612519565b905060006128a3655af3107a4000610d0084650746a5288000612519565b609d54909150600090600160a060020a0316639f4ae6b06128c2612f7b565b609954609b5463ffffffff908116906128df908990899061220e16565b60405163ffffffff86811660e060020a0282529485166004820152602481019390935292166044820152606481019190915260840160206040518083038186803b15801561292c57600080fd5b505afa158015612940573d6000803e3d6000fd5b505050506040513d601f19601f8201168201806040525081019061296491906137cf565b94509092505050915091565b600160a060020a038216600090815260656020526040812080546129b0919084908110611fff5760e060020a634e487b7102600052603260045260246000fd5b156129d05760405160e560020a62461bcd0281526004016106e690613a17565b600160a060020a038316600090815260656020526040902080546002919084908110612a0f5760e060020a634e487b7102600052603260045260246000fd5b60009182526020909120600290910201805460ff19166001836003811115612a4a5760e060020a634e487b7102600052602160045260246000fd5b0217905550600080516020613d5f83398151915283836065600087600160a060020a0316600160a060020a031681526020019081526020016000208581548110612aa75760e060020a634e487b7102600052603260045260246000fd5b9060005260206000209060020201604051612ac493929190613888565b60405180910390a1600160a060020a0383166000908152606560205260409020805483908110612b075760e060020a634e487b7102600052603260045260246000fd5b906000526020600020906002020160010154905092915050565b60a25460405160e060020a63a9059cbb028152600091600160a060020a03169063a9059cbb90612b57908690869060040161384b565b602060405180830381600087803b158015612b7157600080fd5b505af1158015612b85573d6000803e3d6000fd5b505050506040513d601f19601f82011682018060405250810190612ba991906134c7565b9050806116805760405160e560020a62461bcd02815260206004820152601360248201527f726566756e6420746f6b656e206661696c65640000000000000000000000000060448201526064016106e6565b6000806000806000612c0b6112d7565b63ffffffff1611612c615760405160e560020a62461bcd02815260206004820152601e60248201527f536f7272792c207468697320746f6b656e20697320736f6c64206f75742e000060448201526064016106e6565b60008511612cb45760405160e560020a62461bcd02815260206004820152601960248201527f4465706f736974206d757374206265206e6f6e2d7a65726f2e0000000000000060448201526064016106e6565b600080612cc160016130ad565b9150915086821115612ce25760008760008095509550955095505050612d63565b612ced336001613166565b612d03612cfa838361220e565b60995490612138565b60995560408051600181526020810184905233917f5b55159a377d86da80a65140d62d994ddbb2cbd4bb2d1b59cb0827fecbe47cab910160405180910390a26001612d5882612d528a8661220e565b9061220e565b909650945090925090505b9193509193565b600054610100900460ff1680612d83575060005460ff16155b612da25760405160e560020a62461bcd0281526004016106e690613abc565b600054610100900460ff16158015612dc4576000805461ffff19166101011790555b612dcc612fa8565b612dd4613236565b8015610f3c576000805461ff001916905550565b600054610100900460ff1680612e01575060005460ff16155b612e205760405160e560020a62461bcd0281526004016106e690613abc565b600054610100900460ff16158015612e42576000805461ffff19166101011790555b60008463ffffffff1611612e9b5760405160e560020a62461bcd02815260206004820152601860248201527f496e76616c6964206d617820746f6b656e20636f756e742e000000000000000060448201526064016106e6565b60008563ffffffff1611612ef45760405160e560020a62461bcd02815260206004820152601560248201527f496e76616c6964207265736572766520726174696f000000000000000000000060448201526064016106e6565b609d8054600160a060020a038816600160a060020a03199091161790556099829055609a829055609b805463ffffffff8681166401000000000267ffffffffffffffff19828816606060020a02166fffffffff00000000ffffffffffffffff19909316929092179088161717905580156119b9576000805461ff0019169055505050505050565b609b54600090610acc9063ffffffff606060020a820481169161092791604060020a909104168160355490565b600054610100900460ff1680612fc1575060005460ff16155b612fe05760405160e560020a62461bcd0281526004016106e690613abc565b600054610100900460ff16158015612dd4576000805461ffff19166101011790558015610f3c576000805461ff001916905550565b600054610100900460ff168061302e575060005460ff16155b61304d5760405160e560020a62461bcd0281526004016106e690613abc565b600054610100900460ff1615801561306f576000805461ffff19166101011790555b82516130829060369060208601906132d5565b5081516130969060379060208501906132d5565b508015611680576000805461ff0019169055505050565b609d5460009081908190600160a060020a031663bff82d846130cd612f7b565b609954609b5460405163ffffffff85811660e060020a0282526130f894939216908a90600401613bf3565b60206040518083038186803b15801561311057600080fd5b505afa158015613124573d6000803e3d6000fd5b505050506040513d601f19601f820116820180604052508101906131489190613779565b90506000612202655af3107a4000610d0084650746a5288000612519565b600160a060020a0382166131bf5760405160e560020a62461bcd02815260206004820152601f60248201527f45524332303a206d696e7420746f20746865207a65726f20616464726573730060448201526064016106e6565b80603560008282546131d19190613c1b565b9091555050600160a060020a038216600090815260336020526040812080548392906131fe908490613c1b565b9091555050604051818152600160a060020a03831690600090600080516020613d9f8339815191529060200160405180910390a35050565b600054610100900460ff168061324f575060005460ff16155b61326e5760405160e560020a62461bcd0281526004016106e690613abc565b600054610100900460ff16158015613290576000805461ffff19166101011790555b60668054600160a060020a031916339081179091556040518190600090600080516020613d7f833981519152908290a3508015610f3c576000805461ff001916905550565b8280546132e190613cd9565b90600052602060002090601f0160209004810192826133035760008555613349565b82601f1061331c57805160ff1916838001178555613349565b82800160010185558215613349579182015b8281111561334957825182559160200191906001019061332e565b50613355929150613359565b5090565b5b80821115613355576000815560010161335a565b8035600160a060020a03811681146109c857600080fd5b600082601f830112613395578081fd5b813567ffffffffffffffff808211156133b0576133b0613d32565b604051601f8301601f19908116603f011681019082821181831017156133d8576133d8613d32565b816040528381528660208588010111156133f0578485fd5b8360208701602083013792830160200193909352509392505050565b80356109c881613d4c565b600060208284031215613428578081fd5b6121448261336e565b60008060408385031215613443578081fd5b61344c8361336e565b915061345a6020840161336e565b90509250929050565b600080600060608486031215613477578081fd5b6134808461336e565b925061348e6020850161336e565b9150604084013590509250925092565b600080604083850312156134b0578182fd5b6134b98361336e565b946020939093013593505050565b6000602082840312156134d8578081fd5b81518015158114612144578182fd5b6000602082840312156134f8578081fd5b813560048110612144578182fd5b600080600080600080600060e0888a031215613520578283fd5b873567ffffffffffffffff80821115613537578485fd5b6135438b838c01613385565b985060208a0135915080821115613558578485fd5b506135658a828b01613385565b9650506135746040890161336e565b9450606088013561358481613d4c565b9350608088013561359481613d4c565b925060a08801356135a481613d4c565b8092505060c0880135905092959891949750929550565b6000806000806000806000806000806101408b8d0312156135da578283fd5b8a3567ffffffffffffffff808211156135f1578485fd5b6135fd8e838f01613385565b9b5060208d0135915080821115613612578485fd5b5061361f8d828e01613385565b99505061362e60408c0161336e565b975061363c60608c0161340c565b965061364a60808c0161340c565b955061365860a08c0161340c565b945060c08b0135935060e08b013592506136756101008c0161336e565b91506136846101208c0161336e565b90509295989b9194979a5092959850565b60008060008060008060008060006101208a8c0312156136b3578485fd5b893567ffffffffffffffff808211156136ca578687fd5b6136d68d838e01613385565b9a5060208c01359150808211156136eb578687fd5b506136f88c828d01613385565b98505060408a013561370981613d4c565b965060608a013561371981613d4c565b955061372760808b0161340c565b945060a08a0135935060c08a0135925061374360e08b0161336e565b91506137526101008b0161336e565b90509295985092959850929598565b600060208284031215613772578081fd5b5035919050565b60006020828403121561378a578081fd5b5051919050565b600080604083850312156137a3578182fd5b8235915061345a6020840161336e565b6000602082840312156137c4578081fd5b813561214481613d4c565b6000602082840312156137e0578081fd5b815161214481613d4c565b6004811061380d5760e060020a634e487b710260009081526021600452602490fd5b9052565b61381c8282516137eb565b60208181015163ffffffff1690830152604090810151910152565b600160a060020a0391909116815260200190565b600160a060020a03929092168252602082015260400190565b600160a060020a03841681526020810183905260a081016109ea6040830184613811565b600160a060020a038416815260208101839052815460a08201906138b26040840160ff83166137eb565b63ffffffff61010082041660608401525060018301546080830152949350505050565b6020808252825182820181905260009190848201906040850190845b8181101561391757613904838551613811565b92840192606092909201916001016138f1565b50909695505050505050565b6020810161083f82846137eb565b6060810161393f82866137eb565b63ffffffff93909316602082015260400152919050565b6000602080835283518082850152825b8181101561398257858101830151858201604001528201613966565b818111156139935783604083870101525b50601f01601f1916929092016040019392505050565b6020808252600f908201527f496e76616c696420616464726573730000000000000000000000000000000000604082015260600190565b6020808252600d908201527f496e76616c696420627579657200000000000000000000000000000000000000604082015260600190565b60208082526011908201527f616c726561647920636f6d706c65746564000000000000000000000000000000604082015260600190565b6020808252600e908201527f696e76616c696420616d6f756e74000000000000000000000000000000000000604082015260600190565b6020808252600f908201527f696e76616c696420616464726573730000000000000000000000000000000000604082015260600190565b6020808252602e908201527f496e697469616c697a61626c653a20636f6e747261637420697320616c72656160408201527f647920696e697469616c697a6564000000000000000000000000000000000000606082015260800190565b60208082526011908201527f7065726d697373696f6e2064656e696564000000000000000000000000000000604082015260600190565b6020808252818101527f4f776e61626c653a2063616c6c6572206973206e6f7420746865206f776e6572604082015260600190565b60208082526013908201527f756e61626c6520746f207472616465206e6f7700000000000000000000000000604082015260600190565b60208082526018908201527f416d6f756e74206d757374206265206e6f6e2d7a65726f2e0000000000000000604082015260600190565b63ffffffff948516815260208101939093529083166040830152909116606082015260800190565b60008219821115613c2e57613c2e613d18565b500190565b600063ffffffff808316818516808303821115613c5257613c52613d18565b01949350505050565b600082613c795760e060020a634e487b710281526012600452602481fd5b500490565b6000816000190483118215151615613c9857613c98613d18565b500290565b600082821015613caf57613caf613d18565b500390565b600063ffffffff83811690831681811015613cd157613cd1613d18565b039392505050565b600281046001821680613ced57607f821691505b60208210811415613d125760e060020a634e487b710260009081526022600452602490fd5b50919050565b60e060020a634e487b710260009081526011600452602490fd5b60e060020a634e487b710260009081526041600452602490fd5b63ffffffff81168114610f3c57600080fdfe09c64bee251b684a6bb80ce179dd520c001481b7c3d7781f1502e3052af474cf8be0079c531659141344cd1fd0a4f28419497f9722a3daafe3b4186f6b6457e0ddf252ad1be2c89b69c2b068fc378daa952ba7f163c4a11628f55a4df523b3efa26469706673582212204434ad020135ff3d4d4b735645af969f17e075b75c5601c073a2c8323f81ed7964736f6c63430008030033",
  "immutableReferences": {},
  "source": "pragma solidity ^0.8.2;\n\nimport \"@openzeppelin/contracts-upgradeable/token/ERC20/ERC20Upgradeable.sol\";\nimport \"@openzeppelin/contracts-upgradeable/utils/math/SafeMathUpgradeable.sol\";\n\nimport \"../ProductToken.sol\";\nimport \"../ProductTokenV1.sol\";\nimport \"../Power.sol\";\n\n\ncontract ProductTokenV2 is ProductTokenV1 {\n  uint256 public newAttribute;\n\n  function getNewAttribute()\n  public view returns (uint256)\n  {\n    return newAttribute + 1;\n  }\n\n  function getPriceForN(uint32 _amountProduct) \n  \tpublic view override returns(uint256 price)\n  {\n  \treturn bondingCurve.calculatePriceForNTokens(_getTotalSupply(), reserveBalance, reserveRatio+50000, _amountProduct);\n  }\n\n    function getAvailability()\n     public view override returns (uint32 available)\n  {\n    return maxTokenCount - uint32(totalSupply()) - tradeinCount+100;   \n  }\n\n} \n\ncontract ProductTokenV3 is ProductTokenV2 {\n    using SafeMathUpgradeable for uint256;\n    uint32 private constant MAX_RESERVE_RATIO = 2000000;\n\n    function initializeV3(string memory _name, string memory _symbol, uint32 _reserveRatio, uint32 _maxTokenCount, uint32 _supplyOffset, uint256 _baseReserve, uint256 _newInitValue, address _daiAddress, address _chainlink) public  initializer {\n    }\n}\n\ncontract ProductTokenDestroy {\n\n}\n\ncontract ProductTokenV4 is ProductTokenV2 {\n\n}\n\ncontract ProductTokenV5 is ProductTokenV3 {\n  uint256  public newInitValue;\n/**\n   * @dev Constructor\n   *\n   * @param _reserveRatio             the reserve ratio in the curve function\n   * @param _maxTokenCount\t\t\t\t\t\tthe amount of token that will exist for this type.\n   * @param _supplyOffset             a initial amount of offset that drive the price to a starting price\n   * @param _baseReserve              the reserve balance when supply is 0. This is calculated based on the balance function, and evaluated at s = _supplyOffset\n  */\n  function initializeV5(string memory _name, string memory _symbol, address _bondingCurveAddress, uint32 _reserveRatio, uint32 _maxTokenCount, uint32 _supplyOffset, uint256 _baseReserve, uint256 _newInitValue, address _daiAddress, address _chainlink) public  initializer {\t\t\n    __ERC20_init(_name, _symbol);\n    // ProductToken.__ProductToken_init_unchained(_bondingCurveAddress, _reserveRatio, _maxTokenCount, _supplyOffset, _baseReserve);\n    // ProductTokenV1.__ProductToken_init_unchained(_daiAddress, _chainlink);\n    newInitValue= _newInitValue;\n  }\n  function getNewInitValue() public view returns(uint256){\n    return newInitValue;\n  }\n}\n",
  "sourcePath": "/Users/jack/Documents/GitHub/HighStreet/client/src/contracts/Mock/ProductTokenV2.sol",
  "compiler": {
    "name": "solc",
    "version": "0.8.3+commit.8d00100c.Emscripten.clang"
  },
  "schemaVersion": "3.4.0",
  "updatedAt": "2021-09-27T08:10:58.540Z",
  "devdoc": {
    "kind": "dev",
    "methods": {
      "allowance(address,address)": {
        "details": "See {IERC20-allowance}."
      },
      "approve(address,uint256)": {
        "details": "See {IERC20-approve}. Requirements: - `spender` cannot be the zero address."
      },
      "balanceOf(address)": {
        "details": "See {IERC20-balanceOf}."
      },
      "calculateBuyReturn(uint256)": {
        "details": "Function that computes number of product tokens one can buy given an amount in reserve token.",
        "params": {
          "_amountReserve": "purchaing amount in reserve token (dai)(with 4% platform fee)"
        },
        "returns": {
          "mintAmount": "             number of tokens in traded token that can be purchased by given amount."
        }
      },
      "calculateSellReturn(uint32)": {
        "details": "Function that computes selling price in reserve tokens given an amount in traded token.",
        "params": {
          "_amountProduct": "selling amount in product token"
        },
        "returns": {
          "soldAmount": "             total amount that will be transferred to the seller (with 2% platform fee)."
        }
      },
      "decimals()": {
        "details": "Returns the number of decimals used to get its user representation. For example, if `decimals` equals `2`, a balance of `505` tokens should be displayed to a user as `5,05` (`505 / 10 ** 2`). Tokens usually opt for a value of 18, imitating the relationship between Ether and Wei. This is the value {ERC20} uses, unless this function is overloaded; NOTE: This information is only used for _display_ purposes: it in no way affects any of the arithmetic of the contract, including {IERC20-balanceOf} and {IERC20-transfer}."
      },
      "decreaseAllowance(address,uint256)": {
        "details": "Atomically decreases the allowance granted to `spender` by the caller. This is an alternative to {approve} that can be used as a mitigation for problems described in {IERC20-approve}. Emits an {Approval} event indicating the updated allowance. Requirements: - `spender` cannot be the zero address. - `spender` must have allowance for the caller of at least `subtractedValue`."
      },
      "getAvailability()": {
        "details": "Function to check how many tokens of this product are currently available for purchase, by taking the difference between max cap count and current token in circulation or burned.",
        "returns": {
          "available": "               the number of tokens available"
        }
      },
      "getCurrentPrice()": {
        "details": "Function that computes current price for a token through bonding curve calculation based on parameters such as total supply, reserve balance, and reserve ratio.",
        "returns": {
          "price": "                  current price in reserve token (in our case, this is dai). (with 4% platform fee)"
        }
      },
      "getEscrowHistory(address)": {
        "details": "Return the list of all escrows created for a certain user",
        "params": {
          "_buyer": "The address of the buyer"
        },
        "returns": {
          "_0": "A list of past escrows"
        }
      },
      "getPriceForN(uint32)": {
        "details": "Function that computes price total for buying n token through bonding curve calculation based on parameters such as total supply, reserve balance, and reserve ratio.",
        "params": {
          "_amountProduct": "token amount in traded token"
        },
        "returns": {
          "price": "                  total price in reserve token (in our case, this is dai). (with 4% platform fee)"
        }
      },
      "getRedeemStatus(address,uint256)": {
        "details": "Get status of a particular redemption process",
        "params": {
          "_buyer": "The address of the buyer",
          "_id": "The cached id of the escrow, retrieved from database"
        },
        "returns": {
          "_0": "The current status"
        }
      },
      "getSupplierBalance()": {
        "details": "this function returns the amount of reserve balance that the supplier can withdraw from the dapp."
      },
      "increaseAllowance(address,uint256)": {
        "details": "Atomically increases the allowance granted to `spender` by the caller. This is an alternative to {approve} that can be used as a mitigation for problems described in {IERC20-approve}. Emits an {Approval} event indicating the updated allowance. Requirements: - `spender` cannot be the zero address."
      },
      "initialize(string,string,address,uint32,uint32,uint32,uint256)": {
        "details": "initializer function.",
        "params": {
          "_baseReserve": "the base amount of reserve tokens, in accordance to _supplyOffset.",
          "_maxTokenCount": "the amount of token that will exist for this type.",
          "_name": "the name of this token",
          "_reserveRatio": "the reserve ratio in the curve function. Number in parts per million",
          "_supplyOffset": "this amount is used to determine initial price.",
          "_symbol": "the symbol of this token"
        }
      },
      "initializeV5(string,string,address,uint32,uint32,uint32,uint256,uint256,address,address)": {
        "details": "Constructor",
        "params": {
          "_baseReserve": "the reserve balance when supply is 0. This is calculated based on the balance function, and evaluated at s = _supplyOffset",
          "_maxTokenCount": "the amount of token that will exist for this type.",
          "_reserveRatio": "the reserve ratio in the curve function",
          "_supplyOffset": "a initial amount of offset that drive the price to a starting price"
        }
      },
      "isStateCompleted(uint8)": {
        "details": "Helper function to check whether a escrow state is completed",
        "params": {
          "_state": "The state to be checked"
        }
      },
      "launch()": {
        "details": "requires function to be called from owner. this enables customers to buy, sell, or redeem the product."
      },
      "name()": {
        "details": "Returns the name of the token."
      },
      "owner()": {
        "details": "Returns the address of the current owner."
      },
      "pause()": {
        "details": "requires function to be called from owner. this prevents customers from buying, selling, or redeeming the product."
      },
      "renounceOwnership()": {
        "details": "Leaves the contract without owner. It will not be possible to call `onlyOwner` functions anymore. Can only be called by the current owner. NOTE: Renouncing ownership will leave the contract without an owner, thereby removing any functionality that is only available to the owner."
      },
      "setBondingCurve(address)": {
        "details": "requires function to be called from owner. sets a bonding curve implementation for this product.",
        "params": {
          "_address": "the address of the bonding curve implementation"
        }
      },
      "symbol()": {
        "details": "Returns the symbol of the token, usually a shorter version of the name."
      },
      "totalSupply()": {
        "details": "See {IERC20-totalSupply}."
      },
      "tradein(uint32)": {
        "details": "When user wants to trade in their token for retail product",
        "params": {
          "amount_": "amount of tokens that user wants to trade in."
        }
      },
      "transfer(address,uint256)": {
        "details": "See {IERC20-transfer}. Requirements: - `recipient` cannot be the zero address. - the caller must have a balance of at least `amount`."
      },
      "transferFrom(address,address,uint256)": {
        "details": "See {IERC20-transferFrom}. Emits an {Approval} event indicating the updated allowance. This is not required by the EIP. See the note at the beginning of {ERC20}. Requirements: - `sender` and `recipient` cannot be the zero address. - `sender` must have a balance of at least `amount`. - the caller must have allowance for ``sender``'s tokens of at least `amount`."
      },
      "transferOwnership(address)": {
        "details": "Transfers ownership of the contract to a new account (`newOwner`). Can only be called by the current owner."
      },
      "updateUserCompleted(address,uint256)": {
        "details": "used to update the status of redemption to \"User Complete\" after an escrow process has been started.",
        "params": {
          "buyer": "the wallet address of product buyer",
          "id": "the id of the escrow, returned to the user after starting of redemption process"
        }
      },
      "updateUserRefund(address,uint256)": {
        "details": "used to update the status of redemption to \"User Refunded\" after an escrow process has been started.",
        "params": {
          "buyer": "the wallet address of product buyer",
          "id": "the id of the escrow, returned to the user after starting of redemption process"
        }
      }
    },
    "version": 1
  },
  "userdoc": {
    "kind": "user",
    "methods": {},
    "version": 1
  }
}