{
  "contractName": "ProductImplementation",
  "abi": [
    {
      "inputs": [],
      "name": "text",
      "outputs": [
        {
          "internalType": "string",
          "name": "",
          "type": "string"
        }
      ],
      "stateMutability": "view",
      "type": "function"
    },
    {
      "inputs": [],
      "name": "value",
      "outputs": [
        {
          "internalType": "uint256",
          "name": "",
          "type": "uint256"
        }
      ],
      "stateMutability": "view",
      "type": "function"
    },
    {
      "inputs": [
        {
          "internalType": "uint256",
          "name": "",
          "type": "uint256"
        }
      ],
      "name": "values",
      "outputs": [
        {
          "internalType": "uint256",
          "name": "",
          "type": "uint256"
        }
      ],
      "stateMutability": "view",
      "type": "function"
    },
    {
      "inputs": [],
      "name": "initializeNonPayable",
      "outputs": [],
      "stateMutability": "nonpayable",
      "type": "function"
    },
    {
      "inputs": [],
      "name": "initializePayable",
      "outputs": [],
      "stateMutability": "payable",
      "type": "function"
    },
    {
      "inputs": [
        {
          "internalType": "uint256",
          "name": "_value",
          "type": "uint256"
        }
      ],
      "name": "initializeNonPayableWithValue",
      "outputs": [],
      "stateMutability": "nonpayable",
      "type": "function"
    },
    {
      "inputs": [
        {
          "internalType": "uint256",
          "name": "_value",
          "type": "uint256"
        }
      ],
      "name": "initializePayableWithValue",
      "outputs": [],
      "stateMutability": "payable",
      "type": "function"
    },
    {
      "inputs": [
        {
          "internalType": "uint256",
          "name": "_value",
          "type": "uint256"
        },
        {
          "internalType": "string",
          "name": "_text",
          "type": "string"
        },
        {
          "internalType": "uint256[]",
          "name": "_values",
          "type": "uint256[]"
        }
      ],
      "name": "initialize",
      "outputs": [],
      "stateMutability": "nonpayable",
      "type": "function"
    },
    {
      "inputs": [],
      "name": "get",
      "outputs": [
        {
          "internalType": "bool",
          "name": "",
          "type": "bool"
        }
      ],
      "stateMutability": "pure",
      "type": "function"
    },
    {
      "inputs": [],
      "name": "version",
      "outputs": [
        {
          "internalType": "string",
          "name": "",
          "type": "string"
        }
      ],
      "stateMutability": "pure",
      "type": "function"
    },
    {
      "inputs": [],
      "name": "reverts",
      "outputs": [],
      "stateMutability": "pure",
      "type": "function"
    },
    {
      "inputs": [
        {
          "internalType": "uint256",
          "name": "a",
          "type": "uint256"
        },
        {
          "internalType": "uint256",
          "name": "b",
          "type": "uint256"
        }
      ],
      "name": "DummyFunction",
      "outputs": [
        {
          "internalType": "uint256",
          "name": "",
          "type": "uint256"
        }
      ],
      "stateMutability": "pure",
      "type": "function"
    }
  ],
  "bytecode": "0x608060405234801561001057600080fd5b506106c5806100206000396000f3fe60806040526004361061009a5760e060020a60003504631f1bd692811461009f578063227367d5146100ca5780633bccbbc9146100e35780633fa4f245146100f857806354fd4d501461011c57806356e0aceb1461014a5780635e383d211461016a5780636d4ce63c1461018a578063763e2831146101a65780639fba1f9a146101c6578063d31f8b6b146101d0578063e79f5bee146101f0575b600080fd5b3480156100ab57600080fd5b506100b46101fe565b6040516100c1919061058b565b60405180910390f35b3480156100d657600080fd5b506100e1600a600055565b005b3480156100ef57600080fd5b506100e161028c565b34801561010457600080fd5b5061010e60005481565b6040519081526020016100c1565b34801561012857600080fd5b50604080518082019091526002815260f060020a6156310260208201526100b4565b34801561015657600080fd5b5061010e61016536600461056a565b6102db565b34801561017657600080fd5b5061010e610185366004610496565b6102ee565b34801561019657600080fd5b50604051600181526020016100c1565b3480156101b257600080fd5b506100e16101c1366004610496565b600055565b6100e16064600055565b3480156101dc57600080fd5b506100e16101eb3660046104ae565b61030f565b6100e16101c1366004610496565b6001805461020b90610636565b80601f016020809104026020016040519081016040528092919081815260200182805461023790610636565b80156102845780601f1061025957610100808354040283529160200191610284565b820191906000526020600020905b81548152906001019060200180831161026757829003601f168201915b505050505081565b60405160e560020a62461bcd02815260206004820152601c60248201527f44756d6d79496d706c656d656e746174696f6e20726576657274656400000000604482015260640160405180910390fd5b60006102e7828461060f565b9392505050565b600281815481106102fe57600080fd5b600091825260209091200154905081565b60008390558151610327906001906020850190610341565b50805161033b9060029060208401906103c5565b50505050565b82805461034d90610636565b90600052602060002090601f01602090048101928261036f57600085556103b5565b82601f1061038857805160ff19168380011785556103b5565b828001600101855582156103b5579182015b828111156103b557825182559160200191906001019061039a565b506103c19291506103ff565b5090565b8280548282559060005260206000209081019282156103b557916020028201828111156103b557825182559160200191906001019061039a565b5b808211156103c15760008155600101610400565b600082601f830112610424578081fd5b8135602067ffffffffffffffff82111561044057610440610675565b80820261044e8282016105de565b838152828101908684018388018501891015610468578687fd5b8693505b8584101561048a57803583526001939093019291840191840161046c565b50979650505050505050565b6000602082840312156104a7578081fd5b5035919050565b6000806000606084860312156104c2578182fd5b8335925060208085013567ffffffffffffffff808211156104e1578485fd5b818701915087601f8301126104f4578485fd5b81358181111561050657610506610675565b610518601f8201601f191685016105de565b818152898583860101111561052b578687fd5b81858501868301378685838301015280965050506040870135925080831115610552578384fd5b505061056086828701610414565b9150509250925092565b6000806040838503121561057c578182fd5b50508035926020909101359150565b6000602080835283518082850152825b818110156105b75785810183015185820160400152820161059b565b818111156105c85783604083870101525b50601f01601f1916929092016040019392505050565b604051601f8201601f1916810167ffffffffffffffff8111828210171561060757610607610675565b604052919050565b600082198211156106315760e060020a634e487b710281526011600452602481fd5b500190565b60028104600182168061064a57607f821691505b6020821081141561066f5760e060020a634e487b710260009081526022600452602490fd5b50919050565b60e060020a634e487b710260009081526041600452602490fdfea2646970667358221220711ed2c48b0f65f895c7f250ae443e769f1c85966ccac91043e491c2d1c6860364736f6c63430008030033",
  "immutableReferences": {},
  "source": "pragma solidity ^0.8.2;\n\n\ncontract ProductImplementation {\n\tuint256 public value;\n  string public text;\n  uint256[] public values;\n\n  function initializeNonPayable() public {\n    value = 10;\n  }\n\n  function initializePayable() public payable {\n    value = 100;\n  }\n\n  function initializeNonPayableWithValue(uint256 _value) public {\n    value = _value;\n  }\n\n  function initializePayableWithValue(uint256 _value) public payable {\n    value = _value;\n  }\n\n  function initialize(uint256 _value, string memory _text, uint256[] memory _values) public {\n    value = _value;\n    text = _text;\n    values = _values;\n  }\n\n  function get() public pure returns (bool) {\n    return true;\n  }\n\n  function version() public pure virtual returns (string memory) {\n    return \"V1\";\n  }\n\n  function reverts() public pure {\n    require(false, \"DummyImplementation reverted\");\n  }\n\n\tfunction DummyFunction(uint256 a, uint256 b) public pure virtual returns (uint256){\n\t\treturn a + b;\n\t}\n\n}\n\ncontract ProductImplementationV2 is ProductImplementation {\n\tuint256 public value2;\n\t\n\tfunction DummyFunction(uint256 a, uint256 b) public pure override returns (uint256){\n\t\treturn a * b;\n\t}\n\n\tfunction version() public pure override returns (string memory) {\n    return \"V2\";\n  }\n\n}",
  "sourcePath": "/Users/jack/Documents/GitHub/HighStreet/client/src/contracts/Mock/ProductImplementation.sol",
  "compiler": {
    "name": "solc",
    "version": "0.8.3+commit.8d00100c.Emscripten.clang"
  },
  "schemaVersion": "3.4.0",
  "updatedAt": "2021-09-27T03:56:40.703Z",
  "devdoc": {
    "kind": "dev",
    "methods": {},
    "version": 1
  },
  "userdoc": {
    "kind": "user",
    "methods": {},
    "version": 1
  }
}