{
  "contractName": "ProductTokenV5",
  "abi": [
    {
      "anonymous": false,
      "inputs": [
        {
          "indexed": true,
          "internalType": "address",
          "name": "owner",
          "type": "address"
        },
        {
          "indexed": true,
          "internalType": "address",
          "name": "spender",
          "type": "address"
        },
        {
          "indexed": false,
          "internalType": "uint256",
          "name": "value",
          "type": "uint256"
        }
      ],
      "name": "Approval",
      "type": "event"
    },
    {
      "anonymous": false,
      "inputs": [
        {
          "indexed": true,
          "internalType": "address",
          "name": "sender",
          "type": "address"
        },
        {
          "indexed": false,
          "internalType": "uint32",
          "name": "amount",
          "type": "uint32"
        },
        {
          "indexed": false,
          "internalType": "uint256",
          "name": "deposit",
          "type": "uint256"
        }
      ],
      "name": "Buy",
      "type": "event"
    },
    {
      "anonymous": false,
      "inputs": [
        {
          "indexed": true,
          "internalType": "address",
          "name": "previousOwner",
          "type": "address"
        },
        {
          "indexed": true,
          "internalType": "address",
          "name": "newOwner",
          "type": "address"
        }
      ],
      "name": "OwnershipTransferred",
      "type": "event"
    },
    {
      "anonymous": false,
      "inputs": [
        {
          "indexed": true,
          "internalType": "address",
          "name": "sender",
          "type": "address"
        },
        {
          "indexed": false,
          "internalType": "uint32",
          "name": "amount",
          "type": "uint32"
        },
        {
          "indexed": false,
          "internalType": "uint256",
          "name": "refund",
          "type": "uint256"
        }
      ],
      "name": "Sell",
      "type": "event"
    },
    {
      "anonymous": false,
      "inputs": [
        {
          "indexed": false,
          "internalType": "bool",
          "name": "isTradable",
          "type": "bool"
        }
      ],
      "name": "Tradable",
      "type": "event"
    },
    {
      "anonymous": false,
      "inputs": [
        {
          "indexed": true,
          "internalType": "address",
          "name": "sender",
          "type": "address"
        },
        {
          "indexed": false,
          "internalType": "uint32",
          "name": "amount",
          "type": "uint32"
        }
      ],
      "name": "Tradein",
      "type": "event"
    },
    {
      "anonymous": false,
      "inputs": [
        {
          "indexed": true,
          "internalType": "address",
          "name": "from",
          "type": "address"
        },
        {
          "indexed": true,
          "internalType": "address",
          "name": "to",
          "type": "address"
        },
        {
          "indexed": false,
          "internalType": "uint256",
          "name": "value",
          "type": "uint256"
        }
      ],
      "name": "Transfer",
      "type": "event"
    },
    {
      "anonymous": false,
      "inputs": [
        {
          "indexed": false,
          "internalType": "address",
          "name": "daiAddress",
          "type": "address"
        },
        {
          "indexed": false,
          "internalType": "address",
          "name": "chainlinkAddress",
          "type": "address"
        }
      ],
      "name": "Update",
      "type": "event"
    },
    {
      "anonymous": false,
      "inputs": [
        {
          "indexed": false,
          "internalType": "address",
          "name": "daiAddress",
          "type": "address"
        },
        {
          "indexed": false,
          "internalType": "address",
          "name": "chainlinkAddress",
          "type": "address"
        }
      ],
      "name": "UpdateHsToken",
      "type": "event"
    },
    {
      "anonymous": false,
      "inputs": [
        {
          "indexed": false,
          "internalType": "address",
          "name": "",
          "type": "address"
        },
        {
          "indexed": false,
          "internalType": "uint256",
          "name": "",
          "type": "uint256"
        },
        {
          "components": [
            {
              "internalType": "enum Escrow.escrowState",
              "name": "state",
              "type": "uint8"
            },
            {
              "internalType": "uint32",
              "name": "amount",
              "type": "uint32"
            },
            {
              "internalType": "uint256",
              "name": "value",
              "type": "uint256"
            }
          ],
          "indexed": false,
          "internalType": "struct Escrow.escrowInfo",
          "name": "",
          "type": "tuple"
        }
      ],
      "name": "escrowStateUpdated",
      "type": "event"
    },
    {
      "stateMutability": "nonpayable",
      "type": "fallback"
    },
    {
      "inputs": [],
      "name": "INDEX_DAI",
      "outputs": [
        {
          "internalType": "uint256",
          "name": "",
          "type": "uint256"
        }
      ],
      "stateMutability": "view",
      "type": "function"
    },
    {
      "inputs": [],
      "name": "INDEX_ETH",
      "outputs": [
        {
          "internalType": "uint256",
          "name": "",
          "type": "uint256"
        }
      ],
      "stateMutability": "view",
      "type": "function"
    },
    {
      "inputs": [],
      "name": "INDEX_HIGH",
      "outputs": [
        {
          "internalType": "uint256",
          "name": "",
          "type": "uint256"
        }
      ],
      "stateMutability": "view",
      "type": "function"
    },
    {
      "inputs": [
        {
          "internalType": "uint32",
          "name": "_amountProduct",
          "type": "uint32"
        }
      ],
      "name": "_getPriceForN",
      "outputs": [
        {
          "internalType": "uint256",
          "name": "price",
          "type": "uint256"
        },
        {
          "internalType": "uint256",
          "name": "fee",
          "type": "uint256"
        }
      ],
      "stateMutability": "view",
      "type": "function"
    },
    {
      "inputs": [
        {
          "internalType": "address",
          "name": "owner",
          "type": "address"
        },
        {
          "internalType": "address",
          "name": "spender",
          "type": "address"
        }
      ],
      "name": "allowance",
      "outputs": [
        {
          "internalType": "uint256",
          "name": "",
          "type": "uint256"
        }
      ],
      "stateMutability": "view",
      "type": "function"
    },
    {
      "inputs": [
        {
          "internalType": "address",
          "name": "spender",
          "type": "address"
        },
        {
          "internalType": "uint256",
          "name": "amount",
          "type": "uint256"
        }
      ],
      "name": "approve",
      "outputs": [
        {
          "internalType": "bool",
          "name": "",
          "type": "bool"
        }
      ],
      "stateMutability": "nonpayable",
      "type": "function"
    },
    {
      "inputs": [
        {
          "internalType": "address",
          "name": "account",
          "type": "address"
        }
      ],
      "name": "balanceOf",
      "outputs": [
        {
          "internalType": "uint256",
          "name": "",
          "type": "uint256"
        }
      ],
      "stateMutability": "view",
      "type": "function"
    },
    {
      "inputs": [
        {
          "internalType": "uint256",
          "name": "ids_",
          "type": "uint256"
        },
        {
          "internalType": "uint256",
          "name": "maxPrice_",
          "type": "uint256"
        }
      ],
      "name": "buyERC20",
      "outputs": [],
      "stateMutability": "nonpayable",
      "type": "function"
    },
    {
      "inputs": [],
      "name": "buyETH",
      "outputs": [],
      "stateMutability": "payable",
      "type": "function"
    },
    {
      "inputs": [
        {
          "internalType": "uint256",
          "name": "_amountReserve",
          "type": "uint256"
        }
      ],
      "name": "calculateBuyReturn",
      "outputs": [
        {
          "internalType": "uint32",
          "name": "mintAmount",
          "type": "uint32"
        }
      ],
      "stateMutability": "view",
      "type": "function"
    },
    {
      "inputs": [
        {
          "internalType": "uint32",
          "name": "_amountProduct",
          "type": "uint32"
        }
      ],
      "name": "calculateSellReturn",
      "outputs": [
        {
          "internalType": "uint256",
          "name": "soldAmount",
          "type": "uint256"
        }
      ],
      "stateMutability": "view",
      "type": "function"
    },
    {
      "inputs": [
        {
          "internalType": "uint32",
          "name": "_amount",
          "type": "uint32"
        }
      ],
      "name": "calculateTradinReturn",
      "outputs": [
        {
          "internalType": "uint256",
          "name": "",
          "type": "uint256"
        }
      ],
      "stateMutability": "view",
      "type": "function"
    },
    {
      "inputs": [
        {
          "internalType": "uint256",
          "name": "amount_",
          "type": "uint256"
        }
      ],
      "name": "claimSupplier",
      "outputs": [],
      "stateMutability": "nonpayable",
      "type": "function"
    },
    {
      "inputs": [],
      "name": "decimals",
      "outputs": [
        {
          "internalType": "uint8",
          "name": "",
          "type": "uint8"
        }
      ],
      "stateMutability": "view",
      "type": "function"
    },
    {
      "inputs": [
        {
          "internalType": "address",
          "name": "spender",
          "type": "address"
        },
        {
          "internalType": "uint256",
          "name": "subtractedValue",
          "type": "uint256"
        }
      ],
      "name": "decreaseAllowance",
      "outputs": [
        {
          "internalType": "bool",
          "name": "",
          "type": "bool"
        }
      ],
      "stateMutability": "nonpayable",
      "type": "function"
    },
    {
      "inputs": [
        {
          "internalType": "address",
          "name": "",
          "type": "address"
        },
        {
          "internalType": "uint256",
          "name": "",
          "type": "uint256"
        }
      ],
      "name": "escrowList",
      "outputs": [
        {
          "internalType": "enum Escrow.escrowState",
          "name": "state",
          "type": "uint8"
        },
        {
          "internalType": "uint32",
          "name": "amount",
          "type": "uint32"
        },
        {
          "internalType": "uint256",
          "name": "value",
          "type": "uint256"
        }
      ],
      "stateMutability": "view",
      "type": "function"
    },
    {
      "inputs": [],
      "name": "getAvailability",
      "outputs": [
        {
          "internalType": "uint32",
          "name": "available",
          "type": "uint32"
        }
      ],
      "stateMutability": "view",
      "type": "function"
    },
    {
      "inputs": [],
      "name": "getCurrentPrice",
      "outputs": [
        {
          "internalType": "uint256",
          "name": "price",
          "type": "uint256"
        }
      ],
      "stateMutability": "view",
      "type": "function"
    },
    {
      "inputs": [
        {
          "internalType": "uint256",
          "name": "ids_",
          "type": "uint256"
        }
      ],
      "name": "getCurrentPriceByIds",
      "outputs": [
        {
          "internalType": "uint256",
          "name": "",
          "type": "uint256"
        }
      ],
      "stateMutability": "view",
      "type": "function"
    },
    {
      "inputs": [
        {
          "internalType": "address",
          "name": "_buyer",
          "type": "address"
        }
      ],
      "name": "getEscrowHistory",
      "outputs": [
        {
          "components": [
            {
              "internalType": "enum Escrow.escrowState",
              "name": "state",
              "type": "uint8"
            },
            {
              "internalType": "uint32",
              "name": "amount",
              "type": "uint32"
            },
            {
              "internalType": "uint256",
              "name": "value",
              "type": "uint256"
            }
          ],
          "internalType": "struct Escrow.escrowInfo[]",
          "name": "",
          "type": "tuple[]"
        }
      ],
      "stateMutability": "view",
      "type": "function"
    },
    {
      "inputs": [],
      "name": "getManager",
      "outputs": [
        {
          "internalType": "address",
          "name": "",
          "type": "address"
        }
      ],
      "stateMutability": "view",
      "type": "function"
    },
    {
      "inputs": [],
      "name": "getNewAttribute",
      "outputs": [
        {
          "internalType": "uint256",
          "name": "",
          "type": "uint256"
        }
      ],
      "stateMutability": "view",
      "type": "function"
    },
    {
      "inputs": [],
      "name": "getPoolInfo",
      "outputs": [
        {
          "components": [
            {
              "internalType": "uint256",
              "name": "amount",
              "type": "uint256"
            },
            {
              "internalType": "uint256",
              "name": "accRewardPerShare",
              "type": "uint256"
            },
            {
              "internalType": "uint256",
              "name": "tokenReward",
              "type": "uint256"
            }
          ],
          "internalType": "struct ProductTokenV1.PoolInfo",
          "name": "",
          "type": "tuple"
        }
      ],
      "stateMutability": "view",
      "type": "function"
    },
    {
      "inputs": [
        {
          "internalType": "uint32",
          "name": "_amountProduct",
          "type": "uint32"
        }
      ],
      "name": "getPriceForN",
      "outputs": [
        {
          "internalType": "uint256",
          "name": "price",
          "type": "uint256"
        }
      ],
      "stateMutability": "view",
      "type": "function"
    },
    {
      "inputs": [
        {
          "internalType": "address",
          "name": "_buyer",
          "type": "address"
        },
        {
          "internalType": "uint256",
          "name": "_id",
          "type": "uint256"
        }
      ],
      "name": "getRedeemStatus",
      "outputs": [
        {
          "internalType": "enum Escrow.escrowState",
          "name": "",
          "type": "uint8"
        }
      ],
      "stateMutability": "view",
      "type": "function"
    },
    {
      "inputs": [],
      "name": "getSupplierBalance",
      "outputs": [
        {
          "internalType": "uint256",
          "name": "",
          "type": "uint256"
        }
      ],
      "stateMutability": "view",
      "type": "function"
    },
    {
      "inputs": [],
      "name": "getSupplierInfo",
      "outputs": [
        {
          "components": [
            {
              "internalType": "uint256",
              "name": "amount",
              "type": "uint256"
            },
            {
              "internalType": "address",
              "name": "wallet",
              "type": "address"
            }
          ],
          "internalType": "struct ProductTokenV1.supplierInfo",
          "name": "",
          "type": "tuple"
        }
      ],
      "stateMutability": "view",
      "type": "function"
    },
    {
      "inputs": [
        {
          "internalType": "address",
          "name": "addr_",
          "type": "address"
        }
      ],
      "name": "getUserInfo",
      "outputs": [
        {
          "components": [
            {
              "internalType": "uint256",
              "name": "amount",
              "type": "uint256"
            },
            {
              "internalType": "uint256",
              "name": "rewardDebt",
              "type": "uint256"
            },
            {
              "internalType": "uint256[]",
              "name": "records",
              "type": "uint256[]"
            }
          ],
          "internalType": "struct ProductTokenV1.UserInfo",
          "name": "",
          "type": "tuple"
        }
      ],
      "stateMutability": "view",
      "type": "function"
    },
    {
      "inputs": [
        {
          "internalType": "address",
          "name": "addr_",
          "type": "address"
        }
      ],
      "name": "getUserReward",
      "outputs": [
        {
          "internalType": "uint256",
          "name": "",
          "type": "uint256"
        }
      ],
      "stateMutability": "nonpayable",
      "type": "function"
    },
    {
      "inputs": [
        {
          "internalType": "address",
          "name": "spender",
          "type": "address"
        },
        {
          "internalType": "uint256",
          "name": "addedValue",
          "type": "uint256"
        }
      ],
      "name": "increaseAllowance",
      "outputs": [
        {
          "internalType": "bool",
          "name": "",
          "type": "bool"
        }
      ],
      "stateMutability": "nonpayable",
      "type": "function"
    },
    {
      "inputs": [
        {
          "internalType": "string",
          "name": "_name",
          "type": "string"
        },
        {
          "internalType": "string",
          "name": "_symbol",
          "type": "string"
        },
        {
          "internalType": "address",
          "name": "_bondingCurveAddress",
          "type": "address"
        },
        {
          "internalType": "uint32",
          "name": "_reserveRatio",
          "type": "uint32"
        },
        {
          "internalType": "uint32",
          "name": "_maxTokenCount",
          "type": "uint32"
        },
        {
          "internalType": "uint32",
          "name": "_supplyOffset",
          "type": "uint32"
        },
        {
          "internalType": "uint256",
          "name": "_baseReserve",
          "type": "uint256"
        }
      ],
      "name": "initialize",
      "outputs": [],
      "stateMutability": "nonpayable",
      "type": "function"
    },
    {
      "inputs": [
        {
          "internalType": "string",
          "name": "_name",
          "type": "string"
        },
        {
          "internalType": "string",
          "name": "_symbol",
          "type": "string"
        },
        {
          "internalType": "uint32",
          "name": "_reserveRatio",
          "type": "uint32"
        },
        {
          "internalType": "uint32",
          "name": "_maxTokenCount",
          "type": "uint32"
        },
        {
          "internalType": "uint32",
          "name": "_supplyOffset",
          "type": "uint32"
        },
        {
          "internalType": "uint256",
          "name": "_baseReserve",
          "type": "uint256"
        },
        {
          "internalType": "uint256",
          "name": "_newInitValue",
          "type": "uint256"
        },
        {
          "internalType": "address",
          "name": "_daiAddress",
          "type": "address"
        },
        {
          "internalType": "address",
          "name": "_chainlink",
          "type": "address"
        }
      ],
      "name": "initializeV3",
      "outputs": [],
      "stateMutability": "nonpayable",
      "type": "function"
    },
    {
      "inputs": [
        {
          "internalType": "enum Escrow.escrowState",
          "name": "_state",
          "type": "uint8"
        }
      ],
      "name": "isStateCompleted",
      "outputs": [
        {
          "internalType": "bool",
          "name": "",
          "type": "bool"
        }
      ],
      "stateMutability": "pure",
      "type": "function"
    },
    {
      "inputs": [],
      "name": "launch",
      "outputs": [],
      "stateMutability": "nonpayable",
      "type": "function"
    },
    {
      "inputs": [],
      "name": "maxTokenCount",
      "outputs": [
        {
          "internalType": "uint32",
          "name": "",
          "type": "uint32"
        }
      ],
      "stateMutability": "view",
      "type": "function"
    },
    {
      "inputs": [],
      "name": "name",
      "outputs": [
        {
          "internalType": "string",
          "name": "",
          "type": "string"
        }
      ],
      "stateMutability": "view",
      "type": "function"
    },
    {
      "inputs": [],
      "name": "newAttribute",
      "outputs": [
        {
          "internalType": "uint256",
          "name": "",
          "type": "uint256"
        }
      ],
      "stateMutability": "view",
      "type": "function"
    },
    {
      "inputs": [],
      "name": "newInitValue",
      "outputs": [
        {
          "internalType": "uint256",
          "name": "",
          "type": "uint256"
        }
      ],
      "stateMutability": "view",
      "type": "function"
    },
    {
      "inputs": [],
      "name": "owner",
      "outputs": [
        {
          "internalType": "address",
          "name": "",
          "type": "address"
        }
      ],
      "stateMutability": "view",
      "type": "function"
    },
    {
      "inputs": [],
      "name": "pause",
      "outputs": [],
      "stateMutability": "nonpayable",
      "type": "function"
    },
    {
      "inputs": [],
      "name": "poolInfo",
      "outputs": [
        {
          "internalType": "uint256",
          "name": "amount",
          "type": "uint256"
        },
        {
          "internalType": "uint256",
          "name": "accRewardPerShare",
          "type": "uint256"
        },
        {
          "internalType": "uint256",
          "name": "tokenReward",
          "type": "uint256"
        }
      ],
      "stateMutability": "view",
      "type": "function"
    },
    {
      "inputs": [],
      "name": "renounceOwnership",
      "outputs": [],
      "stateMutability": "nonpayable",
      "type": "function"
    },
    {
      "inputs": [],
      "name": "reserveBalance",
      "outputs": [
        {
          "internalType": "uint256",
          "name": "",
          "type": "uint256"
        }
      ],
      "stateMutability": "view",
      "type": "function"
    },
    {
      "inputs": [],
      "name": "reserveRatio",
      "outputs": [
        {
          "internalType": "uint32",
          "name": "",
          "type": "uint32"
        }
      ],
      "stateMutability": "view",
      "type": "function"
    },
    {
      "inputs": [
        {
          "internalType": "uint32",
          "name": "amount_",
          "type": "uint32"
        },
        {
          "internalType": "bool",
          "name": "isHarvest_",
          "type": "bool"
        }
      ],
      "name": "sell",
      "outputs": [],
      "stateMutability": "nonpayable",
      "type": "function"
    },
    {
      "inputs": [
        {
          "internalType": "address",
          "name": "_address",
          "type": "address"
        }
      ],
      "name": "setBondingCurve",
      "outputs": [],
      "stateMutability": "nonpayable",
      "type": "function"
    },
    {
      "inputs": [
        {
          "internalType": "address",
          "name": "addr_",
          "type": "address"
        }
      ],
      "name": "setManager",
      "outputs": [],
      "stateMutability": "nonpayable",
      "type": "function"
    },
    {
      "inputs": [
        {
          "internalType": "address",
          "name": "addr_",
          "type": "address"
        }
      ],
      "name": "setupTokenUtils",
      "outputs": [],
      "stateMutability": "nonpayable",
      "type": "function"
    },
    {
      "inputs": [],
      "name": "supplier",
      "outputs": [
        {
          "internalType": "uint256",
          "name": "amount",
          "type": "uint256"
        },
        {
          "internalType": "address",
          "name": "wallet",
          "type": "address"
        }
      ],
      "stateMutability": "view",
      "type": "function"
    },
    {
      "inputs": [],
      "name": "symbol",
      "outputs": [
        {
          "internalType": "string",
          "name": "",
          "type": "string"
        }
      ],
      "stateMutability": "view",
      "type": "function"
    },
    {
      "inputs": [],
      "name": "totalSupply",
      "outputs": [
        {
          "internalType": "uint256",
          "name": "",
          "type": "uint256"
        }
      ],
      "stateMutability": "view",
      "type": "function"
    },
    {
      "inputs": [
        {
          "internalType": "uint32",
          "name": "amount_",
          "type": "uint32"
        },
        {
          "internalType": "bool",
          "name": "isHarvest_",
          "type": "bool"
        }
      ],
      "name": "tradein",
      "outputs": [],
      "stateMutability": "nonpayable",
      "type": "function"
    },
    {
      "inputs": [],
      "name": "tradeinCount",
      "outputs": [
        {
          "internalType": "uint32",
          "name": "",
          "type": "uint32"
        }
      ],
      "stateMutability": "view",
      "type": "function"
    },
    {
      "inputs": [],
      "name": "tradeinReserveBalance",
      "outputs": [
        {
          "internalType": "uint256",
          "name": "",
          "type": "uint256"
        }
      ],
      "stateMutability": "view",
      "type": "function"
    },
    {
      "inputs": [
        {
          "internalType": "address",
          "name": "recipient",
          "type": "address"
        },
        {
          "internalType": "uint256",
          "name": "amount",
          "type": "uint256"
        }
      ],
      "name": "transfer",
      "outputs": [
        {
          "internalType": "bool",
          "name": "",
          "type": "bool"
        }
      ],
      "stateMutability": "nonpayable",
      "type": "function"
    },
    {
      "inputs": [
        {
          "internalType": "address",
          "name": "sender",
          "type": "address"
        },
        {
          "internalType": "address",
          "name": "recipient",
          "type": "address"
        },
        {
          "internalType": "uint256",
          "name": "amount",
          "type": "uint256"
        }
      ],
      "name": "transferFrom",
      "outputs": [
        {
          "internalType": "bool",
          "name": "",
          "type": "bool"
        }
      ],
      "stateMutability": "nonpayable",
      "type": "function"
    },
    {
      "inputs": [
        {
          "internalType": "address",
          "name": "newOwner",
          "type": "address"
        }
      ],
      "name": "transferOwnership",
      "outputs": [],
      "stateMutability": "nonpayable",
      "type": "function"
    },
    {
      "inputs": [],
      "name": "updatePool",
      "outputs": [],
      "stateMutability": "nonpayable",
      "type": "function"
    },
    {
      "inputs": [
        {
          "internalType": "address",
          "name": "wallet_",
          "type": "address"
        }
      ],
      "name": "updateSupplierInfo",
      "outputs": [],
      "stateMutability": "nonpayable",
      "type": "function"
    },
    {
      "inputs": [
        {
          "internalType": "address",
          "name": "buyer",
          "type": "address"
        },
        {
          "internalType": "uint256",
          "name": "id",
          "type": "uint256"
        }
      ],
      "name": "updateUserCompleted",
      "outputs": [],
      "stateMutability": "nonpayable",
      "type": "function"
    },
    {
      "inputs": [
        {
          "internalType": "address",
          "name": "buyer",
          "type": "address"
        },
        {
          "internalType": "uint256",
          "name": "id",
          "type": "uint256"
        }
      ],
      "name": "updateUserRefund",
      "outputs": [],
      "stateMutability": "nonpayable",
      "type": "function"
    },
    {
      "inputs": [
        {
          "internalType": "address",
          "name": "",
          "type": "address"
        }
      ],
      "name": "userInfo",
      "outputs": [
        {
          "internalType": "uint256",
          "name": "amount",
          "type": "uint256"
        },
        {
          "internalType": "uint256",
          "name": "rewardDebt",
          "type": "uint256"
        }
      ],
      "stateMutability": "view",
      "type": "function"
    },
    {
      "inputs": [],
      "name": "voucher",
      "outputs": [
        {
          "internalType": "address",
          "name": "addr",
          "type": "address"
        },
        {
          "internalType": "contract IVNFT",
          "name": "instance",
          "type": "address"
        },
        {
          "internalType": "uint256",
          "name": "tokenId",
          "type": "uint256"
        },
        {
          "internalType": "bool",
          "name": "isEnable",
          "type": "bool"
        }
      ],
      "stateMutability": "view",
      "type": "function"
    },
    {
      "inputs": [
        {
          "internalType": "uint256",
          "name": "ids_",
          "type": "uint256"
        },
        {
          "internalType": "uint256",
          "name": "amount_",
          "type": "uint256"
        },
        {
          "internalType": "address",
          "name": "to_",
          "type": "address"
        }
      ],
      "name": "withdrawERC20",
      "outputs": [],
      "stateMutability": "nonpayable",
      "type": "function"
    },
    {
      "inputs": [
        {
          "internalType": "uint256",
          "name": "value_",
          "type": "uint256"
        }
      ],
      "name": "withdrawEther",
      "outputs": [],
      "stateMutability": "payable",
      "type": "function"
    },
    {
      "inputs": [
        {
          "internalType": "string",
          "name": "_name",
          "type": "string"
        },
        {
          "internalType": "string",
          "name": "_symbol",
          "type": "string"
        },
        {
          "internalType": "address",
          "name": "_bondingCurveAddress",
          "type": "address"
        },
        {
          "internalType": "uint32",
          "name": "_reserveRatio",
          "type": "uint32"
        },
        {
          "internalType": "uint32",
          "name": "_maxTokenCount",
          "type": "uint32"
        },
        {
          "internalType": "uint32",
          "name": "_supplyOffset",
          "type": "uint32"
        },
        {
          "internalType": "uint256",
          "name": "_baseReserve",
          "type": "uint256"
        },
        {
          "internalType": "uint256",
          "name": "_newInitValue",
          "type": "uint256"
        },
        {
          "internalType": "address",
          "name": "_daiAddress",
          "type": "address"
        },
        {
          "internalType": "address",
          "name": "_chainlink",
          "type": "address"
        }
      ],
      "name": "initializeV5",
      "outputs": [],
      "stateMutability": "nonpayable",
      "type": "function"
    },
    {
      "inputs": [],
      "name": "getNewInitValue",
      "outputs": [
        {
          "internalType": "uint256",
          "name": "",
          "type": "uint256"
        }
      ],
      "stateMutability": "view",
      "type": "function"
    }
  ],
  "bytecode": "0x608060405234801561001057600080fd5b506158b980620000216000396000f3fe6080604052600436106103685760003560e060020a9004806374a7b012116101cc578063c4e627c2116100fc578063dd62ed3e1161009f578063dd62ed3e14610b78578063deebbef114610bbe578063e3161ddd14610bde578063e67dc51814610bf3578063eb91d37e14610c09578063efea8a1314610c1e578063f2fde38b14610c3e578063f97511d314610c5e578063fba7d65014610c7e57610368565b8063c4e627c214610a29578063c660796a14610a4e578063c757d4c714610a6e578063c75ebb8214610a8e578063cdda418c14610aae578063d0ebdbe714610b0d578063d500958414610b2d578063dd304b1a14610b4b57610368565b8063a10954fe1161016f578063a10954fe14610924578063a457c2d71461093a578063a9059cbb1461095a578063aa4985cc1461097a578063af22803e1461098f578063b36e6dca146109af578063b679ef38146109cf578063ba7a93b6146109e5578063c2a7925714610a0957610368565b806374a7b012146107fd5780637a53e0401461085f578063828f3a9c146108745780638456cb59146108945780638da5cb5b146108a957806395d89b41146108cb578063964a6afe146108e05780639b9ffbf3146108f557610368565b80633bed33ce116102a757806360246c881161024a57806360246c88146106c25780636386c1c7146106f957806363cc06681461072657806365d10897146107465780636e74607b146107665780636fed69741461079357806370a08231146107b3578063715018a6146107d357806374a21872146107e857610368565b80633bed33ce146105ca57806343ff1fb8146105dd578063483335a1146105fd578063491052cd146106135780634b9abc26146106335780635a2f3d09146106485780635c8ea093146106825780635e88752c146106a257610368565b80631b892eb31161030f5780631b892eb3146104c3578063224e4f48146104e357806323b872dd146105035780632f0a3fe414610523578063313ce5671461053857806335d43be41461055457806336da44681461056957806339509351146105aa57610368565b806301339c211461037757806306fdde031461038e578063095ea7b3146103b95780630c7d5cd8146103e95780630ccee99b1461041b57806318160ddd1461043b5780631959a0021461045a57806319d5b587146104a3575b34801561037457600080fd5b50005b34801561038357600080fd5b5061038c610c86565b005b34801561039a57600080fd5b506103a3610d6e565b6040516103b09190615378565b60405180910390f35b3480156103c557600080fd5b506103d96103d4366004614e5c565b610e00565b60405190151581526020016103b0565b3480156103f557600080fd5b50609b546104069063ffffffff1681565b60405163ffffffff90911681526020016103b0565b34801561042757600080fd5b5061038c610436366004614e5c565b610e17565b34801561044757600080fd5b506035545b6040519081526020016103b0565b34801561046657600080fd5b5061048e610475366004614dac565b60a7602052600090815260409020805460019091015482565b604080519283526020830191909152016103b0565b3480156104af57600080fd5b5061044c6104be3660046151a8565b610e9e565b3480156104cf57600080fd5b5061038c6104de366004614dac565b610f9f565b3480156104ef57600080fd5b5061044c6104fe3660046151a8565b611006565b34801561050f57600080fd5b506103d961051e366004614e1c565b61102b565b34801561052f57600080fd5b5061044c6110f4565b34801561054457600080fd5b50604051601281526020016103b0565b34801561056057600080fd5b5060aa5461044c565b34801561057557600080fd5b50609e54609f5461058d9190600160a060020a031682565b60408051928352600160a060020a039091166020830152016103b0565b3480156105b657600080fd5b506103d96105c5366004614e5c565b61110a565b61038c6105d836600461511f565b611141565b3480156105e957600080fd5b5061038c6105f8366004614dac565b6111f1565b34801561060957600080fd5b5061044c60a95481565b34801561061f57600080fd5b506103d961062e366004614ea3565b61129e565b34801561063f57600080fd5b5061044c600181565b34801561065457600080fd5b5060a05460a15460a25461066792919083565b604080519384526020840192909252908201526060016103b0565b34801561068e57600080fd5b5061038c61069d366004615053565b6112f8565b3480156106ae57600080fd5b5061038c6106bd36600461511f565b611370565b3480156106ce57600080fd5b506106d761155c565b60408051825181526020808401519082015291810151908201526060016103b0565b34801561070557600080fd5b50610719610714366004614dac565b6115a5565b6040516103b09190615615565b34801561073257600080fd5b5061044c61074136600461511f565b61167e565b34801561075257600080fd5b5061038c610761366004614f79565b6117ab565b34801561077257600080fd5b50610786610781366004614dac565b611833565b6040516103b091906152f7565b34801561079f57600080fd5b5061038c6107ae3660046151e0565b611919565b3480156107bf57600080fd5b5061044c6107ce366004614dac565b611bf8565b3480156107df57600080fd5b5061038c611c13565b3480156107f457600080fd5b5061044c600081565b34801561080957600080fd5b5060408051808201825260008082526020918201528151808301909252609e548252609f54600160a060020a0316908201526040805182518152602092830151600160a060020a031692810192909252016103b0565b34801561086b57600080fd5b50610406611c7d565b34801561088057600080fd5b5061040661088f36600461511f565b611cc9565b3480156108a057600080fd5b5061038c611cdd565b3480156108b557600080fd5b506108be611dae565b6040516103b09190615259565b3480156108d757600080fd5b506103a3611dbd565b3480156108ec57600080fd5b50609e5461044c565b34801561090157600080fd5b50610915610910366004614e5c565b611dcc565b6040516103b093929190615353565b34801561093057600080fd5b5061044c60995481565b34801561094657600080fd5b506103d9610955366004614e5c565b611e17565b34801561096657600080fd5b506103d9610975366004614e5c565b611eb8565b34801561098657600080fd5b5061044c600281565b34801561099b57600080fd5b5061048e6109aa3660046151a8565b611ec5565b3480156109bb57600080fd5b5061038c6109ca366004615170565b611f88565b3480156109db57600080fd5b5061044c60aa5481565b3480156109f157600080fd5b50609b5461040690604060020a900463ffffffff1681565b348015610a1557600080fd5b5061038c610a2436600461514f565b612262565b348015610a3557600080fd5b50609b5461040690640100000000900463ffffffff1681565b348015610a5a57600080fd5b5061038c610a693660046151e0565b61297b565b348015610a7a57600080fd5b5061038c610a89366004614e5c565b612ca0565b348015610a9a57600080fd5b5061044c610aa9366004614dac565b612d84565b348015610aba57600080fd5b5060a35460a45460a55460a654610ae093600160a060020a039081169316919060ff1684565b60408051600160a060020a03958616815294909316602085015291830152151560608201526080016103b0565b348015610b1957600080fd5b5061038c610b28366004614dac565b612de9565b348015610b3957600080fd5b50609c54600160a060020a03166108be565b348015610b5757600080fd5b50610b6b610b66366004614e5c565b612e66565b6040516103b09190615345565b348015610b8457600080fd5b5061044c610b93366004614de4565b600160a060020a03918216600090815260346020908152604080832093909416825291909152205490565b348015610bca57600080fd5b5061038c610bd9366004614dac565b612ebc565b348015610bea57600080fd5b5061038c612f69565b348015610bff57600080fd5b5061044c609a5481565b348015610c1557600080fd5b5061044c612fa8565b348015610c2a57600080fd5b5061038c610c39366004614ec2565b612fb4565b348015610c4a57600080fd5b5061038c610c59366004614dac565b613049565b348015610c6a57600080fd5b5061044c610c793660046151a8565b613144565b61038c61319b565b33610c8f611dae565b600160a060020a031614610cc15760405160e560020a62461bcd028152600401610cb890615572565b60405180910390fd5b60985460ff1615610d285760405160e560020a62461bcd02815260206004820152602560248201527f5468652070726f6475637420746f6b656e20697320616c7265616479206c6175604482015260da60020a641b98da1959026064820152608401610cb8565b6098805460ff191660019081179091556040519081527f65c5ccecef030677b73a1403e7e69ef84d05db9d1732959d543d32f4419909b8906020015b60405180910390a1565b606060368054610d7d90615760565b80601f0160208091040260200160405190810160405280929190818152602001828054610da990615760565b8015610df65780601f10610dcb57610100808354040283529160200191610df6565b820191906000526020600020905b815481529060010190602001808311610dd957829003601f168201915b5050505050905090565b6000610e0d338484613515565b5060015b92915050565b610e1f611dae565b600160a060020a031633600160a060020a03161480610e485750609c54600160a060020a031633145b610e675760405160e560020a62461bcd028152600401610cb89061553b565b600160a060020a038216610e905760405160e560020a62461bcd028152600401610cb8906153cb565b610e9a8282613646565b5050565b6000808263ffffffff1611610ec85760405160e560020a62461bcd028152600401610cb890615470565b609b54600090610eff9063ffffffff606060020a8204811691610ef99187811691604060020a90048116906137bf16565b906137bf565b609d54609a54609b5460405160e060020a631c949873028152939450600160a060020a0390921692631c94987392610f46928692909163ffffffff1690899060040161567a565b60206040518083038186803b158015610f5e57600080fd5b505afa158015610f72573d6000803e3d6000fd5b505050506040513d601f19601f82011682018060405250810190610f969190615137565b9150505b919050565b33610fa8611dae565b600160a060020a031614610fd15760405160e560020a62461bcd028152600401610cb890615572565b600160a060020a038116610fe457600080fd5b60a88054600160a060020a031916600160a060020a0392909216919091179055565b6000806000611014846137d2565b90925090506110238282613889565b949350505050565b6000611038848484613895565b600160a060020a0384166000908152603460209081526040808320338452909152902054828110156110d55760405160e560020a62461bcd02815260206004820152602860248201527f45524332303a207472616e7366657220616d6f756e742065786365656473206160448201527f6c6c6f77616e63650000000000000000000000000000000000000000000000006064820152608401610cb8565b6110e985336110e48685615724565b613515565b506001949350505050565b600060a954600161110591906156a2565b905090565b336000818152603460209081526040808320600160a060020a03871684529091528120549091610e0d9185906110e49086906156a2565b3361114a611dae565b600160a060020a0316146111735760405160e560020a62461bcd028152600401610cb890615572565b30316111c45760405160e560020a62461bcd02815260206004820152600f60248201527f6e6f20656e6f75676820657468657200000000000000000000000000000000006044820152606401610cb8565b604051339082156108fc029083906000818181858888f19350505050158015610e9a573d6000803e3d6000fd5b336111fa611dae565b600160a060020a0316146112235760405160e560020a62461bcd028152600401610cb890615572565b600160a060020a03811661127c5760405160e560020a62461bcd02815260206004820152600f60248201527f496e76616c6964206164647265737300000000000000000000000000000000006044820152606401610cb8565b609d8054600160a060020a031916600160a060020a0392909216919091179055565b600060038260038111156112c55760e060020a634e487b7102600052602160045260246000fd5b1480610e11575060028260038111156112f15760e060020a634e487b7102600052602160045260246000fd5b1492915050565b600054610100900460ff1680611311575060005460ff16155b6113305760405160e560020a62461bcd028152600401610cb8906154de565b600054610100900460ff16158015611352576000805461ffff19166101011790555b8015611364576000805461ff00191690555b50505050505050505050565b609f54600160a060020a03166113cb5760405160e560020a62461bcd02815260206004820152601160248201527f77616c6c657420697320696e76616c69640000000000000000000000000000006044820152606401610cb8565b609f54600160a060020a031633146114285760405160e560020a62461bcd02815260206004820152601a60248201527f5468652061646472657373206973206e6f7420616c6c6f7765640000000000006044820152606401610cb8565b60a85460405160e060020a63bf418de102815260016004820152600091600160a060020a03169063bf418de19060240160206040518083038186803b15801561147057600080fd5b505afa158015611484573d6000803e3d6000fd5b505050506040513d601f19601f820116820180604052508101906114a89190614dc8565b609e54909150819083116115575760405160e060020a63a9059cbb028152600090600160a060020a0383169063a9059cbb906114ea903390889060040161526d565b602060405180830381600087803b15801561150457600080fd5b505af1158015611518573d6000803e3d6000fd5b505050506040513d601f19601f8201168201806040525081019061153c9190614e87565b9050801561155557609e546115519085613889565b609e555b505b505050565b61158060405180606001604052806000815260200160008152602001600081525090565b506040805160608101825260a054815260a154602082015260a2549181019190915290565b6115c960405180606001604052806000815260200160008152602001606081525090565b600160a060020a0382166115f25760405160e560020a62461bcd028152600401610cb8906154a7565b600160a060020a038216600090815260a760209081526040918290208251606081018452815481526001820154818401526002820180548551818602810186018752818152929593949386019383018282801561166e57602002820191906000526020600020905b81548152602001906001019080831161165a575b5050505050815250509050919050565b60a85460405160e060020a6315fc65d902815260048101839052600091600160a060020a0316906315fc65d99060240160206040518083038186803b1580156116c657600080fd5b505afa1580156116da573d6000803e3d6000fd5b505050506040513d601f19601f820116820180604052508101906116fe9190614e87565b61171d5760405160e560020a62461bcd028152600401610cb890615439565b60a854600160a060020a0316631c6e7b20611736612fa8565b60405160e060020a63ffffffff84160281526004810191909152602481018590526044015b60206040518083038186803b15801561177357600080fd5b505afa158015611787573d6000803e3d6000fd5b505050506040513d601f19601f82011682018060405250810190610e119190615137565b600054610100900460ff16806117c4575060005460ff16155b6117e35760405160e560020a62461bcd028152600401610cb8906154de565b600054610100900460ff16158015611805576000805461ffff19166101011790555b61180f8b8b613a81565b60aa8490558015611826576000805461ff00191690555b5050505050505050505050565b600160a060020a0381166000908152606560209081526040808320805482518185028101850190935280835260609492939192909184015b8282101561190e576000848152602090206040805160608101909152600284029091018054829060ff1660038111156118b75760e060020a634e487b7102600052602160045260246000fd5b60038111156118d95760e060020a634e487b7102600052602160045260246000fd5b81528154610100900463ffffffff1660208083019190915260019283015460409092019190915291835292909201910161186b565b505050509050919050565b60985460ff1661193e5760405160e560020a62461bcd028152600401610cb8906155a7565b60a85460405160e060020a6315fc65d902815260016004820152600160a060020a03909116906315fc65d99060240160206040518083038186803b15801561198557600080fd5b505afa158015611999573d6000803e3d6000fd5b505050506040513d601f19601f820116820180604052508101906119bd9190614e87565b6119dc5760405160e560020a62461bcd028152600401610cb890615439565b60008263ffffffff1611611a055760405160e560020a62461bcd028152600401610cb8906155de565b8163ffffffff16611a1533611bf8565b1015611a665760405160e560020a62461bcd02815260206004820152601c60248201527f496e73756666696369656e7420746f6b656e7320746f206275726e2e000000006044820152606401610cb8565b600080611a72846137d2565b915091506000611a8185610e9e565b9050611aaf611aaa82610ef96512309ce54000611aa4876509184e72a000613b03565b90613b0f565b613b1b565b611ab98383613889565b60a85460405160e560020a62e373d90281526004810183905260016024820152919450611b4a918791600160a060020a031690631c6e7b209060440160206040518083038186803b158015611b0d57600080fd5b505afa158015611b21573d6000803e3d6000fd5b505050506040513d601f19601f82011682018060405250810190611b459190615137565b613bbf565b50611b5b338663ffffffff16613d13565b609b54611b76908690604060020a900463ffffffff166156ba565b609b80546bffffffff00000000000000001916604060020a63ffffffff93841602179055609a54611ba99183906137bf16565b609a55611bb68585613e5c565b60405163ffffffff8616815233907fe600c25f82e9bac8f9f1663725540d6cd442845726820fd5bee41b66c4bf59be9060200160405180910390a25050505050565b600160a060020a031660009081526033602052604090205490565b33611c1c611dae565b600160a060020a031614611c455760405160e560020a62461bcd028152600401610cb890615572565b606654604051600091600160a060020a031690600080516020615844833981519152908390a360668054600160a060020a0319169055565b609b54600090604060020a900463ffffffff16611c9960355490565b609b54611cb49190640100000000900463ffffffff1661573b565b611cbe919061573b565b6111059060646156ba565b600080611cd5836140e4565b509392505050565b33611ce6611dae565b600160a060020a031614611d0f5760405160e560020a62461bcd028152600401610cb890615572565b60985460ff16611d735760405160e560020a62461bcd02815260206004820152602360248201527f5468652070726f6475637420746f6b656e20697320616c726561647920706175604482015260ea60020a621cd959026064820152608401610cb8565b6098805460ff19169055604051600081527f65c5ccecef030677b73a1403e7e69ef84d05db9d1732959d543d32f4419909b890602001610d64565b606654600160a060020a031690565b606060378054610d7d90615760565b60656020528160005260406000208181548110611de857600080fd5b60009182526020909120600290910201805460019091015460ff8216935061010090910463ffffffff16915083565b336000908152603460209081526040808320600160a060020a038616845290915281205482811015611e9f5760405160e560020a62461bcd02815260206004820152602560248201527f45524332303a2064656372656173656420616c6c6f77616e63652062656c6f77604482015260d860020a64207a65726f026064820152608401610cb8565b611eae33856110e48685615724565b5060019392505050565b6000610e0d338484613895565b609d5460009081908190600160a060020a031663bff82d84611ee56141e9565b609954609b5460405163ffffffff85811660e060020a028252611f1094939216908a9060040161567a565b60206040518083038186803b158015611f2857600080fd5b505afa158015611f3c573d6000803e3d6000fd5b505050506040513d601f19601f82011682018060405250810190611f609190615137565b90506000611f7c64e8d4a51000611aa4846412a05f2000613b03565b91935090915050915091565b33611f91611dae565b600160a060020a031614611fba5760405160e560020a62461bcd028152600401610cb890615572565b60a85460405160e060020a6336e84a8702815260048101859052600160a060020a03909116906336e84a879060240160206040518083038186803b15801561200157600080fd5b505afa158015612015573d6000803e3d6000fd5b505050506040513d601f19601f820116820180604052508101906120399190614e87565b6120885760405160e560020a62461bcd02815260206004820152600e60248201527f6e6f7420696e76616c69642069640000000000000000000000000000000000006044820152606401610cb8565b600160a060020a0381166120b15760405160e560020a62461bcd028152600401610cb8906154a7565b60a85460405160e060020a63bf418de102815260048101859052600091600160a060020a03169063bf418de19060240160206040518083038186803b1580156120f957600080fd5b505afa15801561210d573d6000803e3d6000fd5b505050506040513d601f19601f820116820180604052508101906121319190614dc8565b60405160e060020a6370a082310281529091508190600160a060020a038216906370a0823190612165903090600401615259565b60206040518083038186803b15801561217d57600080fd5b505afa158015612191573d6000803e3d6000fd5b505050506040513d601f19601f820116820180604052508101906121b59190615137565b8411156121d75760405160e560020a62461bcd028152600401610cb890615470565b60405160e060020a63a9059cbb028152600160a060020a0382169063a9059cbb90612208908690889060040161526d565b602060405180830381600087803b15801561222257600080fd5b505af1158015612236573d6000803e3d6000fd5b505050506040513d601f19601f8201168201806040525081019061225a9190614e87565b505050505050565b60985460ff166122875760405160e560020a62461bcd028152600401610cb8906155a7565b60a85460405160e060020a6315fc65d902815260048101849052600160a060020a03909116906315fc65d99060240160206040518083038186803b1580156122ce57600080fd5b505afa1580156122e2573d6000803e3d6000fd5b505050506040513d601f19601f820116820180604052508101906123069190614e87565b6123255760405160e560020a62461bcd028152600401610cb890615439565b600081116123785760405160e560020a62461bcd02815260206004820152601160248201527f696e76616c6964206d61782070726963650000000000000000000000000000006044820152606401610cb8565b60a85460405160e060020a63bf418de102815260048101849052600091600160a060020a03169063bf418de19060240160206040518083038186803b1580156123c057600080fd5b505afa1580156123d4573d6000803e3d6000fd5b505050506040513d601f19601f820116820180604052508101906123f89190614dc8565b60405160e060020a6323b872dd02815233600482015230602482015260448101849052909150600090600160a060020a038316906323b872dd90606401602060405180830381600087803b15801561244f57600080fd5b505af1158015612463573d6000803e3d6000fd5b505050506040513d601f19601f820116820180604052508101906124879190614e87565b9050806124d95760405160e560020a62461bcd02815260206004820152601060248201527f5075726368617365206661696c65642e000000000000000000000000000000006044820152606401610cb8565b60a85460405160e060020a63a71b7b770281526004810185905260248101869052600091600160a060020a03169063a71b7b779060440160206040518083038186803b15801561252857600080fd5b505afa15801561253c573d6000803e3d6000fd5b505050506040513d601f19601f820116820180604052508101906125609190615137565b905060008060008061257185614216565b93509350935063ffffffff16935060008411156128ed57821561269b5760a85460405160e560020a62e373d902815260048101859052602481018b9052600160a060020a0390911690631c6e7b209060440160206040518083038186803b1580156125db57600080fd5b505afa1580156125ef573d6000803e3d6000fd5b505050506040513d601f19601f820116820180604052508101906126139190615137565b60405160e060020a63a9059cbb028152909350600160a060020a0388169063a9059cbb90612647903390879060040161526d565b602060405180830381600087803b15801561266157600080fd5b505af1158015612675573d6000803e3d6000fd5b505050506040513d601f19601f820116820180604052508101906126999190614e87565b505b6126b7611aaa650746a5288000611aa48464e8d4a51000613b03565b60a85460405160e560020a62e373d90281526004810183905260016024820152600160a060020a0390911690631c6e7b209060440160206040518083038186803b15801561270457600080fd5b505afa158015612718573d6000803e3d6000fd5b505050506040513d601f19601f8201168201806040525081019061273c9190615137565b905061276461275b650746a5288000611aa484650574fbde6000613b03565b60a254906137bf565b60a25560018914156128e85760a85460405160e560020a62e373d90281526004810184905260016024820152600160a060020a0390911690631c6e7b209060440160206040518083038186803b1580156127bd57600080fd5b505afa1580156127d1573d6000803e3d6000fd5b505050506040513d601f19601f820116820180604052508101906127f59190615137565b33600090815260a760205260408120600181015460a1548254949650919360a0939261283692916128309164e8d4a5100091611aa491613b03565b90613889565b905080156128c35760405160e060020a63a9059cbb028152600160a060020a038b169063a9059cbb9061286f903390859060040161526d565b602060405180830381600087803b15801561288957600080fd5b505af115801561289d573d6000803e3d6000fd5b505050506040513d601f19601f820116820180604052508101906128c19190614e87565b505b60a0546128d090866137bf565b60a0556128db612f69565b6128e48561437b565b5050505b612970565b60405160e060020a63a9059cbb028152600160a060020a0388169063a9059cbb9061291e9033908c9060040161526d565b602060405180830381600087803b15801561293857600080fd5b505af115801561294c573d6000803e3d6000fd5b505050506040513d601f19601f820116820180604052508101906113649190614e87565b505050505050505050565b60985460ff166129a05760405160e560020a62461bcd028152600401610cb8906155a7565b60a85460405160e060020a6315fc65d902815260016004820152600160a060020a03909116906315fc65d99060240160206040518083038186803b1580156129e757600080fd5b505afa1580156129fb573d6000803e3d6000fd5b505050506040513d601f19601f82011682018060405250810190612a1f9190614e87565b612a3e5760405160e560020a62461bcd028152600401610cb890615439565b8163ffffffff16612a4e33611bf8565b101580612a61575060008263ffffffff16115b612a805760405160e560020a62461bcd028152600401610cb890615470565b60a85460405160e060020a63bf418de102815260016004820152600091600160a060020a03169063bf418de19060240160206040518083038186803b158015612ac857600080fd5b505afa158015612adc573d6000803e3d6000fd5b505050506040513d601f19601f82011682018060405250810190612b009190614dc8565b9050600080612b0e856143d4565b91509150612b1c8585613e5c565b60a85460405160e560020a62e373d90281526004810184905260016024820152600091600160a060020a031690631c6e7b209060440160206040518083038186803b158015612b6a57600080fd5b505afa158015612b7e573d6000803e3d6000fd5b505050506040513d601f19601f82011682018060405250810190612ba29190615137565b9050600084600160a060020a031663a9059cbb33846040518363ffffffff1660e060020a028152600401612bd792919061526d565b602060405180830381600087803b158015612bf157600080fd5b505af1158015612c05573d6000803e3d6000fd5b505050506040513d601f19601f82011682018060405250810190612c299190614e87565b9050612c47611aaa6501d1a94a2000611aa48664e8d4a51000613b03565b80612c975760405160e560020a62461bcd02815260206004820152601460248201527f73656c6c696e6720746f6b656e206661696c65640000000000000000000000006044820152606401610cb8565b50505050505050565b612ca8611dae565b600160a060020a031633600160a060020a03161480612cd15750609c54600160a060020a031633145b612cf05760405160e560020a62461bcd028152600401610cb89061553b565b600160a060020a038216612d195760405160e560020a62461bcd028152600401610cb8906153cb565b6000612d2583836144e7565b905060008111612d7a5760405160e560020a62461bcd02815260206004820152600d60248201527f496e76616c69642076616c7565000000000000000000000000000000000000006044820152606401610cb8565b6115578382614698565b600160a060020a038116600090815260a7602052604081205415612de15733600090815260a760205260409020600181015460a154825460a092612dd89290916128309164e8d4a5100091611aa491613b03565b92505050610f9a565b506000919050565b33612df2611dae565b600160a060020a031614612e1b5760405160e560020a62461bcd028152600401610cb890615572565b600160a060020a038116612e445760405160e560020a62461bcd028152600401610cb8906154a7565b609c8054600160a060020a031916600160a060020a0392909216919091179055565b600160a060020a0382166000908152606560205260408120805483908110612ea15760e060020a634e487b7102600052603260045260246000fd5b600091825260209091206002909102015460ff169392505050565b33612ec5611dae565b600160a060020a031614612eee5760405160e560020a62461bcd028152600401610cb890615572565b600160a060020a038116612f475760405160e560020a62461bcd02815260206004820152601260248201527f4164647265737320697320696e76616c696400000000000000000000000000006044820152606401610cb8565b609f8054600160a060020a031916600160a060020a0392909216919091179055565b60a05480612f7c5750600060a155612fa6565b60a254612fa190612f98908390611aa49064e8d4a51000613b03565b60a154906137bf565b60a155505b565b60006111056001613144565b600054610100900460ff1680612fcd575060005460ff16155b612fec5760405160e560020a62461bcd028152600401610cb8906154de565b600054610100900460ff1615801561300e576000805461ffff19166101011790555b6130166147f1565b6130208888613a81565b61302d868686868661486f565b801561303f576000805461ff00191690555b5050505050505050565b33613052611dae565b600160a060020a03161461307b5760405160e560020a62461bcd028152600401610cb890615572565b600160a060020a0381166130fa5760405160e560020a62461bcd02815260206004820152602660248201527f4f776e61626c653a206e6577206f776e657220697320746865207a65726f206160448201527f64647265737300000000000000000000000000000000000000000000000000006064820152608401610cb8565b606654604051600160a060020a0380841692169060008051602061584483398151915290600090a360668054600160a060020a031916600160a060020a0392909216919091179055565b609d54600090600160a060020a031663bff82d846131606141e9565b609954609b546131789063ffffffff1661c3506156ba565b866040518563ffffffff1660e060020a02815260040161175b949392919061567a565b60985460ff166131c05760405160e560020a62461bcd028152600401610cb8906155a7565b60a85460405160e060020a6315fc65d902815260006004820152600160a060020a03909116906315fc65d99060240160206040518083038186803b15801561320757600080fd5b505afa15801561321b573d6000803e3d6000fd5b505050506040513d601f19601f8201168201806040525081019061323f9190614e87565b61325e5760405160e560020a62461bcd028152600401610cb890615439565b600034116132b15760405160e560020a62461bcd02815260206004820152600d60248201527f696e76616c69642076616c7565000000000000000000000000000000000000006044820152606401610cb8565b60a85460405160e060020a63a71b7b7702815234600482015260006024820181905291600160a060020a03169063a71b7b779060440160206040518083038186803b1580156132ff57600080fd5b505afa158015613313573d6000803e3d6000fd5b505050506040513d601f19601f820116820180604052508101906133379190615137565b9050600080600061334784614216565b935050925063ffffffff16925060008311156134e257811561341a5760a85460405160e560020a62e373d90281526004810184905260006024820152600160a060020a0390911690631c6e7b209060440160206040518083038186803b1580156133b057600080fd5b505afa1580156133c4573d6000803e3d6000fd5b505050506040513d601f19601f820116820180604052508101906133e89190615137565b604051909250339083156108fc029084906000818181858888f19350505050158015613418573d6000803e3d6000fd5b505b613436611aaa650746a5288000611aa48464e8d4a51000613b03565b60a85460405160e560020a62e373d90281526004810183905260016024820152600160a060020a0390911690631c6e7b209060440160206040518083038186803b15801561348357600080fd5b505afa158015613497573d6000803e3d6000fd5b505050506040513d601f19601f820116820180604052508101906134bb9190615137565b90506134da61275b650746a5288000611aa484650574fbde6000613b03565b60a255611555565b60405133903480156108fc02916000818181858888f1935050505015801561350e573d6000803e3d6000fd5b5050505050565b600160a060020a03831661357d5760405160e560020a62461bcd028152602060048201526024808201527f45524332303a20617070726f76652066726f6d20746865207a65726f20616464604482015260e060020a6372657373026064820152608401610cb8565b600160a060020a0382166135e45760405160e560020a62461bcd02815260206004820152602260248201527f45524332303a20617070726f766520746f20746865207a65726f206164647265604482015260f060020a617373026064820152608401610cb8565b600160a060020a0383811660008181526034602090815260408083209487168084529482529182902085905590518481527f8c5be1e5ebec7d5bd14f71427d1e84f3dd0314c0f7b2291e5b200ac8c7c3b92591015b60405180910390a3505050565b600160a060020a0382166000908152606560205260409020805461369f9190839081106136865760e060020a634e487b7102600052603260045260246000fd5b600091825260209091206002909102015460ff1661129e565b156136bf5760405160e560020a62461bcd028152600401610cb890615402565b600160a060020a0382166000908152606560205260409020805460039190839081106136fe5760e060020a634e487b7102600052603260045260246000fd5b60009182526020909120600290910201805460ff191660018360038111156137395760e060020a634e487b7102600052602160045260246000fd5b021790555060008051602061582483398151915282826065600086600160a060020a0316600160a060020a0316815260200190815260200160002084815481106137965760e060020a634e487b7102600052603260045260246000fd5b90600052602060002090600202016040516137b3939291906152aa565b60405180910390a15050565b60006137cb82846156a2565b9392505050565b609d5460009081908190600160a060020a0316631c9498736137f26141e9565b609954609b5460405163ffffffff85811660e060020a02825261381d94939216908a9060040161567a565b60206040518083038186803b15801561383557600080fd5b505afa158015613849573d6000803e3d6000fd5b505050506040513d601f19601f8201168201806040525081019061386d9190615137565b90506000611f7c64e8d4a51000611aa4846404a817c800613b03565b60006137cb8284615724565b600160a060020a0383166138ff5760405160e560020a62461bcd02815260206004820152602560248201527f45524332303a207472616e736665722066726f6d20746865207a65726f206164604482015260d860020a646472657373026064820152608401610cb8565b600160a060020a0382166139675760405160e560020a62461bcd02815260206004820152602360248201527f45524332303a207472616e7366657220746f20746865207a65726f2061646472604482015260e860020a62657373026064820152608401610cb8565b600160a060020a038316600090815260336020526040902054818110156139f95760405160e560020a62461bcd02815260206004820152602660248201527f45524332303a207472616e7366657220616d6f756e742065786365656473206260448201527f616c616e636500000000000000000000000000000000000000000000000000006064820152608401610cb8565b613a038282615724565b600160a060020a038086166000908152603360205260408082209390935590851681529081208054849290613a399084906156a2565b9250508190555082600160a060020a031684600160a060020a031660008051602061586483398151915284604051613a7391815260200190565b60405180910390a350505050565b600054610100900460ff1680613a9a575060005460ff16155b613ab95760405160e560020a62461bcd028152600401610cb8906154de565b600054610100900460ff16158015613adb576000805461ffff19166101011790555b613ae3614a02565b613aed8383614a6f565b8015611557576000805461ff0019169055505050565b60006137cb8284615705565b60006137cb82846156e2565b8015613bbc5760a85460405160e560020a62e373d90281526004810183905260016024820152600091600160a060020a031690631c6e7b209060440160206040518083038186803b158015613b6f57600080fd5b505afa158015613b83573d6000803e3d6000fd5b505050506040513d601f19601f82011682018060405250810190613ba79190615137565b609e54909150613bb790826137bf565b609e55505b50565b6000808363ffffffff1611613c195760405160e560020a62461bcd02815260206004820152600e60248201527f496e76616c696420416d6f756e740000000000000000000000000000000000006044820152606401610cb8565b60408051606081018252600180825263ffffffff861660208084019190915282840186905233600090815260658252938420805480840182559085529320825160029094020180549293849391929091839160ff1990911690836003811115613c955760e060020a634e487b7102600052602160045260246000fd5b0217905550602082810151825463ffffffff9091166101000264ffffffff0019909116178255604092830151600192830155336000908152606590915291822054613ce09190615724565b9050600080516020615824833981519152338284604051613d0393929190615286565b60405180910390a1949350505050565b600160a060020a038216613d795760405160e560020a62461bcd02815260206004820152602160248201527f45524332303a206275726e2066726f6d20746865207a65726f20616464726573604482015260f860020a6073026064820152608401610cb8565b600160a060020a03821660009081526033602052604090205481811015613df35760405160e560020a62461bcd02815260206004820152602260248201527f45524332303a206275726e20616d6f756e7420657863656564732062616c616e604482015260f060020a616365026064820152608401610cb8565b613dfd8282615724565b600160a060020a03841660009081526033602052604081209190915560358054849290613e2b908490615724565b9091555050604051828152600090600160a060020a0385169060008051602061586483398151915290602001613639565b33600090815260a7602052604090205415610e9a5760a85460405160e060020a63bf418de102815260016004820152600091600160a060020a03169063bf418de19060240160206040518083038186803b158015613eb957600080fd5b505afa158015613ecd573d6000803e3d6000fd5b505050506040513d601f19601f82011682018060405250810190613ef19190614dc8565b33600090815260a7602052604090209091508280613f1b57506002810154613f1833611bf8565b11155b1561155557600281015463ffffffff851690811115613f3b575060028101545b6000805b82811015613fe757600284018054613f989190613f5d906001613889565b81548110613f7e5760e060020a634e487b7102600052603260045260246000fd5b9060005260206000200154836137bf90919063ffffffff16565b915083600201805480613fbe5760e060020a634e487b7102600052603160045260246000fd5b600190038181906000526020600020016000905590558080613fdf9061579f565b915050613f3f565b50600183015460a154845460a092600092614010926128309164e8d4a5100091611aa491613b03565b60a0549091506140209084613889565b60a05580156140ae5760405160e060020a63a9059cbb028152600160a060020a0387169063a9059cbb9061405a903390859060040161526d565b602060405180830381600087803b15801561407457600080fd5b505af1158015614088573d6000803e3d6000fd5b505050506040513d601f19601f820116820180604052508101906140ac9190614e87565b505b84546140ba9084613889565b80865560a1546140d59164e8d4a5100091611aa49190613b03565b60018601555050505050505050565b6000808061410064fb75043000611aa48664e8d4a51000613b03565b9050600061411c64e8d4a51000611aa484640df8475800613b03565b609d54909150600090600160a060020a0316639f4ae6b061413b6141e9565b609954609b5463ffffffff90811690614158908990899061388916565b60405163ffffffff86811660e060020a0282529485166004820152602481019390935292166044820152606481019190915260840160206040518083038186803b1580156141a557600080fd5b505afa1580156141b9573d6000803e3d6000fd5b505050506040513d601f19601f820116820180604052508101906141dd91906151c4565b94509092505050915091565b609b546000906111059063ffffffff606060020a8204811691610ef991604060020a909104168160355490565b6000806000806000614226611c7d565b63ffffffff161161427c5760405160e560020a62461bcd02815260206004820152601e60248201527f536f7272792c207468697320746f6b656e20697320736f6c64206f75742e00006044820152606401610cb8565b600085116142cf5760405160e560020a62461bcd02815260206004820152601960248201527f4465706f736974206d757374206265206e6f6e2d7a65726f2e000000000000006044820152606401610cb8565b6000806142dc6001611ec5565b91509150868211156142fd5760008760008095509550955095505050614374565b614308336001614b07565b61431e6143158383613889565b609954906137bf565b60995560408051600181526020810184905233917f5b55159a377d86da80a65140d62d994ddbb2cbd4bb2d1b59cb0827fecbe47cab910160405180910390a260016143698884613889565b909650945090925090505b9193509193565b33600090815260a760205260409020805461439690836137bf565b8155600281018054600181018255600091825260209091200182905560a15481546143cb9164e8d4a5100091611aa491613b03565b60019091015550565b60008060008363ffffffff16116144005760405160e560020a62461bcd028152600401610cb8906155de565b8263ffffffff1661441033611bf8565b10156144615760405160e560020a62461bcd02815260206004820152601c60248201527f496e73756666696369656e7420746f6b656e7320746f2073656c6c2e000000006044820152606401610cb8565b60008061446d856137d2565b609954919350915061447f9083613889565b6099556144923363ffffffff8716613d13565b6040805163ffffffff871681526020810184905233917f84c8d08e5480cf09cbf77bc575dc4e63845522693c34094f04129a4dedb7abd7910160405180910390a26144dd8282613889565b9350915050915091565b600160a060020a038216600090815260656020526040812080546145279190849081106136865760e060020a634e487b7102600052603260045260246000fd5b156145475760405160e560020a62461bcd028152600401610cb890615402565b600160a060020a0383166000908152606560205260409020805460029190849081106145865760e060020a634e487b7102600052603260045260246000fd5b60009182526020909120600290910201805460ff191660018360038111156145c15760e060020a634e487b7102600052602160045260246000fd5b021790555060008051602061582483398151915283836065600087600160a060020a0316600160a060020a03168152602001908152602001600020858154811061461e5760e060020a634e487b7102600052603260045260246000fd5b906000526020600020906002020160405161463b939291906152aa565b60405180910390a1600160a060020a038316600090815260656020526040902080548390811061467e5760e060020a634e487b7102600052603260045260246000fd5b906000526020600020906002020160010154905092915050565b60a85460405160e060020a63bf418de102815260016004820152600091600160a060020a03169063bf418de19060240160206040518083038186803b1580156146e057600080fd5b505afa1580156146f4573d6000803e3d6000fd5b505050506040513d601f19601f820116820180604052508101906147189190614dc8565b9050600081600160a060020a031663a9059cbb85856040518363ffffffff1660e060020a02815260040161474d92919061526d565b602060405180830381600087803b15801561476757600080fd5b505af115801561477b573d6000803e3d6000fd5b505050506040513d601f19601f8201168201806040525081019061479f9190614e87565b9050806115555760405160e560020a62461bcd02815260206004820152601360248201527f726566756e6420746f6b656e206661696c6564000000000000000000000000006044820152606401610cb8565b600054610100900460ff168061480a575060005460ff16155b6148295760405160e560020a62461bcd028152600401610cb8906154de565b600054610100900460ff1615801561484b576000805461ffff19166101011790555b614853614a02565b61485b614bd7565b8015613bbc576000805461ff001916905550565b600054610100900460ff1680614888575060005460ff16155b6148a75760405160e560020a62461bcd028152600401610cb8906154de565b600054610100900460ff161580156148c9576000805461ffff19166101011790555b60008463ffffffff16116149225760405160e560020a62461bcd02815260206004820152601860248201527f496e76616c6964206d617820746f6b656e20636f756e742e00000000000000006044820152606401610cb8565b60008563ffffffff161161497b5760405160e560020a62461bcd02815260206004820152601560248201527f496e76616c6964207265736572766520726174696f00000000000000000000006044820152606401610cb8565b609d8054600160a060020a038816600160a060020a03199091161790556099829055609a829055609b805463ffffffff8681166401000000000267ffffffffffffffff19828816606060020a02166fffffffff00000000ffffffffffffffff199093169290921790881617179055801561225a576000805461ff0019169055505050505050565b600054610100900460ff1680614a1b575060005460ff16155b614a3a5760405160e560020a62461bcd028152600401610cb8906154de565b600054610100900460ff1615801561485b576000805461ffff19166101011790558015613bbc576000805461ff001916905550565b600054610100900460ff1680614a88575060005460ff16155b614aa75760405160e560020a62461bcd028152600401610cb8906154de565b600054610100900460ff16158015614ac9576000805461ffff19166101011790555b8251614adc906036906020860190614c76565b508151614af0906037906020850190614c76565b508015611557576000805461ff0019169055505050565b600160a060020a038216614b605760405160e560020a62461bcd02815260206004820152601f60248201527f45524332303a206d696e7420746f20746865207a65726f2061646472657373006044820152606401610cb8565b8060356000828254614b7291906156a2565b9091555050600160a060020a03821660009081526033602052604081208054839290614b9f9084906156a2565b9091555050604051818152600160a060020a038316906000906000805160206158648339815191529060200160405180910390a35050565b600054610100900460ff1680614bf0575060005460ff16155b614c0f5760405160e560020a62461bcd028152600401610cb8906154de565b600054610100900460ff16158015614c31576000805461ffff19166101011790555b60668054600160a060020a031916339081179091556040518190600090600080516020615844833981519152908290a3508015613bbc576000805461ff001916905550565b828054614c8290615760565b90600052602060002090601f016020900481019282614ca45760008555614cea565b82601f10614cbd57805160ff1916838001178555614cea565b82800160010185558215614cea579182015b82811115614cea578251825591602001919060010190614ccf565b50614cf6929150614cfa565b5090565b5b80821115614cf65760008155600101614cfb565b8035610f9a816157ee565b600082601f830112614d2a578081fd5b813567ffffffffffffffff80821115614d4557614d456157d4565b604051601f8301601f19908116603f01168101908282118183101715614d6d57614d6d6157d4565b81604052838152866020858801011115614d85578485fd5b8360208701602083013792830160200193909352509392505050565b8035610f9a81615811565b600060208284031215614dbd578081fd5b81356137cb816157ee565b600060208284031215614dd9578081fd5b81516137cb816157ee565b60008060408385031215614df6578081fd5b8235614e01816157ee565b91506020830135614e11816157ee565b809150509250929050565b600080600060608486031215614e30578081fd5b8335614e3b816157ee565b92506020840135614e4b816157ee565b929592945050506040919091013590565b60008060408385031215614e6e578182fd5b8235614e79816157ee565b946020939093013593505050565b600060208284031215614e98578081fd5b81516137cb81615803565b600060208284031215614eb4578081fd5b8135600481106137cb578182fd5b600080600080600080600060e0888a031215614edc578283fd5b873567ffffffffffffffff80821115614ef3578485fd5b614eff8b838c01614d1a565b985060208a0135915080821115614f14578485fd5b50614f218a828b01614d1a565b9650506040880135614f32816157ee565b94506060880135614f4281615811565b93506080880135614f5281615811565b925060a0880135614f6281615811565b8092505060c0880135905092959891949750929550565b6000806000806000806000806000806101408b8d031215614f98578283fd5b8a3567ffffffffffffffff80821115614faf578485fd5b614fbb8e838f01614d1a565b9b5060208d0135915080821115614fd0578485fd5b50614fdd8d828e01614d1a565b995050614fec60408c01614d0f565b9750614ffa60608c01614da1565b965061500860808c01614da1565b955061501660a08c01614da1565b945060c08b0135935060e08b013592506150336101008c01614d0f565b91506150426101208c01614d0f565b90509295989b9194979a5092959850565b60008060008060008060008060006101208a8c031215615071578283fd5b893567ffffffffffffffff80821115615088578485fd5b6150948d838e01614d1a565b9a5060208c01359150808211156150a9578485fd5b506150b68c828d01614d1a565b98505060408a01356150c781615811565b965060608a01356150d781615811565b95506150e560808b01614da1565b945060a08a0135935060c08a0135925061510160e08b01614d0f565b91506151106101008b01614d0f565b90509295985092959850929598565b600060208284031215615130578081fd5b5035919050565b600060208284031215615148578081fd5b5051919050565b60008060408385031215615161578182fd5b50508035926020909101359150565b600080600060608486031215615184578081fd5b8335925060208401359150604084013561519d816157ee565b809150509250925092565b6000602082840312156151b9578081fd5b81356137cb81615811565b6000602082840312156151d5578081fd5b81516137cb81615811565b600080604083850312156151f2578182fd5b82356151fd81615811565b91506020830135614e1181615803565b6004811061522f5760e060020a634e487b710260009081526021600452602490fd5b9052565b61523e82825161520d565b60208181015163ffffffff1690830152604090810151910152565b600160a060020a0391909116815260200190565b600160a060020a03929092168252602082015260400190565b600160a060020a03841681526020810183905260a081016110236040830184615233565b600160a060020a038416815260208101839052815460a08201906152d46040840160ff831661520d565b63ffffffff61010082041660608401525060018301546080830152949350505050565b6020808252825182820181905260009190848201906040850190845b8181101561533957615326838551615233565b9284019260609290920191600101615313565b50909695505050505050565b60208101610e11828461520d565b60608101615361828661520d565b63ffffffff93909316602082015260400152919050565b6000602080835283518082850152825b818110156153a457858101830151858201604001528201615388565b818111156153b55783604083870101525b50601f01601f1916929092016040019392505050565b6020808252600d908201527f496e76616c696420627579657200000000000000000000000000000000000000604082015260600190565b60208082526011908201527f616c726561647920636f6d706c65746564000000000000000000000000000000604082015260600190565b6020808252600b908201527f6e6f7420737570706f7274000000000000000000000000000000000000000000604082015260600190565b6020808252600e908201527f696e76616c696420616d6f756e74000000000000000000000000000000000000604082015260600190565b6020808252600f908201527f696e76616c696420616464726573730000000000000000000000000000000000604082015260600190565b6020808252602e908201527f496e697469616c697a61626c653a20636f6e747261637420697320616c72656160408201527f647920696e697469616c697a6564000000000000000000000000000000000000606082015260800190565b60208082526011908201527f7065726d697373696f6e2064656e696564000000000000000000000000000000604082015260600190565b6020808252818101527f4f776e61626c653a2063616c6c6572206973206e6f7420746865206f776e6572604082015260600190565b60208082526013908201527f756e61626c6520746f207472616465206e6f7700000000000000000000000000604082015260600190565b60208082526018908201527f416d6f756e74206d757374206265206e6f6e2d7a65726f2e0000000000000000604082015260600190565b6000602080835260808301845182850152818501516040850152604085015160608086015281815180845260a08701915084830193508592505b8083101561566f578351825292840192600192909201919084019061564f565b509695505050505050565b63ffffffff948516815260208101939093529083166040830152909116606082015260800190565b600082198211156156b5576156b56157ba565b500190565b600063ffffffff8083168185168083038211156156d9576156d96157ba565b01949350505050565b6000826157005760e060020a634e487b710281526012600452602481fd5b500490565b600081600019048311821515161561571f5761571f6157ba565b500290565b600082821015615736576157366157ba565b500390565b600063ffffffff83811690831681811015615758576157586157ba565b039392505050565b60028104600182168061577457607f821691505b602082108114156157995760e060020a634e487b710260009081526022600452602490fd5b50919050565b60006000198214156157b3576157b36157ba565b5060010190565b60e060020a634e487b710260009081526011600452602490fd5b60e060020a634e487b710260009081526041600452602490fd5b600160a060020a0381168114613bbc57600080fd5b8015158114613bbc57600080fd5b63ffffffff81168114613bbc57600080fdfe09c64bee251b684a6bb80ce179dd520c001481b7c3d7781f1502e3052af474cf8be0079c531659141344cd1fd0a4f28419497f9722a3daafe3b4186f6b6457e0ddf252ad1be2c89b69c2b068fc378daa952ba7f163c4a11628f55a4df523b3efa2646970667358221220395a5aeca477f84dd6bfb1144336e8972911d6aeedcd81e6c22fdbf0bc72d28764736f6c63430008030033",
  "immutableReferences": {},
  "source": "pragma solidity ^0.8.2;\n\nimport \"@openzeppelin/contracts-upgradeable/token/ERC20/ERC20Upgradeable.sol\";\nimport \"@openzeppelin/contracts-upgradeable/utils/math/SafeMathUpgradeable.sol\";\n\nimport \"../ProductToken.sol\";\nimport \"../ProductTokenV1.sol\";\nimport \"../Power.sol\";\n\n\ncontract ProductTokenV2 is ProductTokenV1 {\n  uint256 public newAttribute;\n\n  function getNewAttribute()\n  public view returns (uint256)\n  {\n    return newAttribute + 1;\n  }\n\n  function getPriceForN(uint32 _amountProduct) \n  \tpublic view override returns(uint256 price)\n  {\n  \treturn bondingCurve.calculatePriceForNTokens(getTotalSupply(), reserveBalance, reserveRatio+50000, _amountProduct);\n  }\n\n    function getAvailability()\n     public view override returns (uint32 available)\n  {\n    return maxTokenCount - uint32(totalSupply()) - tradeinCount+100;   \n  }\n\n} \n\ncontract ProductTokenV3 is ProductTokenV2 {\n    using SafeMathUpgradeable for uint256;\n    uint32 private constant MAX_RESERVE_RATIO = 2000000;\n\n    function initializeV3(string memory _name, string memory _symbol, uint32 _reserveRatio, uint32 _maxTokenCount, uint32 _supplyOffset, uint256 _baseReserve, uint256 _newInitValue, address _daiAddress, address _chainlink) public  initializer {\n    }\n}\n\ncontract ProductTokenDestroy {\n\n}\n\ncontract ProductTokenV4 is ProductTokenV2 {\n\n}\n\ncontract ProductTokenV5 is ProductTokenV3 {\n  uint256  public newInitValue;\n/**\n   * @dev Constructor\n   *\n   * @param _reserveRatio             the reserve ratio in the curve function\n   * @param _maxTokenCount\t\t\t\t\t\tthe amount of token that will exist for this type.\n   * @param _supplyOffset             a initial amount of offset that drive the price to a starting price\n   * @param _baseReserve              the reserve balance when supply is 0. This is calculated based on the balance function, and evaluated at s = _supplyOffset\n  */\n  function initializeV5(string memory _name, string memory _symbol, address _bondingCurveAddress, uint32 _reserveRatio, uint32 _maxTokenCount, uint32 _supplyOffset, uint256 _baseReserve, uint256 _newInitValue, address _daiAddress, address _chainlink) public  initializer {\t\t\n    __ERC20_init(_name, _symbol);\n    // ProductToken.__ProductToken_init_unchained(_bondingCurveAddress, _reserveRatio, _maxTokenCount, _supplyOffset, _baseReserve);\n    // ProductTokenV1.__ProductToken_init_unchained(_daiAddress, _chainlink);\n    newInitValue= _newInitValue;\n  }\n  function getNewInitValue() public view returns(uint256){\n    return newInitValue;\n  }\n}\n",
  "sourcePath": "/Users/jack/Documents/GitHub/HighStreet/client/src/contracts/Mock/ProductTokenV2.sol",
  "compiler": {
    "name": "solc",
    "version": "0.8.3+commit.8d00100c.Emscripten.clang"
  },
  "schemaVersion": "3.4.0",
  "updatedAt": "2021-09-16T14:56:36.239Z",
  "devdoc": {
    "kind": "dev",
    "methods": {
      "allowance(address,address)": {
        "details": "See {IERC20-allowance}."
      },
      "approve(address,uint256)": {
        "details": "See {IERC20-approve}. Requirements: - `spender` cannot be the zero address."
      },
      "balanceOf(address)": {
        "details": "See {IERC20-balanceOf}."
      },
      "calculateBuyReturn(uint256)": {
        "details": "Function that computes number of product tokens one can buy given an amount in reserve token.",
        "params": {
          "_amountReserve": "purchaing amount in reserve token (dai)(with 4% platform fee)"
        },
        "returns": {
          "mintAmount": "             number of tokens in traded token that can be purchased by given amount."
        }
      },
      "calculateSellReturn(uint32)": {
        "details": "Function that computes selling price in reserve tokens given an amount in traded token.",
        "params": {
          "_amountProduct": "selling amount in product token"
        },
        "returns": {
          "soldAmount": "             total amount that will be transferred to the seller (with 2% platform fee)."
        }
      },
      "decimals()": {
        "details": "Returns the number of decimals used to get its user representation. For example, if `decimals` equals `2`, a balance of `505` tokens should be displayed to a user as `5,05` (`505 / 10 ** 2`). Tokens usually opt for a value of 18, imitating the relationship between Ether and Wei. This is the value {ERC20} uses, unless this function is overloaded; NOTE: This information is only used for _display_ purposes: it in no way affects any of the arithmetic of the contract, including {IERC20-balanceOf} and {IERC20-transfer}."
      },
      "decreaseAllowance(address,uint256)": {
        "details": "Atomically decreases the allowance granted to `spender` by the caller. This is an alternative to {approve} that can be used as a mitigation for problems described in {IERC20-approve}. Emits an {Approval} event indicating the updated allowance. Requirements: - `spender` cannot be the zero address. - `spender` must have allowance for the caller of at least `subtractedValue`."
      },
      "getAvailability()": {
        "details": "Function to check how many tokens of this product are currently available for purchase, by taking the difference between max cap count and current token in circulation or burned.",
        "returns": {
          "available": "               the number of tokens available"
        }
      },
      "getCurrentPrice()": {
        "details": "Function that computes current price for a token through bonding curve calculation based on parameters such as total supply, reserve balance, and reserve ratio.",
        "returns": {
          "price": "                  current price in reserve token (in our case, this is dai). (with 4% platform fee)"
        }
      },
      "getEscrowHistory(address)": {
        "details": "Return the list of all escrows created for a certain user",
        "params": {
          "_buyer": "The address of the buyer"
        },
        "returns": {
          "_0": "A list of past escrows"
        }
      },
      "getPriceForN(uint32)": {
        "details": "Function that computes price total for buying n token through bonding curve calculation based on parameters such as total supply, reserve balance, and reserve ratio.",
        "params": {
          "_amountProduct": "token amount in traded token"
        },
        "returns": {
          "price": "                  total price in reserve token (in our case, this is dai). (with 4% platform fee)"
        }
      },
      "getRedeemStatus(address,uint256)": {
        "details": "Get status of a particular redemption process",
        "params": {
          "_buyer": "The address of the buyer",
          "_id": "The cached id of the escrow, retrieved from database"
        },
        "returns": {
          "_0": "The current status"
        }
      },
      "getSupplierBalance()": {
        "details": "this function returns the amount of reserve balance that the supplier can withdraw from the dapp."
      },
      "increaseAllowance(address,uint256)": {
        "details": "Atomically increases the allowance granted to `spender` by the caller. This is an alternative to {approve} that can be used as a mitigation for problems described in {IERC20-approve}. Emits an {Approval} event indicating the updated allowance. Requirements: - `spender` cannot be the zero address."
      },
      "initialize(string,string,address,uint32,uint32,uint32,uint256)": {
        "details": "initializer function.",
        "params": {
          "_baseReserve": "the base amount of reserve tokens, in accordance to _supplyOffset.",
          "_maxTokenCount": "the amount of token that will exist for this type.",
          "_name": "the name of this token",
          "_reserveRatio": "the reserve ratio in the curve function. Number in parts per million",
          "_supplyOffset": "this amount is used to determine initial price.",
          "_symbol": "the symbol of this token"
        }
      },
      "initializeV5(string,string,address,uint32,uint32,uint32,uint256,uint256,address,address)": {
        "details": "Constructor",
        "params": {
          "_baseReserve": "the reserve balance when supply is 0. This is calculated based on the balance function, and evaluated at s = _supplyOffset",
          "_maxTokenCount": "the amount of token that will exist for this type.",
          "_reserveRatio": "the reserve ratio in the curve function",
          "_supplyOffset": "a initial amount of offset that drive the price to a starting price"
        }
      },
      "isStateCompleted(uint8)": {
        "details": "Helper function to check whether a escrow state is completed",
        "params": {
          "_state": "The state to be checked"
        }
      },
      "launch()": {
        "details": "requires function to be called from owner. this enables customers to buy, sell, or redeem the product."
      },
      "name()": {
        "details": "Returns the name of the token."
      },
      "owner()": {
        "details": "Returns the address of the current owner."
      },
      "pause()": {
        "details": "requires function to be called from owner. this prevents customers from buying, selling, or redeeming the product."
      },
      "renounceOwnership()": {
        "details": "Leaves the contract without owner. It will not be possible to call `onlyOwner` functions anymore. Can only be called by the current owner. NOTE: Renouncing ownership will leave the contract without an owner, thereby removing any functionality that is only available to the owner."
      },
      "setBondingCurve(address)": {
        "details": "requires function to be called from owner. sets a bonding curve implementation for this product.",
        "params": {
          "_address": "the address of the bonding curve implementation"
        }
      },
      "symbol()": {
        "details": "Returns the symbol of the token, usually a shorter version of the name."
      },
      "totalSupply()": {
        "details": "See {IERC20-totalSupply}."
      },
      "tradein(uint32,bool)": {
        "details": "When user wants to trade in their token for retail product",
        "params": {
          "amount_": "amount of tokens that user wants to trade in."
        }
      },
      "transfer(address,uint256)": {
        "details": "See {IERC20-transfer}. Requirements: - `recipient` cannot be the zero address. - the caller must have a balance of at least `amount`."
      },
      "transferFrom(address,address,uint256)": {
        "details": "See {IERC20-transferFrom}. Emits an {Approval} event indicating the updated allowance. This is not required by the EIP. See the note at the beginning of {ERC20}. Requirements: - `sender` and `recipient` cannot be the zero address. - `sender` must have a balance of at least `amount`. - the caller must have allowance for ``sender``'s tokens of at least `amount`."
      },
      "transferOwnership(address)": {
        "details": "Transfers ownership of the contract to a new account (`newOwner`). Can only be called by the current owner."
      },
      "updateUserCompleted(address,uint256)": {
        "details": "used to update the status of redemption to \"User Complete\" after an escrow process has been started.",
        "params": {
          "buyer": "the wallet address of product buyer",
          "id": "the id of the escrow, returned to the user after starting of redemption process"
        }
      },
      "updateUserRefund(address,uint256)": {
        "details": "used to update the status of redemption to \"User Refunded\" after an escrow process has been started.",
        "params": {
          "buyer": "the wallet address of product buyer",
          "id": "the id of the escrow, returned to the user after starting of redemption process"
        }
      },
      "withdrawEther(uint256)": {
        "details": "A method allow us to withdraw liquidity (eth) from the contract Since eth is not used as a return currency, we need to withdraw eth from the system.",
        "params": {
          "value_": "the value of ether"
        }
      }
    },
    "version": 1
  },
  "userdoc": {
    "kind": "user",
    "methods": {},
    "version": 1
  }
}