{
  "contractName": "ProductTokenV1",
  "abi": [
    {
      "anonymous": false,
      "inputs": [
        {
          "indexed": true,
          "internalType": "address",
          "name": "owner",
          "type": "address"
        },
        {
          "indexed": true,
          "internalType": "address",
          "name": "spender",
          "type": "address"
        },
        {
          "indexed": false,
          "internalType": "uint256",
          "name": "value",
          "type": "uint256"
        }
      ],
      "name": "Approval",
      "type": "event"
    },
    {
      "anonymous": false,
      "inputs": [
        {
          "indexed": true,
          "internalType": "address",
          "name": "sender",
          "type": "address"
        },
        {
          "indexed": false,
          "internalType": "uint32",
          "name": "amount",
          "type": "uint32"
        },
        {
          "indexed": false,
          "internalType": "uint256",
          "name": "deposit",
          "type": "uint256"
        }
      ],
      "name": "Buy",
      "type": "event"
    },
    {
      "anonymous": false,
      "inputs": [
        {
          "indexed": true,
          "internalType": "address",
          "name": "previousOwner",
          "type": "address"
        },
        {
          "indexed": true,
          "internalType": "address",
          "name": "newOwner",
          "type": "address"
        }
      ],
      "name": "OwnershipTransferred",
      "type": "event"
    },
    {
      "anonymous": false,
      "inputs": [
        {
          "indexed": true,
          "internalType": "address",
          "name": "sender",
          "type": "address"
        },
        {
          "indexed": false,
          "internalType": "uint32",
          "name": "amount",
          "type": "uint32"
        },
        {
          "indexed": false,
          "internalType": "uint256",
          "name": "refund",
          "type": "uint256"
        }
      ],
      "name": "Sell",
      "type": "event"
    },
    {
      "anonymous": false,
      "inputs": [
        {
          "indexed": false,
          "internalType": "bool",
          "name": "isTradable",
          "type": "bool"
        }
      ],
      "name": "Tradable",
      "type": "event"
    },
    {
      "anonymous": false,
      "inputs": [
        {
          "indexed": true,
          "internalType": "address",
          "name": "sender",
          "type": "address"
        },
        {
          "indexed": false,
          "internalType": "uint32",
          "name": "amount",
          "type": "uint32"
        }
      ],
      "name": "Tradein",
      "type": "event"
    },
    {
      "anonymous": false,
      "inputs": [
        {
          "indexed": true,
          "internalType": "address",
          "name": "from",
          "type": "address"
        },
        {
          "indexed": true,
          "internalType": "address",
          "name": "to",
          "type": "address"
        },
        {
          "indexed": false,
          "internalType": "uint256",
          "name": "value",
          "type": "uint256"
        }
      ],
      "name": "Transfer",
      "type": "event"
    },
    {
      "anonymous": false,
      "inputs": [
        {
          "indexed": false,
          "internalType": "address",
          "name": "",
          "type": "address"
        },
        {
          "indexed": false,
          "internalType": "uint256",
          "name": "",
          "type": "uint256"
        },
        {
          "components": [
            {
              "internalType": "enum Escrow.escrowState",
              "name": "state",
              "type": "uint8"
            },
            {
              "internalType": "uint32",
              "name": "amount",
              "type": "uint32"
            },
            {
              "internalType": "uint256",
              "name": "value",
              "type": "uint256"
            }
          ],
          "indexed": false,
          "internalType": "struct Escrow.escrowInfo",
          "name": "",
          "type": "tuple"
        }
      ],
      "name": "escrowStateUpdated",
      "type": "event"
    },
    {
      "stateMutability": "nonpayable",
      "type": "fallback"
    },
    {
      "inputs": [
        {
          "internalType": "uint32",
          "name": "_amountProduct",
          "type": "uint32"
        }
      ],
      "name": "_getPriceForN",
      "outputs": [
        {
          "internalType": "uint256",
          "name": "price",
          "type": "uint256"
        },
        {
          "internalType": "uint256",
          "name": "fee",
          "type": "uint256"
        }
      ],
      "stateMutability": "view",
      "type": "function"
    },
    {
      "inputs": [
        {
          "internalType": "address",
          "name": "owner",
          "type": "address"
        },
        {
          "internalType": "address",
          "name": "spender",
          "type": "address"
        }
      ],
      "name": "allowance",
      "outputs": [
        {
          "internalType": "uint256",
          "name": "",
          "type": "uint256"
        }
      ],
      "stateMutability": "view",
      "type": "function"
    },
    {
      "inputs": [
        {
          "internalType": "address",
          "name": "spender",
          "type": "address"
        },
        {
          "internalType": "uint256",
          "name": "amount",
          "type": "uint256"
        }
      ],
      "name": "approve",
      "outputs": [
        {
          "internalType": "bool",
          "name": "",
          "type": "bool"
        }
      ],
      "stateMutability": "nonpayable",
      "type": "function"
    },
    {
      "inputs": [
        {
          "internalType": "address",
          "name": "account",
          "type": "address"
        }
      ],
      "name": "balanceOf",
      "outputs": [
        {
          "internalType": "uint256",
          "name": "",
          "type": "uint256"
        }
      ],
      "stateMutability": "view",
      "type": "function"
    },
    {
      "inputs": [
        {
          "internalType": "uint256",
          "name": "_amountReserve",
          "type": "uint256"
        }
      ],
      "name": "calculateBuyReturn",
      "outputs": [
        {
          "internalType": "uint32",
          "name": "mintAmount",
          "type": "uint32"
        }
      ],
      "stateMutability": "view",
      "type": "function"
    },
    {
      "inputs": [
        {
          "internalType": "uint32",
          "name": "_amountProduct",
          "type": "uint32"
        }
      ],
      "name": "calculateSellReturn",
      "outputs": [
        {
          "internalType": "uint256",
          "name": "soldAmount",
          "type": "uint256"
        }
      ],
      "stateMutability": "view",
      "type": "function"
    },
    {
      "inputs": [
        {
          "internalType": "uint32",
          "name": "_amount",
          "type": "uint32"
        }
      ],
      "name": "calculateTradinReturn",
      "outputs": [
        {
          "internalType": "uint256",
          "name": "",
          "type": "uint256"
        }
      ],
      "stateMutability": "view",
      "type": "function"
    },
    {
      "inputs": [],
      "name": "decimals",
      "outputs": [
        {
          "internalType": "uint8",
          "name": "",
          "type": "uint8"
        }
      ],
      "stateMutability": "view",
      "type": "function"
    },
    {
      "inputs": [
        {
          "internalType": "address",
          "name": "spender",
          "type": "address"
        },
        {
          "internalType": "uint256",
          "name": "subtractedValue",
          "type": "uint256"
        }
      ],
      "name": "decreaseAllowance",
      "outputs": [
        {
          "internalType": "bool",
          "name": "",
          "type": "bool"
        }
      ],
      "stateMutability": "nonpayable",
      "type": "function"
    },
    {
      "inputs": [
        {
          "internalType": "address",
          "name": "",
          "type": "address"
        },
        {
          "internalType": "uint256",
          "name": "",
          "type": "uint256"
        }
      ],
      "name": "escrowList",
      "outputs": [
        {
          "internalType": "enum Escrow.escrowState",
          "name": "state",
          "type": "uint8"
        },
        {
          "internalType": "uint32",
          "name": "amount",
          "type": "uint32"
        },
        {
          "internalType": "uint256",
          "name": "value",
          "type": "uint256"
        }
      ],
      "stateMutability": "view",
      "type": "function"
    },
    {
      "inputs": [],
      "name": "getAvailability",
      "outputs": [
        {
          "internalType": "uint32",
          "name": "available",
          "type": "uint32"
        }
      ],
      "stateMutability": "view",
      "type": "function"
    },
    {
      "inputs": [],
      "name": "getCurrentPrice",
      "outputs": [
        {
          "internalType": "uint256",
          "name": "price",
          "type": "uint256"
        }
      ],
      "stateMutability": "view",
      "type": "function"
    },
    {
      "inputs": [
        {
          "internalType": "address",
          "name": "_buyer",
          "type": "address"
        }
      ],
      "name": "getEscrowHistory",
      "outputs": [
        {
          "components": [
            {
              "internalType": "enum Escrow.escrowState",
              "name": "state",
              "type": "uint8"
            },
            {
              "internalType": "uint32",
              "name": "amount",
              "type": "uint32"
            },
            {
              "internalType": "uint256",
              "name": "value",
              "type": "uint256"
            }
          ],
          "internalType": "struct Escrow.escrowInfo[]",
          "name": "",
          "type": "tuple[]"
        }
      ],
      "stateMutability": "view",
      "type": "function"
    },
    {
      "inputs": [],
      "name": "getManager",
      "outputs": [
        {
          "internalType": "address",
          "name": "",
          "type": "address"
        }
      ],
      "stateMutability": "view",
      "type": "function"
    },
    {
      "inputs": [
        {
          "internalType": "uint32",
          "name": "_amountProduct",
          "type": "uint32"
        }
      ],
      "name": "getPriceForN",
      "outputs": [
        {
          "internalType": "uint256",
          "name": "price",
          "type": "uint256"
        }
      ],
      "stateMutability": "view",
      "type": "function"
    },
    {
      "inputs": [
        {
          "internalType": "address",
          "name": "_buyer",
          "type": "address"
        },
        {
          "internalType": "uint256",
          "name": "_id",
          "type": "uint256"
        }
      ],
      "name": "getRedeemStatus",
      "outputs": [
        {
          "internalType": "enum Escrow.escrowState",
          "name": "",
          "type": "uint8"
        }
      ],
      "stateMutability": "view",
      "type": "function"
    },
    {
      "inputs": [
        {
          "internalType": "address",
          "name": "spender",
          "type": "address"
        },
        {
          "internalType": "uint256",
          "name": "addedValue",
          "type": "uint256"
        }
      ],
      "name": "increaseAllowance",
      "outputs": [
        {
          "internalType": "bool",
          "name": "",
          "type": "bool"
        }
      ],
      "stateMutability": "nonpayable",
      "type": "function"
    },
    {
      "inputs": [
        {
          "internalType": "string",
          "name": "_name",
          "type": "string"
        },
        {
          "internalType": "string",
          "name": "_symbol",
          "type": "string"
        },
        {
          "internalType": "address",
          "name": "_bondingCurveAddress",
          "type": "address"
        },
        {
          "internalType": "uint32",
          "name": "_reserveRatio",
          "type": "uint32"
        },
        {
          "internalType": "uint32",
          "name": "_maxTokenCount",
          "type": "uint32"
        },
        {
          "internalType": "uint32",
          "name": "_supplyOffset",
          "type": "uint32"
        },
        {
          "internalType": "uint256",
          "name": "_baseReserve",
          "type": "uint256"
        }
      ],
      "name": "initialize",
      "outputs": [],
      "stateMutability": "nonpayable",
      "type": "function"
    },
    {
      "inputs": [
        {
          "internalType": "enum Escrow.escrowState",
          "name": "_state",
          "type": "uint8"
        }
      ],
      "name": "isStateCompleted",
      "outputs": [
        {
          "internalType": "bool",
          "name": "",
          "type": "bool"
        }
      ],
      "stateMutability": "pure",
      "type": "function"
    },
    {
      "inputs": [],
      "name": "launch",
      "outputs": [],
      "stateMutability": "nonpayable",
      "type": "function"
    },
    {
      "inputs": [],
      "name": "maxTokenCount",
      "outputs": [
        {
          "internalType": "uint32",
          "name": "",
          "type": "uint32"
        }
      ],
      "stateMutability": "view",
      "type": "function"
    },
    {
      "inputs": [],
      "name": "name",
      "outputs": [
        {
          "internalType": "string",
          "name": "",
          "type": "string"
        }
      ],
      "stateMutability": "view",
      "type": "function"
    },
    {
      "inputs": [],
      "name": "owner",
      "outputs": [
        {
          "internalType": "address",
          "name": "",
          "type": "address"
        }
      ],
      "stateMutability": "view",
      "type": "function"
    },
    {
      "inputs": [],
      "name": "pause",
      "outputs": [],
      "stateMutability": "nonpayable",
      "type": "function"
    },
    {
      "inputs": [],
      "name": "poolInfo",
      "outputs": [
        {
          "internalType": "uint256",
          "name": "amount",
          "type": "uint256"
        },
        {
          "internalType": "uint256",
          "name": "accRewardPerShare",
          "type": "uint256"
        },
        {
          "internalType": "uint256",
          "name": "tokenReward",
          "type": "uint256"
        }
      ],
      "stateMutability": "view",
      "type": "function"
    },
    {
      "inputs": [],
      "name": "renounceOwnership",
      "outputs": [],
      "stateMutability": "nonpayable",
      "type": "function"
    },
    {
      "inputs": [],
      "name": "reserveBalance",
      "outputs": [
        {
          "internalType": "uint256",
          "name": "",
          "type": "uint256"
        }
      ],
      "stateMutability": "view",
      "type": "function"
    },
    {
      "inputs": [],
      "name": "reserveRatio",
      "outputs": [
        {
          "internalType": "uint32",
          "name": "",
          "type": "uint32"
        }
      ],
      "stateMutability": "view",
      "type": "function"
    },
    {
      "inputs": [
        {
          "internalType": "address",
          "name": "_address",
          "type": "address"
        }
      ],
      "name": "setBondingCurve",
      "outputs": [],
      "stateMutability": "nonpayable",
      "type": "function"
    },
    {
      "inputs": [
        {
          "internalType": "address",
          "name": "addr_",
          "type": "address"
        }
      ],
      "name": "setManager",
      "outputs": [],
      "stateMutability": "nonpayable",
      "type": "function"
    },
    {
      "inputs": [],
      "name": "supplier",
      "outputs": [
        {
          "internalType": "uint256",
          "name": "amount",
          "type": "uint256"
        },
        {
          "internalType": "address",
          "name": "wallet",
          "type": "address"
        }
      ],
      "stateMutability": "view",
      "type": "function"
    },
    {
      "inputs": [],
      "name": "symbol",
      "outputs": [
        {
          "internalType": "string",
          "name": "",
          "type": "string"
        }
      ],
      "stateMutability": "view",
      "type": "function"
    },
    {
      "inputs": [],
      "name": "totalSupply",
      "outputs": [
        {
          "internalType": "uint256",
          "name": "",
          "type": "uint256"
        }
      ],
      "stateMutability": "view",
      "type": "function"
    },
    {
      "inputs": [],
      "name": "tradeinCount",
      "outputs": [
        {
          "internalType": "uint32",
          "name": "",
          "type": "uint32"
        }
      ],
      "stateMutability": "view",
      "type": "function"
    },
    {
      "inputs": [],
      "name": "tradeinReserveBalance",
      "outputs": [
        {
          "internalType": "uint256",
          "name": "",
          "type": "uint256"
        }
      ],
      "stateMutability": "view",
      "type": "function"
    },
    {
      "inputs": [
        {
          "internalType": "address",
          "name": "recipient",
          "type": "address"
        },
        {
          "internalType": "uint256",
          "name": "amount",
          "type": "uint256"
        }
      ],
      "name": "transfer",
      "outputs": [
        {
          "internalType": "bool",
          "name": "",
          "type": "bool"
        }
      ],
      "stateMutability": "nonpayable",
      "type": "function"
    },
    {
      "inputs": [
        {
          "internalType": "address",
          "name": "sender",
          "type": "address"
        },
        {
          "internalType": "address",
          "name": "recipient",
          "type": "address"
        },
        {
          "internalType": "uint256",
          "name": "amount",
          "type": "uint256"
        }
      ],
      "name": "transferFrom",
      "outputs": [
        {
          "internalType": "bool",
          "name": "",
          "type": "bool"
        }
      ],
      "stateMutability": "nonpayable",
      "type": "function"
    },
    {
      "inputs": [
        {
          "internalType": "address",
          "name": "newOwner",
          "type": "address"
        }
      ],
      "name": "transferOwnership",
      "outputs": [],
      "stateMutability": "nonpayable",
      "type": "function"
    },
    {
      "inputs": [
        {
          "internalType": "address",
          "name": "buyer",
          "type": "address"
        },
        {
          "internalType": "uint256",
          "name": "id",
          "type": "uint256"
        }
      ],
      "name": "updateUserCompleted",
      "outputs": [],
      "stateMutability": "nonpayable",
      "type": "function"
    },
    {
      "inputs": [
        {
          "internalType": "address",
          "name": "buyer",
          "type": "address"
        },
        {
          "internalType": "uint256",
          "name": "id",
          "type": "uint256"
        }
      ],
      "name": "updateUserRefund",
      "outputs": [],
      "stateMutability": "nonpayable",
      "type": "function"
    },
    {
      "inputs": [
        {
          "internalType": "address",
          "name": "",
          "type": "address"
        }
      ],
      "name": "userInfo",
      "outputs": [
        {
          "internalType": "uint256",
          "name": "amount",
          "type": "uint256"
        },
        {
          "internalType": "uint256",
          "name": "rewardDebt",
          "type": "uint256"
        },
        {
          "internalType": "uint256",
          "name": "lastReward",
          "type": "uint256"
        }
      ],
      "stateMutability": "view",
      "type": "function"
    },
    {
      "inputs": [],
      "name": "voucher",
      "outputs": [
        {
          "internalType": "address",
          "name": "addr",
          "type": "address"
        },
        {
          "internalType": "contract IVNFT",
          "name": "instance",
          "type": "address"
        },
        {
          "internalType": "uint256",
          "name": "tokenId",
          "type": "uint256"
        },
        {
          "internalType": "bool",
          "name": "isEnable",
          "type": "bool"
        }
      ],
      "stateMutability": "view",
      "type": "function"
    },
    {
      "inputs": [
        {
          "internalType": "address",
          "name": "highAddress_",
          "type": "address"
        }
      ],
      "name": "setHigh",
      "outputs": [],
      "stateMutability": "nonpayable",
      "type": "function"
    },
    {
      "inputs": [
        {
          "internalType": "uint256",
          "name": "maxPrice_",
          "type": "uint256"
        }
      ],
      "name": "buy",
      "outputs": [],
      "stateMutability": "nonpayable",
      "type": "function"
    },
    {
      "inputs": [
        {
          "internalType": "uint32",
          "name": "amount_",
          "type": "uint32"
        }
      ],
      "name": "sell",
      "outputs": [],
      "stateMutability": "nonpayable",
      "type": "function"
    },
    {
      "inputs": [
        {
          "internalType": "uint32",
          "name": "amount_",
          "type": "uint32"
        }
      ],
      "name": "tradein",
      "outputs": [],
      "stateMutability": "nonpayable",
      "type": "function"
    },
    {
      "inputs": [
        {
          "internalType": "uint256",
          "name": "fee_",
          "type": "uint256"
        }
      ],
      "name": "updatePool",
      "outputs": [],
      "stateMutability": "nonpayable",
      "type": "function"
    },
    {
      "inputs": [
        {
          "internalType": "address",
          "name": "wallet_",
          "type": "address"
        }
      ],
      "name": "updateSupplierInfo",
      "outputs": [],
      "stateMutability": "nonpayable",
      "type": "function"
    },
    {
      "inputs": [
        {
          "internalType": "uint256",
          "name": "amount_",
          "type": "uint256"
        }
      ],
      "name": "claimSupplier",
      "outputs": [],
      "stateMutability": "nonpayable",
      "type": "function"
    },
    {
      "inputs": [],
      "name": "getSupplierBalance",
      "outputs": [
        {
          "internalType": "uint256",
          "name": "",
          "type": "uint256"
        }
      ],
      "stateMutability": "view",
      "type": "function"
    },
    {
      "inputs": [
        {
          "internalType": "uint256",
          "name": "value_",
          "type": "uint256"
        }
      ],
      "name": "withdrawEther",
      "outputs": [],
      "stateMutability": "payable",
      "type": "function"
    },
    {
      "inputs": [
        {
          "internalType": "uint256",
          "name": "amount_",
          "type": "uint256"
        },
        {
          "internalType": "address",
          "name": "to_",
          "type": "address"
        }
      ],
      "name": "withdrawHigh",
      "outputs": [],
      "stateMutability": "nonpayable",
      "type": "function"
    },
    {
      "inputs": [
        {
          "internalType": "address",
          "name": "addr_",
          "type": "address"
        }
      ],
      "name": "getUserReward",
      "outputs": [
        {
          "internalType": "uint256",
          "name": "",
          "type": "uint256"
        }
      ],
      "stateMutability": "view",
      "type": "function"
    },
    {
      "inputs": [
        {
          "internalType": "address",
          "name": "addr_",
          "type": "address"
        }
      ],
      "name": "getUserInfo",
      "outputs": [
        {
          "components": [
            {
              "internalType": "uint256",
              "name": "amount",
              "type": "uint256"
            },
            {
              "internalType": "uint256",
              "name": "rewardDebt",
              "type": "uint256"
            },
            {
              "internalType": "uint256",
              "name": "lastReward",
              "type": "uint256"
            },
            {
              "internalType": "uint256[]",
              "name": "records",
              "type": "uint256[]"
            }
          ],
          "internalType": "struct ProductTokenV1.UserInfo",
          "name": "",
          "type": "tuple"
        }
      ],
      "stateMutability": "view",
      "type": "function"
    },
    {
      "inputs": [],
      "name": "getPoolInfo",
      "outputs": [
        {
          "components": [
            {
              "internalType": "uint256",
              "name": "amount",
              "type": "uint256"
            },
            {
              "internalType": "uint256",
              "name": "accRewardPerShare",
              "type": "uint256"
            },
            {
              "internalType": "uint256",
              "name": "tokenReward",
              "type": "uint256"
            }
          ],
          "internalType": "struct ProductTokenV1.PoolInfo",
          "name": "",
          "type": "tuple"
        }
      ],
      "stateMutability": "view",
      "type": "function"
    },
    {
      "inputs": [],
      "name": "getSupplierInfo",
      "outputs": [
        {
          "components": [
            {
              "internalType": "uint256",
              "name": "amount",
              "type": "uint256"
            },
            {
              "internalType": "address",
              "name": "wallet",
              "type": "address"
            }
          ],
          "internalType": "struct ProductTokenV1.supplierInfo",
          "name": "",
          "type": "tuple"
        }
      ],
      "stateMutability": "view",
      "type": "function"
    }
  ],
  "bytecode": "0x608060405234801561001057600080fd5b50614590806100206000396000f3fe6080604052600436106102af5760003560e060020a90048063828f3a9c1161016a578063c75ebb82116100cb578063c75ebb82146108c8578063cdda418c146108e8578063d0ebdbe714610947578063d500958414610967578063d96a094a14610985578063dd304b1a146109a5578063dd62ed3e146109d2578063deebbef114610a18578063e67dc51814610a38578063eb91d37e14610a4e578063ebc9e4d614610a63578063efea8a1314610a83578063f2fde38b14610aa3578063f97511d314610ac3576102af565b8063828f3a9c146107045780638456cb59146107245780638da5cb5b1461073957806395d89b411461075b578063964a6afe146107705780639b9ffbf314610785578063a10954fe146107b4578063a457c2d7146107ca578063a8d92629146107ea578063a9059cbb1461080a578063af22803e1461082a578063ba7a93b61461085f578063c4e627c214610883578063c757d4c7146108a8576102af565b806343ff1fb81161021457806343ff1fb8146104e8578063491052cd146105085780634ffd23a71461052857806351eb05a6146105485780635a2f3d09146105685780635e88752c1461058757806360246c88146105a75780636386c1c7146105de57806363c51fbb1461060b5780636e74607b1461062b57806370a0823114610658578063715018a61461067857806374a7b0121461068d5780637a53e040146106ef576102af565b806301339c21146102be57806306fdde03146102d5578063095ea7b3146103005780630c7d5cd8146103305780630ccee99b1461036257806318160ddd146103825780631959a002146103a157806319d5b587146103f8578063224e4f481461041857806323b872dd14610438578063313ce5671461045857806336da44681461047457806339509351146104b55780633bed33ce146104d5575b3480156102bb57600080fd5b50005b3480156102ca57600080fd5b506102d3610ae3565b005b3480156102e157600080fd5b506102ea610bcb565b6040516102f79190614068565b60405180910390f35b34801561030c57600080fd5b5061032061031b366004613d56565b610c5d565b60405190151581526020016102f7565b34801561033c57600080fd5b50609b5461034d9063ffffffff1681565b60405163ffffffff90911681526020016102f7565b34801561036e57600080fd5b506102d361037d366004613d56565b610c74565b34801561038e57600080fd5b506035545b6040519081526020016102f7565b3480156103ad57600080fd5b506103dd6103bc366004613ccf565b60a76020526000908152604090208054600182015460029092015490919083565b604080519384526020840192909252908201526060016102f7565b34801561040457600080fd5b50610393610413366004613ec5565b610cfb565b34801561042457600080fd5b50610393610433366004613ec5565b610dfc565b34801561044457600080fd5b50610320610453366004613d1b565b610e21565b34801561046457600080fd5b50604051600081526020016102f7565b34801561048057600080fd5b50609e54609f546104989190600160a060020a031682565b60408051928352600160a060020a039091166020830152016102f7565b3480156104c157600080fd5b506103206104d0366004613d56565b610eea565b6102d36104e3366004613e73565b610f21565b3480156104f457600080fd5b506102d3610503366004613ccf565b610fd1565b34801561051457600080fd5b50610320610523366004613d9f565b61104e565b34801561053457600080fd5b506102d3610543366004613ec5565b6110a8565b34801561055457600080fd5b506102d3610563366004613e73565b61122f565b34801561057457600080fd5b5060a05460a15460a2546103dd92919083565b34801561059357600080fd5b506102d36105a2366004613e73565b611269565b3480156105b357600080fd5b506105bc6113ce565b60408051825181526020808401519082015291810151908201526060016102f7565b3480156105ea57600080fd5b506105fe6105f9366004613ccf565b611417565b6040516102f79190614305565b34801561061757600080fd5b506102d3610626366004613ec5565b611504565b34801561063757600080fd5b5061064b610646366004613ccf565b6116b3565b6040516102f79190613fe7565b34801561066457600080fd5b50610393610673366004613ccf565b611799565b34801561068457600080fd5b506102d36117b4565b34801561069957600080fd5b5060408051808201825260008082526020918201528151808301909252609e548252609f54600160a060020a0316908201526040805182518152602092830151600160a060020a031692810192909252016102f7565b3480156106fb57600080fd5b5061034d61181e565b34801561071057600080fd5b5061034d61071f366004613e73565b611864565b34801561073057600080fd5b506102d3611878565b34801561074557600080fd5b5061074e611949565b6040516102f79190613f49565b34801561076757600080fd5b506102ea611958565b34801561077c57600080fd5b50609e54610393565b34801561079157600080fd5b506107a56107a0366004613d56565b611967565b6040516102f793929190614043565b3480156107c057600080fd5b5061039360995481565b3480156107d657600080fd5b506103206107e5366004613d56565b6119b2565b3480156107f657600080fd5b506102d3610805366004613ccf565b611a53565b34801561081657600080fd5b50610320610825366004613d56565b611ad0565b34801561083657600080fd5b5061084a610845366004613ec5565b611add565b604080519283526020830191909152016102f7565b34801561086b57600080fd5b50609b5461034d90604060020a900463ffffffff1681565b34801561088f57600080fd5b50609b5461034d90640100000000900463ffffffff1681565b3480156108b457600080fd5b506102d36108c3366004613d56565b611ba0565b3480156108d457600080fd5b506103936108e3366004613ccf565b611c89565b3480156108f457600080fd5b5060a35460a45460a55460a65461091a93600160a060020a039081169316919060ff1684565b60408051600160a060020a03958616815294909316602085015291830152151560608201526080016102f7565b34801561095357600080fd5b506102d3610962366004613ccf565b611cfd565b34801561097357600080fd5b50609c54600160a060020a031661074e565b34801561099157600080fd5b506102d36109a0366004613e73565b611d7a565b3480156109b157600080fd5b506109c56109c0366004613d56565b612170565b6040516102f79190614035565b3480156109de57600080fd5b506103936109ed366004613ce9565b600160a060020a03918216600090815260346020908152604080832093909416825291909152205490565b348015610a2457600080fd5b506102d3610a33366004613ccf565b6121c6565b348015610a4457600080fd5b50610393609a5481565b348015610a5a57600080fd5b50610393612273565b348015610a6f57600080fd5b506102d3610a7e366004613ea3565b61227f565b348015610a8f57600080fd5b506102d3610a9e366004613dbe565b612406565b348015610aaf57600080fd5b506102d3610abe366004613ccf565b61249b565b348015610acf57600080fd5b50610393610ade366004613ec5565b612596565b33610aec611949565b600160a060020a031614610b1e5760405160e560020a62461bcd028152600401610b1590614262565b60405180910390fd5b60985460ff1615610b855760405160e560020a62461bcd02815260206004820152602560248201527f5468652070726f6475637420746f6b656e20697320616c7265616479206c6175604482015260da60020a641b98da1959026064820152608401610b15565b6098805460ff191660019081179091556040519081527f65c5ccecef030677b73a1403e7e69ef84d05db9d1732959d543d32f4419909b8906020015b60405180910390a1565b606060368054610bda9061445a565b80601f0160208091040260200160405190810160405280929190818152602001828054610c069061445a565b8015610c535780601f10610c2857610100808354040283529160200191610c53565b820191906000526020600020905b815481529060010190602001808311610c3657829003601f168201915b5050505050905090565b6000610c6a3384846125b3565b5060015b92915050565b610c7c611949565b600160a060020a031633600160a060020a03161480610ca55750609c54600160a060020a031633145b610cc45760405160e560020a62461bcd028152600401610b159061422b565b600160a060020a038216610ced5760405160e560020a62461bcd028152600401610b15906140f2565b610cf782826126e4565b5050565b6000808263ffffffff1611610d255760405160e560020a62461bcd028152600401610b1590614160565b609b54600090610d5c9063ffffffff606060020a8204811691610d569187811691604060020a900481169061285d16565b9061285d565b609d54609a54609b5460405160e060020a631c949873028152939450600160a060020a0390921692631c94987392610da3928692909163ffffffff16908990600401614374565b60206040518083038186803b158015610dbb57600080fd5b505afa158015610dcf573d6000803e3d6000fd5b505050506040513d601f19601f82011682018060405250810190610df39190613e8b565b9150505b919050565b6000806000610e0a84612870565b9092509050610e198282612927565b949350505050565b6000610e2e848484612933565b600160a060020a038416600090815260346020908152604080832033845290915290205482811015610ecb5760405160e560020a62461bcd02815260206004820152602860248201527f45524332303a207472616e7366657220616d6f756e742065786365656473206160448201527f6c6c6f77616e63650000000000000000000000000000000000000000000000006064820152608401610b15565b610edf8533610eda868561441e565b6125b3565b506001949350505050565b336000818152603460209081526040808320600160a060020a03871684529091528120549091610c6a918590610eda90869061439c565b33610f2a611949565b600160a060020a031614610f535760405160e560020a62461bcd028152600401610b1590614262565b3031610fa45760405160e560020a62461bcd02815260206004820152600f60248201527f6e6f20656e6f75676820657468657200000000000000000000000000000000006044820152606401610b15565b604051339082156108fc029083906000818181858888f19350505050158015610cf7573d6000803e3d6000fd5b33610fda611949565b600160a060020a0316146110035760405160e560020a62461bcd028152600401610b1590614262565b600160a060020a03811661102c5760405160e560020a62461bcd028152600401610b15906140bb565b609d8054600160a060020a031916600160a060020a0392909216919091179055565b600060038260038111156110755760e060020a634e487b7102600052602160045260246000fd5b1480610c6e575060028260038111156110a15760e060020a634e487b7102600052602160045260246000fd5b1492915050565b60985460ff166110cd5760405160e560020a62461bcd028152600401610b1590614297565b8063ffffffff166110dd33611799565b1015806110f0575060008163ffffffff16115b61110f5760405160e560020a62461bcd028152600401610b1590614160565b60008061111b83612b1f565b9150915061112883612c32565b60a85460405160e060020a63a9059cbb028152600091600160a060020a03169063a9059cbb9061115e9033908790600401613f5d565b602060405180830381600087803b15801561117857600080fd5b505af115801561118c573d6000803e3d6000fd5b505050506040513d601f19601f820116820180604052508101906111b09190613d7f565b90506111d96111d46501d1a94a20006111ce8564e8d4a51000612e48565b90612e54565b612e60565b806112295760405160e560020a62461bcd02815260206004820152601460248201527f73656c6c696e6720746f6b656e206661696c65640000000000000000000000006044820152606401610b15565b50505050565b60a054806112425750600060a155611266565b611261611258826111ce8564e8d4a51000612e48565b60a1549061285d565b60a155505b50565b609f54600160a060020a03166112c45760405160e560020a62461bcd02815260206004820152601160248201527f77616c6c657420697320696e76616c69640000000000000000000000000000006044820152606401610b15565b609f54600160a060020a031633146113215760405160e560020a62461bcd02815260206004820152601a60248201527f5468652061646472657373206973206e6f7420616c6c6f7765640000000000006044820152606401610b15565b609e5481116112665760a85460405160e060020a63a9059cbb028152600091600160a060020a03169063a9059cbb906113609033908690600401613f5d565b602060405180830381600087803b15801561137a57600080fd5b505af115801561138e573d6000803e3d6000fd5b505050506040513d601f19601f820116820180604052508101906113b29190613d7f565b90508015610cf757609e546113c79083612927565b609e555050565b6113f260405180606001604052806000815260200160008152602001600081525090565b506040805160608101825260a054815260a154602082015260a2549181019190915290565b6114426040518060800160405280600081526020016000815260200160008152602001606081525090565b600160a060020a03821661146b5760405160e560020a62461bcd028152600401610b1590614197565b600160a060020a038216600090815260a7602090815260409182902082516080810184528154815260018201548184015260028201548185015260038201805485518186028101860190965280865291949293606086019392908301828280156114f457602002820191906000526020600020905b8154815260200190600101908083116114e0575b5050505050815250509050919050565b60985460ff166115295760405160e560020a62461bcd028152600401610b1590614297565b60008163ffffffff16116115525760405160e560020a62461bcd028152600401610b15906142ce565b8063ffffffff1661156233611799565b10156115b35760405160e560020a62461bcd02815260206004820152601c60248201527f496e73756666696369656e7420746f6b656e7320746f206275726e2e000000006044820152606401610b15565b6000806115bf83612870565b9150915060006115ce84610cfb565b90506115f16111d482610d566512309ce540006111ce876509184e72a000612e48565b6115fb8383612927565b92506116078484612e79565b50611618338563ffffffff16612fcd565b609b54611633908590604060020a900463ffffffff166143b4565b609b80546bffffffff00000000000000001916604060020a63ffffffff93841602179055609a5461166691839061285d16565b609a5561167284612c32565b60405163ffffffff8516815233907fe600c25f82e9bac8f9f1663725540d6cd442845726820fd5bee41b66c4bf59be9060200160405180910390a250505050565b600160a060020a0381166000908152606560209081526040808320805482518185028101850190935280835260609492939192909184015b8282101561178e576000848152602090206040805160608101909152600284029091018054829060ff1660038111156117375760e060020a634e487b7102600052602160045260246000fd5b60038111156117595760e060020a634e487b7102600052602160045260246000fd5b81528154610100900463ffffffff166020808301919091526001928301546040909201919091529183529290920191016116eb565b505050509050919050565b600160a060020a031660009081526033602052604090205490565b336117bd611949565b600160a060020a0316146117e65760405160e560020a62461bcd028152600401610b1590614262565b606654604051600091600160a060020a03169060008051602061451b833981519152908390a360668054600160a060020a0319169055565b609b54600090604060020a900463ffffffff1661183a60355490565b609b546118559190640100000000900463ffffffff16614435565b61185f9190614435565b905090565b60008061187083613116565b509392505050565b33611881611949565b600160a060020a0316146118aa5760405160e560020a62461bcd028152600401610b1590614262565b60985460ff1661190e5760405160e560020a62461bcd02815260206004820152602360248201527f5468652070726f6475637420746f6b656e20697320616c726561647920706175604482015260ea60020a621cd959026064820152608401610b15565b6098805460ff19169055604051600081527f65c5ccecef030677b73a1403e7e69ef84d05db9d1732959d543d32f4419909b890602001610bc1565b606654600160a060020a031690565b606060378054610bda9061445a565b6065602052816000526040600020818154811061198357600080fd5b60009182526020909120600290910201805460019091015460ff8216935061010090910463ffffffff16915083565b336000908152603460209081526040808320600160a060020a038616845290915281205482811015611a3a5760405160e560020a62461bcd02815260206004820152602560248201527f45524332303a2064656372656173656420616c6c6f77616e63652062656c6f77604482015260d860020a64207a65726f026064820152608401610b15565b611a493385610eda868561441e565b5060019392505050565b33611a5c611949565b600160a060020a031614611a855760405160e560020a62461bcd028152600401610b1590614262565b600160a060020a038116611aae5760405160e560020a62461bcd028152600401610b15906140bb565b60a88054600160a060020a031916600160a060020a0392909216919091179055565b6000610c6a338484612933565b609d5460009081908190600160a060020a031663bff82d84611afd61321b565b609954609b5460405163ffffffff85811660e060020a028252611b2894939216908a90600401614374565b60206040518083038186803b158015611b4057600080fd5b505afa158015611b54573d6000803e3d6000fd5b505050506040513d601f19601f82011682018060405250810190611b789190613e8b565b90506000611b9464e8d4a510006111ce846412a05f2000612e48565b91935090915050915091565b611ba8611949565b600160a060020a031633600160a060020a03161480611bd15750609c54600160a060020a031633145b611bf05760405160e560020a62461bcd028152600401610b159061422b565b600160a060020a038216611c195760405160e560020a62461bcd028152600401610b15906140f2565b6000611c258383613248565b905060008111611c7a5760405160e560020a62461bcd02815260206004820152600d60248201527f496e76616c69642076616c7565000000000000000000000000000000000000006044820152606401610b15565b611c8483826133f9565b505050565b600160a060020a038116600090815260a7602052604081205415611cf557600160a060020a038216600090815260a760205260409020600181015460a154825460a092611cec929091611ce69164e8d4a51000916111ce91612e48565b90612927565b92505050610df7565b506000919050565b33611d06611949565b600160a060020a031614611d2f5760405160e560020a62461bcd028152600401610b1590614262565b600160a060020a038116611d585760405160e560020a62461bcd028152600401610b1590614197565b609c8054600160a060020a031916600160a060020a0392909216919091179055565b60985460ff16611d9f5760405160e560020a62461bcd028152600401610b1590614297565b60008111611df25760405160e560020a62461bcd02815260206004820152601160248201527f696e76616c6964206d61782070726963650000000000000000000000000000006044820152606401610b15565b60a85460405160e060020a6323b872dd02815233600482015230602482015260448101839052600091600160a060020a0316906323b872dd90606401602060405180830381600087803b158015611e4857600080fd5b505af1158015611e5c573d6000803e3d6000fd5b505050506040513d601f19601f82011682018060405250810190611e809190613d7f565b905080611ed25760405160e560020a62461bcd02815260206004820152601060248201527f5075726368617365206661696c65642e000000000000000000000000000000006044820152606401610b15565b600080600080611ee1866134d3565b93509350935063ffffffff16935060008411156120df578215611f875760a85460405160e060020a63a9059cbb028152600160a060020a039091169063a9059cbb90611f339033908790600401613f5d565b602060405180830381600087803b158015611f4d57600080fd5b505af1158015611f61573d6000803e3d6000fd5b505050506040513d601f19601f82011682018060405250810190611f859190613d7f565b505b611fa36111d4650746a52880006111ce8464e8d4a51000612e48565b6000611fbf650746a52880006111ce84650574fbde6000612e48565b60a254909150611fcf908261285d565b60a255611fdb8161122f565b33600090815260a760205260408120600181015460a1548254929360a0939092612015929091611ce69164e8d4a51000916111ce91612e48565b905080156120bd576002830181905560a85460405160e060020a63a9059cbb028152600160a060020a039091169063a9059cbb906120599033908590600401613f5d565b602060405180830381600087803b15801561207357600080fd5b505af1158015612087573d6000803e3d6000fd5b505050506040513d601f19601f820116820180604052508101906120ab9190613d7f565b5060a2546120b99082612927565b60a2555b60a0546120ca908761285d565b60a0556120d686613638565b50505050612168565b60a85460405160e060020a63a9059cbb028152600160a060020a039091169063a9059cbb906121149033908a90600401613f5d565b602060405180830381600087803b15801561212e57600080fd5b505af1158015612142573d6000803e3d6000fd5b505050506040513d601f19601f820116820180604052508101906121669190613d7f565b505b505050505050565b600160a060020a03821660009081526065602052604081208054839081106121ab5760e060020a634e487b7102600052603260045260246000fd5b600091825260209091206002909102015460ff169392505050565b336121cf611949565b600160a060020a0316146121f85760405160e560020a62461bcd028152600401610b1590614262565b600160a060020a0381166122515760405160e560020a62461bcd02815260206004820152601260248201527f4164647265737320697320696e76616c696400000000000000000000000000006044820152606401610b15565b609f8054600160a060020a031916600160a060020a0392909216919091179055565b600061185f6001612596565b33612288611949565b600160a060020a0316146122b15760405160e560020a62461bcd028152600401610b1590614262565b600160a060020a0381166122da5760405160e560020a62461bcd028152600401610b1590614197565b60a85460405160e060020a6370a08231028152600160a060020a03909116906370a082319061230d903090600401613f49565b60206040518083038186803b15801561232557600080fd5b505afa158015612339573d6000803e3d6000fd5b505050506040513d601f19601f8201168201806040525081019061235d9190613e8b565b82111561237f5760405160e560020a62461bcd028152600401610b1590614160565b60a85460405160e060020a63a9059cbb028152600160a060020a039091169063a9059cbb906123b49084908690600401613f5d565b602060405180830381600087803b1580156123ce57600080fd5b505af11580156123e2573d6000803e3d6000fd5b505050506040513d601f19601f82011682018060405250810190611c849190613d7f565b600054610100900460ff168061241f575060005460ff16155b61243e5760405160e560020a62461bcd028152600401610b15906141ce565b600054610100900460ff16158015612460576000805461ffff19166101011790555b612468613691565b612472888861370f565b61247f8686868686613791565b8015612491576000805461ff00191690555b5050505050505050565b336124a4611949565b600160a060020a0316146124cd5760405160e560020a62461bcd028152600401610b1590614262565b600160a060020a03811661254c5760405160e560020a62461bcd02815260206004820152602660248201527f4f776e61626c653a206e6577206f776e657220697320746865207a65726f206160448201527f64647265737300000000000000000000000000000000000000000000000000006064820152608401610b15565b606654604051600160a060020a0380841692169060008051602061451b83398151915290600090a360668054600160a060020a031916600160a060020a0392909216919091179055565b60008060006125a484611add565b9092509050610e19828261285d565b600160a060020a03831661261b5760405160e560020a62461bcd028152602060048201526024808201527f45524332303a20617070726f76652066726f6d20746865207a65726f20616464604482015260e060020a6372657373026064820152608401610b15565b600160a060020a0382166126825760405160e560020a62461bcd02815260206004820152602260248201527f45524332303a20617070726f766520746f20746865207a65726f206164647265604482015260f060020a617373026064820152608401610b15565b600160a060020a0383811660008181526034602090815260408083209487168084529482529182902085905590518481527f8c5be1e5ebec7d5bd14f71427d1e84f3dd0314c0f7b2291e5b200ac8c7c3b92591015b60405180910390a3505050565b600160a060020a0382166000908152606560205260409020805461273d9190839081106127245760e060020a634e487b7102600052603260045260246000fd5b600091825260209091206002909102015460ff1661104e565b1561275d5760405160e560020a62461bcd028152600401610b1590614129565b600160a060020a03821660009081526065602052604090208054600391908390811061279c5760e060020a634e487b7102600052603260045260246000fd5b60009182526020909120600290910201805460ff191660018360038111156127d75760e060020a634e487b7102600052602160045260246000fd5b02179055506000805160206144fb83398151915282826065600086600160a060020a0316600160a060020a0316815260200190815260200160002084815481106128345760e060020a634e487b7102600052603260045260246000fd5b906000526020600020906002020160405161285193929190613f9a565b60405180910390a15050565b6000612869828461439c565b9392505050565b609d5460009081908190600160a060020a0316631c94987361289061321b565b609954609b5460405163ffffffff85811660e060020a0282526128bb94939216908a90600401614374565b60206040518083038186803b1580156128d357600080fd5b505afa1580156128e7573d6000803e3d6000fd5b505050506040513d601f19601f8201168201806040525081019061290b9190613e8b565b90506000611b9464e8d4a510006111ce846404a817c800612e48565b6000612869828461441e565b600160a060020a03831661299d5760405160e560020a62461bcd02815260206004820152602560248201527f45524332303a207472616e736665722066726f6d20746865207a65726f206164604482015260d860020a646472657373026064820152608401610b15565b600160a060020a038216612a055760405160e560020a62461bcd02815260206004820152602360248201527f45524332303a207472616e7366657220746f20746865207a65726f2061646472604482015260e860020a62657373026064820152608401610b15565b600160a060020a03831660009081526033602052604090205481811015612a975760405160e560020a62461bcd02815260206004820152602660248201527f45524332303a207472616e7366657220616d6f756e742065786365656473206260448201527f616c616e636500000000000000000000000000000000000000000000000000006064820152608401610b15565b612aa1828261441e565b600160a060020a038086166000908152603360205260408082209390935590851681529081208054849290612ad790849061439c565b9250508190555082600160a060020a031684600160a060020a031660008051602061453b83398151915284604051612b1191815260200190565b60405180910390a350505050565b60008060008363ffffffff1611612b4b5760405160e560020a62461bcd028152600401610b15906142ce565b8263ffffffff16612b5b33611799565b1015612bac5760405160e560020a62461bcd02815260206004820152601c60248201527f496e73756666696369656e7420746f6b656e7320746f2073656c6c2e000000006044820152606401610b15565b600080612bb885612870565b6099549193509150612bca9083612927565b609955612bdd3363ffffffff8716612fcd565b6040805163ffffffff871681526020810184905233917f84c8d08e5480cf09cbf77bc575dc4e63845522693c34094f04129a4dedb7abd7910160405180910390a2612c288282612927565b9350915050915091565b33600090815260a76020526040902054156112665733600081815260a76020526040902060038101549091612c6690611799565b11610cf757600381015463ffffffff831690811115612c86575060038101545b6000805b82811015612d3257600384018054612ce39190612ca8906001612927565b81548110612cc95760e060020a634e487b7102600052603260045260246000fd5b90600052602060002001548361285d90919063ffffffff16565b915083600301805480612d095760e060020a634e487b7102600052603160045260246000fd5b600190038181906000526020600020016000905590558080612d2a90614499565b915050612c8a565b50600183015460a154845460a092600092612d5b92611ce69164e8d4a51000916111ce91612e48565b60a054909150612d6b9084612927565b60a0558015612e14576002850181905560a85460405160e060020a63a9059cbb028152600160a060020a039091169063a9059cbb90612db09033908590600401613f5d565b602060405180830381600087803b158015612dca57600080fd5b505af1158015612dde573d6000803e3d6000fd5b505050506040513d601f19601f82011682018060405250810190612e029190613d7f565b5060a254612e109082612927565b60a2555b8454612e209084612927565b80865560a154612e3b9164e8d4a51000916111ce9190612e48565b6001860155505050505050565b600061286982846143ff565b600061286982846143dc565b801561126657609e54612e73908261285d565b609e5550565b6000808363ffffffff1611612ed35760405160e560020a62461bcd02815260206004820152600e60248201527f496e76616c696420416d6f756e740000000000000000000000000000000000006044820152606401610b15565b60408051606081018252600180825263ffffffff861660208084019190915282840186905233600090815260658252938420805480840182559085529320825160029094020180549293849391929091839160ff1990911690836003811115612f4f5760e060020a634e487b7102600052602160045260246000fd5b0217905550602082810151825463ffffffff9091166101000264ffffffff0019909116178255604092830151600192830155336000908152606590915291822054612f9a919061441e565b90506000805160206144fb833981519152338284604051612fbd93929190613f76565b60405180910390a1949350505050565b600160a060020a0382166130335760405160e560020a62461bcd02815260206004820152602160248201527f45524332303a206275726e2066726f6d20746865207a65726f20616464726573604482015260f860020a6073026064820152608401610b15565b600160a060020a038216600090815260336020526040902054818110156130ad5760405160e560020a62461bcd02815260206004820152602260248201527f45524332303a206275726e20616d6f756e7420657863656564732062616c616e604482015260f060020a616365026064820152608401610b15565b6130b7828261441e565b600160a060020a038416600090815260336020526040812091909155603580548492906130e590849061441e565b9091555050604051828152600090600160a060020a0385169060008051602061453b833981519152906020016126d7565b6000808061313264fb750430006111ce8664e8d4a51000612e48565b9050600061314e64e8d4a510006111ce84640df8475800612e48565b609d54909150600090600160a060020a0316639f4ae6b061316d61321b565b609954609b5463ffffffff9081169061318a908990899061292716565b60405163ffffffff86811660e060020a0282529485166004820152602481019390935292166044820152606481019190915260840160206040518083038186803b1580156131d757600080fd5b505afa1580156131eb573d6000803e3d6000fd5b505050506040513d601f19601f8201168201806040525081019061320f9190613ee1565b94509092505050915091565b609b5460009061185f9063ffffffff606060020a8204811691610d5691604060020a909104168160355490565b600160a060020a038216600090815260656020526040812080546132889190849081106127245760e060020a634e487b7102600052603260045260246000fd5b156132a85760405160e560020a62461bcd028152600401610b1590614129565b600160a060020a0383166000908152606560205260409020805460029190849081106132e75760e060020a634e487b7102600052603260045260246000fd5b60009182526020909120600290910201805460ff191660018360038111156133225760e060020a634e487b7102600052602160045260246000fd5b02179055506000805160206144fb83398151915283836065600087600160a060020a0316600160a060020a03168152602001908152602001600020858154811061337f5760e060020a634e487b7102600052603260045260246000fd5b906000526020600020906002020160405161339c93929190613f9a565b60405180910390a1600160a060020a03831660009081526065602052604090208054839081106133df5760e060020a634e487b7102600052603260045260246000fd5b906000526020600020906002020160010154905092915050565b60a85460405160e060020a63a9059cbb028152600091600160a060020a03169063a9059cbb9061342f9086908690600401613f5d565b602060405180830381600087803b15801561344957600080fd5b505af115801561345d573d6000803e3d6000fd5b505050506040513d601f19601f820116820180604052508101906134819190613d7f565b905080611c845760405160e560020a62461bcd02815260206004820152601360248201527f726566756e6420746f6b656e206661696c6564000000000000000000000000006044820152606401610b15565b60008060008060006134e361181e565b63ffffffff16116135395760405160e560020a62461bcd02815260206004820152601e60248201527f536f7272792c207468697320746f6b656e20697320736f6c64206f75742e00006044820152606401610b15565b6000851161358c5760405160e560020a62461bcd02815260206004820152601960248201527f4465706f736974206d757374206265206e6f6e2d7a65726f2e000000000000006044820152606401610b15565b6000806135996001611add565b91509150868211156135ba5760008760008095509550955095505050613631565b6135c5336001613924565b6135db6135d28383612927565b6099549061285d565b60995560408051600181526020810184905233917f5b55159a377d86da80a65140d62d994ddbb2cbd4bb2d1b59cb0827fecbe47cab910160405180910390a260016136268884612927565b909650945090925090505b9193509193565b33600090815260a7602052604090208054613653908361285d565b8155600381018054600181018255600091825260209091200182905560a15481546136889164e8d4a51000916111ce91612e48565b60019091015550565b600054610100900460ff16806136aa575060005460ff16155b6136c95760405160e560020a62461bcd028152600401610b15906141ce565b600054610100900460ff161580156136eb576000805461ffff19166101011790555b6136f36139f4565b6136fb613a61565b8015611266576000805461ff001916905550565b600054610100900460ff1680613728575060005460ff16155b6137475760405160e560020a62461bcd028152600401610b15906141ce565b600054610100900460ff16158015613769576000805461ffff19166101011790555b6137716139f4565b61377b8383613b00565b8015611c84576000805461ff0019169055505050565b600054610100900460ff16806137aa575060005460ff16155b6137c95760405160e560020a62461bcd028152600401610b15906141ce565b600054610100900460ff161580156137eb576000805461ffff19166101011790555b60008463ffffffff16116138445760405160e560020a62461bcd02815260206004820152601860248201527f496e76616c6964206d617820746f6b656e20636f756e742e00000000000000006044820152606401610b15565b60008563ffffffff161161389d5760405160e560020a62461bcd02815260206004820152601560248201527f496e76616c6964207265736572766520726174696f00000000000000000000006044820152606401610b15565b609d8054600160a060020a038816600160a060020a03199091161790556099829055609a829055609b805463ffffffff8681166401000000000267ffffffffffffffff19828816606060020a02166fffffffff00000000ffffffffffffffff1990931692909217908816171790558015612168576000805461ff0019169055505050505050565b600160a060020a03821661397d5760405160e560020a62461bcd02815260206004820152601f60248201527f45524332303a206d696e7420746f20746865207a65726f2061646472657373006044820152606401610b15565b806035600082825461398f919061439c565b9091555050600160a060020a038216600090815260336020526040812080548392906139bc90849061439c565b9091555050604051818152600160a060020a0383169060009060008051602061453b8339815191529060200160405180910390a35050565b600054610100900460ff1680613a0d575060005460ff16155b613a2c5760405160e560020a62461bcd028152600401610b15906141ce565b600054610100900460ff161580156136fb576000805461ffff19166101011790558015611266576000805461ff001916905550565b600054610100900460ff1680613a7a575060005460ff16155b613a995760405160e560020a62461bcd028152600401610b15906141ce565b600054610100900460ff16158015613abb576000805461ffff19166101011790555b60668054600160a060020a03191633908117909155604051819060009060008051602061451b833981519152908290a3508015611266576000805461ff001916905550565b600054610100900460ff1680613b19575060005460ff16155b613b385760405160e560020a62461bcd028152600401610b15906141ce565b600054610100900460ff16158015613b5a576000805461ffff19166101011790555b8251613b6d906036906020860190613b98565b508151613b81906037906020850190613b98565b508015611c84576000805461ff0019169055505050565b828054613ba49061445a565b90600052602060002090601f016020900481019282613bc65760008555613c0c565b82601f10613bdf57805160ff1916838001178555613c0c565b82800160010185558215613c0c579182015b82811115613c0c578251825591602001919060010190613bf1565b50613c18929150613c1c565b5090565b5b80821115613c185760008155600101613c1d565b8035600160a060020a0381168114610df757600080fd5b600082601f830112613c58578081fd5b813567ffffffffffffffff80821115613c7357613c736144ce565b604051601f8301601f19908116603f01168101908282118183101715613c9b57613c9b6144ce565b81604052838152866020858801011115613cb3578485fd5b8360208701602083013792830160200193909352509392505050565b600060208284031215613ce0578081fd5b61286982613c31565b60008060408385031215613cfb578081fd5b613d0483613c31565b9150613d1260208401613c31565b90509250929050565b600080600060608486031215613d2f578081fd5b613d3884613c31565b9250613d4660208501613c31565b9150604084013590509250925092565b60008060408385031215613d68578182fd5b613d7183613c31565b946020939093013593505050565b600060208284031215613d90578081fd5b81518015158114612869578182fd5b600060208284031215613db0578081fd5b813560048110612869578182fd5b600080600080600080600060e0888a031215613dd8578283fd5b873567ffffffffffffffff80821115613def578485fd5b613dfb8b838c01613c48565b985060208a0135915080821115613e10578485fd5b50613e1d8a828b01613c48565b965050613e2c60408901613c31565b94506060880135613e3c816144e8565b93506080880135613e4c816144e8565b925060a0880135613e5c816144e8565b8092505060c0880135905092959891949750929550565b600060208284031215613e84578081fd5b5035919050565b600060208284031215613e9c578081fd5b5051919050565b60008060408385031215613eb5578182fd5b82359150613d1260208401613c31565b600060208284031215613ed6578081fd5b8135612869816144e8565b600060208284031215613ef2578081fd5b8151612869816144e8565b60048110613f1f5760e060020a634e487b710260009081526021600452602490fd5b9052565b613f2e828251613efd565b60208181015163ffffffff1690830152604090810151910152565b600160a060020a0391909116815260200190565b600160a060020a03929092168252602082015260400190565b600160a060020a03841681526020810183905260a08101610e196040830184613f23565b600160a060020a038416815260208101839052815460a0820190613fc46040840160ff8316613efd565b63ffffffff61010082041660608401525060018301546080830152949350505050565b6020808252825182820181905260009190848201906040850190845b8181101561402957614016838551613f23565b9284019260609290920191600101614003565b50909695505050505050565b60208101610c6e8284613efd565b606081016140518286613efd565b63ffffffff93909316602082015260400152919050565b6000602080835283518082850152825b8181101561409457858101830151858201604001528201614078565b818111156140a55783604083870101525b50601f01601f1916929092016040019392505050565b6020808252600f908201527f496e76616c696420616464726573730000000000000000000000000000000000604082015260600190565b6020808252600d908201527f496e76616c696420627579657200000000000000000000000000000000000000604082015260600190565b60208082526011908201527f616c726561647920636f6d706c65746564000000000000000000000000000000604082015260600190565b6020808252600e908201527f696e76616c696420616d6f756e74000000000000000000000000000000000000604082015260600190565b6020808252600f908201527f696e76616c696420616464726573730000000000000000000000000000000000604082015260600190565b6020808252602e908201527f496e697469616c697a61626c653a20636f6e747261637420697320616c72656160408201527f647920696e697469616c697a6564000000000000000000000000000000000000606082015260800190565b60208082526011908201527f7065726d697373696f6e2064656e696564000000000000000000000000000000604082015260600190565b6020808252818101527f4f776e61626c653a2063616c6c6572206973206e6f7420746865206f776e6572604082015260600190565b60208082526013908201527f756e61626c6520746f207472616465206e6f7700000000000000000000000000604082015260600190565b60208082526018908201527f416d6f756e74206d757374206265206e6f6e2d7a65726f2e0000000000000000604082015260600190565b6000602080835260a0830184518285015281850151604085015260408501516060850152606085015160808086015281815180845260c08701915084830193508592505b808310156143695783518252928401926001929092019190840190614349565b509695505050505050565b63ffffffff948516815260208101939093529083166040830152909116606082015260800190565b600082198211156143af576143af6144b4565b500190565b600063ffffffff8083168185168083038211156143d3576143d36144b4565b01949350505050565b6000826143fa5760e060020a634e487b710281526012600452602481fd5b500490565b6000816000190483118215151615614419576144196144b4565b500290565b600082821015614430576144306144b4565b500390565b600063ffffffff83811690831681811015614452576144526144b4565b039392505050565b60028104600182168061446e57607f821691505b602082108114156144935760e060020a634e487b710260009081526022600452602490fd5b50919050565b60006000198214156144ad576144ad6144b4565b5060010190565b60e060020a634e487b710260009081526011600452602490fd5b60e060020a634e487b710260009081526041600452602490fd5b63ffffffff8116811461126657600080fdfe09c64bee251b684a6bb80ce179dd520c001481b7c3d7781f1502e3052af474cf8be0079c531659141344cd1fd0a4f28419497f9722a3daafe3b4186f6b6457e0ddf252ad1be2c89b69c2b068fc378daa952ba7f163c4a11628f55a4df523b3efa26469706673582212207a497c6497d7c13f70060823aba639c2db33f5ee49ff5929a2d0bd208b95498364736f6c63430008030033",
  "immutableReferences": {},
  "source": "// SPDX-License-Identifier: MIT\n\npragma solidity ^0.8.3;\n\nimport \"@openzeppelin/contracts/token/ERC20/IERC20.sol\";\nimport \"@openzeppelin/contracts-upgradeable/utils/math/SafeMathUpgradeable.sol\";\nimport \"./ProductToken.sol\";\nimport \"./interface/IVNFT.sol\";\n\n/// @title ProductTokenV1\n/// @notice This is version 1 of the product token implementation.\n/// @dev This contract builds on top of version 0 by including transaction logics, such as buy and sell transfers\n///    and exchange rate computation by including a price oracle.\ncontract ProductTokenV1 is ProductToken {\n\tusing SafeMathUpgradeable for uint256;\n\n    struct supplierInfo {\n        uint256 amount;\n        address wallet;\n    }\n    struct UserInfo {\n        uint256 amount;\n        uint256 rewardDebt;\n        uint256 lastReward;\n        uint256[] records;\n    }\n    struct PoolInfo {\n        uint256 amount; // record the entire pool vaule\n        uint256 accRewardPerShare; // Accumulated reward per share\n        uint256 tokenReward; //total reward\n    }\n    struct voucherInfo {\n        address addr;\n        IVNFT instance;\n        uint256 tokenId;\n        bool isEnable;\n    }\n\n    supplierInfo public supplier;\n    PoolInfo public poolInfo;\n    voucherInfo public voucher;\n    mapping (address => UserInfo) public userInfo;\n    IERC20 high;\n\n    function setHigh(address highAddress_) external onlyOwner {\n        require(highAddress_!=address(0), \"Invalid address\");\n        high = IERC20(highAddress_);\n    }\n\n    function buy(uint256 maxPrice_) external virtual onlyIfTradable {\n        require(maxPrice_ > 0, \"invalid max price\");\n\n        bool success = high.transferFrom(msg.sender, address(this), maxPrice_);\n        require(success, \"Purchase failed.\");\n\n        (uint256 amount,uint256 change, uint price, uint256 fee)  = _buy(maxPrice_);\n        if (amount > 0) {\n            if(change > 0) {\n                high.transfer(msg.sender, change);\n            }\n            _updateSupplierFee(fee.mul(1e12).div(8e12));\n            uint256 reward = fee.mul(6e12).div(8e12);\n            poolInfo.tokenReward = poolInfo.tokenReward.add(reward);\n            updatePool(reward);\n            UserInfo storage user = userInfo[msg.sender];\n            PoolInfo storage pool = poolInfo;\n            uint256 pending = user.amount.mul(pool.accRewardPerShare).div(1e12).sub(user.rewardDebt);\n            if(pending > 0) {\n                user.lastReward= pending;\n                high.transfer(msg.sender, pending);\n                poolInfo.tokenReward = poolInfo.tokenReward.sub(pending);\n            }\n            poolInfo.amount = poolInfo.amount.add(price);\n            _updateUserInfo(price);\n        }else { // If token transaction failed\n            high.transfer(msg.sender, maxPrice_);\n        }\n    }\n\n    function sell(uint32 amount_) external virtual onlyIfTradable {\n        require(balanceOf(msg.sender) >= amount_ || amount_ > 0, 'invalid amount');\n\n        (uint256 price, uint256 fee )= _sellForAmount(amount_);\n\n        _updateSellStaking(amount_);\n\n        bool success = high.transfer(msg.sender, price);\n        _updateSupplierFee(fee.mul(1e12).div(2e12));\n        require(success, \"selling token failed\");\n    }\n\n    /**\n    * @dev When user wants to trade in their token for retail product\n    *\n    * @param amount_                   amount of tokens that user wants to trade in.\n    */\n    function tradein(uint32 amount_) external virtual onlyIfTradable {\n        require(amount_ > 0, \"Amount must be non-zero.\");\n        require(balanceOf(msg.sender) >= amount_, \"Insufficient tokens to burn.\");\n\n        (uint256 reimburseAmount, uint fee) = _sellReturn(amount_);\n\n        uint256 tradinReturn = calculateTradinReturn(amount_);\n        _updateSupplierFee(fee.mul(1e13).div(2e13).add(tradinReturn));\n        reimburseAmount = reimburseAmount.sub(fee);\n        _addEscrow(amount_,  reimburseAmount);\n        _burn(msg.sender, amount_);\n        tradeinCount = tradeinCount + amount_;\n        tradeinReserveBalance = tradeinReserveBalance.add(tradinReturn);\n\n        _updateSellStaking(amount_);\n\n        emit Tradein(msg.sender, amount_);\n    }\n\n    function updatePool(uint fee_) public virtual{\n        uint256 supply = poolInfo.amount;\n        if (supply == 0) {\n            poolInfo.accRewardPerShare = 0;\n            return;\n        }\n        poolInfo.accRewardPerShare = poolInfo.accRewardPerShare.add(fee_.mul(1e12).div(supply));\n    }\n\n    function _updateSellStaking(uint32 amount_) internal virtual {\n        if(userInfo[msg.sender].amount > 0) {\n            UserInfo storage user = userInfo[msg.sender];\n            if(balanceOf(msg.sender) <= user.records.length) {\n                uint max = uint256(amount_);\n                if(max > user.records.length) {\n                    max = user.records.length;\n                }\n                uint256 value = 0;\n                for(uint i = 0; i < max; i++) {\n                    value = value.add(user.records[user.records.length.sub(1)]);\n                    user.records.pop();\n                }\n                PoolInfo storage pool = poolInfo;\n                uint256 pending = user.amount.mul(pool.accRewardPerShare).div(1e12).sub(user.rewardDebt);\n\n                poolInfo.amount = poolInfo.amount.sub(value);\n                if(pending > 0) {\n                    user.lastReward= pending;\n                    high.transfer(msg.sender, pending);\n                    poolInfo.tokenReward = poolInfo.tokenReward.sub(pending);\n                }\n                user.amount = user.amount.sub(value);\n                user.rewardDebt = user.amount.mul(poolInfo.accRewardPerShare).div(1e12);\n            }\n        }\n    }\n\n    function _updateUserInfo(uint256 price_ ) internal virtual {\n        UserInfo storage user = userInfo[msg.sender];\n        user.amount = user.amount.add(price_);\n        user.records.push(price_);\n        user.rewardDebt = user.amount.mul(poolInfo.accRewardPerShare).div(1e12);\n    }\n\n    function updateSupplierInfo( address wallet_) external onlyOwner {\n        require(wallet_!=address(0), \"Address is invalid\");\n        supplier.wallet = wallet_;\n    }\n\n    function claimSupplier(uint256 amount_) external virtual {\n        require(supplier.wallet!=address(0), \"wallet is invalid\");\n        require(msg.sender == supplier.wallet, \"The address is not allowed\");\n        if (amount_ <= supplier.amount){\n            bool success = high.transfer(msg.sender, amount_);\n            if (success) {\n                supplier.amount = supplier.amount.sub(amount_);\n            }\n        }\n    }\n\n    function _updateSupplierFee(uint256 fee) internal virtual {\n        if( fee > 0 ) {\n            supplier.amount = supplier.amount.add(fee);\n        }\n    }\n\n    /**\n    * @dev this function returns the amount of reserve balance that the supplier can withdraw from the dapp.\n    */\n    function getSupplierBalance() public view virtual returns (uint256) {\n        return supplier.amount;\n    }\n\n    /**\n    * @dev A method that refunds the value of a product to a buyer/customer.\n    *\n    * @param buyer_       The wallet address of the owner whose product token is under the redemption process\n    * @param value_       The market value of the token being redeemed\n    *\n    */\n    function _refund(address buyer_, uint256 value_) internal virtual override {\n        bool success = high.transfer(buyer_, value_);\n        require(success, \"refund token failed\");\n    }\n\n    /**\n    * @dev A method allow us to withdraw liquidity (eth) from the contract\n    * Since eth is not used as a return currency, we need to withdraw eth from the system.\n    *\n    * @param value_       the value of ether\n    *\n    */\n    function withdrawEther(uint256 value_) payable external virtual onlyOwner {\n        require(address(this).balance > 0, \"no enough ether\");\n        payable(msg.sender).transfer(value_);\n    }\n\n    function withdrawHigh(uint256 amount_, address to_) external virtual onlyOwner{\n        require(to_ != address(0), \"invalid address\");\n        require(amount_ <= high.balanceOf(address(this)), 'invalid amount');\n        high.transfer(to_, amount_);\n    }\n\n    function getUserReward(address addr_) external view virtual returns (uint256) {\n        if(userInfo[addr_].amount > 0) {\n            UserInfo storage user = userInfo[addr_];\n            PoolInfo storage pool = poolInfo;\n            return user.amount.mul(pool.accRewardPerShare).div(1e12).sub(user.rewardDebt);\n        }\n        return 0;\n    }\n\n    function getUserInfo(address addr_) external view virtual returns( UserInfo memory) {\n        require(addr_ != address(0), 'invalid address');\n        return userInfo[addr_];\n    }\n\n    function getPoolInfo() external view virtual returns( PoolInfo memory) {\n        return poolInfo;\n    }\n\n    function getSupplierInfo() external view virtual returns( supplierInfo memory) {\n        return supplier;\n    }\n}\n",
  "sourcePath": "/Users/jack/Documents/GitHub/HighStreet/client/src/contracts/ProductTokenV1.sol",
  "compiler": {
    "name": "solc",
    "version": "0.8.3+commit.8d00100c.Emscripten.clang"
  },
  "schemaVersion": "3.4.0",
  "updatedAt": "2021-09-25T11:36:19.679Z",
  "networkType": "ethereum",
  "devdoc": {
    "details": "This contract builds on top of version 0 by including transaction logics, such as buy and sell transfers    and exchange rate computation by including a price oracle.",
    "kind": "dev",
    "methods": {
      "allowance(address,address)": {
        "details": "See {IERC20-allowance}."
      },
      "approve(address,uint256)": {
        "details": "See {IERC20-approve}. Requirements: - `spender` cannot be the zero address."
      },
      "balanceOf(address)": {
        "details": "See {IERC20-balanceOf}."
      },
      "calculateBuyReturn(uint256)": {
        "details": "Function that computes number of product tokens one can buy given an amount in reserve token.",
        "params": {
          "_amountReserve": "purchaing amount in reserve token (dai)(with 4% platform fee)"
        },
        "returns": {
          "mintAmount": "             number of tokens in traded token that can be purchased by given amount."
        }
      },
      "calculateSellReturn(uint32)": {
        "details": "Function that computes selling price in reserve tokens given an amount in traded token.",
        "params": {
          "_amountProduct": "selling amount in product token"
        },
        "returns": {
          "soldAmount": "             total amount that will be transferred to the seller (with 2% platform fee)."
        }
      },
      "decimals()": {
        "details": "Returns the number of decimals used to get its user representation. For example, if `decimals` equals `2`, a balance of `505` tokens should be displayed to a user as `5,05` (`505 / 10 ** 2`). Tokens usually opt for a value of 18, imitating the relationship between Ether and Wei. This is the value {ERC20} uses, unless this function is overloaded; NOTE: This information is only used for _display_ purposes: it in no way affects any of the arithmetic of the contract, including {IERC20-balanceOf} and {IERC20-transfer}."
      },
      "decreaseAllowance(address,uint256)": {
        "details": "Atomically decreases the allowance granted to `spender` by the caller. This is an alternative to {approve} that can be used as a mitigation for problems described in {IERC20-approve}. Emits an {Approval} event indicating the updated allowance. Requirements: - `spender` cannot be the zero address. - `spender` must have allowance for the caller of at least `subtractedValue`."
      },
      "getAvailability()": {
        "details": "Function to check how many tokens of this product are currently available for purchase, by taking the difference between max cap count and current token in circulation or burned.",
        "returns": {
          "available": "               the number of tokens available"
        }
      },
      "getCurrentPrice()": {
        "details": "Function that computes current price for a token through bonding curve calculation based on parameters such as total supply, reserve balance, and reserve ratio.",
        "returns": {
          "price": "                  current price in reserve token (in our case, this is dai). (with 4% platform fee)"
        }
      },
      "getEscrowHistory(address)": {
        "details": "Return the list of all escrows created for a certain user",
        "params": {
          "_buyer": "The address of the buyer"
        },
        "returns": {
          "_0": "A list of past escrows"
        }
      },
      "getPriceForN(uint32)": {
        "details": "Function that computes price total for buying n token through bonding curve calculation based on parameters such as total supply, reserve balance, and reserve ratio.",
        "params": {
          "_amountProduct": "token amount in traded token"
        },
        "returns": {
          "price": "                  total price in reserve token (in our case, this is dai). (with 4% platform fee)"
        }
      },
      "getRedeemStatus(address,uint256)": {
        "details": "Get status of a particular redemption process",
        "params": {
          "_buyer": "The address of the buyer",
          "_id": "The cached id of the escrow, retrieved from database"
        },
        "returns": {
          "_0": "The current status"
        }
      },
      "getSupplierBalance()": {
        "details": "this function returns the amount of reserve balance that the supplier can withdraw from the dapp."
      },
      "increaseAllowance(address,uint256)": {
        "details": "Atomically increases the allowance granted to `spender` by the caller. This is an alternative to {approve} that can be used as a mitigation for problems described in {IERC20-approve}. Emits an {Approval} event indicating the updated allowance. Requirements: - `spender` cannot be the zero address."
      },
      "initialize(string,string,address,uint32,uint32,uint32,uint256)": {
        "details": "initializer function.",
        "params": {
          "_baseReserve": "the base amount of reserve tokens, in accordance to _supplyOffset.",
          "_maxTokenCount": "the amount of token that will exist for this type.",
          "_name": "the name of this token",
          "_reserveRatio": "the reserve ratio in the curve function. Number in parts per million",
          "_supplyOffset": "this amount is used to determine initial price.",
          "_symbol": "the symbol of this token"
        }
      },
      "isStateCompleted(uint8)": {
        "details": "Helper function to check whether a escrow state is completed",
        "params": {
          "_state": "The state to be checked"
        }
      },
      "launch()": {
        "details": "requires function to be called from owner. this enables customers to buy, sell, or redeem the product."
      },
      "name()": {
        "details": "Returns the name of the token."
      },
      "owner()": {
        "details": "Returns the address of the current owner."
      },
      "pause()": {
        "details": "requires function to be called from owner. this prevents customers from buying, selling, or redeeming the product."
      },
      "renounceOwnership()": {
        "details": "Leaves the contract without owner. It will not be possible to call `onlyOwner` functions anymore. Can only be called by the current owner. NOTE: Renouncing ownership will leave the contract without an owner, thereby removing any functionality that is only available to the owner."
      },
      "setBondingCurve(address)": {
        "details": "requires function to be called from owner. sets a bonding curve implementation for this product.",
        "params": {
          "_address": "the address of the bonding curve implementation"
        }
      },
      "symbol()": {
        "details": "Returns the symbol of the token, usually a shorter version of the name."
      },
      "totalSupply()": {
        "details": "See {IERC20-totalSupply}."
      },
      "tradein(uint32)": {
        "details": "When user wants to trade in their token for retail product",
        "params": {
          "amount_": "amount of tokens that user wants to trade in."
        }
      },
      "transfer(address,uint256)": {
        "details": "See {IERC20-transfer}. Requirements: - `recipient` cannot be the zero address. - the caller must have a balance of at least `amount`."
      },
      "transferFrom(address,address,uint256)": {
        "details": "See {IERC20-transferFrom}. Emits an {Approval} event indicating the updated allowance. This is not required by the EIP. See the note at the beginning of {ERC20}. Requirements: - `sender` and `recipient` cannot be the zero address. - `sender` must have a balance of at least `amount`. - the caller must have allowance for ``sender``'s tokens of at least `amount`."
      },
      "transferOwnership(address)": {
        "details": "Transfers ownership of the contract to a new account (`newOwner`). Can only be called by the current owner."
      },
      "updateUserCompleted(address,uint256)": {
        "details": "used to update the status of redemption to \"User Complete\" after an escrow process has been started.",
        "params": {
          "buyer": "the wallet address of product buyer",
          "id": "the id of the escrow, returned to the user after starting of redemption process"
        }
      },
      "updateUserRefund(address,uint256)": {
        "details": "used to update the status of redemption to \"User Refunded\" after an escrow process has been started.",
        "params": {
          "buyer": "the wallet address of product buyer",
          "id": "the id of the escrow, returned to the user after starting of redemption process"
        }
      },
      "withdrawEther(uint256)": {
        "details": "A method allow us to withdraw liquidity (eth) from the contract Since eth is not used as a return currency, we need to withdraw eth from the system.",
        "params": {
          "value_": "the value of ether"
        }
      }
    },
    "title": "ProductTokenV1",
    "version": 1
  },
  "userdoc": {
    "kind": "user",
    "methods": {},
    "notice": "This is version 1 of the product token implementation.",
    "version": 1
  }
}