{
  "contractName": "ProductToken",
  "abi": [
    {
      "anonymous": false,
      "inputs": [
        {
          "indexed": true,
          "internalType": "address",
          "name": "owner",
          "type": "address"
        },
        {
          "indexed": true,
          "internalType": "address",
          "name": "spender",
          "type": "address"
        },
        {
          "indexed": false,
          "internalType": "uint256",
          "name": "value",
          "type": "uint256"
        }
      ],
      "name": "Approval",
      "type": "event"
    },
    {
      "anonymous": false,
      "inputs": [
        {
          "indexed": true,
          "internalType": "address",
          "name": "sender",
          "type": "address"
        },
        {
          "indexed": false,
          "internalType": "uint32",
          "name": "amount",
          "type": "uint32"
        },
        {
          "indexed": false,
          "internalType": "uint256",
          "name": "deposit",
          "type": "uint256"
        }
      ],
      "name": "Buy",
      "type": "event"
    },
    {
      "anonymous": false,
      "inputs": [
        {
          "indexed": true,
          "internalType": "address",
          "name": "previousOwner",
          "type": "address"
        },
        {
          "indexed": true,
          "internalType": "address",
          "name": "newOwner",
          "type": "address"
        }
      ],
      "name": "OwnershipTransferred",
      "type": "event"
    },
    {
      "anonymous": false,
      "inputs": [
        {
          "indexed": true,
          "internalType": "address",
          "name": "sender",
          "type": "address"
        },
        {
          "indexed": false,
          "internalType": "uint32",
          "name": "amount",
          "type": "uint32"
        },
        {
          "indexed": false,
          "internalType": "uint256",
          "name": "refund",
          "type": "uint256"
        }
      ],
      "name": "Sell",
      "type": "event"
    },
    {
      "anonymous": false,
      "inputs": [
        {
          "indexed": false,
          "internalType": "bool",
          "name": "isTradable",
          "type": "bool"
        }
      ],
      "name": "Tradable",
      "type": "event"
    },
    {
      "anonymous": false,
      "inputs": [
        {
          "indexed": true,
          "internalType": "address",
          "name": "sender",
          "type": "address"
        },
        {
          "indexed": false,
          "internalType": "uint32",
          "name": "amount",
          "type": "uint32"
        }
      ],
      "name": "Tradein",
      "type": "event"
    },
    {
      "anonymous": false,
      "inputs": [
        {
          "indexed": true,
          "internalType": "address",
          "name": "from",
          "type": "address"
        },
        {
          "indexed": true,
          "internalType": "address",
          "name": "to",
          "type": "address"
        },
        {
          "indexed": false,
          "internalType": "uint256",
          "name": "value",
          "type": "uint256"
        }
      ],
      "name": "Transfer",
      "type": "event"
    },
    {
      "anonymous": false,
      "inputs": [
        {
          "indexed": false,
          "internalType": "address",
          "name": "",
          "type": "address"
        },
        {
          "indexed": false,
          "internalType": "uint256",
          "name": "",
          "type": "uint256"
        },
        {
          "components": [
            {
              "internalType": "enum Escrow.escrowState",
              "name": "state",
              "type": "uint8"
            },
            {
              "internalType": "uint32",
              "name": "amount",
              "type": "uint32"
            },
            {
              "internalType": "uint256",
              "name": "value",
              "type": "uint256"
            }
          ],
          "indexed": false,
          "internalType": "struct Escrow.escrowInfo",
          "name": "",
          "type": "tuple"
        }
      ],
      "name": "escrowStateUpdated",
      "type": "event"
    },
    {
      "stateMutability": "nonpayable",
      "type": "fallback"
    },
    {
      "inputs": [
        {
          "internalType": "address",
          "name": "owner",
          "type": "address"
        },
        {
          "internalType": "address",
          "name": "spender",
          "type": "address"
        }
      ],
      "name": "allowance",
      "outputs": [
        {
          "internalType": "uint256",
          "name": "",
          "type": "uint256"
        }
      ],
      "stateMutability": "view",
      "type": "function"
    },
    {
      "inputs": [
        {
          "internalType": "address",
          "name": "spender",
          "type": "address"
        },
        {
          "internalType": "uint256",
          "name": "amount",
          "type": "uint256"
        }
      ],
      "name": "approve",
      "outputs": [
        {
          "internalType": "bool",
          "name": "",
          "type": "bool"
        }
      ],
      "stateMutability": "nonpayable",
      "type": "function"
    },
    {
      "inputs": [
        {
          "internalType": "address",
          "name": "account",
          "type": "address"
        }
      ],
      "name": "balanceOf",
      "outputs": [
        {
          "internalType": "uint256",
          "name": "",
          "type": "uint256"
        }
      ],
      "stateMutability": "view",
      "type": "function"
    },
    {
      "inputs": [
        {
          "internalType": "address",
          "name": "spender",
          "type": "address"
        },
        {
          "internalType": "uint256",
          "name": "subtractedValue",
          "type": "uint256"
        }
      ],
      "name": "decreaseAllowance",
      "outputs": [
        {
          "internalType": "bool",
          "name": "",
          "type": "bool"
        }
      ],
      "stateMutability": "nonpayable",
      "type": "function"
    },
    {
      "inputs": [
        {
          "internalType": "address",
          "name": "",
          "type": "address"
        },
        {
          "internalType": "uint256",
          "name": "",
          "type": "uint256"
        }
      ],
      "name": "escrowList",
      "outputs": [
        {
          "internalType": "enum Escrow.escrowState",
          "name": "state",
          "type": "uint8"
        },
        {
          "internalType": "uint32",
          "name": "amount",
          "type": "uint32"
        },
        {
          "internalType": "uint256",
          "name": "value",
          "type": "uint256"
        }
      ],
      "stateMutability": "view",
      "type": "function"
    },
    {
      "inputs": [
        {
          "internalType": "address",
          "name": "_buyer",
          "type": "address"
        }
      ],
      "name": "getEscrowHistory",
      "outputs": [
        {
          "components": [
            {
              "internalType": "enum Escrow.escrowState",
              "name": "state",
              "type": "uint8"
            },
            {
              "internalType": "uint32",
              "name": "amount",
              "type": "uint32"
            },
            {
              "internalType": "uint256",
              "name": "value",
              "type": "uint256"
            }
          ],
          "internalType": "struct Escrow.escrowInfo[]",
          "name": "",
          "type": "tuple[]"
        }
      ],
      "stateMutability": "view",
      "type": "function"
    },
    {
      "inputs": [
        {
          "internalType": "address",
          "name": "_buyer",
          "type": "address"
        },
        {
          "internalType": "uint256",
          "name": "_id",
          "type": "uint256"
        }
      ],
      "name": "getRedeemStatus",
      "outputs": [
        {
          "internalType": "enum Escrow.escrowState",
          "name": "",
          "type": "uint8"
        }
      ],
      "stateMutability": "view",
      "type": "function"
    },
    {
      "inputs": [
        {
          "internalType": "address",
          "name": "spender",
          "type": "address"
        },
        {
          "internalType": "uint256",
          "name": "addedValue",
          "type": "uint256"
        }
      ],
      "name": "increaseAllowance",
      "outputs": [
        {
          "internalType": "bool",
          "name": "",
          "type": "bool"
        }
      ],
      "stateMutability": "nonpayable",
      "type": "function"
    },
    {
      "inputs": [
        {
          "internalType": "enum Escrow.escrowState",
          "name": "_state",
          "type": "uint8"
        }
      ],
      "name": "isStateCompleted",
      "outputs": [
        {
          "internalType": "bool",
          "name": "",
          "type": "bool"
        }
      ],
      "stateMutability": "pure",
      "type": "function"
    },
    {
      "inputs": [],
      "name": "maxTokenCount",
      "outputs": [
        {
          "internalType": "uint32",
          "name": "",
          "type": "uint32"
        }
      ],
      "stateMutability": "view",
      "type": "function"
    },
    {
      "inputs": [],
      "name": "name",
      "outputs": [
        {
          "internalType": "string",
          "name": "",
          "type": "string"
        }
      ],
      "stateMutability": "view",
      "type": "function"
    },
    {
      "inputs": [],
      "name": "owner",
      "outputs": [
        {
          "internalType": "address",
          "name": "",
          "type": "address"
        }
      ],
      "stateMutability": "view",
      "type": "function"
    },
    {
      "inputs": [],
      "name": "renounceOwnership",
      "outputs": [],
      "stateMutability": "nonpayable",
      "type": "function"
    },
    {
      "inputs": [],
      "name": "reserveBalance",
      "outputs": [
        {
          "internalType": "uint256",
          "name": "",
          "type": "uint256"
        }
      ],
      "stateMutability": "view",
      "type": "function"
    },
    {
      "inputs": [],
      "name": "reserveRatio",
      "outputs": [
        {
          "internalType": "uint32",
          "name": "",
          "type": "uint32"
        }
      ],
      "stateMutability": "view",
      "type": "function"
    },
    {
      "inputs": [],
      "name": "symbol",
      "outputs": [
        {
          "internalType": "string",
          "name": "",
          "type": "string"
        }
      ],
      "stateMutability": "view",
      "type": "function"
    },
    {
      "inputs": [],
      "name": "totalSupply",
      "outputs": [
        {
          "internalType": "uint256",
          "name": "",
          "type": "uint256"
        }
      ],
      "stateMutability": "view",
      "type": "function"
    },
    {
      "inputs": [],
      "name": "tradeinCount",
      "outputs": [
        {
          "internalType": "uint32",
          "name": "",
          "type": "uint32"
        }
      ],
      "stateMutability": "view",
      "type": "function"
    },
    {
      "inputs": [],
      "name": "tradeinReserveBalance",
      "outputs": [
        {
          "internalType": "uint256",
          "name": "",
          "type": "uint256"
        }
      ],
      "stateMutability": "view",
      "type": "function"
    },
    {
      "inputs": [
        {
          "internalType": "address",
          "name": "recipient",
          "type": "address"
        },
        {
          "internalType": "uint256",
          "name": "amount",
          "type": "uint256"
        }
      ],
      "name": "transfer",
      "outputs": [
        {
          "internalType": "bool",
          "name": "",
          "type": "bool"
        }
      ],
      "stateMutability": "nonpayable",
      "type": "function"
    },
    {
      "inputs": [
        {
          "internalType": "address",
          "name": "sender",
          "type": "address"
        },
        {
          "internalType": "address",
          "name": "recipient",
          "type": "address"
        },
        {
          "internalType": "uint256",
          "name": "amount",
          "type": "uint256"
        }
      ],
      "name": "transferFrom",
      "outputs": [
        {
          "internalType": "bool",
          "name": "",
          "type": "bool"
        }
      ],
      "stateMutability": "nonpayable",
      "type": "function"
    },
    {
      "inputs": [
        {
          "internalType": "address",
          "name": "newOwner",
          "type": "address"
        }
      ],
      "name": "transferOwnership",
      "outputs": [],
      "stateMutability": "nonpayable",
      "type": "function"
    },
    {
      "inputs": [
        {
          "internalType": "string",
          "name": "_name",
          "type": "string"
        },
        {
          "internalType": "string",
          "name": "_symbol",
          "type": "string"
        },
        {
          "internalType": "address",
          "name": "_bondingCurveAddress",
          "type": "address"
        },
        {
          "internalType": "uint32",
          "name": "_reserveRatio",
          "type": "uint32"
        },
        {
          "internalType": "uint32",
          "name": "_maxTokenCount",
          "type": "uint32"
        },
        {
          "internalType": "uint32",
          "name": "_supplyOffset",
          "type": "uint32"
        },
        {
          "internalType": "uint256",
          "name": "_baseReserve",
          "type": "uint256"
        }
      ],
      "name": "initialize",
      "outputs": [],
      "stateMutability": "nonpayable",
      "type": "function"
    },
    {
      "inputs": [],
      "name": "decimals",
      "outputs": [
        {
          "internalType": "uint8",
          "name": "",
          "type": "uint8"
        }
      ],
      "stateMutability": "view",
      "type": "function"
    },
    {
      "inputs": [
        {
          "internalType": "address",
          "name": "_address",
          "type": "address"
        }
      ],
      "name": "setBondingCurve",
      "outputs": [],
      "stateMutability": "nonpayable",
      "type": "function"
    },
    {
      "inputs": [],
      "name": "launch",
      "outputs": [],
      "stateMutability": "nonpayable",
      "type": "function"
    },
    {
      "inputs": [],
      "name": "pause",
      "outputs": [],
      "stateMutability": "nonpayable",
      "type": "function"
    },
    {
      "inputs": [],
      "name": "getAvailability",
      "outputs": [
        {
          "internalType": "uint32",
          "name": "available",
          "type": "uint32"
        }
      ],
      "stateMutability": "view",
      "type": "function"
    },
    {
      "inputs": [],
      "name": "getCurrentPrice",
      "outputs": [
        {
          "internalType": "uint256",
          "name": "price",
          "type": "uint256"
        }
      ],
      "stateMutability": "view",
      "type": "function"
    },
    {
      "inputs": [
        {
          "internalType": "uint32",
          "name": "_amountProduct",
          "type": "uint32"
        }
      ],
      "name": "getPriceForN",
      "outputs": [
        {
          "internalType": "uint256",
          "name": "price",
          "type": "uint256"
        }
      ],
      "stateMutability": "view",
      "type": "function"
    },
    {
      "inputs": [
        {
          "internalType": "uint32",
          "name": "_amountProduct",
          "type": "uint32"
        }
      ],
      "name": "_getPriceForN",
      "outputs": [
        {
          "internalType": "uint256",
          "name": "price",
          "type": "uint256"
        },
        {
          "internalType": "uint256",
          "name": "fee",
          "type": "uint256"
        }
      ],
      "stateMutability": "view",
      "type": "function"
    },
    {
      "inputs": [
        {
          "internalType": "uint256",
          "name": "_amountReserve",
          "type": "uint256"
        }
      ],
      "name": "calculateBuyReturn",
      "outputs": [
        {
          "internalType": "uint32",
          "name": "mintAmount",
          "type": "uint32"
        }
      ],
      "stateMutability": "view",
      "type": "function"
    },
    {
      "inputs": [
        {
          "internalType": "uint32",
          "name": "_amountProduct",
          "type": "uint32"
        }
      ],
      "name": "calculateSellReturn",
      "outputs": [
        {
          "internalType": "uint256",
          "name": "soldAmount",
          "type": "uint256"
        }
      ],
      "stateMutability": "view",
      "type": "function"
    },
    {
      "inputs": [
        {
          "internalType": "uint32",
          "name": "_amount",
          "type": "uint32"
        }
      ],
      "name": "calculateTradinReturn",
      "outputs": [
        {
          "internalType": "uint256",
          "name": "",
          "type": "uint256"
        }
      ],
      "stateMutability": "view",
      "type": "function"
    },
    {
      "inputs": [
        {
          "internalType": "address",
          "name": "buyer",
          "type": "address"
        },
        {
          "internalType": "uint256",
          "name": "id",
          "type": "uint256"
        }
      ],
      "name": "updateUserCompleted",
      "outputs": [],
      "stateMutability": "nonpayable",
      "type": "function"
    },
    {
      "inputs": [
        {
          "internalType": "address",
          "name": "buyer",
          "type": "address"
        },
        {
          "internalType": "uint256",
          "name": "id",
          "type": "uint256"
        }
      ],
      "name": "updateUserRefund",
      "outputs": [],
      "stateMutability": "nonpayable",
      "type": "function"
    },
    {
      "inputs": [
        {
          "internalType": "address",
          "name": "addr_",
          "type": "address"
        }
      ],
      "name": "setManager",
      "outputs": [],
      "stateMutability": "nonpayable",
      "type": "function"
    },
    {
      "inputs": [],
      "name": "getManager",
      "outputs": [
        {
          "internalType": "address",
          "name": "",
          "type": "address"
        }
      ],
      "stateMutability": "view",
      "type": "function"
    }
  ],
  "bytecode": "0x608060405234801561001057600080fd5b506126bc806100206000396000f3fe608060405234801561001057600080fd5b50600436106101f65760003560e060020a900480638da5cb5b11610114578063c757d4c7116100ac578063c757d4c714610450578063d0ebdbe714610463578063d500958414610476578063dd304b1a14610487578063dd62ed3e146104a7578063e67dc518146104e0578063eb91d37e146104e9578063efea8a13146104f1578063f2fde38b14610504578063f97511d314610517576101f6565b80638da5cb5b1461038057806395d89b41146103a05780639b9ffbf3146103a8578063a10954fe146103ca578063a457c2d7146103d3578063a9059cbb146103e6578063af22803e146103f9578063ba7a93b614610421578063c4e627c214610438576101f6565b8063313ce56711610192578063313ce567146102c457806339509351146102d357806343ff1fb8146102e6578063491052cd146102f95780636e74607b1461030c57806370a082311461032c578063715018a6146103555780637a53e0401461035d578063828f3a9c146103655780638456cb5914610378576101f6565b806301339c21146101f857806306fdde0314610200578063095ea7b31461021e5780630c7d5cd8146102415780630ccee99b1461026657806318160ddd1461027957806319d5b5871461028b578063224e4f481461029e57806323b872dd146102b1575b005b6101f661052a565b610208610612565b6040516102159190612399565b60405180910390f35b61023161022c366004612128565b6106a4565b6040519015158152602001610215565b609b546102519063ffffffff1681565b60405163ffffffff9091168152602001610215565b6101f6610274366004612128565b6106bb565b6035545b604051908152602001610215565b61027d610299366004612255565b610742565b61027d6102ac366004612255565b610873565b6102316102bf3660046120ed565b610898565b60405160008152602001610215565b6102316102e1366004612128565b610961565b6101f66102f43660046120a1565b610998565b610231610307366004612151565b610a45565b61031f61031a3660046120a1565b610a9f565b6040516102159190612300565b61027d61033a3660046120a1565b600160a060020a031660009081526033602052604090205490565b6101f6610b85565b610251610bef565b610251610373366004612225565b610c35565b6101f6610c49565b610388610d1a565b604051600160a060020a039091168152602001610215565b610208610d29565b6103bb6103b6366004612128565b610d38565b60405161021593929190612374565b61027d60995481565b6102316103e1366004612128565b610d83565b6102316103f4366004612128565b610e24565b61040c610407366004612255565b610e31565b60408051928352602083019190915201610215565b609b5461025190604060020a900463ffffffff1681565b609b5461025190640100000000900463ffffffff1681565b6101f661045e366004612128565b610efa565b6101f66104713660046120a1565b610fd9565b609c54600160a060020a0316610388565b61049a610495366004612128565b611086565b6040516102159190612366565b61027d6104b53660046120bb565b600160a060020a03918216600090815260346020908152604080832093909416825291909152205490565b61027d609a5481565b61027d6110dc565b6101f66104ff366004612170565b6110e8565b6101f66105123660046120a1565b61117d565b61027d610525366004612255565b611278565b33610533610d1a565b600160a060020a0316146105655760405160e560020a62461bcd02815260040161055c906124ee565b60405180910390fd5b60985460ff16156105cc5760405160e560020a62461bcd02815260206004820152602560248201527f5468652070726f6475637420746f6b656e20697320616c7265616479206c6175604482015260da60020a641b98da195902606482015260840161055c565b6098805460ff191660019081179091556040519081527f65c5ccecef030677b73a1403e7e69ef84d05db9d1732959d543d32f4419909b8906020015b60405180910390a1565b606060368054610621906125e1565b80601f016020809104026020016040519081016040528092919081815260200182805461064d906125e1565b801561069a5780601f1061066f5761010080835404028352916020019161069a565b820191906000526020600020905b81548152906001019060200180831161067d57829003601f168201915b5050505050905090565b60006106b1338484611295565b5060015b92915050565b6106c3610d1a565b600160a060020a031633600160a060020a031614806106ec5750609c54600160a060020a031633145b61070b5760405160e560020a62461bcd02815260040161055c906124b7565b600160a060020a0382166107345760405160e560020a62461bcd02815260040161055c906123ec565b61073e82826113c5565b5050565b6000808263ffffffff161161079c5760405160e560020a62461bcd02815260206004820152600e60248201527f696e76616c696420616d6f756e74000000000000000000000000000000000000604482015260640161055c565b609b546000906107d39063ffffffff606060020a82048116916107cd9187811691604060020a900481169061155016565b90611550565b609d54609a54609b5460405160e060020a631c949873028152939450600160a060020a0390921692631c9498739261081a928692909163ffffffff16908990600401612523565b60206040518083038186803b15801561083257600080fd5b505afa158015610846573d6000803e3d6000fd5b505050506040513d601f19601f8201168201806040525081019061086a919061223d565b9150505b919050565b600080600061088184611563565b9092509050610890828261161a565b949350505050565b60006108a5848484611626565b600160a060020a0384166000908152603460209081526040808320338452909152902054828110156109425760405160e560020a62461bcd02815260206004820152602860248201527f45524332303a207472616e7366657220616d6f756e742065786365656473206160448201527f6c6c6f77616e6365000000000000000000000000000000000000000000000000606482015260840161055c565b610956853361095186856125a5565b611295565b506001949350505050565b336000818152603460209081526040808320600160a060020a038716845290915281205490916106b191859061095190869061254b565b336109a1610d1a565b600160a060020a0316146109ca5760405160e560020a62461bcd02815260040161055c906124ee565b600160a060020a038116610a235760405160e560020a62461bcd02815260206004820152600f60248201527f496e76616c696420616464726573730000000000000000000000000000000000604482015260640161055c565b609d8054600160a060020a031916600160a060020a0392909216919091179055565b60006003826003811115610a6c5760e060020a634e487b7102600052602160045260246000fd5b14806106b557506002826003811115610a985760e060020a634e487b7102600052602160045260246000fd5b1492915050565b600160a060020a0381166000908152606560209081526040808320805482518185028101850190935280835260609492939192909184015b82821015610b7a576000848152602090206040805160608101909152600284029091018054829060ff166003811115610b235760e060020a634e487b7102600052602160045260246000fd5b6003811115610b455760e060020a634e487b7102600052602160045260246000fd5b81528154610100900463ffffffff16602080830191909152600192830154604090920191909152918352929092019101610ad7565b505050509050919050565b33610b8e610d1a565b600160a060020a031614610bb75760405160e560020a62461bcd02815260040161055c906124ee565b606654604051600091600160a060020a031690600080516020612667833981519152908390a360668054600160a060020a0319169055565b609b54600090604060020a900463ffffffff16610c0b60355490565b609b54610c269190640100000000900463ffffffff166125bc565b610c3091906125bc565b905090565b600080610c4183611824565b509392505050565b33610c52610d1a565b600160a060020a031614610c7b5760405160e560020a62461bcd02815260040161055c906124ee565b60985460ff16610cdf5760405160e560020a62461bcd02815260206004820152602360248201527f5468652070726f6475637420746f6b656e20697320616c726561647920706175604482015260ea60020a621cd95902606482015260840161055c565b6098805460ff19169055604051600081527f65c5ccecef030677b73a1403e7e69ef84d05db9d1732959d543d32f4419909b890602001610608565b606654600160a060020a031690565b606060378054610621906125e1565b60656020528160005260406000208181548110610d5457600080fd5b60009182526020909120600290910201805460019091015460ff8216935061010090910463ffffffff16915083565b336000908152603460209081526040808320600160a060020a038616845290915281205482811015610e0b5760405160e560020a62461bcd02815260206004820152602560248201527f45524332303a2064656372656173656420616c6c6f77616e63652062656c6f77604482015260d860020a64207a65726f02606482015260840161055c565b610e1a338561095186856125a5565b5060019392505050565b60006106b1338484611626565b609d5460009081908190600160a060020a031663bff82d84610e51611929565b609954609b5460405163ffffffff85811660e060020a028252610e7c94939216908a90600401612523565b60206040518083038186803b158015610e9457600080fd5b505afa158015610ea8573d6000803e3d6000fd5b505050506040513d601f19601f82011682018060405250810190610ecc919061223d565b90506000610eee64e8d4a51000610ee8846412a05f2000611956565b90611962565b91935090915050915091565b610f02610d1a565b600160a060020a031633600160a060020a03161480610f2b5750609c54600160a060020a031633145b610f4a5760405160e560020a62461bcd02815260040161055c906124b7565b600160a060020a038216610f735760405160e560020a62461bcd02815260040161055c906123ec565b6000610f7f838361196e565b905060008111610fd45760405160e560020a62461bcd02815260206004820152600d60248201527f496e76616c69642076616c756500000000000000000000000000000000000000604482015260640161055c565b505050565b33610fe2610d1a565b600160a060020a03161461100b5760405160e560020a62461bcd02815260040161055c906124ee565b600160a060020a0381166110645760405160e560020a62461bcd02815260206004820152600f60248201527f696e76616c696420616464726573730000000000000000000000000000000000604482015260640161055c565b609c8054600160a060020a031916600160a060020a0392909216919091179055565b600160a060020a03821660009081526065602052604081208054839081106110c15760e060020a634e487b7102600052603260045260246000fd5b600091825260209091206002909102015460ff169392505050565b6000610c306001611278565b600054610100900460ff1680611101575060005460ff16155b6111205760405160e560020a62461bcd02815260040161055c9061245a565b600054610100900460ff16158015611142576000805461ffff19166101011790555b61114a611b31565b6111548888611bb0565b6111618686868686611c32565b8015611173576000805461ff00191690555b5050505050505050565b33611186610d1a565b600160a060020a0316146111af5760405160e560020a62461bcd02815260040161055c906124ee565b600160a060020a03811661122e5760405160e560020a62461bcd02815260206004820152602660248201527f4f776e61626c653a206e6577206f776e657220697320746865207a65726f206160448201527f6464726573730000000000000000000000000000000000000000000000000000606482015260840161055c565b606654604051600160a060020a0380841692169060008051602061266783398151915290600090a360668054600160a060020a031916600160a060020a0392909216919091179055565b600080600061128684610e31565b90925090506108908282611550565b600160a060020a0383166112fd5760405160e560020a62461bcd028152602060048201526024808201527f45524332303a20617070726f76652066726f6d20746865207a65726f20616464604482015260e060020a637265737302606482015260840161055c565b600160a060020a0382166113645760405160e560020a62461bcd02815260206004820152602260248201527f45524332303a20617070726f766520746f20746865207a65726f206164647265604482015260f060020a61737302606482015260840161055c565b600160a060020a0383811660008181526034602090815260408083209487168084529482529182902085905590518481527f8c5be1e5ebec7d5bd14f71427d1e84f3dd0314c0f7b2291e5b200ac8c7c3b925910160405180910390a3505050565b600160a060020a0382166000908152606560205260409020805461141e9190839081106114055760e060020a634e487b7102600052603260045260246000fd5b600091825260209091206002909102015460ff16610a45565b1561143e5760405160e560020a62461bcd02815260040161055c90612423565b600160a060020a03821660009081526065602052604090208054600391908390811061147d5760e060020a634e487b7102600052603260045260246000fd5b60009182526020909120600290910201805460ff191660018360038111156114b85760e060020a634e487b7102600052602160045260246000fd5b02179055507f09c64bee251b684a6bb80ce179dd520c001481b7c3d7781f1502e3052af474cf82826065600086600160a060020a0316600160a060020a0316815260200190815260200160002084815481106115275760e060020a634e487b7102600052603260045260246000fd5b9060005260206000209060020201604051611544939291906122b3565b60405180910390a15050565b600061155c828461254b565b9392505050565b609d5460009081908190600160a060020a0316631c949873611583611929565b609954609b5460405163ffffffff85811660e060020a0282526115ae94939216908a90600401612523565b60206040518083038186803b1580156115c657600080fd5b505afa1580156115da573d6000803e3d6000fd5b505050506040513d601f19601f820116820180604052508101906115fe919061223d565b90506000610eee64e8d4a51000610ee8846404a817c800611956565b600061155c82846125a5565b600160a060020a0383166116905760405160e560020a62461bcd02815260206004820152602560248201527f45524332303a207472616e736665722066726f6d20746865207a65726f206164604482015260d860020a64647265737302606482015260840161055c565b600160a060020a0382166116f85760405160e560020a62461bcd02815260206004820152602360248201527f45524332303a207472616e7366657220746f20746865207a65726f2061646472604482015260e860020a6265737302606482015260840161055c565b600160a060020a0383166000908152603360205260409020548181101561178a5760405160e560020a62461bcd02815260206004820152602660248201527f45524332303a207472616e7366657220616d6f756e742065786365656473206260448201527f616c616e63650000000000000000000000000000000000000000000000000000606482015260840161055c565b61179482826125a5565b600160a060020a0380861660009081526033602052604080822093909355908516815290812080548492906117ca90849061254b565b9250508190555082600160a060020a031684600160a060020a03167fddf252ad1be2c89b69c2b068fc378daa952ba7f163c4a11628f55a4df523b3ef8460405161181691815260200190565b60405180910390a350505050565b6000808061184064fb75043000610ee88664e8d4a51000611956565b9050600061185c64e8d4a51000610ee884640df8475800611956565b609d54909150600090600160a060020a0316639f4ae6b061187b611929565b609954609b5463ffffffff90811690611898908990899061161a16565b60405163ffffffff86811660e060020a0282529485166004820152602481019390935292166044820152606481019190915260840160206040518083038186803b1580156118e557600080fd5b505afa1580156118f9573d6000803e3d6000fd5b505050506040513d601f19601f8201168201806040525081019061191d9190612271565b94509092505050915091565b609b54600090610c309063ffffffff606060020a82048116916107cd91604060020a909104168160355490565b600061155c8284612586565b600061155c8284612563565b600160a060020a038216600090815260656020526040812080546119ae9190849081106114055760e060020a634e487b7102600052603260045260246000fd5b156119ce5760405160e560020a62461bcd02815260040161055c90612423565b600160a060020a038316600090815260656020526040902080546002919084908110611a0d5760e060020a634e487b7102600052603260045260246000fd5b60009182526020909120600290910201805460ff19166001836003811115611a485760e060020a634e487b7102600052602160045260246000fd5b02179055507f09c64bee251b684a6bb80ce179dd520c001481b7c3d7781f1502e3052af474cf83836065600087600160a060020a0316600160a060020a031681526020019081526020016000208581548110611ab75760e060020a634e487b7102600052603260045260246000fd5b9060005260206000209060020201604051611ad4939291906122b3565b60405180910390a1600160a060020a0383166000908152606560205260409020805483908110611b175760e060020a634e487b7102600052603260045260246000fd5b906000526020600020906002020160010154905092915050565b600054610100900460ff1680611b4a575060005460ff16155b611b695760405160e560020a62461bcd02815260040161055c9061245a565b600054610100900460ff16158015611b8b576000805461ffff19166101011790555b611b93611dc6565b611b9b611e33565b8015611bad576000805461ff00191690555b50565b600054610100900460ff1680611bc9575060005460ff16155b611be85760405160e560020a62461bcd02815260040161055c9061245a565b600054610100900460ff16158015611c0a576000805461ffff19166101011790555b611c12611dc6565b611c1c8383611ed2565b8015610fd4576000805461ff0019169055505050565b600054610100900460ff1680611c4b575060005460ff16155b611c6a5760405160e560020a62461bcd02815260040161055c9061245a565b600054610100900460ff16158015611c8c576000805461ffff19166101011790555b60008463ffffffff1611611ce55760405160e560020a62461bcd02815260206004820152601860248201527f496e76616c6964206d617820746f6b656e20636f756e742e0000000000000000604482015260640161055c565b60008563ffffffff1611611d3e5760405160e560020a62461bcd02815260206004820152601560248201527f496e76616c6964207265736572766520726174696f0000000000000000000000604482015260640161055c565b609d8054600160a060020a038816600160a060020a03199091161790556099829055609a829055609b805463ffffffff8681166401000000000267ffffffffffffffff19828816606060020a02166fffffffff00000000ffffffffffffffff1990931692909217908816171790558015611dbe576000805461ff00191690555b505050505050565b600054610100900460ff1680611ddf575060005460ff16155b611dfe5760405160e560020a62461bcd02815260040161055c9061245a565b600054610100900460ff16158015611b9b576000805461ffff19166101011790558015611bad576000805461ff001916905550565b600054610100900460ff1680611e4c575060005460ff16155b611e6b5760405160e560020a62461bcd02815260040161055c9061245a565b600054610100900460ff16158015611e8d576000805461ffff19166101011790555b60668054600160a060020a031916339081179091556040518190600090600080516020612667833981519152908290a3508015611bad576000805461ff001916905550565b600054610100900460ff1680611eeb575060005460ff16155b611f0a5760405160e560020a62461bcd02815260040161055c9061245a565b600054610100900460ff16158015611f2c576000805461ffff19166101011790555b8251611f3f906036906020860190611f6a565b508151611f53906037906020850190611f6a565b508015610fd4576000805461ff0019169055505050565b828054611f76906125e1565b90600052602060002090601f016020900481019282611f985760008555611fde565b82601f10611fb157805160ff1916838001178555611fde565b82800160010185558215611fde579182015b82811115611fde578251825591602001919060010190611fc3565b50611fea929150611fee565b5090565b5b80821115611fea5760008155600101611fef565b8035600160a060020a038116811461086e57600080fd5b600082601f83011261202a578081fd5b813567ffffffffffffffff808211156120455761204561263a565b604051601f8301601f19908116603f0116810190828211818310171561206d5761206d61263a565b81604052838152866020858801011115612085578485fd5b8360208701602083013792830160200193909352509392505050565b6000602082840312156120b2578081fd5b61155c82612003565b600080604083850312156120cd578081fd5b6120d683612003565b91506120e460208401612003565b90509250929050565b600080600060608486031215612101578081fd5b61210a84612003565b925061211860208501612003565b9150604084013590509250925092565b6000806040838503121561213a578182fd5b61214383612003565b946020939093013593505050565b600060208284031215612162578081fd5b81356004811061155c578182fd5b600080600080600080600060e0888a03121561218a578283fd5b873567ffffffffffffffff808211156121a1578485fd5b6121ad8b838c0161201a565b985060208a01359150808211156121c2578485fd5b506121cf8a828b0161201a565b9650506121de60408901612003565b945060608801356121ee81612654565b935060808801356121fe81612654565b925060a088013561220e81612654565b8092505060c0880135905092959891949750929550565b600060208284031215612236578081fd5b5035919050565b60006020828403121561224e578081fd5b5051919050565b600060208284031215612266578081fd5b813561155c81612654565b600060208284031215612282578081fd5b815161155c81612654565b600481106122af5760e060020a634e487b710260009081526021600452602490fd5b9052565b600160a060020a038416815260208101839052815460a08201906122dd6040840160ff831661228d565b63ffffffff61010082041660608401525060018301546080830152949350505050565b602080825282518282018190526000919060409081850190868401855b8281101561235957815161233285825161228d565b8087015163ffffffff1685880152850151858501526060909301929085019060010161231d565b5091979650505050505050565b602081016106b5828461228d565b60608101612382828661228d565b63ffffffff93909316602082015260400152919050565b6000602080835283518082850152825b818110156123c5578581018301518582016040015282016123a9565b818111156123d65783604083870101525b50601f01601f1916929092016040019392505050565b6020808252600d908201527f496e76616c696420627579657200000000000000000000000000000000000000604082015260600190565b60208082526011908201527f616c726561647920636f6d706c65746564000000000000000000000000000000604082015260600190565b6020808252602e908201527f496e697469616c697a61626c653a20636f6e747261637420697320616c72656160408201527f647920696e697469616c697a6564000000000000000000000000000000000000606082015260800190565b60208082526011908201527f7065726d697373696f6e2064656e696564000000000000000000000000000000604082015260600190565b6020808252818101527f4f776e61626c653a2063616c6c6572206973206e6f7420746865206f776e6572604082015260600190565b63ffffffff948516815260208101939093529083166040830152909116606082015260800190565b6000821982111561255e5761255e612620565b500190565b6000826125815760e060020a634e487b710281526012600452602481fd5b500490565b60008160001904831182151516156125a0576125a0612620565b500290565b6000828210156125b7576125b7612620565b500390565b600063ffffffff838116908316818110156125d9576125d9612620565b039392505050565b6002810460018216806125f557607f821691505b6020821081141561261a5760e060020a634e487b710260009081526022600452602490fd5b50919050565b60e060020a634e487b710260009081526011600452602490fd5b60e060020a634e487b710260009081526041600452602490fd5b63ffffffff81168114611bad57600080fdfe8be0079c531659141344cd1fd0a4f28419497f9722a3daafe3b4186f6b6457e0a2646970667358221220697fb07c6071bad3985605b775ff6cda088d2e403710d34e9f9fdd8a5f54e23f64736f6c63430008030033",
  "immutableReferences": {},
  "source": "// SPDX-License-Identifier: MIT\n\npragma solidity ^0.8.2;\n\nimport \"@openzeppelin/contracts/token/ERC20/IERC20.sol\";\nimport \"@openzeppelin/contracts-upgradeable/token/ERC20/ERC20Upgradeable.sol\";\nimport \"@openzeppelin/contracts-upgradeable/access/OwnableUpgradeable.sol\";\nimport \"@openzeppelin/contracts-upgradeable/utils/math/SafeMathUpgradeable.sol\";\n\nimport \"./interface/BancorBondingCurveV1Interface.sol\";\nimport \"./Escrow.sol\";\n\n/// @title ProductToken\n/// @notice This is version 0 of the product token implementation.\n/// @dev This contract lays the foundation for transaction computations, including\n///   bonding curve calculations and variable management. Version 0 of this contract\n///   does not implement any transaction logic.\ncontract ProductToken is ERC20Upgradeable, Escrow, OwnableUpgradeable {\n\tusing SafeMathUpgradeable for uint256;\n\n\tevent Buy(address indexed sender, uint32 amount, uint256 deposit);\t\t// event to fire when a new token is minted\n  event Sell(address indexed sender, uint32 amount, uint256 refund);\t\t// event to fire when a token has been sold back\n  event Tradein(address indexed sender, uint32 amount);\t\t\t\t\t\t\t// event to fire when a token is redeemed in the real world\n  event Tradable(bool isTradable);\n\n  bool private isTradable;\n  uint256 public reserveBalance;      // amount of liquidity in the pool\n  uint256 public tradeinReserveBalance;      // amount of liquidity in the pool\n  uint32 public reserveRatio;         // computed from the exponential factor in the\n  uint32 public maxTokenCount;        // max token count, determined by the supply of our physical product\n  uint32 public tradeinCount;         // number of tokens burned through redeeming procedure. This will drive price up permanently\n  uint32 internal supplyOffset;       // an initial value used to set an initial price. This is not included in the total supply.\n  address private _manager;\n\n  BancorBondingCurveV1Interface internal bondingCurve;\n\n  modifier onlyIfTradable {\n      require(\n          isTradable,\n          \"unable to trade now\"\n      );\n      _;\n  }\n\n\t/**\n   * @dev initializer function.\n   *\n   * @param _name                     the name of this token\n   * @param _symbol                   the symbol of this token\n   * @param _reserveRatio             the reserve ratio in the curve function. Number in parts per million\n   * @param _maxTokenCount\t\t\t\t\t\tthe amount of token that will exist for this type.\n   * @param _supplyOffset             this amount is used to determine initial price.\n   * @param _baseReserve              the base amount of reserve tokens, in accordance to _supplyOffset.\n   *\n  */\n  function initialize(string memory _name, string memory _symbol, address _bondingCurveAddress,\n      uint32 _reserveRatio, uint32 _maxTokenCount, uint32 _supplyOffset, uint256 _baseReserve) public virtual initializer{\n    __Ownable_init();\n    __ERC20_init(_name, _symbol);\n    __ProductToken_init_unchained(_bondingCurveAddress, _reserveRatio, _maxTokenCount, _supplyOffset, _baseReserve);\n  }\n\n  /**\n   * @dev unchained initializer function.\n   *\n   * @param _reserveRatio             the reserve ratio in the curve function. Number in parts per million\n   * @param _maxTokenCount            the amount of token that will exist for this type.\n   * @param _supplyOffset             this amount is used to determine initial price.\n   * @param _baseReserve              the base amount of reserve tokens, in accordance to _supplyOffset.\n   *\n  */\n  function __ProductToken_init_unchained(address _bondingCurveAddress, uint32 _reserveRatio, uint32 _maxTokenCount, uint32 _supplyOffset, uint256 _baseReserve) internal initializer{\n    require(_maxTokenCount > 0, \"Invalid max token count.\");\n    require(_reserveRatio > 0, \"Invalid reserve ratio\");\n    bondingCurve = BancorBondingCurveV1Interface(_bondingCurveAddress);\n    reserveBalance = _baseReserve;\n    tradeinReserveBalance = _baseReserve;\n    supplyOffset = _supplyOffset;\n    reserveRatio = _reserveRatio;\n    maxTokenCount = _maxTokenCount;\n  }\n\n  function decimals() public view virtual override returns (uint8) {\n      return 0;\n  }\n\n  /**\n   * @dev requires function to be called from owner. sets a bonding curve implementation for this product.\n   *\n   * @param _address             the address of the bonding curve implementation\n   *\n  */\n  function setBondingCurve(address _address) external virtual onlyOwner {\n    require(_address!=address(0), \"Invalid address\");\n    bondingCurve = BancorBondingCurveV1Interface(_address);\n  }\n\n  /**\n   * @dev requires function to be called from owner. this enables customers to buy, sell, or redeem the product.\n   *\n  */\n  function launch() external virtual onlyOwner {\n    require(!isTradable, 'The product token is already launched');\n    isTradable = true;\n    emit Tradable(isTradable);\n  }\n\n  /**\n   * @dev requires function to be called from owner. this prevents customers from buying, selling, or redeeming the product.\n   *\n  */\n  function pause() external virtual onlyOwner {\n    require(isTradable, 'The product token is already paused');\n    isTradable = false;\n    emit Tradable(isTradable);\n  }\n\n  fallback () external { }\n\n  /**\n   * @dev Function to check how many tokens of this product are currently available for purchase,\n   * by taking the difference between max cap count and current token in circulation or burned.\n   *\n   * @return available                the number of tokens available\n  */\n  function getAvailability()\n    public view virtual returns (uint32 available)\n  {\n    return maxTokenCount - uint32(totalSupply()) - tradeinCount;    // add safemath for uint32 later\n  }\n\n  /**\n   * @dev Function that computes supply value for the bonding curve\n   * based on current token in circulation, token offset initialized, and tokens already redeemed.\n   *\n   * @return supply                   supply value for bonding curve calculation.\n  */\n  function _getTotalSupply()\n    internal view virtual returns (uint32 supply)\n  {\n    return uint32(totalSupply().add(uint256(tradeinCount)).add(uint256(supplyOffset)));\n  }\n\n  /**\n   * @dev Function that computes current price for a token through bonding curve calculation\n   * based on parameters such as total supply, reserve balance, and reserve ratio.\n   *\n   * @return price                   current price in reserve token (in our case, this is dai). (with 4% platform fee)\n  */\n  function getCurrentPrice()\n  \tpublic view virtual returns\t(uint256 price)\n  {\n    return getPriceForN(1);\n  }\n\n  /**\n   * @dev Function that computes price total for buying n token through bonding curve calculation\n   * based on parameters such as total supply, reserve balance, and reserve ratio.\n   *\n   * @param  _amountProduct          token amount in traded token\n   * @return price                   total price in reserve token (in our case, this is dai). (with 4% platform fee)\n  */\n  function getPriceForN(uint32 _amountProduct)\n  \tpublic view virtual returns\t(uint256 price)\n  {\n    (uint price, uint fee) = _getPriceForN(_amountProduct);\n    return price.add(fee);\n  }\n\n  function _getPriceForN(uint32 _amountProduct)\n  \tpublic view virtual returns\t(uint256 price, uint256 fee) {\n      uint256 price = bondingCurve.calculatePriceForNTokens(_getTotalSupply(), reserveBalance, reserveRatio, _amountProduct);\n      //8% is the platform transaction fee\n      uint256 fee = price.mul(8e10).div(1e12);\n      return (price, fee);\n    }\n\n  /**\n   * @dev Function that computes number of product tokens one can buy given an amount in reserve token.\n   *\n   * @param  _amountReserve          purchaing amount in reserve token (dai)\n   * @return mintAmount              number of tokens in traded token that can be purchased by given amount.\n  */\n  function _buyReturn(uint256 _amountReserve)\n    internal view virtual returns (uint32 mintAmount, uint fee)\n  {\n    uint value = _amountReserve.mul(1e12).div(1.08e12);\n    uint fee = value.mul(6e10).div(1e12);\n    uint32 amount = bondingCurve.calculatePurchaseReturn(_getTotalSupply(), reserveBalance, reserveRatio, value.sub(fee));\n    return (amount, fee);\n  }\n\n  /**\n   * @dev Function that computes number of product tokens one can buy given an amount in reserve token.\n   *\n   * @param  _amountReserve          purchaing amount in reserve token (dai)(with 4% platform fee)\n   * @return mintAmount              number of tokens in traded token that can be purchased by given amount.\n  */\n  function calculateBuyReturn(uint256 _amountReserve)\n    public view virtual returns (uint32 mintAmount)\n  {\n    (uint32 amount,) = _buyReturn(_amountReserve);\n    return amount;\n  }\n\n  /**\n   * @dev Function that computes selling price in reserve tokens given an amount in traded token.\n   *\n   * @param  _amountProduct          selling amount in product token\n   * @return soldAmount              total amount that will be transferred to the seller.\n  */\n  function _sellReturn(uint32 _amountProduct)\n    internal view virtual returns (uint256 soldAmount, uint256 fee)\n  {\n    // ppm of 98%. 2% is the platform transaction fee\n    uint reimburseAmount = bondingCurve.calculateSaleReturn(_getTotalSupply(), reserveBalance, reserveRatio, _amountProduct);\n    uint fee = reimburseAmount.mul(2e10).div(1e12);\n    return (reimburseAmount, fee);\n  }\n\n  /**\n   * @dev Function that computes selling price in reserve tokens given an amount in traded token.\n   *\n   * @param  _amountProduct          selling amount in product token\n   * @return soldAmount              total amount that will be transferred to the seller (with 2% platform fee).\n  */\n  function calculateSellReturn(uint32 _amountProduct)\n    public view virtual returns (uint256 soldAmount)\n  {\n    (uint reimburseAmount, uint fee) = _sellReturn(_amountProduct);\n    return reimburseAmount.sub(fee);\n  }\n\n   /**\n   * @dev calculates the return for a given conversion (in product token)\n   * This function validate whether is enough to purchase token.\n   * If enough, the function will deduct, and then mint one token for the user. Any extras are return as change.\n   * If not enough, will return as change directly\n   * then replace the _amount with the actual amount and proceed with the above logic.\n   *\n   * @param _deposit              reserve token deposited\n   *\n   * @return token                amount bought in product token\n   * @return change               amount of change in reserve tokens.\n   * @return price\n   * @return fee\n  */\n  function _buy(uint256 _deposit)\n    internal virtual returns (uint32, uint256, uint256, uint256)\n  {\n  \trequire(getAvailability() > 0, \"Sorry, this token is sold out.\");\n    require(_deposit > 0, \"Deposit must be non-zero.\");\n\n    (uint price, uint fee ) = _getPriceForN(1);\n\n    if (price > _deposit) {\n      return (0, _deposit, 0, 0);\n    }\n    _mint(msg.sender, 1);\n    reserveBalance = reserveBalance.add(price.sub(fee));\n    emit Buy(msg.sender, 1, price);\n    return (1, _deposit.sub(price), price, fee);\n  }\n\n   /**\n   * @dev calculates the return for a given conversion (in the reserve token)\n   * This function will try to compute the amount of liquidity one gets by selling _amount token,\n   * then it will initiate a transfer.\n   *\n   * @param _amount              amount of product token wishes to be sold\n   *\n   * @return amount               amount sold in reserved token\n   * @return fee\n  */\n  function _sellForAmount(uint32 _amount)\n    internal virtual returns (uint256, uint256)\n  {\n  \trequire(_amount > 0, \"Amount must be non-zero.\");\n    require(balanceOf(msg.sender) >= _amount, \"Insufficient tokens to sell.\");\n    // calculate amount of liquidity to reimburse\n  \t(uint256 reimburseAmount, uint256 fee) = _sellReturn(_amount);\n \t\treserveBalance = reserveBalance.sub(reimburseAmount);\n    _burn(msg.sender, _amount);\n\n    emit Sell(msg.sender, _amount, reimburseAmount);\n    return (reimburseAmount.sub(fee), fee);\n  }\n\n  function calculateTradinReturn(uint32 _amount)\n    public view virtual returns (uint256)\n  {\n  \trequire(_amount > 0, \"invalid amount\");\n    uint32 supply = uint32(uint256(_amount).add(uint256(tradeinCount)).add(uint256(supplyOffset)));\n  \treturn bondingCurve.calculateSaleReturn(supply, tradeinReserveBalance, reserveRatio, _amount);\n  }\n\n\n  /**\n   * @dev used to update the status of redemption to \"User Complete\" after an escrow process has been started.\n   *\n   * @param buyer                 the wallet address of product buyer\n   * @param id                    the id of the escrow, returned to the user after starting of redemption process\n  */\n  function updateUserCompleted(address buyer, uint256 id) external virtual {\n    require(msg.sender == owner() || msg.sender == _manager, 'permission denied');\n    require(buyer != address(0), \"Invalid buyer\");\n    _updateUserCompleted(buyer, id);\n  }\n\n  /**\n   * @dev used to update the status of redemption to \"User Refunded\" after an escrow process has been started.\n   *\n   * @param buyer                 the wallet address of product buyer\n   * @param id                    the id of the escrow, returned to the user after starting of redemption process\n  */\n  function updateUserRefund(address buyer, uint256 id) external virtual{\n    require(msg.sender == owner() || msg.sender == _manager, 'permission denied');\n    require(buyer != address(0), \"Invalid buyer\");\n    uint256 value = _updateUserRefund(buyer, id);\n    require(value >0 , \"Invalid value\");\n    _refund(buyer, value);\n  }\n\n  /**\n   * @dev refund function.\n   * This function returns the equivalent amount of Dai (reserve currency) to a product owner if an redemption fails\n   * This is only triggered in the extremely rare cases.\n   * This function is not implemented in Version 0 of Product Token\n   *\n   * @param _buyer       The wallet address of the owner whose product token is under the redemption process\n   * @param _value       The market value of the token being redeemed\n  */\n  function _refund(address _buyer, uint256 _value) internal virtual {\n    // override\n  }\n\n  function setManager(address addr_) external virtual onlyOwner {\n    require(addr_ != address(0), 'invalid address');\n    _manager = addr_;\n  }\n\n  function getManager() external view virtual returns(address) {\n    return _manager;\n  }\n\n}\n\n",
  "sourcePath": "/Users/jack/Documents/GitHub/HighStreet/client/src/contracts/ProductToken.sol",
  "compiler": {
    "name": "solc",
    "version": "0.8.3+commit.8d00100c.Emscripten.clang"
  },
  "schemaVersion": "3.4.0",
  "updatedAt": "2021-09-25T11:30:46.763Z",
  "devdoc": {
    "details": "This contract lays the foundation for transaction computations, including   bonding curve calculations and variable management. Version 0 of this contract   does not implement any transaction logic.",
    "kind": "dev",
    "methods": {
      "allowance(address,address)": {
        "details": "See {IERC20-allowance}."
      },
      "approve(address,uint256)": {
        "details": "See {IERC20-approve}. Requirements: - `spender` cannot be the zero address."
      },
      "balanceOf(address)": {
        "details": "See {IERC20-balanceOf}."
      },
      "calculateBuyReturn(uint256)": {
        "details": "Function that computes number of product tokens one can buy given an amount in reserve token.",
        "params": {
          "_amountReserve": "purchaing amount in reserve token (dai)(with 4% platform fee)"
        },
        "returns": {
          "mintAmount": "             number of tokens in traded token that can be purchased by given amount."
        }
      },
      "calculateSellReturn(uint32)": {
        "details": "Function that computes selling price in reserve tokens given an amount in traded token.",
        "params": {
          "_amountProduct": "selling amount in product token"
        },
        "returns": {
          "soldAmount": "             total amount that will be transferred to the seller (with 2% platform fee)."
        }
      },
      "decimals()": {
        "details": "Returns the number of decimals used to get its user representation. For example, if `decimals` equals `2`, a balance of `505` tokens should be displayed to a user as `5,05` (`505 / 10 ** 2`). Tokens usually opt for a value of 18, imitating the relationship between Ether and Wei. This is the value {ERC20} uses, unless this function is overloaded; NOTE: This information is only used for _display_ purposes: it in no way affects any of the arithmetic of the contract, including {IERC20-balanceOf} and {IERC20-transfer}."
      },
      "decreaseAllowance(address,uint256)": {
        "details": "Atomically decreases the allowance granted to `spender` by the caller. This is an alternative to {approve} that can be used as a mitigation for problems described in {IERC20-approve}. Emits an {Approval} event indicating the updated allowance. Requirements: - `spender` cannot be the zero address. - `spender` must have allowance for the caller of at least `subtractedValue`."
      },
      "getAvailability()": {
        "details": "Function to check how many tokens of this product are currently available for purchase, by taking the difference between max cap count and current token in circulation or burned.",
        "returns": {
          "available": "               the number of tokens available"
        }
      },
      "getCurrentPrice()": {
        "details": "Function that computes current price for a token through bonding curve calculation based on parameters such as total supply, reserve balance, and reserve ratio.",
        "returns": {
          "price": "                  current price in reserve token (in our case, this is dai). (with 4% platform fee)"
        }
      },
      "getEscrowHistory(address)": {
        "details": "Return the list of all escrows created for a certain user",
        "params": {
          "_buyer": "The address of the buyer"
        },
        "returns": {
          "_0": "A list of past escrows"
        }
      },
      "getPriceForN(uint32)": {
        "details": "Function that computes price total for buying n token through bonding curve calculation based on parameters such as total supply, reserve balance, and reserve ratio.",
        "params": {
          "_amountProduct": "token amount in traded token"
        },
        "returns": {
          "price": "                  total price in reserve token (in our case, this is dai). (with 4% platform fee)"
        }
      },
      "getRedeemStatus(address,uint256)": {
        "details": "Get status of a particular redemption process",
        "params": {
          "_buyer": "The address of the buyer",
          "_id": "The cached id of the escrow, retrieved from database"
        },
        "returns": {
          "_0": "The current status"
        }
      },
      "increaseAllowance(address,uint256)": {
        "details": "Atomically increases the allowance granted to `spender` by the caller. This is an alternative to {approve} that can be used as a mitigation for problems described in {IERC20-approve}. Emits an {Approval} event indicating the updated allowance. Requirements: - `spender` cannot be the zero address."
      },
      "initialize(string,string,address,uint32,uint32,uint32,uint256)": {
        "details": "initializer function.",
        "params": {
          "_baseReserve": "the base amount of reserve tokens, in accordance to _supplyOffset.",
          "_maxTokenCount": "the amount of token that will exist for this type.",
          "_name": "the name of this token",
          "_reserveRatio": "the reserve ratio in the curve function. Number in parts per million",
          "_supplyOffset": "this amount is used to determine initial price.",
          "_symbol": "the symbol of this token"
        }
      },
      "isStateCompleted(uint8)": {
        "details": "Helper function to check whether a escrow state is completed",
        "params": {
          "_state": "The state to be checked"
        }
      },
      "launch()": {
        "details": "requires function to be called from owner. this enables customers to buy, sell, or redeem the product."
      },
      "name()": {
        "details": "Returns the name of the token."
      },
      "owner()": {
        "details": "Returns the address of the current owner."
      },
      "pause()": {
        "details": "requires function to be called from owner. this prevents customers from buying, selling, or redeeming the product."
      },
      "renounceOwnership()": {
        "details": "Leaves the contract without owner. It will not be possible to call `onlyOwner` functions anymore. Can only be called by the current owner. NOTE: Renouncing ownership will leave the contract without an owner, thereby removing any functionality that is only available to the owner."
      },
      "setBondingCurve(address)": {
        "details": "requires function to be called from owner. sets a bonding curve implementation for this product.",
        "params": {
          "_address": "the address of the bonding curve implementation"
        }
      },
      "symbol()": {
        "details": "Returns the symbol of the token, usually a shorter version of the name."
      },
      "totalSupply()": {
        "details": "See {IERC20-totalSupply}."
      },
      "transfer(address,uint256)": {
        "details": "See {IERC20-transfer}. Requirements: - `recipient` cannot be the zero address. - the caller must have a balance of at least `amount`."
      },
      "transferFrom(address,address,uint256)": {
        "details": "See {IERC20-transferFrom}. Emits an {Approval} event indicating the updated allowance. This is not required by the EIP. See the note at the beginning of {ERC20}. Requirements: - `sender` and `recipient` cannot be the zero address. - `sender` must have a balance of at least `amount`. - the caller must have allowance for ``sender``'s tokens of at least `amount`."
      },
      "transferOwnership(address)": {
        "details": "Transfers ownership of the contract to a new account (`newOwner`). Can only be called by the current owner."
      },
      "updateUserCompleted(address,uint256)": {
        "details": "used to update the status of redemption to \"User Complete\" after an escrow process has been started.",
        "params": {
          "buyer": "the wallet address of product buyer",
          "id": "the id of the escrow, returned to the user after starting of redemption process"
        }
      },
      "updateUserRefund(address,uint256)": {
        "details": "used to update the status of redemption to \"User Refunded\" after an escrow process has been started.",
        "params": {
          "buyer": "the wallet address of product buyer",
          "id": "the id of the escrow, returned to the user after starting of redemption process"
        }
      }
    },
    "title": "ProductToken",
    "version": 1
  },
  "userdoc": {
    "kind": "user",
    "methods": {},
    "notice": "This is version 0 of the product token implementation.",
    "version": 1
  }
}