{
  "contractName": "ProductTokenV01",
  "abi": [
    {
      "anonymous": false,
      "inputs": [
        {
          "indexed": true,
          "internalType": "address",
          "name": "owner",
          "type": "address"
        },
        {
          "indexed": true,
          "internalType": "address",
          "name": "spender",
          "type": "address"
        },
        {
          "indexed": false,
          "internalType": "uint256",
          "name": "value",
          "type": "uint256"
        }
      ],
      "name": "Approval",
      "type": "event"
    },
    {
      "anonymous": false,
      "inputs": [
        {
          "indexed": true,
          "internalType": "address",
          "name": "sender",
          "type": "address"
        },
        {
          "indexed": false,
          "internalType": "uint32",
          "name": "amount",
          "type": "uint32"
        },
        {
          "indexed": false,
          "internalType": "uint256",
          "name": "deposit",
          "type": "uint256"
        }
      ],
      "name": "Buy",
      "type": "event"
    },
    {
      "anonymous": false,
      "inputs": [
        {
          "indexed": true,
          "internalType": "address",
          "name": "previousOwner",
          "type": "address"
        },
        {
          "indexed": true,
          "internalType": "address",
          "name": "newOwner",
          "type": "address"
        }
      ],
      "name": "OwnershipTransferred",
      "type": "event"
    },
    {
      "anonymous": false,
      "inputs": [
        {
          "indexed": true,
          "internalType": "address",
          "name": "sender",
          "type": "address"
        },
        {
          "indexed": false,
          "internalType": "uint32",
          "name": "amount",
          "type": "uint32"
        },
        {
          "indexed": false,
          "internalType": "uint256",
          "name": "refund",
          "type": "uint256"
        }
      ],
      "name": "Sell",
      "type": "event"
    },
    {
      "anonymous": false,
      "inputs": [
        {
          "indexed": false,
          "internalType": "bool",
          "name": "isTradable",
          "type": "bool"
        }
      ],
      "name": "Tradable",
      "type": "event"
    },
    {
      "anonymous": false,
      "inputs": [
        {
          "indexed": true,
          "internalType": "address",
          "name": "sender",
          "type": "address"
        },
        {
          "indexed": false,
          "internalType": "uint32",
          "name": "amount",
          "type": "uint32"
        }
      ],
      "name": "Tradein",
      "type": "event"
    },
    {
      "anonymous": false,
      "inputs": [
        {
          "indexed": true,
          "internalType": "address",
          "name": "from",
          "type": "address"
        },
        {
          "indexed": true,
          "internalType": "address",
          "name": "to",
          "type": "address"
        },
        {
          "indexed": false,
          "internalType": "uint256",
          "name": "value",
          "type": "uint256"
        }
      ],
      "name": "Transfer",
      "type": "event"
    },
    {
      "anonymous": false,
      "inputs": [
        {
          "indexed": false,
          "internalType": "address",
          "name": "",
          "type": "address"
        },
        {
          "indexed": false,
          "internalType": "uint256",
          "name": "",
          "type": "uint256"
        },
        {
          "components": [
            {
              "internalType": "enum Escrow.escrowState",
              "name": "state",
              "type": "uint8"
            },
            {
              "internalType": "uint32",
              "name": "amount",
              "type": "uint32"
            },
            {
              "internalType": "uint256",
              "name": "value",
              "type": "uint256"
            }
          ],
          "indexed": false,
          "internalType": "struct Escrow.escrowInfo",
          "name": "",
          "type": "tuple"
        }
      ],
      "name": "escrowStateUpdated",
      "type": "event"
    },
    {
      "stateMutability": "nonpayable",
      "type": "fallback"
    },
    {
      "inputs": [
        {
          "internalType": "address",
          "name": "owner",
          "type": "address"
        },
        {
          "internalType": "address",
          "name": "spender",
          "type": "address"
        }
      ],
      "name": "allowance",
      "outputs": [
        {
          "internalType": "uint256",
          "name": "",
          "type": "uint256"
        }
      ],
      "stateMutability": "view",
      "type": "function"
    },
    {
      "inputs": [
        {
          "internalType": "address",
          "name": "spender",
          "type": "address"
        },
        {
          "internalType": "uint256",
          "name": "amount",
          "type": "uint256"
        }
      ],
      "name": "approve",
      "outputs": [
        {
          "internalType": "bool",
          "name": "",
          "type": "bool"
        }
      ],
      "stateMutability": "nonpayable",
      "type": "function"
    },
    {
      "inputs": [
        {
          "internalType": "address",
          "name": "account",
          "type": "address"
        }
      ],
      "name": "balanceOf",
      "outputs": [
        {
          "internalType": "uint256",
          "name": "",
          "type": "uint256"
        }
      ],
      "stateMutability": "view",
      "type": "function"
    },
    {
      "inputs": [
        {
          "internalType": "uint256",
          "name": "_amountReserve",
          "type": "uint256"
        }
      ],
      "name": "calculateBuyReturn",
      "outputs": [
        {
          "internalType": "uint32",
          "name": "mintAmount",
          "type": "uint32"
        }
      ],
      "stateMutability": "view",
      "type": "function"
    },
    {
      "inputs": [
        {
          "internalType": "uint32",
          "name": "_amountProduct",
          "type": "uint32"
        }
      ],
      "name": "calculateSellReturn",
      "outputs": [
        {
          "internalType": "uint256",
          "name": "soldAmount",
          "type": "uint256"
        }
      ],
      "stateMutability": "view",
      "type": "function"
    },
    {
      "inputs": [
        {
          "internalType": "uint32",
          "name": "_amount",
          "type": "uint32"
        }
      ],
      "name": "calculateTradinReturn",
      "outputs": [
        {
          "internalType": "uint256",
          "name": "",
          "type": "uint256"
        }
      ],
      "stateMutability": "view",
      "type": "function"
    },
    {
      "inputs": [],
      "name": "decimals",
      "outputs": [
        {
          "internalType": "uint8",
          "name": "",
          "type": "uint8"
        }
      ],
      "stateMutability": "view",
      "type": "function"
    },
    {
      "inputs": [
        {
          "internalType": "address",
          "name": "spender",
          "type": "address"
        },
        {
          "internalType": "uint256",
          "name": "subtractedValue",
          "type": "uint256"
        }
      ],
      "name": "decreaseAllowance",
      "outputs": [
        {
          "internalType": "bool",
          "name": "",
          "type": "bool"
        }
      ],
      "stateMutability": "nonpayable",
      "type": "function"
    },
    {
      "inputs": [
        {
          "internalType": "address",
          "name": "",
          "type": "address"
        },
        {
          "internalType": "uint256",
          "name": "",
          "type": "uint256"
        }
      ],
      "name": "escrowList",
      "outputs": [
        {
          "internalType": "enum Escrow.escrowState",
          "name": "state",
          "type": "uint8"
        },
        {
          "internalType": "uint32",
          "name": "amount",
          "type": "uint32"
        },
        {
          "internalType": "uint256",
          "name": "value",
          "type": "uint256"
        }
      ],
      "stateMutability": "view",
      "type": "function"
    },
    {
      "inputs": [],
      "name": "getAvailability",
      "outputs": [
        {
          "internalType": "uint32",
          "name": "available",
          "type": "uint32"
        }
      ],
      "stateMutability": "view",
      "type": "function"
    },
    {
      "inputs": [],
      "name": "getCurrentPrice",
      "outputs": [
        {
          "internalType": "uint256",
          "name": "price",
          "type": "uint256"
        }
      ],
      "stateMutability": "view",
      "type": "function"
    },
    {
      "inputs": [
        {
          "internalType": "address",
          "name": "_buyer",
          "type": "address"
        }
      ],
      "name": "getEscrowHistory",
      "outputs": [
        {
          "components": [
            {
              "internalType": "enum Escrow.escrowState",
              "name": "state",
              "type": "uint8"
            },
            {
              "internalType": "uint32",
              "name": "amount",
              "type": "uint32"
            },
            {
              "internalType": "uint256",
              "name": "value",
              "type": "uint256"
            }
          ],
          "internalType": "struct Escrow.escrowInfo[]",
          "name": "",
          "type": "tuple[]"
        }
      ],
      "stateMutability": "view",
      "type": "function"
    },
    {
      "inputs": [],
      "name": "getManager",
      "outputs": [
        {
          "internalType": "address",
          "name": "",
          "type": "address"
        }
      ],
      "stateMutability": "view",
      "type": "function"
    },
    {
      "inputs": [
        {
          "internalType": "uint32",
          "name": "_amountProduct",
          "type": "uint32"
        }
      ],
      "name": "getPriceForN",
      "outputs": [
        {
          "internalType": "uint256",
          "name": "price",
          "type": "uint256"
        }
      ],
      "stateMutability": "view",
      "type": "function"
    },
    {
      "inputs": [
        {
          "internalType": "address",
          "name": "_buyer",
          "type": "address"
        },
        {
          "internalType": "uint256",
          "name": "_id",
          "type": "uint256"
        }
      ],
      "name": "getRedeemStatus",
      "outputs": [
        {
          "internalType": "enum Escrow.escrowState",
          "name": "",
          "type": "uint8"
        }
      ],
      "stateMutability": "view",
      "type": "function"
    },
    {
      "inputs": [
        {
          "internalType": "address",
          "name": "spender",
          "type": "address"
        },
        {
          "internalType": "uint256",
          "name": "addedValue",
          "type": "uint256"
        }
      ],
      "name": "increaseAllowance",
      "outputs": [
        {
          "internalType": "bool",
          "name": "",
          "type": "bool"
        }
      ],
      "stateMutability": "nonpayable",
      "type": "function"
    },
    {
      "inputs": [
        {
          "internalType": "string",
          "name": "_name",
          "type": "string"
        },
        {
          "internalType": "string",
          "name": "_symbol",
          "type": "string"
        },
        {
          "internalType": "address",
          "name": "_bondingCurveAddress",
          "type": "address"
        },
        {
          "internalType": "uint32",
          "name": "_reserveRatio",
          "type": "uint32"
        },
        {
          "internalType": "uint32",
          "name": "_maxTokenCount",
          "type": "uint32"
        },
        {
          "internalType": "uint32",
          "name": "_supplyOffset",
          "type": "uint32"
        },
        {
          "internalType": "uint256",
          "name": "_baseReserve",
          "type": "uint256"
        }
      ],
      "name": "initialize",
      "outputs": [],
      "stateMutability": "nonpayable",
      "type": "function"
    },
    {
      "inputs": [
        {
          "internalType": "enum Escrow.escrowState",
          "name": "_state",
          "type": "uint8"
        }
      ],
      "name": "isStateCompleted",
      "outputs": [
        {
          "internalType": "bool",
          "name": "",
          "type": "bool"
        }
      ],
      "stateMutability": "pure",
      "type": "function"
    },
    {
      "inputs": [],
      "name": "launch",
      "outputs": [],
      "stateMutability": "nonpayable",
      "type": "function"
    },
    {
      "inputs": [],
      "name": "maxTokenCount",
      "outputs": [
        {
          "internalType": "uint32",
          "name": "",
          "type": "uint32"
        }
      ],
      "stateMutability": "view",
      "type": "function"
    },
    {
      "inputs": [],
      "name": "name",
      "outputs": [
        {
          "internalType": "string",
          "name": "",
          "type": "string"
        }
      ],
      "stateMutability": "view",
      "type": "function"
    },
    {
      "inputs": [],
      "name": "owner",
      "outputs": [
        {
          "internalType": "address",
          "name": "",
          "type": "address"
        }
      ],
      "stateMutability": "view",
      "type": "function"
    },
    {
      "inputs": [],
      "name": "pause",
      "outputs": [],
      "stateMutability": "nonpayable",
      "type": "function"
    },
    {
      "inputs": [],
      "name": "poolInfo",
      "outputs": [
        {
          "internalType": "uint256",
          "name": "value",
          "type": "uint256"
        },
        {
          "internalType": "uint256",
          "name": "accRewardPerShare",
          "type": "uint256"
        },
        {
          "internalType": "uint256",
          "name": "tokenReward",
          "type": "uint256"
        }
      ],
      "stateMutability": "view",
      "type": "function"
    },
    {
      "inputs": [],
      "name": "renounceOwnership",
      "outputs": [],
      "stateMutability": "nonpayable",
      "type": "function"
    },
    {
      "inputs": [],
      "name": "reserveBalance",
      "outputs": [
        {
          "internalType": "uint256",
          "name": "",
          "type": "uint256"
        }
      ],
      "stateMutability": "view",
      "type": "function"
    },
    {
      "inputs": [],
      "name": "reserveRatio",
      "outputs": [
        {
          "internalType": "uint32",
          "name": "",
          "type": "uint32"
        }
      ],
      "stateMutability": "view",
      "type": "function"
    },
    {
      "inputs": [
        {
          "internalType": "address",
          "name": "_address",
          "type": "address"
        }
      ],
      "name": "setBondingCurve",
      "outputs": [],
      "stateMutability": "nonpayable",
      "type": "function"
    },
    {
      "inputs": [
        {
          "internalType": "address",
          "name": "addr_",
          "type": "address"
        }
      ],
      "name": "setManager",
      "outputs": [],
      "stateMutability": "nonpayable",
      "type": "function"
    },
    {
      "inputs": [],
      "name": "supplier",
      "outputs": [
        {
          "internalType": "uint256",
          "name": "amount",
          "type": "uint256"
        },
        {
          "internalType": "address",
          "name": "wallet",
          "type": "address"
        }
      ],
      "stateMutability": "view",
      "type": "function"
    },
    {
      "inputs": [],
      "name": "symbol",
      "outputs": [
        {
          "internalType": "string",
          "name": "",
          "type": "string"
        }
      ],
      "stateMutability": "view",
      "type": "function"
    },
    {
      "inputs": [],
      "name": "totalSupply",
      "outputs": [
        {
          "internalType": "uint256",
          "name": "",
          "type": "uint256"
        }
      ],
      "stateMutability": "view",
      "type": "function"
    },
    {
      "inputs": [],
      "name": "tradeinCount",
      "outputs": [
        {
          "internalType": "uint32",
          "name": "",
          "type": "uint32"
        }
      ],
      "stateMutability": "view",
      "type": "function"
    },
    {
      "inputs": [],
      "name": "tradeinReserveBalance",
      "outputs": [
        {
          "internalType": "uint256",
          "name": "",
          "type": "uint256"
        }
      ],
      "stateMutability": "view",
      "type": "function"
    },
    {
      "inputs": [
        {
          "internalType": "address",
          "name": "recipient",
          "type": "address"
        },
        {
          "internalType": "uint256",
          "name": "amount",
          "type": "uint256"
        }
      ],
      "name": "transfer",
      "outputs": [
        {
          "internalType": "bool",
          "name": "",
          "type": "bool"
        }
      ],
      "stateMutability": "nonpayable",
      "type": "function"
    },
    {
      "inputs": [
        {
          "internalType": "address",
          "name": "sender",
          "type": "address"
        },
        {
          "internalType": "address",
          "name": "recipient",
          "type": "address"
        },
        {
          "internalType": "uint256",
          "name": "amount",
          "type": "uint256"
        }
      ],
      "name": "transferFrom",
      "outputs": [
        {
          "internalType": "bool",
          "name": "",
          "type": "bool"
        }
      ],
      "stateMutability": "nonpayable",
      "type": "function"
    },
    {
      "inputs": [
        {
          "internalType": "address",
          "name": "newOwner",
          "type": "address"
        }
      ],
      "name": "transferOwnership",
      "outputs": [],
      "stateMutability": "nonpayable",
      "type": "function"
    },
    {
      "inputs": [
        {
          "internalType": "address",
          "name": "buyer",
          "type": "address"
        },
        {
          "internalType": "uint256",
          "name": "id",
          "type": "uint256"
        }
      ],
      "name": "updateUserCompleted",
      "outputs": [],
      "stateMutability": "nonpayable",
      "type": "function"
    },
    {
      "inputs": [
        {
          "internalType": "address",
          "name": "buyer",
          "type": "address"
        },
        {
          "internalType": "uint256",
          "name": "id",
          "type": "uint256"
        }
      ],
      "name": "updateUserRefund",
      "outputs": [],
      "stateMutability": "nonpayable",
      "type": "function"
    },
    {
      "inputs": [
        {
          "internalType": "address",
          "name": "",
          "type": "address"
        }
      ],
      "name": "userInfo",
      "outputs": [
        {
          "internalType": "uint256",
          "name": "totalValue",
          "type": "uint256"
        },
        {
          "internalType": "uint256",
          "name": "rewardDebt",
          "type": "uint256"
        },
        {
          "internalType": "uint256",
          "name": "amount",
          "type": "uint256"
        }
      ],
      "stateMutability": "view",
      "type": "function"
    },
    {
      "inputs": [
        {
          "internalType": "address",
          "name": "",
          "type": "address"
        },
        {
          "internalType": "uint256",
          "name": "",
          "type": "uint256"
        }
      ],
      "name": "userRecords",
      "outputs": [
        {
          "internalType": "uint256",
          "name": "",
          "type": "uint256"
        }
      ],
      "stateMutability": "view",
      "type": "function"
    },
    {
      "inputs": [],
      "name": "voucher",
      "outputs": [
        {
          "internalType": "address",
          "name": "addr",
          "type": "address"
        },
        {
          "internalType": "uint256",
          "name": "tokenId",
          "type": "uint256"
        }
      ],
      "stateMutability": "view",
      "type": "function"
    },
    {
      "inputs": [
        {
          "internalType": "address",
          "name": "addr_",
          "type": "address"
        },
        {
          "internalType": "uint256",
          "name": "tokenId_",
          "type": "uint256"
        }
      ],
      "name": "setupVoucher",
      "outputs": [],
      "stateMutability": "nonpayable",
      "type": "function"
    },
    {
      "inputs": [
        {
          "internalType": "uint256",
          "name": "tokenId_",
          "type": "uint256"
        }
      ],
      "name": "claimVoucher",
      "outputs": [],
      "stateMutability": "nonpayable",
      "type": "function"
    },
    {
      "inputs": [
        {
          "internalType": "uint256",
          "name": "tokenId_",
          "type": "uint256"
        },
        {
          "internalType": "uint256",
          "name": "maxPrice_",
          "type": "uint256"
        }
      ],
      "name": "buyByVoucher",
      "outputs": [],
      "stateMutability": "nonpayable",
      "type": "function"
    },
    {
      "inputs": [
        {
          "internalType": "uint256",
          "name": "tokenId_",
          "type": "uint256"
        },
        {
          "internalType": "uint32",
          "name": "amount_",
          "type": "uint32"
        }
      ],
      "name": "sellByVoucher",
      "outputs": [],
      "stateMutability": "nonpayable",
      "type": "function"
    },
    {
      "inputs": [
        {
          "internalType": "uint256",
          "name": "tokenId_",
          "type": "uint256"
        },
        {
          "internalType": "uint32",
          "name": "amount_",
          "type": "uint32"
        }
      ],
      "name": "tradeinVoucher",
      "outputs": [],
      "stateMutability": "nonpayable",
      "type": "function"
    },
    {
      "inputs": [
        {
          "internalType": "address",
          "name": "wallet_",
          "type": "address"
        }
      ],
      "name": "setSupplier",
      "outputs": [],
      "stateMutability": "nonpayable",
      "type": "function"
    },
    {
      "inputs": [
        {
          "internalType": "uint256",
          "name": "tokenId_",
          "type": "uint256"
        },
        {
          "internalType": "uint256",
          "name": "amount_",
          "type": "uint256"
        }
      ],
      "name": "claimSupplier",
      "outputs": [],
      "stateMutability": "nonpayable",
      "type": "function"
    },
    {
      "inputs": [],
      "name": "getSupplierBalance",
      "outputs": [
        {
          "internalType": "uint256",
          "name": "",
          "type": "uint256"
        }
      ],
      "stateMutability": "view",
      "type": "function"
    },
    {
      "inputs": [
        {
          "internalType": "address",
          "name": "addr_",
          "type": "address"
        }
      ],
      "name": "getUserReward",
      "outputs": [
        {
          "internalType": "uint256",
          "name": "",
          "type": "uint256"
        }
      ],
      "stateMutability": "view",
      "type": "function"
    }
  ],
  "bytecode": "0x608060405234801561001057600080fd5b50614019806100206000396000f3fe608060405234801561001057600080fd5b50600436106102855760003560e060020a900480638456cb5911610161578063c757d4c7116100cd578063c757d4c7146105be578063c75ebb82146105d1578063cdda418c146105e4578063d0ebdbe71461061a578063d50095841461062d578063dd304b1a1461063e578063dd62ed3e1461065e578063e67dc51814610697578063e85d28b9146106a0578063eb91d37e146106b3578063efea8a13146106bb578063f2fde38b146106ce578063f97511d3146106e157610285565b80638456cb59146104cd5780638da5cb5b146104d5578063946cb16f146104f557806395d89b4114610508578063964a6afe1461051057806399740166146105185780639ade96871461052b5780639b9ffbf31461053e578063a10954fe14610560578063a457c2d714610569578063a9059cbb1461057c578063ba7a93b61461058f578063c4e627c2146105a657610285565b806336da44681161020057806336da4468146103bf57806339509351146103f357806343ff1fb814610406578063491052cd146104195780635a2f3d091461042c57806360dd8aaf1461043e5780636e74607b1461045157806370a0823114610471578063715018a61461048457806371a125861461048c5780637a53e0401461049f57806380f7fdf0146104a7578063828f3a9c146104ba57610285565b806301339c211461028757806306fdde031461028f578063095ea7b3146102ad5780630c7d5cd8146102d05780630ccee99b146102f5578063168ae4831461030857806318160ddd1461031b5780631959a0021461032d57806319d5b58714610377578063224e4f481461038a57806323b872dd1461039d578063313ce567146103b0575b005b6102856106f4565b6102976107dc565b6040516102a49190613bce565b60405180910390f35b6102c06102bb3660046138aa565b61086e565b60405190151581526020016102a4565b609b546102e09063ffffffff1681565b60405163ffffffff90911681526020016102a4565b6102856103033660046138aa565b610885565b610285610316366004613823565b61090c565b6035545b6040519081526020016102a4565b61035c61033b366004613823565b60a56020526000908152604090208054600182015460029092015490919083565b604080519384526020840192909252908201526060016102a4565b61031f610385366004613a27565b6109b9565b61031f610398366004613a27565b610aea565b6102c06103ab36600461386f565b610b0f565b604051600081526020016102a4565b609e54609f546103d69190600160a060020a031682565b60408051928352600160a060020a039091166020830152016102a4565b6102c06104013660046138aa565b610bd8565b610285610414366004613823565b610c0f565b6102c06104273660046138d3565b610cbc565b60a05460a15460a25461035c92919083565b61028561044c3660046139d7565b610d16565b61046461045f366004613823565b610e5a565b6040516102a49190613b4d565b61031f61047f366004613823565b610f40565b610285610f5b565b61028561049a3660046139f8565b610fc5565b6102e061117d565b6102856104b53660046139f8565b6111c3565b6102e06104c83660046139a7565b61129b565b6102856112af565b6104dd611380565b604051600160a060020a0390911681526020016102a4565b6102856105033660046139d7565b61138f565b6102976115cf565b609e5461031f565b6102856105263660046138aa565b6115de565b6102856105393660046139a7565b61165f565b61055161054c3660046138aa565b6117e0565b6040516102a493929190613ba9565b61031f60995481565b6102c06105773660046138aa565b61182b565b6102c061058a3660046138aa565b6118cc565b609b546102e090604060020a900463ffffffff1681565b609b546102e090640100000000900463ffffffff1681565b6102856105cc3660046138aa565b6118d9565b61031f6105df366004613823565b6119b8565b60a35460a4546105fb91600160a060020a03169082565b60408051600160a060020a0390931683526020830191909152016102a4565b610285610628366004613823565b611a8b565b609c54600160a060020a03166104dd565b61065161064c3660046138aa565b611b08565b6040516102a49190613b9b565b61031f61066c36600461383d565b600160a060020a03918216600090815260346020908152604080832093909416825291909152205490565b61031f609a5481565b61031f6106ae3660046138aa565b611b5e565b61031f611b8f565b6102856106c93660046138f2565b611b9b565b6102856106dc366004613823565b611c30565b61031f6106ef366004613a27565b611d2b565b336106fd611380565b600160a060020a03161461072f5760405160e560020a62461bcd02815260040161072690613d5a565b60405180910390fd5b60985460ff16156107965760405160e560020a62461bcd02815260206004820152602560248201527f5468652070726f6475637420746f6b656e20697320616c7265616479206c6175604482015260da60020a641b98da1959026064820152608401610726565b6098805460ff191660019081179091556040519081527f65c5ccecef030677b73a1403e7e69ef84d05db9d1732959d543d32f4419909b8906020015b60405180910390a1565b6060603680546107eb90613ee3565b80601f016020809104026020016040519081016040528092919081815260200182805461081790613ee3565b80156108645780601f1061083957610100808354040283529160200191610864565b820191906000526020600020905b81548152906001019060200180831161084757829003601f168201915b5050505050905090565b600061087b338484611d48565b5060015b92915050565b61088d611380565b600160a060020a031633600160a060020a031614806108b65750609c54600160a060020a031633145b6108d55760405160e560020a62461bcd02815260040161072690613d23565b600160a060020a0382166108fe5760405160e560020a62461bcd02815260040161072690613c21565b6109088282611e79565b5050565b33610915611380565b600160a060020a03161461093e5760405160e560020a62461bcd02815260040161072690613d5a565b600160a060020a0381166109975760405160e560020a62461bcd02815260206004820152601260248201527f4164647265737320697320696e76616c696400000000000000000000000000006044820152606401610726565b609f8054600160a060020a031916600160a060020a0392909216919091179055565b6000808263ffffffff1611610a135760405160e560020a62461bcd02815260206004820152600e60248201527f696e76616c696420616d6f756e740000000000000000000000000000000000006044820152606401610726565b609b54600090610a4a9063ffffffff606060020a8204811691610a449187811691604060020a9004811690611ff216565b90611ff2565b609d54609a54609b5460405160e060020a631c949873028152939450600160a060020a0390921692631c94987392610a91928692909163ffffffff16908990600401613dfd565b60206040518083038186803b158015610aa957600080fd5b505afa158015610abd573d6000803e3d6000fd5b505050506040513d601f19601f82011682018060405250810190610ae191906139bf565b9150505b919050565b6000806000610af884612005565b9092509050610b0782826120c8565b949350505050565b6000610b1c8484846120d4565b600160a060020a038416600090815260346020908152604080832033845290915290205482811015610bb95760405160e560020a62461bcd02815260206004820152602860248201527f45524332303a207472616e7366657220616d6f756e742065786365656473206160448201527f6c6c6f77616e63650000000000000000000000000000000000000000000000006064820152608401610726565b610bcd8533610bc88685613ea7565b611d48565b506001949350505050565b336000818152603460209081526040808320600160a060020a0387168452909152812054909161087b918590610bc8908690613e25565b33610c18611380565b600160a060020a031614610c415760405160e560020a62461bcd02815260040161072690613d5a565b600160a060020a038116610c9a5760405160e560020a62461bcd02815260206004820152600f60248201527f496e76616c6964206164647265737300000000000000000000000000000000006044820152606401610726565b609d8054600160a060020a031916600160a060020a0392909216919091179055565b60006003826003811115610ce35760e060020a634e487b7102600052602160045260246000fd5b148061087f57506002826003811115610d0f5760e060020a634e487b7102600052602160045260246000fd5b1492915050565b609f54600160a060020a0316610d715760405160e560020a62461bcd02815260206004820152601160248201527f77616c6c657420697320696e76616c69640000000000000000000000000000006044820152606401610726565b609f54600160a060020a03163314610dce5760405160e560020a62461bcd02815260206004820152601a60248201527f5468652061646472657373206973206e6f7420616c6c6f7765640000000000006044820152606401610726565b609e5481116109085760a35460a45460405160e160020a632576a9e1028152600160a060020a0390921691634aed53c291610e13913091339188908890600401613aab565b600060405180830381600087803b158015610e2d57600080fd5b505af1158015610e41573d6000803e3d6000fd5b5050609e54610e5392509050826120c8565b609e555050565b600160a060020a0381166000908152606560209081526040808320805482518185028101850190935280835260609492939192909184015b82821015610f35576000848152602090206040805160608101909152600284029091018054829060ff166003811115610ede5760e060020a634e487b7102600052602160045260246000fd5b6003811115610f005760e060020a634e487b7102600052602160045260246000fd5b81528154610100900463ffffffff16602080830191909152600192830154604090920191909152918352929092019101610e92565b505050509050919050565b600160a060020a031660009081526033602052604090205490565b33610f64611380565b600160a060020a031614610f8d5760405160e560020a62461bcd02815260040161072690613d5a565b606654604051600091600160a060020a031690600080516020613fa4833981519152908390a360668054600160a060020a0319169055565b60985460ff16610fea5760405160e560020a62461bcd02815260040161072690613d8f565b60008163ffffffff16116110135760405160e560020a62461bcd02815260040161072690613dc6565b8063ffffffff1661102333610f40565b10156110745760405160e560020a62461bcd02815260206004820152601c60248201527f496e73756666696369656e7420746f6b656e7320746f206275726e2e000000006044820152606401610726565b60008061108083612005565b91509150600061108f846109b9565b90506110bc6110b782610a446501d1a94a20006110b18764e8d4a510006122c0565b906122cc565b6122d8565b6110cf846110ca85856120c8565b6122f2565b506110e0338563ffffffff16612446565b609b546110fb908590604060020a900463ffffffff16613e3d565b609b80546bffffffff00000000000000001916604060020a63ffffffff93841602179055609a5461112e918390611ff216565b609a5561113b848661258f565b60405163ffffffff8516815233907fe600c25f82e9bac8f9f1663725540d6cd442845726820fd5bee41b66c4bf59be9060200160405180910390a25050505050565b609b54600090604060020a900463ffffffff1661119960355490565b609b546111b49190640100000000900463ffffffff16613ebe565b6111be9190613ebe565b905090565b60985460ff166111e85760405160e560020a62461bcd02815260040161072690613d8f565b6000806111f483612827565b91509150611202838561258f565b60a35460a45460405160e160020a632576a9e1028152600160a060020a0390921691634aed53c29161123e91309133918a908990600401613aab565b600060405180830381600087803b15801561125857600080fd5b505af115801561126c573d6000803e3d6000fd5b505050506112956110b76501d1a94a20006110b164e8d4a51000856122c090919063ffffffff16565b50505050565b6000806112a78361293a565b509392505050565b336112b8611380565b600160a060020a0316146112e15760405160e560020a62461bcd02815260040161072690613d5a565b60985460ff166113455760405160e560020a62461bcd02815260206004820152602360248201527f5468652070726f6475637420746f6b656e20697320616c726561647920706175604482015260ea60020a621cd959026064820152608401610726565b6098805460ff19169055604051600081527f65c5ccecef030677b73a1403e7e69ef84d05db9d1732959d543d32f4419909b8906020016107d2565b606654600160a060020a031690565b60985460ff166113b45760405160e560020a62461bcd02815260040161072690613d8f565b600081116114075760405160e560020a62461bcd02815260206004820152601160248201527f696e76616c6964206d61782070726963650000000000000000000000000000006044820152606401610726565b60a35460a45460405160e160020a632576a9e1028152600160a060020a03909216918291634aed53c291611445913391309189918990600401613aab565b600060405180830381600087803b15801561145f57600080fd5b505af1158015611473573d6000803e3d6000fd5b5050505060008060008061148686612a41565b93509350935063ffffffff169350600084111561155a57821561150f5760a45460405160e160020a632576a9e1028152600160a060020a03871691634aed53c2916114dc9130913391908d908a90600401613aab565b600060405180830381600087803b1580156114f657600080fd5b505af115801561150a573d6000803e3d6000fd5b505050505b61152b6110b7650746a52880006110b18464e8d4a510006122c0565b6000611547650746a52880006110b184650574fbde60006122c0565b905061155481848a612baa565b506115c6565b60a45460405160e160020a632576a9e1028152600160a060020a03871691634aed53c2916115939130913391908d908d90600401613aab565b600060405180830381600087803b1580156115ad57600080fd5b505af11580156115c1573d6000803e3d6000fd5b505050505b50505050505050565b6060603780546107eb90613ee3565b336115e7611380565b600160a060020a0316146116105760405160e560020a62461bcd02815260040161072690613d5a565b600160a060020a0382166116395760405160e560020a62461bcd02815260040161072690613c8f565b60a38054600160a060020a031916600160a060020a03939093169290921790915560a455565b33611668611380565b600160a060020a0316146116915760405160e560020a62461bcd02815260040161072690613d5a565b806116e15760405160e560020a62461bcd02815260206004820152600a60248201527f696e76616c6964206964000000000000000000000000000000000000000000006044820152606401610726565b60a35460a45460405160e060020a63becef6070281526004810191909152600091600160a060020a03169063becef6079060240160206040518083038186803b15801561172d57600080fd5b505afa158015611741573d6000803e3d6000fd5b505050506040513d601f19601f8201168201806040525081019061176591906139bf565b60a354909150600160a060020a0316634aed53c230611782611380565b60a45460405160e060020a63ffffffff86160281526117aa9392919088908890600401613aab565b600060405180830381600087803b1580156117c457600080fd5b505af11580156117d8573d6000803e3d6000fd5b505050505050565b606560205281600052604060002081815481106117fc57600080fd5b60009182526020909120600290910201805460019091015460ff8216935061010090910463ffffffff16915083565b336000908152603460209081526040808320600160a060020a0386168452909152812054828110156118b35760405160e560020a62461bcd02815260206004820152602560248201527f45524332303a2064656372656173656420616c6c6f77616e63652062656c6f77604482015260d860020a64207a65726f026064820152608401610726565b6118c23385610bc88685613ea7565b5060019392505050565b600061087b3384846120d4565b6118e1611380565b600160a060020a031633600160a060020a0316148061190a5750609c54600160a060020a031633145b6119295760405160e560020a62461bcd02815260040161072690613d23565b600160a060020a0382166119525760405160e560020a62461bcd02815260040161072690613c21565b600061195e8383612f4e565b9050600081116119b35760405160e560020a62461bcd02815260206004820152600d60248201527f496e76616c69642076616c7565000000000000000000000000000000000000006044820152606401610726565b505050565b600160a060020a038116600090815260a5602052604081206002015415611a8357600160a060020a038216600090815260a560209081526040808320815160608082018452825482526001830154828601908152600290930154828501528351908101845260a054815260a15494810185905260a254938101939093529051815191949293611a5b92611a559164e8d4a51000916110b1916122c0565b906120c8565b9050600081118015611a705750808260400151115b15611a7f579250610ae5915050565b5050505b506000919050565b33611a94611380565b600160a060020a031614611abd5760405160e560020a62461bcd02815260040161072690613d5a565b600160a060020a038116611ae65760405160e560020a62461bcd02815260040161072690613c8f565b609c8054600160a060020a031916600160a060020a0392909216919091179055565b600160a060020a0382166000908152606560205260408120805483908110611b435760e060020a634e487b7102600052603260045260246000fd5b600091825260209091206002909102015460ff169392505050565b60a66020528160005260406000208181548110611b7a57600080fd5b90600052602060002001600091509150505481565b60006111be6001611d2b565b600054610100900460ff1680611bb4575060005460ff16155b611bd35760405160e560020a62461bcd02815260040161072690613cc6565b600054610100900460ff16158015611bf5576000805461ffff19166101011790555b611bfd6130ff565b611c07888861317d565b611c1486868686866131ff565b8015611c26576000805461ff00191690555b5050505050505050565b33611c39611380565b600160a060020a031614611c625760405160e560020a62461bcd02815260040161072690613d5a565b600160a060020a038116611ce15760405160e560020a62461bcd02815260206004820152602660248201527f4f776e61626c653a206e6577206f776e657220697320746865207a65726f206160448201527f64647265737300000000000000000000000000000000000000000000000000006064820152608401610726565b606654604051600160a060020a03808416921690600080516020613fa483398151915290600090a360668054600160a060020a031916600160a060020a0392909216919091179055565b6000806000611d3984613392565b9092509050610b078282611ff2565b600160a060020a038316611db05760405160e560020a62461bcd028152602060048201526024808201527f45524332303a20617070726f76652066726f6d20746865207a65726f20616464604482015260e060020a6372657373026064820152608401610726565b600160a060020a038216611e175760405160e560020a62461bcd02815260206004820152602260248201527f45524332303a20617070726f766520746f20746865207a65726f206164647265604482015260f060020a617373026064820152608401610726565b600160a060020a0383811660008181526034602090815260408083209487168084529482529182902085905590518481527f8c5be1e5ebec7d5bd14f71427d1e84f3dd0314c0f7b2291e5b200ac8c7c3b92591015b60405180910390a3505050565b600160a060020a03821660009081526065602052604090208054611ed2919083908110611eb95760e060020a634e487b7102600052603260045260246000fd5b600091825260209091206002909102015460ff16610cbc565b15611ef25760405160e560020a62461bcd02815260040161072690613c58565b600160a060020a038216600090815260656020526040902080546003919083908110611f315760e060020a634e487b7102600052603260045260246000fd5b60009182526020909120600290910201805460ff19166001836003811115611f6c5760e060020a634e487b7102600052602160045260246000fd5b0217905550600080516020613f8483398151915282826065600086600160a060020a0316600160a060020a031681526020019081526020016000208481548110611fc95760e060020a634e487b7102600052603260045260246000fd5b9060005260206000209060020201604051611fe693929190613b00565b60405180910390a15050565b6000611ffe8284613e25565b9392505050565b609d5460009081908190600160a060020a0316631c94987361202561344b565b609954609b5460405163ffffffff85811660e060020a02825261205094939216908a90600401613dfd565b60206040518083038186803b15801561206857600080fd5b505afa15801561207c573d6000803e3d6000fd5b505050506040513d601f19601f820116820180604052508101906120a091906139bf565b905060006120bc64e8d4a510006110b184640df84758006122c0565b91935090915050915091565b6000611ffe8284613ea7565b600160a060020a03831661213e5760405160e560020a62461bcd02815260206004820152602560248201527f45524332303a207472616e736665722066726f6d20746865207a65726f206164604482015260d860020a646472657373026064820152608401610726565b600160a060020a0382166121a65760405160e560020a62461bcd02815260206004820152602360248201527f45524332303a207472616e7366657220746f20746865207a65726f2061646472604482015260e860020a62657373026064820152608401610726565b600160a060020a038316600090815260336020526040902054818110156122385760405160e560020a62461bcd02815260206004820152602660248201527f45524332303a207472616e7366657220616d6f756e742065786365656473206260448201527f616c616e636500000000000000000000000000000000000000000000000000006064820152608401610726565b6122428282613ea7565b600160a060020a038086166000908152603360205260408082209390935590851681529081208054849290612278908490613e25565b9250508190555082600160a060020a031684600160a060020a0316600080516020613fc4833981519152846040516122b291815260200190565b60405180910390a350505050565b6000611ffe8284613e88565b6000611ffe8284613e65565b80156122ef57609e546122eb9082611ff2565b609e555b50565b6000808363ffffffff161161234c5760405160e560020a62461bcd02815260206004820152600e60248201527f496e76616c696420416d6f756e740000000000000000000000000000000000006044820152606401610726565b60408051606081018252600180825263ffffffff861660208084019190915282840186905233600090815260658252938420805480840182559085529320825160029094020180549293849391929091839160ff19909116908360038111156123c85760e060020a634e487b7102600052602160045260246000fd5b0217905550602082810151825463ffffffff9091166101000264ffffffff00199091161782556040928301516001928301553360009081526065909152918220546124139190613ea7565b9050600080516020613f8483398151915233828460405161243693929190613adc565b60405180910390a1949350505050565b600160a060020a0382166124ac5760405160e560020a62461bcd02815260206004820152602160248201527f45524332303a206275726e2066726f6d20746865207a65726f20616464726573604482015260f860020a6073026064820152608401610726565b600160a060020a038216600090815260336020526040902054818110156125265760405160e560020a62461bcd02815260206004820152602260248201527f45524332303a206275726e20616d6f756e7420657863656564732062616c616e604482015260f060020a616365026064820152608401610726565b6125308282613ea7565b600160a060020a0384166000908152603360205260408120919091556035805484929061255e908490613ea7565b9091555050604051828152600090600160a060020a03851690600080516020613fc483398151915290602001611e6c565b33600090815260a56020908152604091829020825160608082018552825482526001830154828501526002909201548185019081528451928301855260a054835260a1549383019390935260a25493820193909352905163ffffffff8516908111156125fc575060408201515b33600090815260a6602090815260408083208054825181850281018501909352808352849383018282801561265057602002820191906000526020600020905b81548152602001906001019080831161263c575b5050505050905060006126708487604001516120c890919063ffffffff16565b9050805b848110156126cd576126b98382815181106126a25760e060020a634e487b7102600052603260045260246000fd5b602002602001015185611ff290919063ffffffff16565b9350806126c581613f22565b915050612674565b508086604001818152505060006127068760200151611a5564e8d4a510006110b18a602001518c600001516122c090919063ffffffff16565b865190915061271590856120c8565b865280158015906127295750808660400151115b156127b15760a35460a45460405160e160020a632576a9e1028152600160a060020a0390921691634aed53c29161276a91309133918e908890600401613aab565b600060405180830381600087803b15801561278457600080fd5b505af1158015612798573d6000803e3d6000fd5b50505060408701516127ab9150826120c8565b60408701525b86516127bd90856120c8565b80885260208701516127da9164e8d4a51000916110b191906122c0565b6020888101918252875160a0558781015160a15560409788015160a25533600090815260a59091528790208851815590516001820155959096015160029095019490945550505050505050565b60008060008363ffffffff16116128535760405160e560020a62461bcd02815260040161072690613dc6565b8263ffffffff1661286333610f40565b10156128b45760405160e560020a62461bcd02815260206004820152601c60248201527f496e73756666696369656e7420746f6b656e7320746f2073656c6c2e000000006044820152606401610726565b6000806128c085612005565b60995491935091506128d290836120c8565b6099556128e53363ffffffff8716612446565b6040805163ffffffff871681526020810184905233917f84c8d08e5480cf09cbf77bc575dc4e63845522693c34094f04129a4dedb7abd7910160405180910390a261293082826120c8565b9350915050915091565b6000808061295664fb750430006110b18664e8d4a510006122c0565b90506000612974655af3107a40006110b184650746a52880006122c0565b609d54909150600090600160a060020a0316639f4ae6b061299361344b565b609954609b5463ffffffff908116906129b090899089906120c816565b60405163ffffffff86811660e060020a0282529485166004820152602481019390935292166044820152606481019190915260840160206040518083038186803b1580156129fd57600080fd5b505afa158015612a11573d6000803e3d6000fd5b505050506040513d601f19601f82011682018060405250810190612a359190613a43565b94509092505050915091565b6000806000806000612a5161117d565b63ffffffff1611612aa75760405160e560020a62461bcd02815260206004820152601e60248201527f536f7272792c207468697320746f6b656e20697320736f6c64206f75742e00006044820152606401610726565b60008511612afa5760405160e560020a62461bcd02815260206004820152601960248201527f4465706f736974206d757374206265206e6f6e2d7a65726f2e000000000000006044820152606401610726565b600080612b076001613392565b9150915086821115612b285760008760008095509550955095505050612ba3565b612b33336001613478565b612b49612b4083836120c8565b60995490611ff2565b60995560408051600181526020810184905233917f5b55159a377d86da80a65140d62d994ddbb2cbd4bb2d1b59cb0827fecbe47cab910160405180910390a26001612b9882611a558a866120c8565b909650945090925090505b9193509193565b33600090815260a5602090815260409182902082516060808201855282548252600183015482850152600290920154818501528351918201845260a05480835260a1549383019390935260a25493820193909352901580612c0d57506040810151155b15612c1e575050600060a1556119b3565b8051612c4290612c37906110b18864e8d4a510006122c0565b602083015190611ff2565b60208201526040810151612c569086611ff2565b604082015260006001612c6833610f40565b612c729190613ea7565b90508015612d62578260400151811015612d5a5733600090815260a66020908152604080832080548251818502810185019093528083529192909190830182828015612cdd57602002820191906000526020600020905b815481526020019060010190808311612cc9575b505050505090506000808390505b8560400151811015612d4857612d34838281518110612d1d5760e060020a634e487b7102600052603260045260246000fd5b602002602001015183611ff290919063ffffffff16565b915080612d4081613f22565b915050612ceb565b508451612d5590826120c8565b855250505b604083018190525b6000612d8864e8d4a510006110b1856020015187600001516122c090919063ffffffff16565b90508360200151811115612e47576020840151612da69082906120c8565b9050600081118015612dbb5750808360400151115b15612e475760a35460a45460405160e160020a632576a9e1028152600160a060020a03909216918291634aed53c291612dff9130913391908c908990600401613aab565b600060405180830381600087803b158015612e1957600080fd5b505af1158015612e2d573d6000803e3d6000fd5b5050506040850151612e409150836120c8565b6040850152505b8251612e539087611ff2565b83528351612e619087611ff2565b8085526020840151612e7e9164e8d4a51000916110b191906122c0565b60208501526040840151612e93906001613e25565b604080860191825233600090815260a660205220905181541015612ecb57805460018101825560008281526020902001879055612f0c565b868160018760400151612ede9190613ea7565b81548110612eff5760e060020a634e487b7102600052603260045260246000fd5b6000918252602090912001555b5050815160a0555060208082015160a15560409182015160a25533600090815260a5825282902083518155908301516001820155910151600290910155505050565b600160a060020a03821660009081526065602052604081208054612f8e919084908110611eb95760e060020a634e487b7102600052603260045260246000fd5b15612fae5760405160e560020a62461bcd02815260040161072690613c58565b600160a060020a038316600090815260656020526040902080546002919084908110612fed5760e060020a634e487b7102600052603260045260246000fd5b60009182526020909120600290910201805460ff191660018360038111156130285760e060020a634e487b7102600052602160045260246000fd5b0217905550600080516020613f8483398151915283836065600087600160a060020a0316600160a060020a0316815260200190815260200160002085815481106130855760e060020a634e487b7102600052603260045260246000fd5b90600052602060002090600202016040516130a293929190613b00565b60405180910390a1600160a060020a03831660009081526065602052604090208054839081106130e55760e060020a634e487b7102600052603260045260246000fd5b906000526020600020906002020160010154905092915050565b600054610100900460ff1680613118575060005460ff16155b6131375760405160e560020a62461bcd02815260040161072690613cc6565b600054610100900460ff16158015613159576000805461ffff19166101011790555b613161613548565b6131696135b5565b80156122ef576000805461ff001916905550565b600054610100900460ff1680613196575060005460ff16155b6131b55760405160e560020a62461bcd02815260040161072690613cc6565b600054610100900460ff161580156131d7576000805461ffff19166101011790555b6131df613548565b6131e98383613654565b80156119b3576000805461ff0019169055505050565b600054610100900460ff1680613218575060005460ff16155b6132375760405160e560020a62461bcd02815260040161072690613cc6565b600054610100900460ff16158015613259576000805461ffff19166101011790555b60008463ffffffff16116132b25760405160e560020a62461bcd02815260206004820152601860248201527f496e76616c6964206d617820746f6b656e20636f756e742e00000000000000006044820152606401610726565b60008563ffffffff161161330b5760405160e560020a62461bcd02815260206004820152601560248201527f496e76616c6964207265736572766520726174696f00000000000000000000006044820152606401610726565b609d8054600160a060020a038816600160a060020a03199091161790556099829055609a829055609b805463ffffffff8681166401000000000267ffffffffffffffff19828816606060020a02166fffffffff00000000ffffffffffffffff19909316929092179088161717905580156117d8576000805461ff0019169055505050505050565b609d5460009081908190600160a060020a031663bff82d846133b261344b565b609954609b5460405163ffffffff85811660e060020a0282526133dd94939216908a90600401613dfd565b60206040518083038186803b1580156133f557600080fd5b505afa158015613409573d6000803e3d6000fd5b505050506040513d601f19601f8201168201806040525081019061342d91906139bf565b905060006120bc655af3107a40006110b184650746a52880006122c0565b609b546000906111be9063ffffffff606060020a8204811691610a4491604060020a909104168160355490565b600160a060020a0382166134d15760405160e560020a62461bcd02815260206004820152601f60248201527f45524332303a206d696e7420746f20746865207a65726f2061646472657373006044820152606401610726565b80603560008282546134e39190613e25565b9091555050600160a060020a03821660009081526033602052604081208054839290613510908490613e25565b9091555050604051818152600160a060020a03831690600090600080516020613fc48339815191529060200160405180910390a35050565b600054610100900460ff1680613561575060005460ff16155b6135805760405160e560020a62461bcd02815260040161072690613cc6565b600054610100900460ff16158015613169576000805461ffff191661010117905580156122ef576000805461ff001916905550565b600054610100900460ff16806135ce575060005460ff16155b6135ed5760405160e560020a62461bcd02815260040161072690613cc6565b600054610100900460ff1615801561360f576000805461ffff19166101011790555b60668054600160a060020a031916339081179091556040518190600090600080516020613fa4833981519152908290a35080156122ef576000805461ff001916905550565b600054610100900460ff168061366d575060005460ff16155b61368c5760405160e560020a62461bcd02815260040161072690613cc6565b600054610100900460ff161580156136ae576000805461ffff19166101011790555b82516136c19060369060208601906136ec565b5081516136d59060379060208501906136ec565b5080156119b3576000805461ff0019169055505050565b8280546136f890613ee3565b90600052602060002090601f01602090048101928261371a5760008555613760565b82601f1061373357805160ff1916838001178555613760565b82800160010185558215613760579182015b82811115613760578251825591602001919060010190613745565b5061376c929150613770565b5090565b5b8082111561376c5760008155600101613771565b8035600160a060020a0381168114610ae557600080fd5b600082601f8301126137ac578081fd5b813567ffffffffffffffff808211156137c7576137c7613f57565b604051601f8301601f19908116603f011681019082821181831017156137ef576137ef613f57565b81604052838152866020858801011115613807578485fd5b8360208701602083013792830160200193909352509392505050565b600060208284031215613834578081fd5b611ffe82613785565b6000806040838503121561384f578081fd5b61385883613785565b915061386660208401613785565b90509250929050565b600080600060608486031215613883578081fd5b61388c84613785565b925061389a60208501613785565b9150604084013590509250925092565b600080604083850312156138bc578182fd5b6138c583613785565b946020939093013593505050565b6000602082840312156138e4578081fd5b813560048110611ffe578182fd5b600080600080600080600060e0888a03121561390c578283fd5b873567ffffffffffffffff80821115613923578485fd5b61392f8b838c0161379c565b985060208a0135915080821115613944578485fd5b506139518a828b0161379c565b96505061396060408901613785565b9450606088013561397081613f71565b9350608088013561398081613f71565b925060a088013561399081613f71565b8092505060c0880135905092959891949750929550565b6000602082840312156139b8578081fd5b5035919050565b6000602082840312156139d0578081fd5b5051919050565b600080604083850312156139e9578182fd5b50508035926020909101359150565b60008060408385031215613a0a578182fd5b823591506020830135613a1c81613f71565b809150509250929050565b600060208284031215613a38578081fd5b8135611ffe81613f71565b600060208284031215613a54578081fd5b8151611ffe81613f71565b60048110613a815760e060020a634e487b710260009081526021600452602490fd5b9052565b613a90828251613a5f565b60208181015163ffffffff1690830152604090810151910152565b600160a060020a03958616815293909416602084015260408301919091526060820152608081019190915260a00190565b600160a060020a03841681526020810183905260a08101610b076040830184613a85565b600160a060020a038416815260208101839052815460a0820190613b2a6040840160ff8316613a5f565b63ffffffff61010082041660608401525060018301546080830152949350505050565b6020808252825182820181905260009190848201906040850190845b81811015613b8f57613b7c838551613a85565b9284019260609290920191600101613b69565b50909695505050505050565b6020810161087f8284613a5f565b60608101613bb78286613a5f565b63ffffffff93909316602082015260400152919050565b6000602080835283518082850152825b81811015613bfa57858101830151858201604001528201613bde565b81811115613c0b5783604083870101525b50601f01601f1916929092016040019392505050565b6020808252600d908201527f496e76616c696420627579657200000000000000000000000000000000000000604082015260600190565b60208082526011908201527f616c726561647920636f6d706c65746564000000000000000000000000000000604082015260600190565b6020808252600f908201527f696e76616c696420616464726573730000000000000000000000000000000000604082015260600190565b6020808252602e908201527f496e697469616c697a61626c653a20636f6e747261637420697320616c72656160408201527f647920696e697469616c697a6564000000000000000000000000000000000000606082015260800190565b60208082526011908201527f7065726d697373696f6e2064656e696564000000000000000000000000000000604082015260600190565b6020808252818101527f4f776e61626c653a2063616c6c6572206973206e6f7420746865206f776e6572604082015260600190565b60208082526013908201527f756e61626c6520746f207472616465206e6f7700000000000000000000000000604082015260600190565b60208082526018908201527f416d6f756e74206d757374206265206e6f6e2d7a65726f2e0000000000000000604082015260600190565b63ffffffff948516815260208101939093529083166040830152909116606082015260800190565b60008219821115613e3857613e38613f3d565b500190565b600063ffffffff808316818516808303821115613e5c57613e5c613f3d565b01949350505050565b600082613e835760e060020a634e487b710281526012600452602481fd5b500490565b6000816000190483118215151615613ea257613ea2613f3d565b500290565b600082821015613eb957613eb9613f3d565b500390565b600063ffffffff83811690831681811015613edb57613edb613f3d565b039392505050565b600281046001821680613ef757607f821691505b60208210811415613f1c5760e060020a634e487b710260009081526022600452602490fd5b50919050565b6000600019821415613f3657613f36613f3d565b5060010190565b60e060020a634e487b710260009081526011600452602490fd5b60e060020a634e487b710260009081526041600452602490fd5b63ffffffff811681146122ef57600080fdfe09c64bee251b684a6bb80ce179dd520c001481b7c3d7781f1502e3052af474cf8be0079c531659141344cd1fd0a4f28419497f9722a3daafe3b4186f6b6457e0ddf252ad1be2c89b69c2b068fc378daa952ba7f163c4a11628f55a4df523b3efa26469706673582212208e7a11100dacb362c6da85cbb7c354992ee20a7b12421e3bc346af56acf8932464736f6c63430008030033",
  "immutableReferences": {},
  "source": "// SPDX-License-Identifier: MIT\n\npragma solidity ^0.8.3;\n\nimport \"@openzeppelin/contracts/token/ERC20/IERC20.sol\";\nimport \"@openzeppelin/contracts-upgradeable/utils/math/SafeMathUpgradeable.sol\";\nimport \"./ProductToken.sol\";\nimport \"./interface/IVNFT.sol\";\n\n/// @title ProductTokenV01\n/// @notice This is version 01 of the product token implementation.\n/// @dev This contract builds on top of version 0 by including transaction logics, such as buy and sell transfers\n///    and exchange rate computation by including a price oracle.\ncontract ProductTokenV01 is ProductToken {\n\tusing SafeMathUpgradeable for uint256;\n\n    struct supplierInfo {\n        uint256 amount;\n        address wallet;\n    }\n    struct UserInfo {\n        uint256 totalValue;\n        uint256 rewardDebt;\n        uint256 amount;\n    }\n    struct PoolInfo {\n        uint256 value; // record the entire pool value\n        uint256 accRewardPerShare; // Accumulated reward per share\n        uint256 tokenReward; //total reward\n    }\n    struct voucherInfo {\n        address addr;\n        uint256 tokenId;\n    }\n\n    supplierInfo public supplier;\n    PoolInfo public poolInfo;\n    voucherInfo public voucher;\n    mapping (address => UserInfo) public userInfo;\n    mapping (address => uint256 []) public userRecords;\n\n    function _updateSellStaking(uint32 sellAmount_, uint256 tokenId_) internal virtual {\n        UserInfo memory user = userInfo[msg.sender];\n        PoolInfo memory pool = poolInfo;\n\n        if(user.totalValue < 0 || user.amount < 0) {\n            return;\n        }\n\n        uint256 amount = sellAmount_;\n        if(sellAmount_ > user.amount ) {\n            amount = user.amount;\n        }\n\n        uint256 liquidationValue = 0;\n        uint256 [] memory records = userRecords[msg.sender];\n        uint256 remainingAmount = user.amount.sub(amount);\n        for(uint i = remainingAmount ; i < amount; i++) {\n            liquidationValue = liquidationValue.add(records[i]);\n        }\n        user.amount = remainingAmount;\n\n        uint256 reward = user.totalValue.mul(pool.accRewardPerShare).div(1e12).sub(user.rewardDebt);\n        pool.value = pool.value.sub(liquidationValue);\n        if(reward > 0 && pool.tokenReward > reward) {\n            IVNFT(voucher.addr).transferFrom(address(this), msg.sender, voucher.tokenId, tokenId_, reward);\n            pool.tokenReward = pool.tokenReward.sub(reward);\n        }\n        user.totalValue = user.totalValue.sub(liquidationValue);\n        user.rewardDebt = user.totalValue.mul(pool.accRewardPerShare).div(1e12);\n        poolInfo = pool;\n        userInfo[msg.sender] = user;\n    }\n\n    function _updateBuyStaking(uint256 reward_, uint256 price_, uint256 tokenId_) internal virtual {\n        UserInfo memory user = userInfo[msg.sender];\n        PoolInfo memory pool = poolInfo;\n\n        if (pool.value == 0 || pool.tokenReward == 0) { //available = default -> skip\n            poolInfo.accRewardPerShare = 0;\n            return;\n        }\n\n        pool.accRewardPerShare = pool.accRewardPerShare.add(reward_.mul(1e12).div(pool.value));\n        pool.tokenReward = pool.tokenReward.add(reward_);\n\n        uint256 userBalance = balanceOf(msg.sender) - 1;\n        if(userBalance > 0) {\n            if(userBalance < user.amount){\n                uint256 [] memory record = userRecords[msg.sender];\n                uint256 value = 0;\n                for(uint i = userBalance; i < user.amount; i ++ ) {\n                    value = value.add(record[i]);\n                }\n                user.totalValue = user.totalValue.sub(value);\n            }\n            user.amount = userBalance;\n        }\n\n        uint256 userReward = user.totalValue.mul(pool.accRewardPerShare).div(1e12);\n        if(userReward > user.rewardDebt ) {\n            userReward = userReward.sub(user.rewardDebt);\n            if(userReward > 0 && pool.tokenReward > userReward) {\n                IVNFT instance = IVNFT(voucher.addr);\n                instance.transferFrom(address(this), msg.sender, voucher.tokenId, tokenId_, userReward);\n                pool.tokenReward = pool.tokenReward.sub(userReward);\n            }\n        }\n\n        pool.value = pool.value.add(price_);\n        user.totalValue = user.totalValue.add(price_);\n        user.rewardDebt = user.totalValue.mul(pool.accRewardPerShare).div(1e12);\n\n        user.amount = user.amount + 1;\n\n        uint256 [] storage records = userRecords[msg.sender];\n        if(records.length < user.amount) {\n            records.push(price_);\n        } else {\n            records[user.amount -1] = price_;\n        }\n        poolInfo = pool;\n        userInfo[msg.sender] = user;\n    }\n\n    function setupVoucher(address addr_, uint256 tokenId_) external virtual onlyOwner{\n        require(addr_ != address(0), 'invalid address');\n        voucher.addr = addr_;\n        voucher.tokenId = tokenId_;\n    }\n\n    function claimVoucher(uint256 tokenId_) external virtual onlyOwner{\n        require(tokenId_ != 0, 'invalid id');\n\n        uint256 amount = IVNFT(voucher.addr).unitsInToken(voucher.tokenId);\n        IVNFT(voucher.addr).transferFrom(address(this), owner(), voucher.tokenId , tokenId_, amount);\n    }\n\n    function buyByVoucher(uint256 tokenId_, uint256 maxPrice_) external virtual onlyIfTradable{\n        require(tokenId_ >= 0, \"Invalid id\");\n        require(maxPrice_ > 0, \"invalid max price\");\n        IVNFT instance = IVNFT(voucher.addr);\n        instance.transferFrom(msg.sender, address(this), tokenId_, voucher.tokenId, maxPrice_);\n\n        (uint256 amount,uint256 change, uint price, uint256 fee)  = _buy(maxPrice_);\n        if (amount > 0) {\n            if(change > 0) {\n                instance.transferFrom(address(this), msg.sender, voucher.tokenId, tokenId_, change);\n            }\n            _updateSupplierFee(fee.mul(1e12).div(8e12));\n            uint256 reward = fee.mul(6e12).div(8e12);\n            _updateBuyStaking(reward, price, tokenId_);\n        } else {\n            instance.transferFrom(address(this), msg.sender, voucher.tokenId, tokenId_, maxPrice_);\n        }\n    }\n\n    function sellByVoucher(uint256 tokenId_, uint32 amount_) external virtual onlyIfTradable{\n        (uint256 price, uint256 fee )= _sellForAmount(amount_);\n\n        _updateSellStaking(amount_, tokenId_);\n\n        IVNFT(voucher.addr).transferFrom(address(this), msg.sender, voucher.tokenId, tokenId_, price);\n        _updateSupplierFee(fee.mul(1e12).div(2e12));\n    }\n\n    function tradeinVoucher(uint256 tokenId_, uint32 amount_) external virtual onlyIfTradable {\n        require(amount_ > 0, \"Amount must be non-zero.\");\n        require(balanceOf(msg.sender) >= amount_, \"Insufficient tokens to burn.\");\n\n        (uint256 reimburseAmount, uint fee) = _sellReturn(amount_);\n        uint256 tradinReturn = calculateTradinReturn(amount_);\n        _updateSupplierFee(fee.mul(1e12).div(2e12).add(tradinReturn));\n        _addEscrow(amount_,  reimburseAmount.sub(fee));\n        _burn(msg.sender, amount_);\n        tradeinCount = tradeinCount + amount_;\n        tradeinReserveBalance = tradeinReserveBalance.add(tradinReturn);\n\n        _updateSellStaking(amount_, tokenId_);\n\n        emit Tradein(msg.sender, amount_);\n    }\n\n    function setSupplier( address wallet_) external virtual onlyOwner {\n        require(wallet_!=address(0), \"Address is invalid\");\n        supplier.wallet = wallet_;\n    }\n\n    function claimSupplier(uint256 tokenId_, uint256 amount_) external virtual{\n        require(supplier.wallet!=address(0), \"wallet is invalid\");\n        require(msg.sender == supplier.wallet, \"The address is not allowed\");\n        if (amount_ <= supplier.amount){\n            IVNFT(voucher.addr).transferFrom(address(this), msg.sender, voucher.tokenId, tokenId_, amount_);\n            supplier.amount = supplier.amount.sub(amount_);\n        }\n    }\n\n    function _updateSupplierFee(uint256 fee) virtual internal {\n        if( fee > 0 ) {\n            supplier.amount = supplier.amount.add(fee);\n        }\n    }\n\n    /**\n    * @dev this function returns the amount of reserve balance that the supplier can withdraw from the dapp.\n    */\n    function getSupplierBalance() public view virtual returns (uint256) {\n        return supplier.amount;\n    }\n\n    function getUserReward(address addr_) external view virtual returns (uint256) {\n        if(userInfo[addr_].amount > 0) {\n            UserInfo memory user = userInfo[addr_];\n            PoolInfo memory pool = poolInfo;\n            uint256 userReward = user.totalValue.mul(pool.accRewardPerShare).div(1e12).sub(user.rewardDebt);\n            if(userReward > 0 && pool.tokenReward > userReward) {\n                return userReward;\n            }\n        }\n        return 0;\n    }\n}\n",
  "sourcePath": "/Users/jack/Documents/GitHub/HighStreet/client/src/contracts/ProductTokenV01.sol",
  "compiler": {
    "name": "solc",
    "version": "0.8.3+commit.8d00100c.Emscripten.clang"
  },
  "schemaVersion": "3.4.0",
  "updatedAt": "2021-09-27T08:10:58.621Z",
  "devdoc": {
    "details": "This contract builds on top of version 0 by including transaction logics, such as buy and sell transfers    and exchange rate computation by including a price oracle.",
    "kind": "dev",
    "methods": {
      "allowance(address,address)": {
        "details": "See {IERC20-allowance}."
      },
      "approve(address,uint256)": {
        "details": "See {IERC20-approve}. Requirements: - `spender` cannot be the zero address."
      },
      "balanceOf(address)": {
        "details": "See {IERC20-balanceOf}."
      },
      "calculateBuyReturn(uint256)": {
        "details": "Function that computes number of product tokens one can buy given an amount in reserve token.",
        "params": {
          "_amountReserve": "purchaing amount in reserve token (dai)(with 4% platform fee)"
        },
        "returns": {
          "mintAmount": "             number of tokens in traded token that can be purchased by given amount."
        }
      },
      "calculateSellReturn(uint32)": {
        "details": "Function that computes selling price in reserve tokens given an amount in traded token.",
        "params": {
          "_amountProduct": "selling amount in product token"
        },
        "returns": {
          "soldAmount": "             total amount that will be transferred to the seller (with 2% platform fee)."
        }
      },
      "decimals()": {
        "details": "Returns the number of decimals used to get its user representation. For example, if `decimals` equals `2`, a balance of `505` tokens should be displayed to a user as `5,05` (`505 / 10 ** 2`). Tokens usually opt for a value of 18, imitating the relationship between Ether and Wei. This is the value {ERC20} uses, unless this function is overloaded; NOTE: This information is only used for _display_ purposes: it in no way affects any of the arithmetic of the contract, including {IERC20-balanceOf} and {IERC20-transfer}."
      },
      "decreaseAllowance(address,uint256)": {
        "details": "Atomically decreases the allowance granted to `spender` by the caller. This is an alternative to {approve} that can be used as a mitigation for problems described in {IERC20-approve}. Emits an {Approval} event indicating the updated allowance. Requirements: - `spender` cannot be the zero address. - `spender` must have allowance for the caller of at least `subtractedValue`."
      },
      "getAvailability()": {
        "details": "Function to check how many tokens of this product are currently available for purchase, by taking the difference between max cap count and current token in circulation or burned.",
        "returns": {
          "available": "               the number of tokens available"
        }
      },
      "getCurrentPrice()": {
        "details": "Function that computes current price for a token through bonding curve calculation based on parameters such as total supply, reserve balance, and reserve ratio.",
        "returns": {
          "price": "                  current price in reserve token (in our case, this is dai). (with 4% platform fee)"
        }
      },
      "getEscrowHistory(address)": {
        "details": "Return the list of all escrows created for a certain user",
        "params": {
          "_buyer": "The address of the buyer"
        },
        "returns": {
          "_0": "A list of past escrows"
        }
      },
      "getPriceForN(uint32)": {
        "details": "Function that computes price total for buying n token through bonding curve calculation based on parameters such as total supply, reserve balance, and reserve ratio.",
        "params": {
          "_amountProduct": "token amount in traded token"
        },
        "returns": {
          "price": "                  total price in reserve token (in our case, this is dai). (with 4% platform fee)"
        }
      },
      "getRedeemStatus(address,uint256)": {
        "details": "Get status of a particular redemption process",
        "params": {
          "_buyer": "The address of the buyer",
          "_id": "The cached id of the escrow, retrieved from database"
        },
        "returns": {
          "_0": "The current status"
        }
      },
      "getSupplierBalance()": {
        "details": "this function returns the amount of reserve balance that the supplier can withdraw from the dapp."
      },
      "increaseAllowance(address,uint256)": {
        "details": "Atomically increases the allowance granted to `spender` by the caller. This is an alternative to {approve} that can be used as a mitigation for problems described in {IERC20-approve}. Emits an {Approval} event indicating the updated allowance. Requirements: - `spender` cannot be the zero address."
      },
      "initialize(string,string,address,uint32,uint32,uint32,uint256)": {
        "details": "initializer function.",
        "params": {
          "_baseReserve": "the base amount of reserve tokens, in accordance to _supplyOffset.",
          "_maxTokenCount": "the amount of token that will exist for this type.",
          "_name": "the name of this token",
          "_reserveRatio": "the reserve ratio in the curve function. Number in parts per million",
          "_supplyOffset": "this amount is used to determine initial price.",
          "_symbol": "the symbol of this token"
        }
      },
      "isStateCompleted(uint8)": {
        "details": "Helper function to check whether a escrow state is completed",
        "params": {
          "_state": "The state to be checked"
        }
      },
      "launch()": {
        "details": "requires function to be called from owner. this enables customers to buy, sell, or redeem the product."
      },
      "name()": {
        "details": "Returns the name of the token."
      },
      "owner()": {
        "details": "Returns the address of the current owner."
      },
      "pause()": {
        "details": "requires function to be called from owner. this prevents customers from buying, selling, or redeeming the product."
      },
      "renounceOwnership()": {
        "details": "Leaves the contract without owner. It will not be possible to call `onlyOwner` functions anymore. Can only be called by the current owner. NOTE: Renouncing ownership will leave the contract without an owner, thereby removing any functionality that is only available to the owner."
      },
      "setBondingCurve(address)": {
        "details": "requires function to be called from owner. sets a bonding curve implementation for this product.",
        "params": {
          "_address": "the address of the bonding curve implementation"
        }
      },
      "symbol()": {
        "details": "Returns the symbol of the token, usually a shorter version of the name."
      },
      "totalSupply()": {
        "details": "See {IERC20-totalSupply}."
      },
      "transfer(address,uint256)": {
        "details": "See {IERC20-transfer}. Requirements: - `recipient` cannot be the zero address. - the caller must have a balance of at least `amount`."
      },
      "transferFrom(address,address,uint256)": {
        "details": "See {IERC20-transferFrom}. Emits an {Approval} event indicating the updated allowance. This is not required by the EIP. See the note at the beginning of {ERC20}. Requirements: - `sender` and `recipient` cannot be the zero address. - `sender` must have a balance of at least `amount`. - the caller must have allowance for ``sender``'s tokens of at least `amount`."
      },
      "transferOwnership(address)": {
        "details": "Transfers ownership of the contract to a new account (`newOwner`). Can only be called by the current owner."
      },
      "updateUserCompleted(address,uint256)": {
        "details": "used to update the status of redemption to \"User Complete\" after an escrow process has been started.",
        "params": {
          "buyer": "the wallet address of product buyer",
          "id": "the id of the escrow, returned to the user after starting of redemption process"
        }
      },
      "updateUserRefund(address,uint256)": {
        "details": "used to update the status of redemption to \"User Refunded\" after an escrow process has been started.",
        "params": {
          "buyer": "the wallet address of product buyer",
          "id": "the id of the escrow, returned to the user after starting of redemption process"
        }
      }
    },
    "title": "ProductTokenV01",
    "version": 1
  },
  "userdoc": {
    "kind": "user",
    "methods": {},
    "notice": "This is version 01 of the product token implementation.",
    "version": 1
  }
}