{
  "contractName": "TokenFactory",
  "abi": [
    {
      "anonymous": false,
      "inputs": [
        {
          "indexed": false,
          "internalType": "address",
          "name": "previousAdmin",
          "type": "address"
        },
        {
          "indexed": false,
          "internalType": "address",
          "name": "newAdmin",
          "type": "address"
        }
      ],
      "name": "AdminChanged",
      "type": "event"
    },
    {
      "anonymous": false,
      "inputs": [
        {
          "indexed": true,
          "internalType": "address",
          "name": "beacon",
          "type": "address"
        }
      ],
      "name": "BeaconUpgraded",
      "type": "event"
    },
    {
      "anonymous": false,
      "inputs": [
        {
          "indexed": false,
          "internalType": "string",
          "name": "name",
          "type": "string"
        },
        {
          "indexed": false,
          "internalType": "bool",
          "name": "state",
          "type": "bool"
        }
      ],
      "name": "Create",
      "type": "event"
    },
    {
      "anonymous": false,
      "inputs": [
        {
          "indexed": true,
          "internalType": "address",
          "name": "previousOwner",
          "type": "address"
        },
        {
          "indexed": true,
          "internalType": "address",
          "name": "newOwner",
          "type": "address"
        }
      ],
      "name": "OwnershipTransferred",
      "type": "event"
    },
    {
      "anonymous": false,
      "inputs": [
        {
          "indexed": false,
          "internalType": "address",
          "name": "newBeacon",
          "type": "address"
        }
      ],
      "name": "UpdatedBeacon",
      "type": "event"
    },
    {
      "anonymous": false,
      "inputs": [
        {
          "indexed": true,
          "internalType": "address",
          "name": "implementation",
          "type": "address"
        }
      ],
      "name": "Upgraded",
      "type": "event"
    },
    {
      "inputs": [],
      "name": "beacon",
      "outputs": [
        {
          "internalType": "contract IBeacon",
          "name": "",
          "type": "address"
        }
      ],
      "stateMutability": "view",
      "type": "function",
      "constant": true
    },
    {
      "inputs": [],
      "name": "owner",
      "outputs": [
        {
          "internalType": "address",
          "name": "",
          "type": "address"
        }
      ],
      "stateMutability": "view",
      "type": "function",
      "constant": true
    },
    {
      "inputs": [],
      "name": "renounceOwnership",
      "outputs": [],
      "stateMutability": "nonpayable",
      "type": "function"
    },
    {
      "inputs": [
        {
          "internalType": "address",
          "name": "newOwner",
          "type": "address"
        }
      ],
      "name": "transferOwnership",
      "outputs": [],
      "stateMutability": "nonpayable",
      "type": "function"
    },
    {
      "inputs": [
        {
          "internalType": "address",
          "name": "newImplementation",
          "type": "address"
        }
      ],
      "name": "upgradeTo",
      "outputs": [],
      "stateMutability": "nonpayable",
      "type": "function"
    },
    {
      "inputs": [
        {
          "internalType": "address",
          "name": "newImplementation",
          "type": "address"
        },
        {
          "internalType": "bytes",
          "name": "data",
          "type": "bytes"
        }
      ],
      "name": "upgradeToAndCall",
      "outputs": [],
      "stateMutability": "payable",
      "type": "function",
      "payable": true
    },
    {
      "inputs": [
        {
          "internalType": "address",
          "name": "_beacon",
          "type": "address"
        }
      ],
      "name": "initialize",
      "outputs": [],
      "stateMutability": "nonpayable",
      "type": "function"
    },
    {
      "inputs": [
        {
          "internalType": "address",
          "name": "_beacon",
          "type": "address"
        }
      ],
      "name": "UpdateBeacon",
      "outputs": [],
      "stateMutability": "nonpayable",
      "type": "function"
    },
    {
      "inputs": [
        {
          "internalType": "string",
          "name": "_productName",
          "type": "string"
        },
        {
          "internalType": "bytes",
          "name": "_data",
          "type": "bytes"
        }
      ],
      "name": "createToken",
      "outputs": [],
      "stateMutability": "nonpayable",
      "type": "function"
    },
    {
      "inputs": [
        {
          "internalType": "string",
          "name": "_productName",
          "type": "string"
        }
      ],
      "name": "retrieveToken",
      "outputs": [
        {
          "internalType": "address",
          "name": "",
          "type": "address"
        }
      ],
      "stateMutability": "view",
      "type": "function",
      "constant": true
    }
  ],
  "bytecode": "0x60a06040526c01000000000000000000000000300260805234801561002357600080fd5b506080516c010000000000000000000000009004611f0b61006460003960008181610441015281816104870152818161051c01526105620152611f0b6000f3fe6080604052600436106200008f5760e060020a60003504632f7fc1cd8114620000945780633659cfe614620000bb5780634f1ef28614620000e057806359659e9014620000f757806368a2f7c81462000131578063715018a614620001565780638da5cb5b146200016e578063c4d66de81462000186578063d7c5ad0d14620001ab578063f2fde38b14620001d0575b600080fd5b348015620000a157600080fd5b50620000b9620000b3366004620010ce565b620001f5565b005b348015620000c857600080fd5b50620000b9620000da36600462001020565b62000436565b620000b9620000f13660046200103d565b62000511565b3480156200010457600080fd5b506065546200011990600160a060020a031681565b60405162000128919062001178565b60405180910390f35b3480156200013e57600080fd5b50620000b96200015036600462001020565b620005dd565b3480156200016357600080fd5b50620000b9620006bf565b3480156200017b57600080fd5b50620001196200072f565b3480156200019357600080fd5b50620000b9620001a536600462001020565b6200073e565b348015620001b857600080fd5b5062000119620001ca3660046200108f565b620007c8565b348015620001dd57600080fd5b50620000b9620001ef36600462001020565b62000892565b33620002006200072f565b600160a060020a031614620002355760405160e560020a62461bcd0281526004016200022c9062001302565b60405180910390fd5b6000600160a060020a03166066836040516200025291906200115a565b90815260405190819003602001902054600160a060020a031614620002bd5760405160e560020a62461bcd02815260206004820152601f60248201527f5468652070726f6475637420746f6b656e20616c72656164792065786973740060448201526064016200022c565b606554604051600091600160a060020a0316908390620002dd9062000f6b565b620002ea9291906200118c565b604051809103906000f08015801562000307573d6000803e3d6000fd5b509050600081600160a060020a03163360405160240162000329919062001178565b60408051601f19818403018152918152602082018051600160e060020a031660e060020a63f2fde38b02179052516200036391906200115a565b6000604051808303816000865af19150503d8060008114620003a2576040519150601f19603f3d011682016040523d82523d6000602084013e620003a7565b606091505b505090508015620003f55781606685604051620003c591906200115a565b9081526040519081900360200190208054600160a060020a0392909216600160a060020a03199092169190911790555b7fc4a2411d92a7e8fc5591ff677f18422a31b35d0737c593723933d3ff35e00f78848260405162000428929190620011c5565b60405180910390a150505050565b30600160a060020a037f0000000000000000000000000000000000000000000000000000000000000000161415620004855760405160e560020a62461bcd0281526004016200022c90620011eb565b7f0000000000000000000000000000000000000000000000000000000000000000600160a060020a0316620004b962000995565b600160a060020a031614620004e55760405160e560020a62461bcd0281526004016200022c9062001248565b620004f081620009c3565b604080516000808252602082019092526200050e91839190620009fa565b50565b30600160a060020a037f0000000000000000000000000000000000000000000000000000000000000000161415620005605760405160e560020a62461bcd0281526004016200022c90620011eb565b7f0000000000000000000000000000000000000000000000000000000000000000600160a060020a03166200059462000995565b600160a060020a031614620005c05760405160e560020a62461bcd0281526004016200022c9062001248565b620005cb82620009c3565b620005d982826001620009fa565b5050565b33620005e86200072f565b600160a060020a031614620006145760405160e560020a62461bcd0281526004016200022c9062001302565b803b620006675760405160e560020a62461bcd02815260206004820152601660248201527f496e76616c696420426561636f6e20616464726573730000000000000000000060448201526064016200022c565b60658054600160a060020a031916600160a060020a0383161790556040517f678add5849bd439fa17780efc6d18ec5a025c93a49d9c373d51a6111e8c908b190620006b490839062001178565b60405180910390a150565b33620006ca6200072f565b600160a060020a031614620006f65760405160e560020a62461bcd0281526004016200022c9062001302565b603354604051600091600160a060020a03169060008051602062001e8f833981519152908390a360338054600160a060020a0319169055565b603354600160a060020a031690565b600054610100900460ff168062000758575060005460ff16155b6200077a5760405160e560020a62461bcd0281526004016200022c90620012a5565b600054610100900460ff161580156200079d576000805461ffff19166101011790555b620007a762000b68565b620007b282620005dd565b8015620005d9576000805461ff00191690555050565b600080600160a060020a0316606683604051620007e691906200115a565b90815260405190819003602001902054600160a060020a031614156200085f5760405160e560020a62461bcd02815260206004820152602160248201527f546869732070726f6475637420746f6b656e20646f6573206e6f742065786973604482015260fa60020a601d0260648201526084016200022c565b6066826040516200087191906200115a565b90815260405190819003602001902054600160a060020a031690505b919050565b336200089d6200072f565b600160a060020a031614620008c95760405160e560020a62461bcd0281526004016200022c9062001302565b600160a060020a0381166200094a5760405160e560020a62461bcd02815260206004820152602660248201527f4f776e61626c653a206e6577206f776e657220697320746865207a65726f206160448201527f646472657373000000000000000000000000000000000000000000000000000060648201526084016200022c565b603354604051600160a060020a0380841692169060008051602062001e8f83398151915290600090a360338054600160a060020a031916600160a060020a0392909216919091179055565b7f360894a13ba1a3210667c828492db98dca3e2076cc3735a920a3ca505d382bbc54600160a060020a031690565b33620009ce6200072f565b600160a060020a0316146200050e5760405160e560020a62461bcd0281526004016200022c9062001302565b600062000a0662000995565b905062000a138462000bf0565b60008351118062000a215750815b1562000a355762000a33848462000caa565b505b7f4910fdfa16fed3260ed0e7147f7cc6da11a60208b5b9406d12a635614ffd9143805460ff1662000b6157805460ff1916600117815560405162000ab890869062000a8590859060240162001178565b60408051601f19818403018152919052602081018051600160e060020a031660e160020a631b2ce7f30217905262000caa565b50805460ff1916815562000acb62000995565b600160a060020a031682600160a060020a03161462000b565760405160e560020a62461bcd02815260206004820152602f60248201527f45524331393637557067726164653a207570677261646520627265616b73206660448201527f757274686572207570677261646573000000000000000000000000000000000060648201526084016200022c565b62000b618562000cd9565b5050505050565b600054610100900460ff168062000b82575060005460ff16155b62000ba45760405160e560020a62461bcd0281526004016200022c90620012a5565b600054610100900460ff1615801562000bc7576000805461ffff19166101011790555b62000bd162000d1b565b62000bdb62000d8e565b80156200050e576000805461ff001916905550565b803b62000c695760405160e560020a62461bcd02815260206004820152602d60248201527f455243313936373a206e657720696d706c656d656e746174696f6e206973206e60448201527f6f74206120636f6e74726163740000000000000000000000000000000000000060648201526084016200022c565b7f360894a13ba1a3210667c828492db98dca3e2076cc3735a920a3ca505d382bbc8054600160a060020a031916600160a060020a0392909216919091179055565b606062000cd2838360405180606001604052806027815260200162001eaf6027913962000e34565b9392505050565b62000ce48162000bf0565b604051600160a060020a038216907fbc7cd75a20ee27fd9adebab32041f755214dbc6bffa90cc0225b39da2e5c2d3b90600090a250565b600054610100900460ff168062000d35575060005460ff16155b62000d575760405160e560020a62461bcd0281526004016200022c90620012a5565b600054610100900460ff1615801562000bdb576000805461ffff191661010117905580156200050e576000805461ff001916905550565b600054610100900460ff168062000da8575060005460ff16155b62000dca5760405160e560020a62461bcd0281526004016200022c90620012a5565b600054610100900460ff1615801562000ded576000805461ffff19166101011790555b60338054600160a060020a03191633908117909155604051819060009060008051602062001e8f833981519152908290a35080156200050e576000805461ff001916905550565b6060833b62000eaf5760405160e560020a62461bcd02815260206004820152602660248201527f416464726573733a2064656c65676174652063616c6c20746f206e6f6e2d636f60448201527f6e7472616374000000000000000000000000000000000000000000000000000060648201526084016200022c565b60008085600160a060020a03168560405162000ecc91906200115a565b600060405180830381855af49150503d806000811462000f09576040519150601f19603f3d011682016040523d82523d6000602084013e62000f0e565b606091505b509150915062000f2082828662000f2a565b9695505050505050565b6060831562000f3b57508162000cd2565b82511562000f4c5782518084602001fd5b8160405160e560020a62461bcd0281526004016200022c9190620011b0565b610b0a806200138583390190565b8035600160a060020a03811681146200088d57600080fd5b600082601f83011262000fa2578081fd5b813567ffffffffffffffff8082111562000fc05762000fc06200136a565b604051601f8301601f19908116603f0116810190828211818310171562000feb5762000feb6200136a565b8160405283815286602085880101111562001004578485fd5b8360208701602083013792830160200193909352509392505050565b60006020828403121562001032578081fd5b62000cd28262000f79565b6000806040838503121562001050578081fd5b6200105b8362000f79565b9150602083013567ffffffffffffffff81111562001077578182fd5b620010858582860162000f91565b9150509250929050565b600060208284031215620010a1578081fd5b813567ffffffffffffffff811115620010b8578182fd5b620010c68482850162000f91565b949350505050565b60008060408385031215620010e1578182fd5b823567ffffffffffffffff80821115620010f9578384fd5b620011078683870162000f91565b935060208501359150808211156200111d578283fd5b50620010858582860162000f91565b600081518084526200114681602086016020860162001337565b601f01601f19169290920160200192915050565b600082516200116e81846020870162001337565b9190910192915050565b600160a060020a0391909116815260200190565b6000600160a060020a038416825260406020830152620010c660408301846200112c565b60006020825262000cd260208301846200112c565b600060408252620011da60408301856200112c565b905082151560208301529392505050565b6020808252602c908201527f46756e6374696f6e206d7573742062652063616c6c6564207468726f7567682060408201527f64656c656761746563616c6c0000000000000000000000000000000000000000606082015260800190565b6020808252602c908201527f46756e6374696f6e206d7573742062652063616c6c6564207468726f7567682060408201527f6163746976652070726f78790000000000000000000000000000000000000000606082015260800190565b6020808252602e908201527f496e697469616c697a61626c653a20636f6e747261637420697320616c72656160408201527f647920696e697469616c697a6564000000000000000000000000000000000000606082015260800190565b6020808252818101527f4f776e61626c653a2063616c6c6572206973206e6f7420746865206f776e6572604082015260600190565b60005b83811015620013545781810151838201526020016200133a565b8381111562001364576000848401525b50505050565b60e060020a634e487b710260009081526041600452602490fdfe6080604052604051610b0a380380610b0a833981016040819052610022916105b3565b61004d60017fa3f0ad74e5423aebfd80d3ef4346578335a9a72aeaee59ff6cb3582b35133d516106be565b600080516020610ac383398151915214610090577f4e487b7100000000000000000000000000000000000000000000000000000000600052600160045260246000fd5b6100a5828260006401000000006100ac810204565b5050610755565b6100be836401000000006101ae810204565b604051600160a060020a038416907f1cf3b03a6cf19fa2baba4df148e9dcabedea7f8a5c07840e207e5c089be95d3e90600090a26000825111806100ff5750805b156101a9576101a783600160a060020a0316635c60da1b6040518163ffffffff167c010000000000000000000000000000000000000000000000000000000002815260040160206040518083038186803b15801561015c57600080fd5b505afa158015610170573d6000803e3d6000fd5b505050506040513d601f19601f820116820180604052508101906101949190610599565b836401000000006100296103c982021704565b505b505050565b6101c4816401000000006100556103fe82021704565b610255576040517f08c379a000000000000000000000000000000000000000000000000000000000815260206004820152602560248201527f455243313936373a206e657720626561636f6e206973206e6f74206120636f6e60448201527f747261637400000000000000000000000000000000000000000000000000000060648201526084015b60405180910390fd5b6102f781600160a060020a0316635c60da1b6040518163ffffffff167c010000000000000000000000000000000000000000000000000000000002815260040160206040518083038186803b1580156102ad57600080fd5b505afa1580156102c1573d6000803e3d6000fd5b505050506040513d601f19601f820116820180604052508101906102e59190610599565b6401000000006100556103fe82021704565b610383576040517f08c379a000000000000000000000000000000000000000000000000000000000815260206004820152603060248201527f455243313936373a20626561636f6e20696d706c656d656e746174696f6e206960448201527f73206e6f74206120636f6e747261637400000000000000000000000000000000606482015260840161024c565b806103a8600080516020610ac383398151915264010000000061005b61040882021704565b8054600160a060020a031916600160a060020a039290921691909117905550565b60606103f78383604051806060016040528060278152602001610ae36027913964010000000061040b810204565b9392505050565b803b15155b919050565b90565b606061041f846401000000006103fe810204565b6104ab576040517f08c379a000000000000000000000000000000000000000000000000000000000815260206004820152602660248201527f416464726573733a2064656c65676174652063616c6c20746f206e6f6e2d636f60448201527f6e74726163740000000000000000000000000000000000000000000000000000606482015260840161024c565b60008085600160a060020a0316856040516104c6919061066f565b600060405180830381855af49150503d8060008114610501576040519150601f19603f3d011682016040523d82523d6000602084013e610506565b606091505b509150915061052582828661052f640100000000026401000000009004565b9695505050505050565b6060831561053e5750816103f7565b82511561054e5782518084602001fd5b816040517f08c379a000000000000000000000000000000000000000000000000000000000815260040161024c919061068b565b8051600160a060020a038116811461040357600080fd5b6000602082840312156105aa578081fd5b6103f782610582565b600080604083850312156105c5578081fd5b6105ce83610582565b9150602083015167ffffffffffffffff808211156105ea578283fd5b818501915085601f8301126105fd578283fd5b81518181111561060f5761060f610726565b604051601f8201601f19908116603f0116810190838211818310171561063757610637610726565b8160405282815288602084870101111561064f578586fd5b6106608360208301602088016106fa565b80955050505050509250929050565b600082516106818184602087016106fa565b9190910192915050565b60006020825282518060208401526106aa8160408501602087016106fa565b601f01601f19169190910160400192915050565b6000828210156106f5577f4e487b710000000000000000000000000000000000000000000000000000000081526011600452602481fd5b500390565b60005b838110156107155781810151838201526020016106fd565b838111156101a75750506000910152565b7f4e487b7100000000000000000000000000000000000000000000000000000000600052604160045260246000fd5b61035f806107646000396000f3fe60806040523661001357610011610017565b005b6100115b61002761002261005e565b610109565b565b606061004e83836040518060600160405280602781526020016103036027913961012d565b9392505050565b3b151590565b90565b60006100917fa3f0ad74e5423aebfd80d3ef4346578335a9a72aeaee59ff6cb3582b35133d5054600160a060020a031690565b600160a060020a0316635c60da1b6040518163ffffffff1660e060020a02815260040160206040518083038186803b1580156100cc57600080fd5b505afa1580156100e0573d6000803e3d6000fd5b505050506040513d601f19601f82011682018060405250810190610104919061025c565b905090565b3660008037600080366000845af43d6000803e808015610128573d6000f35b3d6000fd5b6060833b6101ab5760405160e560020a62461bcd02815260206004820152602660248201527f416464726573733a2064656c65676174652063616c6c20746f206e6f6e2d636f60448201527f6e7472616374000000000000000000000000000000000000000000000000000060648201526084015b60405180910390fd5b60008085600160a060020a0316856040516101c69190610283565b600060405180830381855af49150503d8060008114610201576040519150601f19603f3d011682016040523d82523d6000602084013e610206565b606091505b5091509150610216828286610220565b9695505050505050565b6060831561022f57508161004e565b82511561023f5782518084602001fd5b8160405160e560020a62461bcd0281526004016101a2919061029f565b60006020828403121561026d578081fd5b8151600160a060020a038116811461004e578182fd5b600082516102958184602087016102d2565b9190910192915050565b60006020825282518060208401526102be8160408501602087016102d2565b601f01601f19169190910160400192915050565b60005b838110156102ed5781810151838201526020016102d5565b838111156102fc576000848401525b5050505056fe416464726573733a206c6f772d6c6576656c2064656c65676174652063616c6c206661696c6564a264697066735822122032e536f9de01205f8c8b57dfaeb153367d069bee12e8d69fc04b43202423002a64736f6c63430008030033a3f0ad74e5423aebfd80d3ef4346578335a9a72aeaee59ff6cb3582b35133d50416464726573733a206c6f772d6c6576656c2064656c65676174652063616c6c206661696c65648be0079c531659141344cd1fd0a4f28419497f9722a3daafe3b4186f6b6457e0416464726573733a206c6f772d6c6576656c2064656c65676174652063616c6c206661696c6564a2646970667358221220b602bc60652d93ba155d7b55974510aa75e110cdf8de3016a29034168cf04d0664736f6c63430008030033",
  "immutableReferences": {
    "8559": [
      {
        "length": 32,
        "start": 1089
      },
      {
        "length": 32,
        "start": 1159
      },
      {
        "length": 32,
        "start": 1308
      },
      {
        "length": 32,
        "start": 1378
      }
    ]
  },
  "source": "// SPDX-License-Identifier: MIT\n\npragma solidity ^0.8.2;\n\nimport \"@openzeppelin/contracts/proxy/beacon/IBeacon.sol\";\nimport \"@openzeppelin/contracts/proxy/beacon/BeaconProxy.sol\";\nimport \"@openzeppelin/contracts/proxy/utils/UUPSUpgradeable.sol\";\nimport \"@openzeppelin/contracts/utils/Address.sol\";\nimport \"@openzeppelin/contracts-upgradeable/proxy/utils/Initializable.sol\";\nimport \"@openzeppelin/contracts-upgradeable/access/OwnableUpgradeable.sol\";\n\n/// @title TokenFactory\n/// @dev This is the factory smart contract that is responsible for token creation and address management.\ncontract TokenFactory is Initializable, UUPSUpgradeable, OwnableUpgradeable {\n\n\tIBeacon public beacon;\t\t\t\t\t\t\t\t\t\t// this is set to Public for the purpose of testing. In release this will be internal \n\tmapping(string => address) registry;\t\t\t// registry for storing products. Mapped from product name to address.\n\n\tevent Create(string name, bool state);\t\t// event to fire when a new type of token is created\n\tevent UpdatedBeacon(address newBeacon);\t\t// event to fire when a new beacon replaces old beacon\n\n\t/**\n   * @dev initializer function.\n   *\n   * @param _beacon                   \taddress for beacon pointing to the implementation logic for product tokens\n   *\n  */\n\tfunction initialize(address _beacon) external initializer{\n\t\t__Ownable_init();\n\t\tUpdateBeacon(_beacon);\n\t}\n\n\t/**\n   * @dev update function for the beacon address.\n   *\n   * @param _beacon                    address for beacon\n   *\n  */\n\tfunction UpdateBeacon(address _beacon) public onlyOwner {\n\t\trequire( Address.isContract(_beacon), \"Invalid Beacon address\");\n\t\tbeacon = IBeacon(_beacon);\n\t\temit UpdatedBeacon(_beacon);\n\t}\n\n\t/**\n   * @dev function to create a new product token.\n   * After creating a new beacon proxy, the token factory will pass in _data, the encoded function call for initialize.\n   * Then factory will call method to set our corporate account as the creator of the new token.\n   *\n   * @param _productName   \t\t\t\t\t\t product name for a new token. The product name has to be unique\n   * @param _data\t\t\t\t\t\t\t\t\t\t\t encoded data for the initialize function call with parameters.\n  */\n\tfunction createToken(string memory _productName, bytes memory _data) external onlyOwner{\n\t\trequire(registry[_productName]==address(0), \"The product token already exist\");\n\n\t\taddress newProxyToken = address(new BeaconProxy(address(beacon), _data));\n\t\t(bool success, ) = newProxyToken.call(abi.encodeWithSignature(\"transferOwnership(address)\", msg.sender));\n\n\t\tif(success){\n\t\t\tregistry[_productName] = newProxyToken;\n\t\t}\n\t\temit Create(_productName, success);\n\t}\n\n\t/**\n   * @dev function to retrieve a product token address\n   * After creating a new beacon proxy, the token factory will pass in _data, the encoded function call for initialize.\n   * Then factory will call method to set our corporate account as the creator of the new token.\n   *\n   * @param _productName   \t\t\t\t\t\t product name for the product token.\n   * @return address \t\t\t\t\t\t\t\t\t the address of the product token.\n  */\n\tfunction retrieveToken(string memory _productName) external view returns(address) {\n\t\trequire(registry[_productName]!=address(0), \"This product token does not exist\");\n\t\treturn registry[_productName];\n\t}\n\n\t/**\n   * @dev necessary function override from UUPSUpgradeable proxy contract.\n  */\n\tfunction _authorizeUpgrade(address) internal override onlyOwner {}\n\n}\n",
  "sourcePath": "/Users/jack/Documents/GitHub/HighStreet/client/src/contracts/TokenFactory.sol",
  "compiler": {
    "name": "solc",
    "version": "0.8.3+commit.8d00100c.Emscripten.clang"
  },
  "schemaVersion": "3.4.0",
  "updatedAt": "2021-09-25T11:36:19.735Z",
  "networkType": "ethereum",
  "devdoc": {
    "details": "This is the factory smart contract that is responsible for token creation and address management.",
    "kind": "dev",
    "methods": {
      "UpdateBeacon(address)": {
        "details": "update function for the beacon address.",
        "params": {
          "_beacon": "address for beacon"
        }
      },
      "createToken(string,bytes)": {
        "details": "function to create a new product token. After creating a new beacon proxy, the token factory will pass in _data, the encoded function call for initialize. Then factory will call method to set our corporate account as the creator of the new token.",
        "params": {
          "_data": "encoded data for the initialize function call with parameters.",
          "_productName": "product name for a new token. The product name has to be unique"
        }
      },
      "initialize(address)": {
        "details": "initializer function.",
        "params": {
          "_beacon": "address for beacon pointing to the implementation logic for product tokens"
        }
      },
      "owner()": {
        "details": "Returns the address of the current owner."
      },
      "renounceOwnership()": {
        "details": "Leaves the contract without owner. It will not be possible to call `onlyOwner` functions anymore. Can only be called by the current owner. NOTE: Renouncing ownership will leave the contract without an owner, thereby removing any functionality that is only available to the owner."
      },
      "retrieveToken(string)": {
        "details": "function to retrieve a product token address After creating a new beacon proxy, the token factory will pass in _data, the encoded function call for initialize. Then factory will call method to set our corporate account as the creator of the new token.",
        "params": {
          "_productName": "product name for the product token."
        },
        "returns": {
          "_0": "address \t\t\t\t\t\t\t\t\t the address of the product token."
        }
      },
      "transferOwnership(address)": {
        "details": "Transfers ownership of the contract to a new account (`newOwner`). Can only be called by the current owner."
      },
      "upgradeTo(address)": {
        "details": "Upgrade the implementation of the proxy to `newImplementation`. Calls {_authorizeUpgrade}. Emits an {Upgraded} event."
      },
      "upgradeToAndCall(address,bytes)": {
        "details": "Upgrade the implementation of the proxy to `newImplementation`, and subsequently execute the function call encoded in `data`. Calls {_authorizeUpgrade}. Emits an {Upgraded} event."
      }
    },
    "title": "TokenFactory",
    "version": 1
  },
  "userdoc": {
    "kind": "user",
    "methods": {},
    "version": 1
  }
}