{
  "contractName": "TokenFactoryProxy",
  "abi": [
    {
      "inputs": [
        {
          "internalType": "address",
          "name": "_delegate",
          "type": "address"
        },
        {
          "internalType": "bytes",
          "name": "_data",
          "type": "bytes"
        }
      ],
      "stateMutability": "nonpayable",
      "type": "constructor"
    },
    {
      "anonymous": false,
      "inputs": [
        {
          "indexed": false,
          "internalType": "address",
          "name": "previousAdmin",
          "type": "address"
        },
        {
          "indexed": false,
          "internalType": "address",
          "name": "newAdmin",
          "type": "address"
        }
      ],
      "name": "AdminChanged",
      "type": "event"
    },
    {
      "anonymous": false,
      "inputs": [
        {
          "indexed": true,
          "internalType": "address",
          "name": "beacon",
          "type": "address"
        }
      ],
      "name": "BeaconUpgraded",
      "type": "event"
    },
    {
      "anonymous": false,
      "inputs": [
        {
          "indexed": true,
          "internalType": "address",
          "name": "implementation",
          "type": "address"
        }
      ],
      "name": "Upgraded",
      "type": "event"
    },
    {
      "stateMutability": "payable",
      "type": "fallback",
      "payable": true
    },
    {
      "stateMutability": "payable",
      "type": "receive",
      "payable": true
    },
    {
      "inputs": [],
      "name": "getImplementation",
      "outputs": [
        {
          "internalType": "address",
          "name": "",
          "type": "address"
        }
      ],
      "stateMutability": "nonpayable",
      "type": "function"
    }
  ],
  "bytecode": "0x608060405234801561001057600080fd5b5060405161090b38038061090b83398101604081905261002f916103ea565b818161005c60017f360894a13ba1a3210667c828492db98dca3e2076cc3735a920a3ca505d382bbd610503565b6000805160206108c48339815191521461009f577f4e487b7100000000000000000000000000000000000000000000000000000000600052600160045260246000fd5b6100b4828260006401000000006100bd810204565b5050505061059a565b6100cf836401000000006100ff810204565b6000825111806100dc5750805b156100fa576100f883836401000000006100b761014882021704565b505b505050565b6101118164010000000061017d810204565b604051600160a060020a038216907fbc7cd75a20ee27fd9adebab32041f755214dbc6bffa90cc0225b39da2e5c2d3b90600090a250565b606061017683836040518060600160405280602781526020016108e46027913964010000000061026a810204565b9392505050565b610193816401000000006100e361038e82021704565b610224576040517f08c379a000000000000000000000000000000000000000000000000000000000815260206004820152602d60248201527f455243313936373a206e657720696d706c656d656e746174696f6e206973206e60448201527f6f74206120636f6e74726163740000000000000000000000000000000000000060648201526084015b60405180910390fd5b806102496000805160206108c48339815191526401000000006100e961039482021704565b8054600160a060020a031916600160a060020a039290921691909117905550565b606061027e8464010000000061038e810204565b61030a576040517f08c379a000000000000000000000000000000000000000000000000000000000815260206004820152602660248201527f416464726573733a2064656c65676174652063616c6c20746f206e6f6e2d636f60448201527f6e74726163740000000000000000000000000000000000000000000000000000606482015260840161021b565b60008085600160a060020a03168560405161032591906104b4565b600060405180830381855af49150503d8060008114610360576040519150601f19603f3d011682016040523d82523d6000602084013e610365565b606091505b5091509150610384828286610397640100000000026401000000009004565b9695505050505050565b3b151590565b90565b606083156103a6575081610176565b8251156103b65782518084602001fd5b816040517f08c379a000000000000000000000000000000000000000000000000000000000815260040161021b91906104d0565b600080604083850312156103fc578182fd5b8251600160a060020a0381168114610412578283fd5b602084015190925067ffffffffffffffff8082111561042f578283fd5b818501915085601f830112610442578283fd5b8151818111156104545761045461056b565b604051601f8201601f19908116603f0116810190838211818310171561047c5761047c61056b565b81604052828152886020848701011115610494578586fd5b6104a583602083016020880161053f565b80955050505050509250929050565b600082516104c681846020870161053f565b9190910192915050565b60006020825282518060208401526104ef81604085016020870161053f565b601f01601f19169190910160400192915050565b60008282101561053a577f4e487b710000000000000000000000000000000000000000000000000000000081526011600452602481fd5b500390565b60005b8381101561055a578181015183820152602001610542565b838111156100f85750506000910152565b7f4e487b7100000000000000000000000000000000000000000000000000000000600052604160045260246000fd5b61031b806105a96000396000f3fe6080604052600436106100255760e060020a6000350463aaf10f42811461003c57610034565b366100345761003261006d565b005b61003261006d565b34801561004857600080fd5b5061005161007f565b604051600160a060020a03909116815260200160405180910390f35b61007d61007861007f565b6100ec565b565b60006100b27f360894a13ba1a3210667c828492db98dca3e2076cc3735a920a3ca505d382bbc54600160a060020a031690565b905090565b60606100dc83836040518060600160405280602781526020016102bf60279139610110565b9392505050565b3b151590565b90565b3660008037600080366000845af43d6000803e80801561010b573d6000f35b3d6000fd5b6060833b61018e5760405160e560020a62461bcd02815260206004820152602660248201527f416464726573733a2064656c65676174652063616c6c20746f206e6f6e2d636f60448201527f6e7472616374000000000000000000000000000000000000000000000000000060648201526084015b60405180910390fd5b60008085600160a060020a0316856040516101a9919061023f565b600060405180830381855af49150503d80600081146101e4576040519150601f19603f3d011682016040523d82523d6000602084013e6101e9565b606091505b50915091506101f9828286610203565b9695505050505050565b606083156102125750816100dc565b8251156102225782518084602001fd5b8160405160e560020a62461bcd028152600401610185919061025b565b6000825161025181846020870161028e565b9190910192915050565b600060208252825180602084015261027a81604085016020870161028e565b601f01601f19169190910160400192915050565b60005b838110156102a9578181015183820152602001610291565b838111156102b8576000848401525b5050505056fe416464726573733a206c6f772d6c6576656c2064656c65676174652063616c6c206661696c6564a264697066735822122067c36afe104d7d3d8e4f2c8d54a8ee72341d670ae889b074d1ba8cde55cd207d64736f6c63430008030033360894a13ba1a3210667c828492db98dca3e2076cc3735a920a3ca505d382bbc416464726573733a206c6f772d6c6576656c2064656c65676174652063616c6c206661696c6564",
  "immutableReferences": {},
  "source": "// SPDX-License-Identifier: MIT\n\npragma solidity ^0.8.2;\n\nimport \"@openzeppelin/contracts/proxy/ERC1967/ERC1967Proxy.sol\";\n\n/// @title TokenFactoryProxy\ncontract TokenFactoryProxy is ERC1967Proxy {\n\n    constructor (address _delegate, bytes memory _data) ERC1967Proxy(_delegate, _data)  {\n    }\n\n    function getImplementation()  public returns (address) {\n        return _getImplementation();\n    }\n\n}\n",
  "sourcePath": "/Users/jack/Documents/GitHub/HighStreet/client/src/contracts/TokenFactoryProxy.sol",
  "compiler": {
    "name": "solc",
    "version": "0.8.3+commit.8d00100c.Emscripten.clang"
  },
  "schemaVersion": "3.4.0",
  "updatedAt": "2021-09-25T11:36:19.744Z",
  "networkType": "ethereum",
  "devdoc": {
    "kind": "dev",
    "methods": {},
    "title": "TokenFactoryProxy",
    "version": 1
  },
  "userdoc": {
    "kind": "user",
    "methods": {},
    "version": 1
  }
}