{
  "contractName": "TokenFactory",
  "abi": [
    {
      "anonymous": false,
      "inputs": [
        {
          "indexed": false,
          "internalType": "address",
          "name": "previousAdmin",
          "type": "address"
        },
        {
          "indexed": false,
          "internalType": "address",
          "name": "newAdmin",
          "type": "address"
        }
      ],
      "name": "AdminChanged",
      "type": "event"
    },
    {
      "anonymous": false,
      "inputs": [
        {
          "indexed": true,
          "internalType": "address",
          "name": "beacon",
          "type": "address"
        }
      ],
      "name": "BeaconUpgraded",
      "type": "event"
    },
    {
      "anonymous": false,
      "inputs": [
        {
          "indexed": false,
          "internalType": "string",
          "name": "name",
          "type": "string"
        },
        {
          "indexed": false,
          "internalType": "bool",
          "name": "state",
          "type": "bool"
        }
      ],
      "name": "Create",
      "type": "event"
    },
    {
      "anonymous": false,
      "inputs": [
        {
          "indexed": true,
          "internalType": "address",
          "name": "previousOwner",
          "type": "address"
        },
        {
          "indexed": true,
          "internalType": "address",
          "name": "newOwner",
          "type": "address"
        }
      ],
      "name": "OwnershipTransferred",
      "type": "event"
    },
    {
      "anonymous": false,
      "inputs": [
        {
          "indexed": false,
          "internalType": "address",
          "name": "newBeacon",
          "type": "address"
        }
      ],
      "name": "UpdatedBeacon",
      "type": "event"
    },
    {
      "anonymous": false,
      "inputs": [
        {
          "indexed": true,
          "internalType": "address",
          "name": "implementation",
          "type": "address"
        }
      ],
      "name": "Upgraded",
      "type": "event"
    },
    {
      "inputs": [],
      "name": "beacon",
      "outputs": [
        {
          "internalType": "contract IBeacon",
          "name": "",
          "type": "address"
        }
      ],
      "stateMutability": "view",
      "type": "function"
    },
    {
      "inputs": [],
      "name": "owner",
      "outputs": [
        {
          "internalType": "address",
          "name": "",
          "type": "address"
        }
      ],
      "stateMutability": "view",
      "type": "function"
    },
    {
      "inputs": [],
      "name": "renounceOwnership",
      "outputs": [],
      "stateMutability": "nonpayable",
      "type": "function"
    },
    {
      "inputs": [
        {
          "internalType": "address",
          "name": "newOwner",
          "type": "address"
        }
      ],
      "name": "transferOwnership",
      "outputs": [],
      "stateMutability": "nonpayable",
      "type": "function"
    },
    {
      "inputs": [
        {
          "internalType": "address",
          "name": "newImplementation",
          "type": "address"
        }
      ],
      "name": "upgradeTo",
      "outputs": [],
      "stateMutability": "nonpayable",
      "type": "function"
    },
    {
      "inputs": [
        {
          "internalType": "address",
          "name": "newImplementation",
          "type": "address"
        },
        {
          "internalType": "bytes",
          "name": "data",
          "type": "bytes"
        }
      ],
      "name": "upgradeToAndCall",
      "outputs": [],
      "stateMutability": "payable",
      "type": "function"
    },
    {
      "inputs": [
        {
          "internalType": "address",
          "name": "_beacon",
          "type": "address"
        }
      ],
      "name": "initialize",
      "outputs": [],
      "stateMutability": "nonpayable",
      "type": "function"
    },
    {
      "inputs": [
        {
          "internalType": "address",
          "name": "_beacon",
          "type": "address"
        }
      ],
      "name": "UpdateBeacon",
      "outputs": [],
      "stateMutability": "nonpayable",
      "type": "function"
    },
    {
      "inputs": [
        {
          "internalType": "string",
          "name": "_productName",
          "type": "string"
        },
        {
          "internalType": "bytes",
          "name": "_data",
          "type": "bytes"
        }
      ],
      "name": "createToken",
      "outputs": [],
      "stateMutability": "nonpayable",
      "type": "function"
    },
    {
      "inputs": [
        {
          "internalType": "string",
          "name": "_productName",
          "type": "string"
        }
      ],
      "name": "retrieveToken",
      "outputs": [
        {
          "internalType": "address",
          "name": "",
          "type": "address"
        }
      ],
      "stateMutability": "view",
      "type": "function"
    }
  ],
  "bytecode": "0x608060405234801561001057600080fd5b50611ce5806100206000396000f3fe6080604052600436106200008f5760e060020a60003504632f7fc1cd8114620000945780633659cfe614620000bb5780634f1ef28614620000e057806359659e9014620000f757806368a2f7c81462000131578063715018a614620001565780638da5cb5b146200016e578063c4d66de81462000186578063d7c5ad0d14620001ab578063f2fde38b14620001d0575b600080fd5b348015620000a157600080fd5b50620000b9620000b336600462000f62565b620001f5565b005b348015620000c857600080fd5b50620000b9620000da36600462000eb4565b62000436565b620000b9620000f136600462000ed1565b62000461565b3480156200010457600080fd5b506065546200011990600160a060020a031681565b6040516200012891906200100c565b60405180910390f35b3480156200013e57600080fd5b50620000b96200015036600462000eb4565b6200047e565b3480156200016357600080fd5b50620000b962000560565b3480156200017b57600080fd5b5062000119620005d0565b3480156200019357600080fd5b50620000b9620001a536600462000eb4565b620005df565b348015620001b857600080fd5b5062000119620001ca36600462000f23565b62000669565b348015620001dd57600080fd5b50620000b9620001ef36600462000eb4565b62000733565b3362000200620005d0565b600160a060020a031614620002355760405160e560020a62461bcd0281526004016200022c90620010dc565b60405180910390fd5b6000600160a060020a031660668360405162000252919062000fee565b90815260405190819003602001902054600160a060020a031614620002bd5760405160e560020a62461bcd02815260206004820152601f60248201527f5468652070726f6475637420746f6b656e20616c72656164792065786973740060448201526064016200022c565b606554604051600091600160a060020a0316908390620002dd9062000dff565b620002ea92919062001020565b604051809103906000f08015801562000307573d6000803e3d6000fd5b509050600081600160a060020a0316336040516024016200032991906200100c565b60408051601f19818403018152918152602082018051600160e060020a031660e060020a63f2fde38b021790525162000363919062000fee565b6000604051808303816000865af19150503d8060008114620003a2576040519150601f19603f3d011682016040523d82523d6000602084013e620003a7565b606091505b505090508015620003f55781606685604051620003c5919062000fee565b9081526040519081900360200190208054600160a060020a0392909216600160a060020a03199092169190911790555b7fc4a2411d92a7e8fc5591ff677f18422a31b35d0737c593723933d3ff35e00f7884826040516200042892919062001059565b60405180910390a150505050565b620004418162000836565b6200045e816040518060200160405280600081525060006200086d565b50565b6200046c8262000836565b6200047a828260016200086d565b5050565b3362000489620005d0565b600160a060020a031614620004b55760405160e560020a62461bcd0281526004016200022c90620010dc565b803b620005085760405160e560020a62461bcd02815260206004820152601660248201527f496e76616c696420426561636f6e20616464726573730000000000000000000060448201526064016200022c565b60658054600160a060020a031916600160a060020a0383161790556040517f678add5849bd439fa17780efc6d18ec5a025c93a49d9c373d51a6111e8c908b190620005559083906200100c565b60405180910390a150565b336200056b620005d0565b600160a060020a031614620005975760405160e560020a62461bcd0281526004016200022c90620010dc565b603354604051600091600160a060020a03169060008051602062001c69833981519152908390a360338054600160a060020a0319169055565b603354600160a060020a031690565b600054610100900460ff1680620005f9575060005460ff16155b6200061b5760405160e560020a62461bcd0281526004016200022c906200107f565b600054610100900460ff161580156200063e576000805461ffff19166101011790555b6200064862000a10565b62000653826200047e565b80156200047a576000805461ff00191690555050565b600080600160a060020a031660668360405162000687919062000fee565b90815260405190819003602001902054600160a060020a03161415620007005760405160e560020a62461bcd02815260206004820152602160248201527f546869732070726f6475637420746f6b656e20646f6573206e6f742065786973604482015260fa60020a601d0260648201526084016200022c565b60668260405162000712919062000fee565b90815260405190819003602001902054600160a060020a031690505b919050565b336200073e620005d0565b600160a060020a0316146200076a5760405160e560020a62461bcd0281526004016200022c90620010dc565b600160a060020a038116620007eb5760405160e560020a62461bcd02815260206004820152602660248201527f4f776e61626c653a206e6577206f776e657220697320746865207a65726f206160448201527f646472657373000000000000000000000000000000000000000000000000000060648201526084016200022c565b603354604051600160a060020a0380841692169060008051602062001c6983398151915290600090a360338054600160a060020a031916600160a060020a0392909216919091179055565b3362000841620005d0565b600160a060020a0316146200045e5760405160e560020a62461bcd0281526004016200022c90620010dc565b60006200087962000a98565b9050620008868462000ac6565b600083511180620008945750815b15620008a857620008a6848462000b80565b505b7f4910fdfa16fed3260ed0e7147f7cc6da11a60208b5b9406d12a635614ffd9143805460ff1662000a0957805460ff191660011781556040516200092b908690620008f89085906024016200100c565b60408051601f19818403018152919052602081018051600160e060020a031660e160020a631b2ce7f30217905262000b80565b50805460ff191681556200093e62000a98565b600160a060020a031682600160a060020a031614620009c95760405160e560020a62461bcd02815260206004820152602f60248201527f45524331393637557067726164653a207570677261646520627265616b73206660448201527f757274686572207570677261646573000000000000000000000000000000000060648201526084016200022c565b620009d48562000ac6565b604051600160a060020a038616907fbc7cd75a20ee27fd9adebab32041f755214dbc6bffa90cc0225b39da2e5c2d3b90600090a25b5050505050565b600054610100900460ff168062000a2a575060005460ff16155b62000a4c5760405160e560020a62461bcd0281526004016200022c906200107f565b600054610100900460ff1615801562000a6f576000805461ffff19166101011790555b62000a7962000baf565b62000a8362000c22565b80156200045e576000805461ff001916905550565b7f360894a13ba1a3210667c828492db98dca3e2076cc3735a920a3ca505d382bbc54600160a060020a031690565b803b62000b3f5760405160e560020a62461bcd02815260206004820152602d60248201527f455243313936373a206e657720696d706c656d656e746174696f6e206973206e60448201527f6f74206120636f6e74726163740000000000000000000000000000000000000060648201526084016200022c565b7f360894a13ba1a3210667c828492db98dca3e2076cc3735a920a3ca505d382bbc8054600160a060020a031916600160a060020a0392909216919091179055565b606062000ba8838360405180606001604052806027815260200162001c896027913962000cc8565b9392505050565b600054610100900460ff168062000bc9575060005460ff16155b62000beb5760405160e560020a62461bcd0281526004016200022c906200107f565b600054610100900460ff1615801562000a83576000805461ffff191661010117905580156200045e576000805461ff001916905550565b600054610100900460ff168062000c3c575060005460ff16155b62000c5e5760405160e560020a62461bcd0281526004016200022c906200107f565b600054610100900460ff1615801562000c81576000805461ffff19166101011790555b60338054600160a060020a03191633908117909155604051819060009060008051602062001c69833981519152908290a35080156200045e576000805461ff001916905550565b6060833b62000d435760405160e560020a62461bcd02815260206004820152602660248201527f416464726573733a2064656c65676174652063616c6c20746f206e6f6e2d636f60448201527f6e7472616374000000000000000000000000000000000000000000000000000060648201526084016200022c565b60008085600160a060020a03168560405162000d60919062000fee565b600060405180830381855af49150503d806000811462000d9d576040519150601f19603f3d011682016040523d82523d6000602084013e62000da2565b606091505b509150915062000db482828662000dbe565b9695505050505050565b6060831562000dcf57508162000ba8565b82511562000de05782518084602001fd5b8160405160e560020a62461bcd0281526004016200022c919062001044565b610b0a806200115f83390190565b8035600160a060020a03811681146200072e57600080fd5b600082601f83011262000e36578081fd5b813567ffffffffffffffff8082111562000e545762000e5462001144565b604051601f8301601f19908116603f0116810190828211818310171562000e7f5762000e7f62001144565b8160405283815286602085880101111562000e98578485fd5b8360208701602083013792830160200193909352509392505050565b60006020828403121562000ec6578081fd5b62000ba88262000e0d565b6000806040838503121562000ee4578081fd5b62000eef8362000e0d565b9150602083013567ffffffffffffffff81111562000f0b578182fd5b62000f198582860162000e25565b9150509250929050565b60006020828403121562000f35578081fd5b813567ffffffffffffffff81111562000f4c578182fd5b62000f5a8482850162000e25565b949350505050565b6000806040838503121562000f75578182fd5b823567ffffffffffffffff8082111562000f8d578384fd5b62000f9b8683870162000e25565b9350602085013591508082111562000fb1578283fd5b5062000f198582860162000e25565b6000815180845262000fda81602086016020860162001111565b601f01601f19169290920160200192915050565b600082516200100281846020870162001111565b9190910192915050565b600160a060020a0391909116815260200190565b6000600160a060020a03841682526040602083015262000f5a604083018462000fc0565b60006020825262000ba8602083018462000fc0565b6000604082526200106e604083018562000fc0565b905082151560208301529392505050565b6020808252602e908201527f496e697469616c697a61626c653a20636f6e747261637420697320616c72656160408201527f647920696e697469616c697a6564000000000000000000000000000000000000606082015260800190565b6020808252818101527f4f776e61626c653a2063616c6c6572206973206e6f7420746865206f776e6572604082015260600190565b60005b838110156200112e57818101518382015260200162001114565b838111156200113e576000848401525b50505050565b60e060020a634e487b710260009081526041600452602490fdfe6080604052604051610b0a380380610b0a833981016040819052610022916105b3565b61004d60017fa3f0ad74e5423aebfd80d3ef4346578335a9a72aeaee59ff6cb3582b35133d516106be565b600080516020610ac383398151915214610090577f4e487b7100000000000000000000000000000000000000000000000000000000600052600160045260246000fd5b6100a5828260006401000000006100ac810204565b5050610755565b6100be836401000000006101ae810204565b604051600160a060020a038416907f1cf3b03a6cf19fa2baba4df148e9dcabedea7f8a5c07840e207e5c089be95d3e90600090a26000825111806100ff5750805b156101a9576101a783600160a060020a0316635c60da1b6040518163ffffffff167c010000000000000000000000000000000000000000000000000000000002815260040160206040518083038186803b15801561015c57600080fd5b505afa158015610170573d6000803e3d6000fd5b505050506040513d601f19601f820116820180604052508101906101949190610599565b836401000000006100296103c982021704565b505b505050565b6101c4816401000000006100556103fe82021704565b610255576040517f08c379a000000000000000000000000000000000000000000000000000000000815260206004820152602560248201527f455243313936373a206e657720626561636f6e206973206e6f74206120636f6e60448201527f747261637400000000000000000000000000000000000000000000000000000060648201526084015b60405180910390fd5b6102f781600160a060020a0316635c60da1b6040518163ffffffff167c010000000000000000000000000000000000000000000000000000000002815260040160206040518083038186803b1580156102ad57600080fd5b505afa1580156102c1573d6000803e3d6000fd5b505050506040513d601f19601f820116820180604052508101906102e59190610599565b6401000000006100556103fe82021704565b610383576040517f08c379a000000000000000000000000000000000000000000000000000000000815260206004820152603060248201527f455243313936373a20626561636f6e20696d706c656d656e746174696f6e206960448201527f73206e6f74206120636f6e747261637400000000000000000000000000000000606482015260840161024c565b806103a8600080516020610ac383398151915264010000000061005b61040882021704565b8054600160a060020a031916600160a060020a039290921691909117905550565b60606103f78383604051806060016040528060278152602001610ae36027913964010000000061040b810204565b9392505050565b803b15155b919050565b90565b606061041f846401000000006103fe810204565b6104ab576040517f08c379a000000000000000000000000000000000000000000000000000000000815260206004820152602660248201527f416464726573733a2064656c65676174652063616c6c20746f206e6f6e2d636f60448201527f6e74726163740000000000000000000000000000000000000000000000000000606482015260840161024c565b60008085600160a060020a0316856040516104c6919061066f565b600060405180830381855af49150503d8060008114610501576040519150601f19603f3d011682016040523d82523d6000602084013e610506565b606091505b509150915061052582828661052f640100000000026401000000009004565b9695505050505050565b6060831561053e5750816103f7565b82511561054e5782518084602001fd5b816040517f08c379a000000000000000000000000000000000000000000000000000000000815260040161024c919061068b565b8051600160a060020a038116811461040357600080fd5b6000602082840312156105aa578081fd5b6103f782610582565b600080604083850312156105c5578081fd5b6105ce83610582565b9150602083015167ffffffffffffffff808211156105ea578283fd5b818501915085601f8301126105fd578283fd5b81518181111561060f5761060f610726565b604051601f8201601f19908116603f0116810190838211818310171561063757610637610726565b8160405282815288602084870101111561064f578586fd5b6106608360208301602088016106fa565b80955050505050509250929050565b600082516106818184602087016106fa565b9190910192915050565b60006020825282518060208401526106aa8160408501602087016106fa565b601f01601f19169190910160400192915050565b6000828210156106f5577f4e487b710000000000000000000000000000000000000000000000000000000081526011600452602481fd5b500390565b60005b838110156107155781810151838201526020016106fd565b838111156101a75750506000910152565b7f4e487b7100000000000000000000000000000000000000000000000000000000600052604160045260246000fd5b61035f806107646000396000f3fe60806040523661001357610011610017565b005b6100115b61002761002261005e565b610109565b565b606061004e83836040518060600160405280602781526020016103036027913961012d565b9392505050565b3b151590565b90565b60006100917fa3f0ad74e5423aebfd80d3ef4346578335a9a72aeaee59ff6cb3582b35133d5054600160a060020a031690565b600160a060020a0316635c60da1b6040518163ffffffff1660e060020a02815260040160206040518083038186803b1580156100cc57600080fd5b505afa1580156100e0573d6000803e3d6000fd5b505050506040513d601f19601f82011682018060405250810190610104919061025c565b905090565b3660008037600080366000845af43d6000803e808015610128573d6000f35b3d6000fd5b6060833b6101ab5760405160e560020a62461bcd02815260206004820152602660248201527f416464726573733a2064656c65676174652063616c6c20746f206e6f6e2d636f60448201527f6e7472616374000000000000000000000000000000000000000000000000000060648201526084015b60405180910390fd5b60008085600160a060020a0316856040516101c69190610283565b600060405180830381855af49150503d8060008114610201576040519150601f19603f3d011682016040523d82523d6000602084013e610206565b606091505b5091509150610216828286610220565b9695505050505050565b6060831561022f57508161004e565b82511561023f5782518084602001fd5b8160405160e560020a62461bcd0281526004016101a2919061029f565b60006020828403121561026d578081fd5b8151600160a060020a038116811461004e578182fd5b600082516102958184602087016102d2565b9190910192915050565b60006020825282518060208401526102be8160408501602087016102d2565b601f01601f19169190910160400192915050565b60005b838110156102ed5781810151838201526020016102d5565b838111156102fc576000848401525b5050505056fe416464726573733a206c6f772d6c6576656c2064656c65676174652063616c6c206661696c6564a26469706673582212202257808f80775ff8cfb732ae5128df8067451356353edb4346919a76c20c5b4064736f6c63430008030033a3f0ad74e5423aebfd80d3ef4346578335a9a72aeaee59ff6cb3582b35133d50416464726573733a206c6f772d6c6576656c2064656c65676174652063616c6c206661696c65648be0079c531659141344cd1fd0a4f28419497f9722a3daafe3b4186f6b6457e0416464726573733a206c6f772d6c6576656c2064656c65676174652063616c6c206661696c6564a2646970667358221220e81483723063b49434c5544ba5cb81fb54c6d493e9c7b04d4683b1b9f75d1c3764736f6c63430008030033",
  "immutableReferences": {},
  "source": "// SPDX-License-Identifier: MIT\n\npragma solidity ^0.8.2;\n\nimport \"@openzeppelin/contracts/proxy/beacon/IBeacon.sol\";\nimport \"@openzeppelin/contracts/proxy/beacon/BeaconProxy.sol\";\nimport \"@openzeppelin/contracts/proxy/ERC1967/ERC1967Proxy.sol\";\nimport \"@openzeppelin/contracts/proxy/utils/UUPSUpgradeable.sol\";\nimport \"@openzeppelin/contracts/utils/Address.sol\";\nimport \"@openzeppelin/contracts-upgradeable/proxy/utils/Initializable.sol\";\nimport \"@openzeppelin/contracts-upgradeable/access/OwnableUpgradeable.sol\";\n\n/// @title TokenFactory\n/// @dev This is the factory smart contract that is responsible for token creation and address management.\ncontract TokenFactory is Initializable, UUPSUpgradeable, OwnableUpgradeable {\n\n\tIBeacon public beacon;\t\t\t\t\t\t\t\t\t\t// this is set to Public for the purpose of testing. In release this will be internal \n\tmapping(string => address) registry;\t\t\t// registry for storing products. Mapped from product name to address.\n\n\tevent Create(string name, bool state);\t\t// event to fire when a new type of token is created\n\tevent UpdatedBeacon(address newBeacon);\t\t// event to fire when a new beacon replaces old beacon\n\n\t/**\n   * @dev initializer function.\n   *\n   * @param _beacon                   \taddress for beacon pointing to the implementation logic for product tokens\n   *\n  */\n\tfunction initialize(address _beacon) external initializer{\n\t\t__Ownable_init();\n\t\tUpdateBeacon(_beacon);\n\t}\n\n\t/**\n   * @dev update function for the beacon address.\n   *\n   * @param _beacon                    address for beacon\n   *\n  */\n\tfunction UpdateBeacon(address _beacon) public onlyOwner {\n\t\trequire( Address.isContract(_beacon), \"Invalid Beacon address\");\n\t\tbeacon = IBeacon(_beacon);\n\t\temit UpdatedBeacon(_beacon);\n\t}\n\n\t/**\n   * @dev function to create a new product token. \n   * After creating a new beacon proxy, the token factory will pass in _data, the encoded function call for initialize.\n   * Then factory will call method to set our corporate account as the creator of the new token.\n   *\n   * @param _productName   \t\t\t\t\t\t product name for a new token. The product name has to be unique                \t\n   * @param _data\t\t\t\t\t\t\t\t\t\t\t encoded data for the initialize function call with parameters.\n  */\n\tfunction createToken(string memory _productName, bytes memory _data) external onlyOwner{\n\t\trequire(registry[_productName]==address(0), \"The product token already exist\");\n\n\t\taddress newProxyToken = address(new BeaconProxy(address(beacon), _data));\n\t\t(bool success, ) = newProxyToken.call(abi.encodeWithSignature(\"transferOwnership(address)\", msg.sender));\n\n\t\tif(success){\n\t\t\tregistry[_productName] = newProxyToken;\n\t\t}\n\t\temit Create(_productName, success);\n\t}\n\n\t/**\n   * @dev function to retrieve a product token address\n   * After creating a new beacon proxy, the token factory will pass in _data, the encoded function call for initialize.\n   * Then factory will call method to set our corporate account as the creator of the new token.\n   *\n   * @param _productName   \t\t\t\t\t\t product name for the product token. \n   * @return address \t\t\t\t\t\t\t\t\t the address of the product token.           \t\n  */\n\tfunction retrieveToken(string memory _productName) external view returns(address) {\n\t\trequire(registry[_productName]!=address(0), \"This product token does not exist\");\n\t\treturn registry[_productName];\n\t}\n\n\t/**\n   * @dev necessary function override from UUPSUpgradeable proxy contract.\n  */\n\tfunction _authorizeUpgrade(address) internal override onlyOwner {}\n\n}\n",
  "sourcePath": "/Users/jack/Documents/GitHub/HighStreet/client/src/contracts/TokenFactory.sol",
  "compiler": {
    "name": "solc",
    "version": "0.8.3+commit.8d00100c.Emscripten.clang"
  },
  "schemaVersion": "3.4.0",
  "updatedAt": "2021-09-16T10:31:19.655Z",
  "devdoc": {
    "details": "This is the factory smart contract that is responsible for token creation and address management.",
    "kind": "dev",
    "methods": {
      "UpdateBeacon(address)": {
        "details": "update function for the beacon address.",
        "params": {
          "_beacon": "address for beacon"
        }
      },
      "createToken(string,bytes)": {
        "details": "function to create a new product token.  After creating a new beacon proxy, the token factory will pass in _data, the encoded function call for initialize. Then factory will call method to set our corporate account as the creator of the new token.",
        "params": {
          "_data": "encoded data for the initialize function call with parameters.",
          "_productName": "product name for a new token. The product name has to be unique                \t"
        }
      },
      "initialize(address)": {
        "details": "initializer function.",
        "params": {
          "_beacon": "address for beacon pointing to the implementation logic for product tokens"
        }
      },
      "owner()": {
        "details": "Returns the address of the current owner."
      },
      "renounceOwnership()": {
        "details": "Leaves the contract without owner. It will not be possible to call `onlyOwner` functions anymore. Can only be called by the current owner. NOTE: Renouncing ownership will leave the contract without an owner, thereby removing any functionality that is only available to the owner."
      },
      "retrieveToken(string)": {
        "details": "function to retrieve a product token address After creating a new beacon proxy, the token factory will pass in _data, the encoded function call for initialize. Then factory will call method to set our corporate account as the creator of the new token.",
        "params": {
          "_productName": "product name for the product token. "
        },
        "returns": {
          "_0": "address \t\t\t\t\t\t\t\t\t the address of the product token.           \t"
        }
      },
      "transferOwnership(address)": {
        "details": "Transfers ownership of the contract to a new account (`newOwner`). Can only be called by the current owner."
      }
    },
    "title": "TokenFactory",
    "version": 1
  },
  "userdoc": {
    "kind": "user",
    "methods": {},
    "version": 1
  }
}