{
  "contractName": "TokenUtils",
  "abi": [
    {
      "inputs": [],
      "stateMutability": "nonpayable",
      "type": "constructor"
    },
    {
      "anonymous": false,
      "inputs": [
        {
          "indexed": true,
          "internalType": "address",
          "name": "previousOwner",
          "type": "address"
        },
        {
          "indexed": true,
          "internalType": "address",
          "name": "newOwner",
          "type": "address"
        }
      ],
      "name": "OwnershipTransferred",
      "type": "event"
    },
    {
      "inputs": [],
      "name": "FEED_TYPE_NONE",
      "outputs": [
        {
          "internalType": "uint16",
          "name": "",
          "type": "uint16"
        }
      ],
      "stateMutability": "view",
      "type": "function"
    },
    {
      "inputs": [],
      "name": "FEED_TYPE_ONE",
      "outputs": [
        {
          "internalType": "uint16",
          "name": "",
          "type": "uint16"
        }
      ],
      "stateMutability": "view",
      "type": "function"
    },
    {
      "inputs": [],
      "name": "FEED_TYPE_TWO",
      "outputs": [
        {
          "internalType": "uint16",
          "name": "",
          "type": "uint16"
        }
      ],
      "stateMutability": "view",
      "type": "function"
    },
    {
      "inputs": [],
      "name": "INDEX_DAI",
      "outputs": [
        {
          "internalType": "uint256",
          "name": "",
          "type": "uint256"
        }
      ],
      "stateMutability": "view",
      "type": "function"
    },
    {
      "inputs": [],
      "name": "INDEX_ETH",
      "outputs": [
        {
          "internalType": "uint256",
          "name": "",
          "type": "uint256"
        }
      ],
      "stateMutability": "view",
      "type": "function"
    },
    {
      "inputs": [],
      "name": "INDEX_HIGH",
      "outputs": [
        {
          "internalType": "uint256",
          "name": "",
          "type": "uint256"
        }
      ],
      "stateMutability": "view",
      "type": "function"
    },
    {
      "inputs": [
        {
          "internalType": "uint256",
          "name": "",
          "type": "uint256"
        }
      ],
      "name": "currencyList",
      "outputs": [
        {
          "internalType": "string",
          "name": "name",
          "type": "string"
        },
        {
          "internalType": "address",
          "name": "addr",
          "type": "address"
        },
        {
          "internalType": "address",
          "name": "feed",
          "type": "address"
        },
        {
          "internalType": "address",
          "name": "feed2",
          "type": "address"
        },
        {
          "internalType": "uint16",
          "name": "feedType",
          "type": "uint16"
        },
        {
          "internalType": "bool",
          "name": "isSupport",
          "type": "bool"
        }
      ],
      "stateMutability": "view",
      "type": "function"
    },
    {
      "inputs": [],
      "name": "owner",
      "outputs": [
        {
          "internalType": "address",
          "name": "",
          "type": "address"
        }
      ],
      "stateMutability": "view",
      "type": "function"
    },
    {
      "inputs": [],
      "name": "renounceOwnership",
      "outputs": [],
      "stateMutability": "nonpayable",
      "type": "function"
    },
    {
      "inputs": [
        {
          "internalType": "address",
          "name": "newOwner",
          "type": "address"
        }
      ],
      "name": "transferOwnership",
      "outputs": [],
      "stateMutability": "nonpayable",
      "type": "function"
    },
    {
      "inputs": [
        {
          "internalType": "uint256",
          "name": "ids_",
          "type": "uint256"
        },
        {
          "internalType": "string",
          "name": "name_",
          "type": "string"
        },
        {
          "internalType": "address",
          "name": "addr_",
          "type": "address"
        },
        {
          "internalType": "address",
          "name": "feed_",
          "type": "address"
        },
        {
          "internalType": "address",
          "name": "feed2_",
          "type": "address"
        },
        {
          "internalType": "bool",
          "name": "isSupport_",
          "type": "bool"
        }
      ],
      "name": "updateCurrency",
      "outputs": [],
      "stateMutability": "nonpayable",
      "type": "function"
    },
    {
      "inputs": [
        {
          "internalType": "uint256",
          "name": "ids_",
          "type": "uint256"
        },
        {
          "internalType": "bool",
          "name": "isSupport_",
          "type": "bool"
        }
      ],
      "name": "updateCurrency",
      "outputs": [],
      "stateMutability": "nonpayable",
      "type": "function"
    },
    {
      "inputs": [
        {
          "internalType": "string",
          "name": "name_",
          "type": "string"
        },
        {
          "internalType": "address",
          "name": "addr_",
          "type": "address"
        },
        {
          "internalType": "address",
          "name": "feed_",
          "type": "address"
        },
        {
          "internalType": "address",
          "name": "feed2_",
          "type": "address"
        },
        {
          "internalType": "bool",
          "name": "isSupport_",
          "type": "bool"
        }
      ],
      "name": "addCurrency",
      "outputs": [],
      "stateMutability": "nonpayable",
      "type": "function"
    },
    {
      "inputs": [],
      "name": "getCurrencyList",
      "outputs": [
        {
          "components": [
            {
              "internalType": "string",
              "name": "name",
              "type": "string"
            },
            {
              "internalType": "address",
              "name": "addr",
              "type": "address"
            },
            {
              "internalType": "address",
              "name": "feed",
              "type": "address"
            },
            {
              "internalType": "address",
              "name": "feed2",
              "type": "address"
            },
            {
              "internalType": "uint16",
              "name": "feedType",
              "type": "uint16"
            },
            {
              "internalType": "bool",
              "name": "isSupport",
              "type": "bool"
            }
          ],
          "internalType": "struct TokenUtils.currencyInfo[]",
          "name": "",
          "type": "tuple[]"
        }
      ],
      "stateMutability": "view",
      "type": "function"
    },
    {
      "inputs": [
        {
          "internalType": "uint256",
          "name": "ids_",
          "type": "uint256"
        }
      ],
      "name": "getAddressByIds",
      "outputs": [
        {
          "internalType": "address",
          "name": "",
          "type": "address"
        }
      ],
      "stateMutability": "view",
      "type": "function"
    },
    {
      "inputs": [
        {
          "internalType": "uint256",
          "name": "ids_",
          "type": "uint256"
        }
      ],
      "name": "isValidIds",
      "outputs": [
        {
          "internalType": "bool",
          "name": "",
          "type": "bool"
        }
      ],
      "stateMutability": "view",
      "type": "function"
    },
    {
      "inputs": [
        {
          "internalType": "uint256",
          "name": "ids_",
          "type": "uint256"
        }
      ],
      "name": "isSupportIds",
      "outputs": [
        {
          "internalType": "bool",
          "name": "",
          "type": "bool"
        }
      ],
      "stateMutability": "view",
      "type": "function"
    },
    {
      "inputs": [
        {
          "internalType": "uint256",
          "name": "value_",
          "type": "uint256"
        },
        {
          "internalType": "uint256",
          "name": "ids_",
          "type": "uint256"
        }
      ],
      "name": "toAccValue",
      "outputs": [
        {
          "internalType": "uint256",
          "name": "",
          "type": "uint256"
        }
      ],
      "stateMutability": "view",
      "type": "function"
    },
    {
      "inputs": [
        {
          "internalType": "uint256",
          "name": "value_",
          "type": "uint256"
        },
        {
          "internalType": "uint256",
          "name": "ids_",
          "type": "uint256"
        }
      ],
      "name": "toOrigValue",
      "outputs": [
        {
          "internalType": "uint256",
          "name": "",
          "type": "uint256"
        }
      ],
      "stateMutability": "view",
      "type": "function"
    }
  ],
  "bytecode": "0x60806040523480156200001157600080fd5b5062000038620000296401000000006200013d810204565b64010000000062000141810204565b6200008d6040518060400160405280600381526020017f455448000000000000000000000000000000000000000000000000000000000081525060008060008062000191640100000000026401000000009004565b620000e26040518060400160405280600481526020017f484947480000000000000000000000000000000000000000000000000000000081525060008060008062000191640100000000026401000000009004565b620001376040518060400160405280600381526020017f444149000000000000000000000000000000000000000000000000000000000081525060008060008062000191640100000000026401000000009004565b620004e6565b3390565b60008054600160a060020a03838116600160a060020a0319831681178455604051919092169283917f8be0079c531659141344cd1fd0a4f28419497f9722a3daafe3b4186f6b6457e09190a35050565b620001a46401000000006200013d810204565b600160a060020a0316620001c0640100000000620003db810204565b600160a060020a03161462000235576040517f08c379a000000000000000000000000000000000000000000000000000000000815260206004820181905260248201527f4f776e61626c653a2063616c6c6572206973206e6f7420746865206f776e6572604482015260640160405180910390fd5b6040805160c0810182526000918101829052606081018290526080810182905260a0810191909152858152600160a060020a038581166020830152841615620002c157600160a060020a03831615620002a45760026080820152600160a060020a0383166060820152620002ac565b600160808201525b600160a060020a0384166040820152620002c9565b600060808201525b81151560a08201526001805480820182556000919091528151805183926004027fb10e2d527612073b26eecdfd717e6a320cf44b4afac2b0732d9fcbe2b7fa0cf601916200031d91839160200190620003ea565b506020820151600182018054600160a060020a03928316600160a060020a031991821617909155604084015160028401805491841691909216179055606083015160039092018054608085015160a09095015115157601000000000000000000000000000000000000000000000260b060020a60ff021961ffff9096167401000000000000000000000000000000000000000002600160b060020a031990921694909316939093179290921792909216919091179055505050505050565b600054600160a060020a031690565b828054620003f89062000490565b90600052602060002090601f0160209004810192826200041c576000855562000467565b82601f106200043757805160ff191683800117855562000467565b8280016001018555821562000467579182015b82811115620004675782518255916020019190600101906200044a565b506200047592915062000479565b5090565b5b808211156200047557600081556001016200047a565b600281046001821680620004a557607f821691505b60208210811415620004e0577f4e487b7100000000000000000000000000000000000000000000000000000000600052602260045260246000fd5b50919050565b6113ae80620004f66000396000f3fe608060405234801561001057600080fd5b50600436106101055760003560e060020a900480638da5cb5b116100a15780638da5cb5b146101b95780638dfc52be146101d9578063a71b7b77146101f4578063aa4985cc14610207578063bc26c71c1461020f578063bf418de114610217578063c63d9a8c1461022a578063f0d053dc14610232578063f2ce4dc014610257578063f2fde38b1461026c57610105565b806315fc65d91461010a5780631c6e7b201461013257806331bbc00d1461015357806336e84a87146101685780633cc6c1631461017b5780634b9abc261461018e5780636a03f02a14610196578063715018a6146101a957806374a21872146101b1575b600080fd5b61011d610118366004611020565b61027f565b60405190151581526020015b60405180910390f35b6101456101403660046110e9565b6102ee565b604051908152602001610129565b610166610161366004611063565b6103d8565b005b61011d610176366004611020565b610548565b610166610189366004611038565b610566565b610145600181565b6101666101a4366004610fa2565b6105f3565b6101666107a1565b610145600081565b6101c16107df565b604051600160a060020a039091168152602001610129565b6101e1600181565b60405161ffff9091168152602001610129565b6101456102023660046110e9565b6107ee565b610145600281565b6101e1600281565b6101c1610225366004611020565b6108bc565b6101e1600081565b610245610240366004611020565b6109f5565b6040516101299695949392919061124a565b61025f610ae5565b6040516101299190611198565b61016661027a366004610f88565b610c2b565b600080821180610290575060015482105b156102e557600182815481106102b95760e060020a634e487b7102600052603260045260246000fd5b906000526020600020906004020160030160169054906101000a900460ff16156102e5575060016102e9565b5060005b919050565b600080600183815481106103155760e060020a634e487b7102600052603260045260246000fd5b6000918252602090912060036004909202019081015490915060a060020a900461ffff166002141561038c5760038101546103849061035c90600160a060020a0316610ce8565b600283015461037e9061037790600160a060020a0316610ce8565b8790610db8565b90610dcb565b9150506103d2565b600381015460a060020a900461ffff16600114156103cd57600281015461038490670de0b6b3a76400009061037e9061037790600160a060020a0316610ce8565b839150505b92915050565b336103e16107df565b600160a060020a0316146104135760405160e560020a62461bcd02815260040161040a90611299565b60405180910390fd5b6000600187815481106104395760e060020a634e487b7102600052603260045260246000fd5b60009182526020918290208851600490920201925061045d91839190890190610e27565b50600181018054600160a060020a031916600160a060020a038781169190911790915584161561050d57600160a060020a038316156104d157600381018054600160a060020a038516600160b060020a031990911617740200000000000000000000000000000000000000001790556104eb565b60038101805460a060020a61ffff02191660a060020a1790555b600281018054600160a060020a031916600160a060020a038616179055610521565b60038101805460a060020a61ffff02191690555b600301805491151560b060020a0260b060020a60ff02199092169190911790555050505050565b600080821180610559575060015482105b156102e5575060016102e9565b3361056f6107df565b600160a060020a0316146105985760405160e560020a62461bcd02815260040161040a90611299565b6000600183815481106105be5760e060020a634e487b7102600052603260045260246000fd5b60009182526020909120600360049092020101805492151560b060020a0260b060020a60ff0219909316929092179091555050565b336105fc6107df565b600160a060020a0316146106255760405160e560020a62461bcd02815260040161040a90611299565b6040805160c0810182526000918101829052606081018290526080810182905260a0810191909152858152600160a060020a0385811660208301528416156106ad57600160a060020a038316156106915760026080820152600160a060020a0383166060820152610699565b600160808201525b600160a060020a03841660408201526106b5565b600060808201525b81151560a08201526001805480820182556000919091528151805183926004027fb10e2d527612073b26eecdfd717e6a320cf44b4afac2b0732d9fcbe2b7fa0cf6019161070791839160200190610e27565b506020820151600182018054600160a060020a03928316600160a060020a031991821617909155604084015160028401805491841691909216179055606083015160039092018054608085015160a090950151151560b060020a0260b060020a60ff021961ffff90961660a060020a02600160b060020a031990921694909316939093179290921792909216919091179055505050505050565b336107aa6107df565b600160a060020a0316146107d35760405160e560020a62461bcd02815260040161040a90611299565b6107dd6000610dd7565b565b600054600160a060020a031690565b600080600183815481106108155760e060020a634e487b7102600052603260045260246000fd5b6000918252602090912060036004909202019081015490915060a060020a900461ffff16600214156108775760028101546103849061085c90600160a060020a0316610ce8565b600383015461037e9061037790600160a060020a0316610ce8565b600381015460a060020a900461ffff16600114156103cd576002810154610384906108aa90600160a060020a0316610ce8565b61037e86670de0b6b3a7640000610db8565b6000808211806108cd575060015482105b61091c5760405160e560020a62461bcd02815260206004820152600b60248201527f696e76616c696420696473000000000000000000000000000000000000000000604482015260640161040a565b600182815481106109405760e060020a634e487b7102600052603260045260246000fd5b906000526020600020906004020160030160169054906101000a900460ff166109ae5760405160e560020a62461bcd02815260206004820152600b60248201527f6e6f7420737570706f7274000000000000000000000000000000000000000000604482015260640161040a565b600182815481106109d25760e060020a634e487b7102600052603260045260246000fd5b6000918252602090912060049091020160010154600160a060020a031692915050565b60018181548110610a0557600080fd5b9060005260206000209060040201600091509050806000018054610a289061131f565b80601f0160208091040260200160405190810160405280929190818152602001828054610a549061131f565b8015610aa15780601f10610a7657610100808354040283529160200191610aa1565b820191906000526020600020905b815481529060010190602001808311610a8457829003601f168201915b50505050600183015460028401546003909401549293600160a060020a039182169390821692509081169060a060020a810461ffff169060b060020a900460ff1686565b60606001805480602002602001604051908101604052809291908181526020016000905b82821015610c2257838290600052602060002090600402016040518060c0016040529081600082018054610b3c9061131f565b80601f0160208091040260200160405190810160405280929190818152602001828054610b689061131f565b8015610bb55780601f10610b8a57610100808354040283529160200191610bb5565b820191906000526020600020905b815481529060010190602001808311610b9857829003601f168201915b5050509183525050600182810154600160a060020a03908116602080850191909152600285015482166040850152600390940154908116606084015260a060020a810461ffff16608084015260b060020a900460ff16151560a09092019190915291835292019101610b09565b50505050905090565b33610c346107df565b600160a060020a031614610c5d5760405160e560020a62461bcd02815260040161040a90611299565b600160a060020a038116610cdc5760405160e560020a62461bcd02815260206004820152602660248201527f4f776e61626c653a206e6577206f776e657220697320746865207a65726f206160448201527f6464726573730000000000000000000000000000000000000000000000000000606482015260840161040a565b610ce581610dd7565b50565b60008082600160a060020a031663feaf968c6040518163ffffffff1660e060020a02815260040160a06040518083038186803b158015610d2757600080fd5b505afa158015610d3b573d6000803e3d6000fd5b505050506040513d601f19601f82011682018060405250810190610d5f919061110a565b505050915050600081136103d25760405160e560020a62461bcd02815260206004820152601560248201527f496e76616c69642045786368616e676520726174650000000000000000000000604482015260640161040a565b6000610dc482846112f1565b9392505050565b6000610dc482846112ce565b60008054600160a060020a03838116600160a060020a0319831681178455604051919092169283917f8be0079c531659141344cd1fd0a4f28419497f9722a3daafe3b4186f6b6457e09190a35050565b828054610e339061131f565b90600052602060002090601f016020900481019282610e555760008555610e9b565b82601f10610e6e57805160ff1916838001178555610e9b565b82800160010185558215610e9b579182015b82811115610e9b578251825591602001919060010190610e80565b50610ea7929150610eab565b5090565b5b80821115610ea75760008155600101610eac565b8035600160a060020a03811681146102e957600080fd5b803580151581146102e957600080fd5b600082601f830112610ef7578081fd5b813567ffffffffffffffff80821115610f1257610f1261135e565b604051601f8301601f19908116603f01168101908282118183101715610f3a57610f3a61135e565b81604052838152866020858801011115610f52578485fd5b8360208701602083013792830160200193909352509392505050565b805169ffffffffffffffffffff811681146102e957600080fd5b600060208284031215610f99578081fd5b610dc482610ec0565b600080600080600060a08688031215610fb9578081fd5b853567ffffffffffffffff811115610fcf578182fd5b610fdb88828901610ee7565b955050610fea60208701610ec0565b9350610ff860408701610ec0565b925061100660608701610ec0565b915061101460808701610ed7565b90509295509295909350565b600060208284031215611031578081fd5b5035919050565b6000806040838503121561104a578182fd5b8235915061105a60208401610ed7565b90509250929050565b60008060008060008060c0878903121561107b578081fd5b86359550602087013567ffffffffffffffff811115611098578182fd5b6110a489828a01610ee7565b9550506110b360408801610ec0565b93506110c160608801610ec0565b92506110cf60808801610ec0565b91506110dd60a08801610ed7565b90509295509295509295565b600080604083850312156110fb578182fd5b50508035926020909101359150565b600080600080600060a08688031215611121578081fd5b61112a86610f6e565b945060208601519350604086015192506060860151915061101460808701610f6e565b60008151808452815b8181101561117257602081850181015186830182015201611156565b818111156111835782602083870101525b50601f01601f19169290920160200192915050565b60208082528251828201819052600091906040908185019080840286018301878501865b8381101561123c57603f19898403018552815160c081518186526111e28287018261114d565b838b0151600160a060020a03908116888d01528a85015181168b8901526060808601519091169088015260808085015161ffff169088015260a09384015115159390960192909252505093860193908601906001016111bc565b509098975050505050505050565b600060c0825261125d60c083018961114d565b600160a060020a03978816602084015295871660408301525092909416606083015261ffff16608082015291151560a090920191909152919050565b6020808252818101527f4f776e61626c653a2063616c6c6572206973206e6f7420746865206f776e6572604082015260600190565b6000826112ec5760e060020a634e487b710281526012600452602481fd5b500490565b600081600019048311821515161561131a5760e060020a634e487b710281526011600452602481fd5b500290565b60028104600182168061133357607f821691505b602082108114156113585760e060020a634e487b710260009081526022600452602490fd5b50919050565b60e060020a634e487b710260009081526041600452602490fdfea26469706673582212207fb3ae274404fcc1da162c2aee86037546b980427e732ce476bb4ce85df7bc9564736f6c63430008030033",
  "immutableReferences": {},
  "source": "pragma solidity ^0.8.3;\n\nimport {AggregatorV3Interface as AggregatorV3Interface_v08 } from \"@chainlink/contracts/src/v0.8/interfaces/AggregatorV3Interface.sol\";\nimport \"@openzeppelin/contracts/access/Ownable.sol\";\nimport \"@openzeppelin/contracts-upgradeable/utils/math/SafeMathUpgradeable.sol\";\n\ncontract TokenUtils is Ownable {\n\tusing SafeMathUpgradeable for uint256;\n\n    uint256 constant public  INDEX_ETH  = 0;\n    uint256 constant public  INDEX_HIGH = 1;\n    uint256 constant public  INDEX_DAI  = 2;\n\n    uint16 constant public  FEED_TYPE_NONE = 0;\n    uint16 constant public  FEED_TYPE_ONE  = 1;\n    uint16 constant public  FEED_TYPE_TWO  = 2;\n\n    struct currencyInfo {\n        string name;\n        address addr;\n        address feed;\n        address feed2;\n        uint16 feedType;\n        bool isSupport; //is support for tradeable\n    }\n    currencyInfo[] public currencyList;\n\n    constructor() {\n        addCurrency('ETH', address(0), address(0), address(0), false);\n        addCurrency('HIGH', address(0), address(0), address(0), false);\n        addCurrency('DAI', address(0), address(0), address(0), false);\n    }\n\n\n    function updateCurrency(uint256 ids_, bool isSupport_) external onlyOwner {\n        currencyInfo storage info = currencyList[ids_];\n        info.isSupport = isSupport_;\n    }\n\n    function updateCurrency(uint256 ids_, string memory name_, address addr_, address feed_,\n        address feed2_, bool isSupport_) external onlyOwner {\n        currencyInfo storage info = currencyList[ids_];\n        info.name = name_;\n        info.addr = addr_;\n        if(feed_ != address(0)) {\n            if(feed2_ != address(0)) {\n                info.feedType = FEED_TYPE_TWO;\n                info.feed2 = feed2_;\n            } else {\n                info.feedType = FEED_TYPE_ONE;\n            }\n            info.feed = feed_;\n        } else {\n            info.feedType = FEED_TYPE_NONE;\n        }\n        info.isSupport = isSupport_;\n    }\n\n    function addCurrency(string memory name_, address addr_, address feed_, address feed2_, bool isSupport_) public onlyOwner {\n        currencyInfo memory info;\n        info.name = name_;\n        info.addr = addr_;\n        if(feed_ != address(0)) {\n            if(feed2_ != address(0)) {\n                info.feedType = FEED_TYPE_TWO;\n                info.feed2 = feed2_;\n            } else {\n                info.feedType = FEED_TYPE_ONE;\n            }\n            info.feed = feed_;\n        } else {\n            info.feedType = FEED_TYPE_NONE;\n        }\n        info.isSupport = isSupport_;\n        currencyList.push(info);\n    }\n\n    function getCurrencyList() external view returns( currencyInfo [] memory) {\n        return currencyList;\n    }\n\n    function getAddressByIds(uint256 ids_) external view returns (address) {\n        require(ids_ > 0 || ids_ < currencyList.length, 'invalid ids');\n        require(currencyList[ids_].isSupport, 'not support');\n        return currencyList[ids_].addr;\n    }\n\n    function isValidIds(uint256 ids_) external view returns (bool) {\n        if(ids_ > 0 || ids_ < currencyList.length){\n            return true;\n        }\n        return false;\n    }\n\n    function isSupportIds(uint256 ids_) external view returns (bool) {\n        if(ids_ > 0 || ids_ < currencyList.length){\n            if(currencyList[ids_].isSupport) {\n                return true;\n            }\n        }\n        return false;\n    }\n\n    function toAccValue(uint256 value_, uint ids_) public view returns(uint256) {\n        currencyInfo storage currency = currencyList[ids_];\n        if (currency.feedType == FEED_TYPE_TWO) {\n            return value_\n                    .mul(uint256(_getLatestFeed(currency.feed2)))\n                    .div(uint256(_getLatestFeed(currency.feed)));\n        } else if (currency.feedType == FEED_TYPE_ONE) {\n            return value_\n                    .mul(10**18)\n                    .div(uint256(_getLatestFeed(currency.feed)));\n        }\n        return value_;\n    }\n\n   function toOrigValue(uint256 value_, uint ids_) public view returns(uint256) {\n        currencyInfo storage currency = currencyList[ids_];\n        if (currency.feedType == FEED_TYPE_TWO) {\n            return value_\n                    .mul(uint256(_getLatestFeed(currency.feed)))\n                    .div(uint256(_getLatestFeed(currency.feed2)));\n        } else if (currency.feedType == FEED_TYPE_ONE) {\n            return value_\n                    .mul(uint256(_getLatestFeed(currency.feed)))\n                    .div(10**18);\n        }\n        return value_;\n    }\n\n    function _getLatestFeed(address feed_) internal view virtual returns (int) {\n        (\n          ,\n          int price,\n          ,\n          ,\n        ) = AggregatorV3Interface_v08(feed_).latestRoundData();\n        require(price > 0, \"Invalid Exchange rate\");\n        return price;\n    }\n\n}\n",
  "sourcePath": "/Users/jack/Documents/GitHub/HighStreet/client/src/contracts/TokenUtils.sol",
  "compiler": {
    "name": "solc",
    "version": "0.8.3+commit.8d00100c.Emscripten.clang"
  },
  "schemaVersion": "3.4.0",
  "updatedAt": "2021-09-25T11:30:46.864Z",
  "devdoc": {
    "kind": "dev",
    "methods": {
      "owner()": {
        "details": "Returns the address of the current owner."
      },
      "renounceOwnership()": {
        "details": "Leaves the contract without owner. It will not be possible to call `onlyOwner` functions anymore. Can only be called by the current owner. NOTE: Renouncing ownership will leave the contract without an owner, thereby removing any functionality that is only available to the owner."
      },
      "transferOwnership(address)": {
        "details": "Transfers ownership of the contract to a new account (`newOwner`). Can only be called by the current owner."
      }
    },
    "version": 1
  },
  "userdoc": {
    "kind": "user",
    "methods": {},
    "version": 1
  }
}