{
  "contractName": "TokenFactoryV1Mock",
  "abi": [
    {
      "anonymous": false,
      "inputs": [
        {
          "indexed": false,
          "internalType": "address",
          "name": "previousAdmin",
          "type": "address"
        },
        {
          "indexed": false,
          "internalType": "address",
          "name": "newAdmin",
          "type": "address"
        }
      ],
      "name": "AdminChanged",
      "type": "event"
    },
    {
      "anonymous": false,
      "inputs": [
        {
          "indexed": true,
          "internalType": "address",
          "name": "beacon",
          "type": "address"
        }
      ],
      "name": "BeaconUpgraded",
      "type": "event"
    },
    {
      "anonymous": false,
      "inputs": [
        {
          "indexed": false,
          "internalType": "string",
          "name": "name",
          "type": "string"
        },
        {
          "indexed": false,
          "internalType": "bool",
          "name": "state",
          "type": "bool"
        }
      ],
      "name": "Create",
      "type": "event"
    },
    {
      "anonymous": false,
      "inputs": [
        {
          "indexed": true,
          "internalType": "address",
          "name": "previousOwner",
          "type": "address"
        },
        {
          "indexed": true,
          "internalType": "address",
          "name": "newOwner",
          "type": "address"
        }
      ],
      "name": "OwnershipTransferred",
      "type": "event"
    },
    {
      "anonymous": false,
      "inputs": [
        {
          "indexed": false,
          "internalType": "address",
          "name": "newBeacon",
          "type": "address"
        }
      ],
      "name": "UpdatedBeacon",
      "type": "event"
    },
    {
      "anonymous": false,
      "inputs": [
        {
          "indexed": true,
          "internalType": "address",
          "name": "implementation",
          "type": "address"
        }
      ],
      "name": "Upgraded",
      "type": "event"
    },
    {
      "inputs": [
        {
          "internalType": "address",
          "name": "_beacon",
          "type": "address"
        }
      ],
      "name": "UpdateBeacon",
      "outputs": [],
      "stateMutability": "nonpayable",
      "type": "function"
    },
    {
      "inputs": [],
      "name": "beacon",
      "outputs": [
        {
          "internalType": "contract IBeacon",
          "name": "",
          "type": "address"
        }
      ],
      "stateMutability": "view",
      "type": "function"
    },
    {
      "inputs": [
        {
          "internalType": "string",
          "name": "_productName",
          "type": "string"
        },
        {
          "internalType": "bytes",
          "name": "_data",
          "type": "bytes"
        }
      ],
      "name": "createToken",
      "outputs": [],
      "stateMutability": "nonpayable",
      "type": "function"
    },
    {
      "inputs": [
        {
          "internalType": "address",
          "name": "_beacon",
          "type": "address"
        }
      ],
      "name": "initialize",
      "outputs": [],
      "stateMutability": "nonpayable",
      "type": "function"
    },
    {
      "inputs": [],
      "name": "owner",
      "outputs": [
        {
          "internalType": "address",
          "name": "",
          "type": "address"
        }
      ],
      "stateMutability": "view",
      "type": "function"
    },
    {
      "inputs": [],
      "name": "renounceOwnership",
      "outputs": [],
      "stateMutability": "nonpayable",
      "type": "function"
    },
    {
      "inputs": [
        {
          "internalType": "string",
          "name": "_productName",
          "type": "string"
        }
      ],
      "name": "retrieveToken",
      "outputs": [
        {
          "internalType": "address",
          "name": "",
          "type": "address"
        }
      ],
      "stateMutability": "view",
      "type": "function"
    },
    {
      "inputs": [
        {
          "internalType": "address",
          "name": "newOwner",
          "type": "address"
        }
      ],
      "name": "transferOwnership",
      "outputs": [],
      "stateMutability": "nonpayable",
      "type": "function"
    },
    {
      "inputs": [
        {
          "internalType": "address",
          "name": "newImplementation",
          "type": "address"
        }
      ],
      "name": "upgradeTo",
      "outputs": [],
      "stateMutability": "nonpayable",
      "type": "function"
    },
    {
      "inputs": [
        {
          "internalType": "address",
          "name": "newImplementation",
          "type": "address"
        },
        {
          "internalType": "bytes",
          "name": "data",
          "type": "bytes"
        }
      ],
      "name": "upgradeToAndCall",
      "outputs": [],
      "stateMutability": "payable",
      "type": "function"
    },
    {
      "inputs": [],
      "name": "getVersion",
      "outputs": [
        {
          "internalType": "string",
          "name": "",
          "type": "string"
        }
      ],
      "stateMutability": "view",
      "type": "function"
    }
  ],
  "bytecode": "0x60a06040526c01000000000000000000000000300260805234801561002357600080fd5b506080516c010000000000000000000000009004611f666100646000396000818161049c015281816104e20152818161057701526105bd0152611f666000f3fe6080604052600436106200009b5760e060020a60003504630d8e6e2c8114620000a05780632f7fc1cd14620000f85780633659cfe6146200011f5780634f1ef286146200014457806359659e90146200015b57806368a2f7c8146200018c578063715018a614620001b15780638da5cb5b14620001c9578063c4d66de814620001e1578063d7c5ad0d1462000206578063f2fde38b146200022b575b600080fd5b348015620000ad57600080fd5b50604080518082018252600781527f7631204d6f636b0000000000000000000000000000000000000000000000000060208201529051620000ef91906200120b565b60405180910390f35b3480156200010557600080fd5b506200011d6200011736600462001129565b62000250565b005b3480156200012c57600080fd5b506200011d6200013e3660046200107b565b62000491565b6200011d6200015536600462001098565b6200056c565b3480156200016857600080fd5b506065546200017d90600160a060020a031681565b604051620000ef9190620011d3565b3480156200019957600080fd5b506200011d620001ab3660046200107b565b62000638565b348015620001be57600080fd5b506200011d6200071a565b348015620001d657600080fd5b506200017d6200078a565b348015620001ee57600080fd5b506200011d620002003660046200107b565b62000799565b3480156200021357600080fd5b506200017d62000225366004620010ea565b62000823565b3480156200023857600080fd5b506200011d6200024a3660046200107b565b620008ed565b336200025b6200078a565b600160a060020a031614620002905760405160e560020a62461bcd02815260040162000287906200135d565b60405180910390fd5b6000600160a060020a0316606683604051620002ad9190620011b5565b90815260405190819003602001902054600160a060020a031614620003185760405160e560020a62461bcd02815260206004820152601f60248201527f5468652070726f6475637420746f6b656e20616c726561647920657869737400604482015260640162000287565b606554604051600091600160a060020a0316908390620003389062000fc6565b62000345929190620011e7565b604051809103906000f08015801562000362573d6000803e3d6000fd5b509050600081600160a060020a031633604051602401620003849190620011d3565b60408051601f19818403018152918152602082018051600160e060020a031660e060020a63f2fde38b0217905251620003be9190620011b5565b6000604051808303816000865af19150503d8060008114620003fd576040519150601f19603f3d011682016040523d82523d6000602084013e62000402565b606091505b505090508015620004505781606685604051620004209190620011b5565b9081526040519081900360200190208054600160a060020a0392909216600160a060020a03199092169190911790555b7fc4a2411d92a7e8fc5591ff677f18422a31b35d0737c593723933d3ff35e00f7884826040516200048392919062001220565b60405180910390a150505050565b30600160a060020a037f0000000000000000000000000000000000000000000000000000000000000000161415620004e05760405160e560020a62461bcd028152600401620002879062001246565b7f0000000000000000000000000000000000000000000000000000000000000000600160a060020a031662000514620009f0565b600160a060020a031614620005405760405160e560020a62461bcd0281526004016200028790620012a3565b6200054b8162000a1e565b60408051600080825260208201909252620005699183919062000a55565b50565b30600160a060020a037f0000000000000000000000000000000000000000000000000000000000000000161415620005bb5760405160e560020a62461bcd028152600401620002879062001246565b7f0000000000000000000000000000000000000000000000000000000000000000600160a060020a0316620005ef620009f0565b600160a060020a0316146200061b5760405160e560020a62461bcd0281526004016200028790620012a3565b620006268262000a1e565b620006348282600162000a55565b5050565b33620006436200078a565b600160a060020a0316146200066f5760405160e560020a62461bcd02815260040162000287906200135d565b803b620006c25760405160e560020a62461bcd02815260206004820152601660248201527f496e76616c696420426561636f6e206164647265737300000000000000000000604482015260640162000287565b60658054600160a060020a031916600160a060020a0383161790556040517f678add5849bd439fa17780efc6d18ec5a025c93a49d9c373d51a6111e8c908b1906200070f908390620011d3565b60405180910390a150565b33620007256200078a565b600160a060020a031614620007515760405160e560020a62461bcd02815260040162000287906200135d565b603354604051600091600160a060020a03169060008051602062001eea833981519152908390a360338054600160a060020a0319169055565b603354600160a060020a031690565b600054610100900460ff1680620007b3575060005460ff16155b620007d55760405160e560020a62461bcd028152600401620002879062001300565b600054610100900460ff16158015620007f8576000805461ffff19166101011790555b6200080262000bc3565b6200080d8262000638565b801562000634576000805461ff00191690555050565b600080600160a060020a0316606683604051620008419190620011b5565b90815260405190819003602001902054600160a060020a03161415620008ba5760405160e560020a62461bcd02815260206004820152602160248201527f546869732070726f6475637420746f6b656e20646f6573206e6f742065786973604482015260fa60020a601d02606482015260840162000287565b606682604051620008cc9190620011b5565b90815260405190819003602001902054600160a060020a031690505b919050565b33620008f86200078a565b600160a060020a031614620009245760405160e560020a62461bcd02815260040162000287906200135d565b600160a060020a038116620009a55760405160e560020a62461bcd02815260206004820152602660248201527f4f776e61626c653a206e6577206f776e657220697320746865207a65726f206160448201527f6464726573730000000000000000000000000000000000000000000000000000606482015260840162000287565b603354604051600160a060020a0380841692169060008051602062001eea83398151915290600090a360338054600160a060020a031916600160a060020a0392909216919091179055565b7f360894a13ba1a3210667c828492db98dca3e2076cc3735a920a3ca505d382bbc54600160a060020a031690565b3362000a296200078a565b600160a060020a031614620005695760405160e560020a62461bcd02815260040162000287906200135d565b600062000a61620009f0565b905062000a6e8462000c4b565b60008351118062000a7c5750815b1562000a905762000a8e848462000d05565b505b7f4910fdfa16fed3260ed0e7147f7cc6da11a60208b5b9406d12a635614ffd9143805460ff1662000bbc57805460ff1916600117815560405162000b1390869062000ae0908590602401620011d3565b60408051601f19818403018152919052602081018051600160e060020a031660e160020a631b2ce7f30217905262000d05565b50805460ff1916815562000b26620009f0565b600160a060020a031682600160a060020a03161462000bb15760405160e560020a62461bcd02815260206004820152602f60248201527f45524331393637557067726164653a207570677261646520627265616b73206660448201527f7572746865722075706772616465730000000000000000000000000000000000606482015260840162000287565b62000bbc8562000d34565b5050505050565b600054610100900460ff168062000bdd575060005460ff16155b62000bff5760405160e560020a62461bcd028152600401620002879062001300565b600054610100900460ff1615801562000c22576000805461ffff19166101011790555b62000c2c62000d76565b62000c3662000de9565b801562000569576000805461ff001916905550565b803b62000cc45760405160e560020a62461bcd02815260206004820152602d60248201527f455243313936373a206e657720696d706c656d656e746174696f6e206973206e60448201527f6f74206120636f6e747261637400000000000000000000000000000000000000606482015260840162000287565b7f360894a13ba1a3210667c828492db98dca3e2076cc3735a920a3ca505d382bbc8054600160a060020a031916600160a060020a0392909216919091179055565b606062000d2d838360405180606001604052806027815260200162001f0a6027913962000e8f565b9392505050565b62000d3f8162000c4b565b604051600160a060020a038216907fbc7cd75a20ee27fd9adebab32041f755214dbc6bffa90cc0225b39da2e5c2d3b90600090a250565b600054610100900460ff168062000d90575060005460ff16155b62000db25760405160e560020a62461bcd028152600401620002879062001300565b600054610100900460ff1615801562000c36576000805461ffff1916610101179055801562000569576000805461ff001916905550565b600054610100900460ff168062000e03575060005460ff16155b62000e255760405160e560020a62461bcd028152600401620002879062001300565b600054610100900460ff1615801562000e48576000805461ffff19166101011790555b60338054600160a060020a03191633908117909155604051819060009060008051602062001eea833981519152908290a350801562000569576000805461ff001916905550565b6060833b62000f0a5760405160e560020a62461bcd02815260206004820152602660248201527f416464726573733a2064656c65676174652063616c6c20746f206e6f6e2d636f60448201527f6e74726163740000000000000000000000000000000000000000000000000000606482015260840162000287565b60008085600160a060020a03168560405162000f279190620011b5565b600060405180830381855af49150503d806000811462000f64576040519150601f19603f3d011682016040523d82523d6000602084013e62000f69565b606091505b509150915062000f7b82828662000f85565b9695505050505050565b6060831562000f9657508162000d2d565b82511562000fa75782518084602001fd5b8160405160e560020a62461bcd0281526004016200028791906200120b565b610b0a80620013e083390190565b8035600160a060020a0381168114620008e857600080fd5b600082601f83011262000ffd578081fd5b813567ffffffffffffffff808211156200101b576200101b620013c5565b604051601f8301601f19908116603f01168101908282118183101715620010465762001046620013c5565b816040528381528660208588010111156200105f578485fd5b8360208701602083013792830160200193909352509392505050565b6000602082840312156200108d578081fd5b62000d2d8262000fd4565b60008060408385031215620010ab578081fd5b620010b68362000fd4565b9150602083013567ffffffffffffffff811115620010d2578182fd5b620010e08582860162000fec565b9150509250929050565b600060208284031215620010fc578081fd5b813567ffffffffffffffff81111562001113578182fd5b620011218482850162000fec565b949350505050565b600080604083850312156200113c578182fd5b823567ffffffffffffffff8082111562001154578384fd5b620011628683870162000fec565b9350602085013591508082111562001178578283fd5b50620010e08582860162000fec565b60008151808452620011a181602086016020860162001392565b601f01601f19169290920160200192915050565b60008251620011c981846020870162001392565b9190910192915050565b600160a060020a0391909116815260200190565b6000600160a060020a03841682526040602083015262001121604083018462001187565b60006020825262000d2d602083018462001187565b60006040825262001235604083018562001187565b905082151560208301529392505050565b6020808252602c908201527f46756e6374696f6e206d7573742062652063616c6c6564207468726f7567682060408201527f64656c656761746563616c6c0000000000000000000000000000000000000000606082015260800190565b6020808252602c908201527f46756e6374696f6e206d7573742062652063616c6c6564207468726f7567682060408201527f6163746976652070726f78790000000000000000000000000000000000000000606082015260800190565b6020808252602e908201527f496e697469616c697a61626c653a20636f6e747261637420697320616c72656160408201527f647920696e697469616c697a6564000000000000000000000000000000000000606082015260800190565b6020808252818101527f4f776e61626c653a2063616c6c6572206973206e6f7420746865206f776e6572604082015260600190565b60005b83811015620013af57818101518382015260200162001395565b83811115620013bf576000848401525b50505050565b60e060020a634e487b710260009081526041600452602490fdfe6080604052604051610b0a380380610b0a833981016040819052610022916105b3565b61004d60017fa3f0ad74e5423aebfd80d3ef4346578335a9a72aeaee59ff6cb3582b35133d516106be565b600080516020610ac383398151915214610090577f4e487b7100000000000000000000000000000000000000000000000000000000600052600160045260246000fd5b6100a5828260006401000000006100ac810204565b5050610755565b6100be836401000000006101ae810204565b604051600160a060020a038416907f1cf3b03a6cf19fa2baba4df148e9dcabedea7f8a5c07840e207e5c089be95d3e90600090a26000825111806100ff5750805b156101a9576101a783600160a060020a0316635c60da1b6040518163ffffffff167c010000000000000000000000000000000000000000000000000000000002815260040160206040518083038186803b15801561015c57600080fd5b505afa158015610170573d6000803e3d6000fd5b505050506040513d601f19601f820116820180604052508101906101949190610599565b836401000000006100296103c982021704565b505b505050565b6101c4816401000000006100556103fe82021704565b610255576040517f08c379a000000000000000000000000000000000000000000000000000000000815260206004820152602560248201527f455243313936373a206e657720626561636f6e206973206e6f74206120636f6e60448201527f747261637400000000000000000000000000000000000000000000000000000060648201526084015b60405180910390fd5b6102f781600160a060020a0316635c60da1b6040518163ffffffff167c010000000000000000000000000000000000000000000000000000000002815260040160206040518083038186803b1580156102ad57600080fd5b505afa1580156102c1573d6000803e3d6000fd5b505050506040513d601f19601f820116820180604052508101906102e59190610599565b6401000000006100556103fe82021704565b610383576040517f08c379a000000000000000000000000000000000000000000000000000000000815260206004820152603060248201527f455243313936373a20626561636f6e20696d706c656d656e746174696f6e206960448201527f73206e6f74206120636f6e747261637400000000000000000000000000000000606482015260840161024c565b806103a8600080516020610ac383398151915264010000000061005b61040882021704565b8054600160a060020a031916600160a060020a039290921691909117905550565b60606103f78383604051806060016040528060278152602001610ae36027913964010000000061040b810204565b9392505050565b803b15155b919050565b90565b606061041f846401000000006103fe810204565b6104ab576040517f08c379a000000000000000000000000000000000000000000000000000000000815260206004820152602660248201527f416464726573733a2064656c65676174652063616c6c20746f206e6f6e2d636f60448201527f6e74726163740000000000000000000000000000000000000000000000000000606482015260840161024c565b60008085600160a060020a0316856040516104c6919061066f565b600060405180830381855af49150503d8060008114610501576040519150601f19603f3d011682016040523d82523d6000602084013e610506565b606091505b509150915061052582828661052f640100000000026401000000009004565b9695505050505050565b6060831561053e5750816103f7565b82511561054e5782518084602001fd5b816040517f08c379a000000000000000000000000000000000000000000000000000000000815260040161024c919061068b565b8051600160a060020a038116811461040357600080fd5b6000602082840312156105aa578081fd5b6103f782610582565b600080604083850312156105c5578081fd5b6105ce83610582565b9150602083015167ffffffffffffffff808211156105ea578283fd5b818501915085601f8301126105fd578283fd5b81518181111561060f5761060f610726565b604051601f8201601f19908116603f0116810190838211818310171561063757610637610726565b8160405282815288602084870101111561064f578586fd5b6106608360208301602088016106fa565b80955050505050509250929050565b600082516106818184602087016106fa565b9190910192915050565b60006020825282518060208401526106aa8160408501602087016106fa565b601f01601f19169190910160400192915050565b6000828210156106f5577f4e487b710000000000000000000000000000000000000000000000000000000081526011600452602481fd5b500390565b60005b838110156107155781810151838201526020016106fd565b838111156101a75750506000910152565b7f4e487b7100000000000000000000000000000000000000000000000000000000600052604160045260246000fd5b61035f806107646000396000f3fe60806040523661001357610011610017565b005b6100115b61002761002261005e565b610109565b565b606061004e83836040518060600160405280602781526020016103036027913961012d565b9392505050565b3b151590565b90565b60006100917fa3f0ad74e5423aebfd80d3ef4346578335a9a72aeaee59ff6cb3582b35133d5054600160a060020a031690565b600160a060020a0316635c60da1b6040518163ffffffff1660e060020a02815260040160206040518083038186803b1580156100cc57600080fd5b505afa1580156100e0573d6000803e3d6000fd5b505050506040513d601f19601f82011682018060405250810190610104919061025c565b905090565b3660008037600080366000845af43d6000803e808015610128573d6000f35b3d6000fd5b6060833b6101ab5760405160e560020a62461bcd02815260206004820152602660248201527f416464726573733a2064656c65676174652063616c6c20746f206e6f6e2d636f60448201527f6e7472616374000000000000000000000000000000000000000000000000000060648201526084015b60405180910390fd5b60008085600160a060020a0316856040516101c69190610283565b600060405180830381855af49150503d8060008114610201576040519150601f19603f3d011682016040523d82523d6000602084013e610206565b606091505b5091509150610216828286610220565b9695505050505050565b6060831561022f57508161004e565b82511561023f5782518084602001fd5b8160405160e560020a62461bcd0281526004016101a2919061029f565b60006020828403121561026d578081fd5b8151600160a060020a038116811461004e578182fd5b600082516102958184602087016102d2565b9190910192915050565b60006020825282518060208401526102be8160408501602087016102d2565b601f01601f19169190910160400192915050565b60005b838110156102ed5781810151838201526020016102d5565b838111156102fc576000848401525b5050505056fe416464726573733a206c6f772d6c6576656c2064656c65676174652063616c6c206661696c6564a264697066735822122032e536f9de01205f8c8b57dfaeb153367d069bee12e8d69fc04b43202423002a64736f6c63430008030033a3f0ad74e5423aebfd80d3ef4346578335a9a72aeaee59ff6cb3582b35133d50416464726573733a206c6f772d6c6576656c2064656c65676174652063616c6c206661696c65648be0079c531659141344cd1fd0a4f28419497f9722a3daafe3b4186f6b6457e0416464726573733a206c6f772d6c6576656c2064656c65676174652063616c6c206661696c6564a2646970667358221220644672e85140a19950b90c0a2cec120ff3de2facdca40b883c3dbec75d8dd1f264736f6c63430008030033",
  "immutableReferences": {
    "9862": [
      {
        "length": 32,
        "start": 1180
      },
      {
        "length": 32,
        "start": 1250
      },
      {
        "length": 32,
        "start": 1399
      },
      {
        "length": 32,
        "start": 1469
      }
    ]
  },
  "source": "pragma solidity ^0.8.2;\n\nimport \"../TokenFactory.sol\";\n\ncontract TokenFactoryV1Mock is TokenFactory {\n\n  function getVersion() external view returns(string memory) {\n    return 'v1 Mock';\n  }\n\n}",
  "sourcePath": "/Users/jack/Documents/GitHub/HighStreet/client/src/contracts/Mock/TokenFactoryV1Mock.sol",
  "compiler": {
    "name": "solc",
    "version": "0.8.3+commit.8d00100c.Emscripten.clang"
  },
  "schemaVersion": "3.4.0",
  "updatedAt": "2021-09-27T03:56:40.771Z",
  "devdoc": {
    "kind": "dev",
    "methods": {
      "UpdateBeacon(address)": {
        "details": "update function for the beacon address.",
        "params": {
          "_beacon": "address for beacon"
        }
      },
      "createToken(string,bytes)": {
        "details": "function to create a new product token. After creating a new beacon proxy, the token factory will pass in _data, the encoded function call for initialize. Then factory will call method to set our corporate account as the creator of the new token.",
        "params": {
          "_data": "encoded data for the initialize function call with parameters.",
          "_productName": "product name for a new token. The product name has to be unique"
        }
      },
      "initialize(address)": {
        "details": "initializer function.",
        "params": {
          "_beacon": "address for beacon pointing to the implementation logic for product tokens"
        }
      },
      "owner()": {
        "details": "Returns the address of the current owner."
      },
      "renounceOwnership()": {
        "details": "Leaves the contract without owner. It will not be possible to call `onlyOwner` functions anymore. Can only be called by the current owner. NOTE: Renouncing ownership will leave the contract without an owner, thereby removing any functionality that is only available to the owner."
      },
      "retrieveToken(string)": {
        "details": "function to retrieve a product token address After creating a new beacon proxy, the token factory will pass in _data, the encoded function call for initialize. Then factory will call method to set our corporate account as the creator of the new token.",
        "params": {
          "_productName": "product name for the product token."
        },
        "returns": {
          "_0": "address \t\t\t\t\t\t\t\t\t the address of the product token."
        }
      },
      "transferOwnership(address)": {
        "details": "Transfers ownership of the contract to a new account (`newOwner`). Can only be called by the current owner."
      },
      "upgradeTo(address)": {
        "details": "Upgrade the implementation of the proxy to `newImplementation`. Calls {_authorizeUpgrade}. Emits an {Upgraded} event."
      },
      "upgradeToAndCall(address,bytes)": {
        "details": "Upgrade the implementation of the proxy to `newImplementation`, and subsequently execute the function call encoded in `data`. Calls {_authorizeUpgrade}. Emits an {Upgraded} event."
      }
    },
    "version": 1
  },
  "userdoc": {
    "kind": "user",
    "methods": {},
    "version": 1
  }
}