{
  "contractName": "TokenFactoryV1",
  "abi": [
    {
      "anonymous": false,
      "inputs": [
        {
          "indexed": false,
          "internalType": "address",
          "name": "previousAdmin",
          "type": "address"
        },
        {
          "indexed": false,
          "internalType": "address",
          "name": "newAdmin",
          "type": "address"
        }
      ],
      "name": "AdminChanged",
      "type": "event"
    },
    {
      "anonymous": false,
      "inputs": [
        {
          "indexed": true,
          "internalType": "address",
          "name": "beacon",
          "type": "address"
        }
      ],
      "name": "BeaconUpgraded",
      "type": "event"
    },
    {
      "anonymous": false,
      "inputs": [
        {
          "indexed": false,
          "internalType": "string",
          "name": "name",
          "type": "string"
        },
        {
          "indexed": false,
          "internalType": "bool",
          "name": "state",
          "type": "bool"
        }
      ],
      "name": "Create",
      "type": "event"
    },
    {
      "anonymous": false,
      "inputs": [
        {
          "indexed": true,
          "internalType": "address",
          "name": "previousOwner",
          "type": "address"
        },
        {
          "indexed": true,
          "internalType": "address",
          "name": "newOwner",
          "type": "address"
        }
      ],
      "name": "OwnershipTransferred",
      "type": "event"
    },
    {
      "anonymous": false,
      "inputs": [
        {
          "indexed": false,
          "internalType": "address",
          "name": "newBeacon",
          "type": "address"
        }
      ],
      "name": "UpdatedBeacon",
      "type": "event"
    },
    {
      "anonymous": false,
      "inputs": [
        {
          "indexed": true,
          "internalType": "address",
          "name": "implementation",
          "type": "address"
        }
      ],
      "name": "Upgraded",
      "type": "event"
    },
    {
      "inputs": [
        {
          "internalType": "address",
          "name": "_beacon",
          "type": "address"
        }
      ],
      "name": "UpdateBeacon",
      "outputs": [],
      "stateMutability": "nonpayable",
      "type": "function"
    },
    {
      "inputs": [],
      "name": "beacon",
      "outputs": [
        {
          "internalType": "contract IBeacon",
          "name": "",
          "type": "address"
        }
      ],
      "stateMutability": "view",
      "type": "function"
    },
    {
      "inputs": [
        {
          "internalType": "string",
          "name": "_productName",
          "type": "string"
        },
        {
          "internalType": "bytes",
          "name": "_data",
          "type": "bytes"
        }
      ],
      "name": "createToken",
      "outputs": [],
      "stateMutability": "nonpayable",
      "type": "function"
    },
    {
      "inputs": [
        {
          "internalType": "address",
          "name": "_beacon",
          "type": "address"
        }
      ],
      "name": "initialize",
      "outputs": [],
      "stateMutability": "nonpayable",
      "type": "function"
    },
    {
      "inputs": [],
      "name": "newAttribute",
      "outputs": [
        {
          "internalType": "uint256",
          "name": "",
          "type": "uint256"
        }
      ],
      "stateMutability": "view",
      "type": "function"
    },
    {
      "inputs": [],
      "name": "owner",
      "outputs": [
        {
          "internalType": "address",
          "name": "",
          "type": "address"
        }
      ],
      "stateMutability": "view",
      "type": "function"
    },
    {
      "inputs": [],
      "name": "renounceOwnership",
      "outputs": [],
      "stateMutability": "nonpayable",
      "type": "function"
    },
    {
      "inputs": [
        {
          "internalType": "string",
          "name": "_productName",
          "type": "string"
        }
      ],
      "name": "retrieveToken",
      "outputs": [
        {
          "internalType": "address",
          "name": "",
          "type": "address"
        }
      ],
      "stateMutability": "view",
      "type": "function"
    },
    {
      "inputs": [
        {
          "internalType": "address",
          "name": "newOwner",
          "type": "address"
        }
      ],
      "name": "transferOwnership",
      "outputs": [],
      "stateMutability": "nonpayable",
      "type": "function"
    },
    {
      "inputs": [
        {
          "internalType": "address",
          "name": "newImplementation",
          "type": "address"
        }
      ],
      "name": "upgradeTo",
      "outputs": [],
      "stateMutability": "nonpayable",
      "type": "function"
    },
    {
      "inputs": [
        {
          "internalType": "address",
          "name": "newImplementation",
          "type": "address"
        },
        {
          "internalType": "bytes",
          "name": "data",
          "type": "bytes"
        }
      ],
      "name": "upgradeToAndCall",
      "outputs": [],
      "stateMutability": "payable",
      "type": "function"
    },
    {
      "inputs": [],
      "name": "getNewAttribute",
      "outputs": [
        {
          "internalType": "uint256",
          "name": "",
          "type": "uint256"
        }
      ],
      "stateMutability": "view",
      "type": "function"
    }
  ],
  "bytecode": "0x608060405234801561001057600080fd5b50611d77806100206000396000f3fe608060405260043610620000a75760e060020a60003504632f0a3fe48114620000ac5780632f7fc1cd14620000d75780633659cfe614620000fe578063483335a114620001235780634f1ef286146200013b57806359659e90146200015257806368a2f7c81462000183578063715018a614620001a85780638da5cb5b14620001c0578063c4d66de814620001d8578063d7c5ad0d14620001fd578063f2fde38b1462000222575b600080fd5b348015620000b957600080fd5b50620000c462000247565b6040519081526020015b60405180910390f35b348015620000e457600080fd5b50620000fc620000f636600462000fcc565b6200025f565b005b3480156200010b57600080fd5b50620000fc6200011d36600462000f1e565b620004a0565b3480156200013057600080fd5b50620000c460675481565b620000fc6200014c36600462000f3b565b620004cb565b3480156200015f57600080fd5b506065546200017490600160a060020a031681565b604051620000ce919062001076565b3480156200019057600080fd5b50620000fc620001a236600462000f1e565b620004e8565b348015620001b557600080fd5b50620000fc620005ca565b348015620001cd57600080fd5b50620001746200063a565b348015620001e557600080fd5b50620000fc620001f736600462000f1e565b62000649565b3480156200020a57600080fd5b50620001746200021c36600462000f8d565b620006d3565b3480156200022f57600080fd5b50620000fc6200024136600462000f1e565b6200079d565b600060675460016200025a91906200117b565b905090565b336200026a6200063a565b600160a060020a0316146200029f5760405160e560020a62461bcd028152600401620002969062001146565b60405180910390fd5b6000600160a060020a0316606683604051620002bc919062001058565b90815260405190819003602001902054600160a060020a031614620003275760405160e560020a62461bcd02815260206004820152601f60248201527f5468652070726f6475637420746f6b656e20616c726561647920657869737400604482015260640162000296565b606554604051600091600160a060020a0316908390620003479062000e69565b620003549291906200108a565b604051809103906000f08015801562000371573d6000803e3d6000fd5b509050600081600160a060020a03163360405160240162000393919062001076565b60408051601f19818403018152918152602082018051600160e060020a031660e060020a63f2fde38b0217905251620003cd919062001058565b6000604051808303816000865af19150503d80600081146200040c576040519150601f19603f3d011682016040523d82523d6000602084013e62000411565b606091505b5050905080156200045f57816066856040516200042f919062001058565b9081526040519081900360200190208054600160a060020a0392909216600160a060020a03199092169190911790555b7fc4a2411d92a7e8fc5591ff677f18422a31b35d0737c593723933d3ff35e00f78848260405162000492929190620010c3565b60405180910390a150505050565b620004ab81620008a0565b620004c881604051806020016040528060008152506000620008d7565b50565b620004d682620008a0565b620004e482826001620008d7565b5050565b33620004f36200063a565b600160a060020a0316146200051f5760405160e560020a62461bcd028152600401620002969062001146565b803b620005725760405160e560020a62461bcd02815260206004820152601660248201527f496e76616c696420426561636f6e206164647265737300000000000000000000604482015260640162000296565b60658054600160a060020a031916600160a060020a0383161790556040517f678add5849bd439fa17780efc6d18ec5a025c93a49d9c373d51a6111e8c908b190620005bf90839062001076565b60405180910390a150565b33620005d56200063a565b600160a060020a031614620006015760405160e560020a62461bcd028152600401620002969062001146565b603354604051600091600160a060020a03169060008051602062001cfb833981519152908390a360338054600160a060020a0319169055565b603354600160a060020a031690565b600054610100900460ff168062000663575060005460ff16155b620006855760405160e560020a62461bcd0281526004016200029690620010e9565b600054610100900460ff16158015620006a8576000805461ffff19166101011790555b620006b262000a7a565b620006bd82620004e8565b8015620004e4576000805461ff00191690555050565b600080600160a060020a0316606683604051620006f1919062001058565b90815260405190819003602001902054600160a060020a031614156200076a5760405160e560020a62461bcd02815260206004820152602160248201527f546869732070726f6475637420746f6b656e20646f6573206e6f742065786973604482015260fa60020a601d02606482015260840162000296565b6066826040516200077c919062001058565b90815260405190819003602001902054600160a060020a031690505b919050565b33620007a86200063a565b600160a060020a031614620007d45760405160e560020a62461bcd028152600401620002969062001146565b600160a060020a038116620008555760405160e560020a62461bcd02815260206004820152602660248201527f4f776e61626c653a206e6577206f776e657220697320746865207a65726f206160448201527f6464726573730000000000000000000000000000000000000000000000000000606482015260840162000296565b603354604051600160a060020a0380841692169060008051602062001cfb83398151915290600090a360338054600160a060020a031916600160a060020a0392909216919091179055565b33620008ab6200063a565b600160a060020a031614620004c85760405160e560020a62461bcd028152600401620002969062001146565b6000620008e362000b02565b9050620008f08462000b30565b600083511180620008fe5750815b15620009125762000910848462000bea565b505b7f4910fdfa16fed3260ed0e7147f7cc6da11a60208b5b9406d12a635614ffd9143805460ff1662000a7357805460ff19166001178155604051620009959086906200096290859060240162001076565b60408051601f19818403018152919052602081018051600160e060020a031660e160020a631b2ce7f30217905262000bea565b50805460ff19168155620009a862000b02565b600160a060020a031682600160a060020a03161462000a335760405160e560020a62461bcd02815260206004820152602f60248201527f45524331393637557067726164653a207570677261646520627265616b73206660448201527f7572746865722075706772616465730000000000000000000000000000000000606482015260840162000296565b62000a3e8562000b30565b604051600160a060020a038616907fbc7cd75a20ee27fd9adebab32041f755214dbc6bffa90cc0225b39da2e5c2d3b90600090a25b5050505050565b600054610100900460ff168062000a94575060005460ff16155b62000ab65760405160e560020a62461bcd0281526004016200029690620010e9565b600054610100900460ff1615801562000ad9576000805461ffff19166101011790555b62000ae362000c19565b62000aed62000c8c565b8015620004c8576000805461ff001916905550565b7f360894a13ba1a3210667c828492db98dca3e2076cc3735a920a3ca505d382bbc54600160a060020a031690565b803b62000ba95760405160e560020a62461bcd02815260206004820152602d60248201527f455243313936373a206e657720696d706c656d656e746174696f6e206973206e60448201527f6f74206120636f6e747261637400000000000000000000000000000000000000606482015260840162000296565b7f360894a13ba1a3210667c828492db98dca3e2076cc3735a920a3ca505d382bbc8054600160a060020a031916600160a060020a0392909216919091179055565b606062000c12838360405180606001604052806027815260200162001d1b6027913962000d32565b9392505050565b600054610100900460ff168062000c33575060005460ff16155b62000c555760405160e560020a62461bcd0281526004016200029690620010e9565b600054610100900460ff1615801562000aed576000805461ffff19166101011790558015620004c8576000805461ff001916905550565b600054610100900460ff168062000ca6575060005460ff16155b62000cc85760405160e560020a62461bcd0281526004016200029690620010e9565b600054610100900460ff1615801562000ceb576000805461ffff19166101011790555b60338054600160a060020a03191633908117909155604051819060009060008051602062001cfb833981519152908290a3508015620004c8576000805461ff001916905550565b6060833b62000dad5760405160e560020a62461bcd02815260206004820152602660248201527f416464726573733a2064656c65676174652063616c6c20746f206e6f6e2d636f60448201527f6e74726163740000000000000000000000000000000000000000000000000000606482015260840162000296565b60008085600160a060020a03168560405162000dca919062001058565b600060405180830381855af49150503d806000811462000e07576040519150601f19603f3d011682016040523d82523d6000602084013e62000e0c565b606091505b509150915062000e1e82828662000e28565b9695505050505050565b6060831562000e3957508162000c12565b82511562000e4a5782518084602001fd5b8160405160e560020a62461bcd028152600401620002969190620010ae565b610b0a80620011f183390190565b8035600160a060020a03811681146200079857600080fd5b600082601f83011262000ea0578081fd5b813567ffffffffffffffff8082111562000ebe5762000ebe620011d6565b604051601f8301601f19908116603f0116810190828211818310171562000ee95762000ee9620011d6565b8160405283815286602085880101111562000f02578485fd5b8360208701602083013792830160200193909352509392505050565b60006020828403121562000f30578081fd5b62000c128262000e77565b6000806040838503121562000f4e578081fd5b62000f598362000e77565b9150602083013567ffffffffffffffff81111562000f75578182fd5b62000f838582860162000e8f565b9150509250929050565b60006020828403121562000f9f578081fd5b813567ffffffffffffffff81111562000fb6578182fd5b62000fc48482850162000e8f565b949350505050565b6000806040838503121562000fdf578182fd5b823567ffffffffffffffff8082111562000ff7578384fd5b620010058683870162000e8f565b935060208501359150808211156200101b578283fd5b5062000f838582860162000e8f565b6000815180845262001044816020860160208601620011a3565b601f01601f19169290920160200192915050565b600082516200106c818460208701620011a3565b9190910192915050565b600160a060020a0391909116815260200190565b6000600160a060020a03841682526040602083015262000fc460408301846200102a565b60006020825262000c1260208301846200102a565b600060408252620010d860408301856200102a565b905082151560208301529392505050565b6020808252602e908201527f496e697469616c697a61626c653a20636f6e747261637420697320616c72656160408201527f647920696e697469616c697a6564000000000000000000000000000000000000606082015260800190565b6020808252818101527f4f776e61626c653a2063616c6c6572206973206e6f7420746865206f776e6572604082015260600190565b600082198211156200119e5760e060020a634e487b710281526011600452602481fd5b500190565b60005b83811015620011c0578181015183820152602001620011a6565b83811115620011d0576000848401525b50505050565b60e060020a634e487b710260009081526041600452602490fdfe6080604052604051610b0a380380610b0a833981016040819052610022916105b3565b61004d60017fa3f0ad74e5423aebfd80d3ef4346578335a9a72aeaee59ff6cb3582b35133d516106be565b600080516020610ac383398151915214610090577f4e487b7100000000000000000000000000000000000000000000000000000000600052600160045260246000fd5b6100a5828260006401000000006100ac810204565b5050610755565b6100be836401000000006101ae810204565b604051600160a060020a038416907f1cf3b03a6cf19fa2baba4df148e9dcabedea7f8a5c07840e207e5c089be95d3e90600090a26000825111806100ff5750805b156101a9576101a783600160a060020a0316635c60da1b6040518163ffffffff167c010000000000000000000000000000000000000000000000000000000002815260040160206040518083038186803b15801561015c57600080fd5b505afa158015610170573d6000803e3d6000fd5b505050506040513d601f19601f820116820180604052508101906101949190610599565b836401000000006100296103c982021704565b505b505050565b6101c4816401000000006100556103fe82021704565b610255576040517f08c379a000000000000000000000000000000000000000000000000000000000815260206004820152602560248201527f455243313936373a206e657720626561636f6e206973206e6f74206120636f6e60448201527f747261637400000000000000000000000000000000000000000000000000000060648201526084015b60405180910390fd5b6102f781600160a060020a0316635c60da1b6040518163ffffffff167c010000000000000000000000000000000000000000000000000000000002815260040160206040518083038186803b1580156102ad57600080fd5b505afa1580156102c1573d6000803e3d6000fd5b505050506040513d601f19601f820116820180604052508101906102e59190610599565b6401000000006100556103fe82021704565b610383576040517f08c379a000000000000000000000000000000000000000000000000000000000815260206004820152603060248201527f455243313936373a20626561636f6e20696d706c656d656e746174696f6e206960448201527f73206e6f74206120636f6e747261637400000000000000000000000000000000606482015260840161024c565b806103a8600080516020610ac383398151915264010000000061005b61040882021704565b8054600160a060020a031916600160a060020a039290921691909117905550565b60606103f78383604051806060016040528060278152602001610ae36027913964010000000061040b810204565b9392505050565b803b15155b919050565b90565b606061041f846401000000006103fe810204565b6104ab576040517f08c379a000000000000000000000000000000000000000000000000000000000815260206004820152602660248201527f416464726573733a2064656c65676174652063616c6c20746f206e6f6e2d636f60448201527f6e74726163740000000000000000000000000000000000000000000000000000606482015260840161024c565b60008085600160a060020a0316856040516104c6919061066f565b600060405180830381855af49150503d8060008114610501576040519150601f19603f3d011682016040523d82523d6000602084013e610506565b606091505b509150915061052582828661052f640100000000026401000000009004565b9695505050505050565b6060831561053e5750816103f7565b82511561054e5782518084602001fd5b816040517f08c379a000000000000000000000000000000000000000000000000000000000815260040161024c919061068b565b8051600160a060020a038116811461040357600080fd5b6000602082840312156105aa578081fd5b6103f782610582565b600080604083850312156105c5578081fd5b6105ce83610582565b9150602083015167ffffffffffffffff808211156105ea578283fd5b818501915085601f8301126105fd578283fd5b81518181111561060f5761060f610726565b604051601f8201601f19908116603f0116810190838211818310171561063757610637610726565b8160405282815288602084870101111561064f578586fd5b6106608360208301602088016106fa565b80955050505050509250929050565b600082516106818184602087016106fa565b9190910192915050565b60006020825282518060208401526106aa8160408501602087016106fa565b601f01601f19169190910160400192915050565b6000828210156106f5577f4e487b710000000000000000000000000000000000000000000000000000000081526011600452602481fd5b500390565b60005b838110156107155781810151838201526020016106fd565b838111156101a75750506000910152565b7f4e487b7100000000000000000000000000000000000000000000000000000000600052604160045260246000fd5b61035f806107646000396000f3fe60806040523661001357610011610017565b005b6100115b61002761002261005e565b610109565b565b606061004e83836040518060600160405280602781526020016103036027913961012d565b9392505050565b3b151590565b90565b60006100917fa3f0ad74e5423aebfd80d3ef4346578335a9a72aeaee59ff6cb3582b35133d5054600160a060020a031690565b600160a060020a0316635c60da1b6040518163ffffffff1660e060020a02815260040160206040518083038186803b1580156100cc57600080fd5b505afa1580156100e0573d6000803e3d6000fd5b505050506040513d601f19601f82011682018060405250810190610104919061025c565b905090565b3660008037600080366000845af43d6000803e808015610128573d6000f35b3d6000fd5b6060833b6101ab5760405160e560020a62461bcd02815260206004820152602660248201527f416464726573733a2064656c65676174652063616c6c20746f206e6f6e2d636f60448201527f6e7472616374000000000000000000000000000000000000000000000000000060648201526084015b60405180910390fd5b60008085600160a060020a0316856040516101c69190610283565b600060405180830381855af49150503d8060008114610201576040519150601f19603f3d011682016040523d82523d6000602084013e610206565b606091505b5091509150610216828286610220565b9695505050505050565b6060831561022f57508161004e565b82511561023f5782518084602001fd5b8160405160e560020a62461bcd0281526004016101a2919061029f565b60006020828403121561026d578081fd5b8151600160a060020a038116811461004e578182fd5b600082516102958184602087016102d2565b9190910192915050565b60006020825282518060208401526102be8160408501602087016102d2565b601f01601f19169190910160400192915050565b60005b838110156102ed5781810151838201526020016102d5565b838111156102fc576000848401525b5050505056fe416464726573733a206c6f772d6c6576656c2064656c65676174652063616c6c206661696c6564a26469706673582212202257808f80775ff8cfb732ae5128df8067451356353edb4346919a76c20c5b4064736f6c63430008030033a3f0ad74e5423aebfd80d3ef4346578335a9a72aeaee59ff6cb3582b35133d50416464726573733a206c6f772d6c6576656c2064656c65676174652063616c6c206661696c65648be0079c531659141344cd1fd0a4f28419497f9722a3daafe3b4186f6b6457e0416464726573733a206c6f772d6c6576656c2064656c65676174652063616c6c206661696c6564a2646970667358221220e2b70a81ce69ef255264c9868d1f2fce969157b32ff96dcd009f0f90487bf77564736f6c63430008030033",
  "immutableReferences": {},
  "source": "pragma solidity ^0.8.2;\n\nimport \"../TokenFactory.sol\";\n\ncontract TokenFactoryV1 is TokenFactory { \n\tuint256 public newAttribute;\n\n  function getNewAttribute()\n  public view returns (uint256)\n  {\n    return newAttribute + 1;\n  }\n\n}",
  "sourcePath": "/Users/jack/Documents/GitHub/HighStreet/client/src/contracts/Mock/TokenFactoryV1.sol",
  "compiler": {
    "name": "solc",
    "version": "0.8.3+commit.8d00100c.Emscripten.clang"
  },
  "schemaVersion": "3.4.0",
  "updatedAt": "2021-09-16T10:31:19.471Z",
  "devdoc": {
    "kind": "dev",
    "methods": {
      "UpdateBeacon(address)": {
        "details": "update function for the beacon address.",
        "params": {
          "_beacon": "address for beacon"
        }
      },
      "createToken(string,bytes)": {
        "details": "function to create a new product token.  After creating a new beacon proxy, the token factory will pass in _data, the encoded function call for initialize. Then factory will call method to set our corporate account as the creator of the new token.",
        "params": {
          "_data": "encoded data for the initialize function call with parameters.",
          "_productName": "product name for a new token. The product name has to be unique                \t"
        }
      },
      "initialize(address)": {
        "details": "initializer function.",
        "params": {
          "_beacon": "address for beacon pointing to the implementation logic for product tokens"
        }
      },
      "owner()": {
        "details": "Returns the address of the current owner."
      },
      "renounceOwnership()": {
        "details": "Leaves the contract without owner. It will not be possible to call `onlyOwner` functions anymore. Can only be called by the current owner. NOTE: Renouncing ownership will leave the contract without an owner, thereby removing any functionality that is only available to the owner."
      },
      "retrieveToken(string)": {
        "details": "function to retrieve a product token address After creating a new beacon proxy, the token factory will pass in _data, the encoded function call for initialize. Then factory will call method to set our corporate account as the creator of the new token.",
        "params": {
          "_productName": "product name for the product token. "
        },
        "returns": {
          "_0": "address \t\t\t\t\t\t\t\t\t the address of the product token.           \t"
        }
      },
      "transferOwnership(address)": {
        "details": "Transfers ownership of the contract to a new account (`newOwner`). Can only be called by the current owner."
      }
    },
    "version": 1
  },
  "userdoc": {
    "kind": "user",
    "methods": {},
    "version": 1
  }
}