{
  "contractName": "VoucherMock",
  "abi": [
    {
      "inputs": [],
      "stateMutability": "nonpayable",
      "type": "constructor"
    },
    {
      "anonymous": false,
      "inputs": [
        {
          "indexed": true,
          "internalType": "address",
          "name": "owner",
          "type": "address"
        },
        {
          "indexed": true,
          "internalType": "address",
          "name": "spender",
          "type": "address"
        },
        {
          "indexed": false,
          "internalType": "uint256",
          "name": "value",
          "type": "uint256"
        }
      ],
      "name": "Approval",
      "type": "event"
    },
    {
      "anonymous": false,
      "inputs": [
        {
          "indexed": true,
          "internalType": "address",
          "name": "from",
          "type": "address"
        },
        {
          "indexed": true,
          "internalType": "address",
          "name": "to",
          "type": "address"
        },
        {
          "indexed": false,
          "internalType": "uint256",
          "name": "value",
          "type": "uint256"
        }
      ],
      "name": "Transfer",
      "type": "event"
    },
    {
      "inputs": [
        {
          "internalType": "address",
          "name": "owner",
          "type": "address"
        },
        {
          "internalType": "address",
          "name": "spender",
          "type": "address"
        }
      ],
      "name": "allowance",
      "outputs": [
        {
          "internalType": "uint256",
          "name": "",
          "type": "uint256"
        }
      ],
      "stateMutability": "view",
      "type": "function"
    },
    {
      "inputs": [
        {
          "internalType": "address",
          "name": "spender",
          "type": "address"
        },
        {
          "internalType": "uint256",
          "name": "amount",
          "type": "uint256"
        }
      ],
      "name": "approve",
      "outputs": [
        {
          "internalType": "bool",
          "name": "",
          "type": "bool"
        }
      ],
      "stateMutability": "nonpayable",
      "type": "function"
    },
    {
      "inputs": [
        {
          "internalType": "address",
          "name": "account",
          "type": "address"
        }
      ],
      "name": "balanceOf",
      "outputs": [
        {
          "internalType": "uint256",
          "name": "",
          "type": "uint256"
        }
      ],
      "stateMutability": "view",
      "type": "function"
    },
    {
      "inputs": [],
      "name": "decimals",
      "outputs": [
        {
          "internalType": "uint8",
          "name": "",
          "type": "uint8"
        }
      ],
      "stateMutability": "view",
      "type": "function"
    },
    {
      "inputs": [
        {
          "internalType": "address",
          "name": "spender",
          "type": "address"
        },
        {
          "internalType": "uint256",
          "name": "subtractedValue",
          "type": "uint256"
        }
      ],
      "name": "decreaseAllowance",
      "outputs": [
        {
          "internalType": "bool",
          "name": "",
          "type": "bool"
        }
      ],
      "stateMutability": "nonpayable",
      "type": "function"
    },
    {
      "inputs": [
        {
          "internalType": "address",
          "name": "spender",
          "type": "address"
        },
        {
          "internalType": "uint256",
          "name": "addedValue",
          "type": "uint256"
        }
      ],
      "name": "increaseAllowance",
      "outputs": [
        {
          "internalType": "bool",
          "name": "",
          "type": "bool"
        }
      ],
      "stateMutability": "nonpayable",
      "type": "function"
    },
    {
      "inputs": [],
      "name": "name",
      "outputs": [
        {
          "internalType": "string",
          "name": "",
          "type": "string"
        }
      ],
      "stateMutability": "view",
      "type": "function"
    },
    {
      "inputs": [],
      "name": "symbol",
      "outputs": [
        {
          "internalType": "string",
          "name": "",
          "type": "string"
        }
      ],
      "stateMutability": "view",
      "type": "function"
    },
    {
      "inputs": [],
      "name": "totalSupply",
      "outputs": [
        {
          "internalType": "uint256",
          "name": "",
          "type": "uint256"
        }
      ],
      "stateMutability": "view",
      "type": "function"
    },
    {
      "inputs": [
        {
          "internalType": "address",
          "name": "recipient",
          "type": "address"
        },
        {
          "internalType": "uint256",
          "name": "amount",
          "type": "uint256"
        }
      ],
      "name": "transfer",
      "outputs": [
        {
          "internalType": "bool",
          "name": "",
          "type": "bool"
        }
      ],
      "stateMutability": "nonpayable",
      "type": "function"
    },
    {
      "inputs": [
        {
          "internalType": "address",
          "name": "sender",
          "type": "address"
        },
        {
          "internalType": "address",
          "name": "recipient",
          "type": "address"
        },
        {
          "internalType": "uint256",
          "name": "amount",
          "type": "uint256"
        }
      ],
      "name": "transferFrom",
      "outputs": [
        {
          "internalType": "bool",
          "name": "",
          "type": "bool"
        }
      ],
      "stateMutability": "nonpayable",
      "type": "function"
    },
    {
      "inputs": [
        {
          "internalType": "address",
          "name": "from",
          "type": "address"
        },
        {
          "internalType": "address",
          "name": "to",
          "type": "address"
        },
        {
          "internalType": "uint256",
          "name": "tokenId",
          "type": "uint256"
        },
        {
          "internalType": "uint256",
          "name": "targetTokenId",
          "type": "uint256"
        },
        {
          "internalType": "uint256",
          "name": "units",
          "type": "uint256"
        }
      ],
      "name": "transferFrom",
      "outputs": [],
      "stateMutability": "nonpayable",
      "type": "function"
    },
    {
      "inputs": [
        {
          "internalType": "address",
          "name": "_recipient",
          "type": "address"
        },
        {
          "internalType": "uint256",
          "name": "_amount",
          "type": "uint256"
        }
      ],
      "name": "faucet",
      "outputs": [],
      "stateMutability": "nonpayable",
      "type": "function"
    }
  ],
  "bytecode": "0x608060405234801561001057600080fd5b50604080518082018252600c81527f4869676820566f7563686572000000000000000000000000000000000000000060208083019182528351808501909452600284527f4856000000000000000000000000000000000000000000000000000000000000908401528151919291610089916003916100a5565b50805161009d9060049060208401906100a5565b505050610192565b8280546100b19061013e565b90600052602060002090601f0160209004810192826100d35760008555610119565b82601f106100ec57805160ff1916838001178555610119565b82800160010185558215610119579182015b828111156101195782518255916020019190600101906100fe565b50610125929150610129565b5090565b5b80821115610125576000815560010161012a565b60028104600182168061015257607f821691505b6020821081141561018c577f4e487b7100000000000000000000000000000000000000000000000000000000600052602260045260246000fd5b50919050565b610a97806101a16000396000f3fe608060405234801561001057600080fd5b50600436106100b25760e060020a600035046306fdde0381146100b7578063095ea7b3146100d557806318160ddd146100f857806323b872dd1461010a578063313ce5671461011d578063395093511461012c5780634aed53c21461013f57806370a08231146101545780637b56c2b21461016757806395d89b411461017a578063a457c2d714610182578063a9059cbb14610195578063dd62ed3e146101a8575b600080fd5b6100bf6101e1565b6040516100cc91906109a8565b60405180910390f35b6100e86100e336600461097f565b610273565b60405190151581526020016100cc565b6002545b6040519081526020016100cc565b6100e86101183660046108f8565b610289565b604051601281526020016100cc565b6100e861013a36600461097f565b610350565b61015261014d366004610933565b61038c565b005b6100fc6101623660046108a5565b61039e565b61015261017536600461097f565b6103bd565b6100bf6103cb565b6100e861019036600461097f565b6103da565b6100e86101a336600461097f565b610479565b6100fc6101b63660046108c6565b600160a060020a03918216600090815260016020908152604080832093909416825291909152205490565b6060600380546101f090610a22565b80601f016020809104026020016040519081016040528092919081815260200182805461021c90610a22565b80156102695780601f1061023e57610100808354040283529160200191610269565b820191906000526020600020905b81548152906001019060200180831161024c57829003601f168201915b5050505050905090565b6000610280338484610486565b50600192915050565b60006102968484846105b6565b600160a060020a0384166000908152600160209081526040808320338452909152902054828110156103385760405160e560020a62461bcd02815260206004820152602860248201527f45524332303a207472616e7366657220616d6f756e742065786365656473206160448201527f6c6c6f77616e636500000000000000000000000000000000000000000000000060648201526084015b60405180910390fd5b6103458533858403610486565b506001949350505050565b336000818152600160209081526040808320600160a060020a038716845290915281205490916102809185906103879086906109fb565b610486565b6103978585836105b6565b5050505050565b600160a060020a0381166000908152602081905260409020545b919050565b6103c782826107ab565b5050565b6060600480546101f090610a22565b336000908152600160209081526040808320600160a060020a0386168452909152812054828110156104625760405160e560020a62461bcd02815260206004820152602560248201527f45524332303a2064656372656173656420616c6c6f77616e63652062656c6f77604482015260d860020a64207a65726f02606482015260840161032f565b61046f3385858403610486565b5060019392505050565b60006102803384846105b6565b600160a060020a0383166104ee5760405160e560020a62461bcd028152602060048201526024808201527f45524332303a20617070726f76652066726f6d20746865207a65726f20616464604482015260e060020a637265737302606482015260840161032f565b600160a060020a0382166105555760405160e560020a62461bcd02815260206004820152602260248201527f45524332303a20617070726f766520746f20746865207a65726f206164647265604482015260f060020a61737302606482015260840161032f565b600160a060020a0383811660008181526001602090815260408083209487168084529482529182902085905590518481527f8c5be1e5ebec7d5bd14f71427d1e84f3dd0314c0f7b2291e5b200ac8c7c3b925910160405180910390a3505050565b600160a060020a0383166106205760405160e560020a62461bcd02815260206004820152602560248201527f45524332303a207472616e736665722066726f6d20746865207a65726f206164604482015260d860020a64647265737302606482015260840161032f565b600160a060020a0382166106885760405160e560020a62461bcd02815260206004820152602360248201527f45524332303a207472616e7366657220746f20746865207a65726f2061646472604482015260e860020a6265737302606482015260840161032f565b600160a060020a0383166000908152602081905260409020548181101561071a5760405160e560020a62461bcd02815260206004820152602660248201527f45524332303a207472616e7366657220616d6f756e742065786365656473206260448201527f616c616e63650000000000000000000000000000000000000000000000000000606482015260840161032f565b600160a060020a038085166000908152602081905260408082208585039055918516815290812080548492906107519084906109fb565b9250508190555082600160a060020a031684600160a060020a03167fddf252ad1be2c89b69c2b068fc378daa952ba7f163c4a11628f55a4df523b3ef8460405161079d91815260200190565b60405180910390a350505050565b600160a060020a0382166108045760405160e560020a62461bcd02815260206004820152601f60248201527f45524332303a206d696e7420746f20746865207a65726f206164647265737300604482015260640161032f565b806002600082825461081691906109fb565b9091555050600160a060020a038216600090815260208190526040812080548392906108439084906109fb565b9091555050604051818152600160a060020a038316906000907fddf252ad1be2c89b69c2b068fc378daa952ba7f163c4a11628f55a4df523b3ef9060200160405180910390a36103c7565b8035600160a060020a03811681146103b857600080fd5b6000602082840312156108b6578081fd5b6108bf8261088e565b9392505050565b600080604083850312156108d8578081fd5b6108e18361088e565b91506108ef6020840161088e565b90509250929050565b60008060006060848603121561090c578081fd5b6109158461088e565b92506109236020850161088e565b9150604084013590509250925092565b600080600080600060a0868803121561094a578081fd5b6109538661088e565b94506109616020870161088e565b94979496505050506040830135926060810135926080909101359150565b60008060408385031215610991578182fd5b61099a8361088e565b946020939093013593505050565b6000602080835283518082850152825b818110156109d4578581018301518582016040015282016109b8565b818111156109e55783604083870101525b50601f01601f1916929092016040019392505050565b60008219821115610a1d5760e060020a634e487b710281526011600452602481fd5b500190565b600281046001821680610a3657607f821691505b60208210811415610a5b5760e060020a634e487b710260009081526022600452602490fd5b5091905056fea2646970667358221220dbf064915b348f83ba358cb689126ab90a11e299f6565583cfa6ebc16a59e2c964736f6c63430008030033",
  "immutableReferences": {},
  "source": "pragma solidity ^0.8.3;\n\nimport \"@openzeppelin/contracts/token/ERC20/ERC20.sol\";\n\n\ncontract VoucherMock is ERC20 {\n\n\tconstructor() ERC20('High Voucher', 'HV') {\n\n\t}\n\n    // Simulated Voucher behavior\n    function transferFrom(address from, address to, uint256 tokenId, uint256 targetTokenId,\n    uint256 units) external {\n        _transfer(from, to, units);\n    }\n\n\t// This is a test function used to initialize some amount of the mock dai token for a test account.\n\tfunction faucet(address _recipient, uint256 _amount) external {\n\t\t_mint(_recipient, _amount);\n\t}\n}\n",
  "sourcePath": "/Users/jack/Documents/GitHub/HighStreet/client/src/contracts/Mock/VoucherMock.sol",
  "compiler": {
    "name": "solc",
    "version": "0.8.3+commit.8d00100c.Emscripten.clang"
  },
  "schemaVersion": "3.4.0",
  "updatedAt": "2021-09-25T11:30:46.735Z",
  "devdoc": {
    "kind": "dev",
    "methods": {
      "allowance(address,address)": {
        "details": "See {IERC20-allowance}."
      },
      "approve(address,uint256)": {
        "details": "See {IERC20-approve}. Requirements: - `spender` cannot be the zero address."
      },
      "balanceOf(address)": {
        "details": "See {IERC20-balanceOf}."
      },
      "decimals()": {
        "details": "Returns the number of decimals used to get its user representation. For example, if `decimals` equals `2`, a balance of `505` tokens should be displayed to a user as `5.05` (`505 / 10 ** 2`). Tokens usually opt for a value of 18, imitating the relationship between Ether and Wei. This is the value {ERC20} uses, unless this function is overridden; NOTE: This information is only used for _display_ purposes: it in no way affects any of the arithmetic of the contract, including {IERC20-balanceOf} and {IERC20-transfer}."
      },
      "decreaseAllowance(address,uint256)": {
        "details": "Atomically decreases the allowance granted to `spender` by the caller. This is an alternative to {approve} that can be used as a mitigation for problems described in {IERC20-approve}. Emits an {Approval} event indicating the updated allowance. Requirements: - `spender` cannot be the zero address. - `spender` must have allowance for the caller of at least `subtractedValue`."
      },
      "increaseAllowance(address,uint256)": {
        "details": "Atomically increases the allowance granted to `spender` by the caller. This is an alternative to {approve} that can be used as a mitigation for problems described in {IERC20-approve}. Emits an {Approval} event indicating the updated allowance. Requirements: - `spender` cannot be the zero address."
      },
      "name()": {
        "details": "Returns the name of the token."
      },
      "symbol()": {
        "details": "Returns the symbol of the token, usually a shorter version of the name."
      },
      "totalSupply()": {
        "details": "See {IERC20-totalSupply}."
      },
      "transfer(address,uint256)": {
        "details": "See {IERC20-transfer}. Requirements: - `recipient` cannot be the zero address. - the caller must have a balance of at least `amount`."
      },
      "transferFrom(address,address,uint256)": {
        "details": "See {IERC20-transferFrom}. Emits an {Approval} event indicating the updated allowance. This is not required by the EIP. See the note at the beginning of {ERC20}. Requirements: - `sender` and `recipient` cannot be the zero address. - `sender` must have a balance of at least `amount`. - the caller must have allowance for ``sender``'s tokens of at least `amount`."
      }
    },
    "version": 1
  },
  "userdoc": {
    "kind": "user",
    "methods": {},
    "version": 1
  }
}